{
  "contractName": "IOUtoken",
  "abi": [
    {
      "anonymous": false,
      "inputs": [
        {
          "indexed": true,
          "internalType": "address",
          "name": "owner",
          "type": "address"
        },
        {
          "indexed": true,
          "internalType": "address",
          "name": "spender",
          "type": "address"
        },
        {
          "indexed": false,
          "internalType": "uint256",
          "name": "value",
          "type": "uint256"
        }
      ],
      "name": "Approval",
      "type": "event"
    },
    {
      "anonymous": false,
      "inputs": [
        {
          "indexed": true,
          "internalType": "address",
          "name": "from",
          "type": "address"
        },
        {
          "indexed": true,
          "internalType": "address",
          "name": "to",
          "type": "address"
        },
        {
          "indexed": false,
          "internalType": "uint256",
          "name": "value",
          "type": "uint256"
        }
      ],
      "name": "Transfer",
      "type": "event"
    },
    {
      "inputs": [
        {
          "internalType": "address",
          "name": "",
          "type": "address"
        },
        {
          "internalType": "uint256",
          "name": "",
          "type": "uint256"
        }
      ],
      "name": "IOUbyReceiver",
      "outputs": [
        {
          "internalType": "uint256",
          "name": "",
          "type": "uint256"
        }
      ],
      "stateMutability": "view",
      "type": "function",
      "constant": true
    },
    {
      "inputs": [
        {
          "internalType": "uint256",
          "name": "",
          "type": "uint256"
        }
      ],
      "name": "allFeedbacks",
      "outputs": [
        {
          "internalType": "address",
          "name": "sender",
          "type": "address"
        },
        {
          "internalType": "uint256",
          "name": "time",
          "type": "uint256"
        },
        {
          "internalType": "int256",
          "name": "rating",
          "type": "int256"
        },
        {
          "internalType": "uint256",
          "name": "amount",
          "type": "uint256"
        },
        {
          "internalType": "string",
          "name": "text",
          "type": "string"
        }
      ],
      "stateMutability": "view",
      "type": "function",
      "constant": true
    },
    {
      "inputs": [
        {
          "internalType": "uint256",
          "name": "",
          "type": "uint256"
        }
      ],
      "name": "allIOUs",
      "outputs": [
        {
          "internalType": "address",
          "name": "receiver",
          "type": "address"
        },
        {
          "internalType": "uint256",
          "name": "time",
          "type": "uint256"
        },
        {
          "internalType": "string",
          "name": "IOUDescr",
          "type": "string"
        }
      ],
      "stateMutability": "view",
      "type": "function",
      "constant": true
    },
    {
      "inputs": [
        {
          "internalType": "address",
          "name": "owner",
          "type": "address"
        },
        {
          "internalType": "address",
          "name": "spender",
          "type": "address"
        }
      ],
      "name": "allowance",
      "outputs": [
        {
          "internalType": "uint256",
          "name": "",
          "type": "uint256"
        }
      ],
      "stateMutability": "view",
      "type": "function",
      "constant": true
    },
    {
      "inputs": [
        {
          "internalType": "address",
          "name": "spender",
          "type": "address"
        },
        {
          "internalType": "uint256",
          "name": "amount",
          "type": "uint256"
        }
      ],
      "name": "approve",
      "outputs": [
        {
          "internalType": "bool",
          "name": "",
          "type": "bool"
        }
      ],
      "stateMutability": "nonpayable",
      "type": "function"
    },
    {
      "inputs": [
        {
          "internalType": "address",
          "name": "account",
          "type": "address"
        }
      ],
      "name": "balanceOf",
      "outputs": [
        {
          "internalType": "uint256",
          "name": "",
          "type": "uint256"
        }
      ],
      "stateMutability": "view",
      "type": "function",
      "constant": true
    },
    {
      "inputs": [],
      "name": "decimals",
      "outputs": [
        {
          "internalType": "uint8",
          "name": "",
          "type": "uint8"
        }
      ],
      "stateMutability": "view",
      "type": "function",
      "constant": true
    },
    {
      "inputs": [
        {
          "internalType": "address",
          "name": "spender",
          "type": "address"
        },
        {
          "internalType": "uint256",
          "name": "subtractedValue",
          "type": "uint256"
        }
      ],
      "name": "decreaseAllowance",
      "outputs": [
        {
          "internalType": "bool",
          "name": "",
          "type": "bool"
        }
      ],
      "stateMutability": "nonpayable",
      "type": "function"
    },
    {
      "inputs": [
        {
          "internalType": "address",
          "name": "",
          "type": "address"
        },
        {
          "internalType": "uint256",
          "name": "",
          "type": "uint256"
        }
      ],
      "name": "feedBacksbySender",
      "outputs": [
        {
          "internalType": "uint256",
          "name": "",
          "type": "uint256"
        }
      ],
      "stateMutability": "view",
      "type": "function",
      "constant": true
    },
    {
      "inputs": [
        {
          "internalType": "address",
          "name": "spender",
          "type": "address"
        },
        {
          "internalType": "uint256",
          "name": "addedValue",
          "type": "uint256"
        }
      ],
      "name": "increaseAllowance",
      "outputs": [
        {
          "internalType": "bool",
          "name": "",
          "type": "bool"
        }
      ],
      "stateMutability": "nonpayable",
      "type": "function"
    },
    {
      "inputs": [],
      "name": "name",
      "outputs": [
        {
          "internalType": "string",
          "name": "",
          "type": "string"
        }
      ],
      "stateMutability": "view",
      "type": "function",
      "constant": true
    },
    {
      "inputs": [],
      "name": "symbol",
      "outputs": [
        {
          "internalType": "string",
          "name": "",
          "type": "string"
        }
      ],
      "stateMutability": "view",
      "type": "function",
      "constant": true
    },
    {
      "inputs": [],
      "name": "totalSupply",
      "outputs": [
        {
          "internalType": "uint256",
          "name": "",
          "type": "uint256"
        }
      ],
      "stateMutability": "view",
      "type": "function",
      "constant": true
    },
    {
      "inputs": [
        {
          "internalType": "address",
          "name": "sender",
          "type": "address"
        },
        {
          "internalType": "address",
          "name": "recipient",
          "type": "address"
        },
        {
          "internalType": "uint256",
          "name": "amount",
          "type": "uint256"
        }
      ],
      "name": "transferFrom",
      "outputs": [
        {
          "internalType": "bool",
          "name": "",
          "type": "bool"
        }
      ],
      "stateMutability": "nonpayable",
      "type": "function"
    },
    {
      "inputs": [],
      "name": "initialize",
      "outputs": [],
      "stateMutability": "nonpayable",
      "type": "function"
    },
    {
      "inputs": [
        {
          "internalType": "string",
          "name": "name_",
          "type": "string"
        },
        {
          "internalType": "string",
          "name": "symbol_",
          "type": "string"
        },
        {
          "components": [
            {
              "internalType": "uint256",
              "name": "totalMinted",
              "type": "uint256"
            },
            {
              "internalType": "uint256",
              "name": "totalBurned",
              "type": "uint256"
            },
            {
              "internalType": "int256",
              "name": "avRate",
              "type": "int256"
            },
            {
              "internalType": "bytes32",
              "name": "units",
              "type": "bytes32"
            },
            {
              "internalType": "address",
              "name": "issuer",
              "type": "address"
            },
            {
              "internalType": "string",
              "name": "myName",
              "type": "string"
            },
            {
              "internalType": "string",
              "name": "socialProfile",
              "type": "string"
            },
            {
              "internalType": "string",
              "name": "description",
              "type": "string"
            },
            {
              "components": [
                {
                  "internalType": "string",
                  "name": "country",
                  "type": "string"
                },
                {
                  "internalType": "string",
                  "name": "state",
                  "type": "string"
                },
                {
                  "internalType": "string",
                  "name": "city",
                  "type": "string"
                },
                {
                  "internalType": "string",
                  "name": "street",
                  "type": "string"
                }
              ],
              "internalType": "struct iIOUtoken.geo",
              "name": "location",
              "type": "tuple"
            },
            {
              "internalType": "bytes32[]",
              "name": "keywords",
              "type": "bytes32[]"
            },
            {
              "internalType": "bytes32",
              "name": "phone",
              "type": "bytes32"
            }
          ],
          "internalType": "struct iIOUtoken.DescriptionIOU",
          "name": "_thisIOU",
          "type": "tuple"
        },
        {
          "internalType": "address",
          "name": "_store",
          "type": "address"
        }
      ],
      "name": "setIOU",
      "outputs": [],
      "stateMutability": "nonpayable",
      "type": "function"
    },
    {
      "inputs": [
        {
          "internalType": "address",
          "name": "_newOwner",
          "type": "address"
        }
      ],
      "name": "setStore",
      "outputs": [],
      "stateMutability": "nonpayable",
      "type": "function"
    },
    {
      "inputs": [
        {
          "internalType": "address",
          "name": "_newOwner",
          "type": "address"
        }
      ],
      "name": "setOwner",
      "outputs": [],
      "stateMutability": "nonpayable",
      "type": "function"
    },
    {
      "inputs": [
        {
          "internalType": "address",
          "name": "_who",
          "type": "address"
        },
        {
          "internalType": "uint256",
          "name": "_amount",
          "type": "uint256"
        },
        {
          "internalType": "string",
          "name": "_descr",
          "type": "string"
        }
      ],
      "name": "mint",
      "outputs": [],
      "stateMutability": "nonpayable",
      "type": "function"
    },
    {
      "inputs": [
        {
          "internalType": "uint256",
          "name": "_amount",
          "type": "uint256"
        },
        {
          "internalType": "int256",
          "name": "_rating",
          "type": "int256"
        },
        {
          "internalType": "string",
          "name": "_feedback",
          "type": "string"
        }
      ],
      "name": "burn",
      "outputs": [],
      "stateMutability": "nonpayable",
      "type": "function"
    },
    {
      "inputs": [
        {
          "internalType": "address",
          "name": "_recipient",
          "type": "address"
        },
        {
          "internalType": "uint256",
          "name": "_amount",
          "type": "uint256"
        }
      ],
      "name": "transfer",
      "outputs": [
        {
          "internalType": "bool",
          "name": "",
          "type": "bool"
        }
      ],
      "stateMutability": "nonpayable",
      "type": "function"
    },
    {
      "inputs": [
        {
          "internalType": "string",
          "name": "_descr",
          "type": "string"
        }
      ],
      "name": "editDescr",
      "outputs": [],
      "stateMutability": "nonpayable",
      "type": "function"
    },
    {
      "inputs": [
        {
          "internalType": "bytes32",
          "name": "_phone",
          "type": "bytes32"
        }
      ],
      "name": "editPhone",
      "outputs": [],
      "stateMutability": "nonpayable",
      "type": "function"
    },
    {
      "inputs": [
        {
          "internalType": "string",
          "name": "_country",
          "type": "string"
        },
        {
          "internalType": "string",
          "name": "_state",
          "type": "string"
        },
        {
          "internalType": "string",
          "name": "_city",
          "type": "string"
        },
        {
          "internalType": "string",
          "name": "_street",
          "type": "string"
        }
      ],
      "name": "editGeo",
      "outputs": [],
      "stateMutability": "nonpayable",
      "type": "function"
    },
    {
      "inputs": [
        {
          "internalType": "bytes32[]",
          "name": "_keys",
          "type": "bytes32[]"
        }
      ],
      "name": "addKeys",
      "outputs": [],
      "stateMutability": "nonpayable",
      "type": "function"
    },
    {
      "inputs": [
        {
          "internalType": "bytes32[]",
          "name": "_keys",
          "type": "bytes32[]"
        }
      ],
      "name": "delKeys",
      "outputs": [],
      "stateMutability": "nonpayable",
      "type": "function"
    },
    {
      "inputs": [],
      "name": "thisIOUkeywords",
      "outputs": [
        {
          "internalType": "bytes32[]",
          "name": "",
          "type": "bytes32[]"
        }
      ],
      "stateMutability": "view",
      "type": "function",
      "constant": true
    },
    {
      "inputs": [],
      "name": "getlen",
      "outputs": [
        {
          "internalType": "uint256",
          "name": "",
          "type": "uint256"
        },
        {
          "internalType": "uint256",
          "name": "",
          "type": "uint256"
        }
      ],
      "stateMutability": "view",
      "type": "function",
      "constant": true
    },
    {
      "inputs": [],
      "name": "thisIOUDesc",
      "outputs": [
        {
          "components": [
            {
              "internalType": "uint256",
              "name": "totalMinted",
              "type": "uint256"
            },
            {
              "internalType": "uint256",
              "name": "totalBurned",
              "type": "uint256"
            },
            {
              "internalType": "int256",
              "name": "avRate",
              "type": "int256"
            },
            {
              "internalType": "bytes32",
              "name": "units",
              "type": "bytes32"
            },
            {
              "internalType": "address",
              "name": "issuer",
              "type": "address"
            },
            {
              "internalType": "string",
              "name": "myName",
              "type": "string"
            },
            {
              "internalType": "string",
              "name": "socialProfile",
              "type": "string"
            },
            {
              "internalType": "string",
              "name": "description",
              "type": "string"
            },
            {
              "components": [
                {
                  "internalType": "string",
                  "name": "country",
                  "type": "string"
                },
                {
                  "internalType": "string",
                  "name": "state",
                  "type": "string"
                },
                {
                  "internalType": "string",
                  "name": "city",
                  "type": "string"
                },
                {
                  "internalType": "string",
                  "name": "street",
                  "type": "string"
                }
              ],
              "internalType": "struct iIOUtoken.geo",
              "name": "location",
              "type": "tuple"
            },
            {
              "internalType": "bytes32[]",
              "name": "keywords",
              "type": "bytes32[]"
            },
            {
              "internalType": "bytes32",
              "name": "phone",
              "type": "bytes32"
            }
          ],
          "internalType": "struct iIOUtoken.DescriptionIOU",
          "name": "",
          "type": "tuple"
        }
      ],
      "stateMutability": "view",
      "type": "function",
      "constant": true
    },
    {
      "inputs": [],
      "name": "IOUname",
      "outputs": [
        {
          "internalType": "string",
          "name": "",
          "type": "string"
        }
      ],
      "stateMutability": "view",
      "type": "function",
      "constant": true
    },
    {
      "inputs": [],
      "name": "IOUsymbol",
      "outputs": [
        {
          "internalType": "string",
          "name": "",
          "type": "string"
        }
      ],
      "stateMutability": "view",
      "type": "function",
      "constant": true
    },
    {
      "inputs": [],
      "name": "getTokenInfo",
      "outputs": [
        {
          "internalType": "string",
          "name": "",
          "type": "string"
        },
        {
          "internalType": "string",
          "name": "",
          "type": "string"
        },
        {
          "components": [
            {
              "internalType": "uint256",
              "name": "totalMinted",
              "type": "uint256"
            },
            {
              "internalType": "uint256",
              "name": "totalBurned",
              "type": "uint256"
            },
            {
              "internalType": "int256",
              "name": "avRate",
              "type": "int256"
            },
            {
              "internalType": "bytes32",
              "name": "units",
              "type": "bytes32"
            },
            {
              "internalType": "address",
              "name": "issuer",
              "type": "address"
            },
            {
              "internalType": "string",
              "name": "myName",
              "type": "string"
            },
            {
              "internalType": "string",
              "name": "socialProfile",
              "type": "string"
            },
            {
              "internalType": "string",
              "name": "description",
              "type": "string"
            },
            {
              "components": [
                {
                  "internalType": "string",
                  "name": "country",
                  "type": "string"
                },
                {
                  "internalType": "string",
                  "name": "state",
                  "type": "string"
                },
                {
                  "internalType": "string",
                  "name": "city",
                  "type": "string"
                },
                {
                  "internalType": "string",
                  "name": "street",
                  "type": "string"
                }
              ],
              "internalType": "struct iIOUtoken.geo",
              "name": "location",
              "type": "tuple"
            },
            {
              "internalType": "bytes32[]",
              "name": "keywords",
              "type": "bytes32[]"
            },
            {
              "internalType": "bytes32",
              "name": "phone",
              "type": "bytes32"
            }
          ],
          "internalType": "struct iIOUtoken.DescriptionIOU",
          "name": "",
          "type": "tuple"
        }
      ],
      "stateMutability": "view",
      "type": "function",
      "constant": true
    }
  ],
  "bytecode": "0x608060405234801561001057600080fd5b50613716806100206000396000f3fe608060405234801561001057600080fd5b50600436106101f05760003560e01c806370a082311161010f578063a9059cbb116100a2578063d25b1c6d11610071578063d25b1c6d1461043f578063d3fc986414610452578063dd62ed3e14610465578063f67ad2331461049e57600080fd5b8063a9059cbb146103ed578063abb1dc4414610400578063ac6137ea14610417578063b25113141461042a57600080fd5b80639ee09506116100de5780639ee095061461039d578063a1a613bb146103a5578063a457c2d7146103b8578063a69bac24146103cb57600080fd5b806370a08231146103495780637fdcf01f146103725780638129fc1c1461038d57806395d89b411461039557600080fd5b8063188caf8a116101875780633950935111610156578063395093511461030857806358aee2701461031b5780636a3611b9146103235780636f8797241461033657600080fd5b8063188caf8a146102af5780631bbb6e58146102c257806323b872dd146102e6578063313ce567146102f957600080fd5b80630a576364116101c35780630a5763641461025e57806313af40351461027357806314fcf3151461028657806318160ddd146102a757600080fd5b806306fdde03146101f5578063070df2d214610213578063087cbd4014610228578063095ea7b31461023b575b600080fd5b6101fd6104b1565b60405161020a9190612a47565b60405180910390f35b610226610221366004612b61565b610543565b005b610226610236366004612bcc565b6107fe565b61024e610249366004612be7565b610870565b604051901515815260200161020a565b610266610886565b60405161020a9190612d93565b610226610281366004612bcc565b610d49565b610299610294366004612be7565b610dbb565b60405190815260200161020a565b600254610299565b6102266102bd366004612da6565b610dec565b6102d56102d0366004612e1a565b610f4c565b60405161020a959493929190612e33565b61024e6102f4366004612e71565b611023565b6040516012815260200161020a565b61024e610316366004612be7565b6110cd565b6101fd611109565b610226610331366004612e1a565b611118565b610226610344366004612ef5565b61116d565b610299610357366004612bcc565b6001600160a01b031660009081526020819052604090205490565b601a546018546040805192835260208301919091520161020a565b610226611376565b6101fd6113e5565b6101fd6113f4565b6102266103b33660046130e4565b6113fe565b61024e6103c6366004612be7565b611703565b6103de6103d9366004612e1a565b61179c565b60405161020a93929190613287565b61024e6103fb366004612be7565b611865565b610408611934565b60405161020a939291906132ae565b610226610425366004612da6565b611e10565b610432611fde565b60405161020a91906132f1565b61029961044d366004612be7565b612038565b610226610460366004613335565b612054565b610299610473366004613375565b6001600160a01b03918216600090815260016020908152604080832093909416825291909152205490565b6102266104ac3660046133a8565b612296565b6060600380546104c0906133e9565b80601f01602080910402602001604051908101604052809291908181526020018280546104ec906133e9565b80156105395780601f1061050e57610100808354040283529160200191610539565b820191906000526020600020905b81548152906001019060200180831161051c57829003601f168201915b5050505050905090565b33600090815260208190526040902054839081106105a85760405162461bcd60e51b815260206004820152601a60248201527f4e6f20616d6f756e7420746f6b656e20686f6c6465722068617300000000000060448201526064015b60405180910390fd5b6101008251106105fa5760405162461bcd60e51b815260206004820152601f60248201527f466565646261636b206973206c6f6e672c206d757374206265203c2032353600604482015260640161059f565b6040805160a08101825233815242602080830191825292820186815260608301888152608084018781526018805460018101825560009190915285517fb13d2d76d1f4b7be834882e410b3e3a8afaf69f83600ae24db354391d2378d2e600590920291820180546001600160a01b0319166001600160a01b0390921691909117815594517fb13d2d76d1f4b7be834882e410b3e3a8afaf69f83600ae24db354391d2378d2f82015592517fb13d2d76d1f4b7be834882e410b3e3a8afaf69f83600ae24db354391d2378d3084015590517fb13d2d76d1f4b7be834882e410b3e3a8afaf69f83600ae24db354391d2378d3183015551805193948594610725937fb13d2d76d1f4b7be834882e410b3e3a8afaf69f83600ae24db354391d2378d32019290910190612824565b50503360009081526019602052604090206018549091506107489060019061343a565b8154600181018355600092835260208320015561077a336001600160a01b031660009081526020819052604090205490565b6107848787613451565b61078e91906134d6565b60185490915061079e8183613451565b6018546107ad90600190613512565b600c546107ba9190613451565b6107c49190613551565b6107ce91906134d6565b600c55600b80548791906000906107e6908490613592565b909155506107f6905033876122f7565b505050505050565b601c54604051336001600160a01b0390921682811492610820926020016135aa565b6040516020818303038152906040529061084d5760405162461bcd60e51b815260040161059f9190612a47565b50601d80546001600160a01b0319166001600160a01b0392909216919091179055565b600061087d338484612445565b50600192915050565b61088e6128a8565b6040805161016081018252600a80548252600b546020830152600c5492820192909252600d546060820152600e546001600160a01b03166080820152600f805491929160a0840191906108e0906133e9565b80601f016020809104026020016040519081016040528092919081815260200182805461090c906133e9565b80156109595780601f1061092e57610100808354040283529160200191610959565b820191906000526020600020905b81548152906001019060200180831161093c57829003601f168201915b50505050508152602001600682018054610972906133e9565b80601f016020809104026020016040519081016040528092919081815260200182805461099e906133e9565b80156109eb5780601f106109c0576101008083540402835291602001916109eb565b820191906000526020600020905b8154815290600101906020018083116109ce57829003601f168201915b50505050508152602001600782018054610a04906133e9565b80601f0160208091040260200160405190810160405280929190818152602001828054610a30906133e9565b8015610a7d5780601f10610a5257610100808354040283529160200191610a7d565b820191906000526020600020905b815481529060010190602001808311610a6057829003601f168201915b5050505050815260200160088201604051806080016040529081600082018054610aa6906133e9565b80601f0160208091040260200160405190810160405280929190818152602001828054610ad2906133e9565b8015610b1f5780601f10610af457610100808354040283529160200191610b1f565b820191906000526020600020905b815481529060010190602001808311610b0257829003601f168201915b50505050508152602001600182018054610b38906133e9565b80601f0160208091040260200160405190810160405280929190818152602001828054610b64906133e9565b8015610bb15780601f10610b8657610100808354040283529160200191610bb1565b820191906000526020600020905b815481529060010190602001808311610b9457829003601f168201915b50505050508152602001600282018054610bca906133e9565b80601f0160208091040260200160405190810160405280929190818152602001828054610bf6906133e9565b8015610c435780601f10610c1857610100808354040283529160200191610c43565b820191906000526020600020905b815481529060010190602001808311610c2657829003601f168201915b50505050508152602001600382018054610c5c906133e9565b80601f0160208091040260200160405190810160405280929190818152602001828054610c88906133e9565b8015610cd55780601f10610caa57610100808354040283529160200191610cd5565b820191906000526020600020905b815481529060010190602001808311610cb857829003601f168201915b5050505050815250508152602001600c8201805480602002602001604051908101604052809291908181526020018280548015610d3157602002820191906000526020600020905b815481526020019060010190808311610d1d575b50505050508152602001600d82015481525050905090565b601c54604051336001600160a01b0390921682811492610d6b926020016135aa565b60405160208183030381529060405290610d985760405162461bcd60e51b815260040161059f9190612a47565b50601c80546001600160a01b0319166001600160a01b0392909216919091179055565b601b6020528160005260406000208181548110610dd757600080fd5b90600052602060002001600091509150505481565b601c54604051336001600160a01b0390921682811492610e0e926020016135aa565b60405160208183030381529060405290610e3b5760405162461bcd60e51b815260040161059f9190612a47565b508060058110610e8d5760405162461bcd60e51b815260206004820152601860248201527f4f6e6c792035206b6579732063616e20616464206f6e63650000000000000000604482015260640161059f565b60005b81811015610ee0576016848483818110610eac57610eac6135f1565b8354600181018555600094855260209485902091909402929092013591909201555080610ed881613607565b915050610e90565b50601d546040516343013c4b60e11b81526001600160a01b0390911690638602789690610f1590869086903090600401613622565b600060405180830381600087803b158015610f2f57600080fd5b505af1158015610f43573d6000803e3d6000fd5b50505050505050565b60188181548110610f5c57600080fd5b6000918252602090912060059091020180546001820154600283015460038401546004850180546001600160a01b03909516965092949193909290610fa0906133e9565b80601f0160208091040260200160405190810160405280929190818152602001828054610fcc906133e9565b80156110195780601f10610fee57610100808354040283529160200191611019565b820191906000526020600020905b815481529060010190602001808311610ffc57829003601f168201915b5050505050905085565b6000611030848484612569565b6001600160a01b0384166000908152600160209081526040808320338452909152902054828110156110b55760405162461bcd60e51b815260206004820152602860248201527f45524332303a207472616e7366657220616d6f756e74206578636565647320616044820152676c6c6f77616e636560c01b606482015260840161059f565b6110c28533858403612445565b506001949350505050565b3360008181526001602090815260408083206001600160a01b0387168452909152812054909161087d918590611104908690613592565b612445565b60606111136113e5565b905090565b601c54604051336001600160a01b039092168281149261113a926020016135aa565b604051602081830303815290604052906111675760405162461bcd60e51b815260040161059f9190612a47565b50601755565b601c54604051336001600160a01b039092168281149261118f926020016135aa565b604051602081830303815290604052906111bc5760405162461bcd60e51b815260040161059f9190612a47565b506111e86040518060800160405280606081526020016060815260200160608152602001606081525090565b88888080601f016020809104026020016040519081016040528093929190818152602001838380828437600092019190915250505090825250604080516020601f890181900481028201810190925287815290889088908190840183828082843760009201919091525050505060208083019190915260408051601f870183900483028101830190915285815290869086908190840183828082843760009201919091525050505060408083019190915280516020601f85018190048102820181019092528381529084908490819084018382808284376000920191909152505050506060820152601d5460405163d107704d60e01b81526001600160a01b039091169063d107704d906113029084903090600401613674565b600060405180830381600087803b15801561131c57600080fd5b505af1158015611330573d6000803e3d6000fd5b506113439250601291508b90508a612937565b5061135060138888612937565b5061135d60148686612937565b5061136a60158484612937565b50505050505050505050565b601c54600160a81b900460ff16156113c15760405162461bcd60e51b815260206004820152600e60248201526d105b1c9958591e481a5b9a5d195960921b604482015260640161059f565b601c805461ffff60a01b1933166001600160b01b031990911617600160a81b179055565b6060600480546104c0906133e9565b60606111136104b1565b601c54600160a01b900460ff161561144d5760405162461bcd60e51b8152602060048201526012602482015271105b1c9958591e4818dbdb999a59dd5c995960721b604482015260640161059f565b8151600a908155602080840151600b556040840151600c556060840151600d556080840151600e80546001600160a01b0319166001600160a01b0390921691909117905560a084015180518593926114aa92600f92910190612824565b5060c082015180516114c6916006840191602090910190612824565b5060e082015180516114e2916007840191602090910190612824565b5061010082015180518051600884019161150191839160200190612824565b50602082810151805161151a9260018501920190612824565b5060408201518051611536916002840191602090910190612824565b5060608201518051611552916003840191602090910190612824565b505050610120820151805161157191600c8401916020909101906129ab565b506101409190910151600d909101556080820151601c80546001600160a01b0319166001600160a01b0390921691909117905583516115b7906008906020870190612824565b5082516115cb906009906020860190612824565b50601084511080156115de575060058351105b80156115ef575060408260a0015151105b8015611600575060808260c0015151105b801561161257506101008260e0015151105b8015611625575060058261012001515111155b6116715760405162461bcd60e51b815260206004820152601e60248201527f546f6f206d616e792073796d627320696e20706172616d657465722873290000604482015260640161059f565b601d80546001600160a01b0319166001600160a01b038316908117909155608083015160405163d83c8bd360e01b815263d83c8bd3916116b891309190879060040161369e565b600060405180830381600087803b1580156116d257600080fd5b505af11580156116e6573d6000803e3d6000fd5b5050601c805460ff60a01b1916600160a01b179055505050505050565b3360009081526001602090815260408083206001600160a01b0386168452909152812054828110156117855760405162461bcd60e51b815260206004820152602560248201527f45524332303a2064656372656173656420616c6c6f77616e63652062656c6f77604482015264207a65726f60d81b606482015260840161059f565b6117923385858403612445565b5060019392505050565b601a81815481106117ac57600080fd5b60009182526020909120600390910201805460018201546002830180546001600160a01b0390931694509092916117e2906133e9565b80601f016020809104026020016040519081016040528092919081815260200182805461180e906133e9565b801561185b5780601f106118305761010080835404028352916020019161185b565b820191906000526020600020905b81548152906001019060200180831161183e57829003601f168201915b5050505050905083565b33600090815260208190526040812054829081106118c55760405162461bcd60e51b815260206004820152601a60248201527f4e6f20616d6f756e7420746f6b656e20686f6c64657220686173000000000000604482015260640161059f565b601d546040516323b3af8960e01b81526001600160a01b038681166004830152306024830152909116906323b3af8990604401600060405180830381600087803b15801561191257600080fd5b505af1158015611926573d6000803e3d6000fd5b505050506110c28484612738565b60608061193f6128a8565b6119476104b1565b61194f6113e5565b6040805161016081018252600a80548252600b546020830152600c5492820192909252600d546060820152600e546001600160a01b03166080820152600f8054839160a084019161199f906133e9565b80601f01602080910402602001604051908101604052809291908181526020018280546119cb906133e9565b8015611a185780601f106119ed57610100808354040283529160200191611a18565b820191906000526020600020905b8154815290600101906020018083116119fb57829003601f168201915b50505050508152602001600682018054611a31906133e9565b80601f0160208091040260200160405190810160405280929190818152602001828054611a5d906133e9565b8015611aaa5780601f10611a7f57610100808354040283529160200191611aaa565b820191906000526020600020905b815481529060010190602001808311611a8d57829003601f168201915b50505050508152602001600782018054611ac3906133e9565b80601f0160208091040260200160405190810160405280929190818152602001828054611aef906133e9565b8015611b3c5780601f10611b1157610100808354040283529160200191611b3c565b820191906000526020600020905b815481529060010190602001808311611b1f57829003601f168201915b5050505050815260200160088201604051806080016040529081600082018054611b65906133e9565b80601f0160208091040260200160405190810160405280929190818152602001828054611b91906133e9565b8015611bde5780601f10611bb357610100808354040283529160200191611bde565b820191906000526020600020905b815481529060010190602001808311611bc157829003601f168201915b50505050508152602001600182018054611bf7906133e9565b80601f0160208091040260200160405190810160405280929190818152602001828054611c23906133e9565b8015611c705780601f10611c4557610100808354040283529160200191611c70565b820191906000526020600020905b815481529060010190602001808311611c5357829003601f168201915b50505050508152602001600282018054611c89906133e9565b80601f0160208091040260200160405190810160405280929190818152602001828054611cb5906133e9565b8015611d025780601f10611cd757610100808354040283529160200191611d02565b820191906000526020600020905b815481529060010190602001808311611ce557829003601f168201915b50505050508152602001600382018054611d1b906133e9565b80601f0160208091040260200160405190810160405280929190818152602001828054611d47906133e9565b8015611d945780601f10611d6957610100808354040283529160200191611d94565b820191906000526020600020905b815481529060010190602001808311611d7757829003601f168201915b5050505050815250508152602001600c8201805480602002602001604051908101604052809291908181526020018280548015611df057602002820191906000526020600020905b815481526020019060010190808311611ddc575b50505050508152602001600d820154815250509050925092509250909192565b601c54604051336001600160a01b0390921682811492611e32926020016135aa565b60405160208183030381529060405290611e5f5760405162461bcd60e51b815260040161059f9190612a47565b508060058110611eb15760405162461bcd60e51b815260206004820152601b60248201527f4f6e6c792035206b6579732063616e2072656d6f7665206f6e63650000000000604482015260640161059f565b60005b81811015611fa9576000805b601654811015611f2057858584818110611edc57611edc6135f1565b90506020020135600a600c018281548110611ef957611ef96135f1565b90600052602060002001541415611f0e578091505b80611f1881613607565b915050611ec0565b5060168054611f319060019061343a565b81548110611f4157611f416135f1565b9060005260206000200154600a600c018281548110611f6257611f626135f1565b6000918252602090912001556016805480611f7f57611f7f6136ca565b60019003818190600052602060002001600090559055508080611fa190613607565b915050611eb4565b50601d54604051638bcd065560e01b81526001600160a01b0390911690638bcd065590610f1590869086903090600401613622565b6060600a600c0180548060200260200160405190810160405280929190818152602001828054801561053957602002820191906000526020600020905b81548152602001906001019080831161201b575050505050905090565b60196020528160005260406000208181548110610dd757600080fd5b601c54604051336001600160a01b0390921682811492612076926020016135aa565b604051602081830303815290604052906120a35760405162461bcd60e51b815260040161059f9190612a47565b506101008151106120f65760405162461bcd60e51b815260206004820152601c60248201527f494f552074657874206973206c6f6e672c206e656564203c2032353600000000604482015260640161059f565b604080516060810182526001600160a01b038581168252426020808401918252938301858152601a805460018101825560009190915284517f057c384a7d1c54f3a1b2e5e67b2617b8224fdfd1ea7234eea573a6ff665ff63e600390920291820180546001600160a01b0319169190951617845591517f057c384a7d1c54f3a1b2e5e67b2617b8224fdfd1ea7234eea573a6ff665ff63f830155518051939485946121c7937f057c384a7d1c54f3a1b2e5e67b2617b8224fdfd1ea7234eea573a6ff665ff640019290910190612824565b5050506001600160a01b0384166000908152601b60205260409020601a546121f19060019061343a565b815460018101835560009283526020909220909101556122118484612745565b82600a60000160008282546122269190613592565b9091555050601d546040516323b3af8960e01b81526001600160a01b038681166004830152306024830152909116906323b3af8990604401600060405180830381600087803b15801561227857600080fd5b505af115801561228c573d6000803e3d6000fd5b5050505050505050565b601c54604051336001600160a01b03909216828114926122b8926020016135aa565b604051602081830303815290604052906122e55760405162461bcd60e51b815260040161059f9190612a47565b506122f260118383612937565b505050565b6001600160a01b0382166123575760405162461bcd60e51b815260206004820152602160248201527f45524332303a206275726e2066726f6d20746865207a65726f206164647265736044820152607360f81b606482015260840161059f565b6001600160a01b038216600090815260208190526040902054818110156123cb5760405162461bcd60e51b815260206004820152602260248201527f45524332303a206275726e20616d6f756e7420657863656564732062616c616e604482015261636560f01b606482015260840161059f565b6001600160a01b03831660009081526020819052604081208383039055600280548492906123fa90849061343a565b90915550506040518281526000906001600160a01b038516907fddf252ad1be2c89b69c2b068fc378daa952ba7f163c4a11628f55a4df523b3ef9060200160405180910390a3505050565b6001600160a01b0383166124a75760405162461bcd60e51b8152602060048201526024808201527f45524332303a20617070726f76652066726f6d20746865207a65726f206164646044820152637265737360e01b606482015260840161059f565b6001600160a01b0382166125085760405162461bcd60e51b815260206004820152602260248201527f45524332303a20617070726f766520746f20746865207a65726f206164647265604482015261737360f01b606482015260840161059f565b6001600160a01b0383811660008181526001602090815260408083209487168084529482529182902085905590518481527f8c5be1e5ebec7d5bd14f71427d1e84f3dd0314c0f7b2291e5b200ac8c7c3b925910160405180910390a3505050565b6001600160a01b0383166125cd5760405162461bcd60e51b815260206004820152602560248201527f45524332303a207472616e736665722066726f6d20746865207a65726f206164604482015264647265737360d81b606482015260840161059f565b6001600160a01b03821661262f5760405162461bcd60e51b815260206004820152602360248201527f45524332303a207472616e7366657220746f20746865207a65726f206164647260448201526265737360e81b606482015260840161059f565b6001600160a01b038316600090815260208190526040902054818110156126a75760405162461bcd60e51b815260206004820152602660248201527f45524332303a207472616e7366657220616d6f756e7420657863656564732062604482015265616c616e636560d01b606482015260840161059f565b6001600160a01b038085166000908152602081905260408082208585039055918516815290812080548492906126de908490613592565b92505081905550826001600160a01b0316846001600160a01b03167fddf252ad1be2c89b69c2b068fc378daa952ba7f163c4a11628f55a4df523b3ef8460405161272a91815260200190565b60405180910390a350505050565b600061087d338484612569565b6001600160a01b03821661279b5760405162461bcd60e51b815260206004820152601f60248201527f45524332303a206d696e7420746f20746865207a65726f206164647265737300604482015260640161059f565b80600260008282546127ad9190613592565b90915550506001600160a01b038216600090815260208190526040812080548392906127da908490613592565b90915550506040518181526001600160a01b038316906000907fddf252ad1be2c89b69c2b068fc378daa952ba7f163c4a11628f55a4df523b3ef9060200160405180910390a35050565b828054612830906133e9565b90600052602060002090601f0160209004810192826128525760008555612898565b82601f1061286b57805160ff1916838001178555612898565b82800160010185558215612898579182015b8281111561289857825182559160200191906001019061287d565b506128a49291506129e5565b5090565b6040518061016001604052806000815260200160008152602001600081526020016000801916815260200160006001600160a01b031681526020016060815260200160608152602001606081526020016129236040518060800160405280606081526020016060815260200160608152602001606081525090565b815260606020820152600060409091015290565b828054612943906133e9565b90600052602060002090601f0160209004810192826129655760008555612898565b82601f1061297e5782800160ff19823516178555612898565b82800160010185558215612898579182015b82811115612898578235825591602001919060010190612990565b828054828255906000526020600020908101928215612898579160200282018281111561289857825182559160200191906001019061287d565b5b808211156128a457600081556001016129e6565b6000815180845260005b81811015612a2057602081850181015186830182015201612a04565b81811115612a32576000602083870101525b50601f01601f19169290920160200192915050565b602081526000612a5a60208301846129fa565b9392505050565b634e487b7160e01b600052604160045260246000fd5b604051608081016001600160401b0381118282101715612a9957612a99612a61565b60405290565b60405161016081016001600160401b0381118282101715612a9957612a99612a61565b604051601f8201601f191681016001600160401b0381118282101715612aea57612aea612a61565b604052919050565b600082601f830112612b0357600080fd5b81356001600160401b03811115612b1c57612b1c612a61565b612b2f601f8201601f1916602001612ac2565b818152846020838601011115612b4457600080fd5b816020850160208301376000918101602001919091529392505050565b600080600060608486031215612b7657600080fd5b833592506020840135915060408401356001600160401b03811115612b9a57600080fd5b612ba686828701612af2565b9150509250925092565b80356001600160a01b0381168114612bc757600080fd5b919050565b600060208284031215612bde57600080fd5b612a5a82612bb0565b60008060408385031215612bfa57600080fd5b612c0383612bb0565b946020939093013593505050565b6000815160808452612c2660808501826129fa565b905060208301518482036020860152612c3f82826129fa565b91505060408301518482036040860152612c5982826129fa565b91505060608301518482036060860152612c7382826129fa565b95945050505050565b600081518084526020808501945080840160005b83811015612cac57815187529582019590820190600101612c90565b509495945050505050565b6000610160825184526020830151602085015260408301516040850152606083015160608501526080830151612cf860808601826001600160a01b03169052565b5060a08301518160a0860152612d10828601826129fa565b91505060c083015184820360c0860152612d2a82826129fa565b91505060e083015184820360e0860152612d4482826129fa565b9150506101008084015185830382870152612d5f8382612c11565b925050506101208084015185830382870152612d7b8382612c7c565b61014095860151969095019590955250919392505050565b602081526000612a5a6020830184612cb7565b60008060208385031215612db957600080fd5b82356001600160401b0380821115612dd057600080fd5b818501915085601f830112612de457600080fd5b813581811115612df357600080fd5b8660208260051b8501011115612e0857600080fd5b60209290920196919550909350505050565b600060208284031215612e2c57600080fd5b5035919050565b60018060a01b038616815284602082015283604082015282606082015260a060808201526000612e6660a08301846129fa565b979650505050505050565b600080600060608486031215612e8657600080fd5b612e8f84612bb0565b9250612e9d60208501612bb0565b9150604084013590509250925092565b60008083601f840112612ebf57600080fd5b5081356001600160401b03811115612ed657600080fd5b602083019150836020828501011115612eee57600080fd5b9250929050565b6000806000806000806000806080898b031215612f1157600080fd5b88356001600160401b0380821115612f2857600080fd5b612f348c838d01612ead565b909a50985060208b0135915080821115612f4d57600080fd5b612f598c838d01612ead565b909850965060408b0135915080821115612f7257600080fd5b612f7e8c838d01612ead565b909650945060608b0135915080821115612f9757600080fd5b50612fa48b828c01612ead565b999c989b5096995094979396929594505050565b600060808284031215612fca57600080fd5b612fd2612a77565b905081356001600160401b0380821115612feb57600080fd5b612ff785838601612af2565b8352602084013591508082111561300d57600080fd5b61301985838601612af2565b6020840152604084013591508082111561303257600080fd5b61303e85838601612af2565b6040840152606084013591508082111561305757600080fd5b5061306484828501612af2565b60608301525092915050565b600082601f83011261308157600080fd5b813560206001600160401b0382111561309c5761309c612a61565b8160051b6130ab828201612ac2565b92835284810182019282810190878511156130c557600080fd5b83870192505b84831015612e66578235825291830191908301906130cb565b600080600080608085870312156130fa57600080fd5b84356001600160401b038082111561311157600080fd5b61311d88838901612af2565b9550602087013591508082111561313357600080fd5b61313f88838901612af2565b9450604087013591508082111561315557600080fd5b90860190610160828903121561316a57600080fd5b613172612a9f565b823581526020830135602082015260408301356040820152606083013560608201526131a060808401612bb0565b608082015260a0830135828111156131b757600080fd5b6131c38a828601612af2565b60a08301525060c0830135828111156131db57600080fd5b6131e78a828601612af2565b60c08301525060e0830135828111156131ff57600080fd5b61320b8a828601612af2565b60e083015250610100808401358381111561322557600080fd5b6132318b828701612fb8565b828401525050610120808401358381111561324b57600080fd5b6132578b828701613070565b8284015250506101409150818301358282015280945050505061327c60608601612bb0565b905092959194509250565b60018060a01b0384168152826020820152606060408201526000612c7360608301846129fa565b6060815260006132c160608301866129fa565b82810360208401526132d381866129fa565b905082810360408401526132e78185612cb7565b9695505050505050565b6020808252825182820181905260009190848201906040850190845b818110156133295783518352928401929184019160010161330d565b50909695505050505050565b60008060006060848603121561334a57600080fd5b61335384612bb0565b92506020840135915060408401356001600160401b03811115612b9a57600080fd5b6000806040838503121561338857600080fd5b61339183612bb0565b915061339f60208401612bb0565b90509250929050565b600080602083850312156133bb57600080fd5b82356001600160401b038111156133d157600080fd5b6133dd85828601612ead565b90969095509350505050565b600181811c908216806133fd57607f821691505b6020821081141561341e57634e487b7160e01b600052602260045260246000fd5b50919050565b634e487b7160e01b600052601160045260246000fd5b60008282101561344c5761344c613424565b500390565b60006001600160ff1b038184138284138082168684048611161561347757613477613424565b600160ff1b600087128281168783058912161561349657613496613424565b600087129250878205871284841616156134b2576134b2613424565b878505871281841616156134c8576134c8613424565b505050929093029392505050565b6000826134f357634e487b7160e01b600052601260045260246000fd5b600160ff1b82146000198414161561350d5761350d613424565b500590565b60008083128015600160ff1b85018412161561353057613530613424565b6001600160ff1b038401831381161561354b5761354b613424565b50500390565b600080821280156001600160ff1b038490038513161561357357613573613424565b600160ff1b839003841281161561358c5761358c613424565b50500190565b600082198211156135a5576135a5613424565b500190565b6060808252601690820152754f6e6c79206f776e65722063616e20646f207468697360501b60808201526001600160a01b0392831660208201529116604082015260a00190565b634e487b7160e01b600052603260045260246000fd5b600060001982141561361b5761361b613424565b5060010190565b6040808252810183905260006001600160fb1b0384111561364257600080fd5b8360051b8086606085013760009083016060019081526001600160a01b03939093166020909201919091525092915050565b6040815260006136876040830185612c11565b905060018060a01b03831660208301529392505050565b6001600160a01b03848116825283166020820152606060408201819052600090612c7390830184612cb7565b634e487b7160e01b600052603160045260246000fdfea264697066735822122030864f0ab9767d8e4e55a6c4c80cd431d8321c55f4faab7b7b2088423160d07b64736f6c634300080a0033",
  "immutableReferences": {},
  "source": "pragma solidity>= 0.8.0;\npragma experimental ABIEncoderV2;\nimport  \"./interfaces/iIOUtoken.sol\";\nimport \"./interfaces/iStoreIOUs.sol\";\nimport \"./ERC20.sol\";\n\n//import \"./MakeIOU.sol\";\n\n/*** IOU ecosystem\n*   The aim of IOU ecosystem is to give people proved fiat-free mutual settlements by issuing personal IOU tokens on Ethereum.\n*   \n*   1.Alice, the artist,  wants to get service from Bob, the barber but has no money. But she can issue ERC20 compatible IOU token  and fill this:\n*   name of the token (Alice Artist 2020)\n*   symbol of the token (AA01)\n*   description of service (Artist: logos, infographic, cartoons)\n*   location (New York)\n*   social profile in LinkedIn (or Facebook or  smth else)\n*   units (dollars, euros, hours, pictures)\n*   2. Alice negotiated the sum of her AA01 tokens,  transfers this to Bob, and get the beautiful hairstyle. And this deal fixes in the blockchain forever.\n*   3. Two-month later Bob asked her later for a cartoon about his hairdressing salon.\n*   4. After Alice made her job, Bob burns a part of  Alices IOU tokens and puts feedback, adding a rating of results.\n*   5. Later Bob pays with Alices AA01 tokens to Peter, the webmaster, who supports Bobs salon website. Peter looks for a fresh infographic for another project.\n*   6. Peter doesnt know Alice personally and he wants to check Alices reputation. He gets the history of Alices deals and looks feedbacks and rates, given to Alice. From another user s of IOU tokens, number of transactions and supply amount.\n*   7. If he decides that all ok, he approve the deal in Alice's IOU tokens.\n*   8. After Piter receives results, hi burned tokens and gives his feedback too.\n*/\n/// @author stanta\n/// @title IOUtoken\ncontract IOUData is ERC20 {\n     //ERC20 \n    mapping(address => uint256) private _balances;\n\n    mapping(address => mapping(address => uint256)) private _allowances;\n\n    uint256  _totalSupply;\n\n    string  _name;\n    string  _symbol;\n  \n \n   // bool registered;\n\n    iIOUtoken.DescriptionIOU  thisIOU;\n\n    iIOUtoken.FeedBack[] public allFeedbacks;\n    mapping (address => uint256[]) public feedBacksbySender; // feedback from tokenholders\n\n    iIOUtoken.IOU[] public allIOUs;\n    mapping (address => uint256[]) public IOUbyReceiver; // list of this IOUs by receiver\n\n    address owner;\n    bool configured;\n    bool inited;\n    iStoreIOUs store;\n    //mapping (address => uint) Tokenholders;\n //   address implementation;\n\n}\n\ncontract IOUtoken is IOUData, iIOUtoken  { \n\n     modifier onlyOwner() {\n        require (owner == msg.sender, string(abi.encode(\"Only owner can do this\", owner, msg.sender)));\n        _;\n    }\n\n    modifier nonConfiged () {\n        require(!configured, \"Already configured\");\n        _;\n        configured = true;\n\n    }\n\n    modifier nonInited () {\n        require(!inited, \"Already inited\");\n        _;\n        inited = true;\n\n    }\n\n    modifier onlyHolder (uint256 _amount) {\n        require (balanceOf(msg.sender) > _amount, \"No amount token holder has\" );\n    _;\n    }\n   \n    function initialize()  public nonInited override\n    {\n        owner = msg.sender;\n        configured = false;\n    }\n    function setIOU  (\n    //    constructor (\n                    string memory name_, \n                    string memory symbol_, \n                    DescriptionIOU memory _thisIOU,\n                    address _store\n)  public  nonConfiged /* override */ {\n        thisIOU = _thisIOU;\n        owner = _thisIOU.issuer;\n        _name = name_; \n        _symbol = symbol_;\n         require (bytes(name_).length <16 &&\n                    bytes(symbol_).length < 5 &&\n                    bytes(_thisIOU.myName).length < 64 &&\n                    bytes(_thisIOU.socialProfile).length < 128 &&\n                    bytes(_thisIOU.description).length < 256 &&\n                    _thisIOU.keywords.length <=5 , \n                    \"Too many symbs in parameter(s)\" ); \n    //todo add visibility?\n    store = iStoreIOUs(_store);\n            \n    store.addIOU1(address(this), _thisIOU.issuer, _thisIOU); //, _socialProfile, msg.sender, _keywords);\n        }\n\n    function setStore (address _newOwner) public onlyOwner {\n        store = iStoreIOUs(_newOwner);\n        \n    }   \n\n\n    function setOwner (address _newOwner) public onlyOwner {\n   //     _removeMinter(owner);\n        owner = _newOwner;\n  //      _addMinter(_newOwner);\n    }\n    \n\n    function mint (address _who, uint256 _amount, string memory _descr) public onlyOwner { \n/*         if (!registered) {\n            StoreIOU.addIOU2(address(this), thisIOU.socialProfile, thisIOU.keywords);\n            registered = true; \n            } */\n        require (bytes(_descr).length <256, \"IOU text is long, need < 256\");\n        IOU memory bond = IOU (_who, block.timestamp, _descr);\n        allIOUs.push(bond);\n        IOUbyReceiver[_who].push(allIOUs.length-1);\n        _mint(_who, _amount);\n        thisIOU.totalMinted += _amount;\n        store.addHolder(_who, address(this)); \n        \n    }\n\n    function burn (uint256 _amount, int256 _rating, string memory _feedback) public onlyHolder (_amount) {\n        require (bytes(_feedback).length <256, \"Feedback is long, must be < 256\");\n\n        iIOUtoken.FeedBack memory feedback = iIOUtoken.FeedBack(msg.sender,block.timestamp, _rating, _amount, _feedback);\n        allFeedbacks.push(feedback);\n        feedBacksbySender[msg.sender].push(allFeedbacks.length-1);\n        \n        int256 deltaRate = _rating * int256(_amount) / int256 (balanceOf(msg.sender));\n\n        thisIOU.avRate = (thisIOU.avRate * (int256(allFeedbacks.length) -1) + \n                        deltaRate  * int256(allFeedbacks.length)) / int256(allFeedbacks.length);\n                        \n\n        thisIOU.totalBurned += _amount;\n        _burn(msg.sender, _amount);\n    }\n\n    function transfer(address _recipient, uint256 _amount) public override onlyHolder(_amount) returns (bool) {\n        store.addHolder(_recipient, address(this));\n        super.transfer(_recipient, _amount);\n        return true;\n    }\n\n    function editDescr (string calldata _descr)  public onlyOwner {\n        thisIOU.description = _descr;\n    }\n\n    function editPhone (bytes32 _phone)  public onlyOwner {\n        thisIOU.phone = _phone;\n    }\n\n    function editGeo (string calldata _country,\n                    string calldata _state,\n                    string calldata _city,\n                    string calldata _street)  public onlyOwner {\n        iIOUtoken.geo memory newloc;\n        newloc.country = _country;\n        newloc.state = _state;\n        newloc.city = _city;\n        newloc.street = _street;\n        store.changeIOUGeoAllkeys(newloc, address(this));\n        thisIOU.location.country = _country;\n        thisIOU.location.state = _state;\n        thisIOU.location.city = _city;\n        thisIOU.location.street = _street;\n    }\n\n\n    function addKeys (bytes32[] calldata _keys)  public onlyOwner {\n        uint addKeyLen = _keys.length;\n        require(addKeyLen < 5, \"Only 5 keys can add once\");\n        for (uint k=0; k<addKeyLen; k++) {\n            thisIOU.keywords.push(_keys[k]);\n        }\n        store.addKeys( _keys, address(this));  \n    }\n    function delKeys (bytes32[] calldata _keys)  public onlyOwner {\n        uint delKeyLen = _keys.length;       \n        require(delKeyLen < 5, \"Only 5 keys can remove once\");\n        // mark removing keys\n       // uint[5] memory keyMap;\n       \n       // uint km = 0;\n        for (uint dk=0; dk<delKeyLen; dk++) {\n            uint delkey;\n            for (uint kk=0; kk<thisIOU.keywords.length; kk++) {                \n                    if (thisIOU.keywords[kk] == _keys[dk]) {\n                        delkey = kk;                        \n                    }\n            }\n            // catch array \n            thisIOU.keywords[delkey] = thisIOU.keywords[thisIOU.keywords.length-1] ;\n            thisIOU.keywords.pop();\n    \n        }\n        \n        store.delKeys( _keys, address(this)); \n    }\n\n\n    function thisIOUkeywords() public view returns (bytes32[] memory)\n    {\n        return thisIOU.keywords;\n    }\n\n    function getlen ()  public view returns (uint256, uint256) {\n        return (allIOUs.length, allFeedbacks.length);\n    } \n\n    function thisIOUDesc () public view override returns (DescriptionIOU memory)\n    {    return thisIOU;\n    }\n    function IOUname () public view override returns (string memory)\n    {    return name();\n    }\n    function IOUsymbol () public view override returns (string memory)\n    {    return symbol ();\n    }\n\n\n    function getTokenInfo() public view returns(string memory,\n                                           string memory,\n                                           iIOUtoken.DescriptionIOU memory ) {\n        return(name(), symbol(), thisIOU);\n\n    }\n\n}\n",
  "sourcePath": "/mnt/512-2/dfd/iou2/contracts/IOUtoken.sol",
  "compiler": {
    "name": "solc",
    "version": "0.8.10+commit.fc410830.Emscripten.clang"
  },
  "schemaVersion": "3.4.4",
  "updatedAt": "2022-02-18T17:12:18.117Z",
  "networkType": "ethereum",
  "devdoc": {
    "kind": "dev",
    "methods": {
      "allowance(address,address)": {
        "details": "See {IERC20-allowance}."
      },
      "approve(address,uint256)": {
        "details": "See {IERC20-approve}. Requirements: - `spender` cannot be the zero address."
      },
      "balanceOf(address)": {
        "details": "See {IERC20-balanceOf}."
      },
      "decimals()": {
        "details": "Returns the number of decimals used to get its user representation. For example, if `decimals` equals `2`, a balance of `505` tokens should be displayed to a user as `5.05` (`505 / 10 ** 2`). Tokens usually opt for a value of 18, imitating the relationship between Ether and Wei. This is the value {ERC20} uses, unless this function is overridden; NOTE: This information is only used for _display_ purposes: it in no way affects any of the arithmetic of the contract, including {IERC20-balanceOf} and {IERC20-transfer}."
      },
      "decreaseAllowance(address,uint256)": {
        "details": "Atomically decreases the allowance granted to `spender` by the caller. This is an alternative to {approve} that can be used as a mitigation for problems described in {IERC20-approve}. Emits an {Approval} event indicating the updated allowance. Requirements: - `spender` cannot be the zero address. - `spender` must have allowance for the caller of at least `subtractedValue`."
      },
      "increaseAllowance(address,uint256)": {
        "details": "Atomically increases the allowance granted to `spender` by the caller. This is an alternative to {approve} that can be used as a mitigation for problems described in {IERC20-approve}. Emits an {Approval} event indicating the updated allowance. Requirements: - `spender` cannot be the zero address."
      },
      "name()": {
        "details": "Returns the name of the token."
      },
      "symbol()": {
        "details": "Returns the symbol of the token, usually a shorter version of the name."
      },
      "totalSupply()": {
        "details": "See {IERC20-totalSupply}."
      },
      "transferFrom(address,address,uint256)": {
        "details": "See {IERC20-transferFrom}. Emits an {Approval} event indicating the updated allowance. This is not required by the EIP. See the note at the beginning of {ERC20}. Requirements: - `sender` and `recipient` cannot be the zero address. - `sender` must have a balance of at least `amount`. - the caller must have allowance for ``sender``'s tokens of at least `amount`."
      }
    },
    "version": 1
  },
  "userdoc": {
    "kind": "user",
    "methods": {},
    "version": 1
  }
}