{
  "contractName": "IOUtoken",
  "abi": [
    {
      "inputs": [
        {
          "internalType": "string",
          "name": "name_",
          "type": "string"
        },
        {
          "internalType": "string",
          "name": "symbol_",
          "type": "string"
        }
      ],
      "stateMutability": "nonpayable",
      "type": "constructor"
    },
    {
      "anonymous": false,
      "inputs": [
        {
          "indexed": true,
          "internalType": "address",
          "name": "owner",
          "type": "address"
        },
        {
          "indexed": true,
          "internalType": "address",
          "name": "spender",
          "type": "address"
        },
        {
          "indexed": false,
          "internalType": "uint256",
          "name": "value",
          "type": "uint256"
        }
      ],
      "name": "Approval",
      "type": "event"
    },
    {
      "anonymous": false,
      "inputs": [
        {
          "indexed": true,
          "internalType": "address",
          "name": "from",
          "type": "address"
        },
        {
          "indexed": true,
          "internalType": "address",
          "name": "to",
          "type": "address"
        },
        {
          "indexed": false,
          "internalType": "uint256",
          "name": "value",
          "type": "uint256"
        }
      ],
      "name": "Transfer",
      "type": "event"
    },
    {
      "inputs": [
        {
          "internalType": "address",
          "name": "",
          "type": "address"
        },
        {
          "internalType": "uint256",
          "name": "",
          "type": "uint256"
        }
      ],
      "name": "IOUbyReceiver",
      "outputs": [
        {
          "internalType": "uint256",
          "name": "",
          "type": "uint256"
        }
      ],
      "stateMutability": "view",
      "type": "function"
    },
    {
      "inputs": [
        {
          "internalType": "uint256",
          "name": "",
          "type": "uint256"
        }
      ],
      "name": "allFeedbacks",
      "outputs": [
        {
          "internalType": "address",
          "name": "sender",
          "type": "address"
        },
        {
          "internalType": "uint256",
          "name": "time",
          "type": "uint256"
        },
        {
          "internalType": "int256",
          "name": "rating",
          "type": "int256"
        },
        {
          "internalType": "string",
          "name": "text",
          "type": "string"
        }
      ],
      "stateMutability": "view",
      "type": "function"
    },
    {
      "inputs": [
        {
          "internalType": "uint256",
          "name": "",
          "type": "uint256"
        }
      ],
      "name": "allIOUs",
      "outputs": [
        {
          "internalType": "address",
          "name": "receiver",
          "type": "address"
        },
        {
          "internalType": "uint256",
          "name": "time",
          "type": "uint256"
        },
        {
          "internalType": "string",
          "name": "IOUDescr",
          "type": "string"
        }
      ],
      "stateMutability": "view",
      "type": "function"
    },
    {
      "inputs": [
        {
          "internalType": "address",
          "name": "owner",
          "type": "address"
        },
        {
          "internalType": "address",
          "name": "spender",
          "type": "address"
        }
      ],
      "name": "allowance",
      "outputs": [
        {
          "internalType": "uint256",
          "name": "",
          "type": "uint256"
        }
      ],
      "stateMutability": "view",
      "type": "function"
    },
    {
      "inputs": [
        {
          "internalType": "address",
          "name": "spender",
          "type": "address"
        },
        {
          "internalType": "uint256",
          "name": "amount",
          "type": "uint256"
        }
      ],
      "name": "approve",
      "outputs": [
        {
          "internalType": "bool",
          "name": "",
          "type": "bool"
        }
      ],
      "stateMutability": "nonpayable",
      "type": "function"
    },
    {
      "inputs": [
        {
          "internalType": "address",
          "name": "account",
          "type": "address"
        }
      ],
      "name": "balanceOf",
      "outputs": [
        {
          "internalType": "uint256",
          "name": "",
          "type": "uint256"
        }
      ],
      "stateMutability": "view",
      "type": "function"
    },
    {
      "inputs": [],
      "name": "decimals",
      "outputs": [
        {
          "internalType": "uint8",
          "name": "",
          "type": "uint8"
        }
      ],
      "stateMutability": "view",
      "type": "function"
    },
    {
      "inputs": [
        {
          "internalType": "address",
          "name": "spender",
          "type": "address"
        },
        {
          "internalType": "uint256",
          "name": "subtractedValue",
          "type": "uint256"
        }
      ],
      "name": "decreaseAllowance",
      "outputs": [
        {
          "internalType": "bool",
          "name": "",
          "type": "bool"
        }
      ],
      "stateMutability": "nonpayable",
      "type": "function"
    },
    {
      "inputs": [
        {
          "internalType": "address",
          "name": "",
          "type": "address"
        },
        {
          "internalType": "uint256",
          "name": "",
          "type": "uint256"
        }
      ],
      "name": "feedBacksbySender",
      "outputs": [
        {
          "internalType": "uint256",
          "name": "",
          "type": "uint256"
        }
      ],
      "stateMutability": "view",
      "type": "function"
    },
    {
      "inputs": [
        {
          "internalType": "address",
          "name": "spender",
          "type": "address"
        },
        {
          "internalType": "uint256",
          "name": "addedValue",
          "type": "uint256"
        }
      ],
      "name": "increaseAllowance",
      "outputs": [
        {
          "internalType": "bool",
          "name": "",
          "type": "bool"
        }
      ],
      "stateMutability": "nonpayable",
      "type": "function"
    },
    {
      "inputs": [],
      "name": "name",
      "outputs": [
        {
          "internalType": "string",
          "name": "",
          "type": "string"
        }
      ],
      "stateMutability": "view",
      "type": "function"
    },
    {
      "inputs": [],
      "name": "symbol",
      "outputs": [
        {
          "internalType": "string",
          "name": "",
          "type": "string"
        }
      ],
      "stateMutability": "view",
      "type": "function"
    },
    {
      "inputs": [],
      "name": "thisIOU",
      "outputs": [
        {
          "internalType": "uint256",
          "name": "totalMinted",
          "type": "uint256"
        },
        {
          "internalType": "uint256",
          "name": "totalBurned",
          "type": "uint256"
        },
        {
          "internalType": "int256",
          "name": "avRate",
          "type": "int256"
        },
        {
          "internalType": "bytes32",
          "name": "units",
          "type": "bytes32"
        },
        {
          "internalType": "address",
          "name": "issuer",
          "type": "address"
        },
        {
          "internalType": "string",
          "name": "myName",
          "type": "string"
        },
        {
          "internalType": "string",
          "name": "socialProfile",
          "type": "string"
        },
        {
          "internalType": "string",
          "name": "description",
          "type": "string"
        },
        {
          "internalType": "string",
          "name": "location",
          "type": "string"
        }
      ],
      "stateMutability": "view",
      "type": "function"
    },
    {
      "inputs": [],
      "name": "totalSupply",
      "outputs": [
        {
          "internalType": "uint256",
          "name": "",
          "type": "uint256"
        }
      ],
      "stateMutability": "view",
      "type": "function"
    },
    {
      "inputs": [
        {
          "internalType": "address",
          "name": "sender",
          "type": "address"
        },
        {
          "internalType": "address",
          "name": "recipient",
          "type": "address"
        },
        {
          "internalType": "uint256",
          "name": "amount",
          "type": "uint256"
        }
      ],
      "name": "transferFrom",
      "outputs": [
        {
          "internalType": "bool",
          "name": "",
          "type": "bool"
        }
      ],
      "stateMutability": "nonpayable",
      "type": "function"
    },
    {
      "inputs": [
        {
          "internalType": "string",
          "name": "_name",
          "type": "string"
        },
        {
          "internalType": "string",
          "name": "_symbol",
          "type": "string"
        },
        {
          "internalType": "string",
          "name": "_myName",
          "type": "string"
        },
        {
          "internalType": "string",
          "name": "_socialProfile",
          "type": "string"
        },
        {
          "internalType": "string",
          "name": "_description",
          "type": "string"
        },
        {
          "internalType": "string",
          "name": "_location",
          "type": "string"
        },
        {
          "internalType": "bytes32",
          "name": "_units",
          "type": "bytes32"
        },
        {
          "internalType": "bytes32[]",
          "name": "_keywords",
          "type": "bytes32[]"
        },
        {
          "internalType": "address",
          "name": "_storeAddr",
          "type": "address"
        },
        {
          "internalType": "address",
          "name": "_issuer",
          "type": "address"
        }
      ],
      "name": "setIOU",
      "outputs": [],
      "stateMutability": "nonpayable",
      "type": "function"
    },
    {
      "inputs": [],
      "name": "getTokenInfo",
      "outputs": [
        {
          "internalType": "string",
          "name": "",
          "type": "string"
        },
        {
          "internalType": "string",
          "name": "",
          "type": "string"
        },
        {
          "components": [
            {
              "internalType": "uint256",
              "name": "totalMinted",
              "type": "uint256"
            },
            {
              "internalType": "uint256",
              "name": "totalBurned",
              "type": "uint256"
            },
            {
              "internalType": "int256",
              "name": "avRate",
              "type": "int256"
            },
            {
              "internalType": "bytes32",
              "name": "units",
              "type": "bytes32"
            },
            {
              "internalType": "address",
              "name": "issuer",
              "type": "address"
            },
            {
              "internalType": "string",
              "name": "myName",
              "type": "string"
            },
            {
              "internalType": "string",
              "name": "socialProfile",
              "type": "string"
            },
            {
              "internalType": "string",
              "name": "description",
              "type": "string"
            },
            {
              "internalType": "string",
              "name": "location",
              "type": "string"
            },
            {
              "internalType": "bytes32[]",
              "name": "keywords",
              "type": "bytes32[]"
            }
          ],
          "internalType": "struct iIOUtoken.DescriptionIOU",
          "name": "",
          "type": "tuple"
        }
      ],
      "stateMutability": "view",
      "type": "function"
    },
    {
      "inputs": [
        {
          "internalType": "address",
          "name": "_newOwner",
          "type": "address"
        }
      ],
      "name": "setOwner",
      "outputs": [],
      "stateMutability": "nonpayable",
      "type": "function"
    },
    {
      "inputs": [
        {
          "internalType": "address",
          "name": "_newfactor",
          "type": "address"
        }
      ],
      "name": "setStore",
      "outputs": [],
      "stateMutability": "nonpayable",
      "type": "function"
    },
    {
      "inputs": [
        {
          "internalType": "address",
          "name": "_who",
          "type": "address"
        },
        {
          "internalType": "uint256",
          "name": "_amount",
          "type": "uint256"
        },
        {
          "internalType": "string",
          "name": "_descr",
          "type": "string"
        }
      ],
      "name": "mint",
      "outputs": [],
      "stateMutability": "nonpayable",
      "type": "function"
    },
    {
      "inputs": [
        {
          "internalType": "uint256",
          "name": "_amount",
          "type": "uint256"
        },
        {
          "internalType": "int256",
          "name": "_rating",
          "type": "int256"
        },
        {
          "internalType": "string",
          "name": "_feedback",
          "type": "string"
        }
      ],
      "name": "burn",
      "outputs": [],
      "stateMutability": "nonpayable",
      "type": "function"
    },
    {
      "inputs": [
        {
          "internalType": "address",
          "name": "_recipient",
          "type": "address"
        },
        {
          "internalType": "uint256",
          "name": "_amount",
          "type": "uint256"
        }
      ],
      "name": "transfer",
      "outputs": [
        {
          "internalType": "bool",
          "name": "",
          "type": "bool"
        }
      ],
      "stateMutability": "nonpayable",
      "type": "function"
    },
    {
      "inputs": [],
      "name": "thisIOUkeywords",
      "outputs": [
        {
          "internalType": "bytes32[]",
          "name": "",
          "type": "bytes32[]"
        }
      ],
      "stateMutability": "view",
      "type": "function"
    },
    {
      "inputs": [],
      "name": "getlen",
      "outputs": [
        {
          "internalType": "uint256",
          "name": "",
          "type": "uint256"
        },
        {
          "internalType": "uint256",
          "name": "",
          "type": "uint256"
        }
      ],
      "stateMutability": "view",
      "type": "function"
    }
  ],
  "bytecode": "0x60806040523480156200001157600080fd5b5060405162004530380380620045308339818101604052810190620000379190620001d8565b8181816003908051906020019062000051929190620000b6565b5080600490805190602001906200006a929190620000b6565b50505033601460006101000a81548173ffffffffffffffffffffffffffffffffffffffff021916908373ffffffffffffffffffffffffffffffffffffffff1602179055505050620003bb565b828054620000c490620002e0565b90600052602060002090601f016020900481019282620000e8576000855562000134565b82601f106200010357805160ff191683800117855562000134565b8280016001018555821562000134579182015b828111156200013357825182559160200191906001019062000116565b5b50905062000143919062000147565b5090565b5b808211156200016257600081600090555060010162000148565b5090565b60006200017d620001778462000274565b6200024b565b9050828152602081018484840111156200019657600080fd5b620001a3848285620002aa565b509392505050565b600082601f830112620001bd57600080fd5b8151620001cf84826020860162000166565b91505092915050565b60008060408385031215620001ec57600080fd5b600083015167ffffffffffffffff8111156200020757600080fd5b6200021585828601620001ab565b925050602083015167ffffffffffffffff8111156200023357600080fd5b6200024185828601620001ab565b9150509250929050565b6000620002576200026a565b905062000265828262000316565b919050565b6000604051905090565b600067ffffffffffffffff8211156200029257620002916200037b565b5b6200029d82620003aa565b9050602081019050919050565b60005b83811015620002ca578082015181840152602081019050620002ad565b83811115620002da576000848401525b50505050565b60006002820490506001821680620002f957607f821691505b6020821081141562000310576200030f6200034c565b5b50919050565b6200032182620003aa565b810181811067ffffffffffffffff821117156200034357620003426200037b565b5b80604052505050565b7f4e487b7100000000000000000000000000000000000000000000000000000000600052602260045260246000fd5b7f4e487b7100000000000000000000000000000000000000000000000000000000600052604160045260246000fd5b6000601f19601f8301169050919050565b61416580620003cb6000396000f3fe608060405234801561001057600080fd5b50600436106101585760003560e01c80637fdcf01f116100c3578063abb1dc441161007c578063abb1dc4414610419578063b251131414610439578063be39e78d14610457578063d25b1c6d1461047d578063d3fc9864146104ad578063dd62ed3e146104c957610158565b80637fdcf01f1461032e5780638acc56121461034d57806395d89b4114610369578063a457c2d714610387578063a69bac24146103b7578063a9059cbb146103e957610158565b806318160ddd1161011557806318160ddd1461022f5780631bbb6e581461024d57806323b872dd14610280578063313ce567146102b057806339509351146102ce57806370a08231146102fe57610158565b806306fdde031461015d578063070df2d21461017b578063087cbd4014610197578063095ea7b3146101b357806313af4035146101e357806314fcf315146101ff575b600080fd5b6101656104f9565b60405161017291906132ea565b60405180910390f35b61019560048036038101906101909190612b67565b61058b565b005b6101b160048036038101906101ac9190612864565b61081a565b005b6101cd60048036038101906101c89190612918565b6108ee565b6040516101da91906132cf565b60405180910390f35b6101fd60048036038101906101f89190612864565b61090c565b005b61021960048036038101906102149190612918565b6109e0565b6040516102269190613558565b60405180910390f35b610237610a11565b6040516102449190613558565b60405180910390f35b61026760048036038101906102629190612b3e565b610a1b565b6040516102779493929190613223565b60405180910390f35b61029a600480360381019061029591906128c9565b610b03565b6040516102a791906132cf565b60405180910390f35b6102b8610bfb565b6040516102c59190613645565b60405180910390f35b6102e860048036038101906102e39190612918565b610c04565b6040516102f591906132cf565b60405180910390f35b61031860048036038101906103139190612864565b610cb0565b6040516103259190613558565b60405180910390f35b610336610cf8565b604051610344929190613573565b60405180910390f35b610367600480360381019061036291906129bb565b610d0f565b005b610371611020565b60405161037e91906132ea565b60405180910390f35b6103a1600480360381019061039c9190612918565b6110b2565b6040516103ae91906132cf565b60405180910390f35b6103d160048036038101906103cc9190612b3e565b61119d565b6040516103e09392919061326f565b60405180910390f35b61040360048036038101906103fe9190612918565b61127f565b60405161041091906132cf565b60405180910390f35b610421611325565b6040516104309392919061330c565b60405180910390f35b61044161167a565b60405161044e91906132ad565b60405180910390f35b61045f6116d5565b6040516104749998979695949392919061359c565b60405180910390f35b61049760048036038101906104929190612918565b611951565b6040516104a49190613558565b60405180910390f35b6104c760048036038101906104c29190612954565b611982565b005b6104e360048036038101906104de919061288d565b611d5f565b6040516104f09190613558565b60405180910390f35b60606003805461050890613b83565b80601f016020809104026020016040519081016040528092919081815260200182805461053490613b83565b80156105815780601f1061055657610100808354040283529160200191610581565b820191906000526020600020905b81548152906001019060200180831161056457829003601f168201915b5050505050905090565b828061059633610cb0565b116105d6576040517f08c379a00000000000000000000000000000000000000000000000000000000081526004016105cd906133f8565b60405180910390fd5b61010082511061061b576040517f08c379a0000000000000000000000000000000000000000000000000000000008152600401610612906134d8565b60405180910390fd5b600060405180608001604052803373ffffffffffffffffffffffffffffffffffffffff168152602001428152602001858152602001848152509050601081908060018154018082558091505060019003906000526020600020906004020160009091909190915060008201518160000160006101000a81548173ffffffffffffffffffffffffffffffffffffffff021916908373ffffffffffffffffffffffffffffffffffffffff160217905550602082015181600101556040820151816002015560608201518160030190805190602001906106f9929190612599565b505050601160003373ffffffffffffffffffffffffffffffffffffffff1673ffffffffffffffffffffffffffffffffffffffff168152602001908152602001600020600160108054905061074d9190613a9a565b9080600181540180825580915050600190039060005260206000200160009091909190915055600061077e33610cb0565b868661078a91906138ef565b6107949190613885565b9050601080549050601080549050826107ad91906138ef565b60016010805490506107bf9190613a06565b6006600201546107cf91906138ef565b6107d9919061379b565b6107e39190613885565b6006600201819055508560066001016000828254610801919061382f565b925050819055506108123387611de6565b505050505050565b3373ffffffffffffffffffffffffffffffffffffffff16601460009054906101000a900473ffffffffffffffffffffffffffffffffffffffff1673ffffffffffffffffffffffffffffffffffffffff16146108aa576040517f08c379a00000000000000000000000000000000000000000000000000000000081526004016108a1906134b8565b60405180910390fd5b80600560006101000a81548173ffffffffffffffffffffffffffffffffffffffff021916908373ffffffffffffffffffffffffffffffffffffffff16021790555050565b60006109026108fb611fbd565b8484611fc5565b6001905092915050565b3373ffffffffffffffffffffffffffffffffffffffff16601560009054906101000a900473ffffffffffffffffffffffffffffffffffffffff1673ffffffffffffffffffffffffffffffffffffffff161461099c576040517f08c379a000000000000000000000000000000000000000000000000000000000815260040161099390613418565b60405180910390fd5b80601560006101000a81548173ffffffffffffffffffffffffffffffffffffffff021916908373ffffffffffffffffffffffffffffffffffffffff16021790555050565b601360205281600052604060002081815481106109fc57600080fd5b90600052602060002001600091509150505481565b6000600254905090565b60108181548110610a2b57600080fd5b90600052602060002090600402016000915090508060000160009054906101000a900473ffffffffffffffffffffffffffffffffffffffff1690806001015490806002015490806003018054610a8090613b83565b80601f0160208091040260200160405190810160405280929190818152602001828054610aac90613b83565b8015610af95780601f10610ace57610100808354040283529160200191610af9565b820191906000526020600020905b815481529060010190602001808311610adc57829003601f168201915b5050505050905084565b6000610b10848484612190565b6000600160008673ffffffffffffffffffffffffffffffffffffffff1673ffffffffffffffffffffffffffffffffffffffff1681526020019081526020016000206000610b5b611fbd565b73ffffffffffffffffffffffffffffffffffffffff1673ffffffffffffffffffffffffffffffffffffffff16815260200190815260200160002054905082811015610bdb576040517f08c379a0000000000000000000000000000000000000000000000000000000008152600401610bd290613438565b60405180910390fd5b610bef85610be7611fbd565b858403611fc5565b60019150509392505050565b60006012905090565b6000610ca6610c11611fbd565b848460016000610c1f611fbd565b73ffffffffffffffffffffffffffffffffffffffff1673ffffffffffffffffffffffffffffffffffffffff16815260200190815260200160002060008873ffffffffffffffffffffffffffffffffffffffff1673ffffffffffffffffffffffffffffffffffffffff16815260200190815260200160002054610ca1919061382f565b611fc5565b6001905092915050565b60008060008373ffffffffffffffffffffffffffffffffffffffff1673ffffffffffffffffffffffffffffffffffffffff168152602001908152602001600020549050919050565b600080601280549050601080549050915091509091565b3373ffffffffffffffffffffffffffffffffffffffff16601460009054906101000a900473ffffffffffffffffffffffffffffffffffffffff1673ffffffffffffffffffffffffffffffffffffffff1614610d9f576040517f08c379a0000000000000000000000000000000000000000000000000000000008152600401610d96906134b8565b60405180910390fd5b80601560006101000a81548173ffffffffffffffffffffffffffffffffffffffff021916908373ffffffffffffffffffffffffffffffffffffffff16021790555081600560006101000a81548173ffffffffffffffffffffffffffffffffffffffff021916908373ffffffffffffffffffffffffffffffffffffffff16021790555060108a511080610e325750600a8951105b80610e3e575060408851105b80610e4a575060808751105b80610e56575060808651105b80610e62575060808551105b80610e6f57506005835111155b610eae576040517f08c379a0000000000000000000000000000000000000000000000000000000008152600401610ea590613358565b60405180910390fd5b6040518061014001604052806000815260200160008152602001600081526020018581526020018273ffffffffffffffffffffffffffffffffffffffff1681526020018981526020018881526020018781526020018681526020018481525060066000820151816000015560208201518160010155604082015181600201556060820151816003015560808201518160040160006101000a81548173ffffffffffffffffffffffffffffffffffffffff021916908373ffffffffffffffffffffffffffffffffffffffff16021790555060a0820151816005019080519060200190610f9a929190612599565b5060c0820151816006019080519060200190610fb7929190612599565b5060e0820151816007019080519060200190610fd4929190612599565b50610100820151816008019080519060200190610ff2929190612599565b5061012082015181600901908051906020019061101092919061261f565b5090505050505050505050505050565b60606004805461102f90613b83565b80601f016020809104026020016040519081016040528092919081815260200182805461105b90613b83565b80156110a85780601f1061107d576101008083540402835291602001916110a8565b820191906000526020600020905b81548152906001019060200180831161108b57829003601f168201915b5050505050905090565b600080600160006110c1611fbd565b73ffffffffffffffffffffffffffffffffffffffff1673ffffffffffffffffffffffffffffffffffffffff16815260200190815260200160002060008573ffffffffffffffffffffffffffffffffffffffff1673ffffffffffffffffffffffffffffffffffffffff1681526020019081526020016000205490508281101561117e576040517f08c379a000000000000000000000000000000000000000000000000000000000815260040161117590613518565b60405180910390fd5b611192611189611fbd565b85858403611fc5565b600191505092915050565b601281815481106111ad57600080fd5b90600052602060002090600302016000915090508060000160009054906101000a900473ffffffffffffffffffffffffffffffffffffffff16908060010154908060020180546111fc90613b83565b80601f016020809104026020016040519081016040528092919081815260200182805461122890613b83565b80156112755780601f1061124a57610100808354040283529160200191611275565b820191906000526020600020905b81548152906001019060200180831161125857829003601f168201915b5050505050905083565b6000600560009054906101000a900473ffffffffffffffffffffffffffffffffffffffff1673ffffffffffffffffffffffffffffffffffffffff166323b3af8984306040518363ffffffff1660e01b81526004016112de9291906131b5565b600060405180830381600087803b1580156112f857600080fd5b505af115801561130c573d6000803e3d6000fd5b5050505061131a8383612411565b506001905092915050565b60608061133061266c565b6113386104f9565b611340611020565b60068060405180610140016040529081600082015481526020016001820154815260200160028201548152602001600382015481526020016004820160009054906101000a900473ffffffffffffffffffffffffffffffffffffffff1673ffffffffffffffffffffffffffffffffffffffff1673ffffffffffffffffffffffffffffffffffffffff1681526020016005820180546113dd90613b83565b80601f016020809104026020016040519081016040528092919081815260200182805461140990613b83565b80156114565780601f1061142b57610100808354040283529160200191611456565b820191906000526020600020905b81548152906001019060200180831161143957829003601f168201915b5050505050815260200160068201805461146f90613b83565b80601f016020809104026020016040519081016040528092919081815260200182805461149b90613b83565b80156114e85780601f106114bd576101008083540402835291602001916114e8565b820191906000526020600020905b8154815290600101906020018083116114cb57829003601f168201915b5050505050815260200160078201805461150190613b83565b80601f016020809104026020016040519081016040528092919081815260200182805461152d90613b83565b801561157a5780601f1061154f5761010080835404028352916020019161157a565b820191906000526020600020905b81548152906001019060200180831161155d57829003601f168201915b5050505050815260200160088201805461159390613b83565b80601f01602080910402602001604051908101604052809291908181526020018280546115bf90613b83565b801561160c5780601f106115e15761010080835404028352916020019161160c565b820191906000526020600020905b8154815290600101906020018083116115ef57829003601f168201915b505050505081526020016009820180548060200260200160405190810160405280929190818152602001828054801561166457602002820191906000526020600020905b815481526020019060010190808311611650575b5050505050815250509050925092509250909192565b606060066009018054806020026020016040519081016040528092919081815260200182805480156116cb57602002820191906000526020600020905b8154815260200190600101908083116116b7575b5050505050905090565b60068060000154908060010154908060020154908060030154908060040160009054906101000a900473ffffffffffffffffffffffffffffffffffffffff169080600501805461172490613b83565b80601f016020809104026020016040519081016040528092919081815260200182805461175090613b83565b801561179d5780601f106117725761010080835404028352916020019161179d565b820191906000526020600020905b81548152906001019060200180831161178057829003601f168201915b5050505050908060060180546117b290613b83565b80601f01602080910402602001604051908101604052809291908181526020018280546117de90613b83565b801561182b5780601f106118005761010080835404028352916020019161182b565b820191906000526020600020905b81548152906001019060200180831161180e57829003601f168201915b50505050509080600701805461184090613b83565b80601f016020809104026020016040519081016040528092919081815260200182805461186c90613b83565b80156118b95780601f1061188e576101008083540402835291602001916118b9565b820191906000526020600020905b81548152906001019060200180831161189c57829003601f168201915b5050505050908060080180546118ce90613b83565b80601f01602080910402602001604051908101604052809291908181526020018280546118fa90613b83565b80156119475780601f1061191c57610100808354040283529160200191611947565b820191906000526020600020905b81548152906001019060200180831161192a57829003601f168201915b5050505050905089565b6011602052816000526040600020818154811061196d57600080fd5b90600052602060002001600091509150505481565b3373ffffffffffffffffffffffffffffffffffffffff16601560009054906101000a900473ffffffffffffffffffffffffffffffffffffffff1673ffffffffffffffffffffffffffffffffffffffff1614611a12576040517f08c379a0000000000000000000000000000000000000000000000000000000008152600401611a0990613418565b60405180910390fd5b600560149054906101000a900460ff16611ada57600560009054906101000a900473ffffffffffffffffffffffffffffffffffffffff1673ffffffffffffffffffffffffffffffffffffffff166338a10485306006800160066009016040518463ffffffff1660e01b8152600401611a8c939291906131de565b600060405180830381600087803b158015611aa657600080fd5b505af1158015611aba573d6000803e3d6000fd5b505050506001600560146101000a81548160ff0219169083151502179055505b610100815110611b1f576040517f08c379a0000000000000000000000000000000000000000000000000000000008152600401611b1690613498565b60405180910390fd5b600060405180606001604052808573ffffffffffffffffffffffffffffffffffffffff168152602001428152602001838152509050601281908060018154018082558091505060019003906000526020600020906003020160009091909190915060008201518160000160006101000a81548173ffffffffffffffffffffffffffffffffffffffff021916908373ffffffffffffffffffffffffffffffffffffffff160217905550602082015181600101556040820151816002019080519060200190611bed929190612599565b505050601360008573ffffffffffffffffffffffffffffffffffffffff1673ffffffffffffffffffffffffffffffffffffffff1681526020019081526020016000206001601360008773ffffffffffffffffffffffffffffffffffffffff1673ffffffffffffffffffffffffffffffffffffffff16815260200190815260200160002080549050611c7e9190613a9a565b9080600181540180825580915050600190039060005260206000200160009091909190915055611cae848461242f565b8260066000016000828254611cc3919061382f565b92505081905550600560009054906101000a900473ffffffffffffffffffffffffffffffffffffffff1673ffffffffffffffffffffffffffffffffffffffff166323b3af8985306040518363ffffffff1660e01b8152600401611d279291906131b5565b600060405180830381600087803b158015611d4157600080fd5b505af1158015611d55573d6000803e3d6000fd5b5050505050505050565b6000600160008473ffffffffffffffffffffffffffffffffffffffff1673ffffffffffffffffffffffffffffffffffffffff16815260200190815260200160002060008373ffffffffffffffffffffffffffffffffffffffff1673ffffffffffffffffffffffffffffffffffffffff16815260200190815260200160002054905092915050565b600073ffffffffffffffffffffffffffffffffffffffff168273ffffffffffffffffffffffffffffffffffffffff161415611e56576040517f08c379a0000000000000000000000000000000000000000000000000000000008152600401611e4d90613458565b60405180910390fd5b611e628260008361258f565b60008060008473ffffffffffffffffffffffffffffffffffffffff1673ffffffffffffffffffffffffffffffffffffffff16815260200190815260200160002054905081811015611ee8576040517f08c379a0000000000000000000000000000000000000000000000000000000008152600401611edf90613398565b60405180910390fd5b8181036000808573ffffffffffffffffffffffffffffffffffffffff1673ffffffffffffffffffffffffffffffffffffffff168152602001908152602001600020819055508160026000828254611f3f9190613a9a565b92505081905550600073ffffffffffffffffffffffffffffffffffffffff168373ffffffffffffffffffffffffffffffffffffffff167fddf252ad1be2c89b69c2b068fc378daa952ba7f163c4a11628f55a4df523b3ef84604051611fa49190613558565b60405180910390a3611fb883600084612594565b505050565b600033905090565b600073ffffffffffffffffffffffffffffffffffffffff168373ffffffffffffffffffffffffffffffffffffffff161415612035576040517f08c379a000000000000000000000000000000000000000000000000000000000815260040161202c906134f8565b60405180910390fd5b600073ffffffffffffffffffffffffffffffffffffffff168273ffffffffffffffffffffffffffffffffffffffff1614156120a5576040517f08c379a000000000000000000000000000000000000000000000000000000000815260040161209c906133b8565b60405180910390fd5b80600160008573ffffffffffffffffffffffffffffffffffffffff1673ffffffffffffffffffffffffffffffffffffffff16815260200190815260200160002060008473ffffffffffffffffffffffffffffffffffffffff1673ffffffffffffffffffffffffffffffffffffffff168152602001908152602001600020819055508173ffffffffffffffffffffffffffffffffffffffff168373ffffffffffffffffffffffffffffffffffffffff167f8c5be1e5ebec7d5bd14f71427d1e84f3dd0314c0f7b2291e5b200ac8c7c3b925836040516121839190613558565b60405180910390a3505050565b600073ffffffffffffffffffffffffffffffffffffffff168373ffffffffffffffffffffffffffffffffffffffff161415612200576040517f08c379a00000000000000000000000000000000000000000000000000000000081526004016121f790613478565b60405180910390fd5b600073ffffffffffffffffffffffffffffffffffffffff168273ffffffffffffffffffffffffffffffffffffffff161415612270576040517f08c379a000000000000000000000000000000000000000000000000000000000815260040161226790613378565b60405180910390fd5b61227b83838361258f565b60008060008573ffffffffffffffffffffffffffffffffffffffff1673ffffffffffffffffffffffffffffffffffffffff16815260200190815260200160002054905081811015612301576040517f08c379a00000000000000000000000000000000000000000000000000000000081526004016122f8906133d8565b60405180910390fd5b8181036000808673ffffffffffffffffffffffffffffffffffffffff1673ffffffffffffffffffffffffffffffffffffffff16815260200190815260200160002081905550816000808573ffffffffffffffffffffffffffffffffffffffff1673ffffffffffffffffffffffffffffffffffffffff1681526020019081526020016000206000828254612394919061382f565b925050819055508273ffffffffffffffffffffffffffffffffffffffff168473ffffffffffffffffffffffffffffffffffffffff167fddf252ad1be2c89b69c2b068fc378daa952ba7f163c4a11628f55a4df523b3ef846040516123f89190613558565b60405180910390a361240b848484612594565b50505050565b600061242561241e611fbd565b8484612190565b6001905092915050565b600073ffffffffffffffffffffffffffffffffffffffff168273ffffffffffffffffffffffffffffffffffffffff16141561249f576040517f08c379a000000000000000000000000000000000000000000000000000000000815260040161249690613538565b60405180910390fd5b6124ab6000838361258f565b80600260008282546124bd919061382f565b92505081905550806000808473ffffffffffffffffffffffffffffffffffffffff1673ffffffffffffffffffffffffffffffffffffffff1681526020019081526020016000206000828254612512919061382f565b925050819055508173ffffffffffffffffffffffffffffffffffffffff16600073ffffffffffffffffffffffffffffffffffffffff167fddf252ad1be2c89b69c2b068fc378daa952ba7f163c4a11628f55a4df523b3ef836040516125779190613558565b60405180910390a361258b60008383612594565b5050565b505050565b505050565b8280546125a590613b83565b90600052602060002090601f0160209004810192826125c7576000855561260e565b82601f106125e057805160ff191683800117855561260e565b8280016001018555821561260e579182015b8281111561260d5782518255916020019190600101906125f2565b5b50905061261b91906126d8565b5090565b82805482825590600052602060002090810192821561265b579160200282015b8281111561265a57825182559160200191906001019061263f565b5b50905061266891906126f5565b5090565b60405180610140016040528060008152602001600081526020016000815260200160008019168152602001600073ffffffffffffffffffffffffffffffffffffffff16815260200160608152602001606081526020016060815260200160608152602001606081525090565b5b808211156126f15760008160009055506001016126d9565b5090565b5b8082111561270e5760008160009055506001016126f6565b5090565b600061272561272084613685565b613660565b9050808382526020820190508285602086028201111561274457600080fd5b60005b85811015612774578161275a88826127fb565b845260208401935060208301925050600181019050612747565b5050509392505050565b600061279161278c846136b1565b613660565b9050828152602081018484840111156127a957600080fd5b6127b4848285613b41565b509392505050565b6000813590506127cb816140d3565b92915050565b600082601f8301126127e257600080fd5b81356127f2848260208601612712565b91505092915050565b60008135905061280a816140ea565b92915050565b60008135905061281f81614101565b92915050565b600082601f83011261283657600080fd5b813561284684826020860161277e565b91505092915050565b60008135905061285e81614118565b92915050565b60006020828403121561287657600080fd5b6000612884848285016127bc565b91505092915050565b600080604083850312156128a057600080fd5b60006128ae858286016127bc565b92505060206128bf858286016127bc565b9150509250929050565b6000806000606084860312156128de57600080fd5b60006128ec868287016127bc565b93505060206128fd868287016127bc565b925050604061290e8682870161284f565b9150509250925092565b6000806040838503121561292b57600080fd5b6000612939858286016127bc565b925050602061294a8582860161284f565b9150509250929050565b60008060006060848603121561296957600080fd5b6000612977868287016127bc565b93505060206129888682870161284f565b925050604084013567ffffffffffffffff8111156129a557600080fd5b6129b186828701612825565b9150509250925092565b6000806000806000806000806000806101408b8d0312156129db57600080fd5b60008b013567ffffffffffffffff8111156129f557600080fd5b612a018d828e01612825565b9a505060208b013567ffffffffffffffff811115612a1e57600080fd5b612a2a8d828e01612825565b99505060408b013567ffffffffffffffff811115612a4757600080fd5b612a538d828e01612825565b98505060608b013567ffffffffffffffff811115612a7057600080fd5b612a7c8d828e01612825565b97505060808b013567ffffffffffffffff811115612a9957600080fd5b612aa58d828e01612825565b96505060a08b013567ffffffffffffffff811115612ac257600080fd5b612ace8d828e01612825565b95505060c0612adf8d828e016127fb565b94505060e08b013567ffffffffffffffff811115612afc57600080fd5b612b088d828e016127d1565b935050610100612b1a8d828e016127bc565b925050610120612b2c8d828e016127bc565b9150509295989b9194979a5092959850565b600060208284031215612b5057600080fd5b6000612b5e8482850161284f565b91505092915050565b600080600060608486031215612b7c57600080fd5b6000612b8a8682870161284f565b9350506020612b9b86828701612810565b925050604084013567ffffffffffffffff811115612bb857600080fd5b612bc486828701612825565b9150509250925092565b6000612bda8383612d34565b60208301905092915050565b612bef81613ad8565b82525050565b612bfe81613ad8565b82525050565b6000612c0f8261371c565b612c198185613757565b9350612c24836136e2565b8060005b83811015612c55578151612c3c8882612bce565b9750612c478361373d565b925050600181019050612c28565b5085935050505092915050565b6000612c6d8261371c565b612c778185613768565b9350612c82836136e2565b8060005b83811015612cb3578151612c9a8882612bce565b9750612ca58361373d565b925050600181019050612c86565b5085935050505092915050565b6000612ccb82613727565b612cd58185613768565b9350612ce0836136f2565b8060005b83811015612d1857612cf582613cbc565b612cff8882612bce565b9750612d0a8361374a565b925050600181019050612ce4565b5085935050505092915050565b612d2e81613aea565b82525050565b612d3d81613af6565b82525050565b612d4c81613af6565b82525050565b612d5b81613b00565b82525050565b612d6a81613b00565b82525050565b6000612d7b82613732565b612d858185613779565b9350612d95818560208601613b50565b612d9e81613ccf565b840191505092915050565b6000612db482613732565b612dbe818561378a565b9350612dce818560208601613b50565b612dd781613ccf565b840191505092915050565b60008154612def81613b83565b612df9818661378a565b94506001821660008114612e145760018114612e2657612e59565b60ff1983168652602086019350612e59565b612e2f85613707565b60005b83811015612e5157815481890152600182019150602081019050612e32565b808801955050505b50505092915050565b6000612e6f601b8361378a565b9150612e7a82613ced565b602082019050919050565b6000612e9260238361378a565b9150612e9d82613d16565b604082019050919050565b6000612eb560228361378a565b9150612ec082613d65565b604082019050919050565b6000612ed860228361378a565b9150612ee382613db4565b604082019050919050565b6000612efb60268361378a565b9150612f0682613e03565b604082019050919050565b6000612f1e601a8361378a565b9150612f2982613e52565b602082019050919050565b6000612f4160168361378a565b9150612f4c82613e7b565b602082019050919050565b6000612f6460288361378a565b9150612f6f82613ea4565b604082019050919050565b6000612f8760218361378a565b9150612f9282613ef3565b604082019050919050565b6000612faa60258361378a565b9150612fb582613f42565b604082019050919050565b6000612fcd601c8361378a565b9150612fd882613f91565b602082019050919050565b6000612ff060188361378a565b9150612ffb82613fba565b602082019050919050565b6000613013601f8361378a565b915061301e82613fe3565b602082019050919050565b600061303660248361378a565b91506130418261400c565b604082019050919050565b600061305960258361378a565b91506130648261405b565b604082019050919050565b600061307c601f8361378a565b9150613087826140aa565b602082019050919050565b6000610140830160008301516130ab6000860182613188565b5060208301516130be6020860182613188565b5060408301516130d16040860182612d52565b5060608301516130e46060860182612d34565b5060808301516130f76080860182612be6565b5060a083015184820360a086015261310f8282612d70565b91505060c083015184820360c08601526131298282612d70565b91505060e083015184820360e08601526131438282612d70565b91505061010083015184820361010086015261315f8282612d70565b91505061012083015184820361012086015261317b8282612c04565b9150508091505092915050565b61319181613b2a565b82525050565b6131a081613b2a565b82525050565b6131af81613b34565b82525050565b60006040820190506131ca6000830185612bf5565b6131d76020830184612bf5565b9392505050565b60006060820190506131f36000830186612bf5565b81810360208301526132058185612de2565b905081810360408301526132198184612cc0565b9050949350505050565b60006080820190506132386000830187612bf5565b6132456020830186613197565b6132526040830185612d61565b81810360608301526132648184612da9565b905095945050505050565b60006060820190506132846000830186612bf5565b6132916020830185613197565b81810360408301526132a38184612da9565b9050949350505050565b600060208201905081810360008301526132c78184612c62565b905092915050565b60006020820190506132e46000830184612d25565b92915050565b600060208201905081810360008301526133048184612da9565b905092915050565b600060608201905081810360008301526133268186612da9565b9050818103602083015261333a8185612da9565b9050818103604083015261334e8184613092565b9050949350505050565b6000602082019050818103600083015261337181612e62565b9050919050565b6000602082019050818103600083015261339181612e85565b9050919050565b600060208201905081810360008301526133b181612ea8565b9050919050565b600060208201905081810360008301526133d181612ecb565b9050919050565b600060208201905081810360008301526133f181612eee565b9050919050565b6000602082019050818103600083015261341181612f11565b9050919050565b6000602082019050818103600083015261343181612f34565b9050919050565b6000602082019050818103600083015261345181612f57565b9050919050565b6000602082019050818103600083015261347181612f7a565b9050919050565b6000602082019050818103600083015261349181612f9d565b9050919050565b600060208201905081810360008301526134b181612fc0565b9050919050565b600060208201905081810360008301526134d181612fe3565b9050919050565b600060208201905081810360008301526134f181613006565b9050919050565b6000602082019050818103600083015261351181613029565b9050919050565b600060208201905081810360008301526135318161304c565b9050919050565b600060208201905081810360008301526135518161306f565b9050919050565b600060208201905061356d6000830184613197565b92915050565b60006040820190506135886000830185613197565b6135956020830184613197565b9392505050565b6000610120820190506135b2600083018c613197565b6135bf602083018b613197565b6135cc604083018a612d61565b6135d96060830189612d43565b6135e66080830188612bf5565b81810360a08301526135f88187612da9565b905081810360c083015261360c8186612da9565b905081810360e08301526136208185612da9565b90508181036101008301526136358184612da9565b90509a9950505050505050505050565b600060208201905061365a60008301846131a6565b92915050565b600061366a61367b565b90506136768282613bcf565b919050565b6000604051905090565b600067ffffffffffffffff8211156136a05761369f613c8d565b5b602082029050602081019050919050565b600067ffffffffffffffff8211156136cc576136cb613c8d565b5b6136d582613ccf565b9050602081019050919050565b6000819050602082019050919050565b60008190508160005260206000209050919050565b60008190508160005260206000209050919050565b600081519050919050565b600081549050919050565b600081519050919050565b6000602082019050919050565b6000600182019050919050565b600082825260208201905092915050565b600082825260208201905092915050565b600082825260208201905092915050565b600082825260208201905092915050565b60006137a682613b00565b91506137b183613b00565b9250817f7fffffffffffffffffffffffffffffffffffffffffffffffffffffffffffffff038313600083121516156137ec576137eb613c00565b5b817f800000000000000000000000000000000000000000000000000000000000000003831260008312161561382457613823613c00565b5b828201905092915050565b600061383a82613b2a565b915061384583613b2a565b9250827fffffffffffffffffffffffffffffffffffffffffffffffffffffffffffffffff0382111561387a57613879613c00565b5b828201905092915050565b600061389082613b00565b915061389b83613b00565b9250826138ab576138aa613c2f565b5b600160000383147f8000000000000000000000000000000000000000000000000000000000000000831416156138e4576138e3613c00565b5b828205905092915050565b60006138fa82613b00565b915061390583613b00565b9250827f7fffffffffffffffffffffffffffffffffffffffffffffffffffffffffffffff048211600084136000841316161561394457613943613c00565b5b817f8000000000000000000000000000000000000000000000000000000000000000058312600084126000841316161561398157613980613c00565b5b827f800000000000000000000000000000000000000000000000000000000000000005821260008413600084121616156139be576139bd613c00565b5b827f7fffffffffffffffffffffffffffffffffffffffffffffffffffffffffffffff05821260008412600084121616156139fb576139fa613c00565b5b828202905092915050565b6000613a1182613b00565b9150613a1c83613b00565b9250827f800000000000000000000000000000000000000000000000000000000000000001821260008412151615613a5757613a56613c00565b5b827f7fffffffffffffffffffffffffffffffffffffffffffffffffffffffffffffff018213600084121615613a8f57613a8e613c00565b5b828203905092915050565b6000613aa582613b2a565b9150613ab083613b2a565b925082821015613ac357613ac2613c00565b5b828203905092915050565b6000819050919050565b6000613ae382613b0a565b9050919050565b60008115159050919050565b6000819050919050565b6000819050919050565b600073ffffffffffffffffffffffffffffffffffffffff82169050919050565b6000819050919050565b600060ff82169050919050565b82818337600083830152505050565b60005b83811015613b6e578082015181840152602081019050613b53565b83811115613b7d576000848401525b50505050565b60006002820490506001821680613b9b57607f821691505b60208210811415613baf57613bae613c5e565b5b50919050565b6000613bc8613bc383613ce0565b613ace565b9050919050565b613bd882613ccf565b810181811067ffffffffffffffff82111715613bf757613bf6613c8d565b5b80604052505050565b7f4e487b7100000000000000000000000000000000000000000000000000000000600052601160045260246000fd5b7f4e487b7100000000000000000000000000000000000000000000000000000000600052601260045260246000fd5b7f4e487b7100000000000000000000000000000000000000000000000000000000600052602260045260246000fd5b7f4e487b7100000000000000000000000000000000000000000000000000000000600052604160045260246000fd5b6000613cc88254613bb5565b9050919050565b6000601f19601f8301169050919050565b60008160001c9050919050565b7f546f6f206d616e792073796d627320696e20706172616d657465720000000000600082015250565b7f45524332303a207472616e7366657220746f20746865207a65726f206164647260008201527f6573730000000000000000000000000000000000000000000000000000000000602082015250565b7f45524332303a206275726e20616d6f756e7420657863656564732062616c616e60008201527f6365000000000000000000000000000000000000000000000000000000000000602082015250565b7f45524332303a20617070726f766520746f20746865207a65726f20616464726560008201527f7373000000000000000000000000000000000000000000000000000000000000602082015250565b7f45524332303a207472616e7366657220616d6f756e742065786365656473206260008201527f616c616e63650000000000000000000000000000000000000000000000000000602082015250565b7f4e6f20616d6f756e7420746f6b656e20686f6c64657220686173000000000000600082015250565b7f4f6e6c79206f776e65722063616e20646f207468697300000000000000000000600082015250565b7f45524332303a207472616e7366657220616d6f756e742065786365656473206160008201527f6c6c6f77616e6365000000000000000000000000000000000000000000000000602082015250565b7f45524332303a206275726e2066726f6d20746865207a65726f2061646472657360008201527f7300000000000000000000000000000000000000000000000000000000000000602082015250565b7f45524332303a207472616e736665722066726f6d20746865207a65726f20616460008201527f6472657373000000000000000000000000000000000000000000000000000000602082015250565b7f494f552074657874206973206c6f6e672c206e656564203c2032353600000000600082015250565b7f4f6e6c7920666163746f72792063616e20646f20746869730000000000000000600082015250565b7f466565646261636b206973206c6f6e672c206d757374206265203c2032353600600082015250565b7f45524332303a20617070726f76652066726f6d20746865207a65726f2061646460008201527f7265737300000000000000000000000000000000000000000000000000000000602082015250565b7f45524332303a2064656372656173656420616c6c6f77616e63652062656c6f7760008201527f207a65726f000000000000000000000000000000000000000000000000000000602082015250565b7f45524332303a206d696e7420746f20746865207a65726f206164647265737300600082015250565b6140dc81613ad8565b81146140e757600080fd5b50565b6140f381613af6565b81146140fe57600080fd5b50565b61410a81613b00565b811461411557600080fd5b50565b61412181613b2a565b811461412c57600080fd5b5056fea264697066735822122041fff8eaaa6f36fed5407fd5f4c21aaea7f3f316a6cc610dcfba3cc41bc9f11b64736f6c63430008040033",
  "immutableReferences": {},
  "source": "pragma solidity>= 0.8.0;\npragma experimental ABIEncoderV2;\nimport \"@openzeppelin/contracts/token/ERC20/ERC20.sol\";\nimport \"./StoreIOUs.sol\";\nimport  \"./interfaces/iIOUtoken.sol\";\n\n/*** IOU ecosystem\n*   The aim of IOU ecosystem is to give people proved fiat-free mutual settlements by issuing personal IOU tokens on Ethereum.\n*   \n*   1.Alice, the artist,  wants to get service from Bob, the barber but has no money. But she can issue ERC20 compatible IOU token  and fill this:\n*   name of the token (Alice Artist 2020)\n*   symbol of the token (AA01)\n*   description of service (Artist: logos, infographic, cartoons)\n*   location (New York)\n*   social profile in LinkedIn (or Facebook or  smth else)\n*   units (dollars, euros, hours, pictures)\n*   2. Alice negotiated the sum of her AA01 tokens,  transfers this to Bob, and get the beautiful hairstyle. And this deal fixes in the blockchain forever.\n*   3. Two-month later Bob asked her later for a cartoon about his hairdressing salon.\n*   4. After Alice made her job, Bob burns a part of  Alices IOU tokens and puts feedback, adding a rating of results.\n*   5. Later Bob pays with Alices AA01 tokens to Peter, the webmaster, who supports Bobs salon website. Peter looks for a fresh infographic for another project.\n*   6. Peter doesnt know Alice personally and he wants to check Alices reputation. He gets the history of Alices deals and looks feedbacks and rates, given to Alice. From another user s of IOU tokens, number of transactions and supply amount.\n*   7. If he decides that all ok, he approve the deal in Alice's IOU tokens.\n*   8. After Piter receives results, hi burned tokens and gives his feedback too.\n*/\n/// @author stanta\n/// @title IOUtoken\ncontract IOUtoken is  ERC20 {\n\n    struct IOU {\n        address receiver;\n        uint256 time;\n        string IOUDescr; //what IOU is\n    }\n\n\n   \n    StoreIOUs StoreIOU;\n \n    bool registered;\n\n    iIOUtoken.DescriptionIOU public thisIOU;\n\n    iIOUtoken.FeedBack[] public allFeedbacks;\n    mapping (address => uint256[]) public feedBacksbySender; // feedback from tokenholders\n\n    IOU[] public allIOUs;\n    mapping (address => uint256[]) public IOUbyReceiver; // feedback from tokenholders\n\n    address factory;\n    address owner;\n    //mapping (address => uint) Tokenholders;\n\n    constructor (string memory name_, string memory symbol_)  ERC20 (name_, symbol_) {\n        factory = msg.sender;\n    }\n    modifier onlyfactory() {\n        require (factory == msg.sender, \"Only factory can do this\");\n        _;\n    }\n\n    modifier onlyOwner() {\n        require (owner == msg.sender, \"Only owner can do this\");\n        _;\n    }\n\n    function setIOU (string memory _name, \n                 string memory _symbol,  \n                 string memory _myName, // of emitter\n                 string memory _socialProfile, //profile  of emitter in social nets\n                 string memory _description, //description of bond IOU to  work\n                 string memory _location, //where is \n                 bytes32  _units, //units of deal\n                 bytes32[] memory _keywords,\n                 address _storeAddr,\n                 address _issuer\n                ) public onlyfactory {\n/*         _removeMinter(msg.sender);\n        _addMinter (_issuer); */\n        \n        owner = _issuer;\n        StoreIOU = StoreIOUs(_storeAddr);\n        require (bytes(_name).length <16 || \n                bytes(_symbol).length < 10 ||\n                bytes(_myName).length < 64 ||\n                bytes(_socialProfile).length < 128 ||\n                bytes(_description).length < 128 ||\n                bytes(_location).length < 128 ||\n                _keywords.length <=5 , \n                \"Too many symbs in parameter\" );\n\n        thisIOU = iIOUtoken.DescriptionIOU (0,0,0,\n            _units,\n            _issuer,\n            _myName,\n            _socialProfile,\n            _description,\n            _location,\n            _keywords\n        );\n\n    }\n    \n\n    function getTokenInfo() public view returns(string memory,\n                                           string memory,\n                                           iIOUtoken.DescriptionIOU memory ) {\n        return(name(), symbol(), thisIOU);\n\n    }\n\n    function setOwner (address _newOwner) public onlyOwner {\n   //     _removeMinter(owner);\n        owner = _newOwner;\n  //      _addMinter(_newOwner);\n    }\n\n    function setStore (address _newfactor) public onlyfactory {\n        StoreIOU = StoreIOUs(_newfactor);\n        \n    }   \n    \n    modifier onlyHolder (uint256 _amount) {\n        require (balanceOf(msg.sender) > _amount, \"No amount token holder has\" );\n    _;\n    }\n\n    function mint (address _who, uint256 _amount, string memory _descr) public onlyOwner { \n        if (!registered) {\n            StoreIOU.addIOU2(address(this), thisIOU.socialProfile, thisIOU.keywords);\n            registered = true; \n            }\n        require (bytes(_descr).length <256, \"IOU text is long, need < 256\");\n        IOU memory bond = IOU (_who, block.timestamp, _descr);\n        allIOUs.push(bond);\n        IOUbyReceiver[_who].push(IOUbyReceiver[_who].length-1);\n        _mint(_who, _amount);\n        thisIOU.totalMinted += _amount;\n        StoreIOU.addHolder(_who, address(this));\n        \n    }\n\n    function burn (uint256 _amount, int256 _rating, string memory _feedback) public onlyHolder (_amount) {\n        require (bytes(_feedback).length <256, \"Feedback is long, must be < 256\");\n\n        iIOUtoken.FeedBack memory feedback = iIOUtoken.FeedBack(msg.sender,block.timestamp, _rating, _feedback);\n        allFeedbacks.push(feedback);\n        feedBacksbySender[msg.sender].push(allFeedbacks.length-1);\n        \n        int256 deltaRate = _rating * int256(_amount) / int256 (balanceOf(msg.sender));\n\n        thisIOU.avRate = (thisIOU.avRate * (int256(allFeedbacks.length) -1) + \n                        deltaRate  * int256(allFeedbacks.length)) / int256(allFeedbacks.length);\n                        \n\n        thisIOU.totalBurned += _amount;\n        _burn(msg.sender, _amount);\n    }\n\n    function transfer(address _recipient, uint256 _amount) public override returns (bool) {\n        StoreIOU.addHolder(_recipient, address(this));\n        super.transfer(_recipient, _amount);\n        return true;\n    }\n\n    function thisIOUkeywords() public view returns (bytes32[] memory)\n    {\n        return thisIOU.keywords;\n    }\n\n    function getlen ()  public view returns (uint256, uint256) {\n        return (allIOUs.length, allFeedbacks.length);\n    } \n\n\n}\n",
  "sourcePath": "/mnt/512-2/dfd/iou-components/iou-components/contracts/IOUtoken.sol",
  "compiler": {
    "name": "solc",
    "version": "0.8.4+commit.c7e474f2.Emscripten.clang"
  },
  "schemaVersion": "3.3.4",
  "updatedAt": "2021-07-03T10:43:25.736Z",
  "devdoc": {
    "author": "stanta",
    "kind": "dev",
    "methods": {
      "allowance(address,address)": {
        "details": "See {IERC20-allowance}."
      },
      "approve(address,uint256)": {
        "details": "See {IERC20-approve}. Requirements: - `spender` cannot be the zero address."
      },
      "balanceOf(address)": {
        "details": "See {IERC20-balanceOf}."
      },
      "decimals()": {
        "details": "Returns the number of decimals used to get its user representation. For example, if `decimals` equals `2`, a balance of `505` tokens should be displayed to a user as `5,05` (`505 / 10 ** 2`). Tokens usually opt for a value of 18, imitating the relationship between Ether and Wei. This is the value {ERC20} uses, unless this function is overridden; NOTE: This information is only used for _display_ purposes: it in no way affects any of the arithmetic of the contract, including {IERC20-balanceOf} and {IERC20-transfer}."
      },
      "decreaseAllowance(address,uint256)": {
        "details": "Atomically decreases the allowance granted to `spender` by the caller. This is an alternative to {approve} that can be used as a mitigation for problems described in {IERC20-approve}. Emits an {Approval} event indicating the updated allowance. Requirements: - `spender` cannot be the zero address. - `spender` must have allowance for the caller of at least `subtractedValue`."
      },
      "increaseAllowance(address,uint256)": {
        "details": "Atomically increases the allowance granted to `spender` by the caller. This is an alternative to {approve} that can be used as a mitigation for problems described in {IERC20-approve}. Emits an {Approval} event indicating the updated allowance. Requirements: - `spender` cannot be the zero address."
      },
      "name()": {
        "details": "Returns the name of the token."
      },
      "symbol()": {
        "details": "Returns the symbol of the token, usually a shorter version of the name."
      },
      "totalSupply()": {
        "details": "See {IERC20-totalSupply}."
      },
      "transferFrom(address,address,uint256)": {
        "details": "See {IERC20-transferFrom}. Emits an {Approval} event indicating the updated allowance. This is not required by the EIP. See the note at the beginning of {ERC20}. Requirements: - `sender` and `recipient` cannot be the zero address. - `sender` must have a balance of at least `amount`. - the caller must have allowance for ``sender``'s tokens of at least `amount`."
      }
    },
    "title": "IOUtoken",
    "version": 1
  },
  "userdoc": {
    "kind": "user",
    "methods": {},
    "version": 1
  }
}