{
  "contractName": "IOUtoken",
  "abi": [
    {
      "inputs": [],
      "payable": false,
      "stateMutability": "nonpayable",
      "type": "constructor"
    },
    {
      "anonymous": false,
      "inputs": [
        {
          "indexed": true,
          "internalType": "address",
          "name": "owner",
          "type": "address"
        },
        {
          "indexed": true,
          "internalType": "address",
          "name": "spender",
          "type": "address"
        },
        {
          "indexed": false,
          "internalType": "uint256",
          "name": "value",
          "type": "uint256"
        }
      ],
      "name": "Approval",
      "type": "event"
    },
    {
      "anonymous": false,
      "inputs": [
        {
          "indexed": true,
          "internalType": "address",
          "name": "account",
          "type": "address"
        }
      ],
      "name": "MinterAdded",
      "type": "event"
    },
    {
      "anonymous": false,
      "inputs": [
        {
          "indexed": true,
          "internalType": "address",
          "name": "account",
          "type": "address"
        }
      ],
      "name": "MinterRemoved",
      "type": "event"
    },
    {
      "anonymous": false,
      "inputs": [
        {
          "indexed": true,
          "internalType": "address",
          "name": "from",
          "type": "address"
        },
        {
          "indexed": true,
          "internalType": "address",
          "name": "to",
          "type": "address"
        },
        {
          "indexed": false,
          "internalType": "uint256",
          "name": "value",
          "type": "uint256"
        }
      ],
      "name": "Transfer",
      "type": "event"
    },
    {
      "constant": true,
      "inputs": [
        {
          "internalType": "address",
          "name": "",
          "type": "address"
        },
        {
          "internalType": "uint256",
          "name": "",
          "type": "uint256"
        }
      ],
      "name": "IOUbyReceiver",
      "outputs": [
        {
          "internalType": "uint256",
          "name": "",
          "type": "uint256"
        }
      ],
      "payable": false,
      "stateMutability": "view",
      "type": "function"
    },
    {
      "constant": false,
      "inputs": [
        {
          "internalType": "address",
          "name": "account",
          "type": "address"
        }
      ],
      "name": "addMinter",
      "outputs": [],
      "payable": false,
      "stateMutability": "nonpayable",
      "type": "function"
    },
    {
      "constant": true,
      "inputs": [
        {
          "internalType": "uint256",
          "name": "",
          "type": "uint256"
        }
      ],
      "name": "allFeedbacks",
      "outputs": [
        {
          "internalType": "address",
          "name": "sender",
          "type": "address"
        },
        {
          "internalType": "uint256",
          "name": "time",
          "type": "uint256"
        },
        {
          "internalType": "int256",
          "name": "rating",
          "type": "int256"
        },
        {
          "internalType": "string",
          "name": "text",
          "type": "string"
        }
      ],
      "payable": false,
      "stateMutability": "view",
      "type": "function"
    },
    {
      "constant": true,
      "inputs": [
        {
          "internalType": "uint256",
          "name": "",
          "type": "uint256"
        }
      ],
      "name": "allIOUs",
      "outputs": [
        {
          "internalType": "address",
          "name": "receiver",
          "type": "address"
        },
        {
          "internalType": "uint256",
          "name": "time",
          "type": "uint256"
        },
        {
          "internalType": "string",
          "name": "IOUDescr",
          "type": "string"
        }
      ],
      "payable": false,
      "stateMutability": "view",
      "type": "function"
    },
    {
      "constant": true,
      "inputs": [
        {
          "internalType": "address",
          "name": "owner",
          "type": "address"
        },
        {
          "internalType": "address",
          "name": "spender",
          "type": "address"
        }
      ],
      "name": "allowance",
      "outputs": [
        {
          "internalType": "uint256",
          "name": "",
          "type": "uint256"
        }
      ],
      "payable": false,
      "stateMutability": "view",
      "type": "function"
    },
    {
      "constant": false,
      "inputs": [
        {
          "internalType": "address",
          "name": "spender",
          "type": "address"
        },
        {
          "internalType": "uint256",
          "name": "amount",
          "type": "uint256"
        }
      ],
      "name": "approve",
      "outputs": [
        {
          "internalType": "bool",
          "name": "",
          "type": "bool"
        }
      ],
      "payable": false,
      "stateMutability": "nonpayable",
      "type": "function"
    },
    {
      "constant": true,
      "inputs": [
        {
          "internalType": "address",
          "name": "account",
          "type": "address"
        }
      ],
      "name": "balanceOf",
      "outputs": [
        {
          "internalType": "uint256",
          "name": "",
          "type": "uint256"
        }
      ],
      "payable": false,
      "stateMutability": "view",
      "type": "function"
    },
    {
      "constant": false,
      "inputs": [
        {
          "internalType": "address",
          "name": "account",
          "type": "address"
        },
        {
          "internalType": "uint256",
          "name": "amount",
          "type": "uint256"
        }
      ],
      "name": "burnFrom",
      "outputs": [],
      "payable": false,
      "stateMutability": "nonpayable",
      "type": "function"
    },
    {
      "constant": true,
      "inputs": [],
      "name": "decimals",
      "outputs": [
        {
          "internalType": "uint8",
          "name": "",
          "type": "uint8"
        }
      ],
      "payable": false,
      "stateMutability": "view",
      "type": "function"
    },
    {
      "constant": false,
      "inputs": [
        {
          "internalType": "address",
          "name": "spender",
          "type": "address"
        },
        {
          "internalType": "uint256",
          "name": "subtractedValue",
          "type": "uint256"
        }
      ],
      "name": "decreaseAllowance",
      "outputs": [
        {
          "internalType": "bool",
          "name": "",
          "type": "bool"
        }
      ],
      "payable": false,
      "stateMutability": "nonpayable",
      "type": "function"
    },
    {
      "constant": true,
      "inputs": [
        {
          "internalType": "address",
          "name": "",
          "type": "address"
        },
        {
          "internalType": "uint256",
          "name": "",
          "type": "uint256"
        }
      ],
      "name": "feedBacksbySender",
      "outputs": [
        {
          "internalType": "uint256",
          "name": "",
          "type": "uint256"
        }
      ],
      "payable": false,
      "stateMutability": "view",
      "type": "function"
    },
    {
      "constant": false,
      "inputs": [
        {
          "internalType": "address",
          "name": "spender",
          "type": "address"
        },
        {
          "internalType": "uint256",
          "name": "addedValue",
          "type": "uint256"
        }
      ],
      "name": "increaseAllowance",
      "outputs": [
        {
          "internalType": "bool",
          "name": "",
          "type": "bool"
        }
      ],
      "payable": false,
      "stateMutability": "nonpayable",
      "type": "function"
    },
    {
      "constant": true,
      "inputs": [
        {
          "internalType": "address",
          "name": "account",
          "type": "address"
        }
      ],
      "name": "isMinter",
      "outputs": [
        {
          "internalType": "bool",
          "name": "",
          "type": "bool"
        }
      ],
      "payable": false,
      "stateMutability": "view",
      "type": "function"
    },
    {
      "constant": true,
      "inputs": [],
      "name": "name",
      "outputs": [
        {
          "internalType": "string",
          "name": "",
          "type": "string"
        }
      ],
      "payable": false,
      "stateMutability": "view",
      "type": "function"
    },
    {
      "constant": false,
      "inputs": [],
      "name": "renounceMinter",
      "outputs": [],
      "payable": false,
      "stateMutability": "nonpayable",
      "type": "function"
    },
    {
      "constant": true,
      "inputs": [],
      "name": "symbol",
      "outputs": [
        {
          "internalType": "string",
          "name": "",
          "type": "string"
        }
      ],
      "payable": false,
      "stateMutability": "view",
      "type": "function"
    },
    {
      "constant": true,
      "inputs": [],
      "name": "thisIOU",
      "outputs": [
        {
          "internalType": "uint256",
          "name": "totalMinted",
          "type": "uint256"
        },
        {
          "internalType": "uint256",
          "name": "totalBurned",
          "type": "uint256"
        },
        {
          "internalType": "int256",
          "name": "avRate",
          "type": "int256"
        },
        {
          "internalType": "bytes32",
          "name": "units",
          "type": "bytes32"
        },
        {
          "internalType": "address",
          "name": "issuer",
          "type": "address"
        },
        {
          "internalType": "string",
          "name": "myName",
          "type": "string"
        },
        {
          "internalType": "string",
          "name": "socialProfile",
          "type": "string"
        },
        {
          "internalType": "string",
          "name": "description",
          "type": "string"
        },
        {
          "internalType": "string",
          "name": "location",
          "type": "string"
        }
      ],
      "payable": false,
      "stateMutability": "view",
      "type": "function"
    },
    {
      "constant": true,
      "inputs": [],
      "name": "totalSupply",
      "outputs": [
        {
          "internalType": "uint256",
          "name": "",
          "type": "uint256"
        }
      ],
      "payable": false,
      "stateMutability": "view",
      "type": "function"
    },
    {
      "constant": false,
      "inputs": [
        {
          "internalType": "address",
          "name": "sender",
          "type": "address"
        },
        {
          "internalType": "address",
          "name": "recipient",
          "type": "address"
        },
        {
          "internalType": "uint256",
          "name": "amount",
          "type": "uint256"
        }
      ],
      "name": "transferFrom",
      "outputs": [
        {
          "internalType": "bool",
          "name": "",
          "type": "bool"
        }
      ],
      "payable": false,
      "stateMutability": "nonpayable",
      "type": "function"
    },
    {
      "constant": false,
      "inputs": [
        {
          "internalType": "string",
          "name": "_name",
          "type": "string"
        },
        {
          "internalType": "string",
          "name": "_symbol",
          "type": "string"
        },
        {
          "internalType": "string",
          "name": "_myName",
          "type": "string"
        },
        {
          "internalType": "string",
          "name": "_socialProfile",
          "type": "string"
        },
        {
          "internalType": "string",
          "name": "_description",
          "type": "string"
        },
        {
          "internalType": "string",
          "name": "_location",
          "type": "string"
        },
        {
          "internalType": "bytes32",
          "name": "_units",
          "type": "bytes32"
        },
        {
          "internalType": "bytes32[]",
          "name": "_keywords",
          "type": "bytes32[]"
        },
        {
          "internalType": "address",
          "name": "_storeAddr",
          "type": "address"
        },
        {
          "internalType": "address",
          "name": "_issuer",
          "type": "address"
        }
      ],
      "name": "setIOU",
      "outputs": [],
      "payable": false,
      "stateMutability": "nonpayable",
      "type": "function"
    },
    {
      "constant": false,
      "inputs": [],
      "name": "getTokenInfo",
      "outputs": [
        {
          "internalType": "string",
          "name": "_name",
          "type": "string"
        },
        {
          "internalType": "string",
          "name": "_symbol",
          "type": "string"
        },
        {
          "components": [
            {
              "internalType": "uint256",
              "name": "totalMinted",
              "type": "uint256"
            },
            {
              "internalType": "uint256",
              "name": "totalBurned",
              "type": "uint256"
            },
            {
              "internalType": "int256",
              "name": "avRate",
              "type": "int256"
            },
            {
              "internalType": "bytes32",
              "name": "units",
              "type": "bytes32"
            },
            {
              "internalType": "address",
              "name": "issuer",
              "type": "address"
            },
            {
              "internalType": "string",
              "name": "myName",
              "type": "string"
            },
            {
              "internalType": "string",
              "name": "socialProfile",
              "type": "string"
            },
            {
              "internalType": "string",
              "name": "description",
              "type": "string"
            },
            {
              "internalType": "string",
              "name": "location",
              "type": "string"
            },
            {
              "internalType": "bytes32[]",
              "name": "keywords",
              "type": "bytes32[]"
            }
          ],
          "internalType": "struct iIOUtoken.DescriptionIOU",
          "name": "_description",
          "type": "tuple"
        }
      ],
      "payable": false,
      "stateMutability": "nonpayable",
      "type": "function"
    },
    {
      "constant": false,
      "inputs": [
        {
          "internalType": "address",
          "name": "_newOwner",
          "type": "address"
        }
      ],
      "name": "setOwner",
      "outputs": [],
      "payable": false,
      "stateMutability": "nonpayable",
      "type": "function"
    },
    {
      "constant": false,
      "inputs": [
        {
          "internalType": "address",
          "name": "_newfactor",
          "type": "address"
        }
      ],
      "name": "setStore",
      "outputs": [],
      "payable": false,
      "stateMutability": "nonpayable",
      "type": "function"
    },
    {
      "constant": false,
      "inputs": [
        {
          "internalType": "address",
          "name": "account",
          "type": "address"
        },
        {
          "internalType": "uint256",
          "name": "amount",
          "type": "uint256"
        }
      ],
      "name": "mint",
      "outputs": [
        {
          "internalType": "bool",
          "name": "",
          "type": "bool"
        }
      ],
      "payable": false,
      "stateMutability": "nonpayable",
      "type": "function"
    },
    {
      "constant": false,
      "inputs": [
        {
          "internalType": "address",
          "name": "_who",
          "type": "address"
        },
        {
          "internalType": "uint256",
          "name": "_amount",
          "type": "uint256"
        },
        {
          "internalType": "string",
          "name": "_descr",
          "type": "string"
        }
      ],
      "name": "mint",
      "outputs": [],
      "payable": false,
      "stateMutability": "nonpayable",
      "type": "function"
    },
    {
      "constant": false,
      "inputs": [
        {
          "internalType": "uint256",
          "name": "_amount",
          "type": "uint256"
        },
        {
          "internalType": "int256",
          "name": "_rating",
          "type": "int256"
        },
        {
          "internalType": "string",
          "name": "_feedback",
          "type": "string"
        }
      ],
      "name": "burn",
      "outputs": [],
      "payable": false,
      "stateMutability": "nonpayable",
      "type": "function"
    },
    {
      "constant": false,
      "inputs": [
        {
          "internalType": "uint256",
          "name": "amount",
          "type": "uint256"
        }
      ],
      "name": "burn",
      "outputs": [],
      "payable": false,
      "stateMutability": "nonpayable",
      "type": "function"
    },
    {
      "constant": false,
      "inputs": [
        {
          "internalType": "address",
          "name": "_recipient",
          "type": "address"
        },
        {
          "internalType": "uint256",
          "name": "_amount",
          "type": "uint256"
        }
      ],
      "name": "transfer",
      "outputs": [
        {
          "internalType": "bool",
          "name": "",
          "type": "bool"
        }
      ],
      "payable": false,
      "stateMutability": "nonpayable",
      "type": "function"
    },
    {
      "constant": true,
      "inputs": [],
      "name": "thisIOUkeywords",
      "outputs": [
        {
          "internalType": "bytes32[]",
          "name": "",
          "type": "bytes32[]"
        }
      ],
      "payable": false,
      "stateMutability": "view",
      "type": "function"
    },
    {
      "constant": true,
      "inputs": [],
      "name": "getlen",
      "outputs": [
        {
          "internalType": "uint256",
          "name": "",
          "type": "uint256"
        },
        {
          "internalType": "uint256",
          "name": "",
          "type": "uint256"
        }
      ],
      "payable": false,
      "stateMutability": "view",
      "type": "function"
    }
  ],
  "bytecode": "0x60806040523480156200001157600080fd5b5062000032620000266200007960201b60201c565b6200008160201b60201c565b33601560006101000a81548173ffffffffffffffffffffffffffffffffffffffff021916908373ffffffffffffffffffffffffffffffffffffffff1602179055506200035f565b600033905090565b6200009c816003620000e260201b62002d7e1790919060201c565b8073ffffffffffffffffffffffffffffffffffffffff167f6ae172837ea30b801fbfcdd4108aa1d5bf8ff775444fd70256b44e6bf3dfc3f660405160405180910390a250565b620000f482826200019560201b60201c565b1562000137576040517f08c379a00000000000000000000000000000000000000000000000000000000081526004016200012e906200030a565b60405180910390fd5b60018260000160008373ffffffffffffffffffffffffffffffffffffffff1673ffffffffffffffffffffffffffffffffffffffff16815260200190815260200160002060006101000a81548160ff0219169083151502179055505050565b60008073ffffffffffffffffffffffffffffffffffffffff168273ffffffffffffffffffffffffffffffffffffffff16141562000209576040517f08c379a000000000000000000000000000000000000000000000000000000000815260040162000200906200032c565b60405180910390fd5b8260000160008373ffffffffffffffffffffffffffffffffffffffff1673ffffffffffffffffffffffffffffffffffffffff16815260200190815260200160002060009054906101000a900460ff16905092915050565b60006200026f601f836200034e565b91507f526f6c65733a206163636f756e7420616c72656164792068617320726f6c65006000830152602082019050919050565b6000620002b16022836200034e565b91507f526f6c65733a206163636f756e7420697320746865207a65726f20616464726560008301527f73730000000000000000000000000000000000000000000000000000000000006020830152604082019050919050565b60006020820190508181036000830152620003258162000260565b9050919050565b600060208201905081810360008301526200034781620002a2565b9050919050565b600082825260208201905092915050565b61479e806200036f6000396000f3fe608060405234801561001057600080fd5b50600436106101da5760003560e01c80637fdcf01f11610104578063a9059cbb116100a2578063be39e78d11610071578063be39e78d14610597578063d25b1c6d146105bd578063d3fc9864146105ed578063dd62ed3e14610609576101da565b8063a9059cbb146104f9578063aa271e1a14610529578063abb1dc4414610559578063b251131414610579576101da565b8063983b2d56116100de578063983b2d5614610471578063986502751461048d578063a457c2d714610497578063a69bac24146104c7576101da565b80637fdcf01f146104185780638acc56121461043757806395d89b4114610453576101da565b80631bbb6e581161017c57806340c10f191161014b57806340c10f191461038057806342966c68146103b057806370a08231146103cc57806379cc6790146103fc576101da565b80631bbb6e58146102cf57806323b872dd14610302578063313ce567146103325780633950935114610350576101da565b8063095ea7b3116101b8578063095ea7b31461023557806313af40351461026557806314fcf3151461028157806318160ddd146102b1576101da565b806306fdde03146101df578063070df2d2146101fd578063087cbd4014610219575b600080fd5b6101e7610639565b6040516101f49190614021565b60405180910390f35b61021760048036036102129190810190613516565b6106d7565b005b610233600480360361022e9190810190613213565b61092e565b005b61024f600480360361024a91908101906132c7565b610a02565b60405161025c9190614006565b60405180910390f35b61027f600480360361027a9190810190613213565b610a20565b005b61029b600480360361029691908101906132c7565b610b28565b6040516102a891906142d1565b60405180910390f35b6102b9610b56565b6040516102c691906142d1565b60405180910390f35b6102e960048036036102e491908101906134ed565b610b60565b6040516102f99493929190613f5a565b60405180910390f35b61031c60048036036103179190810190613278565b610c55565b6040516103299190614006565b60405180910390f35b61033a610d2e565b60405161034791906143be565b60405180910390f35b61036a600480360361036591908101906132c7565b610d41565b6040516103779190614006565b60405180910390f35b61039a600480360361039591908101906132c7565b610df4565b6040516103a79190614006565b60405180910390f35b6103ca60048036036103c591908101906134ed565b610e59565b005b6103e660048036036103e19190810190613213565b610e6d565b6040516103f391906142d1565b60405180910390f35b610416600480360361041191908101906132c7565b610eb5565b005b610420610ec3565b60405161042e9291906142ec565b60405180910390f35b610451600480360361044c919081019061336a565b610eda565b005b61045b611247565b6040516104689190614021565b60405180910390f35b61048b60048036036104869190810190613213565b6112e5565b005b610495611340565b005b6104b160048036036104ac91908101906132c7565b611352565b6040516104be9190614006565b60405180910390f35b6104e160048036036104dc91908101906134ed565b61141f565b6040516104f093929190613fa6565b60405180910390f35b610513600480360361050e91908101906132c7565b61150e565b6040516105209190614006565b60405180910390f35b610543600480360361053e9190810190613213565b6115b4565b6040516105509190614006565b60405180910390f35b6105616115d1565b60405161057093929190614065565b60405180910390f35b610581611a92565b60405161058e9190613fe4565b60405180910390f35b61059f611aed565b6040516105b499989796959493929190614315565b60405180910390f35b6105d760048036036105d291908101906132c7565b611da9565b6040516105e491906142d1565b60405180910390f35b61060760048036036106029190810190613303565b611dd7565b005b610623600480360361061e919081019061323c565b6121b0565b60405161063091906142d1565b60405180910390f35b60048054600181600116156101000203166002900480601f0160208091040260200160405190810160405280929190818152602001828054600181600116156101000203166002900480156106cf5780601f106106a4576101008083540402835291602001916106cf565b820191906000526020600020905b8154815290600101906020018083116106b257829003601f168201915b505050505081565b82806106e233610e6d565b11610722576040517f08c379a000000000000000000000000000000000000000000000000000000000815260040161071990614151565b60405180910390fd5b610100825110610767576040517f08c379a000000000000000000000000000000000000000000000000000000000815260040161075e90614271565b60405180910390fd5b61076f612e70565b60405180608001604052803373ffffffffffffffffffffffffffffffffffffffff1681526020014281526020018581526020018481525090506011819080600181540180825580915050906001820390600052602060002090600402016000909192909190915060008201518160000160006101000a81548173ffffffffffffffffffffffffffffffffffffffff021916908373ffffffffffffffffffffffffffffffffffffffff1602179055506020820151816001015560408201518160020155606082015181600301908051906020019061084d929190612eae565b50505050601260003373ffffffffffffffffffffffffffffffffffffffff1673ffffffffffffffffffffffffffffffffffffffff168152602001908152602001600020600160118054905003908060018154018082558091505090600182039060005260206000200160009091929091909150555060006108cd33610e6d565b868602816108d757fe5b059050601180549050601180549050820260016011805490500360076002015402018161090057fe5b056007600201819055508560076001016000828254019250508190555061092686610e59565b505050505050565b3373ffffffffffffffffffffffffffffffffffffffff16601560009054906101000a900473ffffffffffffffffffffffffffffffffffffffff1673ffffffffffffffffffffffffffffffffffffffff16146109be576040517f08c379a00000000000000000000000000000000000000000000000000000000081526004016109b590614251565b60405180910390fd5b80600660006101000a81548173ffffffffffffffffffffffffffffffffffffffff021916908373ffffffffffffffffffffffffffffffffffffffff16021790555050565b6000610a16610a0f612237565b848461223f565b6001905092915050565b3373ffffffffffffffffffffffffffffffffffffffff16601660009054906101000a900473ffffffffffffffffffffffffffffffffffffffff1673ffffffffffffffffffffffffffffffffffffffff1614610ab0576040517f08c379a0000000000000000000000000000000000000000000000000000000008152600401610aa790614171565b60405180910390fd5b610adb601660009054906101000a900473ffffffffffffffffffffffffffffffffffffffff1661240a565b80601660006101000a81548173ffffffffffffffffffffffffffffffffffffffff021916908373ffffffffffffffffffffffffffffffffffffffff160217905550610b2581612464565b50565b60146020528160005260406000208181548110610b4157fe5b90600052602060002001600091509150505481565b6000600254905090565b60118181548110610b6d57fe5b90600052602060002090600402016000915090508060000160009054906101000a900473ffffffffffffffffffffffffffffffffffffffff1690806001015490806002015490806003018054600181600116156101000203166002900480601f016020809104026020016040519081016040528092919081815260200182805460018160011615610100020316600290048015610c4b5780601f10610c2057610100808354040283529160200191610c4b565b820191906000526020600020905b815481529060010190602001808311610c2e57829003601f168201915b5050505050905084565b6000610c628484846124be565b610d2384610c6e612237565b610d1e856040518060600160405280602881526020016146eb60289139600160008b73ffffffffffffffffffffffffffffffffffffffff1673ffffffffffffffffffffffffffffffffffffffff1681526020019081526020016000206000610cd4612237565b73ffffffffffffffffffffffffffffffffffffffff1673ffffffffffffffffffffffffffffffffffffffff168152602001908152602001600020546127489092919063ffffffff16565b61223f565b600190509392505050565b600660149054906101000a900460ff1681565b6000610dea610d4e612237565b84610de58560016000610d5f612237565b73ffffffffffffffffffffffffffffffffffffffff1673ffffffffffffffffffffffffffffffffffffffff16815260200190815260200160002060008973ffffffffffffffffffffffffffffffffffffffff1673ffffffffffffffffffffffffffffffffffffffff168152602001908152602001600020546127a390919063ffffffff16565b61223f565b6001905092915050565b6000610e06610e01612237565b6115b4565b610e45576040517f08c379a0000000000000000000000000000000000000000000000000000000008152600401610e3c90614191565b60405180910390fd5b610e4f83836127f8565b6001905092915050565b610e6a610e64612237565b82612980565b50565b60008060008373ffffffffffffffffffffffffffffffffffffffff1673ffffffffffffffffffffffffffffffffffffffff168152602001908152602001600020549050919050565b610ebf8282612b22565b5050565b600080601380549050601180549050915091509091565b3373ffffffffffffffffffffffffffffffffffffffff16601560009054906101000a900473ffffffffffffffffffffffffffffffffffffffff1673ffffffffffffffffffffffffffffffffffffffff1614610f6a576040517f08c379a0000000000000000000000000000000000000000000000000000000008152600401610f6190614251565b60405180910390fd5b610f733361240a565b610f7c81612464565b80601660006101000a81548173ffffffffffffffffffffffffffffffffffffffff021916908373ffffffffffffffffffffffffffffffffffffffff16021790555081600660006101000a81548173ffffffffffffffffffffffffffffffffffffffff021916908373ffffffffffffffffffffffffffffffffffffffff1602179055506012600660146101000a81548160ff021916908360ff16021790555060108a51108061102b5750600a8951105b80611037575060408851105b80611043575060808751105b8061104f575060808651105b8061105b575060808551105b8061106857506005835111155b6110a7576040517f08c379a000000000000000000000000000000000000000000000000000000000815260040161109e906140b1565b60405180910390fd5b6040518061014001604052806000815260200160008152602001600081526020018581526020018273ffffffffffffffffffffffffffffffffffffffff1681526020018981526020018881526020018781526020018681526020018481525060076000820151816000015560208201518160010155604082015181600201556060820151816003015560808201518160040160006101000a81548173ffffffffffffffffffffffffffffffffffffffff021916908373ffffffffffffffffffffffffffffffffffffffff16021790555060a0820151816005019080519060200190611193929190612eae565b5060c08201518160060190805190602001906111b0929190612eae565b5060e08201518160070190805190602001906111cd929190612eae565b506101008201518160080190805190602001906111eb929190612eae565b50610120820151816009019080519060200190611209929190612f2e565b509050508960049080519060200190611223929190612f7b565b50886005908051906020019061123a929190612f7b565b5050505050505050505050565b60058054600181600116156101000203166002900480601f0160208091040260200160405190810160405280929190818152602001828054600181600116156101000203166002900480156112dd5780601f106112b2576101008083540402835291602001916112dd565b820191906000526020600020905b8154815290600101906020018083116112c057829003601f168201915b505050505081565b6112f56112f0612237565b6115b4565b611334576040517f08c379a000000000000000000000000000000000000000000000000000000000815260040161132b90614191565b60405180910390fd5b61133d81612464565b50565b61135061134b612237565b61240a565b565b600061141561135f612237565b84611410856040518060600160405280602581526020016147376025913960016000611389612237565b73ffffffffffffffffffffffffffffffffffffffff1673ffffffffffffffffffffffffffffffffffffffff16815260200190815260200160002060008a73ffffffffffffffffffffffffffffffffffffffff1673ffffffffffffffffffffffffffffffffffffffff168152602001908152602001600020546127489092919063ffffffff16565b61223f565b6001905092915050565b6013818154811061142c57fe5b90600052602060002090600302016000915090508060000160009054906101000a900473ffffffffffffffffffffffffffffffffffffffff1690806001015490806002018054600181600116156101000203166002900480601f0160208091040260200160405190810160405280929190818152602001828054600181600116156101000203166002900480156115045780601f106114d957610100808354040283529160200191611504565b820191906000526020600020905b8154815290600101906020018083116114e757829003601f168201915b5050505050905083565b6000600660009054906101000a900473ffffffffffffffffffffffffffffffffffffffff1673ffffffffffffffffffffffffffffffffffffffff166323b3af8984306040518363ffffffff1660e01b815260040161156d929190613eec565b600060405180830381600087803b15801561158757600080fd5b505af115801561159b573d6000803e3d6000fd5b505050506115a98383612bf1565b506001905092915050565b60006115ca826003612c0f90919063ffffffff16565b9050919050565b6060806115dc612ffb565b600460056007828054600181600116156101000203166002900480601f0160208091040260200160405190810160405280929190818152602001828054600181600116156101000203166002900480156116775780601f1061164c57610100808354040283529160200191611677565b820191906000526020600020905b81548152906001019060200180831161165a57829003601f168201915b50505050509250818054600181600116156101000203166002900480601f0160208091040260200160405190810160405280929190818152602001828054600181600116156101000203166002900480156117135780601f106116e857610100808354040283529160200191611713565b820191906000526020600020905b8154815290600101906020018083116116f657829003601f168201915b505050505091508060405180610140016040529081600082015481526020016001820154815260200160028201548152602001600382015481526020016004820160009054906101000a900473ffffffffffffffffffffffffffffffffffffffff1673ffffffffffffffffffffffffffffffffffffffff1673ffffffffffffffffffffffffffffffffffffffff168152602001600582018054600181600116156101000203166002900480601f01602080910402602001604051908101604052809291908181526020018280546001816001161561010002031660029004801561183e5780601f106118135761010080835404028352916020019161183e565b820191906000526020600020905b81548152906001019060200180831161182157829003601f168201915b50505050508152602001600682018054600181600116156101000203166002900480601f0160208091040260200160405190810160405280929190818152602001828054600181600116156101000203166002900480156118e05780601f106118b5576101008083540402835291602001916118e0565b820191906000526020600020905b8154815290600101906020018083116118c357829003601f168201915b50505050508152602001600782018054600181600116156101000203166002900480601f0160208091040260200160405190810160405280929190818152602001828054600181600116156101000203166002900480156119825780601f1061195757610100808354040283529160200191611982565b820191906000526020600020905b81548152906001019060200180831161196557829003601f168201915b50505050508152602001600882018054600181600116156101000203166002900480601f016020809104026020016040519081016040528092919081815260200182805460018160011615610100020316600290048015611a245780601f106119f957610100808354040283529160200191611a24565b820191906000526020600020905b815481529060010190602001808311611a0757829003601f168201915b5050505050815260200160098201805480602002602001604051908101604052809291908181526020018280548015611a7c57602002820191906000526020600020905b815481526020019060010190808311611a68575b5050505050815250509050925092509250909192565b60606007600901805480602002602001604051908101604052809291908181526020018280548015611ae357602002820191906000526020600020905b815481526020019060010190808311611acf575b5050505050905090565b60078060000154908060010154908060020154908060030154908060040160009054906101000a900473ffffffffffffffffffffffffffffffffffffffff1690806005018054600181600116156101000203166002900480601f016020809104026020016040519081016040528092919081815260200182805460018160011615610100020316600290048015611bc55780601f10611b9a57610100808354040283529160200191611bc5565b820191906000526020600020905b815481529060010190602001808311611ba857829003601f168201915b505050505090806006018054600181600116156101000203166002900480601f016020809104026020016040519081016040528092919081815260200182805460018160011615610100020316600290048015611c635780601f10611c3857610100808354040283529160200191611c63565b820191906000526020600020905b815481529060010190602001808311611c4657829003601f168201915b505050505090806007018054600181600116156101000203166002900480601f016020809104026020016040519081016040528092919081815260200182805460018160011615610100020316600290048015611d015780601f10611cd657610100808354040283529160200191611d01565b820191906000526020600020905b815481529060010190602001808311611ce457829003601f168201915b505050505090806008018054600181600116156101000203166002900480601f016020809104026020016040519081016040528092919081815260200182805460018160011615610100020316600290048015611d9f5780601f10611d7457610100808354040283529160200191611d9f565b820191906000526020600020905b815481529060010190602001808311611d8257829003601f168201915b5050505050905089565b60126020528160005260406000208181548110611dc257fe5b90600052602060002001600091509150505481565b3373ffffffffffffffffffffffffffffffffffffffff16601660009054906101000a900473ffffffffffffffffffffffffffffffffffffffff1673ffffffffffffffffffffffffffffffffffffffff1614611e67576040517f08c379a0000000000000000000000000000000000000000000000000000000008152600401611e5e90614171565b60405180910390fd5b600660159054906101000a900460ff16611f3057600660009054906101000a900473ffffffffffffffffffffffffffffffffffffffff1673ffffffffffffffffffffffffffffffffffffffff166338a1048530600760060160076009016040518463ffffffff1660e01b8152600401611ee293929190613f15565b600060405180830381600087803b158015611efc57600080fd5b505af1158015611f10573d6000803e3d6000fd5b505050506001600660156101000a81548160ff0219169083151502179055505b610100815110611f75576040517f08c379a0000000000000000000000000000000000000000000000000000000008152600401611f6c90614231565b60405180910390fd5b611f7d613067565b60405180606001604052808573ffffffffffffffffffffffffffffffffffffffff1681526020014281526020018381525090506013819080600181540180825580915050906001820390600052602060002090600302016000909192909190915060008201518160000160006101000a81548173ffffffffffffffffffffffffffffffffffffffff021916908373ffffffffffffffffffffffffffffffffffffffff16021790555060208201518160010155604082015181600201908051906020019061204b929190612eae565b50505050601460008573ffffffffffffffffffffffffffffffffffffffff1673ffffffffffffffffffffffffffffffffffffffff1681526020019081526020016000206001601460008773ffffffffffffffffffffffffffffffffffffffff1673ffffffffffffffffffffffffffffffffffffffff168152602001908152602001600020805490500390806001815401808255809150509060018203906000526020600020016000909192909190915055506121078484610df4565b5082600760000160008282540192505081905550600660009054906101000a900473ffffffffffffffffffffffffffffffffffffffff1673ffffffffffffffffffffffffffffffffffffffff166323b3af8985306040518363ffffffff1660e01b8152600401612178929190613eec565b600060405180830381600087803b15801561219257600080fd5b505af11580156121a6573d6000803e3d6000fd5b5050505050505050565b6000600160008473ffffffffffffffffffffffffffffffffffffffff1673ffffffffffffffffffffffffffffffffffffffff16815260200190815260200160002060008373ffffffffffffffffffffffffffffffffffffffff1673ffffffffffffffffffffffffffffffffffffffff16815260200190815260200160002054905092915050565b600033905090565b600073ffffffffffffffffffffffffffffffffffffffff168373ffffffffffffffffffffffffffffffffffffffff1614156122af576040517f08c379a00000000000000000000000000000000000000000000000000000000081526004016122a690614291565b60405180910390fd5b600073ffffffffffffffffffffffffffffffffffffffff168273ffffffffffffffffffffffffffffffffffffffff16141561231f576040517f08c379a000000000000000000000000000000000000000000000000000000000815260040161231690614111565b60405180910390fd5b80600160008573ffffffffffffffffffffffffffffffffffffffff1673ffffffffffffffffffffffffffffffffffffffff16815260200190815260200160002060008473ffffffffffffffffffffffffffffffffffffffff1673ffffffffffffffffffffffffffffffffffffffff168152602001908152602001600020819055508173ffffffffffffffffffffffffffffffffffffffff168373ffffffffffffffffffffffffffffffffffffffff167f8c5be1e5ebec7d5bd14f71427d1e84f3dd0314c0f7b2291e5b200ac8c7c3b925836040516123fd91906142d1565b60405180910390a3505050565b61241e816003612cd790919063ffffffff16565b8073ffffffffffffffffffffffffffffffffffffffff167fe94479a9f7e1952cc78f2d6baab678adc1b772d936c6583def489e524cb6669260405160405180910390a250565b612478816003612d7e90919063ffffffff16565b8073ffffffffffffffffffffffffffffffffffffffff167f6ae172837ea30b801fbfcdd4108aa1d5bf8ff775444fd70256b44e6bf3dfc3f660405160405180910390a250565b600073ffffffffffffffffffffffffffffffffffffffff168373ffffffffffffffffffffffffffffffffffffffff16141561252e576040517f08c379a000000000000000000000000000000000000000000000000000000000815260040161252590614211565b60405180910390fd5b600073ffffffffffffffffffffffffffffffffffffffff168273ffffffffffffffffffffffffffffffffffffffff16141561259e576040517f08c379a0000000000000000000000000000000000000000000000000000000008152600401612595906140d1565b60405180910390fd5b612609816040518060600160405280602681526020016146c5602691396000808773ffffffffffffffffffffffffffffffffffffffff1673ffffffffffffffffffffffffffffffffffffffff168152602001908152602001600020546127489092919063ffffffff16565b6000808573ffffffffffffffffffffffffffffffffffffffff1673ffffffffffffffffffffffffffffffffffffffff1681526020019081526020016000208190555061269c816000808573ffffffffffffffffffffffffffffffffffffffff1673ffffffffffffffffffffffffffffffffffffffff168152602001908152602001600020546127a390919063ffffffff16565b6000808473ffffffffffffffffffffffffffffffffffffffff1673ffffffffffffffffffffffffffffffffffffffff168152602001908152602001600020819055508173ffffffffffffffffffffffffffffffffffffffff168373ffffffffffffffffffffffffffffffffffffffff167fddf252ad1be2c89b69c2b068fc378daa952ba7f163c4a11628f55a4df523b3ef8360405161273b91906142d1565b60405180910390a3505050565b6000838311158290612790576040517f08c379a00000000000000000000000000000000000000000000000000000000081526004016127879190614043565b60405180910390fd5b5060008385039050809150509392505050565b6000808284019050838110156127ee576040517f08c379a00000000000000000000000000000000000000000000000000000000081526004016127e590614131565b60405180910390fd5b8091505092915050565b600073ffffffffffffffffffffffffffffffffffffffff168273ffffffffffffffffffffffffffffffffffffffff161415612868576040517f08c379a000000000000000000000000000000000000000000000000000000000815260040161285f906142b1565b60405180910390fd5b61287d816002546127a390919063ffffffff16565b6002819055506128d4816000808573ffffffffffffffffffffffffffffffffffffffff1673ffffffffffffffffffffffffffffffffffffffff168152602001908152602001600020546127a390919063ffffffff16565b6000808473ffffffffffffffffffffffffffffffffffffffff1673ffffffffffffffffffffffffffffffffffffffff168152602001908152602001600020819055508173ffffffffffffffffffffffffffffffffffffffff16600073ffffffffffffffffffffffffffffffffffffffff167fddf252ad1be2c89b69c2b068fc378daa952ba7f163c4a11628f55a4df523b3ef8360405161297491906142d1565b60405180910390a35050565b600073ffffffffffffffffffffffffffffffffffffffff168273ffffffffffffffffffffffffffffffffffffffff1614156129f0576040517f08c379a00000000000000000000000000000000000000000000000000000000081526004016129e7906141f1565b60405180910390fd5b612a5b816040518060600160405280602281526020016146a3602291396000808673ffffffffffffffffffffffffffffffffffffffff1673ffffffffffffffffffffffffffffffffffffffff168152602001908152602001600020546127489092919063ffffffff16565b6000808473ffffffffffffffffffffffffffffffffffffffff1673ffffffffffffffffffffffffffffffffffffffff16815260200190815260200160002081905550612ab281600254612e2690919063ffffffff16565b600281905550600073ffffffffffffffffffffffffffffffffffffffff168273ffffffffffffffffffffffffffffffffffffffff167fddf252ad1be2c89b69c2b068fc378daa952ba7f163c4a11628f55a4df523b3ef83604051612b1691906142d1565b60405180910390a35050565b612b2c8282612980565b612bed82612b38612237565b612be88460405180606001604052806024815260200161471360249139600160008973ffffffffffffffffffffffffffffffffffffffff1673ffffffffffffffffffffffffffffffffffffffff1681526020019081526020016000206000612b9e612237565b73ffffffffffffffffffffffffffffffffffffffff1673ffffffffffffffffffffffffffffffffffffffff168152602001908152602001600020546127489092919063ffffffff16565b61223f565b5050565b6000612c05612bfe612237565b84846124be565b6001905092915050565b60008073ffffffffffffffffffffffffffffffffffffffff168273ffffffffffffffffffffffffffffffffffffffff161415612c80576040517f08c379a0000000000000000000000000000000000000000000000000000000008152600401612c77906141d1565b60405180910390fd5b8260000160008373ffffffffffffffffffffffffffffffffffffffff1673ffffffffffffffffffffffffffffffffffffffff16815260200190815260200160002060009054906101000a900460ff16905092915050565b612ce18282612c0f565b612d20576040517f08c379a0000000000000000000000000000000000000000000000000000000008152600401612d17906141b1565b60405180910390fd5b60008260000160008373ffffffffffffffffffffffffffffffffffffffff1673ffffffffffffffffffffffffffffffffffffffff16815260200190815260200160002060006101000a81548160ff0219169083151502179055505050565b612d888282612c0f565b15612dc8576040517f08c379a0000000000000000000000000000000000000000000000000000000008152600401612dbf906140f1565b60405180910390fd5b60018260000160008373ffffffffffffffffffffffffffffffffffffffff1673ffffffffffffffffffffffffffffffffffffffff16815260200190815260200160002060006101000a81548160ff0219169083151502179055505050565b6000612e6883836040518060400160405280601e81526020017f536166654d6174683a207375627472616374696f6e206f766572666c6f770000815250612748565b905092915050565b6040518060800160405280600073ffffffffffffffffffffffffffffffffffffffff1681526020016000815260200160008152602001606081525090565b828054600181600116156101000203166002900490600052602060002090601f016020900481019282601f10612eef57805160ff1916838001178555612f1d565b82800160010185558215612f1d579182015b82811115612f1c578251825591602001919060010190612f01565b5b509050612f2a919061309e565b5090565b828054828255906000526020600020908101928215612f6a579160200282015b82811115612f69578251825591602001919060010190612f4e565b5b509050612f7791906130c3565b5090565b828054600181600116156101000203166002900490600052602060002090601f016020900481019282601f10612fbc57805160ff1916838001178555612fea565b82800160010185558215612fea579182015b82811115612fe9578251825591602001919060010190612fce565b5b509050612ff7919061309e565b5090565b60405180610140016040528060008152602001600081526020016000815260200160008019168152602001600073ffffffffffffffffffffffffffffffffffffffff16815260200160608152602001606081526020016060815260200160608152602001606081525090565b6040518060600160405280600073ffffffffffffffffffffffffffffffffffffffff16815260200160008152602001606081525090565b6130c091905b808211156130bc5760008160009055506001016130a4565b5090565b90565b6130e591905b808211156130e15760008160009055506001016130c9565b5090565b90565b6000813590506130f781614646565b92915050565b600082601f83011261310e57600080fd5b813561312161311c82614406565b6143d9565b9150818183526020840193506020810190508385602084028201111561314657600080fd5b60005b83811015613176578161315c8882613180565b845260208401935060208301925050600181019050613149565b5050505092915050565b60008135905061318f8161465d565b92915050565b6000813590506131a481614674565b92915050565b600082601f8301126131bb57600080fd5b81356131ce6131c98261442e565b6143d9565b915080825260208301602083018583830111156131ea57600080fd5b6131f58382846145b9565b50505092915050565b60008135905061320d8161468b565b92915050565b60006020828403121561322557600080fd5b6000613233848285016130e8565b91505092915050565b6000806040838503121561324f57600080fd5b600061325d858286016130e8565b925050602061326e858286016130e8565b9150509250929050565b60008060006060848603121561328d57600080fd5b600061329b868287016130e8565b93505060206132ac868287016130e8565b92505060406132bd868287016131fe565b9150509250925092565b600080604083850312156132da57600080fd5b60006132e8858286016130e8565b92505060206132f9858286016131fe565b9150509250929050565b60008060006060848603121561331857600080fd5b6000613326868287016130e8565b9350506020613337868287016131fe565b925050604084013567ffffffffffffffff81111561335457600080fd5b613360868287016131aa565b9150509250925092565b6000806000806000806000806000806101408b8d03121561338a57600080fd5b60008b013567ffffffffffffffff8111156133a457600080fd5b6133b08d828e016131aa565b9a505060208b013567ffffffffffffffff8111156133cd57600080fd5b6133d98d828e016131aa565b99505060408b013567ffffffffffffffff8111156133f657600080fd5b6134028d828e016131aa565b98505060608b013567ffffffffffffffff81111561341f57600080fd5b61342b8d828e016131aa565b97505060808b013567ffffffffffffffff81111561344857600080fd5b6134548d828e016131aa565b96505060a08b013567ffffffffffffffff81111561347157600080fd5b61347d8d828e016131aa565b95505060c061348e8d828e01613180565b94505060e08b013567ffffffffffffffff8111156134ab57600080fd5b6134b78d828e016130fd565b9350506101006134c98d828e016130e8565b9250506101206134db8d828e016130e8565b9150509295989b9194979a5092959850565b6000602082840312156134ff57600080fd5b600061350d848285016131fe565b91505092915050565b60008060006060848603121561352b57600080fd5b6000613539868287016131fe565b935050602061354a86828701613195565b925050604084013567ffffffffffffffff81111561356757600080fd5b613573868287016131aa565b9150509250925092565b600061358983836136e3565b60208301905092915050565b61359e81614550565b82525050565b6135ad81614550565b82525050565b60006135be826144af565b6135c88185614513565b93506135d38361446a565b8060005b838110156136045781516135eb888261357d565b97506135f6836144e8565b9250506001810190506135d7565b5085935050505092915050565b600061361c826144a4565b6136268185614502565b93506136318361445a565b8060005b83811015613662578151613649888261357d565b9750613654836144db565b925050600181019050613635565b5085935050505092915050565b600061367a826144ba565b6136848185614513565b935061368f8361447a565b8060005b838110156136c7576136a482614615565b6136ae888261357d565b97506136b9836144f5565b925050600181019050613693565b5085935050505092915050565b6136dd81614562565b82525050565b6136ec8161456e565b82525050565b6136fb8161456e565b82525050565b61370a81614578565b82525050565b61371981614578565b82525050565b600061372a826144d0565b6137348185614535565b93506137448185602086016145c8565b61374d81614628565b840191505092915050565b6000613763826144c5565b61376d8185614524565b935061377d8185602086016145c8565b61378681614628565b840191505092915050565b600061379c826144c5565b6137a68185614535565b93506137b68185602086016145c8565b6137bf81614628565b840191505092915050565b6000815460018116600081146137e7576001811461380d57613851565b607f60028304166137f88187614535565b955060ff198316865260208601935050613851565b6002820461381b8187614535565b95506138268561448f565b60005b8281101561384857815481890152600182019150602081019050613829565b80880195505050505b505092915050565b6000613866601b83614535565b91507f546f6f206d616e792073796d627320696e20706172616d6574657200000000006000830152602082019050919050565b60006138a6602383614535565b91507f45524332303a207472616e7366657220746f20746865207a65726f206164647260008301527f65737300000000000000000000000000000000000000000000000000000000006020830152604082019050919050565b600061390c601f83614535565b91507f526f6c65733a206163636f756e7420616c72656164792068617320726f6c65006000830152602082019050919050565b600061394c602283614535565b91507f45524332303a20617070726f766520746f20746865207a65726f20616464726560008301527f73730000000000000000000000000000000000000000000000000000000000006020830152604082019050919050565b60006139b2601b83614535565b91507f536166654d6174683a206164646974696f6e206f766572666c6f7700000000006000830152602082019050919050565b60006139f2601a83614535565b91507f4e6f20616d6f756e7420746f6b656e20686f6c646572206861730000000000006000830152602082019050919050565b6000613a32601683614535565b91507f4f6e6c79206f776e65722063616e20646f2074686973000000000000000000006000830152602082019050919050565b6000613a72603083614535565b91507f4d696e746572526f6c653a2063616c6c657220646f6573206e6f74206861766560008301527f20746865204d696e74657220726f6c65000000000000000000000000000000006020830152604082019050919050565b6000613ad8602183614535565b91507f526f6c65733a206163636f756e7420646f6573206e6f74206861766520726f6c60008301527f65000000000000000000000000000000000000000000000000000000000000006020830152604082019050919050565b6000613b3e602283614535565b91507f526f6c65733a206163636f756e7420697320746865207a65726f20616464726560008301527f73730000000000000000000000000000000000000000000000000000000000006020830152604082019050919050565b6000613ba4602183614535565b91507f45524332303a206275726e2066726f6d20746865207a65726f2061646472657360008301527f73000000000000000000000000000000000000000000000000000000000000006020830152604082019050919050565b6000613c0a602583614535565b91507f45524332303a207472616e736665722066726f6d20746865207a65726f20616460008301527f64726573730000000000000000000000000000000000000000000000000000006020830152604082019050919050565b6000613c70601c83614535565b91507f494f552074657874206973206c6f6e672c206e656564203c20323536000000006000830152602082019050919050565b6000613cb0601883614535565b91507f4f6e6c7920666163746f72792063616e20646f207468697300000000000000006000830152602082019050919050565b6000613cf0601f83614535565b91507f466565646261636b206973206c6f6e672c206d757374206265203c20323536006000830152602082019050919050565b6000613d30602483614535565b91507f45524332303a20617070726f76652066726f6d20746865207a65726f2061646460008301527f72657373000000000000000000000000000000000000000000000000000000006020830152604082019050919050565b6000613d96601f83614535565b91507f45524332303a206d696e7420746f20746865207a65726f2061646472657373006000830152602082019050919050565b600061014083016000830151613de26000860182613ebf565b506020830151613df56020860182613ebf565b506040830151613e086040860182613701565b506060830151613e1b60608601826136e3565b506080830151613e2e6080860182613595565b5060a083015184820360a0860152613e468282613758565b91505060c083015184820360c0860152613e608282613758565b91505060e083015184820360e0860152613e7a8282613758565b915050610100830151848203610100860152613e968282613758565b915050610120830151848203610120860152613eb28282613611565b9150508091505092915050565b613ec8816145a2565b82525050565b613ed7816145a2565b82525050565b613ee6816145ac565b82525050565b6000604082019050613f0160008301856135a4565b613f0e60208301846135a4565b9392505050565b6000606082019050613f2a60008301866135a4565b8181036020830152613f3c81856137ca565b90508181036040830152613f50818461366f565b9050949350505050565b6000608082019050613f6f60008301876135a4565b613f7c6020830186613ece565b613f896040830185613710565b8181036060830152613f9b8184613791565b905095945050505050565b6000606082019050613fbb60008301866135a4565b613fc86020830185613ece565b8181036040830152613fda8184613791565b9050949350505050565b60006020820190508181036000830152613ffe81846135b3565b905092915050565b600060208201905061401b60008301846136d4565b92915050565b6000602082019050818103600083015261403b8184613791565b905092915050565b6000602082019050818103600083015261405d818461371f565b905092915050565b6000606082019050818103600083015261407f818661371f565b90508181036020830152614093818561371f565b905081810360408301526140a78184613dc9565b9050949350505050565b600060208201905081810360008301526140ca81613859565b9050919050565b600060208201905081810360008301526140ea81613899565b9050919050565b6000602082019050818103600083015261410a816138ff565b9050919050565b6000602082019050818103600083015261412a8161393f565b9050919050565b6000602082019050818103600083015261414a816139a5565b9050919050565b6000602082019050818103600083015261416a816139e5565b9050919050565b6000602082019050818103600083015261418a81613a25565b9050919050565b600060208201905081810360008301526141aa81613a65565b9050919050565b600060208201905081810360008301526141ca81613acb565b9050919050565b600060208201905081810360008301526141ea81613b31565b9050919050565b6000602082019050818103600083015261420a81613b97565b9050919050565b6000602082019050818103600083015261422a81613bfd565b9050919050565b6000602082019050818103600083015261424a81613c63565b9050919050565b6000602082019050818103600083015261426a81613ca3565b9050919050565b6000602082019050818103600083015261428a81613ce3565b9050919050565b600060208201905081810360008301526142aa81613d23565b9050919050565b600060208201905081810360008301526142ca81613d89565b9050919050565b60006020820190506142e66000830184613ece565b92915050565b60006040820190506143016000830185613ece565b61430e6020830184613ece565b9392505050565b60006101208201905061432b600083018c613ece565b614338602083018b613ece565b614345604083018a613710565b61435260608301896136f2565b61435f60808301886135a4565b81810360a08301526143718187613791565b905081810360c08301526143858186613791565b905081810360e08301526143998185613791565b90508181036101008301526143ae8184613791565b90509a9950505050505050505050565b60006020820190506143d36000830184613edd565b92915050565b6000604051905081810181811067ffffffffffffffff821117156143fc57600080fd5b8060405250919050565b600067ffffffffffffffff82111561441d57600080fd5b602082029050602081019050919050565b600067ffffffffffffffff82111561444557600080fd5b601f19601f8301169050602081019050919050565b6000819050602082019050919050565b6000819050602082019050919050565b60008190508160005260206000209050919050565b60008190508160005260206000209050919050565b600081519050919050565b600081519050919050565b600081549050919050565b600081519050919050565b600081519050919050565b6000602082019050919050565b6000602082019050919050565b6000600182019050919050565b600082825260208201905092915050565b600082825260208201905092915050565b600082825260208201905092915050565b600082825260208201905092915050565b6000819050919050565b600061455b82614582565b9050919050565b60008115159050919050565b6000819050919050565b6000819050919050565b600073ffffffffffffffffffffffffffffffffffffffff82169050919050565b6000819050919050565b600060ff82169050919050565b82818337600083830152505050565b60005b838110156145e65780820151818401526020810190506145cb565b838111156145f5576000848401525b50505050565b600061460e61460983614639565b614546565b9050919050565b600061462182546145fb565b9050919050565b6000601f19601f8301169050919050565b60008160001c9050919050565b61464f81614550565b811461465a57600080fd5b50565b6146668161456e565b811461467157600080fd5b50565b61467d81614578565b811461468857600080fd5b50565b614694816145a2565b811461469f57600080fd5b5056fe45524332303a206275726e20616d6f756e7420657863656564732062616c616e636545524332303a207472616e7366657220616d6f756e7420657863656564732062616c616e636545524332303a207472616e7366657220616d6f756e74206578636565647320616c6c6f77616e636545524332303a206275726e20616d6f756e74206578636565647320616c6c6f77616e636545524332303a2064656372656173656420616c6c6f77616e63652062656c6f77207a65726fa365627a7a72315820a567e4aa933dbce02921ff1d8f758bc9a2f00e0ad64d86a6e19a0089b921acd06c6578706572696d656e74616cf564736f6c63430005100040",
  "source": "pragma solidity ^0.5.0;\npragma experimental ABIEncoderV2;\nimport \"./token/ERC20/ERC20Burnable.sol\";\nimport \"./token/ERC20/ERC20Mintable.sol\";\nimport \"./StoreIOUs.sol\";\nimport  \"./interfaces/iIOUtoken.sol\";\n\n/*** IOU ecosystem\n*   The aim of IOU ecosystem is to give people proved fiat-free mutual settlements by issuing personal IOU tokens on Ethereum.\n*   \n*   1.Alice, the artist,  wants to get service from Bob, the barber but has no money. But she can issue ERC20 compatible IOU token  and fill this:\n*   name of the token (Alice Artist 2020)\n*   symbol of the token (AA01)\n*   description of service (Artist: logos, infographic, cartoons)\n*   location (New York)\n*   social profile in LinkedIn (or Facebook or  smth else)\n*   units (dollars, euros, hours, pictures)\n*   2. Alice negotiated the sum of her AA01 tokens,  transfers this to Bob, and get the beautiful hairstyle. And this deal fixes in the blockchain forever.\n*   3. Two-month later Bob asked her later for a cartoon about his hairdressing salon.\n*   4. After Alice made her job, Bob burns a part of  Alices IOU tokens and puts feedback, adding a rating of results.\n*   5. Later Bob pays with Alices AA01 tokens to Peter, the webmaster, who supports Bobs salon website. Peter looks for a fresh infographic for another project.\n*   6. Peter doesnt know Alice personally and he wants to check Alices reputation. He gets the history of Alices deals and looks feedbacks and rates, given to Alice. From another user s of IOU tokens, number of transactions and supply amount.\n*   7. If he decides that all ok, he approve the deal in Alice's IOU tokens.\n*   8. After Piter receives results, hi burned tokens and gives his feedback too.\n*/\n/// @author stanta\n/// @title IOUtoken\ncontract IOUtoken is  ERC20Mintable, ERC20Burnable {\n\n    struct IOU {\n        address receiver;\n        uint256 time;\n        string IOUDescr; //what IOU is\n    }\n\n\n    string public name;\n    string public symbol;\n\n    StoreIOUs StoreIOU;\n //   string public name;\n //   string public  symbol;\n    uint8 public decimals;\n    bool registered;\n\n    iIOUtoken.DescriptionIOU public thisIOU;\n\n    iIOUtoken.FeedBack[] public allFeedbacks;\n    mapping (address => uint256[]) public feedBacksbySender; // feedback from tokenholders\n\n    IOU[] public allIOUs;\n    mapping (address => uint256[]) public IOUbyReceiver; // feedback from tokenholders\n\n    address factory;\n    address owner;\n    //mapping (address => uint) Tokenholders;\n\n    constructor () public {\n        factory = msg.sender;\n    }\n    modifier onlyfactory() {\n        require (factory == msg.sender, \"Only factory can do this\");\n        _;\n    }\n\n    modifier onlyOwner() {\n        require (owner == msg.sender, \"Only owner can do this\");\n        _;\n    }\n\n    function setIOU (string memory _name, \n                 string memory _symbol, \n                 string memory _myName, // of emitter\n                 string memory _socialProfile, //profile  of emitter in social nets\n                 string memory _description, //description of bond IOU to  work\n                 string memory _location, //where is \n                 bytes32  _units, //units of deal\n                 bytes32[] memory _keywords,\n                 address _storeAddr,\n                 address _issuer\n                ) public onlyfactory {\n        _removeMinter(msg.sender);\n        _addMinter (_issuer);\n        \n        owner = _issuer;\n        StoreIOU = StoreIOUs(_storeAddr);\n        decimals = 18;\n        require (bytes(_name).length <16 || \n                bytes(_symbol).length < 10 ||\n                bytes(_myName).length < 64 ||\n                bytes(_socialProfile).length < 128 ||\n                bytes(_description).length < 128 ||\n                bytes(_location).length < 128 ||\n                _keywords.length <=5 , \n                \"Too many symbs in parameter\" );\n\n        thisIOU = iIOUtoken.DescriptionIOU (0,0,0,\n            _units,\n            _issuer,\n            _myName,\n            _socialProfile,\n            _description,\n            _location,\n            _keywords\n        );\n    name = _name;\n    symbol = _symbol;\n    }\n    \n\n    function getTokenInfo() public returns(string memory _name,\n                                           string memory _symbol,\n                                           iIOUtoken.DescriptionIOU memory _description) {\n        return(name, symbol, thisIOU);\n\n    }\n\n    function setOwner (address _newOwner) public onlyOwner {\n        _removeMinter(owner);\n        owner = _newOwner;\n        _addMinter(_newOwner);\n    }\n\n    function setStore (address _newfactor) public onlyfactory {\n        StoreIOU = StoreIOUs(_newfactor);\n        \n    }   \n    \n    modifier onlyHolder (uint256 _amount) {\n        require (balanceOf(msg.sender) > _amount, \"No amount token holder has\" );\n    _;\n    }\n\n    function mint (address _who, uint256 _amount, string memory _descr) public onlyOwner { \n        if (!registered) {\n            StoreIOU.addIOU2(address(this), thisIOU.socialProfile, thisIOU.keywords);\n            registered = true; \n            }\n        require (bytes(_descr).length <256, \"IOU text is long, need < 256\");\n        IOU memory bond = IOU (_who, now, _descr);\n        allIOUs.push(bond);\n        IOUbyReceiver[_who].push(IOUbyReceiver[_who].length-1);\n        super.mint(_who, _amount);\n        thisIOU.totalMinted += _amount;\n        StoreIOU.addHolder(_who, address(this));\n        \n    }\n\n    function burn (uint256 _amount, int256 _rating, string memory _feedback) public onlyHolder (_amount) {\n        require (bytes(_feedback).length <256, \"Feedback is long, must be < 256\");\n\n        iIOUtoken.FeedBack memory feedback = iIOUtoken.FeedBack(msg.sender,now, _rating, _feedback);\n        allFeedbacks.push(feedback);\n        feedBacksbySender[msg.sender].push(allFeedbacks.length-1);\n        \n        int256 deltaRate = _rating * int256(_amount) / int256 (balanceOf(msg.sender));\n\n        thisIOU.avRate = (thisIOU.avRate * (int256(allFeedbacks.length) -1) + \n                        deltaRate  * int256(allFeedbacks.length)) / int256(allFeedbacks.length);\n                        \n\n        thisIOU.totalBurned += _amount;\n        super.burn(_amount);\n    }\n\n    function transfer(address _recipient, uint256 _amount) public  returns (bool) {\n        StoreIOU.addHolder(_recipient, address(this));\n        super.transfer(_recipient, _amount);\n        return true;\n    }\n\n    function thisIOUkeywords() public view returns (bytes32[] memory)\n    {\n        return thisIOU.keywords;\n    }\n\n    function getlen ()  public view returns (uint256, uint256) {\n        return (allIOUs.length, allFeedbacks.length);\n    } \n\n}\n",
  "sourcePath": "/Users/pro/Development/blockchain/IOU/iou-components/contracts/IOUtoken.sol",
  "compiler": {
    "name": "solc",
    "version": "0.5.16+commit.9c3226ce.Emscripten.clang"
  },
  "schemaVersion": "3.3.3",
  "updatedAt": "2021-06-27T21:54:21.090Z",
  "devdoc": {
    "author": "stanta",
    "methods": {
      "allowance(address,address)": {
        "details": "See {IERC20-allowance}."
      },
      "approve(address,uint256)": {
        "details": "See {IERC20-approve}.     * Requirements:     * - `spender` cannot be the zero address."
      },
      "balanceOf(address)": {
        "details": "See {IERC20-balanceOf}."
      },
      "burn(uint256)": {
        "details": "Destroys `amount` tokens from the caller.     * See {ERC20-_burn}."
      },
      "burnFrom(address,uint256)": {
        "details": "See {ERC20-_burnFrom}."
      },
      "decreaseAllowance(address,uint256)": {
        "details": "Atomically decreases the allowance granted to `spender` by the caller.     * This is an alternative to {approve} that can be used as a mitigation for problems described in {IERC20-approve}.     * Emits an {Approval} event indicating the updated allowance.     * Requirements:     * - `spender` cannot be the zero address. - `spender` must have allowance for the caller of at least `subtractedValue`."
      },
      "increaseAllowance(address,uint256)": {
        "details": "Atomically increases the allowance granted to `spender` by the caller.     * This is an alternative to {approve} that can be used as a mitigation for problems described in {IERC20-approve}.     * Emits an {Approval} event indicating the updated allowance.     * Requirements:     * - `spender` cannot be the zero address."
      },
      "mint(address,uint256)": {
        "details": "See {ERC20-_mint}.     * Requirements:     * - the caller must have the {MinterRole}."
      },
      "totalSupply()": {
        "details": "See {IERC20-totalSupply}."
      },
      "transferFrom(address,address,uint256)": {
        "details": "See {IERC20-transferFrom}.     * Emits an {Approval} event indicating the updated allowance. This is not required by the EIP. See the note at the beginning of {ERC20};     * Requirements: - `sender` and `recipient` cannot be the zero address. - `sender` must have a balance of at least `amount`. - the caller must have allowance for `sender`'s tokens of at least `amount`."
      }
    },
    "title": "IOUtoken"
  },
  "userdoc": {
    "methods": {}
  }
}