{
  "contractName": "IOUtoken",
  "abi": [
    {
      "anonymous": false,
      "inputs": [
        {
          "indexed": true,
          "internalType": "address",
          "name": "owner",
          "type": "address"
        },
        {
          "indexed": true,
          "internalType": "address",
          "name": "spender",
          "type": "address"
        },
        {
          "indexed": false,
          "internalType": "uint256",
          "name": "value",
          "type": "uint256"
        }
      ],
      "name": "Approval",
      "type": "event"
    },
    {
      "anonymous": false,
      "inputs": [
        {
          "indexed": true,
          "internalType": "address",
          "name": "from",
          "type": "address"
        },
        {
          "indexed": true,
          "internalType": "address",
          "name": "to",
          "type": "address"
        },
        {
          "indexed": false,
          "internalType": "uint256",
          "name": "value",
          "type": "uint256"
        }
      ],
      "name": "Transfer",
      "type": "event"
    },
    {
      "inputs": [
        {
          "internalType": "address",
          "name": "",
          "type": "address"
        },
        {
          "internalType": "uint256",
          "name": "",
          "type": "uint256"
        }
      ],
      "name": "IOUbyReceiver",
      "outputs": [
        {
          "internalType": "uint256",
          "name": "",
          "type": "uint256"
        }
      ],
      "stateMutability": "view",
      "type": "function",
      "constant": true
    },
    {
      "inputs": [
        {
          "internalType": "uint256",
          "name": "",
          "type": "uint256"
        }
      ],
      "name": "allFeedbacks",
      "outputs": [
        {
          "internalType": "address",
          "name": "sender",
          "type": "address"
        },
        {
          "internalType": "uint256",
          "name": "time",
          "type": "uint256"
        },
        {
          "internalType": "int256",
          "name": "rating",
          "type": "int256"
        },
        {
          "internalType": "uint256",
          "name": "amount",
          "type": "uint256"
        },
        {
          "internalType": "string",
          "name": "text",
          "type": "string"
        }
      ],
      "stateMutability": "view",
      "type": "function",
      "constant": true
    },
    {
      "inputs": [
        {
          "internalType": "uint256",
          "name": "",
          "type": "uint256"
        }
      ],
      "name": "allIOUs",
      "outputs": [
        {
          "internalType": "address",
          "name": "receiver",
          "type": "address"
        },
        {
          "internalType": "uint256",
          "name": "time",
          "type": "uint256"
        },
        {
          "internalType": "string",
          "name": "IOUDescr",
          "type": "string"
        }
      ],
      "stateMutability": "view",
      "type": "function",
      "constant": true
    },
    {
      "inputs": [
        {
          "internalType": "address",
          "name": "owner",
          "type": "address"
        },
        {
          "internalType": "address",
          "name": "spender",
          "type": "address"
        }
      ],
      "name": "allowance",
      "outputs": [
        {
          "internalType": "uint256",
          "name": "",
          "type": "uint256"
        }
      ],
      "stateMutability": "view",
      "type": "function",
      "constant": true
    },
    {
      "inputs": [
        {
          "internalType": "address",
          "name": "spender",
          "type": "address"
        },
        {
          "internalType": "uint256",
          "name": "amount",
          "type": "uint256"
        }
      ],
      "name": "approve",
      "outputs": [
        {
          "internalType": "bool",
          "name": "",
          "type": "bool"
        }
      ],
      "stateMutability": "nonpayable",
      "type": "function"
    },
    {
      "inputs": [
        {
          "internalType": "address",
          "name": "account",
          "type": "address"
        }
      ],
      "name": "balanceOf",
      "outputs": [
        {
          "internalType": "uint256",
          "name": "",
          "type": "uint256"
        }
      ],
      "stateMutability": "view",
      "type": "function",
      "constant": true
    },
    {
      "inputs": [],
      "name": "decimals",
      "outputs": [
        {
          "internalType": "uint8",
          "name": "",
          "type": "uint8"
        }
      ],
      "stateMutability": "view",
      "type": "function",
      "constant": true
    },
    {
      "inputs": [
        {
          "internalType": "address",
          "name": "spender",
          "type": "address"
        },
        {
          "internalType": "uint256",
          "name": "subtractedValue",
          "type": "uint256"
        }
      ],
      "name": "decreaseAllowance",
      "outputs": [
        {
          "internalType": "bool",
          "name": "",
          "type": "bool"
        }
      ],
      "stateMutability": "nonpayable",
      "type": "function"
    },
    {
      "inputs": [
        {
          "internalType": "address",
          "name": "",
          "type": "address"
        },
        {
          "internalType": "uint256",
          "name": "",
          "type": "uint256"
        }
      ],
      "name": "feedBacksbySender",
      "outputs": [
        {
          "internalType": "uint256",
          "name": "",
          "type": "uint256"
        }
      ],
      "stateMutability": "view",
      "type": "function",
      "constant": true
    },
    {
      "inputs": [
        {
          "internalType": "address",
          "name": "spender",
          "type": "address"
        },
        {
          "internalType": "uint256",
          "name": "addedValue",
          "type": "uint256"
        }
      ],
      "name": "increaseAllowance",
      "outputs": [
        {
          "internalType": "bool",
          "name": "",
          "type": "bool"
        }
      ],
      "stateMutability": "nonpayable",
      "type": "function"
    },
    {
      "inputs": [],
      "name": "name",
      "outputs": [
        {
          "internalType": "string",
          "name": "",
          "type": "string"
        }
      ],
      "stateMutability": "view",
      "type": "function",
      "constant": true
    },
    {
      "inputs": [],
      "name": "symbol",
      "outputs": [
        {
          "internalType": "string",
          "name": "",
          "type": "string"
        }
      ],
      "stateMutability": "view",
      "type": "function",
      "constant": true
    },
    {
      "inputs": [],
      "name": "totalSupply",
      "outputs": [
        {
          "internalType": "uint256",
          "name": "",
          "type": "uint256"
        }
      ],
      "stateMutability": "view",
      "type": "function",
      "constant": true
    },
    {
      "inputs": [
        {
          "internalType": "address",
          "name": "sender",
          "type": "address"
        },
        {
          "internalType": "address",
          "name": "recipient",
          "type": "address"
        },
        {
          "internalType": "uint256",
          "name": "amount",
          "type": "uint256"
        }
      ],
      "name": "transferFrom",
      "outputs": [
        {
          "internalType": "bool",
          "name": "",
          "type": "bool"
        }
      ],
      "stateMutability": "nonpayable",
      "type": "function"
    },
    {
      "inputs": [],
      "name": "initialize",
      "outputs": [],
      "stateMutability": "nonpayable",
      "type": "function"
    },
    {
      "inputs": [
        {
          "internalType": "string",
          "name": "name_",
          "type": "string"
        },
        {
          "internalType": "string",
          "name": "symbol_",
          "type": "string"
        },
        {
          "components": [
            {
              "internalType": "uint256",
              "name": "totalMinted",
              "type": "uint256"
            },
            {
              "internalType": "uint256",
              "name": "totalBurned",
              "type": "uint256"
            },
            {
              "internalType": "int256",
              "name": "avRate",
              "type": "int256"
            },
            {
              "internalType": "bytes32",
              "name": "units",
              "type": "bytes32"
            },
            {
              "internalType": "address",
              "name": "issuer",
              "type": "address"
            },
            {
              "internalType": "string",
              "name": "myName",
              "type": "string"
            },
            {
              "internalType": "string",
              "name": "socialProfile",
              "type": "string"
            },
            {
              "internalType": "string",
              "name": "description",
              "type": "string"
            },
            {
              "components": [
                {
                  "internalType": "string",
                  "name": "country",
                  "type": "string"
                },
                {
                  "internalType": "string",
                  "name": "state",
                  "type": "string"
                },
                {
                  "internalType": "string",
                  "name": "city",
                  "type": "string"
                },
                {
                  "internalType": "string",
                  "name": "street",
                  "type": "string"
                }
              ],
              "internalType": "struct iIOUtoken.geo",
              "name": "location",
              "type": "tuple"
            },
            {
              "internalType": "bytes32[]",
              "name": "keywords",
              "type": "bytes32[]"
            },
            {
              "internalType": "bytes32",
              "name": "phone",
              "type": "bytes32"
            }
          ],
          "internalType": "struct iIOUtoken.DescriptionIOU",
          "name": "_thisIOU",
          "type": "tuple"
        },
        {
          "internalType": "address",
          "name": "_store",
          "type": "address"
        },
        {
          "internalType": "address",
          "name": "_implementation",
          "type": "address"
        }
      ],
      "name": "setIOU",
      "outputs": [],
      "stateMutability": "nonpayable",
      "type": "function"
    },
    {
      "inputs": [
        {
          "internalType": "address",
          "name": "_newOwner",
          "type": "address"
        }
      ],
      "name": "setStore",
      "outputs": [],
      "stateMutability": "nonpayable",
      "type": "function"
    },
    {
      "inputs": [
        {
          "internalType": "address",
          "name": "_newOwner",
          "type": "address"
        }
      ],
      "name": "setOwner",
      "outputs": [],
      "stateMutability": "nonpayable",
      "type": "function"
    },
    {
      "inputs": [
        {
          "internalType": "address",
          "name": "_who",
          "type": "address"
        },
        {
          "internalType": "uint256",
          "name": "_amount",
          "type": "uint256"
        },
        {
          "internalType": "string",
          "name": "_descr",
          "type": "string"
        }
      ],
      "name": "mint",
      "outputs": [],
      "stateMutability": "nonpayable",
      "type": "function"
    },
    {
      "inputs": [
        {
          "internalType": "uint256",
          "name": "_amount",
          "type": "uint256"
        },
        {
          "internalType": "int256",
          "name": "_rating",
          "type": "int256"
        },
        {
          "internalType": "string",
          "name": "_feedback",
          "type": "string"
        }
      ],
      "name": "burn",
      "outputs": [],
      "stateMutability": "nonpayable",
      "type": "function"
    },
    {
      "inputs": [
        {
          "internalType": "address",
          "name": "_recipient",
          "type": "address"
        },
        {
          "internalType": "uint256",
          "name": "_amount",
          "type": "uint256"
        }
      ],
      "name": "transfer",
      "outputs": [
        {
          "internalType": "bool",
          "name": "",
          "type": "bool"
        }
      ],
      "stateMutability": "nonpayable",
      "type": "function"
    },
    {
      "inputs": [
        {
          "internalType": "string",
          "name": "_descr",
          "type": "string"
        }
      ],
      "name": "editDescr",
      "outputs": [],
      "stateMutability": "nonpayable",
      "type": "function"
    },
    {
      "inputs": [
        {
          "internalType": "bytes32",
          "name": "_phone",
          "type": "bytes32"
        }
      ],
      "name": "editPhone",
      "outputs": [],
      "stateMutability": "nonpayable",
      "type": "function"
    },
    {
      "inputs": [
        {
          "internalType": "string",
          "name": "_country",
          "type": "string"
        },
        {
          "internalType": "string",
          "name": "_state",
          "type": "string"
        },
        {
          "internalType": "string",
          "name": "_city",
          "type": "string"
        },
        {
          "internalType": "string",
          "name": "_street",
          "type": "string"
        }
      ],
      "name": "editGeo",
      "outputs": [],
      "stateMutability": "nonpayable",
      "type": "function"
    },
    {
      "inputs": [
        {
          "internalType": "bytes32[]",
          "name": "_keys",
          "type": "bytes32[]"
        }
      ],
      "name": "addKeys",
      "outputs": [],
      "stateMutability": "nonpayable",
      "type": "function"
    },
    {
      "inputs": [
        {
          "internalType": "bytes32[]",
          "name": "_keys",
          "type": "bytes32[]"
        }
      ],
      "name": "delKeys",
      "outputs": [],
      "stateMutability": "nonpayable",
      "type": "function"
    },
    {
      "inputs": [],
      "name": "thisIOUkeywords",
      "outputs": [
        {
          "internalType": "bytes32[]",
          "name": "",
          "type": "bytes32[]"
        }
      ],
      "stateMutability": "view",
      "type": "function",
      "constant": true
    },
    {
      "inputs": [],
      "name": "getlen",
      "outputs": [
        {
          "internalType": "uint256",
          "name": "",
          "type": "uint256"
        },
        {
          "internalType": "uint256",
          "name": "",
          "type": "uint256"
        }
      ],
      "stateMutability": "view",
      "type": "function",
      "constant": true
    },
    {
      "inputs": [],
      "name": "thisIOUDesc",
      "outputs": [
        {
          "components": [
            {
              "internalType": "uint256",
              "name": "totalMinted",
              "type": "uint256"
            },
            {
              "internalType": "uint256",
              "name": "totalBurned",
              "type": "uint256"
            },
            {
              "internalType": "int256",
              "name": "avRate",
              "type": "int256"
            },
            {
              "internalType": "bytes32",
              "name": "units",
              "type": "bytes32"
            },
            {
              "internalType": "address",
              "name": "issuer",
              "type": "address"
            },
            {
              "internalType": "string",
              "name": "myName",
              "type": "string"
            },
            {
              "internalType": "string",
              "name": "socialProfile",
              "type": "string"
            },
            {
              "internalType": "string",
              "name": "description",
              "type": "string"
            },
            {
              "components": [
                {
                  "internalType": "string",
                  "name": "country",
                  "type": "string"
                },
                {
                  "internalType": "string",
                  "name": "state",
                  "type": "string"
                },
                {
                  "internalType": "string",
                  "name": "city",
                  "type": "string"
                },
                {
                  "internalType": "string",
                  "name": "street",
                  "type": "string"
                }
              ],
              "internalType": "struct iIOUtoken.geo",
              "name": "location",
              "type": "tuple"
            },
            {
              "internalType": "bytes32[]",
              "name": "keywords",
              "type": "bytes32[]"
            },
            {
              "internalType": "bytes32",
              "name": "phone",
              "type": "bytes32"
            }
          ],
          "internalType": "struct iIOUtoken.DescriptionIOU",
          "name": "",
          "type": "tuple"
        }
      ],
      "stateMutability": "view",
      "type": "function",
      "constant": true
    },
    {
      "inputs": [],
      "name": "IOUname",
      "outputs": [
        {
          "internalType": "string",
          "name": "",
          "type": "string"
        }
      ],
      "stateMutability": "view",
      "type": "function",
      "constant": true
    },
    {
      "inputs": [],
      "name": "IOUsymbol",
      "outputs": [
        {
          "internalType": "string",
          "name": "",
          "type": "string"
        }
      ],
      "stateMutability": "view",
      "type": "function",
      "constant": true
    },
    {
      "inputs": [],
      "name": "getTokenInfo",
      "outputs": [
        {
          "internalType": "string",
          "name": "",
          "type": "string"
        },
        {
          "internalType": "string",
          "name": "",
          "type": "string"
        },
        {
          "components": [
            {
              "internalType": "uint256",
              "name": "totalMinted",
              "type": "uint256"
            },
            {
              "internalType": "uint256",
              "name": "totalBurned",
              "type": "uint256"
            },
            {
              "internalType": "int256",
              "name": "avRate",
              "type": "int256"
            },
            {
              "internalType": "bytes32",
              "name": "units",
              "type": "bytes32"
            },
            {
              "internalType": "address",
              "name": "issuer",
              "type": "address"
            },
            {
              "internalType": "string",
              "name": "myName",
              "type": "string"
            },
            {
              "internalType": "string",
              "name": "socialProfile",
              "type": "string"
            },
            {
              "internalType": "string",
              "name": "description",
              "type": "string"
            },
            {
              "components": [
                {
                  "internalType": "string",
                  "name": "country",
                  "type": "string"
                },
                {
                  "internalType": "string",
                  "name": "state",
                  "type": "string"
                },
                {
                  "internalType": "string",
                  "name": "city",
                  "type": "string"
                },
                {
                  "internalType": "string",
                  "name": "street",
                  "type": "string"
                }
              ],
              "internalType": "struct iIOUtoken.geo",
              "name": "location",
              "type": "tuple"
            },
            {
              "internalType": "bytes32[]",
              "name": "keywords",
              "type": "bytes32[]"
            },
            {
              "internalType": "bytes32",
              "name": "phone",
              "type": "bytes32"
            }
          ],
          "internalType": "struct iIOUtoken.DescriptionIOU",
          "name": "",
          "type": "tuple"
        }
      ],
      "stateMutability": "view",
      "type": "function",
      "constant": true
    }
  ],
  "bytecode": "0x608060405234801561001057600080fd5b506136c4806100206000396000f3fe608060405234801561001057600080fd5b50600436106101f05760003560e01c806370a082311161010f578063a9059cbb116100a2578063d25b1c6d11610071578063d25b1c6d1461043f578063d3fc986414610452578063dd62ed3e14610465578063f67ad2331461049e57600080fd5b8063a9059cbb146103ed578063abb1dc4414610400578063ac6137ea14610417578063b25113141461042a57600080fd5b806395d89b41116100de57806395d89b41146103a85780639ee09506146103b0578063a457c2d7146103b8578063a69bac24146103cb57600080fd5b806370a08231146103495780637fdcf01f146103725780638129fc1c1461038d57806390c296701461039557600080fd5b8063188caf8a116101875780633950935111610156578063395093511461030857806358aee2701461031b5780636a3611b9146103235780636f8797241461033657600080fd5b8063188caf8a146102af5780631bbb6e58146102c257806323b872dd146102e6578063313ce567146102f957600080fd5b80630a576364116101c35780630a5763641461025e57806313af40351461027357806314fcf3151461028657806318160ddd146102a757600080fd5b806306fdde03146101f5578063070df2d214610213578063087cbd4014610228578063095ea7b31461023b575b600080fd5b6101fd6104b1565b60405161020a91906129e4565b60405180910390f35b610226610221366004612afe565b610543565b005b610226610236366004612b69565b6107fe565b61024e610249366004612b84565b610870565b604051901515815260200161020a565b610266610886565b60405161020a9190612d30565b610226610281366004612b69565b610d49565b610299610294366004612b84565b610dbb565b60405190815260200161020a565b600254610299565b6102266102bd366004612d43565b610dec565b6102d56102d0366004612db7565b610f4c565b60405161020a959493929190612dd0565b61024e6102f4366004612e0e565b611023565b6040516012815260200161020a565b61024e610316366004612b84565b6110cd565b6101fd611109565b610226610331366004612db7565b611118565b610226610344366004612e92565b61116d565b610299610357366004612b69565b6001600160a01b031660009081526020819052604090205490565b601a546018546040805192835260208301919091520161020a565b610226611376565b6102266103a3366004613081565b6113e5565b6101fd6116e6565b6101fd6116f5565b61024e6103c6366004612b84565b6116ff565b6103de6103d9366004612db7565b611798565b60405161020a93929190613235565b61024e6103fb366004612b84565b611861565b6104086118d1565b60405161020a9392919061325c565b610226610425366004612d43565b611dad565b610432611f7b565b60405161020a919061329f565b61029961044d366004612b84565b611fd5565b6102266104603660046132e3565b611ff1565b610299610473366004613323565b6001600160a01b03918216600090815260016020908152604080832093909416825291909152205490565b6102266104ac366004613356565b612233565b6060600380546104c090613397565b80601f01602080910402602001604051908101604052809291908181526020018280546104ec90613397565b80156105395780601f1061050e57610100808354040283529160200191610539565b820191906000526020600020905b81548152906001019060200180831161051c57829003601f168201915b5050505050905090565b33600090815260208190526040902054839081106105a85760405162461bcd60e51b815260206004820152601a60248201527f4e6f20616d6f756e7420746f6b656e20686f6c6465722068617300000000000060448201526064015b60405180910390fd5b6101008251106105fa5760405162461bcd60e51b815260206004820152601f60248201527f466565646261636b206973206c6f6e672c206d757374206265203c2032353600604482015260640161059f565b6040805160a08101825233815242602080830191825292820186815260608301888152608084018781526018805460018101825560009190915285517fb13d2d76d1f4b7be834882e410b3e3a8afaf69f83600ae24db354391d2378d2e600590920291820180546001600160a01b0319166001600160a01b0390921691909117815594517fb13d2d76d1f4b7be834882e410b3e3a8afaf69f83600ae24db354391d2378d2f82015592517fb13d2d76d1f4b7be834882e410b3e3a8afaf69f83600ae24db354391d2378d3084015590517fb13d2d76d1f4b7be834882e410b3e3a8afaf69f83600ae24db354391d2378d3183015551805193948594610725937fb13d2d76d1f4b7be834882e410b3e3a8afaf69f83600ae24db354391d2378d320192909101906127c1565b5050336000908152601960205260409020601854909150610748906001906133e8565b8154600181018355600092835260208320015561077a336001600160a01b031660009081526020819052604090205490565b61078487876133ff565b61078e9190613484565b60185490915061079e81836133ff565b6018546107ad906001906134c0565b600c546107ba91906133ff565b6107c491906134ff565b6107ce9190613484565b600c55600b80548791906000906107e6908490613540565b909155506107f690503387612294565b505050505050565b601c54604051336001600160a01b039092168281149261082092602001613558565b6040516020818303038152906040529061084d5760405162461bcd60e51b815260040161059f91906129e4565b50601d80546001600160a01b0319166001600160a01b0392909216919091179055565b600061087d3384846123e2565b50600192915050565b61088e612845565b6040805161016081018252600a80548252600b546020830152600c5492820192909252600d546060820152600e546001600160a01b03166080820152600f805491929160a0840191906108e090613397565b80601f016020809104026020016040519081016040528092919081815260200182805461090c90613397565b80156109595780601f1061092e57610100808354040283529160200191610959565b820191906000526020600020905b81548152906001019060200180831161093c57829003601f168201915b5050505050815260200160068201805461097290613397565b80601f016020809104026020016040519081016040528092919081815260200182805461099e90613397565b80156109eb5780601f106109c0576101008083540402835291602001916109eb565b820191906000526020600020905b8154815290600101906020018083116109ce57829003601f168201915b50505050508152602001600782018054610a0490613397565b80601f0160208091040260200160405190810160405280929190818152602001828054610a3090613397565b8015610a7d5780601f10610a5257610100808354040283529160200191610a7d565b820191906000526020600020905b815481529060010190602001808311610a6057829003601f168201915b5050505050815260200160088201604051806080016040529081600082018054610aa690613397565b80601f0160208091040260200160405190810160405280929190818152602001828054610ad290613397565b8015610b1f5780601f10610af457610100808354040283529160200191610b1f565b820191906000526020600020905b815481529060010190602001808311610b0257829003601f168201915b50505050508152602001600182018054610b3890613397565b80601f0160208091040260200160405190810160405280929190818152602001828054610b6490613397565b8015610bb15780601f10610b8657610100808354040283529160200191610bb1565b820191906000526020600020905b815481529060010190602001808311610b9457829003601f168201915b50505050508152602001600282018054610bca90613397565b80601f0160208091040260200160405190810160405280929190818152602001828054610bf690613397565b8015610c435780601f10610c1857610100808354040283529160200191610c43565b820191906000526020600020905b815481529060010190602001808311610c2657829003601f168201915b50505050508152602001600382018054610c5c90613397565b80601f0160208091040260200160405190810160405280929190818152602001828054610c8890613397565b8015610cd55780601f10610caa57610100808354040283529160200191610cd5565b820191906000526020600020905b815481529060010190602001808311610cb857829003601f168201915b5050505050815250508152602001600c8201805480602002602001604051908101604052809291908181526020018280548015610d3157602002820191906000526020600020905b815481526020019060010190808311610d1d575b50505050508152602001600d82015481525050905090565b601c54604051336001600160a01b0390921682811492610d6b92602001613558565b60405160208183030381529060405290610d985760405162461bcd60e51b815260040161059f91906129e4565b50601c80546001600160a01b0319166001600160a01b0392909216919091179055565b601b6020528160005260406000208181548110610dd757600080fd5b90600052602060002001600091509150505481565b601c54604051336001600160a01b0390921682811492610e0e92602001613558565b60405160208183030381529060405290610e3b5760405162461bcd60e51b815260040161059f91906129e4565b508060058110610e8d5760405162461bcd60e51b815260206004820152601860248201527f4f6e6c792035206b6579732063616e20616464206f6e63650000000000000000604482015260640161059f565b60005b81811015610ee0576016848483818110610eac57610eac61359f565b8354600181018555600094855260209485902091909402929092013591909201555080610ed8816135b5565b915050610e90565b50601d546040516343013c4b60e11b81526001600160a01b0390911690638602789690610f15908690869030906004016135d0565b600060405180830381600087803b158015610f2f57600080fd5b505af1158015610f43573d6000803e3d6000fd5b50505050505050565b60188181548110610f5c57600080fd5b6000918252602090912060059091020180546001820154600283015460038401546004850180546001600160a01b03909516965092949193909290610fa090613397565b80601f0160208091040260200160405190810160405280929190818152602001828054610fcc90613397565b80156110195780601f10610fee57610100808354040283529160200191611019565b820191906000526020600020905b815481529060010190602001808311610ffc57829003601f168201915b5050505050905085565b6000611030848484612506565b6001600160a01b0384166000908152600160209081526040808320338452909152902054828110156110b55760405162461bcd60e51b815260206004820152602860248201527f45524332303a207472616e7366657220616d6f756e74206578636565647320616044820152676c6c6f77616e636560c01b606482015260840161059f565b6110c285338584036123e2565b506001949350505050565b3360008181526001602090815260408083206001600160a01b0387168452909152812054909161087d918590611104908690613540565b6123e2565b60606111136116e6565b905090565b601c54604051336001600160a01b039092168281149261113a92602001613558565b604051602081830303815290604052906111675760405162461bcd60e51b815260040161059f91906129e4565b50601755565b601c54604051336001600160a01b039092168281149261118f92602001613558565b604051602081830303815290604052906111bc5760405162461bcd60e51b815260040161059f91906129e4565b506111e86040518060800160405280606081526020016060815260200160608152602001606081525090565b88888080601f016020809104026020016040519081016040528093929190818152602001838380828437600092019190915250505090825250604080516020601f890181900481028201810190925287815290889088908190840183828082843760009201919091525050505060208083019190915260408051601f870183900483028101830190915285815290869086908190840183828082843760009201919091525050505060408083019190915280516020601f85018190048102820181019092528381529084908490819084018382808284376000920191909152505050506060820152601d5460405163d107704d60e01b81526001600160a01b039091169063d107704d906113029084903090600401613622565b600060405180830381600087803b15801561131c57600080fd5b505af1158015611330573d6000803e3d6000fd5b506113439250601291508b90508a6128d4565b50611350601388886128d4565b5061135d601486866128d4565b5061136a601584846128d4565b50505050505050505050565b601c54600160a81b900460ff16156113c15760405162461bcd60e51b815260206004820152600e60248201526d105b1c9958591e481a5b9a5d195960921b604482015260640161059f565b601c805461ffff60a01b1933166001600160b01b031990911617600160a81b179055565b601c54600160a01b900460ff16156114345760405162461bcd60e51b8152602060048201526012602482015271105b1c9958591e4818dbdb999a59dd5c995960721b604482015260640161059f565b8251600a908155602080850151600b556040850151600c556060850151600d556080850151600e80546001600160a01b0319166001600160a01b0390921691909117905560a0850151805186939261149192600f929101906127c1565b5060c082015180516114ad9160068401916020909101906127c1565b5060e082015180516114c99160078401916020909101906127c1565b506101008201518051805160088401916114e8918391602001906127c1565b50602082810151805161150192600185019201906127c1565b506040820151805161151d9160028401916020909101906127c1565b50606082015180516115399160038401916020909101906127c1565b505050610120820151805161155891600c840191602090910190612948565b506101409190910151600d909101556080830151601c80546001600160a01b0319166001600160a01b03909216919091179055845161159e9060089060208801906127c1565b5083516115b29060099060208701906127c1565b506010855110806115c45750600a8451105b806115d4575060408360a0015151105b806115e4575060808360c0015151105b806115f557506101008360e0015151105b80611607575060058361012001515111155b6116535760405162461bcd60e51b815260206004820152601b60248201527f546f6f206d616e792073796d627320696e20706172616d657465720000000000604482015260640161059f565b601d80546001600160a01b0319166001600160a01b038416908117909155608084015160405163d83c8bd360e01b815263d83c8bd39161169a91309190889060040161364c565b600060405180830381600087803b1580156116b457600080fd5b505af11580156116c8573d6000803e3d6000fd5b5050601c805460ff60a01b1916600160a01b17905550505050505050565b6060600480546104c090613397565b60606111136104b1565b3360009081526001602090815260408083206001600160a01b0386168452909152812054828110156117815760405162461bcd60e51b815260206004820152602560248201527f45524332303a2064656372656173656420616c6c6f77616e63652062656c6f77604482015264207a65726f60d81b606482015260840161059f565b61178e33858584036123e2565b5060019392505050565b601a81815481106117a857600080fd5b60009182526020909120600390910201805460018201546002830180546001600160a01b0390931694509092916117de90613397565b80601f016020809104026020016040519081016040528092919081815260200182805461180a90613397565b80156118575780601f1061182c57610100808354040283529160200191611857565b820191906000526020600020905b81548152906001019060200180831161183a57829003601f168201915b5050505050905083565b601d546040516323b3af8960e01b81526001600160a01b03848116600483015230602483015260009216906323b3af8990604401600060405180830381600087803b1580156118af57600080fd5b505af11580156118c3573d6000803e3d6000fd5b5050505061178e83836126d5565b6060806118dc612845565b6118e46104b1565b6118ec6116e6565b6040805161016081018252600a80548252600b546020830152600c5492820192909252600d546060820152600e546001600160a01b03166080820152600f8054839160a084019161193c90613397565b80601f016020809104026020016040519081016040528092919081815260200182805461196890613397565b80156119b55780601f1061198a576101008083540402835291602001916119b5565b820191906000526020600020905b81548152906001019060200180831161199857829003601f168201915b505050505081526020016006820180546119ce90613397565b80601f01602080910402602001604051908101604052809291908181526020018280546119fa90613397565b8015611a475780601f10611a1c57610100808354040283529160200191611a47565b820191906000526020600020905b815481529060010190602001808311611a2a57829003601f168201915b50505050508152602001600782018054611a6090613397565b80601f0160208091040260200160405190810160405280929190818152602001828054611a8c90613397565b8015611ad95780601f10611aae57610100808354040283529160200191611ad9565b820191906000526020600020905b815481529060010190602001808311611abc57829003601f168201915b5050505050815260200160088201604051806080016040529081600082018054611b0290613397565b80601f0160208091040260200160405190810160405280929190818152602001828054611b2e90613397565b8015611b7b5780601f10611b5057610100808354040283529160200191611b7b565b820191906000526020600020905b815481529060010190602001808311611b5e57829003601f168201915b50505050508152602001600182018054611b9490613397565b80601f0160208091040260200160405190810160405280929190818152602001828054611bc090613397565b8015611c0d5780601f10611be257610100808354040283529160200191611c0d565b820191906000526020600020905b815481529060010190602001808311611bf057829003601f168201915b50505050508152602001600282018054611c2690613397565b80601f0160208091040260200160405190810160405280929190818152602001828054611c5290613397565b8015611c9f5780601f10611c7457610100808354040283529160200191611c9f565b820191906000526020600020905b815481529060010190602001808311611c8257829003601f168201915b50505050508152602001600382018054611cb890613397565b80601f0160208091040260200160405190810160405280929190818152602001828054611ce490613397565b8015611d315780601f10611d0657610100808354040283529160200191611d31565b820191906000526020600020905b815481529060010190602001808311611d1457829003601f168201915b5050505050815250508152602001600c8201805480602002602001604051908101604052809291908181526020018280548015611d8d57602002820191906000526020600020905b815481526020019060010190808311611d79575b50505050508152602001600d820154815250509050925092509250909192565b601c54604051336001600160a01b0390921682811492611dcf92602001613558565b60405160208183030381529060405290611dfc5760405162461bcd60e51b815260040161059f91906129e4565b508060058110611e4e5760405162461bcd60e51b815260206004820152601b60248201527f4f6e6c792035206b6579732063616e2072656d6f7665206f6e63650000000000604482015260640161059f565b60005b81811015611f46576000805b601654811015611ebd57858584818110611e7957611e7961359f565b90506020020135600a600c018281548110611e9657611e9661359f565b90600052602060002001541415611eab578091505b80611eb5816135b5565b915050611e5d565b5060168054611ece906001906133e8565b81548110611ede57611ede61359f565b9060005260206000200154600a600c018281548110611eff57611eff61359f565b6000918252602090912001556016805480611f1c57611f1c613678565b60019003818190600052602060002001600090559055508080611f3e906135b5565b915050611e51565b50601d54604051638bcd065560e01b81526001600160a01b0390911690638bcd065590610f15908690869030906004016135d0565b6060600a600c0180548060200260200160405190810160405280929190818152602001828054801561053957602002820191906000526020600020905b815481526020019060010190808311611fb8575050505050905090565b60196020528160005260406000208181548110610dd757600080fd5b601c54604051336001600160a01b039092168281149261201392602001613558565b604051602081830303815290604052906120405760405162461bcd60e51b815260040161059f91906129e4565b506101008151106120935760405162461bcd60e51b815260206004820152601c60248201527f494f552074657874206973206c6f6e672c206e656564203c2032353600000000604482015260640161059f565b604080516060810182526001600160a01b038581168252426020808401918252938301858152601a805460018101825560009190915284517f057c384a7d1c54f3a1b2e5e67b2617b8224fdfd1ea7234eea573a6ff665ff63e600390920291820180546001600160a01b0319169190951617845591517f057c384a7d1c54f3a1b2e5e67b2617b8224fdfd1ea7234eea573a6ff665ff63f83015551805193948594612164937f057c384a7d1c54f3a1b2e5e67b2617b8224fdfd1ea7234eea573a6ff665ff6400192909101906127c1565b5050506001600160a01b0384166000908152601b60205260409020601a5461218e906001906133e8565b815460018101835560009283526020909220909101556121ae84846126e2565b82600a60000160008282546121c39190613540565b9091555050601d546040516323b3af8960e01b81526001600160a01b038681166004830152306024830152909116906323b3af8990604401600060405180830381600087803b15801561221557600080fd5b505af1158015612229573d6000803e3d6000fd5b5050505050505050565b601c54604051336001600160a01b039092168281149261225592602001613558565b604051602081830303815290604052906122825760405162461bcd60e51b815260040161059f91906129e4565b5061228f601183836128d4565b505050565b6001600160a01b0382166122f45760405162461bcd60e51b815260206004820152602160248201527f45524332303a206275726e2066726f6d20746865207a65726f206164647265736044820152607360f81b606482015260840161059f565b6001600160a01b038216600090815260208190526040902054818110156123685760405162461bcd60e51b815260206004820152602260248201527f45524332303a206275726e20616d6f756e7420657863656564732062616c616e604482015261636560f01b606482015260840161059f565b6001600160a01b03831660009081526020819052604081208383039055600280548492906123979084906133e8565b90915550506040518281526000906001600160a01b038516907fddf252ad1be2c89b69c2b068fc378daa952ba7f163c4a11628f55a4df523b3ef9060200160405180910390a3505050565b6001600160a01b0383166124445760405162461bcd60e51b8152602060048201526024808201527f45524332303a20617070726f76652066726f6d20746865207a65726f206164646044820152637265737360e01b606482015260840161059f565b6001600160a01b0382166124a55760405162461bcd60e51b815260206004820152602260248201527f45524332303a20617070726f766520746f20746865207a65726f206164647265604482015261737360f01b606482015260840161059f565b6001600160a01b0383811660008181526001602090815260408083209487168084529482529182902085905590518481527f8c5be1e5ebec7d5bd14f71427d1e84f3dd0314c0f7b2291e5b200ac8c7c3b925910160405180910390a3505050565b6001600160a01b03831661256a5760405162461bcd60e51b815260206004820152602560248201527f45524332303a207472616e736665722066726f6d20746865207a65726f206164604482015264647265737360d81b606482015260840161059f565b6001600160a01b0382166125cc5760405162461bcd60e51b815260206004820152602360248201527f45524332303a207472616e7366657220746f20746865207a65726f206164647260448201526265737360e81b606482015260840161059f565b6001600160a01b038316600090815260208190526040902054818110156126445760405162461bcd60e51b815260206004820152602660248201527f45524332303a207472616e7366657220616d6f756e7420657863656564732062604482015265616c616e636560d01b606482015260840161059f565b6001600160a01b0380851660009081526020819052604080822085850390559185168152908120805484929061267b908490613540565b92505081905550826001600160a01b0316846001600160a01b03167fddf252ad1be2c89b69c2b068fc378daa952ba7f163c4a11628f55a4df523b3ef846040516126c791815260200190565b60405180910390a350505050565b600061087d338484612506565b6001600160a01b0382166127385760405162461bcd60e51b815260206004820152601f60248201527f45524332303a206d696e7420746f20746865207a65726f206164647265737300604482015260640161059f565b806002600082825461274a9190613540565b90915550506001600160a01b03821660009081526020819052604081208054839290612777908490613540565b90915550506040518181526001600160a01b038316906000907fddf252ad1be2c89b69c2b068fc378daa952ba7f163c4a11628f55a4df523b3ef9060200160405180910390a35050565b8280546127cd90613397565b90600052602060002090601f0160209004810192826127ef5760008555612835565b82601f1061280857805160ff1916838001178555612835565b82800160010185558215612835579182015b8281111561283557825182559160200191906001019061281a565b50612841929150612982565b5090565b6040518061016001604052806000815260200160008152602001600081526020016000801916815260200160006001600160a01b031681526020016060815260200160608152602001606081526020016128c06040518060800160405280606081526020016060815260200160608152602001606081525090565b815260606020820152600060409091015290565b8280546128e090613397565b90600052602060002090601f0160209004810192826129025760008555612835565b82601f1061291b5782800160ff19823516178555612835565b82800160010185558215612835579182015b8281111561283557823582559160200191906001019061292d565b828054828255906000526020600020908101928215612835579160200282018281111561283557825182559160200191906001019061281a565b5b808211156128415760008155600101612983565b6000815180845260005b818110156129bd576020818501810151868301820152016129a1565b818111156129cf576000602083870101525b50601f01601f19169290920160200192915050565b6020815260006129f76020830184612997565b9392505050565b634e487b7160e01b600052604160045260246000fd5b604051608081016001600160401b0381118282101715612a3657612a366129fe565b60405290565b60405161016081016001600160401b0381118282101715612a3657612a366129fe565b604051601f8201601f191681016001600160401b0381118282101715612a8757612a876129fe565b604052919050565b600082601f830112612aa057600080fd5b81356001600160401b03811115612ab957612ab96129fe565b612acc601f8201601f1916602001612a5f565b818152846020838601011115612ae157600080fd5b816020850160208301376000918101602001919091529392505050565b600080600060608486031215612b1357600080fd5b833592506020840135915060408401356001600160401b03811115612b3757600080fd5b612b4386828701612a8f565b9150509250925092565b80356001600160a01b0381168114612b6457600080fd5b919050565b600060208284031215612b7b57600080fd5b6129f782612b4d565b60008060408385031215612b9757600080fd5b612ba083612b4d565b946020939093013593505050565b6000815160808452612bc36080850182612997565b905060208301518482036020860152612bdc8282612997565b91505060408301518482036040860152612bf68282612997565b91505060608301518482036060860152612c108282612997565b95945050505050565b600081518084526020808501945080840160005b83811015612c4957815187529582019590820190600101612c2d565b509495945050505050565b6000610160825184526020830151602085015260408301516040850152606083015160608501526080830151612c9560808601826001600160a01b03169052565b5060a08301518160a0860152612cad82860182612997565b91505060c083015184820360c0860152612cc78282612997565b91505060e083015184820360e0860152612ce18282612997565b9150506101008084015185830382870152612cfc8382612bae565b925050506101208084015185830382870152612d188382612c19565b61014095860151969095019590955250919392505050565b6020815260006129f76020830184612c54565b60008060208385031215612d5657600080fd5b82356001600160401b0380821115612d6d57600080fd5b818501915085601f830112612d8157600080fd5b813581811115612d9057600080fd5b8660208260051b8501011115612da557600080fd5b60209290920196919550909350505050565b600060208284031215612dc957600080fd5b5035919050565b60018060a01b038616815284602082015283604082015282606082015260a060808201526000612e0360a0830184612997565b979650505050505050565b600080600060608486031215612e2357600080fd5b612e2c84612b4d565b9250612e3a60208501612b4d565b9150604084013590509250925092565b60008083601f840112612e5c57600080fd5b5081356001600160401b03811115612e7357600080fd5b602083019150836020828501011115612e8b57600080fd5b9250929050565b6000806000806000806000806080898b031215612eae57600080fd5b88356001600160401b0380821115612ec557600080fd5b612ed18c838d01612e4a565b909a50985060208b0135915080821115612eea57600080fd5b612ef68c838d01612e4a565b909850965060408b0135915080821115612f0f57600080fd5b612f1b8c838d01612e4a565b909650945060608b0135915080821115612f3457600080fd5b50612f418b828c01612e4a565b999c989b5096995094979396929594505050565b600060808284031215612f6757600080fd5b612f6f612a14565b905081356001600160401b0380821115612f8857600080fd5b612f9485838601612a8f565b83526020840135915080821115612faa57600080fd5b612fb685838601612a8f565b60208401526040840135915080821115612fcf57600080fd5b612fdb85838601612a8f565b60408401526060840135915080821115612ff457600080fd5b5061300184828501612a8f565b60608301525092915050565b600082601f83011261301e57600080fd5b813560206001600160401b03821115613039576130396129fe565b8160051b613048828201612a5f565b928352848101820192828101908785111561306257600080fd5b83870192505b84831015612e0357823582529183019190830190613068565b600080600080600060a0868803121561309957600080fd5b85356001600160401b03808211156130b057600080fd5b6130bc89838a01612a8f565b965060208801359150808211156130d257600080fd5b6130de89838a01612a8f565b955060408801359150808211156130f457600080fd5b90870190610160828a03121561310957600080fd5b613111612a3c565b8235815260208301356020820152604083013560408201526060830135606082015261313f60808401612b4d565b608082015260a08301358281111561315657600080fd5b6131628b828601612a8f565b60a08301525060c08301358281111561317a57600080fd5b6131868b828601612a8f565b60c08301525060e08301358281111561319e57600080fd5b6131aa8b828601612a8f565b60e08301525061010080840135838111156131c457600080fd5b6131d08c828701612f55565b82840152505061012080840135838111156131ea57600080fd5b6131f68c82870161300d565b8284015250506101409150818301358282015280955050505061321b60608701612b4d565b915061322960808701612b4d565b90509295509295909350565b60018060a01b0384168152826020820152606060408201526000612c106060830184612997565b60608152600061326f6060830186612997565b82810360208401526132818186612997565b905082810360408401526132958185612c54565b9695505050505050565b6020808252825182820181905260009190848201906040850190845b818110156132d7578351835292840192918401916001016132bb565b50909695505050505050565b6000806000606084860312156132f857600080fd5b61330184612b4d565b92506020840135915060408401356001600160401b03811115612b3757600080fd5b6000806040838503121561333657600080fd5b61333f83612b4d565b915061334d60208401612b4d565b90509250929050565b6000806020838503121561336957600080fd5b82356001600160401b0381111561337f57600080fd5b61338b85828601612e4a565b90969095509350505050565b600181811c908216806133ab57607f821691505b602082108114156133cc57634e487b7160e01b600052602260045260246000fd5b50919050565b634e487b7160e01b600052601160045260246000fd5b6000828210156133fa576133fa6133d2565b500390565b60006001600160ff1b0381841382841380821686840486111615613425576134256133d2565b600160ff1b6000871282811687830589121615613444576134446133d2565b60008712925087820587128484161615613460576134606133d2565b87850587128184161615613476576134766133d2565b505050929093029392505050565b6000826134a157634e487b7160e01b600052601260045260246000fd5b600160ff1b8214600019841416156134bb576134bb6133d2565b500590565b60008083128015600160ff1b8501841216156134de576134de6133d2565b6001600160ff1b03840183138116156134f9576134f96133d2565b50500390565b600080821280156001600160ff1b0384900385131615613521576135216133d2565b600160ff1b839003841281161561353a5761353a6133d2565b50500190565b60008219821115613553576135536133d2565b500190565b6060808252601690820152754f6e6c79206f776e65722063616e20646f207468697360501b60808201526001600160a01b0392831660208201529116604082015260a00190565b634e487b7160e01b600052603260045260246000fd5b60006000198214156135c9576135c96133d2565b5060010190565b6040808252810183905260006001600160fb1b038411156135f057600080fd5b8360051b8086606085013760009083016060019081526001600160a01b03939093166020909201919091525092915050565b6040815260006136356040830185612bae565b905060018060a01b03831660208301529392505050565b6001600160a01b03848116825283166020820152606060408201819052600090612c1090830184612c54565b634e487b7160e01b600052603160045260246000fdfea2646970667358221220a3f2112323ee57f679acbb8ea7031b626f1f2d5a8facb34faaad72509d1488ee64736f6c634300080a0033",
  "immutableReferences": {},
  "source": "pragma solidity>= 0.8.0;\npragma experimental ABIEncoderV2;\nimport  \"./interfaces/iIOUtoken.sol\";\nimport \"./interfaces/iStoreIOUs.sol\";\nimport \"./ERC20.sol\";\n\n//import \"./MakeIOU.sol\";\n\n/*** IOU ecosystem\n*   The aim of IOU ecosystem is to give people proved fiat-free mutual settlements by issuing personal IOU tokens on Ethereum.\n*   \n*   1.Alice, the artist,  wants to get service from Bob, the barber but has no money. But she can issue ERC20 compatible IOU token  and fill this:\n*   name of the token (Alice Artist 2020)\n*   symbol of the token (AA01)\n*   description of service (Artist: logos, infographic, cartoons)\n*   location (New York)\n*   social profile in LinkedIn (or Facebook or  smth else)\n*   units (dollars, euros, hours, pictures)\n*   2. Alice negotiated the sum of her AA01 tokens,  transfers this to Bob, and get the beautiful hairstyle. And this deal fixes in the blockchain forever.\n*   3. Two-month later Bob asked her later for a cartoon about his hairdressing salon.\n*   4. After Alice made her job, Bob burns a part of  Alices IOU tokens and puts feedback, adding a rating of results.\n*   5. Later Bob pays with Alices AA01 tokens to Peter, the webmaster, who supports Bobs salon website. Peter looks for a fresh infographic for another project.\n*   6. Peter doesnt know Alice personally and he wants to check Alices reputation. He gets the history of Alices deals and looks feedbacks and rates, given to Alice. From another user s of IOU tokens, number of transactions and supply amount.\n*   7. If he decides that all ok, he approve the deal in Alice's IOU tokens.\n*   8. After Piter receives results, hi burned tokens and gives his feedback too.\n*/\n/// @author stanta\n/// @title IOUtoken\ncontract IOUData is ERC20 {\n     //ERC20 \n    mapping(address => uint256) private _balances;\n\n    mapping(address => mapping(address => uint256)) private _allowances;\n\n    uint256  _totalSupply;\n\n    string  _name;\n    string  _symbol;\n  \n \n   // bool registered;\n\n    iIOUtoken.DescriptionIOU  thisIOU;\n\n    iIOUtoken.FeedBack[] public allFeedbacks;\n    mapping (address => uint256[]) public feedBacksbySender; // feedback from tokenholders\n\n    iIOUtoken.IOU[] public allIOUs;\n    mapping (address => uint256[]) public IOUbyReceiver; // list of this IOUs by receiver\n\n    address owner;\n    bool configured;\n    bool inited;\n    iStoreIOUs store;\n    //mapping (address => uint) Tokenholders;\n    address implementation;\n\n}\n\ncontract IOUtoken is IOUData, iIOUtoken  { \n\n     modifier onlyOwner() {\n        require (owner == msg.sender, string(abi.encode(\"Only owner can do this\", owner, msg.sender)));\n        _;\n    }\n\n    modifier nonConfiged () {\n        require(!configured, \"Already configured\");\n        _;\n        configured = true;\n\n    }\n\n    modifier nonInited () {\n        require(!inited, \"Already inited\");\n        _;\n        inited = true;\n\n    }\n\n    modifier onlyHolder (uint256 _amount) {\n        require (balanceOf(msg.sender) > _amount, \"No amount token holder has\" );\n    _;\n    }\n   \n    function initialize()  public nonInited override\n    {\n        owner = msg.sender;\n        configured = false;\n    }\n    function setIOU  (\n    //    constructor (\n                    string memory name_, \n                    string memory symbol_, \n                    DescriptionIOU memory _thisIOU,\n                    address _store, \n                    address _implementation\n)  public  nonConfiged /* override */ {\n        thisIOU = _thisIOU;\n        owner = _thisIOU.issuer;\n        _name = name_; \n        _symbol = symbol_;\n         require (bytes(name_).length <16 || \n                    bytes(symbol_).length < 10 ||\n                    bytes(_thisIOU.myName).length < 64 ||\n                    bytes(_thisIOU.socialProfile).length < 128 ||\n                    bytes(_thisIOU.description).length < 256 ||\n                    _thisIOU.keywords.length <=5 , \n                    \"Too many symbs in parameter\" ); \n    //todo add visibility?\n    store = iStoreIOUs(_store);\n            \n    store.addIOU1(address(this), _thisIOU.issuer, _thisIOU); //, _socialProfile, msg.sender, _keywords);\n        }\n\n    function setStore (address _newOwner) public onlyOwner {\n        store = iStoreIOUs(_newOwner);\n        \n    }   \n\n\n    function setOwner (address _newOwner) public onlyOwner {\n   //     _removeMinter(owner);\n        owner = _newOwner;\n  //      _addMinter(_newOwner);\n    }\n    \n\n    function mint (address _who, uint256 _amount, string memory _descr) public onlyOwner { \n/*         if (!registered) {\n            StoreIOU.addIOU2(address(this), thisIOU.socialProfile, thisIOU.keywords);\n            registered = true; \n            } */\n        require (bytes(_descr).length <256, \"IOU text is long, need < 256\");\n        IOU memory bond = IOU (_who, block.timestamp, _descr);\n        allIOUs.push(bond);\n        IOUbyReceiver[_who].push(allIOUs.length-1);\n        _mint(_who, _amount);\n        thisIOU.totalMinted += _amount;\n        store.addHolder(_who, address(this)); \n        \n    }\n\n    function burn (uint256 _amount, int256 _rating, string memory _feedback) public onlyHolder (_amount) {\n        require (bytes(_feedback).length <256, \"Feedback is long, must be < 256\");\n\n        iIOUtoken.FeedBack memory feedback = iIOUtoken.FeedBack(msg.sender,block.timestamp, _rating, _amount, _feedback);\n        allFeedbacks.push(feedback);\n        feedBacksbySender[msg.sender].push(allFeedbacks.length-1);\n        \n        int256 deltaRate = _rating * int256(_amount) / int256 (balanceOf(msg.sender));\n\n        thisIOU.avRate = (thisIOU.avRate * (int256(allFeedbacks.length) -1) + \n                        deltaRate  * int256(allFeedbacks.length)) / int256(allFeedbacks.length);\n                        \n\n        thisIOU.totalBurned += _amount;\n        _burn(msg.sender, _amount);\n    }\n\n    function transfer(address _recipient, uint256 _amount) public override returns (bool) {\n        store.addHolder(_recipient, address(this));\n        super.transfer(_recipient, _amount);\n        return true;\n    }\n\n    function editDescr (string calldata _descr)  public onlyOwner {\n        thisIOU.description = _descr;\n    }\n\n    function editPhone (bytes32 _phone)  public onlyOwner {\n        thisIOU.phone = _phone;\n    }\n\n    function editGeo (string calldata _country,\n                    string calldata _state,\n                    string calldata _city,\n                    string calldata _street)  public onlyOwner {\n        iIOUtoken.geo memory newloc;\n        newloc.country = _country;\n        newloc.state = _state;\n        newloc.city = _city;\n        newloc.street = _street;\n        store.changeIOUGeoAllkeys(newloc, address(this));\n        thisIOU.location.country = _country;\n        thisIOU.location.state = _state;\n        thisIOU.location.city = _city;\n        thisIOU.location.street = _street;\n    }\n\n\n    function addKeys (bytes32[] calldata _keys)  public onlyOwner {\n        uint addKeyLen = _keys.length;\n        require(addKeyLen < 5, \"Only 5 keys can add once\");\n        for (uint k=0; k<addKeyLen; k++) {\n            thisIOU.keywords.push(_keys[k]);\n        }\n        store.addKeys( _keys, address(this));  \n    }\n    function delKeys (bytes32[] calldata _keys)  public onlyOwner {\n        uint delKeyLen = _keys.length;       \n        require(delKeyLen < 5, \"Only 5 keys can remove once\");\n        // mark removing keys\n       // uint[5] memory keyMap;\n       \n       // uint km = 0;\n        for (uint dk=0; dk<delKeyLen; dk++) {\n            uint delkey;\n            for (uint kk=0; kk<thisIOU.keywords.length; kk++) {                \n                    if (thisIOU.keywords[kk] == _keys[dk]) {\n                        delkey = kk;                        \n                    }\n            }\n            // catch array \n            thisIOU.keywords[delkey] = thisIOU.keywords[thisIOU.keywords.length-1] ;\n            thisIOU.keywords.pop();\n    \n        }\n        \n        store.delKeys( _keys, address(this)); \n    }\n\n\n    function thisIOUkeywords() public view returns (bytes32[] memory)\n    {\n        return thisIOU.keywords;\n    }\n\n    function getlen ()  public view returns (uint256, uint256) {\n        return (allIOUs.length, allFeedbacks.length);\n    } \n\n    function thisIOUDesc () public view override returns (DescriptionIOU memory)\n    {    return thisIOU;\n    }\n    function IOUname () public view override returns (string memory)\n    {    return name();\n    }\n    function IOUsymbol () public view override returns (string memory)\n    {    return symbol ();\n    }\n\n\n    function getTokenInfo() public view returns(string memory,\n                                           string memory,\n                                           iIOUtoken.DescriptionIOU memory ) {\n        return(name(), symbol(), thisIOU);\n\n    }\n\n}\n",
  "sourcePath": "/mnt/512-2/dfd/iou2/contracts/IOUtoken.sol",
  "compiler": {
    "name": "solc",
    "version": "0.8.10+commit.fc410830.Emscripten.clang"
  },
  "schemaVersion": "3.4.4",
  "updatedAt": "2022-02-16T16:17:47.228Z",
  "networkType": "ethereum",
  "devdoc": {
    "kind": "dev",
    "methods": {
      "allowance(address,address)": {
        "details": "See {IERC20-allowance}."
      },
      "approve(address,uint256)": {
        "details": "See {IERC20-approve}. Requirements: - `spender` cannot be the zero address."
      },
      "balanceOf(address)": {
        "details": "See {IERC20-balanceOf}."
      },
      "decimals()": {
        "details": "Returns the number of decimals used to get its user representation. For example, if `decimals` equals `2`, a balance of `505` tokens should be displayed to a user as `5.05` (`505 / 10 ** 2`). Tokens usually opt for a value of 18, imitating the relationship between Ether and Wei. This is the value {ERC20} uses, unless this function is overridden; NOTE: This information is only used for _display_ purposes: it in no way affects any of the arithmetic of the contract, including {IERC20-balanceOf} and {IERC20-transfer}."
      },
      "decreaseAllowance(address,uint256)": {
        "details": "Atomically decreases the allowance granted to `spender` by the caller. This is an alternative to {approve} that can be used as a mitigation for problems described in {IERC20-approve}. Emits an {Approval} event indicating the updated allowance. Requirements: - `spender` cannot be the zero address. - `spender` must have allowance for the caller of at least `subtractedValue`."
      },
      "increaseAllowance(address,uint256)": {
        "details": "Atomically increases the allowance granted to `spender` by the caller. This is an alternative to {approve} that can be used as a mitigation for problems described in {IERC20-approve}. Emits an {Approval} event indicating the updated allowance. Requirements: - `spender` cannot be the zero address."
      },
      "name()": {
        "details": "Returns the name of the token."
      },
      "symbol()": {
        "details": "Returns the symbol of the token, usually a shorter version of the name."
      },
      "totalSupply()": {
        "details": "See {IERC20-totalSupply}."
      },
      "transferFrom(address,address,uint256)": {
        "details": "See {IERC20-transferFrom}. Emits an {Approval} event indicating the updated allowance. This is not required by the EIP. See the note at the beginning of {ERC20}. Requirements: - `sender` and `recipient` cannot be the zero address. - `sender` must have a balance of at least `amount`. - the caller must have allowance for ``sender``'s tokens of at least `amount`."
      }
    },
    "version": 1
  },
  "userdoc": {
    "kind": "user",
    "methods": {},
    "version": 1
  }
}