{
  "contractName": "IOUtoken",
  "abi": [
    {
      "anonymous": false,
      "inputs": [
        {
          "indexed": true,
          "internalType": "address",
          "name": "owner",
          "type": "address"
        },
        {
          "indexed": true,
          "internalType": "address",
          "name": "spender",
          "type": "address"
        },
        {
          "indexed": false,
          "internalType": "uint256",
          "name": "value",
          "type": "uint256"
        }
      ],
      "name": "Approval",
      "type": "event"
    },
    {
      "anonymous": false,
      "inputs": [
        {
          "indexed": true,
          "internalType": "address",
          "name": "from",
          "type": "address"
        },
        {
          "indexed": true,
          "internalType": "address",
          "name": "to",
          "type": "address"
        },
        {
          "indexed": false,
          "internalType": "uint256",
          "name": "value",
          "type": "uint256"
        }
      ],
      "name": "Transfer",
      "type": "event"
    },
    {
      "inputs": [
        {
          "internalType": "address",
          "name": "",
          "type": "address"
        },
        {
          "internalType": "uint256",
          "name": "",
          "type": "uint256"
        }
      ],
      "name": "IOUbyReceiver",
      "outputs": [
        {
          "internalType": "uint256",
          "name": "",
          "type": "uint256"
        }
      ],
      "stateMutability": "view",
      "type": "function"
    },
    {
      "inputs": [
        {
          "internalType": "uint256",
          "name": "",
          "type": "uint256"
        }
      ],
      "name": "allFeedbacks",
      "outputs": [
        {
          "internalType": "address",
          "name": "sender",
          "type": "address"
        },
        {
          "internalType": "uint256",
          "name": "time",
          "type": "uint256"
        },
        {
          "internalType": "int256",
          "name": "rating",
          "type": "int256"
        },
        {
          "internalType": "uint256",
          "name": "amount",
          "type": "uint256"
        },
        {
          "internalType": "string",
          "name": "text",
          "type": "string"
        }
      ],
      "stateMutability": "view",
      "type": "function"
    },
    {
      "inputs": [
        {
          "internalType": "uint256",
          "name": "",
          "type": "uint256"
        }
      ],
      "name": "allIOUs",
      "outputs": [
        {
          "internalType": "address",
          "name": "receiver",
          "type": "address"
        },
        {
          "internalType": "uint256",
          "name": "time",
          "type": "uint256"
        },
        {
          "internalType": "string",
          "name": "IOUDescr",
          "type": "string"
        }
      ],
      "stateMutability": "view",
      "type": "function"
    },
    {
      "inputs": [
        {
          "internalType": "uint256",
          "name": "",
          "type": "uint256"
        }
      ],
      "name": "allSureties",
      "outputs": [
        {
          "internalType": "address",
          "name": "ioutoken",
          "type": "address"
        },
        {
          "internalType": "uint256",
          "name": "amount",
          "type": "uint256"
        }
      ],
      "stateMutability": "view",
      "type": "function"
    },
    {
      "inputs": [
        {
          "internalType": "address",
          "name": "owner",
          "type": "address"
        },
        {
          "internalType": "address",
          "name": "spender",
          "type": "address"
        }
      ],
      "name": "allowance",
      "outputs": [
        {
          "internalType": "uint256",
          "name": "",
          "type": "uint256"
        }
      ],
      "stateMutability": "view",
      "type": "function"
    },
    {
      "inputs": [
        {
          "internalType": "address",
          "name": "spender",
          "type": "address"
        },
        {
          "internalType": "uint256",
          "name": "amount",
          "type": "uint256"
        }
      ],
      "name": "approve",
      "outputs": [
        {
          "internalType": "bool",
          "name": "",
          "type": "bool"
        }
      ],
      "stateMutability": "nonpayable",
      "type": "function"
    },
    {
      "inputs": [
        {
          "internalType": "address",
          "name": "account",
          "type": "address"
        }
      ],
      "name": "balanceOf",
      "outputs": [
        {
          "internalType": "uint256",
          "name": "",
          "type": "uint256"
        }
      ],
      "stateMutability": "view",
      "type": "function"
    },
    {
      "inputs": [],
      "name": "decimals",
      "outputs": [
        {
          "internalType": "uint8",
          "name": "",
          "type": "uint8"
        }
      ],
      "stateMutability": "view",
      "type": "function"
    },
    {
      "inputs": [
        {
          "internalType": "address",
          "name": "spender",
          "type": "address"
        },
        {
          "internalType": "uint256",
          "name": "subtractedValue",
          "type": "uint256"
        }
      ],
      "name": "decreaseAllowance",
      "outputs": [
        {
          "internalType": "bool",
          "name": "",
          "type": "bool"
        }
      ],
      "stateMutability": "nonpayable",
      "type": "function"
    },
    {
      "inputs": [
        {
          "internalType": "address",
          "name": "",
          "type": "address"
        },
        {
          "internalType": "uint256",
          "name": "",
          "type": "uint256"
        }
      ],
      "name": "feedBacksbySender",
      "outputs": [
        {
          "internalType": "uint256",
          "name": "",
          "type": "uint256"
        }
      ],
      "stateMutability": "view",
      "type": "function"
    },
    {
      "inputs": [
        {
          "internalType": "address",
          "name": "spender",
          "type": "address"
        },
        {
          "internalType": "uint256",
          "name": "addedValue",
          "type": "uint256"
        }
      ],
      "name": "increaseAllowance",
      "outputs": [
        {
          "internalType": "bool",
          "name": "",
          "type": "bool"
        }
      ],
      "stateMutability": "nonpayable",
      "type": "function"
    },
    {
      "inputs": [],
      "name": "totalSupply",
      "outputs": [
        {
          "internalType": "uint256",
          "name": "",
          "type": "uint256"
        }
      ],
      "stateMutability": "view",
      "type": "function"
    },
    {
      "inputs": [
        {
          "internalType": "address",
          "name": "sender",
          "type": "address"
        },
        {
          "internalType": "address",
          "name": "recipient",
          "type": "address"
        },
        {
          "internalType": "uint256",
          "name": "amount",
          "type": "uint256"
        }
      ],
      "name": "transferFrom",
      "outputs": [
        {
          "internalType": "bool",
          "name": "",
          "type": "bool"
        }
      ],
      "stateMutability": "nonpayable",
      "type": "function"
    },
    {
      "inputs": [],
      "name": "initialize",
      "outputs": [],
      "stateMutability": "nonpayable",
      "type": "function"
    },
    {
      "inputs": [
        {
          "internalType": "string",
          "name": "name_",
          "type": "string"
        },
        {
          "internalType": "string",
          "name": "symbol_",
          "type": "string"
        },
        {
          "components": [
            {
              "internalType": "uint256",
              "name": "totalMinted",
              "type": "uint256"
            },
            {
              "internalType": "uint256",
              "name": "totalBurned",
              "type": "uint256"
            },
            {
              "internalType": "int256",
              "name": "avRate",
              "type": "int256"
            },
            {
              "internalType": "bytes32",
              "name": "units",
              "type": "bytes32"
            },
            {
              "internalType": "address",
              "name": "issuer",
              "type": "address"
            },
            {
              "internalType": "string",
              "name": "myName",
              "type": "string"
            },
            {
              "internalType": "string",
              "name": "socialProfile",
              "type": "string"
            },
            {
              "internalType": "string",
              "name": "description",
              "type": "string"
            },
            {
              "components": [
                {
                  "internalType": "string",
                  "name": "country",
                  "type": "string"
                },
                {
                  "internalType": "string",
                  "name": "state",
                  "type": "string"
                },
                {
                  "internalType": "string",
                  "name": "city",
                  "type": "string"
                },
                {
                  "internalType": "string",
                  "name": "street",
                  "type": "string"
                }
              ],
              "internalType": "struct iIOUtoken.geo",
              "name": "location",
              "type": "tuple"
            },
            {
              "internalType": "bytes32[]",
              "name": "keywords",
              "type": "bytes32[]"
            },
            {
              "internalType": "bytes32",
              "name": "phone",
              "type": "bytes32"
            }
          ],
          "internalType": "struct iIOUtoken.DescriptionIOU",
          "name": "_thisIOU",
          "type": "tuple"
        },
        {
          "internalType": "address",
          "name": "_store",
          "type": "address"
        }
      ],
      "name": "setIOU",
      "outputs": [],
      "stateMutability": "nonpayable",
      "type": "function"
    },
    {
      "inputs": [
        {
          "internalType": "address",
          "name": "_newOwner",
          "type": "address"
        }
      ],
      "name": "setStore",
      "outputs": [],
      "stateMutability": "nonpayable",
      "type": "function"
    },
    {
      "inputs": [
        {
          "internalType": "address",
          "name": "_newOwner",
          "type": "address"
        }
      ],
      "name": "setOwner",
      "outputs": [],
      "stateMutability": "nonpayable",
      "type": "function"
    },
    {
      "inputs": [
        {
          "internalType": "address",
          "name": "_who",
          "type": "address"
        },
        {
          "internalType": "uint256",
          "name": "_amount",
          "type": "uint256"
        },
        {
          "internalType": "string",
          "name": "_descr",
          "type": "string"
        }
      ],
      "name": "mint",
      "outputs": [],
      "stateMutability": "nonpayable",
      "type": "function"
    },
    {
      "inputs": [
        {
          "internalType": "uint256",
          "name": "_amount",
          "type": "uint256"
        },
        {
          "internalType": "int256",
          "name": "_rating",
          "type": "int256"
        },
        {
          "internalType": "string",
          "name": "_feedback",
          "type": "string"
        }
      ],
      "name": "burn",
      "outputs": [],
      "stateMutability": "nonpayable",
      "type": "function"
    },
    {
      "inputs": [
        {
          "internalType": "address",
          "name": "_recipient",
          "type": "address"
        },
        {
          "internalType": "uint256",
          "name": "_amount",
          "type": "uint256"
        }
      ],
      "name": "transfer",
      "outputs": [
        {
          "internalType": "bool",
          "name": "",
          "type": "bool"
        }
      ],
      "stateMutability": "nonpayable",
      "type": "function"
    },
    {
      "inputs": [
        {
          "internalType": "string",
          "name": "_descr",
          "type": "string"
        }
      ],
      "name": "editDescr",
      "outputs": [],
      "stateMutability": "nonpayable",
      "type": "function"
    },
    {
      "inputs": [
        {
          "internalType": "bytes32",
          "name": "_phone",
          "type": "bytes32"
        }
      ],
      "name": "editPhone",
      "outputs": [],
      "stateMutability": "nonpayable",
      "type": "function"
    },
    {
      "inputs": [
        {
          "internalType": "string",
          "name": "_country",
          "type": "string"
        },
        {
          "internalType": "string",
          "name": "_state",
          "type": "string"
        },
        {
          "internalType": "string",
          "name": "_city",
          "type": "string"
        },
        {
          "internalType": "string",
          "name": "_street",
          "type": "string"
        }
      ],
      "name": "editGeo",
      "outputs": [],
      "stateMutability": "nonpayable",
      "type": "function"
    },
    {
      "inputs": [
        {
          "internalType": "bytes32[]",
          "name": "_keys",
          "type": "bytes32[]"
        }
      ],
      "name": "addKeys",
      "outputs": [],
      "stateMutability": "nonpayable",
      "type": "function"
    },
    {
      "inputs": [
        {
          "internalType": "bytes32[]",
          "name": "_keys",
          "type": "bytes32[]"
        }
      ],
      "name": "delKeys",
      "outputs": [],
      "stateMutability": "nonpayable",
      "type": "function"
    },
    {
      "inputs": [],
      "name": "thisIOUkeywords",
      "outputs": [
        {
          "internalType": "bytes32[]",
          "name": "",
          "type": "bytes32[]"
        }
      ],
      "stateMutability": "view",
      "type": "function"
    },
    {
      "inputs": [],
      "name": "getlen",
      "outputs": [
        {
          "internalType": "uint256",
          "name": "",
          "type": "uint256"
        },
        {
          "internalType": "uint256",
          "name": "",
          "type": "uint256"
        }
      ],
      "stateMutability": "view",
      "type": "function"
    },
    {
      "inputs": [],
      "name": "thisIOUDesc",
      "outputs": [
        {
          "components": [
            {
              "internalType": "uint256",
              "name": "totalMinted",
              "type": "uint256"
            },
            {
              "internalType": "uint256",
              "name": "totalBurned",
              "type": "uint256"
            },
            {
              "internalType": "int256",
              "name": "avRate",
              "type": "int256"
            },
            {
              "internalType": "bytes32",
              "name": "units",
              "type": "bytes32"
            },
            {
              "internalType": "address",
              "name": "issuer",
              "type": "address"
            },
            {
              "internalType": "string",
              "name": "myName",
              "type": "string"
            },
            {
              "internalType": "string",
              "name": "socialProfile",
              "type": "string"
            },
            {
              "internalType": "string",
              "name": "description",
              "type": "string"
            },
            {
              "components": [
                {
                  "internalType": "string",
                  "name": "country",
                  "type": "string"
                },
                {
                  "internalType": "string",
                  "name": "state",
                  "type": "string"
                },
                {
                  "internalType": "string",
                  "name": "city",
                  "type": "string"
                },
                {
                  "internalType": "string",
                  "name": "street",
                  "type": "string"
                }
              ],
              "internalType": "struct iIOUtoken.geo",
              "name": "location",
              "type": "tuple"
            },
            {
              "internalType": "bytes32[]",
              "name": "keywords",
              "type": "bytes32[]"
            },
            {
              "internalType": "bytes32",
              "name": "phone",
              "type": "bytes32"
            }
          ],
          "internalType": "struct iIOUtoken.DescriptionIOU",
          "name": "",
          "type": "tuple"
        }
      ],
      "stateMutability": "view",
      "type": "function"
    },
    {
      "inputs": [],
      "name": "IOUname",
      "outputs": [
        {
          "internalType": "string",
          "name": "",
          "type": "string"
        }
      ],
      "stateMutability": "view",
      "type": "function"
    },
    {
      "inputs": [],
      "name": "IOUsymbol",
      "outputs": [
        {
          "internalType": "string",
          "name": "",
          "type": "string"
        }
      ],
      "stateMutability": "view",
      "type": "function"
    },
    {
      "inputs": [],
      "name": "getTokenInfo",
      "outputs": [
        {
          "internalType": "string",
          "name": "",
          "type": "string"
        },
        {
          "internalType": "string",
          "name": "",
          "type": "string"
        },
        {
          "components": [
            {
              "internalType": "uint256",
              "name": "totalMinted",
              "type": "uint256"
            },
            {
              "internalType": "uint256",
              "name": "totalBurned",
              "type": "uint256"
            },
            {
              "internalType": "int256",
              "name": "avRate",
              "type": "int256"
            },
            {
              "internalType": "bytes32",
              "name": "units",
              "type": "bytes32"
            },
            {
              "internalType": "address",
              "name": "issuer",
              "type": "address"
            },
            {
              "internalType": "string",
              "name": "myName",
              "type": "string"
            },
            {
              "internalType": "string",
              "name": "socialProfile",
              "type": "string"
            },
            {
              "internalType": "string",
              "name": "description",
              "type": "string"
            },
            {
              "components": [
                {
                  "internalType": "string",
                  "name": "country",
                  "type": "string"
                },
                {
                  "internalType": "string",
                  "name": "state",
                  "type": "string"
                },
                {
                  "internalType": "string",
                  "name": "city",
                  "type": "string"
                },
                {
                  "internalType": "string",
                  "name": "street",
                  "type": "string"
                }
              ],
              "internalType": "struct iIOUtoken.geo",
              "name": "location",
              "type": "tuple"
            },
            {
              "internalType": "bytes32[]",
              "name": "keywords",
              "type": "bytes32[]"
            },
            {
              "internalType": "bytes32",
              "name": "phone",
              "type": "bytes32"
            }
          ],
          "internalType": "struct iIOUtoken.DescriptionIOU",
          "name": "",
          "type": "tuple"
        }
      ],
      "stateMutability": "view",
      "type": "function"
    },
    {
      "inputs": [],
      "name": "name",
      "outputs": [
        {
          "internalType": "string",
          "name": "",
          "type": "string"
        }
      ],
      "stateMutability": "view",
      "type": "function"
    },
    {
      "inputs": [],
      "name": "symbol",
      "outputs": [
        {
          "internalType": "string",
          "name": "",
          "type": "string"
        }
      ],
      "stateMutability": "view",
      "type": "function"
    },
    {
      "inputs": [
        {
          "internalType": "address",
          "name": "_iou",
          "type": "address"
        },
        {
          "internalType": "uint256",
          "name": "_amount",
          "type": "uint256"
        }
      ],
      "name": "addSurety",
      "outputs": [],
      "stateMutability": "nonpayable",
      "type": "function"
    },
    {
      "inputs": [
        {
          "internalType": "uint256",
          "name": "_amount",
          "type": "uint256"
        },
        {
          "internalType": "int256",
          "name": "_rating",
          "type": "int256"
        },
        {
          "internalType": "string",
          "name": "_feedback",
          "type": "string"
        }
      ],
      "name": "burnSurety",
      "outputs": [],
      "stateMutability": "nonpayable",
      "type": "function"
    },
    {
      "inputs": [],
      "name": "payPenalty",
      "outputs": [],
      "stateMutability": "nonpayable",
      "type": "function"
    },
    {
      "inputs": [
        {
          "internalType": "address",
          "name": "_iou",
          "type": "address"
        }
      ],
      "name": "revokeSurety",
      "outputs": [],
      "stateMutability": "nonpayable",
      "type": "function"
    },
    {
      "inputs": [],
      "name": "getAllSureties",
      "outputs": [
        {
          "components": [
            {
              "internalType": "address",
              "name": "ioutoken",
              "type": "address"
            },
            {
              "internalType": "uint256",
              "name": "amount",
              "type": "uint256"
            }
          ],
          "internalType": "struct IOUData.Sureties[]",
          "name": "",
          "type": "tuple[]"
        }
      ],
      "stateMutability": "view",
      "type": "function"
    }
  ],
  "bytecode": "0x608060405234801561001057600080fd5b50613d35806100206000396000f3fe608060405234801561001057600080fd5b50600436106102325760003560e01c806370a0823111610130578063a9059cbb116100b8578063cf23adfb1161007c578063cf23adfb146104ec578063d25b1c6d146104ff578063d3fc986414610512578063dd62ed3e14610525578063f67ad2331461055e57600080fd5b8063a9059cbb1461049a578063abb1dc44146104ad578063ac6137ea146104c4578063b2511314146104d7578063b404d65d1461026857600080fd5b80639ee09506116100ff5780639ee0950614610437578063a1a613bb1461043f578063a457c2d714610452578063a69bac2414610465578063a8b82e781461048757600080fd5b806370a08231146103e35780637fdcf01f1461040c5780638129fc1c1461042757806395d89b411461042f57600080fd5b80631bbb6e58116101be5780635014743611610182578063501474361461038f57806358aee270146103a457806364d14529146103ac5780636a3611b9146103bd5780636f879724146103d057600080fd5b80631bbb6e581461030457806323b872dd14610328578063313ce5671461033b5780633923ad421461034a578063395093511461037c57600080fd5b80630a576364116102055780630a576364146102a057806313af4035146102b557806314fcf315146102c857806318160ddd146102e9578063188caf8a146102f157600080fd5b806306fdde0314610237578063070df2d214610255578063087cbd401461026a578063095ea7b31461027d575b600080fd5b61023f610571565b60405161024c9190612f1f565b60405180910390f35b610268610263366004612f81565b610603565b005b610268610278366004612fef565b6108db565b61029061028b36600461300a565b61094d565b604051901515815260200161024c565b6102a8610963565b60405161024c91906131b6565b6102686102c3366004612fef565b610e26565b6102db6102d636600461300a565b610e98565b60405190815260200161024c565b6002546102db565b6102686102ff3660046131c9565b610ec9565b61031761031236600461323d565b611020565b60405161024c959493929190613256565b610290610336366004613294565b6110f7565b6040516012815260200161024c565b61035d61035836600461323d565b6111a1565b604080516001600160a01b03909316835260208301919091520161024c565b61029061038a36600461300a565b6111d9565b610397611215565b60405161024c91906132d0565b61023f61128a565b6102686103ba366004612fef565b50565b6102686103cb36600461323d565b611299565b6102686103de366004613328565b6112ee565b6102db6103f1366004612fef565b6001600160a01b031660009081526020819052604090205490565b601a546018546040805192835260208301919091520161024c565b6102686114f7565b61023f611566565b61023f611575565b61026861044d366004613617565b61157f565b61029061046036600461300a565b611884565b61047861047336600461323d565b61191d565b60405161024c939291906137ba565b61026861049536600461300a565b6119e6565b6102906104a836600461300a565b611be1565b6104b5611c80565b60405161024c939291906137e1565b6102686104d23660046131c9565b61215c565b6104df61232a565b60405161024c9190613824565b6102686104fa366004612f81565b612384565b6102db61050d36600461300a565b6124bf565b610268610520366004613868565b6124db565b6102db6105333660046138a9565b6001600160a01b03918216600090815260016020908152604080832093909416825291909152205490565b61026861056c3660046138dc565b612762565b6060600880546105809061391d565b80601f01602080910402602001604051908101604052809291908181526020018280546105ac9061391d565b80156105f95780601f106105ce576101008083540402835291602001916105f9565b820191906000526020600020905b8154815290600101906020018083116105dc57829003601f168201915b5050505050905090565b336000908152602081905260409020548490811061063c5760405162461bcd60e51b815260040161063390613958565b60405180910390fd5b610100821061068d5760405162461bcd60e51b815260206004820152601f60248201527f466565646261636b206973206c6f6e672c206d757374206265203c20323536006044820152606401610633565b60006040518060a00160405280336001600160a01b0316815260200142815260200186815260200187815260200185858080601f016020809104026020016040519081016040528093929190818152602001838380828437600092018290525093909452505060188054600181018255915282517fb13d2d76d1f4b7be834882e410b3e3a8afaf69f83600ae24db354391d2378d2e600590920291820180546001600160a01b0319166001600160a01b039092169190911781556020808501517fb13d2d76d1f4b7be834882e410b3e3a8afaf69f83600ae24db354391d2378d2f84015560408501517fb13d2d76d1f4b7be834882e410b3e3a8afaf69f83600ae24db354391d2378d3084015560608501517fb13d2d76d1f4b7be834882e410b3e3a8afaf69f83600ae24db354391d2378d31840155608085015180519596508695929450610801937fb13d2d76d1f4b7be834882e410b3e3a8afaf69f83600ae24db354391d2378d320192910190612cf1565b5050336000908152601960205260409020601854909150610824906001906139a5565b81546001810183556000928352602083200155610856336001600160a01b031660009081526020819052604090205490565b61086088886139bc565b61086a9190613a57565b60185490915061087a81836139bc565b60185461088990600190613a85565b600c5461089691906139bc565b6108a09190613ac4565b6108aa9190613a57565b600c55600b80548891906000906108c2908490613b05565b909155506108d2905033886127c3565b50505050505050565b601c54604051336001600160a01b03909216828114926108fd92602001613b1d565b6040516020818303038152906040529061092a5760405162461bcd60e51b81526004016106339190612f1f565b50601d80546001600160a01b0319166001600160a01b0392909216919091179055565b600061095a338484612911565b50600192915050565b61096b612d75565b6040805161016081018252600a80548252600b546020830152600c5492820192909252600d546060820152600e546001600160a01b03166080820152600f805491929160a0840191906109bd9061391d565b80601f01602080910402602001604051908101604052809291908181526020018280546109e99061391d565b8015610a365780601f10610a0b57610100808354040283529160200191610a36565b820191906000526020600020905b815481529060010190602001808311610a1957829003601f168201915b50505050508152602001600682018054610a4f9061391d565b80601f0160208091040260200160405190810160405280929190818152602001828054610a7b9061391d565b8015610ac85780601f10610a9d57610100808354040283529160200191610ac8565b820191906000526020600020905b815481529060010190602001808311610aab57829003601f168201915b50505050508152602001600782018054610ae19061391d565b80601f0160208091040260200160405190810160405280929190818152602001828054610b0d9061391d565b8015610b5a5780601f10610b2f57610100808354040283529160200191610b5a565b820191906000526020600020905b815481529060010190602001808311610b3d57829003601f168201915b5050505050815260200160088201604051806080016040529081600082018054610b839061391d565b80601f0160208091040260200160405190810160405280929190818152602001828054610baf9061391d565b8015610bfc5780601f10610bd157610100808354040283529160200191610bfc565b820191906000526020600020905b815481529060010190602001808311610bdf57829003601f168201915b50505050508152602001600182018054610c159061391d565b80601f0160208091040260200160405190810160405280929190818152602001828054610c419061391d565b8015610c8e5780601f10610c6357610100808354040283529160200191610c8e565b820191906000526020600020905b815481529060010190602001808311610c7157829003601f168201915b50505050508152602001600282018054610ca79061391d565b80601f0160208091040260200160405190810160405280929190818152602001828054610cd39061391d565b8015610d205780601f10610cf557610100808354040283529160200191610d20565b820191906000526020600020905b815481529060010190602001808311610d0357829003601f168201915b50505050508152602001600382018054610d399061391d565b80601f0160208091040260200160405190810160405280929190818152602001828054610d659061391d565b8015610db25780601f10610d8757610100808354040283529160200191610db2565b820191906000526020600020905b815481529060010190602001808311610d9557829003601f168201915b5050505050815250508152602001600c8201805480602002602001604051908101604052809291908181526020018280548015610e0e57602002820191906000526020600020905b815481526020019060010190808311610dfa575b50505050508152602001600d82015481525050905090565b601c54604051336001600160a01b0390921682811492610e4892602001613b1d565b60405160208183030381529060405290610e755760405162461bcd60e51b81526004016106339190612f1f565b50601c80546001600160a01b0319166001600160a01b0392909216919091179055565b601b6020528160005260406000208181548110610eb457600080fd5b90600052602060002001600091509150505481565b601c54604051336001600160a01b0390921682811492610eeb92602001613b1d565b60405160208183030381529060405290610f185760405162461bcd60e51b81526004016106339190612f1f565b508060058110610f6a5760405162461bcd60e51b815260206004820152601860248201527f4f6e6c792035206b6579732063616e20616464206f6e636500000000000000006044820152606401610633565b60005b81811015610fbd576016848483818110610f8957610f89613b64565b8354600181018555600094855260209485902091909402929092013591909201555080610fb581613b7a565b915050610f6d565b50601d546040516343013c4b60e11b81526001600160a01b0390911690638602789690610ff290869086903090600401613b95565b600060405180830381600087803b15801561100c57600080fd5b505af11580156108d2573d6000803e3d6000fd5b6018818154811061103057600080fd5b6000918252602090912060059091020180546001820154600283015460038401546004850180546001600160a01b039095169650929491939092906110749061391d565b80601f01602080910402602001604051908101604052809291908181526020018280546110a09061391d565b80156110ed5780601f106110c2576101008083540402835291602001916110ed565b820191906000526020600020905b8154815290600101906020018083116110d057829003601f168201915b5050505050905085565b6000611104848484612a35565b6001600160a01b0384166000908152600160209081526040808320338452909152902054828110156111895760405162461bcd60e51b815260206004820152602860248201527f45524332303a207472616e7366657220616d6f756e74206578636565647320616044820152676c6c6f77616e636560c01b6064820152608401610633565b6111968533858403612911565b506001949350505050565b601e81815481106111b157600080fd5b6000918252602090912060029091020180546001909101546001600160a01b03909116915082565b3360008181526001602090815260408083206001600160a01b0387168452909152812054909161095a918590611210908690613b05565b612911565b6060601e805480602002602001604051908101604052809291908181526020016000905b82821015611281576000848152602090819020604080518082019091526002850290910180546001600160a01b03168252600190810154828401529083529092019101611239565b50505050905090565b6060611294611566565b905090565b601c54604051336001600160a01b03909216828114926112bb92602001613b1d565b604051602081830303815290604052906112e85760405162461bcd60e51b81526004016106339190612f1f565b50601755565b601c54604051336001600160a01b039092168281149261131092602001613b1d565b6040516020818303038152906040529061133d5760405162461bcd60e51b81526004016106339190612f1f565b506113696040518060800160405280606081526020016060815260200160608152602001606081525090565b88888080601f016020809104026020016040519081016040528093929190818152602001838380828437600092019190915250505090825250604080516020601f890181900481028201810190925287815290889088908190840183828082843760009201919091525050505060208083019190915260408051601f870183900483028101830190915285815290869086908190840183828082843760009201919091525050505060408083019190915280516020601f85018190048102820181019092528381529084908490819084018382808284376000920191909152505050506060820152601d5460405163d107704d60e01b81526001600160a01b039091169063d107704d906114839084903090600401613be7565b600060405180830381600087803b15801561149d57600080fd5b505af11580156114b1573d6000803e3d6000fd5b506114c49250601291508b90508a612e04565b506114d160138888612e04565b506114de60148686612e04565b506114eb60158484612e04565b50505050505050505050565b601c54600160a81b900460ff16156115425760405162461bcd60e51b815260206004820152600e60248201526d105b1c9958591e481a5b9a5d195960921b6044820152606401610633565b601c805461ffff60a01b1933166001600160b01b031990911617600160a81b179055565b6060600980546105809061391d565b6060611294610571565b601c54600160a01b900460ff16156115ce5760405162461bcd60e51b8152602060048201526012602482015271105b1c9958591e4818dbdb999a59dd5c995960721b6044820152606401610633565b8151600a908155602080840151600b556040840151600c556060840151600d556080840151600e80546001600160a01b0319166001600160a01b0390921691909117905560a0840151805185939261162b92600f92910190612cf1565b5060c08201518051611647916006840191602090910190612cf1565b5060e08201518051611663916007840191602090910190612cf1565b5061010082015180518051600884019161168291839160200190612cf1565b50602082810151805161169b9260018501920190612cf1565b50604082015180516116b7916002840191602090910190612cf1565b50606082015180516116d3916003840191602090910190612cf1565b50505061012082015180516116f291600c840191602090910190612e78565b506101409190910151600d909101556080820151601c80546001600160a01b0319166001600160a01b039092169190911790558351611738906008906020870190612cf1565b50825161174c906009906020860190612cf1565b506010845110801561175f575060058351105b8015611770575060408260a0015151105b8015611781575060808260c0015151105b801561179357506101008260e0015151105b80156117a6575060058261012001515111155b6117f25760405162461bcd60e51b815260206004820152601e60248201527f546f6f206d616e792073796d627320696e20706172616d6574657228732900006044820152606401610633565b601d80546001600160a01b0319166001600160a01b038316908117909155608083015160405163d83c8bd360e01b815263d83c8bd391611839913091908790600401613c11565b600060405180830381600087803b15801561185357600080fd5b505af1158015611867573d6000803e3d6000fd5b5050601c805460ff60a01b1916600160a01b179055505050505050565b3360009081526001602090815260408083206001600160a01b0386168452909152812054828110156119065760405162461bcd60e51b815260206004820152602560248201527f45524332303a2064656372656173656420616c6c6f77616e63652062656c6f77604482015264207a65726f60d81b6064820152608401610633565b6119133385858403612911565b5060019392505050565b601a818154811061192d57600080fd5b60009182526020909120600390910201805460018201546002830180546001600160a01b0390931694509092916119639061391d565b80601f016020809104026020016040519081016040528092919081815260200182805461198f9061391d565b80156119dc5780601f106119b1576101008083540402835291602001916119dc565b820191906000526020600020905b8154815290600101906020018083116119bf57829003601f168201915b5050505050905083565b6040513360248201523060448201526064810182905260009081906001600160a01b0385169060840160408051601f198184030181529181526020820180516001600160e01b031663223f801f60e11b17905251611a449190613c3d565b600060405180830381855af49150503d8060008114611a7f576040519150601f19603f3d011682016040523d82523d6000602084013e611a84565b606091505b5091509150818190611aa95760405162461bcd60e51b81526004016106339190612f1f565b5060005b601e5460ff82161015611b4957601e8160ff1681548110611ad057611ad0613b64565b60009182526020909120600290910201546001600160a01b0386811691161415611b375783601e8260ff1681548110611b0b57611b0b613b64565b90600052602060002090600202016001016000828254611b2b9190613b05565b90915550505050505050565b80611b4181613c59565b915050611aad565b5050604080518082019091526001600160a01b03938416815260208101928352601e805460018101825560009190915290517f50bb669a95c7b50b7e8a6f09454034b2b14cf2b85c730dca9a539ca82cb6e350600290920291820180546001600160a01b031916919095161790935550517f50bb669a95c7b50b7e8a6f09454034b2b14cf2b85c730dca9a539ca82cb6e35190910155565b3360009081526020819052604081205482908110611c115760405162461bcd60e51b815260040161063390613958565b601d546040516323b3af8960e01b81526001600160a01b038681166004830152306024830152909116906323b3af8990604401600060405180830381600087803b158015611c5e57600080fd5b505af1158015611c72573d6000803e3d6000fd5b505050506111968484612c05565b606080611c8b612d75565b611c93610571565b611c9b611566565b6040805161016081018252600a80548252600b546020830152600c5492820192909252600d546060820152600e546001600160a01b03166080820152600f8054839160a0840191611ceb9061391d565b80601f0160208091040260200160405190810160405280929190818152602001828054611d179061391d565b8015611d645780601f10611d3957610100808354040283529160200191611d64565b820191906000526020600020905b815481529060010190602001808311611d4757829003601f168201915b50505050508152602001600682018054611d7d9061391d565b80601f0160208091040260200160405190810160405280929190818152602001828054611da99061391d565b8015611df65780601f10611dcb57610100808354040283529160200191611df6565b820191906000526020600020905b815481529060010190602001808311611dd957829003601f168201915b50505050508152602001600782018054611e0f9061391d565b80601f0160208091040260200160405190810160405280929190818152602001828054611e3b9061391d565b8015611e885780601f10611e5d57610100808354040283529160200191611e88565b820191906000526020600020905b815481529060010190602001808311611e6b57829003601f168201915b5050505050815260200160088201604051806080016040529081600082018054611eb19061391d565b80601f0160208091040260200160405190810160405280929190818152602001828054611edd9061391d565b8015611f2a5780601f10611eff57610100808354040283529160200191611f2a565b820191906000526020600020905b815481529060010190602001808311611f0d57829003601f168201915b50505050508152602001600182018054611f439061391d565b80601f0160208091040260200160405190810160405280929190818152602001828054611f6f9061391d565b8015611fbc5780601f10611f9157610100808354040283529160200191611fbc565b820191906000526020600020905b815481529060010190602001808311611f9f57829003601f168201915b50505050508152602001600282018054611fd59061391d565b80601f01602080910402602001604051908101604052809291908181526020018280546120019061391d565b801561204e5780601f106120235761010080835404028352916020019161204e565b820191906000526020600020905b81548152906001019060200180831161203157829003601f168201915b505050505081526020016003820180546120679061391d565b80601f01602080910402602001604051908101604052809291908181526020018280546120939061391d565b80156120e05780601f106120b5576101008083540402835291602001916120e0565b820191906000526020600020905b8154815290600101906020018083116120c357829003601f168201915b5050505050815250508152602001600c820180548060200260200160405190810160405280929190818152602001828054801561213c57602002820191906000526020600020905b815481526020019060010190808311612128575b50505050508152602001600d820154815250509050925092509250909192565b601c54604051336001600160a01b039092168281149261217e92602001613b1d565b604051602081830303815290604052906121ab5760405162461bcd60e51b81526004016106339190612f1f565b5080600581106121fd5760405162461bcd60e51b815260206004820152601b60248201527f4f6e6c792035206b6579732063616e2072656d6f7665206f6e636500000000006044820152606401610633565b60005b818110156122f5576000805b60165481101561226c5785858481811061222857612228613b64565b90506020020135600a600c01828154811061224557612245613b64565b9060005260206000200154141561225a578091505b8061226481613b7a565b91505061220c565b506016805461227d906001906139a5565b8154811061228d5761228d613b64565b9060005260206000200154600a600c0182815481106122ae576122ae613b64565b60009182526020909120015560168054806122cb576122cb613c79565b600190038181906000526020600020016000905590555080806122ed90613b7a565b915050612200565b50601d54604051638bcd065560e01b81526001600160a01b0390911690638bcd065590610ff290869086903090600401613b95565b6060600a600c018054806020026020016040519081016040528092919081815260200182805480156105f957602002820191906000526020600020905b815481526020019060010190808311612367575050505050905090565b33600090815260208190526040902054849081106123b45760405162461bcd60e51b815260040161063390613958565b6123c085858585610603565b60005b601e5460ff821610156124b7576000600a60000154601e8360ff16815481106123ee576123ee613b64565b9060005260206000209060020201600101548861240b9190613c8f565b6124159190613cae565b9050601e8260ff168154811061242d5761242d613b64565b6000918252602090912060029091020154604051630386f96960e11b81526001600160a01b039091169063070df2d2906124719084908a908a908a90600401613cc2565b600060405180830381600087803b15801561248b57600080fd5b505af115801561249f573d6000803e3d6000fd5b505050505080806124af90613c59565b9150506123c3565b505050505050565b60196020528160005260406000208181548110610eb457600080fd5b601c54604051336001600160a01b03909216828114926124fd92602001613b1d565b6040516020818303038152906040529061252a5760405162461bcd60e51b81526004016106339190612f1f565b50610100811061257c5760405162461bcd60e51b815260206004820152601c60248201527f494f552074657874206973206c6f6e672c206e656564203c20323536000000006044820152606401610633565b60006040518060600160405280866001600160a01b0316815260200142815260200184848080601f0160208091040260200160405190810160405280939291908181526020018383808284376000920182905250939094525050601a8054600181018255915282517f057c384a7d1c54f3a1b2e5e67b2617b8224fdfd1ea7234eea573a6ff665ff63e600390920291820180546001600160a01b0319166001600160a01b039092169190911781556020808501517f057c384a7d1c54f3a1b2e5e67b2617b8224fdfd1ea7234eea573a6ff665ff63f840155604085015180519596508695929450612692937f057c384a7d1c54f3a1b2e5e67b2617b8224fdfd1ea7234eea573a6ff665ff6400192910190612cf1565b5050506001600160a01b0385166000908152601b60205260409020601a546126bc906001906139a5565b815460018101835560009283526020909220909101556126dc8585612c12565b83600a60000160008282546126f19190613b05565b9091555050601d546040516323b3af8960e01b81526001600160a01b038781166004830152306024830152909116906323b3af8990604401600060405180830381600087803b15801561274357600080fd5b505af1158015612757573d6000803e3d6000fd5b505050505050505050565b601c54604051336001600160a01b039092168281149261278492602001613b1d565b604051602081830303815290604052906127b15760405162461bcd60e51b81526004016106339190612f1f565b506127be60118383612e04565b505050565b6001600160a01b0382166128235760405162461bcd60e51b815260206004820152602160248201527f45524332303a206275726e2066726f6d20746865207a65726f206164647265736044820152607360f81b6064820152608401610633565b6001600160a01b038216600090815260208190526040902054818110156128975760405162461bcd60e51b815260206004820152602260248201527f45524332303a206275726e20616d6f756e7420657863656564732062616c616e604482015261636560f01b6064820152608401610633565b6001600160a01b03831660009081526020819052604081208383039055600280548492906128c69084906139a5565b90915550506040518281526000906001600160a01b038516907fddf252ad1be2c89b69c2b068fc378daa952ba7f163c4a11628f55a4df523b3ef9060200160405180910390a3505050565b6001600160a01b0383166129735760405162461bcd60e51b8152602060048201526024808201527f45524332303a20617070726f76652066726f6d20746865207a65726f206164646044820152637265737360e01b6064820152608401610633565b6001600160a01b0382166129d45760405162461bcd60e51b815260206004820152602260248201527f45524332303a20617070726f766520746f20746865207a65726f206164647265604482015261737360f01b6064820152608401610633565b6001600160a01b0383811660008181526001602090815260408083209487168084529482529182902085905590518481527f8c5be1e5ebec7d5bd14f71427d1e84f3dd0314c0f7b2291e5b200ac8c7c3b925910160405180910390a3505050565b6001600160a01b038316612a995760405162461bcd60e51b815260206004820152602560248201527f45524332303a207472616e736665722066726f6d20746865207a65726f206164604482015264647265737360d81b6064820152608401610633565b6001600160a01b038216612afb5760405162461bcd60e51b815260206004820152602360248201527f45524332303a207472616e7366657220746f20746865207a65726f206164647260448201526265737360e81b6064820152608401610633565b6001600160a01b03831660009081526020819052604090205481811015612b735760405162461bcd60e51b815260206004820152602660248201527f45524332303a207472616e7366657220616d6f756e7420657863656564732062604482015265616c616e636560d01b6064820152608401610633565b6001600160a01b03808516600090815260208190526040808220858503905591851681529081208054849290612baa908490613b05565b92505081905550826001600160a01b0316846001600160a01b03167fddf252ad1be2c89b69c2b068fc378daa952ba7f163c4a11628f55a4df523b3ef84604051612bf691815260200190565b60405180910390a35b50505050565b600061095a338484612a35565b6001600160a01b038216612c685760405162461bcd60e51b815260206004820152601f60248201527f45524332303a206d696e7420746f20746865207a65726f2061646472657373006044820152606401610633565b8060026000828254612c7a9190613b05565b90915550506001600160a01b03821660009081526020819052604081208054839290612ca7908490613b05565b90915550506040518181526001600160a01b038316906000907fddf252ad1be2c89b69c2b068fc378daa952ba7f163c4a11628f55a4df523b3ef9060200160405180910390a35050565b828054612cfd9061391d565b90600052602060002090601f016020900481019282612d1f5760008555612d65565b82601f10612d3857805160ff1916838001178555612d65565b82800160010185558215612d65579182015b82811115612d65578251825591602001919060010190612d4a565b50612d71929150612eb2565b5090565b6040518061016001604052806000815260200160008152602001600081526020016000801916815260200160006001600160a01b03168152602001606081526020016060815260200160608152602001612df06040518060800160405280606081526020016060815260200160608152602001606081525090565b815260606020820152600060409091015290565b828054612e109061391d565b90600052602060002090601f016020900481019282612e325760008555612d65565b82601f10612e4b5782800160ff19823516178555612d65565b82800160010185558215612d65579182015b82811115612d65578235825591602001919060010190612e5d565b828054828255906000526020600020908101928215612d655791602002820182811115612d65578251825591602001919060010190612d4a565b5b80821115612d715760008155600101612eb3565b60005b83811015612ee2578181015183820152602001612eca565b83811115612bff5750506000910152565b60008151808452612f0b816020860160208601612ec7565b601f01601f19169290920160200192915050565b602081526000612f326020830184612ef3565b9392505050565b60008083601f840112612f4b57600080fd5b5081356001600160401b03811115612f6257600080fd5b602083019150836020828501011115612f7a57600080fd5b9250929050565b60008060008060608587031215612f9757600080fd5b843593506020850135925060408501356001600160401b03811115612fbb57600080fd5b612fc787828801612f39565b95989497509550505050565b80356001600160a01b0381168114612fea57600080fd5b919050565b60006020828403121561300157600080fd5b612f3282612fd3565b6000806040838503121561301d57600080fd5b61302683612fd3565b946020939093013593505050565b60008151608084526130496080850182612ef3565b9050602083015184820360208601526130628282612ef3565b9150506040830151848203604086015261307c8282612ef3565b915050606083015184820360608601526130968282612ef3565b95945050505050565b600081518084526020808501945080840160005b838110156130cf578151875295820195908201906001016130b3565b509495945050505050565b600061016082518452602083015160208501526040830151604085015260608301516060850152608083015161311b60808601826001600160a01b03169052565b5060a08301518160a086015261313382860182612ef3565b91505060c083015184820360c086015261314d8282612ef3565b91505060e083015184820360e08601526131678282612ef3565b91505061010080840151858303828701526131828382613034565b92505050610120808401518583038287015261319e838261309f565b61014095860151969095019590955250919392505050565b602081526000612f3260208301846130da565b600080602083850312156131dc57600080fd5b82356001600160401b03808211156131f357600080fd5b818501915085601f83011261320757600080fd5b81358181111561321657600080fd5b8660208260051b850101111561322b57600080fd5b60209290920196919550909350505050565b60006020828403121561324f57600080fd5b5035919050565b60018060a01b038616815284602082015283604082015282606082015260a06080820152600061328960a0830184612ef3565b979650505050505050565b6000806000606084860312156132a957600080fd5b6132b284612fd3565b92506132c060208501612fd3565b9150604084013590509250925092565b602080825282518282018190526000919060409081850190868401855b8281101561331b57815180516001600160a01b031685528601518685015292840192908501906001016132ed565b5091979650505050505050565b6000806000806000806000806080898b03121561334457600080fd5b88356001600160401b038082111561335b57600080fd5b6133678c838d01612f39565b909a50985060208b013591508082111561338057600080fd5b61338c8c838d01612f39565b909850965060408b01359150808211156133a557600080fd5b6133b18c838d01612f39565b909650945060608b01359150808211156133ca57600080fd5b506133d78b828c01612f39565b999c989b5096995094979396929594505050565b634e487b7160e01b600052604160045260246000fd5b604051608081016001600160401b0381118282101715613423576134236133eb565b60405290565b60405161016081016001600160401b0381118282101715613423576134236133eb565b604051601f8201601f191681016001600160401b0381118282101715613474576134746133eb565b604052919050565b600082601f83011261348d57600080fd5b81356001600160401b038111156134a6576134a66133eb565b6134b9601f8201601f191660200161344c565b8181528460208386010111156134ce57600080fd5b816020850160208301376000918101602001919091529392505050565b6000608082840312156134fd57600080fd5b613505613401565b905081356001600160401b038082111561351e57600080fd5b61352a8583860161347c565b8352602084013591508082111561354057600080fd5b61354c8583860161347c565b6020840152604084013591508082111561356557600080fd5b6135718583860161347c565b6040840152606084013591508082111561358a57600080fd5b506135978482850161347c565b60608301525092915050565b600082601f8301126135b457600080fd5b813560206001600160401b038211156135cf576135cf6133eb565b8160051b6135de82820161344c565b92835284810182019282810190878511156135f857600080fd5b83870192505b84831015613289578235825291830191908301906135fe565b6000806000806080858703121561362d57600080fd5b84356001600160401b038082111561364457600080fd5b6136508883890161347c565b9550602087013591508082111561366657600080fd5b6136728883890161347c565b9450604087013591508082111561368857600080fd5b90860190610160828903121561369d57600080fd5b6136a5613429565b823581526020830135602082015260408301356040820152606083013560608201526136d360808401612fd3565b608082015260a0830135828111156136ea57600080fd5b6136f68a82860161347c565b60a08301525060c08301358281111561370e57600080fd5b61371a8a82860161347c565b60c08301525060e08301358281111561373257600080fd5b61373e8a82860161347c565b60e083015250610100808401358381111561375857600080fd5b6137648b8287016134eb565b828401525050610120808401358381111561377e57600080fd5b61378a8b8287016135a3565b828401525050610140915081830135828201528094505050506137af60608601612fd3565b905092959194509250565b60018060a01b03841681528260208201526060604082015260006130966060830184612ef3565b6060815260006137f46060830186612ef3565b82810360208401526138068186612ef3565b9050828103604084015261381a81856130da565b9695505050505050565b6020808252825182820181905260009190848201906040850190845b8181101561385c57835183529284019291840191600101613840565b50909695505050505050565b6000806000806060858703121561387e57600080fd5b61388785612fd3565b93506020850135925060408501356001600160401b03811115612fbb57600080fd5b600080604083850312156138bc57600080fd5b6138c583612fd3565b91506138d360208401612fd3565b90509250929050565b600080602083850312156138ef57600080fd5b82356001600160401b0381111561390557600080fd5b61391185828601612f39565b90969095509350505050565b600181811c9082168061393157607f821691505b6020821081141561395257634e487b7160e01b600052602260045260246000fd5b50919050565b6020808252601a908201527f4e6f20616d6f756e7420746f6b656e20686f6c64657220686173000000000000604082015260600190565b634e487b7160e01b600052601160045260246000fd5b6000828210156139b7576139b761398f565b500390565b60006001600160ff1b03818413828413808216868404861116156139e2576139e261398f565b600160ff1b6000871282811687830589121615613a0157613a0161398f565b60008712925087820587128484161615613a1d57613a1d61398f565b87850587128184161615613a3357613a3361398f565b505050929093029392505050565b634e487b7160e01b600052601260045260246000fd5b600082613a6657613a66613a41565b600160ff1b821460001984141615613a8057613a8061398f565b500590565b60008083128015600160ff1b850184121615613aa357613aa361398f565b6001600160ff1b0384018313811615613abe57613abe61398f565b50500390565b600080821280156001600160ff1b0384900385131615613ae657613ae661398f565b600160ff1b8390038412811615613aff57613aff61398f565b50500190565b60008219821115613b1857613b1861398f565b500190565b6060808252601690820152754f6e6c79206f776e65722063616e20646f207468697360501b60808201526001600160a01b0392831660208201529116604082015260a00190565b634e487b7160e01b600052603260045260246000fd5b6000600019821415613b8e57613b8e61398f565b5060010190565b6040808252810183905260006001600160fb1b03841115613bb557600080fd5b8360051b8086606085013760009083016060019081526001600160a01b03939093166020909201919091525092915050565b604081526000613bfa6040830185613034565b905060018060a01b03831660208301529392505050565b6001600160a01b03848116825283166020820152606060408201819052600090613096908301846130da565b60008251613c4f818460208701612ec7565b9190910192915050565b600060ff821660ff811415613c7057613c7061398f565b60010192915050565b634e487b7160e01b600052603160045260246000fd5b6000816000190483118215151615613ca957613ca961398f565b500290565b600082613cbd57613cbd613a41565b500490565b84815283602082015260606040820152816060820152818360808301376000818301608090810191909152601f909201601f19160101939250505056fea26469706673582212200b7a6f0356659c7e22891540b72176478127b3b0d2047d8a9a89f18486240b9564736f6c634300080a0033",
  "immutableReferences": {},
  "source": "pragma solidity>= 0.8.0;\npragma experimental ABIEncoderV2;\nimport  \"./interfaces/iIOUtoken.sol\";\nimport \"./interfaces/iStoreIOUs.sol\";\nimport \"./ERC20.sol\";\n\n//import \"./MakeIOU.sol\";\n\n/*** IOU ecosystem\n*   The aim of IOU ecosystem is to give people proved fiat-free mutual settlements by issuing personal IOU tokens on Ethereum.\n*   \n*   1.Alice, the artist,  wants to get service from Bob, the barber but has no money. But she can issue ERC20 compatible IOU token  and fill this:\n*   name of the token (Alice Artist 2020)\n*   symbol of the token (AA01)\n*   description of service (Artist: logos, infographic, cartoons)\n*   location (New York)\n*   social profile in LinkedIn (or Facebook or  smth else)\n*   units (dollars, euros, hours, pictures)\n*   2. Alice negotiated the sum of her AA01 tokens,  transfers this to Bob, and get the beautiful hairstyle. And this deal fixes in the blockchain forever.\n*   3. Two-month later Bob asked her later for a cartoon about his hairdressing salon.\n*   4. After Alice made her job, Bob burns a part of  Alices IOU tokens and puts feedback, adding a rating of results.\n*   5. Later Bob pays with Alices AA01 tokens to Peter, the webmaster, who supports Bobs salon website. Peter looks for a fresh infographic for another project.\n*   6. Peter doesnt know Alice personally and he wants to check Alices reputation. He gets the history of Alices deals and looks feedbacks and rates, given to Alice. From another user s of IOU tokens, number of transactions and supply amount.\n*   7. If he decides that all ok, he approve the deal in Alice's IOU tokens.\n*   8. After Piter receives results, hi burned tokens and gives his feedback too.\n*/\n/// @author stanta\n/// @title IOUtoken\ncontract IOUData is ERC20 {\n     //ERC20 \n    mapping(address => uint256) private _balances;\n\n    mapping(address => mapping(address => uint256)) private _allowances;\n\n    uint256  _totalSupply;\n\n    string  _name;\n    string  _symbol;\n  \n \n   // bool registered;\n\n    iIOUtoken.DescriptionIOU  thisIOU;\n\n    iIOUtoken.FeedBack[] public allFeedbacks;\n    mapping (address => uint256[]) public feedBacksbySender; // feedback from tokenholders\n\n    iIOUtoken.IOU[] public allIOUs;\n    mapping (address => uint256[]) public IOUbyReceiver; // list of this IOUs by receiver\n\n    address owner;\n    bool configured;\n    bool inited;\n    iStoreIOUs store;\n    //mapping (address => uint) Tokenholders;\n //   address implementation;\n    struct Sureties {\n        address ioutoken;\n        uint256 amount;\n    }\n\n    Sureties[] public allSureties ;\n}\n\ncontract IOUtoken is IOUData, iIOUtoken  { \n\n     modifier onlyOwner() {\n        require (owner == msg.sender, string(abi.encode(\"Only owner can do this\", owner, msg.sender)));\n        _;\n    }\n\n    modifier nonConfiged () {\n        require(!configured, \"Already configured\");\n        _;\n        configured = true;\n\n    }\n\n    modifier nonInited () {\n        require(!inited, \"Already inited\");\n        _;\n        inited = true;\n\n    }\n\n    modifier onlyHolder (uint256 _amount) {\n        require (balanceOf(msg.sender) > _amount, \"No amount token holder has\" );\n    _;\n    }\n   \n    function initialize()  public nonInited override\n    {\n        owner = msg.sender;\n        configured = false;\n    }\n    function setIOU  (\n    //    constructor (\n                    string memory name_, \n                    string memory symbol_, \n                    DescriptionIOU memory _thisIOU,\n                    address _store\n)  public  nonConfiged /* override */ {\n        thisIOU = _thisIOU;\n        owner = _thisIOU.issuer;\n        _name = name_; \n        _symbol = symbol_;\n         require (bytes(name_).length <16 &&\n                    bytes(symbol_).length < 5 &&\n                    bytes(_thisIOU.myName).length < 64 &&\n                    bytes(_thisIOU.socialProfile).length < 128 &&\n                    bytes(_thisIOU.description).length < 256 &&\n                    _thisIOU.keywords.length <=5 , \n                    \"Too many symbs in parameter(s)\" ); \n    //todo add visibility?\n    store = iStoreIOUs(_store);\n            \n    store.addIOU1(address(this), _thisIOU.issuer, _thisIOU); //, _socialProfile, msg.sender, _keywords);\n        }\n\n    function setStore (address _newOwner) public onlyOwner {\n        store = iStoreIOUs(_newOwner);\n        \n    }   \n\n\n    function setOwner (address _newOwner) public onlyOwner {\n   //     _removeMinter(owner);\n        owner = _newOwner;\n  //      _addMinter(_newOwner);\n    }\n    \n\n    function mint (address _who, uint256 _amount, string calldata _descr) public onlyOwner { \n/*         if (!registered) {\n            StoreIOU.addIOU2(address(this), thisIOU.socialProfile, thisIOU.keywords);\n            registered = true; \n            } */\n        require (bytes(_descr).length <256, \"IOU text is long, need < 256\");\n        IOU memory bond = IOU (_who, block.timestamp, _descr);\n        allIOUs.push(bond);\n        IOUbyReceiver[_who].push(allIOUs.length-1);\n        _mint(_who, _amount);\n        thisIOU.totalMinted += _amount;\n        store.addHolder(_who, address(this)); \n        \n    }\n\n    function burn (uint256 _amount, int256 _rating, string calldata  _feedback) public onlyHolder (_amount) {\n        require (bytes(_feedback).length <256, \"Feedback is long, must be < 256\");\n\n        iIOUtoken.FeedBack memory feedback = iIOUtoken.FeedBack(msg.sender,block.timestamp, _rating, _amount, _feedback);\n        allFeedbacks.push(feedback);\n        feedBacksbySender[msg.sender].push(allFeedbacks.length-1);\n        \n        int256 deltaRate = _rating * int256(_amount) / int256 (balanceOf(msg.sender));\n\n        thisIOU.avRate = (thisIOU.avRate * (int256(allFeedbacks.length) -1) + \n                        deltaRate  * int256(allFeedbacks.length)) / int256(allFeedbacks.length);\n                        \n\n        thisIOU.totalBurned += _amount;\n        _burn(msg.sender, _amount);\n    }\n\n    function transfer(address _recipient, uint256 _amount) public override onlyHolder(_amount) returns (bool) {\n        store.addHolder(_recipient, address(this));\n        super.transfer(_recipient, _amount);\n        return true;\n    }\n\n    function editDescr (string calldata _descr)  public onlyOwner {\n        thisIOU.description = _descr;\n    }\n\n    function editPhone (bytes32 _phone)  public onlyOwner {\n        thisIOU.phone = _phone;\n    }\n\n    function editGeo (string calldata _country,\n                    string calldata _state,\n                    string calldata _city,\n                    string calldata _street)  public onlyOwner {\n        iIOUtoken.geo memory newloc;\n        newloc.country = _country;\n        newloc.state = _state;\n        newloc.city = _city;\n        newloc.street = _street;\n        store.changeIOUGeoAllkeys(newloc, address(this));\n        thisIOU.location.country = _country;\n        thisIOU.location.state = _state;\n        thisIOU.location.city = _city;\n        thisIOU.location.street = _street;\n    }\n\n\n    function addKeys (bytes32[] calldata _keys)  public onlyOwner {\n        uint addKeyLen = _keys.length;\n        require(addKeyLen < 5, \"Only 5 keys can add once\");\n        for (uint k=0; k<addKeyLen; k++) {\n            thisIOU.keywords.push(_keys[k]);\n        }\n        store.addKeys( _keys, address(this));  \n    }\n    function delKeys (bytes32[] calldata _keys)  public onlyOwner {\n        uint delKeyLen = _keys.length;       \n        require(delKeyLen < 5, \"Only 5 keys can remove once\");\n        // mark removing keys\n       // uint[5] memory keyMap;\n       \n       // uint km = 0;\n        for (uint dk=0; dk<delKeyLen; dk++) {\n            uint delkey;\n            for (uint kk=0; kk<thisIOU.keywords.length; kk++) {                \n                    if (thisIOU.keywords[kk] == _keys[dk]) {\n                        delkey = kk;                        \n                    }\n            }\n            // catch array \n            thisIOU.keywords[delkey] = thisIOU.keywords[thisIOU.keywords.length-1] ;\n            thisIOU.keywords.pop();\n    \n        }\n        \n        store.delKeys( _keys, address(this)); \n    }\n\n\n    function thisIOUkeywords() public view returns (bytes32[] memory)\n    {\n        return thisIOU.keywords;\n    }\n\n    function getlen ()  public view returns (uint256, uint256) {\n        return (allIOUs.length, allFeedbacks.length);\n    } \n\n    function thisIOUDesc () public view override returns (DescriptionIOU memory)\n    {    return thisIOU;\n    }\n    function IOUname () public view override returns (string memory)\n    {    return name();\n    }\n    function IOUsymbol () public view override returns (string memory)\n    {    return symbol ();\n    }\n\n\n    function getTokenInfo() public view returns(string memory,\n                                           string memory,\n                                           iIOUtoken.DescriptionIOU memory ) {\n        return(name(), symbol(), thisIOU);\n\n    }\n\n    function name() public view override returns (string memory) {\n        return _name;\n    }\n\n    function symbol() public view override returns (string memory) {\n        return _symbol;\n    }\n/**\n\nAlice, the artist, and designer with, a beautiful hairstyle, participates in a tender of Bob, the owner of several barbershops. She is young and ambitious but is a newbie in barbershops interior design. Bob doubts  Alice has enough experience and resources to  redesign all of his saloons. To ensure Bob of her ability,\n1. Alice emits for this project SureIOU tokens with amount, date & time of mature and asks her friends and partners for surety: photographer Phil, decorator Denniz, carpenter Calvin.\n1.1. Alice transfers them (to SuretyIOU contract?) her _own_ IOUs tokens (not this project SureIOU), equivalent in her amount of work, to ensure them that she will fullfill  her responsibilities to Bob.\n1.2. Phil, Dennis, and Calvin decide to support Alice with this project and transfer their IOUs to Alices SureIOU in the amount of work, they  pledge for Bobs project.\n2. Alice transfers SureIOU to Bobs security deposit,\n2.1. he sees all sureties of the project and decides to hire Alice,\n2.2. transfer prepay to her.\n3. Then Alice goes to suppliers of repair products and pays for their goods with this SureIOU tokens.\n4. When they successfully finished work, Bob pays them money (or his IOUs tokens) and\n5. Bob burns  SureIOUs provided by Alice.\n6. Alice pays\n6.1. to team their reward\n6.2. to supplier Stephan\n7. Final\n7.1. teammates  burn Alices IOUs and rate work win her\n7.2. Supplier Stephan  burn SureIOUs that he  holds too and rate this work too.\n\n8. If at maturity date & time this SureIOU doesn't burned by the client (holder of this SureIOU), he/she can get in proportion IOUs, deposited by sureties, and, if unsatisfied, set bad reputation marks to sureties/guarantees. So, Bob or suppliers can break the reputation of all team members.\n9. If Alice doesnt execute the agreement with the team, they can drop down her rating using her IOUs tokens (red lines)\n\n */\n\n function addSurety (address _iou, uint256 _amount) public {\n    \n    /// @notice 1.0 Alice asks her friends and partners for surety: photographer Phil, decorator Denniz, carpenter Calvin. 1.1. Alice transfers them (to SuretyIOU contract?) her _own_ IOUs tokens (not this project SureIOU), equivalent in her amount of work, to ensure them that she will fullfill  her responsibilities to Bob. 1.2. Phil, Dennis, and Calvin decide to support Alice with this project and transfer their IOUs to Alices SureIOU in the amount of work, they  pledge for Bobs project.\n    /// @dev TODO or delete\n    /// @param gets address of IOUtoken, sents as surety and amount of IOUtoken\n    /// @inheritdoc\tCopies all missing tags from the base function (must be followed by the contract name)\n    //delegatecall\n        (bool success, bytes memory result) = _iou.delegatecall(abi.encodeWithSignature(\"mint(address,uint256,string\", msg.sender, address(this), _amount));\n        require(success, string( result));\n        for (uint8 i; i<allSureties.length; i++) {\n            if (_iou == allSureties[i].ioutoken) {\n            allSureties[i].amount += _amount;\n            return; \n            }\n        }   \n        allSureties.push(Sureties(_iou, _amount));\n   }\n\n    function burnSurety (uint256 _amount, int256 _rating, string calldata _feedback) public onlyHolder(_amount) { //onlyOwner from IOU\n    /// @notice 4. When they successfully finished work, Bob pays them money (or his IOUs tokens) and 5. Bob burns  SureIOUs provided by Alice. 6. Alice pays 6.1. to  team their reward 6.2. to supplier Stephan  7. Final 7.1. teammates  burn Alices IOUs and rate work win her 7.2. Supplier Stephan  burn SureIOUs that he  holds too and rate this work too.\n    /// @dev all IOUtokens  on this contract have to be burned too\n    /// @param uint256 _amount - amount of surety/project token to burn\n    /// @inheritdoc\tCopies all missing tags from the base function (must be followed by the contract name)\n        burn (_amount, _rating, _feedback);\n        for (uint8 i; i<allSureties.length; i++) {\n            uint burnAmount = _amount * allSureties[i].amount/thisIOU.totalMinted;\n            IOUtoken(allSureties[i].ioutoken).burn(burnAmount, _rating, _feedback);\n        }\n    }\n\n   function payPenalty () public  {\n    /// @notice 8. If at maturity date & time this SureIOU doesn't burned by the client (holder of this SureIOU), he/she can get in proportion IOUs, deposited by sureties, and, if unsatisfied, set bad reputation marks to sureties/guarantees. So, Bob or suppliers can break the reputation of all team members.\n    /// @dev Explain to a developer any extra details\n\n    /// @inheritdoc\tCopies all missing tags from the base function (must be followed by the contract name)\n   }\n\n    function revokeSurety (address _iou) public {\n    /// @notice 9. If Alice doesnt execute the agreement with the team, they can drop down her rating using her IOUs tokens (red lines)\n    /// @dev \n    /// @inheritdoc\tCopies all missing tags from the base function (must be followed by the contract name)\n   }\n\n\n    function getAllSureties() public view returns( Sureties[] memory )  {\n        return allSureties;\n    }\n\n}\n",
  "sourcePath": "/512-2/dfd/iou2-1/contracts/IOUtoken.sol",
  "compiler": {
    "name": "solc",
    "version": "0.8.10+commit.fc410830.Emscripten.clang"
  },
  "schemaVersion": "3.4.6",
  "updatedAt": "2022-07-27T05:43:16.324Z",
  "devdoc": {
    "kind": "dev",
    "methods": {
      "allowance(address,address)": {
        "details": "See {IERC20-allowance}."
      },
      "approve(address,uint256)": {
        "details": "See {IERC20-approve}. Requirements: - `spender` cannot be the zero address."
      },
      "balanceOf(address)": {
        "details": "See {IERC20-balanceOf}."
      },
      "decimals()": {
        "details": "Returns the number of decimals used to get its user representation. For example, if `decimals` equals `2`, a balance of `505` tokens should be displayed to a user as `5.05` (`505 / 10 ** 2`). Tokens usually opt for a value of 18, imitating the relationship between Ether and Wei. This is the value {ERC20} uses, unless this function is overridden; NOTE: This information is only used for _display_ purposes: it in no way affects any of the arithmetic of the contract, including {IERC20-balanceOf} and {IERC20-transfer}."
      },
      "decreaseAllowance(address,uint256)": {
        "details": "Atomically decreases the allowance granted to `spender` by the caller. This is an alternative to {approve} that can be used as a mitigation for problems described in {IERC20-approve}. Emits an {Approval} event indicating the updated allowance. Requirements: - `spender` cannot be the zero address. - `spender` must have allowance for the caller of at least `subtractedValue`."
      },
      "increaseAllowance(address,uint256)": {
        "details": "Atomically increases the allowance granted to `spender` by the caller. This is an alternative to {approve} that can be used as a mitigation for problems described in {IERC20-approve}. Emits an {Approval} event indicating the updated allowance. Requirements: - `spender` cannot be the zero address."
      },
      "name()": {
        "details": "Returns the name of the token."
      },
      "symbol()": {
        "details": "Returns the symbol of the token, usually a shorter version of the name."
      },
      "totalSupply()": {
        "details": "See {IERC20-totalSupply}."
      },
      "transferFrom(address,address,uint256)": {
        "details": "See {IERC20-transferFrom}. Emits an {Approval} event indicating the updated allowance. This is not required by the EIP. See the note at the beginning of {ERC20}. Requirements: - `sender` and `recipient` cannot be the zero address. - `sender` must have a balance of at least `amount`. - the caller must have allowance for ``sender``'s tokens of at least `amount`."
      }
    },
    "version": 1
  },
  "userdoc": {
    "kind": "user",
    "methods": {
      "addSurety(address,uint256)": {
        "notice": "Alice, the artist, and designer with, a beautiful hairstyle, participates in a tender of Bob, the owner of several barbershops. She is young and ambitious but is a newbie in barbershops interior design. Bob doubts  Alice has enough experience and resources to  redesign all of his saloons. To ensure Bob of her ability, 1. Alice emits for this project SureIOU tokens with amount, date & time of mature and asks her friends and partners for surety: photographer Phil, decorator Denniz, carpenter Calvin. 1.1. Alice transfers them (to SuretyIOU contract?) her _own_ IOUs tokens (not this project SureIOU), equivalent in her amount of work, to ensure them that she will fullfill  her responsibilities to Bob. 1.2. Phil, Dennis, and Calvin decide to support Alice with this project and transfer their IOUs to Alices SureIOU in the amount of work, they  pledge for Bobs project. 2. Alice transfers SureIOU to Bobs security deposit, 2.1. he sees all sureties of the project and decides to hire Alice, 2.2. transfer prepay to her. 3. Then Alice goes to suppliers of repair products and pays for their goods with this SureIOU tokens. 4. When they successfully finished work, Bob pays them money (or his IOUs tokens) and 5. Bob burns  SureIOUs provided by Alice. 6. Alice pays 6.1. to team their reward 6.2. to supplier Stephan 7. Final 7.1. teammates  burn Alices IOUs and rate work win her 7.2. Supplier Stephan  burn SureIOUs that he  holds too and rate this work too. 8. If at maturity date & time this SureIOU doesn't burned by the client (holder of this SureIOU), he/she can get in proportion IOUs, deposited by sureties, and, if unsatisfied, set bad reputation marks to sureties/guarantees. So, Bob or suppliers can break the reputation of all team members. 9. If Alice doesnt execute the agreement with the team, they can drop down her rating using her IOUs tokens (red lines)"
      }
    },
    "version": 1
  }
}