{
  "contractName": "IOUtoken",
  "abi": [
    {
      "inputs": [
        {
          "internalType": "string",
          "name": "name_",
          "type": "string"
        },
        {
          "internalType": "string",
          "name": "symbol_",
          "type": "string"
        }
      ],
      "stateMutability": "nonpayable",
      "type": "constructor"
    },
    {
      "anonymous": false,
      "inputs": [
        {
          "indexed": true,
          "internalType": "address",
          "name": "owner",
          "type": "address"
        },
        {
          "indexed": true,
          "internalType": "address",
          "name": "spender",
          "type": "address"
        },
        {
          "indexed": false,
          "internalType": "uint256",
          "name": "value",
          "type": "uint256"
        }
      ],
      "name": "Approval",
      "type": "event"
    },
    {
      "anonymous": false,
      "inputs": [
        {
          "indexed": true,
          "internalType": "address",
          "name": "from",
          "type": "address"
        },
        {
          "indexed": true,
          "internalType": "address",
          "name": "to",
          "type": "address"
        },
        {
          "indexed": false,
          "internalType": "uint256",
          "name": "value",
          "type": "uint256"
        }
      ],
      "name": "Transfer",
      "type": "event"
    },
    {
      "inputs": [
        {
          "internalType": "address",
          "name": "",
          "type": "address"
        },
        {
          "internalType": "uint256",
          "name": "",
          "type": "uint256"
        }
      ],
      "name": "IOUbyReceiver",
      "outputs": [
        {
          "internalType": "uint256",
          "name": "",
          "type": "uint256"
        }
      ],
      "stateMutability": "view",
      "type": "function"
    },
    {
      "inputs": [
        {
          "internalType": "uint256",
          "name": "",
          "type": "uint256"
        }
      ],
      "name": "allFeedbacks",
      "outputs": [
        {
          "internalType": "address",
          "name": "sender",
          "type": "address"
        },
        {
          "internalType": "uint256",
          "name": "time",
          "type": "uint256"
        },
        {
          "internalType": "int256",
          "name": "rating",
          "type": "int256"
        },
        {
          "internalType": "string",
          "name": "text",
          "type": "string"
        }
      ],
      "stateMutability": "view",
      "type": "function"
    },
    {
      "inputs": [
        {
          "internalType": "uint256",
          "name": "",
          "type": "uint256"
        }
      ],
      "name": "allIOUs",
      "outputs": [
        {
          "internalType": "address",
          "name": "receiver",
          "type": "address"
        },
        {
          "internalType": "uint256",
          "name": "time",
          "type": "uint256"
        },
        {
          "internalType": "string",
          "name": "IOUDescr",
          "type": "string"
        }
      ],
      "stateMutability": "view",
      "type": "function"
    },
    {
      "inputs": [
        {
          "internalType": "address",
          "name": "owner",
          "type": "address"
        },
        {
          "internalType": "address",
          "name": "spender",
          "type": "address"
        }
      ],
      "name": "allowance",
      "outputs": [
        {
          "internalType": "uint256",
          "name": "",
          "type": "uint256"
        }
      ],
      "stateMutability": "view",
      "type": "function"
    },
    {
      "inputs": [
        {
          "internalType": "address",
          "name": "spender",
          "type": "address"
        },
        {
          "internalType": "uint256",
          "name": "amount",
          "type": "uint256"
        }
      ],
      "name": "approve",
      "outputs": [
        {
          "internalType": "bool",
          "name": "",
          "type": "bool"
        }
      ],
      "stateMutability": "nonpayable",
      "type": "function"
    },
    {
      "inputs": [
        {
          "internalType": "address",
          "name": "account",
          "type": "address"
        }
      ],
      "name": "balanceOf",
      "outputs": [
        {
          "internalType": "uint256",
          "name": "",
          "type": "uint256"
        }
      ],
      "stateMutability": "view",
      "type": "function"
    },
    {
      "inputs": [],
      "name": "decimals",
      "outputs": [
        {
          "internalType": "uint8",
          "name": "",
          "type": "uint8"
        }
      ],
      "stateMutability": "view",
      "type": "function"
    },
    {
      "inputs": [
        {
          "internalType": "address",
          "name": "spender",
          "type": "address"
        },
        {
          "internalType": "uint256",
          "name": "subtractedValue",
          "type": "uint256"
        }
      ],
      "name": "decreaseAllowance",
      "outputs": [
        {
          "internalType": "bool",
          "name": "",
          "type": "bool"
        }
      ],
      "stateMutability": "nonpayable",
      "type": "function"
    },
    {
      "inputs": [
        {
          "internalType": "address",
          "name": "",
          "type": "address"
        },
        {
          "internalType": "uint256",
          "name": "",
          "type": "uint256"
        }
      ],
      "name": "feedBacksbySender",
      "outputs": [
        {
          "internalType": "uint256",
          "name": "",
          "type": "uint256"
        }
      ],
      "stateMutability": "view",
      "type": "function"
    },
    {
      "inputs": [
        {
          "internalType": "address",
          "name": "spender",
          "type": "address"
        },
        {
          "internalType": "uint256",
          "name": "addedValue",
          "type": "uint256"
        }
      ],
      "name": "increaseAllowance",
      "outputs": [
        {
          "internalType": "bool",
          "name": "",
          "type": "bool"
        }
      ],
      "stateMutability": "nonpayable",
      "type": "function"
    },
    {
      "inputs": [],
      "name": "name",
      "outputs": [
        {
          "internalType": "string",
          "name": "",
          "type": "string"
        }
      ],
      "stateMutability": "view",
      "type": "function"
    },
    {
      "inputs": [],
      "name": "symbol",
      "outputs": [
        {
          "internalType": "string",
          "name": "",
          "type": "string"
        }
      ],
      "stateMutability": "view",
      "type": "function"
    },
    {
      "inputs": [],
      "name": "totalSupply",
      "outputs": [
        {
          "internalType": "uint256",
          "name": "",
          "type": "uint256"
        }
      ],
      "stateMutability": "view",
      "type": "function"
    },
    {
      "inputs": [
        {
          "internalType": "address",
          "name": "sender",
          "type": "address"
        },
        {
          "internalType": "address",
          "name": "recipient",
          "type": "address"
        },
        {
          "internalType": "uint256",
          "name": "amount",
          "type": "uint256"
        }
      ],
      "name": "transferFrom",
      "outputs": [
        {
          "internalType": "bool",
          "name": "",
          "type": "bool"
        }
      ],
      "stateMutability": "nonpayable",
      "type": "function"
    },
    {
      "inputs": [
        {
          "internalType": "string",
          "name": "_name",
          "type": "string"
        },
        {
          "internalType": "string",
          "name": "_symbol",
          "type": "string"
        },
        {
          "internalType": "string",
          "name": "_myName",
          "type": "string"
        },
        {
          "internalType": "string",
          "name": "_socialProfile",
          "type": "string"
        },
        {
          "internalType": "string",
          "name": "_description",
          "type": "string"
        },
        {
          "internalType": "string",
          "name": "_location",
          "type": "string"
        },
        {
          "internalType": "bytes32",
          "name": "_units",
          "type": "bytes32"
        },
        {
          "internalType": "bytes32[]",
          "name": "_keywords",
          "type": "bytes32[]"
        },
        {
          "internalType": "address",
          "name": "_storeAddr",
          "type": "address"
        },
        {
          "internalType": "address",
          "name": "_issuer",
          "type": "address"
        }
      ],
      "name": "setIOU",
      "outputs": [],
      "stateMutability": "nonpayable",
      "type": "function"
    },
    {
      "inputs": [],
      "name": "getTokenInfo",
      "outputs": [
        {
          "internalType": "string",
          "name": "",
          "type": "string"
        },
        {
          "internalType": "string",
          "name": "",
          "type": "string"
        },
        {
          "components": [
            {
              "internalType": "uint256",
              "name": "totalMinted",
              "type": "uint256"
            },
            {
              "internalType": "uint256",
              "name": "totalBurned",
              "type": "uint256"
            },
            {
              "internalType": "int256",
              "name": "avRate",
              "type": "int256"
            },
            {
              "internalType": "bytes32",
              "name": "units",
              "type": "bytes32"
            },
            {
              "internalType": "address",
              "name": "issuer",
              "type": "address"
            },
            {
              "internalType": "string",
              "name": "myName",
              "type": "string"
            },
            {
              "internalType": "string",
              "name": "socialProfile",
              "type": "string"
            },
            {
              "internalType": "string",
              "name": "description",
              "type": "string"
            },
            {
              "internalType": "string",
              "name": "location",
              "type": "string"
            },
            {
              "internalType": "bytes32[]",
              "name": "keywords",
              "type": "bytes32[]"
            }
          ],
          "internalType": "struct iIOUtoken.DescriptionIOU",
          "name": "",
          "type": "tuple"
        }
      ],
      "stateMutability": "view",
      "type": "function"
    },
    {
      "inputs": [
        {
          "internalType": "address",
          "name": "_newOwner",
          "type": "address"
        }
      ],
      "name": "setOwner",
      "outputs": [],
      "stateMutability": "nonpayable",
      "type": "function"
    },
    {
      "inputs": [
        {
          "internalType": "address",
          "name": "_newfactor",
          "type": "address"
        }
      ],
      "name": "setStore",
      "outputs": [],
      "stateMutability": "nonpayable",
      "type": "function"
    },
    {
      "inputs": [
        {
          "internalType": "address",
          "name": "_who",
          "type": "address"
        },
        {
          "internalType": "uint256",
          "name": "_amount",
          "type": "uint256"
        },
        {
          "internalType": "string",
          "name": "_descr",
          "type": "string"
        }
      ],
      "name": "mint",
      "outputs": [],
      "stateMutability": "nonpayable",
      "type": "function"
    },
    {
      "inputs": [
        {
          "internalType": "uint256",
          "name": "_amount",
          "type": "uint256"
        },
        {
          "internalType": "int256",
          "name": "_rating",
          "type": "int256"
        },
        {
          "internalType": "string",
          "name": "_feedback",
          "type": "string"
        }
      ],
      "name": "burn",
      "outputs": [],
      "stateMutability": "nonpayable",
      "type": "function"
    },
    {
      "inputs": [
        {
          "internalType": "address",
          "name": "_recipient",
          "type": "address"
        },
        {
          "internalType": "uint256",
          "name": "_amount",
          "type": "uint256"
        }
      ],
      "name": "transfer",
      "outputs": [
        {
          "internalType": "bool",
          "name": "",
          "type": "bool"
        }
      ],
      "stateMutability": "nonpayable",
      "type": "function"
    },
    {
      "inputs": [],
      "name": "thisIOUkeywords",
      "outputs": [
        {
          "internalType": "bytes32[]",
          "name": "",
          "type": "bytes32[]"
        }
      ],
      "stateMutability": "view",
      "type": "function"
    },
    {
      "inputs": [],
      "name": "getlen",
      "outputs": [
        {
          "internalType": "uint256",
          "name": "",
          "type": "uint256"
        },
        {
          "internalType": "uint256",
          "name": "",
          "type": "uint256"
        }
      ],
      "stateMutability": "view",
      "type": "function"
    },
    {
      "inputs": [],
      "name": "thisIOUDesc",
      "outputs": [
        {
          "components": [
            {
              "internalType": "uint256",
              "name": "totalMinted",
              "type": "uint256"
            },
            {
              "internalType": "uint256",
              "name": "totalBurned",
              "type": "uint256"
            },
            {
              "internalType": "int256",
              "name": "avRate",
              "type": "int256"
            },
            {
              "internalType": "bytes32",
              "name": "units",
              "type": "bytes32"
            },
            {
              "internalType": "address",
              "name": "issuer",
              "type": "address"
            },
            {
              "internalType": "string",
              "name": "myName",
              "type": "string"
            },
            {
              "internalType": "string",
              "name": "socialProfile",
              "type": "string"
            },
            {
              "internalType": "string",
              "name": "description",
              "type": "string"
            },
            {
              "internalType": "string",
              "name": "location",
              "type": "string"
            },
            {
              "internalType": "bytes32[]",
              "name": "keywords",
              "type": "bytes32[]"
            }
          ],
          "internalType": "struct iIOUtoken.DescriptionIOU",
          "name": "",
          "type": "tuple"
        }
      ],
      "stateMutability": "view",
      "type": "function"
    },
    {
      "inputs": [],
      "name": "IOUname",
      "outputs": [
        {
          "internalType": "string",
          "name": "",
          "type": "string"
        }
      ],
      "stateMutability": "view",
      "type": "function"
    },
    {
      "inputs": [],
      "name": "IOUsymbol",
      "outputs": [
        {
          "internalType": "string",
          "name": "",
          "type": "string"
        }
      ],
      "stateMutability": "view",
      "type": "function"
    }
  ],
  "bytecode": "0x60806040523480156200001157600080fd5b50604051620045a2380380620045a28339818101604052810190620000379190620001d8565b8181816003908051906020019062000051929190620000b6565b5080600490805190602001906200006a929190620000b6565b50505033601460006101000a81548173ffffffffffffffffffffffffffffffffffffffff021916908373ffffffffffffffffffffffffffffffffffffffff1602179055505050620003bb565b828054620000c490620002e0565b90600052602060002090601f016020900481019282620000e8576000855562000134565b82601f106200010357805160ff191683800117855562000134565b8280016001018555821562000134579182015b828111156200013357825182559160200191906001019062000116565b5b50905062000143919062000147565b5090565b5b808211156200016257600081600090555060010162000148565b5090565b60006200017d620001778462000274565b6200024b565b9050828152602081018484840111156200019657600080fd5b620001a3848285620002aa565b509392505050565b600082601f830112620001bd57600080fd5b8151620001cf84826020860162000166565b91505092915050565b60008060408385031215620001ec57600080fd5b600083015167ffffffffffffffff8111156200020757600080fd5b6200021585828601620001ab565b925050602083015167ffffffffffffffff8111156200023357600080fd5b6200024185828601620001ab565b9150509250929050565b6000620002576200026a565b905062000265828262000316565b919050565b6000604051905090565b600067ffffffffffffffff8211156200029257620002916200037b565b5b6200029d82620003aa565b9050602081019050919050565b60005b83811015620002ca578082015181840152602081019050620002ad565b83811115620002da576000848401525b50505050565b60006002820490506001821680620002f957607f821691505b6020821081141562000310576200030f6200034c565b5b50919050565b6200032182620003aa565b810181811067ffffffffffffffff821117156200034357620003426200037b565b5b80604052505050565b7f4e487b7100000000000000000000000000000000000000000000000000000000600052602260045260246000fd5b7f4e487b7100000000000000000000000000000000000000000000000000000000600052604160045260246000fd5b6000601f19601f8301169050919050565b6141d780620003cb6000396000f3fe608060405234801561001057600080fd5b506004361061018e5760003560e01c806370a08231116100de578063a69bac2411610097578063b251131411610071578063b2511314146104c9578063d25b1c6d146104e7578063d3fc986414610517578063dd62ed3e146105335761018e565b8063a69bac2414610447578063a9059cbb14610479578063abb1dc44146104a95761018e565b806370a08231146103705780637fdcf01f146103a05780638acc5612146103bf57806395d89b41146103db5780639ee09506146103f9578063a457c2d7146104175761018e565b806314fcf3151161014b57806323b872dd1161012557806323b872dd146102d4578063313ce56714610304578063395093511461032257806358aee270146103525761018e565b806314fcf3151461025357806318160ddd146102835780631bbb6e58146102a15761018e565b806306fdde0314610193578063070df2d2146101b1578063087cbd40146101cd578063095ea7b3146101e95780630a5763641461021957806313af403514610237575b600080fd5b61019b610563565b6040516101a891906133e3565b60405180910390f35b6101cb60048036038101906101c69190612c6f565b6105f5565b005b6101e760048036038101906101e2919061296c565b610884565b005b61020360048036038101906101fe9190612a20565b610958565b60405161021091906133c8565b60405180910390f35b610221610976565b60405161022e9190613651565b60405180910390f35b610251600480360381019061024c919061296c565b610caf565b005b61026d60048036038101906102689190612a20565b610d83565b60405161027a9190613673565b60405180910390f35b61028b610db4565b6040516102989190613673565b60405180910390f35b6102bb60048036038101906102b69190612c46565b610dbe565b6040516102cb949392919061331c565b60405180910390f35b6102ee60048036038101906102e991906129d1565b610ea6565b6040516102fb91906133c8565b60405180910390f35b61030c610f9e565b60405161031991906136b7565b60405180910390f35b61033c60048036038101906103379190612a20565b610fa7565b60405161034991906133c8565b60405180910390f35b61035a611053565b60405161036791906133e3565b60405180910390f35b61038a6004803603810190610385919061296c565b611062565b6040516103979190613673565b60405180910390f35b6103a86110aa565b6040516103b692919061368e565b60405180910390f35b6103d960048036038101906103d49190612ac3565b6110c1565b005b6103e36113d2565b6040516103f091906133e3565b60405180910390f35b610401611464565b60405161040e91906133e3565b60405180910390f35b610431600480360381019061042c9190612a20565b611473565b60405161043e91906133c8565b60405180910390f35b610461600480360381019061045c9190612c46565b61155e565b60405161047093929190613368565b60405180910390f35b610493600480360381019061048e9190612a20565b611640565b6040516104a091906133c8565b60405180910390f35b6104b16116e6565b6040516104c093929190613405565b60405180910390f35b6104d1611a3b565b6040516104de91906133a6565b60405180910390f35b61050160048036038101906104fc9190612a20565b611a96565b60405161050e9190613673565b60405180910390f35b610531600480360381019061052c9190612a5c565b611ac7565b005b61054d60048036038101906105489190612995565b611e67565b60405161055a9190613673565b60405180910390f35b60606003805461057290613bf5565b80601f016020809104026020016040519081016040528092919081815260200182805461059e90613bf5565b80156105eb5780601f106105c0576101008083540402835291602001916105eb565b820191906000526020600020905b8154815290600101906020018083116105ce57829003601f168201915b5050505050905090565b828061060033611062565b11610640576040517f08c379a0000000000000000000000000000000000000000000000000000000008152600401610637906134f1565b60405180910390fd5b610100825110610685576040517f08c379a000000000000000000000000000000000000000000000000000000000815260040161067c906135d1565b60405180910390fd5b600060405180608001604052803373ffffffffffffffffffffffffffffffffffffffff168152602001428152602001858152602001848152509050601081908060018154018082558091505060019003906000526020600020906004020160009091909190915060008201518160000160006101000a81548173ffffffffffffffffffffffffffffffffffffffff021916908373ffffffffffffffffffffffffffffffffffffffff160217905550602082015181600101556040820151816002015560608201518160030190805190602001906107639291906126a1565b505050601160003373ffffffffffffffffffffffffffffffffffffffff1673ffffffffffffffffffffffffffffffffffffffff16815260200190815260200160002060016010805490506107b79190613b0c565b908060018154018082558091505060019003906000526020600020016000909190919091505560006107e833611062565b86866107f49190613961565b6107fe91906138f7565b9050601080549050601080549050826108179190613961565b60016010805490506108299190613a78565b6006600201546108399190613961565b610843919061380d565b61084d91906138f7565b600660020181905550856006600101600082825461086b91906138a1565b9250508190555061087c3387611eee565b505050505050565b3373ffffffffffffffffffffffffffffffffffffffff16601460009054906101000a900473ffffffffffffffffffffffffffffffffffffffff1673ffffffffffffffffffffffffffffffffffffffff1614610914576040517f08c379a000000000000000000000000000000000000000000000000000000000815260040161090b906135b1565b60405180910390fd5b80600560006101000a81548173ffffffffffffffffffffffffffffffffffffffff021916908373ffffffffffffffffffffffffffffffffffffffff16021790555050565b600061096c6109656120c5565b84846120cd565b6001905092915050565b61097e612727565b600660405180610140016040529081600082015481526020016001820154815260200160028201548152602001600382015481526020016004820160009054906101000a900473ffffffffffffffffffffffffffffffffffffffff1673ffffffffffffffffffffffffffffffffffffffff1673ffffffffffffffffffffffffffffffffffffffff168152602001600582018054610a1a90613bf5565b80601f0160208091040260200160405190810160405280929190818152602001828054610a4690613bf5565b8015610a935780601f10610a6857610100808354040283529160200191610a93565b820191906000526020600020905b815481529060010190602001808311610a7657829003601f168201915b50505050508152602001600682018054610aac90613bf5565b80601f0160208091040260200160405190810160405280929190818152602001828054610ad890613bf5565b8015610b255780601f10610afa57610100808354040283529160200191610b25565b820191906000526020600020905b815481529060010190602001808311610b0857829003601f168201915b50505050508152602001600782018054610b3e90613bf5565b80601f0160208091040260200160405190810160405280929190818152602001828054610b6a90613bf5565b8015610bb75780601f10610b8c57610100808354040283529160200191610bb7565b820191906000526020600020905b815481529060010190602001808311610b9a57829003601f168201915b50505050508152602001600882018054610bd090613bf5565b80601f0160208091040260200160405190810160405280929190818152602001828054610bfc90613bf5565b8015610c495780601f10610c1e57610100808354040283529160200191610c49565b820191906000526020600020905b815481529060010190602001808311610c2c57829003601f168201915b5050505050815260200160098201805480602002602001604051908101604052809291908181526020018280548015610ca157602002820191906000526020600020905b815481526020019060010190808311610c8d575b505050505081525050905090565b3373ffffffffffffffffffffffffffffffffffffffff16601560009054906101000a900473ffffffffffffffffffffffffffffffffffffffff1673ffffffffffffffffffffffffffffffffffffffff1614610d3f576040517f08c379a0000000000000000000000000000000000000000000000000000000008152600401610d3690613511565b60405180910390fd5b80601560006101000a81548173ffffffffffffffffffffffffffffffffffffffff021916908373ffffffffffffffffffffffffffffffffffffffff16021790555050565b60136020528160005260406000208181548110610d9f57600080fd5b90600052602060002001600091509150505481565b6000600254905090565b60108181548110610dce57600080fd5b90600052602060002090600402016000915090508060000160009054906101000a900473ffffffffffffffffffffffffffffffffffffffff1690806001015490806002015490806003018054610e2390613bf5565b80601f0160208091040260200160405190810160405280929190818152602001828054610e4f90613bf5565b8015610e9c5780601f10610e7157610100808354040283529160200191610e9c565b820191906000526020600020905b815481529060010190602001808311610e7f57829003601f168201915b5050505050905084565b6000610eb3848484612298565b6000600160008673ffffffffffffffffffffffffffffffffffffffff1673ffffffffffffffffffffffffffffffffffffffff1681526020019081526020016000206000610efe6120c5565b73ffffffffffffffffffffffffffffffffffffffff1673ffffffffffffffffffffffffffffffffffffffff16815260200190815260200160002054905082811015610f7e576040517f08c379a0000000000000000000000000000000000000000000000000000000008152600401610f7590613531565b60405180910390fd5b610f9285610f8a6120c5565b8584036120cd565b60019150509392505050565b60006012905090565b6000611049610fb46120c5565b848460016000610fc26120c5565b73ffffffffffffffffffffffffffffffffffffffff1673ffffffffffffffffffffffffffffffffffffffff16815260200190815260200160002060008873ffffffffffffffffffffffffffffffffffffffff1673ffffffffffffffffffffffffffffffffffffffff1681526020019081526020016000205461104491906138a1565b6120cd565b6001905092915050565b606061105d6113d2565b905090565b60008060008373ffffffffffffffffffffffffffffffffffffffff1673ffffffffffffffffffffffffffffffffffffffff168152602001908152602001600020549050919050565b600080601280549050601080549050915091509091565b3373ffffffffffffffffffffffffffffffffffffffff16601460009054906101000a900473ffffffffffffffffffffffffffffffffffffffff1673ffffffffffffffffffffffffffffffffffffffff1614611151576040517f08c379a0000000000000000000000000000000000000000000000000000000008152600401611148906135b1565b60405180910390fd5b80601560006101000a81548173ffffffffffffffffffffffffffffffffffffffff021916908373ffffffffffffffffffffffffffffffffffffffff16021790555081600560006101000a81548173ffffffffffffffffffffffffffffffffffffffff021916908373ffffffffffffffffffffffffffffffffffffffff16021790555060108a5110806111e45750600a8951105b806111f0575060408851105b806111fc575060808751105b80611208575060808651105b80611214575060808551105b8061122157506005835111155b611260576040517f08c379a000000000000000000000000000000000000000000000000000000000815260040161125790613451565b60405180910390fd5b6040518061014001604052806000815260200160008152602001600081526020018581526020018273ffffffffffffffffffffffffffffffffffffffff1681526020018981526020018881526020018781526020018681526020018481525060066000820151816000015560208201518160010155604082015181600201556060820151816003015560808201518160040160006101000a81548173ffffffffffffffffffffffffffffffffffffffff021916908373ffffffffffffffffffffffffffffffffffffffff16021790555060a082015181600501908051906020019061134c9291906126a1565b5060c08201518160060190805190602001906113699291906126a1565b5060e08201518160070190805190602001906113869291906126a1565b506101008201518160080190805190602001906113a49291906126a1565b506101208201518160090190805190602001906113c2929190612793565b5090505050505050505050505050565b6060600480546113e190613bf5565b80601f016020809104026020016040519081016040528092919081815260200182805461140d90613bf5565b801561145a5780601f1061142f5761010080835404028352916020019161145a565b820191906000526020600020905b81548152906001019060200180831161143d57829003601f168201915b5050505050905090565b606061146e610563565b905090565b600080600160006114826120c5565b73ffffffffffffffffffffffffffffffffffffffff1673ffffffffffffffffffffffffffffffffffffffff16815260200190815260200160002060008573ffffffffffffffffffffffffffffffffffffffff1673ffffffffffffffffffffffffffffffffffffffff1681526020019081526020016000205490508281101561153f576040517f08c379a000000000000000000000000000000000000000000000000000000000815260040161153690613611565b60405180910390fd5b61155361154a6120c5565b858584036120cd565b600191505092915050565b6012818154811061156e57600080fd5b90600052602060002090600302016000915090508060000160009054906101000a900473ffffffffffffffffffffffffffffffffffffffff16908060010154908060020180546115bd90613bf5565b80601f01602080910402602001604051908101604052809291908181526020018280546115e990613bf5565b80156116365780601f1061160b57610100808354040283529160200191611636565b820191906000526020600020905b81548152906001019060200180831161161957829003601f168201915b5050505050905083565b6000600560009054906101000a900473ffffffffffffffffffffffffffffffffffffffff1673ffffffffffffffffffffffffffffffffffffffff166323b3af8984306040518363ffffffff1660e01b815260040161169f9291906132ae565b600060405180830381600087803b1580156116b957600080fd5b505af11580156116cd573d6000803e3d6000fd5b505050506116db8383612519565b506001905092915050565b6060806116f1612727565b6116f9610563565b6117016113d2565b60068060405180610140016040529081600082015481526020016001820154815260200160028201548152602001600382015481526020016004820160009054906101000a900473ffffffffffffffffffffffffffffffffffffffff1673ffffffffffffffffffffffffffffffffffffffff1673ffffffffffffffffffffffffffffffffffffffff16815260200160058201805461179e90613bf5565b80601f01602080910402602001604051908101604052809291908181526020018280546117ca90613bf5565b80156118175780601f106117ec57610100808354040283529160200191611817565b820191906000526020600020905b8154815290600101906020018083116117fa57829003601f168201915b5050505050815260200160068201805461183090613bf5565b80601f016020809104026020016040519081016040528092919081815260200182805461185c90613bf5565b80156118a95780601f1061187e576101008083540402835291602001916118a9565b820191906000526020600020905b81548152906001019060200180831161188c57829003601f168201915b505050505081526020016007820180546118c290613bf5565b80601f01602080910402602001604051908101604052809291908181526020018280546118ee90613bf5565b801561193b5780601f106119105761010080835404028352916020019161193b565b820191906000526020600020905b81548152906001019060200180831161191e57829003601f168201915b5050505050815260200160088201805461195490613bf5565b80601f016020809104026020016040519081016040528092919081815260200182805461198090613bf5565b80156119cd5780601f106119a2576101008083540402835291602001916119cd565b820191906000526020600020905b8154815290600101906020018083116119b057829003601f168201915b5050505050815260200160098201805480602002602001604051908101604052809291908181526020018280548015611a2557602002820191906000526020600020905b815481526020019060010190808311611a11575b5050505050815250509050925092509250909192565b60606006600901805480602002602001604051908101604052809291908181526020018280548015611a8c57602002820191906000526020600020905b815481526020019060010190808311611a78575b5050505050905090565b60116020528160005260406000208181548110611ab257600080fd5b90600052602060002001600091509150505481565b3373ffffffffffffffffffffffffffffffffffffffff16601560009054906101000a900473ffffffffffffffffffffffffffffffffffffffff1673ffffffffffffffffffffffffffffffffffffffff1614611b57576040517f08c379a0000000000000000000000000000000000000000000000000000000008152600401611b4e90613511565b60405180910390fd5b600560149054906101000a900460ff16611c1f57600560009054906101000a900473ffffffffffffffffffffffffffffffffffffffff1673ffffffffffffffffffffffffffffffffffffffff166338a10485306006800160066009016040518463ffffffff1660e01b8152600401611bd1939291906132d7565b600060405180830381600087803b158015611beb57600080fd5b505af1158015611bff573d6000803e3d6000fd5b505050506001600560146101000a81548160ff0219169083151502179055505b610100815110611c64576040517f08c379a0000000000000000000000000000000000000000000000000000000008152600401611c5b90613591565b60405180910390fd5b600060405180606001604052808573ffffffffffffffffffffffffffffffffffffffff168152602001428152602001838152509050601281908060018154018082558091505060019003906000526020600020906003020160009091909190915060008201518160000160006101000a81548173ffffffffffffffffffffffffffffffffffffffff021916908373ffffffffffffffffffffffffffffffffffffffff160217905550602082015181600101556040820151816002019080519060200190611d329291906126a1565b505050601360008573ffffffffffffffffffffffffffffffffffffffff1673ffffffffffffffffffffffffffffffffffffffff1681526020019081526020016000206001601280549050611d869190613b0c565b9080600181540180825580915050600190039060005260206000200160009091909190915055611db68484612537565b8260066000016000828254611dcb91906138a1565b92505081905550600560009054906101000a900473ffffffffffffffffffffffffffffffffffffffff1673ffffffffffffffffffffffffffffffffffffffff166323b3af8985306040518363ffffffff1660e01b8152600401611e2f9291906132ae565b600060405180830381600087803b158015611e4957600080fd5b505af1158015611e5d573d6000803e3d6000fd5b5050505050505050565b6000600160008473ffffffffffffffffffffffffffffffffffffffff1673ffffffffffffffffffffffffffffffffffffffff16815260200190815260200160002060008373ffffffffffffffffffffffffffffffffffffffff1673ffffffffffffffffffffffffffffffffffffffff16815260200190815260200160002054905092915050565b600073ffffffffffffffffffffffffffffffffffffffff168273ffffffffffffffffffffffffffffffffffffffff161415611f5e576040517f08c379a0000000000000000000000000000000000000000000000000000000008152600401611f5590613551565b60405180910390fd5b611f6a82600083612697565b60008060008473ffffffffffffffffffffffffffffffffffffffff1673ffffffffffffffffffffffffffffffffffffffff16815260200190815260200160002054905081811015611ff0576040517f08c379a0000000000000000000000000000000000000000000000000000000008152600401611fe790613491565b60405180910390fd5b8181036000808573ffffffffffffffffffffffffffffffffffffffff1673ffffffffffffffffffffffffffffffffffffffff1681526020019081526020016000208190555081600260008282546120479190613b0c565b92505081905550600073ffffffffffffffffffffffffffffffffffffffff168373ffffffffffffffffffffffffffffffffffffffff167fddf252ad1be2c89b69c2b068fc378daa952ba7f163c4a11628f55a4df523b3ef846040516120ac9190613673565b60405180910390a36120c08360008461269c565b505050565b600033905090565b600073ffffffffffffffffffffffffffffffffffffffff168373ffffffffffffffffffffffffffffffffffffffff16141561213d576040517f08c379a0000000000000000000000000000000000000000000000000000000008152600401612134906135f1565b60405180910390fd5b600073ffffffffffffffffffffffffffffffffffffffff168273ffffffffffffffffffffffffffffffffffffffff1614156121ad576040517f08c379a00000000000000000000000000000000000000000000000000000000081526004016121a4906134b1565b60405180910390fd5b80600160008573ffffffffffffffffffffffffffffffffffffffff1673ffffffffffffffffffffffffffffffffffffffff16815260200190815260200160002060008473ffffffffffffffffffffffffffffffffffffffff1673ffffffffffffffffffffffffffffffffffffffff168152602001908152602001600020819055508173ffffffffffffffffffffffffffffffffffffffff168373ffffffffffffffffffffffffffffffffffffffff167f8c5be1e5ebec7d5bd14f71427d1e84f3dd0314c0f7b2291e5b200ac8c7c3b9258360405161228b9190613673565b60405180910390a3505050565b600073ffffffffffffffffffffffffffffffffffffffff168373ffffffffffffffffffffffffffffffffffffffff161415612308576040517f08c379a00000000000000000000000000000000000000000000000000000000081526004016122ff90613571565b60405180910390fd5b600073ffffffffffffffffffffffffffffffffffffffff168273ffffffffffffffffffffffffffffffffffffffff161415612378576040517f08c379a000000000000000000000000000000000000000000000000000000000815260040161236f90613471565b60405180910390fd5b612383838383612697565b60008060008573ffffffffffffffffffffffffffffffffffffffff1673ffffffffffffffffffffffffffffffffffffffff16815260200190815260200160002054905081811015612409576040517f08c379a0000000000000000000000000000000000000000000000000000000008152600401612400906134d1565b60405180910390fd5b8181036000808673ffffffffffffffffffffffffffffffffffffffff1673ffffffffffffffffffffffffffffffffffffffff16815260200190815260200160002081905550816000808573ffffffffffffffffffffffffffffffffffffffff1673ffffffffffffffffffffffffffffffffffffffff168152602001908152602001600020600082825461249c91906138a1565b925050819055508273ffffffffffffffffffffffffffffffffffffffff168473ffffffffffffffffffffffffffffffffffffffff167fddf252ad1be2c89b69c2b068fc378daa952ba7f163c4a11628f55a4df523b3ef846040516125009190613673565b60405180910390a361251384848461269c565b50505050565b600061252d6125266120c5565b8484612298565b6001905092915050565b600073ffffffffffffffffffffffffffffffffffffffff168273ffffffffffffffffffffffffffffffffffffffff1614156125a7576040517f08c379a000000000000000000000000000000000000000000000000000000000815260040161259e90613631565b60405180910390fd5b6125b360008383612697565b80600260008282546125c591906138a1565b92505081905550806000808473ffffffffffffffffffffffffffffffffffffffff1673ffffffffffffffffffffffffffffffffffffffff168152602001908152602001600020600082825461261a91906138a1565b925050819055508173ffffffffffffffffffffffffffffffffffffffff16600073ffffffffffffffffffffffffffffffffffffffff167fddf252ad1be2c89b69c2b068fc378daa952ba7f163c4a11628f55a4df523b3ef8360405161267f9190613673565b60405180910390a36126936000838361269c565b5050565b505050565b505050565b8280546126ad90613bf5565b90600052602060002090601f0160209004810192826126cf5760008555612716565b82601f106126e857805160ff1916838001178555612716565b82800160010185558215612716579182015b828111156127155782518255916020019190600101906126fa565b5b50905061272391906127e0565b5090565b60405180610140016040528060008152602001600081526020016000815260200160008019168152602001600073ffffffffffffffffffffffffffffffffffffffff16815260200160608152602001606081526020016060815260200160608152602001606081525090565b8280548282559060005260206000209081019282156127cf579160200282015b828111156127ce5782518255916020019190600101906127b3565b5b5090506127dc91906127fd565b5090565b5b808211156127f95760008160009055506001016127e1565b5090565b5b808211156128165760008160009055506001016127fe565b5090565b600061282d612828846136f7565b6136d2565b9050808382526020820190508285602086028201111561284c57600080fd5b60005b8581101561287c57816128628882612903565b84526020840193506020830192505060018101905061284f565b5050509392505050565b600061289961289484613723565b6136d2565b9050828152602081018484840111156128b157600080fd5b6128bc848285613bb3565b509392505050565b6000813590506128d381614145565b92915050565b600082601f8301126128ea57600080fd5b81356128fa84826020860161281a565b91505092915050565b6000813590506129128161415c565b92915050565b60008135905061292781614173565b92915050565b600082601f83011261293e57600080fd5b813561294e848260208601612886565b91505092915050565b6000813590506129668161418a565b92915050565b60006020828403121561297e57600080fd5b600061298c848285016128c4565b91505092915050565b600080604083850312156129a857600080fd5b60006129b6858286016128c4565b92505060206129c7858286016128c4565b9150509250929050565b6000806000606084860312156129e657600080fd5b60006129f4868287016128c4565b9350506020612a05868287016128c4565b9250506040612a1686828701612957565b9150509250925092565b60008060408385031215612a3357600080fd5b6000612a41858286016128c4565b9250506020612a5285828601612957565b9150509250929050565b600080600060608486031215612a7157600080fd5b6000612a7f868287016128c4565b9350506020612a9086828701612957565b925050604084013567ffffffffffffffff811115612aad57600080fd5b612ab98682870161292d565b9150509250925092565b6000806000806000806000806000806101408b8d031215612ae357600080fd5b60008b013567ffffffffffffffff811115612afd57600080fd5b612b098d828e0161292d565b9a505060208b013567ffffffffffffffff811115612b2657600080fd5b612b328d828e0161292d565b99505060408b013567ffffffffffffffff811115612b4f57600080fd5b612b5b8d828e0161292d565b98505060608b013567ffffffffffffffff811115612b7857600080fd5b612b848d828e0161292d565b97505060808b013567ffffffffffffffff811115612ba157600080fd5b612bad8d828e0161292d565b96505060a08b013567ffffffffffffffff811115612bca57600080fd5b612bd68d828e0161292d565b95505060c0612be78d828e01612903565b94505060e08b013567ffffffffffffffff811115612c0457600080fd5b612c108d828e016128d9565b935050610100612c228d828e016128c4565b925050610120612c348d828e016128c4565b9150509295989b9194979a5092959850565b600060208284031215612c5857600080fd5b6000612c6684828501612957565b91505092915050565b600080600060608486031215612c8457600080fd5b6000612c9286828701612957565b9350506020612ca386828701612918565b925050604084013567ffffffffffffffff811115612cc057600080fd5b612ccc8682870161292d565b9150509250925092565b6000612ce28383612e3c565b60208301905092915050565b612cf781613b4a565b82525050565b612d0681613b4a565b82525050565b6000612d178261378e565b612d2181856137c9565b9350612d2c83613754565b8060005b83811015612d5d578151612d448882612cd6565b9750612d4f836137af565b925050600181019050612d30565b5085935050505092915050565b6000612d758261378e565b612d7f81856137da565b9350612d8a83613754565b8060005b83811015612dbb578151612da28882612cd6565b9750612dad836137af565b925050600181019050612d8e565b5085935050505092915050565b6000612dd382613799565b612ddd81856137da565b9350612de883613764565b8060005b83811015612e2057612dfd82613d2e565b612e078882612cd6565b9750612e12836137bc565b925050600181019050612dec565b5085935050505092915050565b612e3681613b5c565b82525050565b612e4581613b68565b82525050565b612e5481613b72565b82525050565b612e6381613b72565b82525050565b6000612e74826137a4565b612e7e81856137eb565b9350612e8e818560208601613bc2565b612e9781613d41565b840191505092915050565b6000612ead826137a4565b612eb781856137fc565b9350612ec7818560208601613bc2565b612ed081613d41565b840191505092915050565b60008154612ee881613bf5565b612ef281866137fc565b94506001821660008114612f0d5760018114612f1f57612f52565b60ff1983168652602086019350612f52565b612f2885613779565b60005b83811015612f4a57815481890152600182019150602081019050612f2b565b808801955050505b50505092915050565b6000612f68601b836137fc565b9150612f7382613d5f565b602082019050919050565b6000612f8b6023836137fc565b9150612f9682613d88565b604082019050919050565b6000612fae6022836137fc565b9150612fb982613dd7565b604082019050919050565b6000612fd16022836137fc565b9150612fdc82613e26565b604082019050919050565b6000612ff46026836137fc565b9150612fff82613e75565b604082019050919050565b6000613017601a836137fc565b915061302282613ec4565b602082019050919050565b600061303a6016836137fc565b915061304582613eed565b602082019050919050565b600061305d6028836137fc565b915061306882613f16565b604082019050919050565b60006130806021836137fc565b915061308b82613f65565b604082019050919050565b60006130a36025836137fc565b91506130ae82613fb4565b604082019050919050565b60006130c6601c836137fc565b91506130d182614003565b602082019050919050565b60006130e96018836137fc565b91506130f48261402c565b602082019050919050565b600061310c601f836137fc565b915061311782614055565b602082019050919050565b600061312f6024836137fc565b915061313a8261407e565b604082019050919050565b60006131526025836137fc565b915061315d826140cd565b604082019050919050565b6000613175601f836137fc565b91506131808261411c565b602082019050919050565b6000610140830160008301516131a46000860182613281565b5060208301516131b76020860182613281565b5060408301516131ca6040860182612e4b565b5060608301516131dd6060860182612e3c565b5060808301516131f06080860182612cee565b5060a083015184820360a08601526132088282612e69565b91505060c083015184820360c08601526132228282612e69565b91505060e083015184820360e086015261323c8282612e69565b9150506101008301518482036101008601526132588282612e69565b9150506101208301518482036101208601526132748282612d0c565b9150508091505092915050565b61328a81613b9c565b82525050565b61329981613b9c565b82525050565b6132a881613ba6565b82525050565b60006040820190506132c36000830185612cfd565b6132d06020830184612cfd565b9392505050565b60006060820190506132ec6000830186612cfd565b81810360208301526132fe8185612edb565b905081810360408301526133128184612dc8565b9050949350505050565b60006080820190506133316000830187612cfd565b61333e6020830186613290565b61334b6040830185612e5a565b818103606083015261335d8184612ea2565b905095945050505050565b600060608201905061337d6000830186612cfd565b61338a6020830185613290565b818103604083015261339c8184612ea2565b9050949350505050565b600060208201905081810360008301526133c08184612d6a565b905092915050565b60006020820190506133dd6000830184612e2d565b92915050565b600060208201905081810360008301526133fd8184612ea2565b905092915050565b6000606082019050818103600083015261341f8186612ea2565b905081810360208301526134338185612ea2565b90508181036040830152613447818461318b565b9050949350505050565b6000602082019050818103600083015261346a81612f5b565b9050919050565b6000602082019050818103600083015261348a81612f7e565b9050919050565b600060208201905081810360008301526134aa81612fa1565b9050919050565b600060208201905081810360008301526134ca81612fc4565b9050919050565b600060208201905081810360008301526134ea81612fe7565b9050919050565b6000602082019050818103600083015261350a8161300a565b9050919050565b6000602082019050818103600083015261352a8161302d565b9050919050565b6000602082019050818103600083015261354a81613050565b9050919050565b6000602082019050818103600083015261356a81613073565b9050919050565b6000602082019050818103600083015261358a81613096565b9050919050565b600060208201905081810360008301526135aa816130b9565b9050919050565b600060208201905081810360008301526135ca816130dc565b9050919050565b600060208201905081810360008301526135ea816130ff565b9050919050565b6000602082019050818103600083015261360a81613122565b9050919050565b6000602082019050818103600083015261362a81613145565b9050919050565b6000602082019050818103600083015261364a81613168565b9050919050565b6000602082019050818103600083015261366b818461318b565b905092915050565b60006020820190506136886000830184613290565b92915050565b60006040820190506136a36000830185613290565b6136b06020830184613290565b9392505050565b60006020820190506136cc600083018461329f565b92915050565b60006136dc6136ed565b90506136e88282613c41565b919050565b6000604051905090565b600067ffffffffffffffff82111561371257613711613cff565b5b602082029050602081019050919050565b600067ffffffffffffffff82111561373e5761373d613cff565b5b61374782613d41565b9050602081019050919050565b6000819050602082019050919050565b60008190508160005260206000209050919050565b60008190508160005260206000209050919050565b600081519050919050565b600081549050919050565b600081519050919050565b6000602082019050919050565b6000600182019050919050565b600082825260208201905092915050565b600082825260208201905092915050565b600082825260208201905092915050565b600082825260208201905092915050565b600061381882613b72565b915061382383613b72565b9250817f7fffffffffffffffffffffffffffffffffffffffffffffffffffffffffffffff0383136000831215161561385e5761385d613c72565b5b817f800000000000000000000000000000000000000000000000000000000000000003831260008312161561389657613895613c72565b5b828201905092915050565b60006138ac82613b9c565b91506138b783613b9c565b9250827fffffffffffffffffffffffffffffffffffffffffffffffffffffffffffffffff038211156138ec576138eb613c72565b5b828201905092915050565b600061390282613b72565b915061390d83613b72565b92508261391d5761391c613ca1565b5b600160000383147f80000000000000000000000000000000000000000000000000000000000000008314161561395657613955613c72565b5b828205905092915050565b600061396c82613b72565b915061397783613b72565b9250827f7fffffffffffffffffffffffffffffffffffffffffffffffffffffffffffffff04821160008413600084131616156139b6576139b5613c72565b5b817f800000000000000000000000000000000000000000000000000000000000000005831260008412600084131616156139f3576139f2613c72565b5b827f80000000000000000000000000000000000000000000000000000000000000000582126000841360008412161615613a3057613a2f613c72565b5b827f7fffffffffffffffffffffffffffffffffffffffffffffffffffffffffffffff0582126000841260008412161615613a6d57613a6c613c72565b5b828202905092915050565b6000613a8382613b72565b9150613a8e83613b72565b9250827f800000000000000000000000000000000000000000000000000000000000000001821260008412151615613ac957613ac8613c72565b5b827f7fffffffffffffffffffffffffffffffffffffffffffffffffffffffffffffff018213600084121615613b0157613b00613c72565b5b828203905092915050565b6000613b1782613b9c565b9150613b2283613b9c565b925082821015613b3557613b34613c72565b5b828203905092915050565b6000819050919050565b6000613b5582613b7c565b9050919050565b60008115159050919050565b6000819050919050565b6000819050919050565b600073ffffffffffffffffffffffffffffffffffffffff82169050919050565b6000819050919050565b600060ff82169050919050565b82818337600083830152505050565b60005b83811015613be0578082015181840152602081019050613bc5565b83811115613bef576000848401525b50505050565b60006002820490506001821680613c0d57607f821691505b60208210811415613c2157613c20613cd0565b5b50919050565b6000613c3a613c3583613d52565b613b40565b9050919050565b613c4a82613d41565b810181811067ffffffffffffffff82111715613c6957613c68613cff565b5b80604052505050565b7f4e487b7100000000000000000000000000000000000000000000000000000000600052601160045260246000fd5b7f4e487b7100000000000000000000000000000000000000000000000000000000600052601260045260246000fd5b7f4e487b7100000000000000000000000000000000000000000000000000000000600052602260045260246000fd5b7f4e487b7100000000000000000000000000000000000000000000000000000000600052604160045260246000fd5b6000613d3a8254613c27565b9050919050565b6000601f19601f8301169050919050565b60008160001c9050919050565b7f546f6f206d616e792073796d627320696e20706172616d657465720000000000600082015250565b7f45524332303a207472616e7366657220746f20746865207a65726f206164647260008201527f6573730000000000000000000000000000000000000000000000000000000000602082015250565b7f45524332303a206275726e20616d6f756e7420657863656564732062616c616e60008201527f6365000000000000000000000000000000000000000000000000000000000000602082015250565b7f45524332303a20617070726f766520746f20746865207a65726f20616464726560008201527f7373000000000000000000000000000000000000000000000000000000000000602082015250565b7f45524332303a207472616e7366657220616d6f756e742065786365656473206260008201527f616c616e63650000000000000000000000000000000000000000000000000000602082015250565b7f4e6f20616d6f756e7420746f6b656e20686f6c64657220686173000000000000600082015250565b7f4f6e6c79206f776e65722063616e20646f207468697300000000000000000000600082015250565b7f45524332303a207472616e7366657220616d6f756e742065786365656473206160008201527f6c6c6f77616e6365000000000000000000000000000000000000000000000000602082015250565b7f45524332303a206275726e2066726f6d20746865207a65726f2061646472657360008201527f7300000000000000000000000000000000000000000000000000000000000000602082015250565b7f45524332303a207472616e736665722066726f6d20746865207a65726f20616460008201527f6472657373000000000000000000000000000000000000000000000000000000602082015250565b7f494f552074657874206973206c6f6e672c206e656564203c2032353600000000600082015250565b7f4f6e6c7920666163746f72792063616e20646f20746869730000000000000000600082015250565b7f466565646261636b206973206c6f6e672c206d757374206265203c2032353600600082015250565b7f45524332303a20617070726f76652066726f6d20746865207a65726f2061646460008201527f7265737300000000000000000000000000000000000000000000000000000000602082015250565b7f45524332303a2064656372656173656420616c6c6f77616e63652062656c6f7760008201527f207a65726f000000000000000000000000000000000000000000000000000000602082015250565b7f45524332303a206d696e7420746f20746865207a65726f206164647265737300600082015250565b61414e81613b4a565b811461415957600080fd5b50565b61416581613b68565b811461417057600080fd5b50565b61417c81613b72565b811461418757600080fd5b50565b61419381613b9c565b811461419e57600080fd5b5056fea2646970667358221220ddbee84f0e7b5c2cd7d2aaf1c3c5a02d0828ce4d6ed72d221c48c677ebfab29264736f6c63430008040033",
  "immutableReferences": {},
  "source": "pragma solidity>= 0.8.0;\npragma experimental ABIEncoderV2;\nimport \"@openzeppelin/contracts/token/ERC20/ERC20.sol\";\nimport \"./StoreIOUs.sol\";\nimport  \"./interfaces/iIOUtoken.sol\";\n\n/*** IOU ecosystem\n*   The aim of IOU ecosystem is to give people proved fiat-free mutual settlements by issuing personal IOU tokens on Ethereum.\n*   \n*   1.Alice, the artist,  wants to get service from Bob, the barber but has no money. But she can issue ERC20 compatible IOU token  and fill this:\n*   name of the token (Alice Artist 2020)\n*   symbol of the token (AA01)\n*   description of service (Artist: logos, infographic, cartoons)\n*   location (New York)\n*   social profile in LinkedIn (or Facebook or  smth else)\n*   units (dollars, euros, hours, pictures)\n*   2. Alice negotiated the sum of her AA01 tokens,  transfers this to Bob, and get the beautiful hairstyle. And this deal fixes in the blockchain forever.\n*   3. Two-month later Bob asked her later for a cartoon about his hairdressing salon.\n*   4. After Alice made her job, Bob burns a part of  Alices IOU tokens and puts feedback, adding a rating of results.\n*   5. Later Bob pays with Alices AA01 tokens to Peter, the webmaster, who supports Bobs salon website. Peter looks for a fresh infographic for another project.\n*   6. Peter doesnt know Alice personally and he wants to check Alices reputation. He gets the history of Alices deals and looks feedbacks and rates, given to Alice. From another user s of IOU tokens, number of transactions and supply amount.\n*   7. If he decides that all ok, he approve the deal in Alice's IOU tokens.\n*   8. After Piter receives results, hi burned tokens and gives his feedback too.\n*/\n/// @author stanta\n/// @title IOUtoken\ncontract IOUtoken is iIOUtoken, ERC20 {\n\n  \n    StoreIOUs StoreIOU;\n \n    bool registered;\n\n    DescriptionIOU  thisIOU;\n\n    FeedBack[] public allFeedbacks;\n    mapping (address => uint256[]) public feedBacksbySender; // feedback from tokenholders\n\n    IOU[] public allIOUs;\n    mapping (address => uint256[]) public IOUbyReceiver; // list of this IOUs by receiver\n\n    address factory;\n    address owner;\n    //mapping (address => uint) Tokenholders;\n\n    constructor (string memory name_, string memory symbol_)  ERC20 (name_, symbol_) {\n        factory = msg.sender;\n    }\n    modifier onlyfactory() {\n        require (factory == msg.sender, \"Only factory can do this\");\n        _;\n    }\n\n    modifier onlyOwner() {\n        require (owner == msg.sender, \"Only owner can do this\");\n        _;\n    }\n\n    function setIOU (string memory _name, \n                 string memory _symbol,  \n                 string memory _myName, // of emitter\n                 string memory _socialProfile, //profile  of emitter in social nets\n                 string memory _description, //description of bond IOU to  work\n                 string memory _location, //where is \n                 bytes32  _units, //units of deal\n                 bytes32[] memory _keywords,\n                 address _storeAddr,\n                 address _issuer\n                ) public onlyfactory {\n/*         _removeMinter(msg.sender);\n        _addMinter (_issuer); */\n        \n        owner = _issuer;\n        StoreIOU = StoreIOUs(_storeAddr);\n        require (bytes(_name).length <16 || \n                bytes(_symbol).length < 10 ||\n                bytes(_myName).length < 64 ||\n                bytes(_socialProfile).length < 128 ||\n                bytes(_description).length < 128 ||\n                bytes(_location).length < 128 ||\n                _keywords.length <=5 , \n                \"Too many symbs in parameter\" );\n\n        thisIOU = iIOUtoken.DescriptionIOU (0,0,0,\n            _units,\n            _issuer,\n            _myName,\n            _socialProfile,\n            _description,\n            _location,\n            _keywords\n           \n        );  //todo add visibility?\n\n    }\n    \n\n    function getTokenInfo() public view returns(string memory,\n                                           string memory,\n                                           iIOUtoken.DescriptionIOU memory ) {\n        return(name(), symbol(), thisIOU);\n\n    }\n\n    function setOwner (address _newOwner) public onlyOwner {\n   //     _removeMinter(owner);\n        owner = _newOwner;\n  //      _addMinter(_newOwner);\n    }\n\n    function setStore (address _newfactor) public onlyfactory {\n        StoreIOU = StoreIOUs(_newfactor);\n        \n    }   \n    \n    modifier onlyHolder (uint256 _amount) {\n        require (balanceOf(msg.sender) > _amount, \"No amount token holder has\" );\n    _;\n    }\n\n    function mint (address _who, uint256 _amount, string memory _descr) public onlyOwner { \n        if (!registered) {\n            StoreIOU.addIOU2(address(this), thisIOU.socialProfile, thisIOU.keywords);\n            registered = true; \n            }\n        require (bytes(_descr).length <256, \"IOU text is long, need < 256\");\n        IOU memory bond = IOU (_who, block.timestamp, _descr);\n        allIOUs.push(bond);\n        IOUbyReceiver[_who].push(allIOUs.length-1);\n        _mint(_who, _amount);\n        thisIOU.totalMinted += _amount;\n        StoreIOU.addHolder(_who, address(this));\n        \n    }\n\n    function burn (uint256 _amount, int256 _rating, string memory _feedback) public onlyHolder (_amount) {\n        require (bytes(_feedback).length <256, \"Feedback is long, must be < 256\");\n\n        iIOUtoken.FeedBack memory feedback = iIOUtoken.FeedBack(msg.sender,block.timestamp, _rating, _feedback);\n        allFeedbacks.push(feedback);\n        feedBacksbySender[msg.sender].push(allFeedbacks.length-1);\n        \n        int256 deltaRate = _rating * int256(_amount) / int256 (balanceOf(msg.sender));\n\n        thisIOU.avRate = (thisIOU.avRate * (int256(allFeedbacks.length) -1) + \n                        deltaRate  * int256(allFeedbacks.length)) / int256(allFeedbacks.length);\n                        \n\n        thisIOU.totalBurned += _amount;\n        _burn(msg.sender, _amount);\n    }\n\n    function transfer(address _recipient, uint256 _amount) public override returns (bool) {\n        StoreIOU.addHolder(_recipient, address(this));\n        super.transfer(_recipient, _amount);\n        return true;\n    }\n\n    function thisIOUkeywords() public view returns (bytes32[] memory)\n    {\n        return thisIOU.keywords;\n    }\n\n    function getlen ()  public view returns (uint256, uint256) {\n        return (allIOUs.length, allFeedbacks.length);\n    } \n\n    function thisIOUDesc () public view override returns (DescriptionIOU memory)\n    {    return thisIOU;\n    }\n    function IOUname () public view override returns (string memory)\n    {    return name();\n    }\n    function IOUsymbol () public view override returns (string memory)\n    {    return symbol ();\n    }\n}\n",
  "sourcePath": "/home/st/Desktop/iou-components/contracts/IOUtoken.sol",
  "compiler": {
    "name": "solc",
    "version": "0.8.4+commit.c7e474f2.Emscripten.clang"
  },
  "schemaVersion": "3.4.0",
  "updatedAt": "2021-07-27T13:38:34.214Z",
  "devdoc": {
    "author": "stanta",
    "kind": "dev",
    "methods": {
      "allowance(address,address)": {
        "details": "See {IERC20-allowance}."
      },
      "approve(address,uint256)": {
        "details": "See {IERC20-approve}. Requirements: - `spender` cannot be the zero address."
      },
      "balanceOf(address)": {
        "details": "See {IERC20-balanceOf}."
      },
      "decimals()": {
        "details": "Returns the number of decimals used to get its user representation. For example, if `decimals` equals `2`, a balance of `505` tokens should be displayed to a user as `5,05` (`505 / 10 ** 2`). Tokens usually opt for a value of 18, imitating the relationship between Ether and Wei. This is the value {ERC20} uses, unless this function is overridden; NOTE: This information is only used for _display_ purposes: it in no way affects any of the arithmetic of the contract, including {IERC20-balanceOf} and {IERC20-transfer}."
      },
      "decreaseAllowance(address,uint256)": {
        "details": "Atomically decreases the allowance granted to `spender` by the caller. This is an alternative to {approve} that can be used as a mitigation for problems described in {IERC20-approve}. Emits an {Approval} event indicating the updated allowance. Requirements: - `spender` cannot be the zero address. - `spender` must have allowance for the caller of at least `subtractedValue`."
      },
      "increaseAllowance(address,uint256)": {
        "details": "Atomically increases the allowance granted to `spender` by the caller. This is an alternative to {approve} that can be used as a mitigation for problems described in {IERC20-approve}. Emits an {Approval} event indicating the updated allowance. Requirements: - `spender` cannot be the zero address."
      },
      "name()": {
        "details": "Returns the name of the token."
      },
      "symbol()": {
        "details": "Returns the symbol of the token, usually a shorter version of the name."
      },
      "totalSupply()": {
        "details": "See {IERC20-totalSupply}."
      },
      "transferFrom(address,address,uint256)": {
        "details": "See {IERC20-transferFrom}. Emits an {Approval} event indicating the updated allowance. This is not required by the EIP. See the note at the beginning of {ERC20}. Requirements: - `sender` and `recipient` cannot be the zero address. - `sender` must have a balance of at least `amount`. - the caller must have allowance for ``sender``'s tokens of at least `amount`."
      }
    },
    "title": "IOUtoken",
    "version": 1
  },
  "userdoc": {
    "kind": "user",
    "methods": {},
    "version": 1
  }
}