{
  "contractName": "IOUtoken",
  "abi": [
    {
      "anonymous": false,
      "inputs": [
        {
          "indexed": true,
          "internalType": "address",
          "name": "owner",
          "type": "address"
        },
        {
          "indexed": true,
          "internalType": "address",
          "name": "spender",
          "type": "address"
        },
        {
          "indexed": false,
          "internalType": "uint256",
          "name": "value",
          "type": "uint256"
        }
      ],
      "name": "Approval",
      "type": "event"
    },
    {
      "anonymous": false,
      "inputs": [
        {
          "indexed": true,
          "internalType": "address",
          "name": "from",
          "type": "address"
        },
        {
          "indexed": true,
          "internalType": "address",
          "name": "to",
          "type": "address"
        },
        {
          "indexed": false,
          "internalType": "uint256",
          "name": "value",
          "type": "uint256"
        }
      ],
      "name": "Transfer",
      "type": "event"
    },
    {
      "inputs": [
        {
          "internalType": "address",
          "name": "",
          "type": "address"
        },
        {
          "internalType": "uint256",
          "name": "",
          "type": "uint256"
        }
      ],
      "name": "IOUbyReceiver",
      "outputs": [
        {
          "internalType": "uint256",
          "name": "",
          "type": "uint256"
        }
      ],
      "stateMutability": "view",
      "type": "function",
      "constant": true
    },
    {
      "inputs": [
        {
          "internalType": "uint256",
          "name": "",
          "type": "uint256"
        }
      ],
      "name": "allFeedbacks",
      "outputs": [
        {
          "internalType": "address",
          "name": "sender",
          "type": "address"
        },
        {
          "internalType": "uint256",
          "name": "time",
          "type": "uint256"
        },
        {
          "internalType": "int256",
          "name": "rating",
          "type": "int256"
        },
        {
          "internalType": "uint256",
          "name": "amount",
          "type": "uint256"
        },
        {
          "internalType": "string",
          "name": "text",
          "type": "string"
        }
      ],
      "stateMutability": "view",
      "type": "function",
      "constant": true
    },
    {
      "inputs": [
        {
          "internalType": "uint256",
          "name": "",
          "type": "uint256"
        }
      ],
      "name": "allIOUs",
      "outputs": [
        {
          "internalType": "address",
          "name": "receiver",
          "type": "address"
        },
        {
          "internalType": "uint256",
          "name": "time",
          "type": "uint256"
        },
        {
          "internalType": "string",
          "name": "IOUDescr",
          "type": "string"
        }
      ],
      "stateMutability": "view",
      "type": "function",
      "constant": true
    },
    {
      "inputs": [
        {
          "internalType": "address",
          "name": "owner",
          "type": "address"
        },
        {
          "internalType": "address",
          "name": "spender",
          "type": "address"
        }
      ],
      "name": "allowance",
      "outputs": [
        {
          "internalType": "uint256",
          "name": "",
          "type": "uint256"
        }
      ],
      "stateMutability": "view",
      "type": "function",
      "constant": true
    },
    {
      "inputs": [
        {
          "internalType": "address",
          "name": "spender",
          "type": "address"
        },
        {
          "internalType": "uint256",
          "name": "amount",
          "type": "uint256"
        }
      ],
      "name": "approve",
      "outputs": [
        {
          "internalType": "bool",
          "name": "",
          "type": "bool"
        }
      ],
      "stateMutability": "nonpayable",
      "type": "function"
    },
    {
      "inputs": [
        {
          "internalType": "address",
          "name": "account",
          "type": "address"
        }
      ],
      "name": "balanceOf",
      "outputs": [
        {
          "internalType": "uint256",
          "name": "",
          "type": "uint256"
        }
      ],
      "stateMutability": "view",
      "type": "function",
      "constant": true
    },
    {
      "inputs": [],
      "name": "decimals",
      "outputs": [
        {
          "internalType": "uint8",
          "name": "",
          "type": "uint8"
        }
      ],
      "stateMutability": "view",
      "type": "function",
      "constant": true
    },
    {
      "inputs": [
        {
          "internalType": "address",
          "name": "spender",
          "type": "address"
        },
        {
          "internalType": "uint256",
          "name": "subtractedValue",
          "type": "uint256"
        }
      ],
      "name": "decreaseAllowance",
      "outputs": [
        {
          "internalType": "bool",
          "name": "",
          "type": "bool"
        }
      ],
      "stateMutability": "nonpayable",
      "type": "function"
    },
    {
      "inputs": [
        {
          "internalType": "address",
          "name": "",
          "type": "address"
        },
        {
          "internalType": "uint256",
          "name": "",
          "type": "uint256"
        }
      ],
      "name": "feedBacksbySender",
      "outputs": [
        {
          "internalType": "uint256",
          "name": "",
          "type": "uint256"
        }
      ],
      "stateMutability": "view",
      "type": "function",
      "constant": true
    },
    {
      "inputs": [
        {
          "internalType": "address",
          "name": "spender",
          "type": "address"
        },
        {
          "internalType": "uint256",
          "name": "addedValue",
          "type": "uint256"
        }
      ],
      "name": "increaseAllowance",
      "outputs": [
        {
          "internalType": "bool",
          "name": "",
          "type": "bool"
        }
      ],
      "stateMutability": "nonpayable",
      "type": "function"
    },
    {
      "inputs": [],
      "name": "name",
      "outputs": [
        {
          "internalType": "string",
          "name": "",
          "type": "string"
        }
      ],
      "stateMutability": "view",
      "type": "function",
      "constant": true
    },
    {
      "inputs": [],
      "name": "symbol",
      "outputs": [
        {
          "internalType": "string",
          "name": "",
          "type": "string"
        }
      ],
      "stateMutability": "view",
      "type": "function",
      "constant": true
    },
    {
      "inputs": [],
      "name": "totalSupply",
      "outputs": [
        {
          "internalType": "uint256",
          "name": "",
          "type": "uint256"
        }
      ],
      "stateMutability": "view",
      "type": "function",
      "constant": true
    },
    {
      "inputs": [
        {
          "internalType": "address",
          "name": "sender",
          "type": "address"
        },
        {
          "internalType": "address",
          "name": "recipient",
          "type": "address"
        },
        {
          "internalType": "uint256",
          "name": "amount",
          "type": "uint256"
        }
      ],
      "name": "transferFrom",
      "outputs": [
        {
          "internalType": "bool",
          "name": "",
          "type": "bool"
        }
      ],
      "stateMutability": "nonpayable",
      "type": "function"
    },
    {
      "inputs": [],
      "name": "initialize",
      "outputs": [],
      "stateMutability": "nonpayable",
      "type": "function"
    },
    {
      "inputs": [
        {
          "internalType": "string",
          "name": "name_",
          "type": "string"
        },
        {
          "internalType": "string",
          "name": "symbol_",
          "type": "string"
        },
        {
          "components": [
            {
              "internalType": "uint256",
              "name": "totalMinted",
              "type": "uint256"
            },
            {
              "internalType": "uint256",
              "name": "totalBurned",
              "type": "uint256"
            },
            {
              "internalType": "int256",
              "name": "avRate",
              "type": "int256"
            },
            {
              "internalType": "bytes32",
              "name": "units",
              "type": "bytes32"
            },
            {
              "internalType": "address",
              "name": "issuer",
              "type": "address"
            },
            {
              "internalType": "string",
              "name": "myName",
              "type": "string"
            },
            {
              "internalType": "string",
              "name": "socialProfile",
              "type": "string"
            },
            {
              "internalType": "string",
              "name": "description",
              "type": "string"
            },
            {
              "components": [
                {
                  "internalType": "string",
                  "name": "country",
                  "type": "string"
                },
                {
                  "internalType": "string",
                  "name": "state",
                  "type": "string"
                },
                {
                  "internalType": "string",
                  "name": "city",
                  "type": "string"
                },
                {
                  "internalType": "string",
                  "name": "street",
                  "type": "string"
                }
              ],
              "internalType": "struct iIOUtoken.geo",
              "name": "location",
              "type": "tuple"
            },
            {
              "internalType": "bytes32[]",
              "name": "keywords",
              "type": "bytes32[]"
            },
            {
              "internalType": "bytes32",
              "name": "phone",
              "type": "bytes32"
            }
          ],
          "internalType": "struct iIOUtoken.DescriptionIOU",
          "name": "_thisIOU",
          "type": "tuple"
        },
        {
          "internalType": "address",
          "name": "_store",
          "type": "address"
        }
      ],
      "name": "setIOU",
      "outputs": [],
      "stateMutability": "nonpayable",
      "type": "function"
    },
    {
      "inputs": [
        {
          "internalType": "address",
          "name": "_newOwner",
          "type": "address"
        }
      ],
      "name": "setStore",
      "outputs": [],
      "stateMutability": "nonpayable",
      "type": "function"
    },
    {
      "inputs": [],
      "name": "getTokenInfo",
      "outputs": [
        {
          "internalType": "string",
          "name": "",
          "type": "string"
        },
        {
          "internalType": "string",
          "name": "",
          "type": "string"
        },
        {
          "components": [
            {
              "internalType": "uint256",
              "name": "totalMinted",
              "type": "uint256"
            },
            {
              "internalType": "uint256",
              "name": "totalBurned",
              "type": "uint256"
            },
            {
              "internalType": "int256",
              "name": "avRate",
              "type": "int256"
            },
            {
              "internalType": "bytes32",
              "name": "units",
              "type": "bytes32"
            },
            {
              "internalType": "address",
              "name": "issuer",
              "type": "address"
            },
            {
              "internalType": "string",
              "name": "myName",
              "type": "string"
            },
            {
              "internalType": "string",
              "name": "socialProfile",
              "type": "string"
            },
            {
              "internalType": "string",
              "name": "description",
              "type": "string"
            },
            {
              "components": [
                {
                  "internalType": "string",
                  "name": "country",
                  "type": "string"
                },
                {
                  "internalType": "string",
                  "name": "state",
                  "type": "string"
                },
                {
                  "internalType": "string",
                  "name": "city",
                  "type": "string"
                },
                {
                  "internalType": "string",
                  "name": "street",
                  "type": "string"
                }
              ],
              "internalType": "struct iIOUtoken.geo",
              "name": "location",
              "type": "tuple"
            },
            {
              "internalType": "bytes32[]",
              "name": "keywords",
              "type": "bytes32[]"
            },
            {
              "internalType": "bytes32",
              "name": "phone",
              "type": "bytes32"
            }
          ],
          "internalType": "struct iIOUtoken.DescriptionIOU",
          "name": "",
          "type": "tuple"
        }
      ],
      "stateMutability": "view",
      "type": "function",
      "constant": true
    },
    {
      "inputs": [
        {
          "internalType": "address",
          "name": "_newOwner",
          "type": "address"
        }
      ],
      "name": "setOwner",
      "outputs": [],
      "stateMutability": "nonpayable",
      "type": "function"
    },
    {
      "inputs": [
        {
          "internalType": "address",
          "name": "_who",
          "type": "address"
        },
        {
          "internalType": "uint256",
          "name": "_amount",
          "type": "uint256"
        },
        {
          "internalType": "string",
          "name": "_descr",
          "type": "string"
        }
      ],
      "name": "mint",
      "outputs": [],
      "stateMutability": "nonpayable",
      "type": "function"
    },
    {
      "inputs": [
        {
          "internalType": "uint256",
          "name": "_amount",
          "type": "uint256"
        },
        {
          "internalType": "int256",
          "name": "_rating",
          "type": "int256"
        },
        {
          "internalType": "string",
          "name": "_feedback",
          "type": "string"
        }
      ],
      "name": "burn",
      "outputs": [],
      "stateMutability": "nonpayable",
      "type": "function"
    },
    {
      "inputs": [
        {
          "internalType": "address",
          "name": "_recipient",
          "type": "address"
        },
        {
          "internalType": "uint256",
          "name": "_amount",
          "type": "uint256"
        }
      ],
      "name": "transfer",
      "outputs": [
        {
          "internalType": "bool",
          "name": "",
          "type": "bool"
        }
      ],
      "stateMutability": "nonpayable",
      "type": "function"
    },
    {
      "inputs": [
        {
          "internalType": "string",
          "name": "_descr",
          "type": "string"
        }
      ],
      "name": "editDescr",
      "outputs": [],
      "stateMutability": "nonpayable",
      "type": "function"
    },
    {
      "inputs": [
        {
          "internalType": "bytes32",
          "name": "_phone",
          "type": "bytes32"
        }
      ],
      "name": "editPhone",
      "outputs": [],
      "stateMutability": "nonpayable",
      "type": "function"
    },
    {
      "inputs": [
        {
          "internalType": "string",
          "name": "_country",
          "type": "string"
        },
        {
          "internalType": "string",
          "name": "_state",
          "type": "string"
        },
        {
          "internalType": "string",
          "name": "_city",
          "type": "string"
        },
        {
          "internalType": "string",
          "name": "_street",
          "type": "string"
        }
      ],
      "name": "editGeo",
      "outputs": [],
      "stateMutability": "nonpayable",
      "type": "function"
    },
    {
      "inputs": [
        {
          "internalType": "bytes32[]",
          "name": "_keys",
          "type": "bytes32[]"
        }
      ],
      "name": "addKeys",
      "outputs": [],
      "stateMutability": "nonpayable",
      "type": "function"
    },
    {
      "inputs": [
        {
          "internalType": "bytes32[]",
          "name": "_keys",
          "type": "bytes32[]"
        }
      ],
      "name": "delKeys",
      "outputs": [],
      "stateMutability": "nonpayable",
      "type": "function"
    },
    {
      "inputs": [],
      "name": "thisIOUkeywords",
      "outputs": [
        {
          "internalType": "bytes32[]",
          "name": "",
          "type": "bytes32[]"
        }
      ],
      "stateMutability": "view",
      "type": "function",
      "constant": true
    },
    {
      "inputs": [],
      "name": "getlen",
      "outputs": [
        {
          "internalType": "uint256",
          "name": "",
          "type": "uint256"
        },
        {
          "internalType": "uint256",
          "name": "",
          "type": "uint256"
        }
      ],
      "stateMutability": "view",
      "type": "function",
      "constant": true
    },
    {
      "inputs": [],
      "name": "thisIOUDesc",
      "outputs": [
        {
          "components": [
            {
              "internalType": "uint256",
              "name": "totalMinted",
              "type": "uint256"
            },
            {
              "internalType": "uint256",
              "name": "totalBurned",
              "type": "uint256"
            },
            {
              "internalType": "int256",
              "name": "avRate",
              "type": "int256"
            },
            {
              "internalType": "bytes32",
              "name": "units",
              "type": "bytes32"
            },
            {
              "internalType": "address",
              "name": "issuer",
              "type": "address"
            },
            {
              "internalType": "string",
              "name": "myName",
              "type": "string"
            },
            {
              "internalType": "string",
              "name": "socialProfile",
              "type": "string"
            },
            {
              "internalType": "string",
              "name": "description",
              "type": "string"
            },
            {
              "components": [
                {
                  "internalType": "string",
                  "name": "country",
                  "type": "string"
                },
                {
                  "internalType": "string",
                  "name": "state",
                  "type": "string"
                },
                {
                  "internalType": "string",
                  "name": "city",
                  "type": "string"
                },
                {
                  "internalType": "string",
                  "name": "street",
                  "type": "string"
                }
              ],
              "internalType": "struct iIOUtoken.geo",
              "name": "location",
              "type": "tuple"
            },
            {
              "internalType": "bytes32[]",
              "name": "keywords",
              "type": "bytes32[]"
            },
            {
              "internalType": "bytes32",
              "name": "phone",
              "type": "bytes32"
            }
          ],
          "internalType": "struct iIOUtoken.DescriptionIOU",
          "name": "",
          "type": "tuple"
        }
      ],
      "stateMutability": "view",
      "type": "function",
      "constant": true
    },
    {
      "inputs": [],
      "name": "IOUname",
      "outputs": [
        {
          "internalType": "string",
          "name": "",
          "type": "string"
        }
      ],
      "stateMutability": "view",
      "type": "function",
      "constant": true
    },
    {
      "inputs": [],
      "name": "IOUsymbol",
      "outputs": [
        {
          "internalType": "string",
          "name": "",
          "type": "string"
        }
      ],
      "stateMutability": "view",
      "type": "function",
      "constant": true
    }
  ],
  "bytecode": "0x608060405234801561001057600080fd5b5061348a806100206000396000f3fe608060405234801561001057600080fd5b50600436106101f05760003560e01c806370a082311161010f578063a9059cbb116100a2578063d25b1c6d11610071578063d25b1c6d14610452578063d3fc986414610465578063dd62ed3e14610478578063f67ad233146104b157600080fd5b8063a9059cbb14610400578063abb1dc4414610413578063ac6137ea1461042a578063b25113141461043d57600080fd5b80639ee09506116100de5780639ee09506146103b0578063a1a613bb146103b8578063a457c2d7146103cb578063a69bac24146103de57600080fd5b806370a08231146103495780637fdcf01f146103725780638129fc1c1461038d57806395d89b41146103a857600080fd5b8063188caf8a116101875780633950935111610156578063395093511461030857806358aee2701461031b5780636a3611b9146103235780636f8797241461033657600080fd5b8063188caf8a146102af5780631bbb6e58146102c257806323b872dd146102e6578063313ce567146102f957600080fd5b80630a576364116101c35780630a5763641461025e57806313af40351461027357806314fcf3151461028657806318160ddd146102a757600080fd5b806306fdde03146101f5578063070df2d214610213578063087cbd4014610228578063095ea7b31461023b575b600080fd5b6101fd6104c4565b60405161020a91906127fe565b60405180910390f35b610226610221366004612918565b610556565b005b610226610236366004612983565b610811565b61024e61024936600461299e565b61085d565b604051901515815260200161020a565b610266610873565b60405161020a9190612b4a565b610226610281366004612983565b610d36565b61029961029436600461299e565b610d82565b60405190815260200161020a565b600254610299565b6102266102bd366004612b5d565b610db3565b6102d56102d0366004612bd1565b610eed565b60405161020a959493929190612bea565b61024e6102f4366004612c28565b610fc4565b6040516012815260200161020a565b61024e61031636600461299e565b61106e565b6101fd6110aa565b610226610331366004612bd1565b6110b9565b610226610344366004612cac565b6110e8565b610299610357366004612983565b6001600160a01b031660009081526020819052604090205490565b601a546018546040805192835260208301919091520161020a565b601c80546001600160a81b0319163360ff60a01b1916179055005b6101fd6112cb565b6101fd6112da565b6102266103c6366004612e9b565b6112e4565b61024e6103d936600461299e565b61158b565b6103f16103ec366004612bd1565b611624565b60405161020a9392919061303e565b61024e61040e36600461299e565b6116ed565b61041b61175d565b60405161020a93929190613065565b610226610438366004612b5d565b611c39565b610445611de1565b60405161020a91906130a8565b61029961046036600461299e565b611e3b565b6102266104733660046130ec565b611e57565b61029961048636600461312c565b6001600160a01b03918216600090815260016020908152604080832093909416825291909152205490565b6102266104bf36600461315f565b612073565b6060600380546104d3906131a0565b80601f01602080910402602001604051908101604052809291908181526020018280546104ff906131a0565b801561054c5780601f106105215761010080835404028352916020019161054c565b820191906000526020600020905b81548152906001019060200180831161052f57829003601f168201915b5050505050905090565b33600090815260208190526040902054839081106105bb5760405162461bcd60e51b815260206004820152601a60248201527f4e6f20616d6f756e7420746f6b656e20686f6c6465722068617300000000000060448201526064015b60405180910390fd5b61010082511061060d5760405162461bcd60e51b815260206004820152601f60248201527f466565646261636b206973206c6f6e672c206d757374206265203c203235360060448201526064016105b2565b6040805160a08101825233815242602080830191825292820186815260608301888152608084018781526018805460018101825560009190915285517fb13d2d76d1f4b7be834882e410b3e3a8afaf69f83600ae24db354391d2378d2e600590920291820180546001600160a01b0319166001600160a01b0390921691909117815594517fb13d2d76d1f4b7be834882e410b3e3a8afaf69f83600ae24db354391d2378d2f82015592517fb13d2d76d1f4b7be834882e410b3e3a8afaf69f83600ae24db354391d2378d3084015590517fb13d2d76d1f4b7be834882e410b3e3a8afaf69f83600ae24db354391d2378d3183015551805193948594610738937fb13d2d76d1f4b7be834882e410b3e3a8afaf69f83600ae24db354391d2378d320192909101906125db565b505033600090815260196020526040902060185490915061075b906001906131f1565b8154600181018355600092835260208320015561078d336001600160a01b031660009081526020819052604090205490565b6107978787613208565b6107a1919061328d565b6018549091506107b18183613208565b6018546107c0906001906132c9565b600c546107cd9190613208565b6107d79190613308565b6107e1919061328d565b600c55600b80548791906000906107f9908490613349565b90915550610809905033876120ae565b505050505050565b601c546001600160a01b0316331461083b5760405162461bcd60e51b81526004016105b290613361565b601d80546001600160a01b0319166001600160a01b0392909216919091179055565b600061086a3384846121fc565b50600192915050565b61087b61265f565b6040805161016081018252600a80548252600b546020830152600c5492820192909252600d546060820152600e546001600160a01b03166080820152600f805491929160a0840191906108cd906131a0565b80601f01602080910402602001604051908101604052809291908181526020018280546108f9906131a0565b80156109465780601f1061091b57610100808354040283529160200191610946565b820191906000526020600020905b81548152906001019060200180831161092957829003601f168201915b5050505050815260200160068201805461095f906131a0565b80601f016020809104026020016040519081016040528092919081815260200182805461098b906131a0565b80156109d85780601f106109ad576101008083540402835291602001916109d8565b820191906000526020600020905b8154815290600101906020018083116109bb57829003601f168201915b505050505081526020016007820180546109f1906131a0565b80601f0160208091040260200160405190810160405280929190818152602001828054610a1d906131a0565b8015610a6a5780601f10610a3f57610100808354040283529160200191610a6a565b820191906000526020600020905b815481529060010190602001808311610a4d57829003601f168201915b5050505050815260200160088201604051806080016040529081600082018054610a93906131a0565b80601f0160208091040260200160405190810160405280929190818152602001828054610abf906131a0565b8015610b0c5780601f10610ae157610100808354040283529160200191610b0c565b820191906000526020600020905b815481529060010190602001808311610aef57829003601f168201915b50505050508152602001600182018054610b25906131a0565b80601f0160208091040260200160405190810160405280929190818152602001828054610b51906131a0565b8015610b9e5780601f10610b7357610100808354040283529160200191610b9e565b820191906000526020600020905b815481529060010190602001808311610b8157829003601f168201915b50505050508152602001600282018054610bb7906131a0565b80601f0160208091040260200160405190810160405280929190818152602001828054610be3906131a0565b8015610c305780601f10610c0557610100808354040283529160200191610c30565b820191906000526020600020905b815481529060010190602001808311610c1357829003601f168201915b50505050508152602001600382018054610c49906131a0565b80601f0160208091040260200160405190810160405280929190818152602001828054610c75906131a0565b8015610cc25780601f10610c9757610100808354040283529160200191610cc2565b820191906000526020600020905b815481529060010190602001808311610ca557829003601f168201915b5050505050815250508152602001600c8201805480602002602001604051908101604052809291908181526020018280548015610d1e57602002820191906000526020600020905b815481526020019060010190808311610d0a575b50505050508152602001600d82015481525050905090565b601c546001600160a01b03163314610d605760405162461bcd60e51b81526004016105b290613361565b601c80546001600160a01b0319166001600160a01b0392909216919091179055565b601b6020528160005260406000208181548110610d9e57600080fd5b90600052602060002001600091509150505481565b601c546001600160a01b03163314610ddd5760405162461bcd60e51b81526004016105b290613361565b8060058110610e2e5760405162461bcd60e51b815260206004820152601860248201527f4f6e6c792035206b6579732063616e20616464206f6e6365000000000000000060448201526064016105b2565b60005b81811015610e81576016848483818110610e4d57610e4d613391565b8354600181018555600094855260209485902091909402929092013591909201555080610e79816133a7565b915050610e31565b50601d546040516343013c4b60e11b81526001600160a01b0390911690638602789690610eb6908690869030906004016133c2565b600060405180830381600087803b158015610ed057600080fd5b505af1158015610ee4573d6000803e3d6000fd5b50505050505050565b60188181548110610efd57600080fd5b6000918252602090912060059091020180546001820154600283015460038401546004850180546001600160a01b03909516965092949193909290610f41906131a0565b80601f0160208091040260200160405190810160405280929190818152602001828054610f6d906131a0565b8015610fba5780601f10610f8f57610100808354040283529160200191610fba565b820191906000526020600020905b815481529060010190602001808311610f9d57829003601f168201915b5050505050905085565b6000610fd1848484612320565b6001600160a01b0384166000908152600160209081526040808320338452909152902054828110156110565760405162461bcd60e51b815260206004820152602860248201527f45524332303a207472616e7366657220616d6f756e74206578636565647320616044820152676c6c6f77616e636560c01b60648201526084016105b2565b61106385338584036121fc565b506001949350505050565b3360008181526001602090815260408083206001600160a01b0387168452909152812054909161086a9185906110a5908690613349565b6121fc565b60606110b46112cb565b905090565b601c546001600160a01b031633146110e35760405162461bcd60e51b81526004016105b290613361565b601755565b601c546001600160a01b031633146111125760405162461bcd60e51b81526004016105b290613361565b61113d6040518060800160405280606081526020016060815260200160608152602001606081525090565b88888080601f016020809104026020016040519081016040528093929190818152602001838380828437600092019190915250505090825250604080516020601f890181900481028201810190925287815290889088908190840183828082843760009201919091525050505060208083019190915260408051601f870183900483028101830190915285815290869086908190840183828082843760009201919091525050505060408083019190915280516020601f85018190048102820181019092528381529084908490819084018382808284376000920191909152505050506060820152601d5460405163d107704d60e01b81526001600160a01b039091169063d107704d906112579084903090600401613414565b600060405180830381600087803b15801561127157600080fd5b505af1158015611285573d6000803e3d6000fd5b506112989250601291508b90508a6126ee565b506112a5601388886126ee565b506112b2601486866126ee565b506112bf601584846126ee565b50505050505050505050565b6060600480546104d3906131a0565b60606110b46104c4565b601c54600160a01b900460ff16156113335760405162461bcd60e51b8152602060048201526012602482015271105b1c9958591e4818dbdb999a59dd5c995960721b60448201526064016105b2565b8151600a908155602080840151600b556040840151600c556060840151600d556080840151600e80546001600160a01b0319166001600160a01b0390921691909117905560a0840151805185939261139092600f929101906125db565b5060c082015180516113ac9160068401916020909101906125db565b5060e082015180516113c89160078401916020909101906125db565b506101008201518051805160088401916113e7918391602001906125db565b50602082810151805161140092600185019201906125db565b506040820151805161141c9160028401916020909101906125db565b50606082015180516114389160038401916020909101906125db565b505050610120820151805161145791600c840191602090910190612762565b506101409190910151600d909101556080820151601c80546001600160a01b0319166001600160a01b03909216919091179055835161149d9060089060208701906125db565b5082516114b19060099060208601906125db565b506010845110806114c35750600a8351105b806114d3575060408260a0015151105b806114e3575060808260c0015151105b806114f457506101008260e0015151105b80611506575060058261012001515111155b6115525760405162461bcd60e51b815260206004820152601b60248201527f546f6f206d616e792073796d627320696e20706172616d65746572000000000060448201526064016105b2565b601d80546001600160a01b039092166001600160a01b03199092169190911790555050601c805460ff60a01b1916600160a01b17905550565b3360009081526001602090815260408083206001600160a01b03861684529091528120548281101561160d5760405162461bcd60e51b815260206004820152602560248201527f45524332303a2064656372656173656420616c6c6f77616e63652062656c6f77604482015264207a65726f60d81b60648201526084016105b2565b61161a33858584036121fc565b5060019392505050565b601a818154811061163457600080fd5b60009182526020909120600390910201805460018201546002830180546001600160a01b03909316945090929161166a906131a0565b80601f0160208091040260200160405190810160405280929190818152602001828054611696906131a0565b80156116e35780601f106116b8576101008083540402835291602001916116e3565b820191906000526020600020905b8154815290600101906020018083116116c657829003601f168201915b5050505050905083565b601d546040516323b3af8960e01b81526001600160a01b03848116600483015230602483015260009216906323b3af8990604401600060405180830381600087803b15801561173b57600080fd5b505af115801561174f573d6000803e3d6000fd5b5050505061161a83836124ef565b60608061176861265f565b6117706104c4565b6117786112cb565b6040805161016081018252600a80548252600b546020830152600c5492820192909252600d546060820152600e546001600160a01b03166080820152600f8054839160a08401916117c8906131a0565b80601f01602080910402602001604051908101604052809291908181526020018280546117f4906131a0565b80156118415780601f1061181657610100808354040283529160200191611841565b820191906000526020600020905b81548152906001019060200180831161182457829003601f168201915b5050505050815260200160068201805461185a906131a0565b80601f0160208091040260200160405190810160405280929190818152602001828054611886906131a0565b80156118d35780601f106118a8576101008083540402835291602001916118d3565b820191906000526020600020905b8154815290600101906020018083116118b657829003601f168201915b505050505081526020016007820180546118ec906131a0565b80601f0160208091040260200160405190810160405280929190818152602001828054611918906131a0565b80156119655780601f1061193a57610100808354040283529160200191611965565b820191906000526020600020905b81548152906001019060200180831161194857829003601f168201915b505050505081526020016008820160405180608001604052908160008201805461198e906131a0565b80601f01602080910402602001604051908101604052809291908181526020018280546119ba906131a0565b8015611a075780601f106119dc57610100808354040283529160200191611a07565b820191906000526020600020905b8154815290600101906020018083116119ea57829003601f168201915b50505050508152602001600182018054611a20906131a0565b80601f0160208091040260200160405190810160405280929190818152602001828054611a4c906131a0565b8015611a995780601f10611a6e57610100808354040283529160200191611a99565b820191906000526020600020905b815481529060010190602001808311611a7c57829003601f168201915b50505050508152602001600282018054611ab2906131a0565b80601f0160208091040260200160405190810160405280929190818152602001828054611ade906131a0565b8015611b2b5780601f10611b0057610100808354040283529160200191611b2b565b820191906000526020600020905b815481529060010190602001808311611b0e57829003601f168201915b50505050508152602001600382018054611b44906131a0565b80601f0160208091040260200160405190810160405280929190818152602001828054611b70906131a0565b8015611bbd5780601f10611b9257610100808354040283529160200191611bbd565b820191906000526020600020905b815481529060010190602001808311611ba057829003601f168201915b5050505050815250508152602001600c8201805480602002602001604051908101604052809291908181526020018280548015611c1957602002820191906000526020600020905b815481526020019060010190808311611c05575b50505050508152602001600d820154815250509050925092509250909192565b601c546001600160a01b03163314611c635760405162461bcd60e51b81526004016105b290613361565b8060058110611cb45760405162461bcd60e51b815260206004820152601b60248201527f4f6e6c792035206b6579732063616e2072656d6f7665206f6e6365000000000060448201526064016105b2565b60005b81811015611dac576000805b601654811015611d2357858584818110611cdf57611cdf613391565b90506020020135600a600c018281548110611cfc57611cfc613391565b90600052602060002001541415611d11578091505b80611d1b816133a7565b915050611cc3565b5060168054611d34906001906131f1565b81548110611d4457611d44613391565b9060005260206000200154600a600c018281548110611d6557611d65613391565b6000918252602090912001556016805480611d8257611d8261343e565b60019003818190600052602060002001600090559055508080611da4906133a7565b915050611cb7565b50601d54604051638bcd065560e01b81526001600160a01b0390911690638bcd065590610eb6908690869030906004016133c2565b6060600a600c0180548060200260200160405190810160405280929190818152602001828054801561054c57602002820191906000526020600020905b815481526020019060010190808311611e1e575050505050905090565b60196020528160005260406000208181548110610d9e57600080fd5b601c546001600160a01b03163314611e815760405162461bcd60e51b81526004016105b290613361565b610100815110611ed35760405162461bcd60e51b815260206004820152601c60248201527f494f552074657874206973206c6f6e672c206e656564203c203235360000000060448201526064016105b2565b604080516060810182526001600160a01b038581168252426020808401918252938301858152601a805460018101825560009190915284517f057c384a7d1c54f3a1b2e5e67b2617b8224fdfd1ea7234eea573a6ff665ff63e600390920291820180546001600160a01b0319169190951617845591517f057c384a7d1c54f3a1b2e5e67b2617b8224fdfd1ea7234eea573a6ff665ff63f83015551805193948594611fa4937f057c384a7d1c54f3a1b2e5e67b2617b8224fdfd1ea7234eea573a6ff665ff6400192909101906125db565b5050506001600160a01b0384166000908152601b60205260409020601a54611fce906001906131f1565b81546001810183556000928352602090922090910155611fee84846124fc565b82600a60000160008282546120039190613349565b9091555050601d546040516323b3af8960e01b81526001600160a01b038681166004830152306024830152909116906323b3af8990604401600060405180830381600087803b15801561205557600080fd5b505af1158015612069573d6000803e3d6000fd5b5050505050505050565b601c546001600160a01b0316331461209d5760405162461bcd60e51b81526004016105b290613361565b6120a9601183836126ee565b505050565b6001600160a01b03821661210e5760405162461bcd60e51b815260206004820152602160248201527f45524332303a206275726e2066726f6d20746865207a65726f206164647265736044820152607360f81b60648201526084016105b2565b6001600160a01b038216600090815260208190526040902054818110156121825760405162461bcd60e51b815260206004820152602260248201527f45524332303a206275726e20616d6f756e7420657863656564732062616c616e604482015261636560f01b60648201526084016105b2565b6001600160a01b03831660009081526020819052604081208383039055600280548492906121b19084906131f1565b90915550506040518281526000906001600160a01b038516907fddf252ad1be2c89b69c2b068fc378daa952ba7f163c4a11628f55a4df523b3ef9060200160405180910390a3505050565b6001600160a01b03831661225e5760405162461bcd60e51b8152602060048201526024808201527f45524332303a20617070726f76652066726f6d20746865207a65726f206164646044820152637265737360e01b60648201526084016105b2565b6001600160a01b0382166122bf5760405162461bcd60e51b815260206004820152602260248201527f45524332303a20617070726f766520746f20746865207a65726f206164647265604482015261737360f01b60648201526084016105b2565b6001600160a01b0383811660008181526001602090815260408083209487168084529482529182902085905590518481527f8c5be1e5ebec7d5bd14f71427d1e84f3dd0314c0f7b2291e5b200ac8c7c3b925910160405180910390a3505050565b6001600160a01b0383166123845760405162461bcd60e51b815260206004820152602560248201527f45524332303a207472616e736665722066726f6d20746865207a65726f206164604482015264647265737360d81b60648201526084016105b2565b6001600160a01b0382166123e65760405162461bcd60e51b815260206004820152602360248201527f45524332303a207472616e7366657220746f20746865207a65726f206164647260448201526265737360e81b60648201526084016105b2565b6001600160a01b0383166000908152602081905260409020548181101561245e5760405162461bcd60e51b815260206004820152602660248201527f45524332303a207472616e7366657220616d6f756e7420657863656564732062604482015265616c616e636560d01b60648201526084016105b2565b6001600160a01b03808516600090815260208190526040808220858503905591851681529081208054849290612495908490613349565b92505081905550826001600160a01b0316846001600160a01b03167fddf252ad1be2c89b69c2b068fc378daa952ba7f163c4a11628f55a4df523b3ef846040516124e191815260200190565b60405180910390a350505050565b600061086a338484612320565b6001600160a01b0382166125525760405162461bcd60e51b815260206004820152601f60248201527f45524332303a206d696e7420746f20746865207a65726f20616464726573730060448201526064016105b2565b80600260008282546125649190613349565b90915550506001600160a01b03821660009081526020819052604081208054839290612591908490613349565b90915550506040518181526001600160a01b038316906000907fddf252ad1be2c89b69c2b068fc378daa952ba7f163c4a11628f55a4df523b3ef9060200160405180910390a35050565b8280546125e7906131a0565b90600052602060002090601f016020900481019282612609576000855561264f565b82601f1061262257805160ff191683800117855561264f565b8280016001018555821561264f579182015b8281111561264f578251825591602001919060010190612634565b5061265b92915061279c565b5090565b6040518061016001604052806000815260200160008152602001600081526020016000801916815260200160006001600160a01b031681526020016060815260200160608152602001606081526020016126da6040518060800160405280606081526020016060815260200160608152602001606081525090565b815260606020820152600060409091015290565b8280546126fa906131a0565b90600052602060002090601f01602090048101928261271c576000855561264f565b82601f106127355782800160ff1982351617855561264f565b8280016001018555821561264f579182015b8281111561264f578235825591602001919060010190612747565b82805482825590600052602060002090810192821561264f579160200282018281111561264f578251825591602001919060010190612634565b5b8082111561265b576000815560010161279d565b6000815180845260005b818110156127d7576020818501810151868301820152016127bb565b818111156127e9576000602083870101525b50601f01601f19169290920160200192915050565b60208152600061281160208301846127b1565b9392505050565b634e487b7160e01b600052604160045260246000fd5b604051608081016001600160401b038111828210171561285057612850612818565b60405290565b60405161016081016001600160401b038111828210171561285057612850612818565b604051601f8201601f191681016001600160401b03811182821017156128a1576128a1612818565b604052919050565b600082601f8301126128ba57600080fd5b81356001600160401b038111156128d3576128d3612818565b6128e6601f8201601f1916602001612879565b8181528460208386010111156128fb57600080fd5b816020850160208301376000918101602001919091529392505050565b60008060006060848603121561292d57600080fd5b833592506020840135915060408401356001600160401b0381111561295157600080fd5b61295d868287016128a9565b9150509250925092565b80356001600160a01b038116811461297e57600080fd5b919050565b60006020828403121561299557600080fd5b61281182612967565b600080604083850312156129b157600080fd5b6129ba83612967565b946020939093013593505050565b60008151608084526129dd60808501826127b1565b9050602083015184820360208601526129f682826127b1565b91505060408301518482036040860152612a1082826127b1565b91505060608301518482036060860152612a2a82826127b1565b95945050505050565b600081518084526020808501945080840160005b83811015612a6357815187529582019590820190600101612a47565b509495945050505050565b6000610160825184526020830151602085015260408301516040850152606083015160608501526080830151612aaf60808601826001600160a01b03169052565b5060a08301518160a0860152612ac7828601826127b1565b91505060c083015184820360c0860152612ae182826127b1565b91505060e083015184820360e0860152612afb82826127b1565b9150506101008084015185830382870152612b1683826129c8565b925050506101208084015185830382870152612b328382612a33565b61014095860151969095019590955250919392505050565b6020815260006128116020830184612a6e565b60008060208385031215612b7057600080fd5b82356001600160401b0380821115612b8757600080fd5b818501915085601f830112612b9b57600080fd5b813581811115612baa57600080fd5b8660208260051b8501011115612bbf57600080fd5b60209290920196919550909350505050565b600060208284031215612be357600080fd5b5035919050565b60018060a01b038616815284602082015283604082015282606082015260a060808201526000612c1d60a08301846127b1565b979650505050505050565b600080600060608486031215612c3d57600080fd5b612c4684612967565b9250612c5460208501612967565b9150604084013590509250925092565b60008083601f840112612c7657600080fd5b5081356001600160401b03811115612c8d57600080fd5b602083019150836020828501011115612ca557600080fd5b9250929050565b6000806000806000806000806080898b031215612cc857600080fd5b88356001600160401b0380821115612cdf57600080fd5b612ceb8c838d01612c64565b909a50985060208b0135915080821115612d0457600080fd5b612d108c838d01612c64565b909850965060408b0135915080821115612d2957600080fd5b612d358c838d01612c64565b909650945060608b0135915080821115612d4e57600080fd5b50612d5b8b828c01612c64565b999c989b5096995094979396929594505050565b600060808284031215612d8157600080fd5b612d8961282e565b905081356001600160401b0380821115612da257600080fd5b612dae858386016128a9565b83526020840135915080821115612dc457600080fd5b612dd0858386016128a9565b60208401526040840135915080821115612de957600080fd5b612df5858386016128a9565b60408401526060840135915080821115612e0e57600080fd5b50612e1b848285016128a9565b60608301525092915050565b600082601f830112612e3857600080fd5b813560206001600160401b03821115612e5357612e53612818565b8160051b612e62828201612879565b9283528481018201928281019087851115612e7c57600080fd5b83870192505b84831015612c1d57823582529183019190830190612e82565b60008060008060808587031215612eb157600080fd5b84356001600160401b0380821115612ec857600080fd5b612ed4888389016128a9565b95506020870135915080821115612eea57600080fd5b612ef6888389016128a9565b94506040870135915080821115612f0c57600080fd5b908601906101608289031215612f2157600080fd5b612f29612856565b82358152602083013560208201526040830135604082015260608301356060820152612f5760808401612967565b608082015260a083013582811115612f6e57600080fd5b612f7a8a8286016128a9565b60a08301525060c083013582811115612f9257600080fd5b612f9e8a8286016128a9565b60c08301525060e083013582811115612fb657600080fd5b612fc28a8286016128a9565b60e0830152506101008084013583811115612fdc57600080fd5b612fe88b828701612d6f565b828401525050610120808401358381111561300257600080fd5b61300e8b828701612e27565b8284015250506101409150818301358282015280945050505061303360608601612967565b905092959194509250565b60018060a01b0384168152826020820152606060408201526000612a2a60608301846127b1565b60608152600061307860608301866127b1565b828103602084015261308a81866127b1565b9050828103604084015261309e8185612a6e565b9695505050505050565b6020808252825182820181905260009190848201906040850190845b818110156130e0578351835292840192918401916001016130c4565b50909695505050505050565b60008060006060848603121561310157600080fd5b61310a84612967565b92506020840135915060408401356001600160401b0381111561295157600080fd5b6000806040838503121561313f57600080fd5b61314883612967565b915061315660208401612967565b90509250929050565b6000806020838503121561317257600080fd5b82356001600160401b0381111561318857600080fd5b61319485828601612c64565b90969095509350505050565b600181811c908216806131b457607f821691505b602082108114156131d557634e487b7160e01b600052602260045260246000fd5b50919050565b634e487b7160e01b600052601160045260246000fd5b600082821015613203576132036131db565b500390565b60006001600160ff1b038184138284138082168684048611161561322e5761322e6131db565b600160ff1b600087128281168783058912161561324d5761324d6131db565b60008712925087820587128484161615613269576132696131db565b8785058712818416161561327f5761327f6131db565b505050929093029392505050565b6000826132aa57634e487b7160e01b600052601260045260246000fd5b600160ff1b8214600019841416156132c4576132c46131db565b500590565b60008083128015600160ff1b8501841216156132e7576132e76131db565b6001600160ff1b0384018313811615613302576133026131db565b50500390565b600080821280156001600160ff1b038490038513161561332a5761332a6131db565b600160ff1b8390038412811615613343576133436131db565b50500190565b6000821982111561335c5761335c6131db565b500190565b6020808252601690820152754f6e6c79206f776e65722063616e20646f207468697360501b604082015260600190565b634e487b7160e01b600052603260045260246000fd5b60006000198214156133bb576133bb6131db565b5060010190565b6040808252810183905260006001600160fb1b038411156133e257600080fd5b8360051b8086606085013760009083016060019081526001600160a01b03939093166020909201919091525092915050565b60408152600061342760408301856129c8565b905060018060a01b03831660208301529392505050565b634e487b7160e01b600052603160045260246000fdfea2646970667358221220850454da22c06e2fd5e3fe4bf5ecfb0d7266a228761ffb9dc95696e7141f7ed464736f6c634300080a0033",
  "immutableReferences": {},
  "source": "pragma solidity>= 0.8.0;\npragma experimental ABIEncoderV2;\nimport  \"./interfaces/iIOUtoken.sol\";\nimport \"./interfaces/iStoreIOUs.sol\";\nimport \"./ERC20.sol\";\n\n//import \"./MakeIOU.sol\";\n\n/*** IOU ecosystem\n*   The aim of IOU ecosystem is to give people proved fiat-free mutual settlements by issuing personal IOU tokens on Ethereum.\n*   \n*   1.Alice, the artist,  wants to get service from Bob, the barber but has no money. But she can issue ERC20 compatible IOU token  and fill this:\n*   name of the token (Alice Artist 2020)\n*   symbol of the token (AA01)\n*   description of service (Artist: logos, infographic, cartoons)\n*   location (New York)\n*   social profile in LinkedIn (or Facebook or  smth else)\n*   units (dollars, euros, hours, pictures)\n*   2. Alice negotiated the sum of her AA01 tokens,  transfers this to Bob, and get the beautiful hairstyle. And this deal fixes in the blockchain forever.\n*   3. Two-month later Bob asked her later for a cartoon about his hairdressing salon.\n*   4. After Alice made her job, Bob burns a part of  Alices IOU tokens and puts feedback, adding a rating of results.\n*   5. Later Bob pays with Alices AA01 tokens to Peter, the webmaster, who supports Bobs salon website. Peter looks for a fresh infographic for another project.\n*   6. Peter doesnt know Alice personally and he wants to check Alices reputation. He gets the history of Alices deals and looks feedbacks and rates, given to Alice. From another user s of IOU tokens, number of transactions and supply amount.\n*   7. If he decides that all ok, he approve the deal in Alice's IOU tokens.\n*   8. After Piter receives results, hi burned tokens and gives his feedback too.\n*/\n/// @author stanta\n/// @title IOUtoken\ncontract IOUtoken is iIOUtoken, ERC20  {\n    //ERC20 \n    mapping(address => uint256) private _balances;\n\n    mapping(address => mapping(address => uint256)) private _allowances;\n\n    uint256 private _totalSupply;\n\n    string private _name;\n    string private _symbol;\n\n  \n \n   // bool registered;\n\n    DescriptionIOU  thisIOU;\n\n    FeedBack[] public allFeedbacks;\n    mapping (address => uint256[]) public feedBacksbySender; // feedback from tokenholders\n\n    IOU[] public allIOUs;\n    mapping (address => uint256[]) public IOUbyReceiver; // list of this IOUs by receiver\n\n    address owner;\n    bool configured;\n    iStoreIOUs store;\n    //mapping (address => uint) Tokenholders;\n\nfunction initialize()  public override\n{\n    owner = msg.sender;\n    configured = false;\n}\nfunction setIOU  (\n//    constructor (\n                string memory name_, \n                string memory symbol_, \n                iIOUtoken.DescriptionIOU memory _thisIOU,\n                 address _store)  public  nonConfiged /* override */ {\n       thisIOU = _thisIOU;\n       owner = _thisIOU.issuer;\n       _name = name_;\n       _symbol = symbol_;\n       require (bytes(name_).length <16 || \n                bytes(symbol_).length < 10 ||\n                bytes(_thisIOU.myName).length < 64 ||\n                bytes(_thisIOU.socialProfile).length < 128 ||\n                bytes(_thisIOU.description).length < 256 ||\n                _thisIOU.keywords.length <=5 , \n                \"Too many symbs in parameter\" );\n  //todo add visibility?\n        store = iStoreIOUs(_store);\n        \n     //   store.addIOU1(address(this), owner);//, _socialProfile, msg.sender, _keywords);\n    }\n\n\n    modifier onlyOwner() {\n        require (owner == msg.sender, \"Only owner can do this\");\n        _;\n    }\n\n    modifier nonConfiged () {\n        require(!configured, \"Already configured\");\n        _;\n        configured = true;\n\n    }\n\n\n    function setStore (address _newOwner) public onlyOwner {\n        store = iStoreIOUs(_newOwner);\n        \n    }   \n\n\n    function getTokenInfo() public view returns(string memory,\n                                           string memory,\n                                           iIOUtoken.DescriptionIOU memory ) {\n        return(name(), symbol(), thisIOU);\n\n    }\n\n    function setOwner (address _newOwner) public onlyOwner {\n   //     _removeMinter(owner);\n        owner = _newOwner;\n  //      _addMinter(_newOwner);\n    }\n\n    modifier onlyHolder (uint256 _amount) {\n        require (balanceOf(msg.sender) > _amount, \"No amount token holder has\" );\n    _;\n    }\n\n    function mint (address _who, uint256 _amount, string memory _descr) public onlyOwner { \n/*         if (!registered) {\n            StoreIOU.addIOU2(address(this), thisIOU.socialProfile, thisIOU.keywords);\n            registered = true; \n            } */\n        require (bytes(_descr).length <256, \"IOU text is long, need < 256\");\n        IOU memory bond = IOU (_who, block.timestamp, _descr);\n        allIOUs.push(bond);\n        IOUbyReceiver[_who].push(allIOUs.length-1);\n        _mint(_who, _amount);\n        thisIOU.totalMinted += _amount;\n        store.addHolder(_who, address(this)); \n        \n    }\n\n    function burn (uint256 _amount, int256 _rating, string memory _feedback) public onlyHolder (_amount) {\n        require (bytes(_feedback).length <256, \"Feedback is long, must be < 256\");\n\n        iIOUtoken.FeedBack memory feedback = iIOUtoken.FeedBack(msg.sender,block.timestamp, _rating, _amount, _feedback);\n        allFeedbacks.push(feedback);\n        feedBacksbySender[msg.sender].push(allFeedbacks.length-1);\n        \n        int256 deltaRate = _rating * int256(_amount) / int256 (balanceOf(msg.sender));\n\n        thisIOU.avRate = (thisIOU.avRate * (int256(allFeedbacks.length) -1) + \n                        deltaRate  * int256(allFeedbacks.length)) / int256(allFeedbacks.length);\n                        \n\n        thisIOU.totalBurned += _amount;\n        _burn(msg.sender, _amount);\n    }\n\n    function transfer(address _recipient, uint256 _amount) public override returns (bool) {\n        store.addHolder(_recipient, address(this));\n        super.transfer(_recipient, _amount);\n        return true;\n    }\n\n    function editDescr (string calldata _descr)  public onlyOwner {\n        thisIOU.description = _descr;\n    }\n\n    function editPhone (bytes32 _phone)  public onlyOwner {\n        thisIOU.phone = _phone;\n    }\n\n    function editGeo (string calldata _country,\n                    string calldata _state,\n                    string calldata _city,\n                    string calldata _street)  public onlyOwner {\n        iIOUtoken.geo memory newloc;\n        newloc.country = _country;\n        newloc.state = _state;\n        newloc.city = _city;\n        newloc.street = _street;\n        store.changeIOUGeoAllkeys(newloc, address(this));\n        thisIOU.location.country = _country;\n        thisIOU.location.state = _state;\n        thisIOU.location.city = _city;\n        thisIOU.location.street = _street;\n    }\n\n\n    function addKeys (bytes32[] calldata _keys)  public onlyOwner {\n        uint addKeyLen = _keys.length;\n        require(addKeyLen < 5, \"Only 5 keys can add once\");\n        for (uint k=0; k<addKeyLen; k++) {\n            thisIOU.keywords.push(_keys[k]);\n        }\n        store.addKeys( _keys, address(this));  \n    }\n    function delKeys (bytes32[] calldata _keys)  public onlyOwner {\n        uint delKeyLen = _keys.length;       \n        require(delKeyLen < 5, \"Only 5 keys can remove once\");\n        // mark removing keys\n       // uint[5] memory keyMap;\n       \n       // uint km = 0;\n        for (uint dk=0; dk<delKeyLen; dk++) {\n            uint delkey;\n            for (uint kk=0; kk<thisIOU.keywords.length; kk++) {                \n                    if (thisIOU.keywords[kk] == _keys[dk]) {\n                        delkey = kk;                        \n                    }\n            }\n            // catch array \n            thisIOU.keywords[delkey] = thisIOU.keywords[thisIOU.keywords.length-1] ;\n            thisIOU.keywords.pop();\n    \n        }\n        \n        store.delKeys( _keys, address(this)); \n    }\n\n\n    function thisIOUkeywords() public view returns (bytes32[] memory)\n    {\n        return thisIOU.keywords;\n    }\n\n    function getlen ()  public view returns (uint256, uint256) {\n        return (allIOUs.length, allFeedbacks.length);\n    } \n\n    function thisIOUDesc () public view override returns (DescriptionIOU memory)\n    {    return thisIOU;\n    }\n    function IOUname () public view override returns (string memory)\n    {    return name();\n    }\n    function IOUsymbol () public view override returns (string memory)\n    {    return symbol ();\n    }\n}\n",
  "sourcePath": "/mnt/512-2/dfd/iou2/contracts/IOUtoken.sol",
  "compiler": {
    "name": "solc",
    "version": "0.8.10+commit.fc410830.Emscripten.clang"
  },
  "schemaVersion": "3.4.4",
  "updatedAt": "2022-02-15T09:58:55.497Z",
  "networkType": "ethereum",
  "devdoc": {
    "author": "stanta",
    "kind": "dev",
    "methods": {
      "allowance(address,address)": {
        "details": "See {IERC20-allowance}."
      },
      "approve(address,uint256)": {
        "details": "See {IERC20-approve}. Requirements: - `spender` cannot be the zero address."
      },
      "balanceOf(address)": {
        "details": "See {IERC20-balanceOf}."
      },
      "decimals()": {
        "details": "Returns the number of decimals used to get its user representation. For example, if `decimals` equals `2`, a balance of `505` tokens should be displayed to a user as `5.05` (`505 / 10 ** 2`). Tokens usually opt for a value of 18, imitating the relationship between Ether and Wei. This is the value {ERC20} uses, unless this function is overridden; NOTE: This information is only used for _display_ purposes: it in no way affects any of the arithmetic of the contract, including {IERC20-balanceOf} and {IERC20-transfer}."
      },
      "decreaseAllowance(address,uint256)": {
        "details": "Atomically decreases the allowance granted to `spender` by the caller. This is an alternative to {approve} that can be used as a mitigation for problems described in {IERC20-approve}. Emits an {Approval} event indicating the updated allowance. Requirements: - `spender` cannot be the zero address. - `spender` must have allowance for the caller of at least `subtractedValue`."
      },
      "increaseAllowance(address,uint256)": {
        "details": "Atomically increases the allowance granted to `spender` by the caller. This is an alternative to {approve} that can be used as a mitigation for problems described in {IERC20-approve}. Emits an {Approval} event indicating the updated allowance. Requirements: - `spender` cannot be the zero address."
      },
      "name()": {
        "details": "Returns the name of the token."
      },
      "symbol()": {
        "details": "Returns the symbol of the token, usually a shorter version of the name."
      },
      "totalSupply()": {
        "details": "See {IERC20-totalSupply}."
      },
      "transferFrom(address,address,uint256)": {
        "details": "See {IERC20-transferFrom}. Emits an {Approval} event indicating the updated allowance. This is not required by the EIP. See the note at the beginning of {ERC20}. Requirements: - `sender` and `recipient` cannot be the zero address. - `sender` must have a balance of at least `amount`. - the caller must have allowance for ``sender``'s tokens of at least `amount`."
      }
    },
    "title": "IOUtoken",
    "version": 1
  },
  "userdoc": {
    "kind": "user",
    "methods": {},
    "version": 1
  }
}