{
  "contractName": "IOUtoken",
  "abi": [
    {
      "inputs": [
        {
          "internalType": "string",
          "name": "name_",
          "type": "string"
        },
        {
          "internalType": "string",
          "name": "symbol_",
          "type": "string"
        }
      ],
      "stateMutability": "nonpayable",
      "type": "constructor"
    },
    {
      "anonymous": false,
      "inputs": [
        {
          "indexed": true,
          "internalType": "address",
          "name": "owner",
          "type": "address"
        },
        {
          "indexed": true,
          "internalType": "address",
          "name": "spender",
          "type": "address"
        },
        {
          "indexed": false,
          "internalType": "uint256",
          "name": "value",
          "type": "uint256"
        }
      ],
      "name": "Approval",
      "type": "event"
    },
    {
      "anonymous": false,
      "inputs": [
        {
          "indexed": true,
          "internalType": "address",
          "name": "from",
          "type": "address"
        },
        {
          "indexed": true,
          "internalType": "address",
          "name": "to",
          "type": "address"
        },
        {
          "indexed": false,
          "internalType": "uint256",
          "name": "value",
          "type": "uint256"
        }
      ],
      "name": "Transfer",
      "type": "event"
    },
    {
      "inputs": [
        {
          "internalType": "address",
          "name": "",
          "type": "address"
        },
        {
          "internalType": "uint256",
          "name": "",
          "type": "uint256"
        }
      ],
      "name": "IOUbyReceiver",
      "outputs": [
        {
          "internalType": "uint256",
          "name": "",
          "type": "uint256"
        }
      ],
      "stateMutability": "view",
      "type": "function"
    },
    {
      "inputs": [
        {
          "internalType": "uint256",
          "name": "",
          "type": "uint256"
        }
      ],
      "name": "allFeedbacks",
      "outputs": [
        {
          "internalType": "address",
          "name": "sender",
          "type": "address"
        },
        {
          "internalType": "uint256",
          "name": "time",
          "type": "uint256"
        },
        {
          "internalType": "int256",
          "name": "rating",
          "type": "int256"
        },
        {
          "internalType": "string",
          "name": "text",
          "type": "string"
        }
      ],
      "stateMutability": "view",
      "type": "function"
    },
    {
      "inputs": [
        {
          "internalType": "uint256",
          "name": "",
          "type": "uint256"
        }
      ],
      "name": "allIOUs",
      "outputs": [
        {
          "internalType": "address",
          "name": "receiver",
          "type": "address"
        },
        {
          "internalType": "uint256",
          "name": "time",
          "type": "uint256"
        },
        {
          "internalType": "string",
          "name": "IOUDescr",
          "type": "string"
        }
      ],
      "stateMutability": "view",
      "type": "function"
    },
    {
      "inputs": [
        {
          "internalType": "address",
          "name": "owner",
          "type": "address"
        },
        {
          "internalType": "address",
          "name": "spender",
          "type": "address"
        }
      ],
      "name": "allowance",
      "outputs": [
        {
          "internalType": "uint256",
          "name": "",
          "type": "uint256"
        }
      ],
      "stateMutability": "view",
      "type": "function"
    },
    {
      "inputs": [
        {
          "internalType": "address",
          "name": "spender",
          "type": "address"
        },
        {
          "internalType": "uint256",
          "name": "amount",
          "type": "uint256"
        }
      ],
      "name": "approve",
      "outputs": [
        {
          "internalType": "bool",
          "name": "",
          "type": "bool"
        }
      ],
      "stateMutability": "nonpayable",
      "type": "function"
    },
    {
      "inputs": [
        {
          "internalType": "address",
          "name": "account",
          "type": "address"
        }
      ],
      "name": "balanceOf",
      "outputs": [
        {
          "internalType": "uint256",
          "name": "",
          "type": "uint256"
        }
      ],
      "stateMutability": "view",
      "type": "function"
    },
    {
      "inputs": [],
      "name": "decimals",
      "outputs": [
        {
          "internalType": "uint8",
          "name": "",
          "type": "uint8"
        }
      ],
      "stateMutability": "view",
      "type": "function"
    },
    {
      "inputs": [
        {
          "internalType": "address",
          "name": "spender",
          "type": "address"
        },
        {
          "internalType": "uint256",
          "name": "subtractedValue",
          "type": "uint256"
        }
      ],
      "name": "decreaseAllowance",
      "outputs": [
        {
          "internalType": "bool",
          "name": "",
          "type": "bool"
        }
      ],
      "stateMutability": "nonpayable",
      "type": "function"
    },
    {
      "inputs": [
        {
          "internalType": "address",
          "name": "",
          "type": "address"
        },
        {
          "internalType": "uint256",
          "name": "",
          "type": "uint256"
        }
      ],
      "name": "feedBacksbySender",
      "outputs": [
        {
          "internalType": "uint256",
          "name": "",
          "type": "uint256"
        }
      ],
      "stateMutability": "view",
      "type": "function"
    },
    {
      "inputs": [
        {
          "internalType": "address",
          "name": "spender",
          "type": "address"
        },
        {
          "internalType": "uint256",
          "name": "addedValue",
          "type": "uint256"
        }
      ],
      "name": "increaseAllowance",
      "outputs": [
        {
          "internalType": "bool",
          "name": "",
          "type": "bool"
        }
      ],
      "stateMutability": "nonpayable",
      "type": "function"
    },
    {
      "inputs": [],
      "name": "name",
      "outputs": [
        {
          "internalType": "string",
          "name": "",
          "type": "string"
        }
      ],
      "stateMutability": "view",
      "type": "function"
    },
    {
      "inputs": [],
      "name": "symbol",
      "outputs": [
        {
          "internalType": "string",
          "name": "",
          "type": "string"
        }
      ],
      "stateMutability": "view",
      "type": "function"
    },
    {
      "inputs": [],
      "name": "totalSupply",
      "outputs": [
        {
          "internalType": "uint256",
          "name": "",
          "type": "uint256"
        }
      ],
      "stateMutability": "view",
      "type": "function"
    },
    {
      "inputs": [
        {
          "internalType": "address",
          "name": "sender",
          "type": "address"
        },
        {
          "internalType": "address",
          "name": "recipient",
          "type": "address"
        },
        {
          "internalType": "uint256",
          "name": "amount",
          "type": "uint256"
        }
      ],
      "name": "transferFrom",
      "outputs": [
        {
          "internalType": "bool",
          "name": "",
          "type": "bool"
        }
      ],
      "stateMutability": "nonpayable",
      "type": "function"
    },
    {
      "inputs": [
        {
          "internalType": "string",
          "name": "_name",
          "type": "string"
        },
        {
          "internalType": "string",
          "name": "_symbol",
          "type": "string"
        },
        {
          "internalType": "string",
          "name": "_myName",
          "type": "string"
        },
        {
          "internalType": "string",
          "name": "_socialProfile",
          "type": "string"
        },
        {
          "internalType": "string",
          "name": "_description",
          "type": "string"
        },
        {
          "internalType": "string",
          "name": "_location",
          "type": "string"
        },
        {
          "internalType": "bytes32",
          "name": "_units",
          "type": "bytes32"
        },
        {
          "internalType": "bytes32[]",
          "name": "_keywords",
          "type": "bytes32[]"
        },
        {
          "internalType": "address",
          "name": "_storeAddr",
          "type": "address"
        },
        {
          "internalType": "address",
          "name": "_issuer",
          "type": "address"
        }
      ],
      "name": "setIOU",
      "outputs": [],
      "stateMutability": "nonpayable",
      "type": "function"
    },
    {
      "inputs": [],
      "name": "getTokenInfo",
      "outputs": [
        {
          "internalType": "string",
          "name": "",
          "type": "string"
        },
        {
          "internalType": "string",
          "name": "",
          "type": "string"
        },
        {
          "components": [
            {
              "internalType": "uint256",
              "name": "totalMinted",
              "type": "uint256"
            },
            {
              "internalType": "uint256",
              "name": "totalBurned",
              "type": "uint256"
            },
            {
              "internalType": "int256",
              "name": "avRate",
              "type": "int256"
            },
            {
              "internalType": "bytes32",
              "name": "units",
              "type": "bytes32"
            },
            {
              "internalType": "address",
              "name": "issuer",
              "type": "address"
            },
            {
              "internalType": "string",
              "name": "myName",
              "type": "string"
            },
            {
              "internalType": "string",
              "name": "socialProfile",
              "type": "string"
            },
            {
              "internalType": "string",
              "name": "description",
              "type": "string"
            },
            {
              "internalType": "string",
              "name": "location",
              "type": "string"
            },
            {
              "internalType": "bytes32[]",
              "name": "keywords",
              "type": "bytes32[]"
            }
          ],
          "internalType": "struct iIOUtoken.DescriptionIOU",
          "name": "",
          "type": "tuple"
        }
      ],
      "stateMutability": "view",
      "type": "function"
    },
    {
      "inputs": [
        {
          "internalType": "address",
          "name": "_newOwner",
          "type": "address"
        }
      ],
      "name": "setOwner",
      "outputs": [],
      "stateMutability": "nonpayable",
      "type": "function"
    },
    {
      "inputs": [
        {
          "internalType": "address",
          "name": "_newfactor",
          "type": "address"
        }
      ],
      "name": "setStore",
      "outputs": [],
      "stateMutability": "nonpayable",
      "type": "function"
    },
    {
      "inputs": [
        {
          "internalType": "address",
          "name": "_who",
          "type": "address"
        },
        {
          "internalType": "uint256",
          "name": "_amount",
          "type": "uint256"
        },
        {
          "internalType": "string",
          "name": "_descr",
          "type": "string"
        }
      ],
      "name": "mint",
      "outputs": [],
      "stateMutability": "nonpayable",
      "type": "function"
    },
    {
      "inputs": [
        {
          "internalType": "uint256",
          "name": "_amount",
          "type": "uint256"
        },
        {
          "internalType": "int256",
          "name": "_rating",
          "type": "int256"
        },
        {
          "internalType": "string",
          "name": "_feedback",
          "type": "string"
        }
      ],
      "name": "burn",
      "outputs": [],
      "stateMutability": "nonpayable",
      "type": "function"
    },
    {
      "inputs": [
        {
          "internalType": "address",
          "name": "_recipient",
          "type": "address"
        },
        {
          "internalType": "uint256",
          "name": "_amount",
          "type": "uint256"
        }
      ],
      "name": "transfer",
      "outputs": [
        {
          "internalType": "bool",
          "name": "",
          "type": "bool"
        }
      ],
      "stateMutability": "nonpayable",
      "type": "function"
    },
    {
      "inputs": [],
      "name": "thisIOUkeywords",
      "outputs": [
        {
          "internalType": "bytes32[]",
          "name": "",
          "type": "bytes32[]"
        }
      ],
      "stateMutability": "view",
      "type": "function"
    },
    {
      "inputs": [],
      "name": "getlen",
      "outputs": [
        {
          "internalType": "uint256",
          "name": "",
          "type": "uint256"
        },
        {
          "internalType": "uint256",
          "name": "",
          "type": "uint256"
        }
      ],
      "stateMutability": "view",
      "type": "function"
    },
    {
      "inputs": [],
      "name": "thisIOUDesc",
      "outputs": [
        {
          "components": [
            {
              "internalType": "uint256",
              "name": "totalMinted",
              "type": "uint256"
            },
            {
              "internalType": "uint256",
              "name": "totalBurned",
              "type": "uint256"
            },
            {
              "internalType": "int256",
              "name": "avRate",
              "type": "int256"
            },
            {
              "internalType": "bytes32",
              "name": "units",
              "type": "bytes32"
            },
            {
              "internalType": "address",
              "name": "issuer",
              "type": "address"
            },
            {
              "internalType": "string",
              "name": "myName",
              "type": "string"
            },
            {
              "internalType": "string",
              "name": "socialProfile",
              "type": "string"
            },
            {
              "internalType": "string",
              "name": "description",
              "type": "string"
            },
            {
              "internalType": "string",
              "name": "location",
              "type": "string"
            },
            {
              "internalType": "bytes32[]",
              "name": "keywords",
              "type": "bytes32[]"
            }
          ],
          "internalType": "struct iIOUtoken.DescriptionIOU",
          "name": "",
          "type": "tuple"
        }
      ],
      "stateMutability": "view",
      "type": "function"
    },
    {
      "inputs": [],
      "name": "IOUname",
      "outputs": [
        {
          "internalType": "string",
          "name": "",
          "type": "string"
        }
      ],
      "stateMutability": "view",
      "type": "function"
    },
    {
      "inputs": [],
      "name": "IOUsymbol",
      "outputs": [
        {
          "internalType": "string",
          "name": "",
          "type": "string"
        }
      ],
      "stateMutability": "view",
      "type": "function"
    }
  ],
  "bytecode": "0x60806040523480156200001157600080fd5b506040516200459e3803806200459e8339818101604052810190620000379190620001d8565b8181816003908051906020019062000051929190620000b6565b5080600490805190602001906200006a929190620000b6565b50505033601460006101000a81548173ffffffffffffffffffffffffffffffffffffffff021916908373ffffffffffffffffffffffffffffffffffffffff1602179055505050620003bb565b828054620000c490620002e0565b90600052602060002090601f016020900481019282620000e8576000855562000134565b82601f106200010357805160ff191683800117855562000134565b8280016001018555821562000134579182015b828111156200013357825182559160200191906001019062000116565b5b50905062000143919062000147565b5090565b5b808211156200016257600081600090555060010162000148565b5090565b60006200017d620001778462000274565b6200024b565b9050828152602081018484840111156200019657600080fd5b620001a3848285620002aa565b509392505050565b600082601f830112620001bd57600080fd5b8151620001cf84826020860162000166565b91505092915050565b60008060408385031215620001ec57600080fd5b600083015167ffffffffffffffff8111156200020757600080fd5b6200021585828601620001ab565b925050602083015167ffffffffffffffff8111156200023357600080fd5b6200024185828601620001ab565b9150509250929050565b6000620002576200026a565b905062000265828262000316565b919050565b6000604051905090565b600067ffffffffffffffff8211156200029257620002916200037b565b5b6200029d82620003aa565b9050602081019050919050565b60005b83811015620002ca578082015181840152602081019050620002ad565b83811115620002da576000848401525b50505050565b60006002820490506001821680620002f957607f821691505b6020821081141562000310576200030f6200034c565b5b50919050565b6200032182620003aa565b810181811067ffffffffffffffff821117156200034357620003426200037b565b5b80604052505050565b7f4e487b7100000000000000000000000000000000000000000000000000000000600052602260045260246000fd5b7f4e487b7100000000000000000000000000000000000000000000000000000000600052604160045260246000fd5b6000601f19601f8301169050919050565b6141d380620003cb6000396000f3fe608060405234801561001057600080fd5b506004361061018e5760003560e01c806370a08231116100de578063a69bac2411610097578063b251131411610071578063b2511314146104c9578063d25b1c6d146104e7578063d3fc986414610517578063dd62ed3e146105335761018e565b8063a69bac2414610447578063a9059cbb14610479578063abb1dc44146104a95761018e565b806370a08231146103705780637fdcf01f146103a05780638acc5612146103bf57806395d89b41146103db5780639ee09506146103f9578063a457c2d7146104175761018e565b806314fcf3151161014b57806323b872dd1161012557806323b872dd146102d4578063313ce56714610304578063395093511461032257806358aee270146103525761018e565b806314fcf3151461025357806318160ddd146102835780631bbb6e58146102a15761018e565b806306fdde0314610193578063070df2d2146101b1578063087cbd40146101cd578063095ea7b3146101e95780630a5763641461021957806313af403514610237575b600080fd5b61019b610563565b6040516101a891906133df565b60405180910390f35b6101cb60048036038101906101c69190612c6b565b6105f5565b005b6101e760048036038101906101e29190612968565b610884565b005b61020360048036038101906101fe9190612a1c565b610958565b60405161021091906133c4565b60405180910390f35b610221610976565b60405161022e919061364d565b60405180910390f35b610251600480360381019061024c9190612968565b610caf565b005b61026d60048036038101906102689190612a1c565b610d83565b60405161027a919061366f565b60405180910390f35b61028b610db4565b604051610298919061366f565b60405180910390f35b6102bb60048036038101906102b69190612c42565b610dbe565b6040516102cb9493929190613318565b60405180910390f35b6102ee60048036038101906102e991906129cd565b610ea6565b6040516102fb91906133c4565b60405180910390f35b61030c610fa7565b60405161031991906136b3565b60405180910390f35b61033c60048036038101906103379190612a1c565b610fb0565b60405161034991906133c4565b60405180910390f35b61035a61105c565b60405161036791906133df565b60405180910390f35b61038a60048036038101906103859190612968565b61106b565b604051610397919061366f565b60405180910390f35b6103a86110b3565b6040516103b692919061368a565b60405180910390f35b6103d960048036038101906103d49190612abf565b6110ca565b005b6103e36113db565b6040516103f091906133df565b60405180910390f35b61040161146d565b60405161040e91906133df565b60405180910390f35b610431600480360381019061042c9190612a1c565b61147c565b60405161043e91906133c4565b60405180910390f35b610461600480360381019061045c9190612c42565b611570565b60405161047093929190613364565b60405180910390f35b610493600480360381019061048e9190612a1c565b611652565b6040516104a091906133c4565b60405180910390f35b6104b16116f8565b6040516104c093929190613401565b60405180910390f35b6104d1611a4d565b6040516104de91906133a2565b60405180910390f35b61050160048036038101906104fc9190612a1c565b611aa8565b60405161050e919061366f565b60405180910390f35b610531600480360381019061052c9190612a58565b611ad9565b005b61054d60048036038101906105489190612991565b611e79565b60405161055a919061366f565b60405180910390f35b60606003805461057290613bf1565b80601f016020809104026020016040519081016040528092919081815260200182805461059e90613bf1565b80156105eb5780601f106105c0576101008083540402835291602001916105eb565b820191906000526020600020905b8154815290600101906020018083116105ce57829003601f168201915b5050505050905090565b82806106003361106b565b11610640576040517f08c379a0000000000000000000000000000000000000000000000000000000008152600401610637906134ed565b60405180910390fd5b610100825110610685576040517f08c379a000000000000000000000000000000000000000000000000000000000815260040161067c906135cd565b60405180910390fd5b600060405180608001604052803373ffffffffffffffffffffffffffffffffffffffff168152602001428152602001858152602001848152509050601081908060018154018082558091505060019003906000526020600020906004020160009091909190915060008201518160000160006101000a81548173ffffffffffffffffffffffffffffffffffffffff021916908373ffffffffffffffffffffffffffffffffffffffff1602179055506020820151816001015560408201518160020155606082015181600301908051906020019061076392919061269d565b505050601160003373ffffffffffffffffffffffffffffffffffffffff1673ffffffffffffffffffffffffffffffffffffffff16815260200190815260200160002060016010805490506107b79190613b08565b908060018154018082558091505060019003906000526020600020016000909190919091505560006107e83361106b565b86866107f4919061395d565b6107fe91906138f3565b905060108054905060108054905082610817919061395d565b60016010805490506108299190613a74565b600660020154610839919061395d565b6108439190613809565b61084d91906138f3565b600660020181905550856006600101600082825461086b919061389d565b9250508190555061087c3387611f00565b505050505050565b3373ffffffffffffffffffffffffffffffffffffffff16601460009054906101000a900473ffffffffffffffffffffffffffffffffffffffff1673ffffffffffffffffffffffffffffffffffffffff1614610914576040517f08c379a000000000000000000000000000000000000000000000000000000000815260040161090b906135ad565b60405180910390fd5b80600560006101000a81548173ffffffffffffffffffffffffffffffffffffffff021916908373ffffffffffffffffffffffffffffffffffffffff16021790555050565b600061096c6109656120d4565b84846120dc565b6001905092915050565b61097e612723565b600660405180610140016040529081600082015481526020016001820154815260200160028201548152602001600382015481526020016004820160009054906101000a900473ffffffffffffffffffffffffffffffffffffffff1673ffffffffffffffffffffffffffffffffffffffff1673ffffffffffffffffffffffffffffffffffffffff168152602001600582018054610a1a90613bf1565b80601f0160208091040260200160405190810160405280929190818152602001828054610a4690613bf1565b8015610a935780601f10610a6857610100808354040283529160200191610a93565b820191906000526020600020905b815481529060010190602001808311610a7657829003601f168201915b50505050508152602001600682018054610aac90613bf1565b80601f0160208091040260200160405190810160405280929190818152602001828054610ad890613bf1565b8015610b255780601f10610afa57610100808354040283529160200191610b25565b820191906000526020600020905b815481529060010190602001808311610b0857829003601f168201915b50505050508152602001600782018054610b3e90613bf1565b80601f0160208091040260200160405190810160405280929190818152602001828054610b6a90613bf1565b8015610bb75780601f10610b8c57610100808354040283529160200191610bb7565b820191906000526020600020905b815481529060010190602001808311610b9a57829003601f168201915b50505050508152602001600882018054610bd090613bf1565b80601f0160208091040260200160405190810160405280929190818152602001828054610bfc90613bf1565b8015610c495780601f10610c1e57610100808354040283529160200191610c49565b820191906000526020600020905b815481529060010190602001808311610c2c57829003601f168201915b5050505050815260200160098201805480602002602001604051908101604052809291908181526020018280548015610ca157602002820191906000526020600020905b815481526020019060010190808311610c8d575b505050505081525050905090565b3373ffffffffffffffffffffffffffffffffffffffff16601560009054906101000a900473ffffffffffffffffffffffffffffffffffffffff1673ffffffffffffffffffffffffffffffffffffffff1614610d3f576040517f08c379a0000000000000000000000000000000000000000000000000000000008152600401610d369061350d565b60405180910390fd5b80601560006101000a81548173ffffffffffffffffffffffffffffffffffffffff021916908373ffffffffffffffffffffffffffffffffffffffff16021790555050565b60136020528160005260406000208181548110610d9f57600080fd5b90600052602060002001600091509150505481565b6000600254905090565b60108181548110610dce57600080fd5b90600052602060002090600402016000915090508060000160009054906101000a900473ffffffffffffffffffffffffffffffffffffffff1690806001015490806002015490806003018054610e2390613bf1565b80601f0160208091040260200160405190810160405280929190818152602001828054610e4f90613bf1565b8015610e9c5780601f10610e7157610100808354040283529160200191610e9c565b820191906000526020600020905b815481529060010190602001808311610e7f57829003601f168201915b5050505050905084565b6000610eb38484846122a7565b6000600160008673ffffffffffffffffffffffffffffffffffffffff1673ffffffffffffffffffffffffffffffffffffffff1681526020019081526020016000206000610efe6120d4565b73ffffffffffffffffffffffffffffffffffffffff1673ffffffffffffffffffffffffffffffffffffffff16815260200190815260200160002054905082811015610f7e576040517f08c379a0000000000000000000000000000000000000000000000000000000008152600401610f759061352d565b60405180910390fd5b610f9b85610f8a6120d4565b8584610f969190613b08565b6120dc565b60019150509392505050565b60006012905090565b6000611052610fbd6120d4565b848460016000610fcb6120d4565b73ffffffffffffffffffffffffffffffffffffffff1673ffffffffffffffffffffffffffffffffffffffff16815260200190815260200160002060008873ffffffffffffffffffffffffffffffffffffffff1673ffffffffffffffffffffffffffffffffffffffff1681526020019081526020016000205461104d919061389d565b6120dc565b6001905092915050565b60606110666113db565b905090565b60008060008373ffffffffffffffffffffffffffffffffffffffff1673ffffffffffffffffffffffffffffffffffffffff168152602001908152602001600020549050919050565b600080601280549050601080549050915091509091565b3373ffffffffffffffffffffffffffffffffffffffff16601460009054906101000a900473ffffffffffffffffffffffffffffffffffffffff1673ffffffffffffffffffffffffffffffffffffffff161461115a576040517f08c379a0000000000000000000000000000000000000000000000000000000008152600401611151906135ad565b60405180910390fd5b80601560006101000a81548173ffffffffffffffffffffffffffffffffffffffff021916908373ffffffffffffffffffffffffffffffffffffffff16021790555081600560006101000a81548173ffffffffffffffffffffffffffffffffffffffff021916908373ffffffffffffffffffffffffffffffffffffffff16021790555060108a5110806111ed5750600a8951105b806111f9575060408851105b80611205575060808751105b80611211575060808651105b8061121d575060808551105b8061122a57506005835111155b611269576040517f08c379a00000000000000000000000000000000000000000000000000000000081526004016112609061344d565b60405180910390fd5b6040518061014001604052806000815260200160008152602001600081526020018581526020018273ffffffffffffffffffffffffffffffffffffffff1681526020018981526020018881526020018781526020018681526020018481525060066000820151816000015560208201518160010155604082015181600201556060820151816003015560808201518160040160006101000a81548173ffffffffffffffffffffffffffffffffffffffff021916908373ffffffffffffffffffffffffffffffffffffffff16021790555060a082015181600501908051906020019061135592919061269d565b5060c082015181600601908051906020019061137292919061269d565b5060e082015181600701908051906020019061138f92919061269d565b506101008201518160080190805190602001906113ad92919061269d565b506101208201518160090190805190602001906113cb92919061278f565b5090505050505050505050505050565b6060600480546113ea90613bf1565b80601f016020809104026020016040519081016040528092919081815260200182805461141690613bf1565b80156114635780601f1061143857610100808354040283529160200191611463565b820191906000526020600020905b81548152906001019060200180831161144657829003601f168201915b5050505050905090565b6060611477610563565b905090565b6000806001600061148b6120d4565b73ffffffffffffffffffffffffffffffffffffffff1673ffffffffffffffffffffffffffffffffffffffff16815260200190815260200160002060008573ffffffffffffffffffffffffffffffffffffffff1673ffffffffffffffffffffffffffffffffffffffff16815260200190815260200160002054905082811015611548576040517f08c379a000000000000000000000000000000000000000000000000000000000815260040161153f9061360d565b60405180910390fd5b6115656115536120d4565b8585846115609190613b08565b6120dc565b600191505092915050565b6012818154811061158057600080fd5b90600052602060002090600302016000915090508060000160009054906101000a900473ffffffffffffffffffffffffffffffffffffffff16908060010154908060020180546115cf90613bf1565b80601f01602080910402602001604051908101604052809291908181526020018280546115fb90613bf1565b80156116485780601f1061161d57610100808354040283529160200191611648565b820191906000526020600020905b81548152906001019060200180831161162b57829003601f168201915b5050505050905083565b6000600560009054906101000a900473ffffffffffffffffffffffffffffffffffffffff1673ffffffffffffffffffffffffffffffffffffffff166323b3af8984306040518363ffffffff1660e01b81526004016116b19291906132aa565b600060405180830381600087803b1580156116cb57600080fd5b505af11580156116df573d6000803e3d6000fd5b505050506116ed8383612526565b506001905092915050565b606080611703612723565b61170b610563565b6117136113db565b60068060405180610140016040529081600082015481526020016001820154815260200160028201548152602001600382015481526020016004820160009054906101000a900473ffffffffffffffffffffffffffffffffffffffff1673ffffffffffffffffffffffffffffffffffffffff1673ffffffffffffffffffffffffffffffffffffffff1681526020016005820180546117b090613bf1565b80601f01602080910402602001604051908101604052809291908181526020018280546117dc90613bf1565b80156118295780601f106117fe57610100808354040283529160200191611829565b820191906000526020600020905b81548152906001019060200180831161180c57829003601f168201915b5050505050815260200160068201805461184290613bf1565b80601f016020809104026020016040519081016040528092919081815260200182805461186e90613bf1565b80156118bb5780601f10611890576101008083540402835291602001916118bb565b820191906000526020600020905b81548152906001019060200180831161189e57829003601f168201915b505050505081526020016007820180546118d490613bf1565b80601f016020809104026020016040519081016040528092919081815260200182805461190090613bf1565b801561194d5780601f106119225761010080835404028352916020019161194d565b820191906000526020600020905b81548152906001019060200180831161193057829003601f168201915b5050505050815260200160088201805461196690613bf1565b80601f016020809104026020016040519081016040528092919081815260200182805461199290613bf1565b80156119df5780601f106119b4576101008083540402835291602001916119df565b820191906000526020600020905b8154815290600101906020018083116119c257829003601f168201915b5050505050815260200160098201805480602002602001604051908101604052809291908181526020018280548015611a3757602002820191906000526020600020905b815481526020019060010190808311611a23575b5050505050815250509050925092509250909192565b60606006600901805480602002602001604051908101604052809291908181526020018280548015611a9e57602002820191906000526020600020905b815481526020019060010190808311611a8a575b5050505050905090565b60116020528160005260406000208181548110611ac457600080fd5b90600052602060002001600091509150505481565b3373ffffffffffffffffffffffffffffffffffffffff16601560009054906101000a900473ffffffffffffffffffffffffffffffffffffffff1673ffffffffffffffffffffffffffffffffffffffff1614611b69576040517f08c379a0000000000000000000000000000000000000000000000000000000008152600401611b609061350d565b60405180910390fd5b600560149054906101000a900460ff16611c3157600560009054906101000a900473ffffffffffffffffffffffffffffffffffffffff1673ffffffffffffffffffffffffffffffffffffffff166338a10485306006800160066009016040518463ffffffff1660e01b8152600401611be3939291906132d3565b600060405180830381600087803b158015611bfd57600080fd5b505af1158015611c11573d6000803e3d6000fd5b505050506001600560146101000a81548160ff0219169083151502179055505b610100815110611c76576040517f08c379a0000000000000000000000000000000000000000000000000000000008152600401611c6d9061358d565b60405180910390fd5b600060405180606001604052808573ffffffffffffffffffffffffffffffffffffffff168152602001428152602001838152509050601281908060018154018082558091505060019003906000526020600020906003020160009091909190915060008201518160000160006101000a81548173ffffffffffffffffffffffffffffffffffffffff021916908373ffffffffffffffffffffffffffffffffffffffff160217905550602082015181600101556040820151816002019080519060200190611d4492919061269d565b505050601360008573ffffffffffffffffffffffffffffffffffffffff1673ffffffffffffffffffffffffffffffffffffffff1681526020019081526020016000206001601280549050611d989190613b08565b9080600181540180825580915050600190039060005260206000200160009091909190915055611dc88484612544565b8260066000016000828254611ddd919061389d565b92505081905550600560009054906101000a900473ffffffffffffffffffffffffffffffffffffffff1673ffffffffffffffffffffffffffffffffffffffff166323b3af8985306040518363ffffffff1660e01b8152600401611e419291906132aa565b600060405180830381600087803b158015611e5b57600080fd5b505af1158015611e6f573d6000803e3d6000fd5b5050505050505050565b6000600160008473ffffffffffffffffffffffffffffffffffffffff1673ffffffffffffffffffffffffffffffffffffffff16815260200190815260200160002060008373ffffffffffffffffffffffffffffffffffffffff1673ffffffffffffffffffffffffffffffffffffffff16815260200190815260200160002054905092915050565b600073ffffffffffffffffffffffffffffffffffffffff168273ffffffffffffffffffffffffffffffffffffffff161415611f70576040517f08c379a0000000000000000000000000000000000000000000000000000000008152600401611f679061354d565b60405180910390fd5b611f7c82600083612698565b60008060008473ffffffffffffffffffffffffffffffffffffffff1673ffffffffffffffffffffffffffffffffffffffff16815260200190815260200160002054905081811015612002576040517f08c379a0000000000000000000000000000000000000000000000000000000008152600401611ff99061348d565b60405180910390fd5b818161200e9190613b08565b6000808573ffffffffffffffffffffffffffffffffffffffff1673ffffffffffffffffffffffffffffffffffffffff1681526020019081526020016000208190555081600260008282546120629190613b08565b92505081905550600073ffffffffffffffffffffffffffffffffffffffff168373ffffffffffffffffffffffffffffffffffffffff167fddf252ad1be2c89b69c2b068fc378daa952ba7f163c4a11628f55a4df523b3ef846040516120c7919061366f565b60405180910390a3505050565b600033905090565b600073ffffffffffffffffffffffffffffffffffffffff168373ffffffffffffffffffffffffffffffffffffffff16141561214c576040517f08c379a0000000000000000000000000000000000000000000000000000000008152600401612143906135ed565b60405180910390fd5b600073ffffffffffffffffffffffffffffffffffffffff168273ffffffffffffffffffffffffffffffffffffffff1614156121bc576040517f08c379a00000000000000000000000000000000000000000000000000000000081526004016121b3906134ad565b60405180910390fd5b80600160008573ffffffffffffffffffffffffffffffffffffffff1673ffffffffffffffffffffffffffffffffffffffff16815260200190815260200160002060008473ffffffffffffffffffffffffffffffffffffffff1673ffffffffffffffffffffffffffffffffffffffff168152602001908152602001600020819055508173ffffffffffffffffffffffffffffffffffffffff168373ffffffffffffffffffffffffffffffffffffffff167f8c5be1e5ebec7d5bd14f71427d1e84f3dd0314c0f7b2291e5b200ac8c7c3b9258360405161229a919061366f565b60405180910390a3505050565b600073ffffffffffffffffffffffffffffffffffffffff168373ffffffffffffffffffffffffffffffffffffffff161415612317576040517f08c379a000000000000000000000000000000000000000000000000000000000815260040161230e9061356d565b60405180910390fd5b600073ffffffffffffffffffffffffffffffffffffffff168273ffffffffffffffffffffffffffffffffffffffff161415612387576040517f08c379a000000000000000000000000000000000000000000000000000000000815260040161237e9061346d565b60405180910390fd5b612392838383612698565b60008060008573ffffffffffffffffffffffffffffffffffffffff1673ffffffffffffffffffffffffffffffffffffffff16815260200190815260200160002054905081811015612418576040517f08c379a000000000000000000000000000000000000000000000000000000000815260040161240f906134cd565b60405180910390fd5b81816124249190613b08565b6000808673ffffffffffffffffffffffffffffffffffffffff1673ffffffffffffffffffffffffffffffffffffffff16815260200190815260200160002081905550816000808573ffffffffffffffffffffffffffffffffffffffff1673ffffffffffffffffffffffffffffffffffffffff16815260200190815260200160002060008282546124b4919061389d565b925050819055508273ffffffffffffffffffffffffffffffffffffffff168473ffffffffffffffffffffffffffffffffffffffff167fddf252ad1be2c89b69c2b068fc378daa952ba7f163c4a11628f55a4df523b3ef84604051612518919061366f565b60405180910390a350505050565b600061253a6125336120d4565b84846122a7565b6001905092915050565b600073ffffffffffffffffffffffffffffffffffffffff168273ffffffffffffffffffffffffffffffffffffffff1614156125b4576040517f08c379a00000000000000000000000000000000000000000000000000000000081526004016125ab9061362d565b60405180910390fd5b6125c060008383612698565b80600260008282546125d2919061389d565b92505081905550806000808473ffffffffffffffffffffffffffffffffffffffff1673ffffffffffffffffffffffffffffffffffffffff1681526020019081526020016000206000828254612627919061389d565b925050819055508173ffffffffffffffffffffffffffffffffffffffff16600073ffffffffffffffffffffffffffffffffffffffff167fddf252ad1be2c89b69c2b068fc378daa952ba7f163c4a11628f55a4df523b3ef8360405161268c919061366f565b60405180910390a35050565b505050565b8280546126a990613bf1565b90600052602060002090601f0160209004810192826126cb5760008555612712565b82601f106126e457805160ff1916838001178555612712565b82800160010185558215612712579182015b828111156127115782518255916020019190600101906126f6565b5b50905061271f91906127dc565b5090565b60405180610140016040528060008152602001600081526020016000815260200160008019168152602001600073ffffffffffffffffffffffffffffffffffffffff16815260200160608152602001606081526020016060815260200160608152602001606081525090565b8280548282559060005260206000209081019282156127cb579160200282015b828111156127ca5782518255916020019190600101906127af565b5b5090506127d891906127f9565b5090565b5b808211156127f55760008160009055506001016127dd565b5090565b5b808211156128125760008160009055506001016127fa565b5090565b6000612829612824846136f3565b6136ce565b9050808382526020820190508285602086028201111561284857600080fd5b60005b85811015612878578161285e88826128ff565b84526020840193506020830192505060018101905061284b565b5050509392505050565b60006128956128908461371f565b6136ce565b9050828152602081018484840111156128ad57600080fd5b6128b8848285613baf565b509392505050565b6000813590506128cf81614141565b92915050565b600082601f8301126128e657600080fd5b81356128f6848260208601612816565b91505092915050565b60008135905061290e81614158565b92915050565b6000813590506129238161416f565b92915050565b600082601f83011261293a57600080fd5b813561294a848260208601612882565b91505092915050565b60008135905061296281614186565b92915050565b60006020828403121561297a57600080fd5b6000612988848285016128c0565b91505092915050565b600080604083850312156129a457600080fd5b60006129b2858286016128c0565b92505060206129c3858286016128c0565b9150509250929050565b6000806000606084860312156129e257600080fd5b60006129f0868287016128c0565b9350506020612a01868287016128c0565b9250506040612a1286828701612953565b9150509250925092565b60008060408385031215612a2f57600080fd5b6000612a3d858286016128c0565b9250506020612a4e85828601612953565b9150509250929050565b600080600060608486031215612a6d57600080fd5b6000612a7b868287016128c0565b9350506020612a8c86828701612953565b925050604084013567ffffffffffffffff811115612aa957600080fd5b612ab586828701612929565b9150509250925092565b6000806000806000806000806000806101408b8d031215612adf57600080fd5b60008b013567ffffffffffffffff811115612af957600080fd5b612b058d828e01612929565b9a505060208b013567ffffffffffffffff811115612b2257600080fd5b612b2e8d828e01612929565b99505060408b013567ffffffffffffffff811115612b4b57600080fd5b612b578d828e01612929565b98505060608b013567ffffffffffffffff811115612b7457600080fd5b612b808d828e01612929565b97505060808b013567ffffffffffffffff811115612b9d57600080fd5b612ba98d828e01612929565b96505060a08b013567ffffffffffffffff811115612bc657600080fd5b612bd28d828e01612929565b95505060c0612be38d828e016128ff565b94505060e08b013567ffffffffffffffff811115612c0057600080fd5b612c0c8d828e016128d5565b935050610100612c1e8d828e016128c0565b925050610120612c308d828e016128c0565b9150509295989b9194979a5092959850565b600060208284031215612c5457600080fd5b6000612c6284828501612953565b91505092915050565b600080600060608486031215612c8057600080fd5b6000612c8e86828701612953565b9350506020612c9f86828701612914565b925050604084013567ffffffffffffffff811115612cbc57600080fd5b612cc886828701612929565b9150509250925092565b6000612cde8383612e38565b60208301905092915050565b612cf381613b46565b82525050565b612d0281613b46565b82525050565b6000612d138261378a565b612d1d81856137c5565b9350612d2883613750565b8060005b83811015612d59578151612d408882612cd2565b9750612d4b836137ab565b925050600181019050612d2c565b5085935050505092915050565b6000612d718261378a565b612d7b81856137d6565b9350612d8683613750565b8060005b83811015612db7578151612d9e8882612cd2565b9750612da9836137ab565b925050600181019050612d8a565b5085935050505092915050565b6000612dcf82613795565b612dd981856137d6565b9350612de483613760565b8060005b83811015612e1c57612df982613d2a565b612e038882612cd2565b9750612e0e836137b8565b925050600181019050612de8565b5085935050505092915050565b612e3281613b58565b82525050565b612e4181613b64565b82525050565b612e5081613b6e565b82525050565b612e5f81613b6e565b82525050565b6000612e70826137a0565b612e7a81856137e7565b9350612e8a818560208601613bbe565b612e9381613d3d565b840191505092915050565b6000612ea9826137a0565b612eb381856137f8565b9350612ec3818560208601613bbe565b612ecc81613d3d565b840191505092915050565b60008154612ee481613bf1565b612eee81866137f8565b94506001821660008114612f095760018114612f1b57612f4e565b60ff1983168652602086019350612f4e565b612f2485613775565b60005b83811015612f4657815481890152600182019150602081019050612f27565b808801955050505b50505092915050565b6000612f64601b836137f8565b9150612f6f82613d5b565b602082019050919050565b6000612f876023836137f8565b9150612f9282613d84565b604082019050919050565b6000612faa6022836137f8565b9150612fb582613dd3565b604082019050919050565b6000612fcd6022836137f8565b9150612fd882613e22565b604082019050919050565b6000612ff06026836137f8565b9150612ffb82613e71565b604082019050919050565b6000613013601a836137f8565b915061301e82613ec0565b602082019050919050565b60006130366016836137f8565b915061304182613ee9565b602082019050919050565b60006130596028836137f8565b915061306482613f12565b604082019050919050565b600061307c6021836137f8565b915061308782613f61565b604082019050919050565b600061309f6025836137f8565b91506130aa82613fb0565b604082019050919050565b60006130c2601c836137f8565b91506130cd82613fff565b602082019050919050565b60006130e56018836137f8565b91506130f082614028565b602082019050919050565b6000613108601f836137f8565b915061311382614051565b602082019050919050565b600061312b6024836137f8565b91506131368261407a565b604082019050919050565b600061314e6025836137f8565b9150613159826140c9565b604082019050919050565b6000613171601f836137f8565b915061317c82614118565b602082019050919050565b6000610140830160008301516131a0600086018261327d565b5060208301516131b3602086018261327d565b5060408301516131c66040860182612e47565b5060608301516131d96060860182612e38565b5060808301516131ec6080860182612cea565b5060a083015184820360a08601526132048282612e65565b91505060c083015184820360c086015261321e8282612e65565b91505060e083015184820360e08601526132388282612e65565b9150506101008301518482036101008601526132548282612e65565b9150506101208301518482036101208601526132708282612d08565b9150508091505092915050565b61328681613b98565b82525050565b61329581613b98565b82525050565b6132a481613ba2565b82525050565b60006040820190506132bf6000830185612cf9565b6132cc6020830184612cf9565b9392505050565b60006060820190506132e86000830186612cf9565b81810360208301526132fa8185612ed7565b9050818103604083015261330e8184612dc4565b9050949350505050565b600060808201905061332d6000830187612cf9565b61333a602083018661328c565b6133476040830185612e56565b81810360608301526133598184612e9e565b905095945050505050565b60006060820190506133796000830186612cf9565b613386602083018561328c565b81810360408301526133988184612e9e565b9050949350505050565b600060208201905081810360008301526133bc8184612d66565b905092915050565b60006020820190506133d96000830184612e29565b92915050565b600060208201905081810360008301526133f98184612e9e565b905092915050565b6000606082019050818103600083015261341b8186612e9e565b9050818103602083015261342f8185612e9e565b905081810360408301526134438184613187565b9050949350505050565b6000602082019050818103600083015261346681612f57565b9050919050565b6000602082019050818103600083015261348681612f7a565b9050919050565b600060208201905081810360008301526134a681612f9d565b9050919050565b600060208201905081810360008301526134c681612fc0565b9050919050565b600060208201905081810360008301526134e681612fe3565b9050919050565b6000602082019050818103600083015261350681613006565b9050919050565b6000602082019050818103600083015261352681613029565b9050919050565b600060208201905081810360008301526135468161304c565b9050919050565b600060208201905081810360008301526135668161306f565b9050919050565b6000602082019050818103600083015261358681613092565b9050919050565b600060208201905081810360008301526135a6816130b5565b9050919050565b600060208201905081810360008301526135c6816130d8565b9050919050565b600060208201905081810360008301526135e6816130fb565b9050919050565b600060208201905081810360008301526136068161311e565b9050919050565b6000602082019050818103600083015261362681613141565b9050919050565b6000602082019050818103600083015261364681613164565b9050919050565b600060208201905081810360008301526136678184613187565b905092915050565b6000602082019050613684600083018461328c565b92915050565b600060408201905061369f600083018561328c565b6136ac602083018461328c565b9392505050565b60006020820190506136c8600083018461329b565b92915050565b60006136d86136e9565b90506136e48282613c3d565b919050565b6000604051905090565b600067ffffffffffffffff82111561370e5761370d613cfb565b5b602082029050602081019050919050565b600067ffffffffffffffff82111561373a57613739613cfb565b5b61374382613d3d565b9050602081019050919050565b6000819050602082019050919050565b60008190508160005260206000209050919050565b60008190508160005260206000209050919050565b600081519050919050565b600081549050919050565b600081519050919050565b6000602082019050919050565b6000600182019050919050565b600082825260208201905092915050565b600082825260208201905092915050565b600082825260208201905092915050565b600082825260208201905092915050565b600061381482613b6e565b915061381f83613b6e565b9250817f7fffffffffffffffffffffffffffffffffffffffffffffffffffffffffffffff0383136000831215161561385a57613859613c6e565b5b817f800000000000000000000000000000000000000000000000000000000000000003831260008312161561389257613891613c6e565b5b828201905092915050565b60006138a882613b98565b91506138b383613b98565b9250827fffffffffffffffffffffffffffffffffffffffffffffffffffffffffffffffff038211156138e8576138e7613c6e565b5b828201905092915050565b60006138fe82613b6e565b915061390983613b6e565b92508261391957613918613c9d565b5b600160000383147f80000000000000000000000000000000000000000000000000000000000000008314161561395257613951613c6e565b5b828205905092915050565b600061396882613b6e565b915061397383613b6e565b9250827f7fffffffffffffffffffffffffffffffffffffffffffffffffffffffffffffff04821160008413600084131616156139b2576139b1613c6e565b5b817f800000000000000000000000000000000000000000000000000000000000000005831260008412600084131616156139ef576139ee613c6e565b5b827f80000000000000000000000000000000000000000000000000000000000000000582126000841360008412161615613a2c57613a2b613c6e565b5b827f7fffffffffffffffffffffffffffffffffffffffffffffffffffffffffffffff0582126000841260008412161615613a6957613a68613c6e565b5b828202905092915050565b6000613a7f82613b6e565b9150613a8a83613b6e565b9250827f800000000000000000000000000000000000000000000000000000000000000001821260008412151615613ac557613ac4613c6e565b5b827f7fffffffffffffffffffffffffffffffffffffffffffffffffffffffffffffff018213600084121615613afd57613afc613c6e565b5b828203905092915050565b6000613b1382613b98565b9150613b1e83613b98565b925082821015613b3157613b30613c6e565b5b828203905092915050565b6000819050919050565b6000613b5182613b78565b9050919050565b60008115159050919050565b6000819050919050565b6000819050919050565b600073ffffffffffffffffffffffffffffffffffffffff82169050919050565b6000819050919050565b600060ff82169050919050565b82818337600083830152505050565b60005b83811015613bdc578082015181840152602081019050613bc1565b83811115613beb576000848401525b50505050565b60006002820490506001821680613c0957607f821691505b60208210811415613c1d57613c1c613ccc565b5b50919050565b6000613c36613c3183613d4e565b613b3c565b9050919050565b613c4682613d3d565b810181811067ffffffffffffffff82111715613c6557613c64613cfb565b5b80604052505050565b7f4e487b7100000000000000000000000000000000000000000000000000000000600052601160045260246000fd5b7f4e487b7100000000000000000000000000000000000000000000000000000000600052601260045260246000fd5b7f4e487b7100000000000000000000000000000000000000000000000000000000600052602260045260246000fd5b7f4e487b7100000000000000000000000000000000000000000000000000000000600052604160045260246000fd5b6000613d368254613c23565b9050919050565b6000601f19601f8301169050919050565b60008160001c9050919050565b7f546f6f206d616e792073796d627320696e20706172616d657465720000000000600082015250565b7f45524332303a207472616e7366657220746f20746865207a65726f206164647260008201527f6573730000000000000000000000000000000000000000000000000000000000602082015250565b7f45524332303a206275726e20616d6f756e7420657863656564732062616c616e60008201527f6365000000000000000000000000000000000000000000000000000000000000602082015250565b7f45524332303a20617070726f766520746f20746865207a65726f20616464726560008201527f7373000000000000000000000000000000000000000000000000000000000000602082015250565b7f45524332303a207472616e7366657220616d6f756e742065786365656473206260008201527f616c616e63650000000000000000000000000000000000000000000000000000602082015250565b7f4e6f20616d6f756e7420746f6b656e20686f6c64657220686173000000000000600082015250565b7f4f6e6c79206f776e65722063616e20646f207468697300000000000000000000600082015250565b7f45524332303a207472616e7366657220616d6f756e742065786365656473206160008201527f6c6c6f77616e6365000000000000000000000000000000000000000000000000602082015250565b7f45524332303a206275726e2066726f6d20746865207a65726f2061646472657360008201527f7300000000000000000000000000000000000000000000000000000000000000602082015250565b7f45524332303a207472616e736665722066726f6d20746865207a65726f20616460008201527f6472657373000000000000000000000000000000000000000000000000000000602082015250565b7f494f552074657874206973206c6f6e672c206e656564203c2032353600000000600082015250565b7f4f6e6c7920666163746f72792063616e20646f20746869730000000000000000600082015250565b7f466565646261636b206973206c6f6e672c206d757374206265203c2032353600600082015250565b7f45524332303a20617070726f76652066726f6d20746865207a65726f2061646460008201527f7265737300000000000000000000000000000000000000000000000000000000602082015250565b7f45524332303a2064656372656173656420616c6c6f77616e63652062656c6f7760008201527f207a65726f000000000000000000000000000000000000000000000000000000602082015250565b7f45524332303a206d696e7420746f20746865207a65726f206164647265737300600082015250565b61414a81613b46565b811461415557600080fd5b50565b61416181613b64565b811461416c57600080fd5b50565b61417881613b6e565b811461418357600080fd5b50565b61418f81613b98565b811461419a57600080fd5b5056fea26469706673582212204b366e1f6452a7136a4b7b7cb918e542bc4880c8cce2777db672d4207539c73464736f6c63430008040033",
  "immutableReferences": {},
  "source": "pragma solidity>= 0.8.0;\npragma experimental ABIEncoderV2;\nimport \"@openzeppelin/contracts/token/ERC20/ERC20.sol\";\nimport \"./StoreIOUs.sol\";\nimport  \"./interfaces/iIOUtoken.sol\";\n\n/*** IOU ecosystem\n*   The aim of IOU ecosystem is to give people proved fiat-free mutual settlements by issuing personal IOU tokens on Ethereum.\n*   \n*   1.Alice, the artist,  wants to get service from Bob, the barber but has no money. But she can issue ERC20 compatible IOU token  and fill this:\n*   name of the token (Alice Artist 2020)\n*   symbol of the token (AA01)\n*   description of service (Artist: logos, infographic, cartoons)\n*   location (New York)\n*   social profile in LinkedIn (or Facebook or  smth else)\n*   units (dollars, euros, hours, pictures)\n*   2. Alice negotiated the sum of her AA01 tokens,  transfers this to Bob, and get the beautiful hairstyle. And this deal fixes in the blockchain forever.\n*   3. Two-month later Bob asked her later for a cartoon about his hairdressing salon.\n*   4. After Alice made her job, Bob burns a part of  Alices IOU tokens and puts feedback, adding a rating of results.\n*   5. Later Bob pays with Alices AA01 tokens to Peter, the webmaster, who supports Bobs salon website. Peter looks for a fresh infographic for another project.\n*   6. Peter doesnt know Alice personally and he wants to check Alices reputation. He gets the history of Alices deals and looks feedbacks and rates, given to Alice. From another user s of IOU tokens, number of transactions and supply amount.\n*   7. If he decides that all ok, he approve the deal in Alice's IOU tokens.\n*   8. After Piter receives results, hi burned tokens and gives his feedback too.\n*/\n/// @author stanta\n/// @title IOUtoken\ncontract IOUtoken is iIOUtoken, ERC20 {\n\n  \n    StoreIOUs StoreIOU;\n \n    bool registered;\n\n    DescriptionIOU  thisIOU;\n\n    FeedBack[] public allFeedbacks;\n    mapping (address => uint256[]) public feedBacksbySender; // feedback from tokenholders\n\n    IOU[] public allIOUs;\n    mapping (address => uint256[]) public IOUbyReceiver; // list of this IOUs by receiver\n\n    address factory;\n    address owner;\n    //mapping (address => uint) Tokenholders;\n\n    constructor (string memory name_, string memory symbol_)  ERC20 (name_, symbol_) {\n        factory = msg.sender;\n    }\n    modifier onlyfactory() {\n        require (factory == msg.sender, \"Only factory can do this\");\n        _;\n    }\n\n    modifier onlyOwner() {\n        require (owner == msg.sender, \"Only owner can do this\");\n        _;\n    }\n\n    function setIOU (string memory _name, \n                 string memory _symbol,  \n                 string memory _myName, // of emitter\n                 string memory _socialProfile, //profile  of emitter in social nets\n                 string memory _description, //description of bond IOU to  work\n                 string memory _location, //where is \n                 bytes32  _units, //units of deal\n                 bytes32[] memory _keywords,\n                 address _storeAddr,\n                 address _issuer\n                ) public onlyfactory {\n/*         _removeMinter(msg.sender);\n        _addMinter (_issuer); */\n        \n        owner = _issuer;\n        StoreIOU = StoreIOUs(_storeAddr);\n        require (bytes(_name).length <16 || \n                bytes(_symbol).length < 10 ||\n                bytes(_myName).length < 64 ||\n                bytes(_socialProfile).length < 128 ||\n                bytes(_description).length < 128 ||\n                bytes(_location).length < 128 ||\n                _keywords.length <=5 , \n                \"Too many symbs in parameter\" );\n\n        thisIOU = iIOUtoken.DescriptionIOU (0,0,0,\n            _units,\n            _issuer,\n            _myName,\n            _socialProfile,\n            _description,\n            _location,\n            _keywords\n        );\n\n    }\n    \n\n    function getTokenInfo() public view returns(string memory,\n                                           string memory,\n                                           iIOUtoken.DescriptionIOU memory ) {\n        return(name(), symbol(), thisIOU);\n\n    }\n\n    function setOwner (address _newOwner) public onlyOwner {\n   //     _removeMinter(owner);\n        owner = _newOwner;\n  //      _addMinter(_newOwner);\n    }\n\n    function setStore (address _newfactor) public onlyfactory {\n        StoreIOU = StoreIOUs(_newfactor);\n        \n    }   \n    \n    modifier onlyHolder (uint256 _amount) {\n        require (balanceOf(msg.sender) > _amount, \"No amount token holder has\" );\n    _;\n    }\n\n    function mint (address _who, uint256 _amount, string memory _descr) public onlyOwner { \n        if (!registered) {\n            StoreIOU.addIOU2(address(this), thisIOU.socialProfile, thisIOU.keywords);\n            registered = true; \n            }\n        require (bytes(_descr).length <256, \"IOU text is long, need < 256\");\n        IOU memory bond = IOU (_who, block.timestamp, _descr);\n        allIOUs.push(bond);\n        IOUbyReceiver[_who].push(allIOUs.length-1);\n        _mint(_who, _amount);\n        thisIOU.totalMinted += _amount;\n        StoreIOU.addHolder(_who, address(this));\n        \n    }\n\n    function burn (uint256 _amount, int256 _rating, string memory _feedback) public onlyHolder (_amount) {\n        require (bytes(_feedback).length <256, \"Feedback is long, must be < 256\");\n\n        iIOUtoken.FeedBack memory feedback = iIOUtoken.FeedBack(msg.sender,block.timestamp, _rating, _feedback);\n        allFeedbacks.push(feedback);\n        feedBacksbySender[msg.sender].push(allFeedbacks.length-1);\n        \n        int256 deltaRate = _rating * int256(_amount) / int256 (balanceOf(msg.sender));\n\n        thisIOU.avRate = (thisIOU.avRate * (int256(allFeedbacks.length) -1) + \n                        deltaRate  * int256(allFeedbacks.length)) / int256(allFeedbacks.length);\n                        \n\n        thisIOU.totalBurned += _amount;\n        _burn(msg.sender, _amount);\n    }\n\n    function transfer(address _recipient, uint256 _amount) public override returns (bool) {\n        StoreIOU.addHolder(_recipient, address(this));\n        super.transfer(_recipient, _amount);\n        return true;\n    }\n\n    function thisIOUkeywords() public view returns (bytes32[] memory)\n    {\n        return thisIOU.keywords;\n    }\n\n    function getlen ()  public view returns (uint256, uint256) {\n        return (allIOUs.length, allFeedbacks.length);\n    } \n\n    function thisIOUDesc () public view override returns (DescriptionIOU memory)\n    {    return thisIOU;\n    }\n    function IOUname () public view override returns (string memory)\n    {    return name();\n    }\n    function IOUsymbol () public view override returns (string memory)\n    {    return symbol ();\n    }\n}\n",
  "sourcePath": "/Users/pro/Development/blockchain/IOU/iou2/contracts/IOUtoken.sol",
  "compiler": {
    "name": "solc",
    "version": "0.8.4+commit.c7e474f2.Emscripten.clang"
  },
  "schemaVersion": "3.3.3",
  "updatedAt": "2021-07-26T07:50:33.118Z",
  "devdoc": {
    "author": "stanta",
    "kind": "dev",
    "methods": {
      "allowance(address,address)": {
        "details": "See {IERC20-allowance}."
      },
      "approve(address,uint256)": {
        "details": "See {IERC20-approve}. Requirements: - `spender` cannot be the zero address."
      },
      "balanceOf(address)": {
        "details": "See {IERC20-balanceOf}."
      },
      "decimals()": {
        "details": "Returns the number of decimals used to get its user representation. For example, if `decimals` equals `2`, a balance of `505` tokens should be displayed to a user as `5,05` (`505 / 10 ** 2`). Tokens usually opt for a value of 18, imitating the relationship between Ether and Wei. This is the value {ERC20} uses, unless this function is overridden; NOTE: This information is only used for _display_ purposes: it in no way affects any of the arithmetic of the contract, including {IERC20-balanceOf} and {IERC20-transfer}."
      },
      "decreaseAllowance(address,uint256)": {
        "details": "Atomically decreases the allowance granted to `spender` by the caller. This is an alternative to {approve} that can be used as a mitigation for problems described in {IERC20-approve}. Emits an {Approval} event indicating the updated allowance. Requirements: - `spender` cannot be the zero address. - `spender` must have allowance for the caller of at least `subtractedValue`."
      },
      "increaseAllowance(address,uint256)": {
        "details": "Atomically increases the allowance granted to `spender` by the caller. This is an alternative to {approve} that can be used as a mitigation for problems described in {IERC20-approve}. Emits an {Approval} event indicating the updated allowance. Requirements: - `spender` cannot be the zero address."
      },
      "name()": {
        "details": "Returns the name of the token."
      },
      "symbol()": {
        "details": "Returns the symbol of the token, usually a shorter version of the name."
      },
      "totalSupply()": {
        "details": "See {IERC20-totalSupply}."
      },
      "transferFrom(address,address,uint256)": {
        "details": "See {IERC20-transferFrom}. Emits an {Approval} event indicating the updated allowance. This is not required by the EIP. See the note at the beginning of {ERC20}. Requirements: - `sender` and `recipient` cannot be the zero address. - `sender` must have a balance of at least `amount`. - the caller must have allowance for ``sender``'s tokens of at least `amount`."
      }
    },
    "title": "IOUtoken",
    "version": 1
  },
  "userdoc": {
    "kind": "user",
    "methods": {},
    "version": 1
  }
}