{
  "contractName": "MakeIOU",
  "abi": [
    {
      "inputs": [],
      "stateMutability": "nonpayable",
      "type": "constructor"
    },
    {
      "inputs": [
        {
          "internalType": "address",
          "name": "_newOwner",
          "type": "address"
        }
      ],
      "name": "setOwner",
      "outputs": [],
      "stateMutability": "nonpayable",
      "type": "function"
    },
    {
      "inputs": [
        {
          "internalType": "address",
          "name": "_newOwner",
          "type": "address"
        }
      ],
      "name": "setStore",
      "outputs": [],
      "stateMutability": "nonpayable",
      "type": "function"
    },
    {
      "inputs": [
        {
          "internalType": "string",
          "name": "_name",
          "type": "string"
        },
        {
          "internalType": "string",
          "name": "_symbol",
          "type": "string"
        },
        {
          "internalType": "string",
          "name": "_myName",
          "type": "string"
        },
        {
          "internalType": "string",
          "name": "_socialProfile",
          "type": "string"
        },
        {
          "internalType": "string",
          "name": "_description",
          "type": "string"
        },
        {
          "components": [
            {
              "internalType": "string",
              "name": "country",
              "type": "string"
            },
            {
              "internalType": "string",
              "name": "state",
              "type": "string"
            },
            {
              "internalType": "string",
              "name": "city",
              "type": "string"
            },
            {
              "internalType": "string",
              "name": "street",
              "type": "string"
            }
          ],
          "internalType": "struct iIOUtoken.geo",
          "name": "_location",
          "type": "tuple"
        },
        {
          "internalType": "bytes32",
          "name": "_units",
          "type": "bytes32"
        },
        {
          "internalType": "bytes32[]",
          "name": "_keywords",
          "type": "bytes32[]"
        },
        {
          "internalType": "bytes32",
          "name": "_phone",
          "type": "bytes32"
        }
      ],
      "name": "makeIOU",
      "outputs": [
        {
          "internalType": "address",
          "name": "",
          "type": "address"
        }
      ],
      "stateMutability": "nonpayable",
      "type": "function"
    }
  ],
  "bytecode": "0x608060405234801561001057600080fd5b50600080546001600160a01b03191633179055613880806100326000396000f3fe60806040523480156200001157600080fd5b5060043610620000465760003560e01c8063087cbd40146200004b57806313af40351462000064578063a3af7487146200007b575b600080fd5b620000626200005c36600462000505565b620000ae565b005b620000626200007536600462000505565b62000129565b620000926200008c36600462000535565b620001a0565b6040516001600160a01b03909116815260200160405180910390f35b6000546001600160a01b03163314620001075760405162461bcd60e51b81526020600482015260166024820152754f6e6c79206f776e65722063616e20646f207468697360501b60448201526064015b60405180910390fd5b600180546001600160a01b0319166001600160a01b0392909216919091179055565b6000546001600160a01b031633146200017e5760405162461bcd60e51b81526020600482015260166024820152754f6e6c79206f776e65722063616e20646f207468697360501b6044820152606401620000fe565b600080546001600160a01b0319166001600160a01b0392909216919091179055565b6000808a8a604051620001b39062000332565b620001c09291906200076f565b604051809103906000f080158015620001dd573d6000803e3d6000fd5b509050806001600160a01b0316633647fd748c8c8c8c8c8c8c8c600160009054906101000a90046001600160a01b0316338e6040518c63ffffffff1660e01b8152600401620002379b9a9998979695949392919062000798565b600060405180830381600087803b1580156200025257600080fd5b505af115801562000267573d6000803e3d6000fd5b50506001546001600160a01b031615159150620002bc90505760405162461bcd60e51b815260206004820152601060248201526f4e6f2073746f7265206164647265737360801b6044820152606401620000fe565b600154604051632c4ce8a160e11b81526001600160a01b03838116600483015233602483015290911690635899d14290604401600060405180830381600087803b1580156200030a57600080fd5b505af11580156200031f573d6000803e3d6000fd5b50929d9c50505050505050505050505050565b612f5e80620008ed83390190565b600082601f83011262000351578081fd5b8135602067ffffffffffffffff821115620003705762000370620008d6565b8160051b62000381828201620008a2565b8381528281019086840183880185018910156200039c578687fd5b8693505b85841015620003c0578035835260019390930192918401918401620003a0565b50979650505050505050565b600082601f830112620003dd578081fd5b813567ffffffffffffffff811115620003fa57620003fa620008d6565b6200040f601f8201601f1916602001620008a2565b81815284602083860101111562000424578283fd5b816020850160208301379081016020019190915292915050565b60006080828403121562000450578081fd5b6200045a62000876565b9050813567ffffffffffffffff808211156200047557600080fd5b6200048385838601620003cc565b835260208401359150808211156200049a57600080fd5b620004a885838601620003cc565b60208401526040840135915080821115620004c257600080fd5b620004d085838601620003cc565b60408401526060840135915080821115620004ea57600080fd5b50620004f984828501620003cc565b60608301525092915050565b60006020828403121562000517578081fd5b81356001600160a01b03811681146200052e578182fd5b9392505050565b60008060008060008060008060006101208a8c03121562000554578485fd5b893567ffffffffffffffff808211156200056c578687fd5b6200057a8d838e01620003cc565b9a5060208c013591508082111562000590578687fd5b6200059e8d838e01620003cc565b995060408c0135915080821115620005b4578687fd5b620005c28d838e01620003cc565b985060608c0135915080821115620005d8578687fd5b620005e68d838e01620003cc565b975060808c0135915080821115620005fc578687fd5b6200060a8d838e01620003cc565b965060a08c013591508082111562000620578586fd5b6200062e8d838e016200043e565b955060c08c0135945060e08c01359150808211156200064b578384fd5b506200065a8c828d0162000340565b9250506101008a013590509295985092959850929598565b6000815180845260208085019450808401835b83811015620006a35781518752958201959082019060010162000685565b509495945050505050565b60008151808452815b81811015620006d557602081850181015186830182015201620006b7565b81811115620006e75782602083870101525b50601f01601f19169290920160200192915050565b6000815160808452620007136080850182620006ae565b9050602083015184820360208601526200072e8282620006ae565b915050604083015184820360408601526200074a8282620006ae565b91505060608301518482036060860152620007668282620006ae565b95945050505050565b604081526000620007846040830185620006ae565b8281036020840152620007668185620006ae565b6000610160808352620007ae8184018f620006ae565b90508281036020840152620007c4818e620006ae565b90508281036040840152620007da818d620006ae565b90508281036060840152620007f0818c620006ae565b9050828103608084015262000806818b620006ae565b905082810360a08401526200081c818a620006fc565b90508760c084015282810360e084015262000838818862000672565b915050620008526101008301866001600160a01b03169052565b6001600160a01b039390931661012082015261014001529998505050505050505050565b6040516080810167ffffffffffffffff811182821017156200089c576200089c620008d6565b60405290565b604051601f8201601f1916810167ffffffffffffffff81118282101715620008ce57620008ce620008d6565b604052919050565b634e487b7160e01b600052604160045260246000fdfe60806040523480156200001157600080fd5b5060405162002f5e38038062002f5e8339810160408190526200003491620001da565b8151829082906200004d90600390602085019062000081565b5080516200006390600490602084019062000081565b5050601880546001600160a01b031916331790555062000294915050565b8280546200008f9062000241565b90600052602060002090601f016020900481019282620000b35760008555620000fe565b82601f10620000ce57805160ff1916838001178555620000fe565b82800160010185558215620000fe579182015b82811115620000fe578251825591602001919060010190620000e1565b506200010c92915062000110565b5090565b5b808211156200010c576000815560010162000111565b600082601f83011262000138578081fd5b81516001600160401b03808211156200015557620001556200027e565b604051601f8301601f19908116603f011681019082821181831017156200018057620001806200027e565b816040528381526020925086838588010111156200019c578485fd5b8491505b83821015620001bf5785820183015181830184015290820190620001a0565b83821115620001d057848385830101525b9695505050505050565b60008060408385031215620001ed578182fd5b82516001600160401b038082111562000204578384fd5b620002128683870162000127565b9350602085015191508082111562000228578283fd5b50620002378582860162000127565b9150509250929050565b600181811c908216806200025657607f821691505b602082108114156200027857634e487b7160e01b600052602260045260246000fd5b50919050565b634e487b7160e01b600052604160045260246000fd5b612cba80620002a46000396000f3fe608060405234801561001057600080fd5b50600436106101a95760003560e01c806358aee270116100f9578063a9059cbb11610097578063d25b1c6d11610071578063d25b1c6d146103a3578063d3fc9864146103b6578063dd62ed3e146103c9578063e5fefded1461040257600080fd5b8063a9059cbb14610364578063abb1dc4414610377578063b25113141461038e57600080fd5b806395d89b41116100d357806395d89b411461031f5780639ee0950614610327578063a457c2d71461032f578063a69bac241461034257600080fd5b806358aee270146102d357806370a08231146102db5780637fdcf01f1461030457600080fd5b806314fcf3151161016657806323b872dd1161014057806323b872dd1461028b578063313ce5671461029e5780633647fd74146102ad57806339509351146102c057600080fd5b806314fcf3151461023f57806318160ddd146102605780631bbb6e581461026857600080fd5b806306fdde03146101ae578063070df2d2146101cc578063087cbd40146101e1578063095ea7b3146101f45780630a5763641461021757806313af40351461022c575b600080fd5b6101b661040a565b6040516101c391906129c8565b60405180910390f35b6101df6101da366004612626565b61049c565b005b6101df6101ef3660046123b2565b61072a565b610207610202366004612440565b6107a1565b60405190151581526020016101c3565b61021f6107b7565b6040516101c39190612a44565b6101df61023a3660046123b2565b610c7a565b61025261024d366004612440565b610cc6565b6040519081526020016101c3565b600254610252565b61027b61027636600461260e565b610cf7565b6040516101c39493929190612926565b610207610299366004612405565b610dc9565b604051601281526020016101c3565b6101df6102bb3660046124be565b610e73565b6102076102ce366004612440565b61110b565b6101b6611147565b6102526102e93660046123b2565b6001600160a01b031660009081526020819052604090205490565b601654601454604080519283526020830191909152016101c3565b6101b6611156565b6101b6611165565b61020761033d366004612440565b61116f565b61035561035036600461260e565b611208565b6040516101c39392919061295d565b610207610372366004612440565b6112d1565b61037f611341565b6040516101c3939291906129db565b61039661181d565b6040516101c39190612984565b6102526103b1366004612440565b611877565b6101df6103c4366004612469565b611893565b6102526103d73660046123d3565b6001600160a01b03918216600090815260016020908152604080832093909416825291909152205490565b6101df611b3c565b60606003805461041990612c1d565b80601f016020809104026020016040519081016040528092919081815260200182805461044590612c1d565b80156104925780601f1061046757610100808354040283529160200191610492565b820191906000526020600020905b81548152906001019060200180831161047557829003601f168201915b5050505050905090565b33600090815260208190526040902054839081106105015760405162461bcd60e51b815260206004820152601a60248201527f4e6f20616d6f756e7420746f6b656e20686f6c6465722068617300000000000060448201526064015b60405180910390fd5b6101008251106105535760405162461bcd60e51b815260206004820152601f60248201527f466565646261636b206973206c6f6e672c206d757374206265203c203235360060448201526064016104f8565b60408051608081018252338152426020808301918252928201868152606083018681526014805460018101825560009190915284517fce6d7b5282bd9a3661ae061feed1dbda4e52ab073b1f9285be6e155d9c38d4ec600490920291820180546001600160a01b0319166001600160a01b0390921691909117815593517fce6d7b5282bd9a3661ae061feed1dbda4e52ab073b1f9285be6e155d9c38d4ed82015591517fce6d7b5282bd9a3661ae061feed1dbda4e52ab073b1f9285be6e155d9c38d4ee83015551805193948594610651937fce6d7b5282bd9a3661ae061feed1dbda4e52ab073b1f9285be6e155d9c38d4ef01929091019061208e565b505033600090815260156020526040902060145490915061067490600190612c06565b815460018101835560009283526020832001556106a6336001600160a01b031660009081526020819052604090205490565b6106b08787612b44565b6106ba9190612b0a565b6014549091506106ca8183612b44565b6014546106d990600190612bc7565b6008546106e69190612b44565b6106f09190612ab1565b6106fa9190612b0a565b60085560078054879190600090610712908490612af2565b9091555061072290503387611b68565b505050505050565b6018546001600160a01b0316331461077f5760405162461bcd60e51b81526020600482015260186024820152774f6e6c7920666163746f72792063616e20646f207468697360401b60448201526064016104f8565b600580546001600160a01b0319166001600160a01b0392909216919091179055565b60006107ae338484611cb7565b50600192915050565b6107bf612112565b60408051610160810182526006805482526007546020830152600854928201929092526009546060820152600a546001600160a01b03166080820152600b805491929160a08401919061081190612c1d565b80601f016020809104026020016040519081016040528092919081815260200182805461083d90612c1d565b801561088a5780601f1061085f5761010080835404028352916020019161088a565b820191906000526020600020905b81548152906001019060200180831161086d57829003601f168201915b505050505081526020016006820180546108a390612c1d565b80601f01602080910402602001604051908101604052809291908181526020018280546108cf90612c1d565b801561091c5780601f106108f15761010080835404028352916020019161091c565b820191906000526020600020905b8154815290600101906020018083116108ff57829003601f168201915b5050505050815260200160078201805461093590612c1d565b80601f016020809104026020016040519081016040528092919081815260200182805461096190612c1d565b80156109ae5780601f10610983576101008083540402835291602001916109ae565b820191906000526020600020905b81548152906001019060200180831161099157829003601f168201915b50505050508152602001600882016040518060800160405290816000820180546109d790612c1d565b80601f0160208091040260200160405190810160405280929190818152602001828054610a0390612c1d565b8015610a505780601f10610a2557610100808354040283529160200191610a50565b820191906000526020600020905b815481529060010190602001808311610a3357829003601f168201915b50505050508152602001600182018054610a6990612c1d565b80601f0160208091040260200160405190810160405280929190818152602001828054610a9590612c1d565b8015610ae25780601f10610ab757610100808354040283529160200191610ae2565b820191906000526020600020905b815481529060010190602001808311610ac557829003601f168201915b50505050508152602001600282018054610afb90612c1d565b80601f0160208091040260200160405190810160405280929190818152602001828054610b2790612c1d565b8015610b745780601f10610b4957610100808354040283529160200191610b74565b820191906000526020600020905b815481529060010190602001808311610b5757829003601f168201915b50505050508152602001600382018054610b8d90612c1d565b80601f0160208091040260200160405190810160405280929190818152602001828054610bb990612c1d565b8015610c065780601f10610bdb57610100808354040283529160200191610c06565b820191906000526020600020905b815481529060010190602001808311610be957829003601f168201915b5050505050815250508152602001600c8201805480602002602001604051908101604052809291908181526020018280548015610c6257602002820191906000526020600020905b815481526020019060010190808311610c4e575b50505050508152602001600d82015481525050905090565b6019546001600160a01b03163314610ca45760405162461bcd60e51b81526004016104f890612a14565b601980546001600160a01b0319166001600160a01b0392909216919091179055565b60176020528160005260406000208181548110610ce257600080fd5b90600052602060002001600091509150505481565b60148181548110610d0757600080fd5b600091825260209091206004909102018054600182015460028301546003840180546001600160a01b03909416955091939092909190610d4690612c1d565b80601f0160208091040260200160405190810160405280929190818152602001828054610d7290612c1d565b8015610dbf5780601f10610d9457610100808354040283529160200191610dbf565b820191906000526020600020905b815481529060010190602001808311610da257829003601f168201915b5050505050905084565b6000610dd6848484611dd3565b6001600160a01b038416600090815260016020908152604080832033845290915290205482811015610e5b5760405162461bcd60e51b815260206004820152602860248201527f45524332303a207472616e7366657220616d6f756e74206578636565647320616044820152676c6c6f77616e636560c01b60648201526084016104f8565b610e688533858403611cb7565b506001949350505050565b6018546001600160a01b03163314610ec85760405162461bcd60e51b81526020600482015260186024820152774f6e6c7920666163746f72792063616e20646f207468697360401b60448201526064016104f8565b601980546001600160a01b038085166001600160a01b03199283161790925560058054928616929091169190911790558a5160101180610f095750600a8a51105b80610f15575060408951105b80610f21575060808851105b80610f2e57506101008751105b80610f3b57506005845111155b610f875760405162461bcd60e51b815260206004820152601b60248201527f546f6f206d616e792073796d627320696e20706172616d65746572000000000060448201526064016104f8565b604080516101608101825260008082526020808301829052928201819052606082018890526001600160a01b0385166080830181905260a083018d905260c083018c905260e083018b905261010083018a905261012083018890526101408301859052600682815560078390556008929092556009899055600a80546001600160a01b03191690911790558b519192909161102891600b91908e019061208e565b5060c0820151805161104491600684019160209091019061208e565b5060e0820151805161106091600784019160209091019061208e565b5061010082015180518051600884019161107f9183916020019061208e565b506020828101518051611098926001850192019061208e565b50604082015180516110b491600284019160209091019061208e565b50606082015180516110d091600384019160209091019061208e565b50505061012082015180516110ef91600c8401916020909101906121a1565b5061014082015181600d01559050505050505050505050505050565b3360008181526001602090815260408083206001600160a01b038716845290915281205490916107ae918590611142908690612af2565b611cb7565b6060611151611156565b905090565b60606004805461041990612c1d565b606061115161040a565b3360009081526001602090815260408083206001600160a01b0386168452909152812054828110156111f15760405162461bcd60e51b815260206004820152602560248201527f45524332303a2064656372656173656420616c6c6f77616e63652062656c6f77604482015264207a65726f60d81b60648201526084016104f8565b6111fe3385858403611cb7565b5060019392505050565b6016818154811061121857600080fd5b60009182526020909120600390910201805460018201546002830180546001600160a01b03909316945090929161124e90612c1d565b80601f016020809104026020016040519081016040528092919081815260200182805461127a90612c1d565b80156112c75780601f1061129c576101008083540402835291602001916112c7565b820191906000526020600020905b8154815290600101906020018083116112aa57829003601f168201915b5050505050905083565b6005546040516323b3af8960e01b81526001600160a01b03848116600483015230602483015260009216906323b3af8990604401600060405180830381600087803b15801561131f57600080fd5b505af1158015611333573d6000803e3d6000fd5b505050506111fe8383611fa2565b60608061134c612112565b61135461040a565b61135c611156565b60408051610160810182526006805482526007546020830152600854928201929092526009546060820152600a546001600160a01b03166080820152600b8054839160a08401916113ac90612c1d565b80601f01602080910402602001604051908101604052809291908181526020018280546113d890612c1d565b80156114255780601f106113fa57610100808354040283529160200191611425565b820191906000526020600020905b81548152906001019060200180831161140857829003601f168201915b5050505050815260200160068201805461143e90612c1d565b80601f016020809104026020016040519081016040528092919081815260200182805461146a90612c1d565b80156114b75780601f1061148c576101008083540402835291602001916114b7565b820191906000526020600020905b81548152906001019060200180831161149a57829003601f168201915b505050505081526020016007820180546114d090612c1d565b80601f01602080910402602001604051908101604052809291908181526020018280546114fc90612c1d565b80156115495780601f1061151e57610100808354040283529160200191611549565b820191906000526020600020905b81548152906001019060200180831161152c57829003601f168201915b505050505081526020016008820160405180608001604052908160008201805461157290612c1d565b80601f016020809104026020016040519081016040528092919081815260200182805461159e90612c1d565b80156115eb5780601f106115c0576101008083540402835291602001916115eb565b820191906000526020600020905b8154815290600101906020018083116115ce57829003601f168201915b5050505050815260200160018201805461160490612c1d565b80601f016020809104026020016040519081016040528092919081815260200182805461163090612c1d565b801561167d5780601f106116525761010080835404028352916020019161167d565b820191906000526020600020905b81548152906001019060200180831161166057829003601f168201915b5050505050815260200160028201805461169690612c1d565b80601f01602080910402602001604051908101604052809291908181526020018280546116c290612c1d565b801561170f5780601f106116e45761010080835404028352916020019161170f565b820191906000526020600020905b8154815290600101906020018083116116f257829003601f168201915b5050505050815260200160038201805461172890612c1d565b80601f016020809104026020016040519081016040528092919081815260200182805461175490612c1d565b80156117a15780601f10611776576101008083540402835291602001916117a1565b820191906000526020600020905b81548152906001019060200180831161178457829003601f168201915b5050505050815250508152602001600c82018054806020026020016040519081016040528092919081815260200182805480156117fd57602002820191906000526020600020905b8154815260200190600101908083116117e9575b50505050508152602001600d820154815250509050925092509250909192565b60606006600c0180548060200260200160405190810160405280929190818152602001828054801561049257602002820191906000526020600020905b81548152602001906001019080831161185a575050505050905090565b60156020528160005260406000208181548110610ce257600080fd5b6019546001600160a01b031633146118bd5760405162461bcd60e51b81526004016104f890612a14565b600554600160a01b900460ff1661194a576005546040516338a1048560e01b81526001600160a01b03909116906338a1048590611904903090600c9060129060040161285c565b600060405180830381600087803b15801561191e57600080fd5b505af1158015611932573d6000803e3d6000fd5b50506005805460ff60a01b1916600160a01b17905550505b61010081511061199c5760405162461bcd60e51b815260206004820152601c60248201527f494f552074657874206973206c6f6e672c206e656564203c203235360000000060448201526064016104f8565b604080516060810182526001600160a01b0385811682524260208084019182529383018581526016805460018101825560009190915284517fd833147d7dc355ba459fc788f669e58cfaf9dc25ddcd0702e87d69c7b5124289600390920291820180546001600160a01b0319169190951617845591517fd833147d7dc355ba459fc788f669e58cfaf9dc25ddcd0702e87d69c7b512428a83015551805193948594611a6d937fd833147d7dc355ba459fc788f669e58cfaf9dc25ddcd0702e87d69c7b512428b01929091019061208e565b5050506001600160a01b0384166000908152601760205260409020601654611a9790600190612c06565b81546001810183556000928352602090922090910155611ab78484611faf565b8260066000016000828254611acc9190612af2565b90915550506005546040516323b3af8960e01b81526001600160a01b038681166004830152306024830152909116906323b3af8990604401600060405180830381600087803b158015611b1e57600080fd5b505af1158015611b32573d6000803e3d6000fd5b5050505050505050565b6019546001600160a01b03163314611b665760405162461bcd60e51b81526004016104f890612a14565b565b6001600160a01b038216611bc85760405162461bcd60e51b815260206004820152602160248201527f45524332303a206275726e2066726f6d20746865207a65726f206164647265736044820152607360f81b60648201526084016104f8565b6001600160a01b03821660009081526020819052604090205481811015611c3c5760405162461bcd60e51b815260206004820152602260248201527f45524332303a206275726e20616d6f756e7420657863656564732062616c616e604482015261636560f01b60648201526084016104f8565b6001600160a01b0383166000908152602081905260408120838303905560028054849290611c6b908490612c06565b90915550506040518281526000906001600160a01b038516907fddf252ad1be2c89b69c2b068fc378daa952ba7f163c4a11628f55a4df523b3ef906020015b60405180910390a3505050565b6001600160a01b038316611d195760405162461bcd60e51b8152602060048201526024808201527f45524332303a20617070726f76652066726f6d20746865207a65726f206164646044820152637265737360e01b60648201526084016104f8565b6001600160a01b038216611d7a5760405162461bcd60e51b815260206004820152602260248201527f45524332303a20617070726f766520746f20746865207a65726f206164647265604482015261737360f01b60648201526084016104f8565b6001600160a01b0383811660008181526001602090815260408083209487168084529482529182902085905590518481527f8c5be1e5ebec7d5bd14f71427d1e84f3dd0314c0f7b2291e5b200ac8c7c3b9259101611caa565b6001600160a01b038316611e375760405162461bcd60e51b815260206004820152602560248201527f45524332303a207472616e736665722066726f6d20746865207a65726f206164604482015264647265737360d81b60648201526084016104f8565b6001600160a01b038216611e995760405162461bcd60e51b815260206004820152602360248201527f45524332303a207472616e7366657220746f20746865207a65726f206164647260448201526265737360e81b60648201526084016104f8565b6001600160a01b03831660009081526020819052604090205481811015611f115760405162461bcd60e51b815260206004820152602660248201527f45524332303a207472616e7366657220616d6f756e7420657863656564732062604482015265616c616e636560d01b60648201526084016104f8565b6001600160a01b03808516600090815260208190526040808220858503905591851681529081208054849290611f48908490612af2565b92505081905550826001600160a01b0316846001600160a01b03167fddf252ad1be2c89b69c2b068fc378daa952ba7f163c4a11628f55a4df523b3ef84604051611f9491815260200190565b60405180910390a350505050565b60006107ae338484611dd3565b6001600160a01b0382166120055760405162461bcd60e51b815260206004820152601f60248201527f45524332303a206d696e7420746f20746865207a65726f20616464726573730060448201526064016104f8565b80600260008282546120179190612af2565b90915550506001600160a01b03821660009081526020819052604081208054839290612044908490612af2565b90915550506040518181526001600160a01b038316906000907fddf252ad1be2c89b69c2b068fc378daa952ba7f163c4a11628f55a4df523b3ef9060200160405180910390a35050565b82805461209a90612c1d565b90600052602060002090601f0160209004810192826120bc5760008555612102565b82601f106120d557805160ff1916838001178555612102565b82800160010185558215612102579182015b828111156121025782518255916020019190600101906120e7565b5061210e9291506121db565b5090565b6040518061016001604052806000815260200160008152602001600081526020016000801916815260200160006001600160a01b0316815260200160608152602001606081526020016060815260200161218d6040518060800160405280606081526020016060815260200160608152602001606081525090565b815260606020820152600060409091015290565b82805482825590600052602060002090810192821561210257916020028201828111156121025782518255916020019190600101906120e7565b5b8082111561210e57600081556001016121dc565b80356001600160a01b038116811461220757600080fd5b919050565b600082601f83011261221c578081fd5b8135602067ffffffffffffffff82111561223857612238612c6e565b8160051b612247828201612a80565b838152828101908684018388018501891015612261578687fd5b8693505b85841015612283578035835260019390930192918401918401612265565b50979650505050505050565b600082601f83011261229f578081fd5b813567ffffffffffffffff8111156122b9576122b9612c6e565b6122cc601f8201601f1916602001612a80565b8181528460208386010111156122e0578283fd5b816020850160208301379081016020019190915292915050565b60006080828403121561230b578081fd5b612313612a57565b9050813567ffffffffffffffff8082111561232d57600080fd5b6123398583860161228f565b8352602084013591508082111561234f57600080fd5b61235b8583860161228f565b6020840152604084013591508082111561237457600080fd5b6123808583860161228f565b6040840152606084013591508082111561239957600080fd5b506123a68482850161228f565b60608301525092915050565b6000602082840312156123c3578081fd5b6123cc826121f0565b9392505050565b600080604083850312156123e5578081fd5b6123ee836121f0565b91506123fc602084016121f0565b90509250929050565b600080600060608486031215612419578081fd5b612422846121f0565b9250612430602085016121f0565b9150604084013590509250925092565b60008060408385031215612452578182fd5b61245b836121f0565b946020939093013593505050565b60008060006060848603121561247d578283fd5b612486846121f0565b925060208401359150604084013567ffffffffffffffff8111156124a8578182fd5b6124b48682870161228f565b9150509250925092565b60008060008060008060008060008060006101608c8e0312156124df578687fd5b67ffffffffffffffff808d3511156124f5578788fd5b6125028e8e358f0161228f565b9b508060208e01351115612514578788fd5b6125248e60208f01358f0161228f565b9a508060408e01351115612536578788fd5b6125468e60408f01358f0161228f565b99508060608e01351115612558578788fd5b6125688e60608f01358f0161228f565b98508060808e0135111561257a578788fd5b61258a8e60808f01358f0161228f565b97508060a08e0135111561259c578687fd5b6125ac8e60a08f01358f016122fa565b965060c08d013595508060e08e013511156125c5578485fd5b506125d68d60e08e01358e0161220c565b93506125e56101008d016121f0565b92506125f46101208d016121f0565b91506101408c013590509295989b509295989b9093969950565b60006020828403121561261f578081fd5b5035919050565b60008060006060848603121561263a578283fd5b8335925060208401359150604084013567ffffffffffffffff8111156124a8578182fd5b6000815180845260208085019450808401835b8381101561268d57815187529582019590820190600101612671565b509495945050505050565b6000815480845260208085019450838352808320835b8381101561268d578154875295820195600191820191016126ae565b60008151808452815b818110156126ef576020818501810151868301820152016126d3565b818111156127005782602083870101525b50601f01601f19169290920160200192915050565b600061016082518452602083015160208501526040830151604085015260608301516060850152608083015161275660808601826001600160a01b03169052565b5060a08301518160a086015261276e828601826126ca565b91505060c083015184820360c086015261278882826126ca565b91505060e083015184820360e08601526127a282826126ca565b91505061010080840151858303828701526127bd83826127f1565b9250505061012080840151858303828701526127d9838261265e565b61014095860151969095019590955250919392505050565b600081516080845261280660808501826126ca565b90506020830151848203602086015261281f82826126ca565b9150506040830151848203604086015261283982826126ca565b9150506060830151848203606086015261285382826126ca565b95945050505050565b60018060a01b03841681526000602060608184015281855483600182811c91508083168061288b57607f831692505b8583108114156128a957634e487b7160e01b87526022600452602487fd5b60608801839052608088018180156128c857600181146128d957612903565b60ff19861682528782019650612903565b60008c815260209020895b868110156128fd578154848201529085019089016128e4565b83019750505b505050505050838103604085015261291b8186612698565b979650505050505050565b60018060a01b038516815283602082015282604082015260806060820152600061295360808301846126ca565b9695505050505050565b60018060a01b038416815282602082015260606040820152600061285360608301846126ca565b6020808252825182820181905260009190848201906040850190845b818110156129bc578351835292840192918401916001016129a0565b50909695505050505050565b6020815260006123cc60208301846126ca565b6060815260006129ee60608301866126ca565b8281036020840152612a0081866126ca565b905082810360408401526129538185612715565b6020808252601690820152754f6e6c79206f776e65722063616e20646f207468697360501b604082015260600190565b6020815260006123cc6020830184612715565b6040516080810167ffffffffffffffff81118282101715612a7a57612a7a612c6e565b60405290565b604051601f8201601f1916810167ffffffffffffffff81118282101715612aa957612aa9612c6e565b604052919050565b600080821280156001600160ff1b0384900385131615612ad357612ad3612c58565b600160ff1b8390038412811615612aec57612aec612c58565b50500190565b60008219821115612b0557612b05612c58565b500190565b600082612b2557634e487b7160e01b81526012600452602481fd5b600160ff1b821460001984141615612b3f57612b3f612c58565b500590565b60006001600160ff1b0381841382841380821686840486111615612b6a57612b6a612c58565b600160ff1b84871282811687830589121615612b8857612b88612c58565b858712925087820587128484161615612ba357612ba3612c58565b87850587128184161615612bb957612bb9612c58565b505050929093029392505050565b60008083128015600160ff1b850184121615612be557612be5612c58565b6001600160ff1b0384018313811615612c0057612c00612c58565b50500390565b600082821015612c1857612c18612c58565b500390565b600181811c90821680612c3157607f821691505b60208210811415612c5257634e487b7160e01b600052602260045260246000fd5b50919050565b634e487b7160e01b600052601160045260246000fd5b634e487b7160e01b600052604160045260246000fdfea2646970667358221220e8cd6f7dfeaa9bc78dc6d64380b8b9b6fe53aff702656586dfc90482553f121464736f6c63430008040033a2646970667358221220d04eeda346d8aea221a9ca14fc5a479d54a512fc2cec101c9d3d7b32c02b622964736f6c63430008040033",
  "immutableReferences": {},
  "source": "pragma solidity >=  0.8.0;\npragma experimental ABIEncoderV2;\nimport \"./IOUtoken.sol\";\nimport \"./interfaces/iStoreIOUs.sol\";\nimport \"./interfaces/iIOUtoken.sol\";\n\ncontract MakeIOU {\n    \n    address private owner;\n    iStoreIOUs store;\n\n    function setOwner (address _newOwner) public onlyOwner {\n        owner = _newOwner;\n    }\n\n    function setStore (address _newOwner) public onlyOwner {\n        store = iStoreIOUs(_newOwner);\n        \n    }   \n\n    constructor ()  {\n        owner = msg.sender;\n    }\n\n    modifier onlyOwner() {\n        require (owner == msg.sender, \"Only owner can do this\");\n        _;\n    }\n\n    function makeIOU(string memory _name, \n                 string memory _symbol, \n                 string memory _myName, //name of emitter\n                 string memory _socialProfile, //profile  of emitter in social nets\n                 string memory _description, //description of bond IOU to  work\n                 iIOUtoken.geo  memory _location, //where is                  \n                 bytes32  _units, //units of deal\n                 bytes32[] memory _keywords,\n                 bytes32 _phone\n                        ) public returns (address) {\n\n        IOUtoken newIOU = new IOUtoken(_name, \n                                    _symbol);\n        newIOU.setIOU(  _name, \n                        _symbol,                    \n                        _myName, \n                        _socialProfile,  \n                        _description,\n                        _location,\n                        _units, \n                        _keywords,\n                        address(store),\n                        msg.sender, \n                        _phone\n            );\n        //store.addIOU2(address(newIOU), _socialProfile, msg.sender, _keywords);\n        require (address(store) != address(0x0), \"No store address\");\n        store.addIOU1(address(newIOU), msg.sender);//, _socialProfile, msg.sender, _keywords);\n\n        return address (newIOU);\n        }\n\n  \n}",
  "sourcePath": "/mnt/512-2/dfd/iou2/contracts/MakeIOU.sol",
  "compiler": {
    "name": "solc",
    "version": "0.8.4+commit.c7e474f2.Emscripten.clang"
  },
  "schemaVersion": "3.4.3",
  "updatedAt": "2021-08-31T09:08:35.603Z",
  "networkType": "ethereum",
  "devdoc": {
    "kind": "dev",
    "methods": {},
    "version": 1
  },
  "userdoc": {
    "kind": "user",
    "methods": {},
    "version": 1
  }
}