{
  "contractName": "MakeIOU",
  "abi": [
    {
      "inputs": [],
      "stateMutability": "nonpayable",
      "type": "constructor"
    },
    {
      "inputs": [
        {
          "internalType": "address",
          "name": "_newOwner",
          "type": "address"
        }
      ],
      "name": "setOwner",
      "outputs": [],
      "stateMutability": "nonpayable",
      "type": "function"
    },
    {
      "inputs": [
        {
          "internalType": "address",
          "name": "_new",
          "type": "address"
        }
      ],
      "name": "setStore",
      "outputs": [],
      "stateMutability": "nonpayable",
      "type": "function"
    },
    {
      "inputs": [
        {
          "internalType": "address",
          "name": "_new",
          "type": "address"
        }
      ],
      "name": "setinstIOU",
      "outputs": [],
      "stateMutability": "nonpayable",
      "type": "function"
    },
    {
      "inputs": [
        {
          "internalType": "string",
          "name": "_name",
          "type": "string"
        },
        {
          "internalType": "string",
          "name": "_symbol",
          "type": "string"
        },
        {
          "internalType": "string",
          "name": "_myName",
          "type": "string"
        },
        {
          "internalType": "string",
          "name": "_socialProfile",
          "type": "string"
        },
        {
          "internalType": "string",
          "name": "_description",
          "type": "string"
        },
        {
          "components": [
            {
              "internalType": "string",
              "name": "country",
              "type": "string"
            },
            {
              "internalType": "string",
              "name": "state",
              "type": "string"
            },
            {
              "internalType": "string",
              "name": "city",
              "type": "string"
            },
            {
              "internalType": "string",
              "name": "street",
              "type": "string"
            }
          ],
          "internalType": "struct iIOUtoken.geo",
          "name": "_location",
          "type": "tuple"
        },
        {
          "internalType": "bytes32",
          "name": "_units",
          "type": "bytes32"
        },
        {
          "internalType": "bytes32[]",
          "name": "_keywords",
          "type": "bytes32[]"
        },
        {
          "internalType": "bytes32",
          "name": "_phone",
          "type": "bytes32"
        }
      ],
      "name": "makeIOU",
      "outputs": [
        {
          "internalType": "address",
          "name": "",
          "type": "address"
        }
      ],
      "stateMutability": "nonpayable",
      "type": "function"
    }
  ],
  "bytecode": "0x608060405234801561001057600080fd5b50600080546001600160a01b031916331790556111fb806100326000396000f3fe60806040523480156200001157600080fd5b5060043610620000525760003560e01c8063087cbd40146200005757806313af403514620000705780632b204b5b1462000087578063a3af7487146200009e575b600080fd5b6200006e62000068366004620003e5565b620000d1565b005b6200006e62000081366004620003e5565b62000129565b6200006e62000098366004620003e5565b62000178565b620000b5620000af36600462000655565b620001c7565b6040516001600160a01b03909116815260200160405180910390f35b6000546001600160a01b03163314620001075760405162461bcd60e51b8152600401620000fe906200079a565b60405180910390fd5b600280546001600160a01b0319166001600160a01b0392909216919091179055565b6000546001600160a01b03163314620001565760405162461bcd60e51b8152600401620000fe906200079a565b600080546001600160a01b0319166001600160a01b0392909216919091179055565b6000546001600160a01b03163314620001a55760405162461bcd60e51b8152600401620000fe906200079a565b600180546001600160a01b0319166001600160a01b0392909216919091179055565b600080604051806101600160405280600081526020016000815260200160008152602001868152602001336001600160a01b031681526020018a81526020018981526020018881526020018781526020018581526020018481525090506000600160009054906101000a90046001600160a01b03166040516200024a90620003d7565b6001600160a01b039091168152604060208201819052600090820152606001604051809103906000f08015801562000286573d6000803e3d6000fd5b5090506000819050806001600160a01b031663a1a613bb8e8e86600260009054906101000a90046001600160a01b03166040518563ffffffff1660e01b8152600401620002d79493929190620009b1565b600060405180830381600087803b158015620002f257600080fd5b505af115801562000307573d6000803e3d6000fd5b50506002546001600160a01b0316151591506200035c90505760405162461bcd60e51b815260206004820152601060248201526f4e6f2073746f7265206164647265737360801b6044820152606401620000fe565b60025460405163d83c8bd360e01b81526001600160a01b039091169063d83c8bd390620003929084903390889060040162000a0a565b600060405180830381600087803b158015620003ad57600080fd5b505af1158015620003c2573d6000803e3d6000fd5b50929f9e505050505050505050505050505050565b61078d8062000a3983390190565b600060208284031215620003f857600080fd5b81356001600160a01b03811681146200041057600080fd5b9392505050565b634e487b7160e01b600052604160045260246000fd5b6040516080810167ffffffffffffffff8111828210171562000453576200045362000417565b60405290565b604051601f8201601f1916810167ffffffffffffffff8111828210171562000485576200048562000417565b604052919050565b600082601f8301126200049f57600080fd5b813567ffffffffffffffff811115620004bc57620004bc62000417565b620004d1601f8201601f191660200162000459565b818152846020838601011115620004e757600080fd5b816020850160208301376000918101602001919091529392505050565b6000608082840312156200051757600080fd5b620005216200042d565b9050813567ffffffffffffffff808211156200053c57600080fd5b6200054a858386016200048d565b835260208401359150808211156200056157600080fd5b6200056f858386016200048d565b602084015260408401359150808211156200058957600080fd5b62000597858386016200048d565b60408401526060840135915080821115620005b157600080fd5b50620005c0848285016200048d565b60608301525092915050565b600082601f830112620005de57600080fd5b8135602067ffffffffffffffff821115620005fd57620005fd62000417565b8160051b6200060e82820162000459565b92835284810182019282810190878511156200062957600080fd5b83870192505b848310156200064a578235825291830191908301906200062f565b979650505050505050565b60008060008060008060008060006101208a8c0312156200067557600080fd5b893567ffffffffffffffff808211156200068e57600080fd5b6200069c8d838e016200048d565b9a5060208c0135915080821115620006b357600080fd5b620006c18d838e016200048d565b995060408c0135915080821115620006d857600080fd5b620006e68d838e016200048d565b985060608c0135915080821115620006fd57600080fd5b6200070b8d838e016200048d565b975060808c01359150808211156200072257600080fd5b620007308d838e016200048d565b965060a08c01359150808211156200074757600080fd5b620007558d838e0162000504565b955060c08c0135945060e08c01359150808211156200077357600080fd5b50620007828c828d01620005cc565b9250506101008a013590509295985092959850929598565b6020808252601690820152754f6e6c79206f776e65722063616e20646f207468697360501b604082015260600190565b6000815180845260005b81811015620007f257602081850181015186830182015201620007d4565b8181111562000805576000602083870101525b50601f01601f19169290920160200192915050565b6000815160808452620008316080850182620007ca565b9050602083015184820360208601526200084c8282620007ca565b91505060408301518482036040860152620008688282620007ca565b91505060608301518482036060860152620008848282620007ca565b95945050505050565b600081518084526020808501945080840160005b83811015620008bf57815187529582019590820190600101620008a1565b509495945050505050565b60006101608251845260208301516020850152604083015160408501526060830151606085015260808301516200090c60808601826001600160a01b03169052565b5060a08301518160a08601526200092682860182620007ca565b91505060c083015184820360c0860152620009428282620007ca565b91505060e083015184820360e08601526200095e8282620007ca565b91505061010080840151858303828701526200097b83826200081a565b9250505061012080840151858303828701526200099983826200088d565b61014095860151969095019590955250919392505050565b608081526000620009c66080830187620007ca565b8281036020840152620009da8187620007ca565b90508281036040840152620009f08186620008ca565b91505060018060a01b038316606083015295945050505050565b6001600160a01b038481168252831660208201526060604082018190526000906200088490830184620008ca56fe608060405260405161078d38038061078d83398101604081905261002291610337565b61004d60017f360894a13ba1a3210667c828492db98dca3e2076cc3735a920a3ca505d382bbd610405565b600080516020610746833981519152146100695761006961042a565b6100758282600061007c565b505061048f565b610085836100b2565b6000825111806100925750805b156100ad576100ab83836100f260201b6100291760201c565b505b505050565b6100bb8161011e565b6040516001600160a01b038216907fbc7cd75a20ee27fd9adebab32041f755214dbc6bffa90cc0225b39da2e5c2d3b90600090a250565b60606101178383604051806060016040528060278152602001610766602791396101de565b9392505050565b610131816102b360201b6100551760201c565b6101985760405162461bcd60e51b815260206004820152602d60248201527f455243313936373a206e657720696d706c656d656e746174696f6e206973206e60448201526c1bdd08184818dbdb9d1c9858dd609a1b60648201526084015b60405180910390fd5b806101bd60008051602061074683398151915260001b6102b960201b61005b1760201c565b80546001600160a01b0319166001600160a01b039290921691909117905550565b6060833b61023d5760405162461bcd60e51b815260206004820152602660248201527f416464726573733a2064656c65676174652063616c6c20746f206e6f6e2d636f6044820152651b9d1c9858dd60d21b606482015260840161018f565b600080856001600160a01b0316856040516102589190610440565b600060405180830381855af49150503d8060008114610293576040519150601f19603f3d011682016040523d82523d6000602084013e610298565b606091505b5090925090506102a98282866102bc565b9695505050505050565b3b151590565b90565b606083156102cb575081610117565b8251156102db5782518084602001fd5b8160405162461bcd60e51b815260040161018f919061045c565b634e487b7160e01b600052604160045260246000fd5b60005b8381101561032657818101518382015260200161030e565b838111156100ab5750506000910152565b6000806040838503121561034a57600080fd5b82516001600160a01b038116811461036157600080fd5b60208401519092506001600160401b038082111561037e57600080fd5b818501915085601f83011261039257600080fd5b8151818111156103a4576103a46102f5565b604051601f8201601f19908116603f011681019083821181831017156103cc576103cc6102f5565b816040528281528860208487010111156103e557600080fd5b6103f683602083016020880161030b565b80955050505050509250929050565b60008282101561042557634e487b7160e01b600052601160045260246000fd5b500390565b634e487b7160e01b600052600160045260246000fd5b6000825161045281846020870161030b565b9190910192915050565b602081526000825180602084015261047b81604085016020870161030b565b601f01601f19169190910160400192915050565b6102a88061049e6000396000f3fe60806040523661001357610011610017565b005b6100115b61002761002261005e565b610096565b565b606061004e838360405180606001604052806027815260200161024c602791396100ba565b9392505050565b3b151590565b90565b60006100917f360894a13ba1a3210667c828492db98dca3e2076cc3735a920a3ca505d382bbc546001600160a01b031690565b905090565b3660008037600080366000845af43d6000803e8080156100b5573d6000f35b3d6000fd5b6060833b61011e5760405162461bcd60e51b815260206004820152602660248201527f416464726573733a2064656c65676174652063616c6c20746f206e6f6e2d636f6044820152651b9d1c9858dd60d21b60648201526084015b60405180910390fd5b600080856001600160a01b03168560405161013991906101fc565b600060405180830381855af49150503d8060008114610174576040519150601f19603f3d011682016040523d82523d6000602084013e610179565b606091505b5091509150610189828286610193565b9695505050505050565b606083156101a257508161004e565b8251156101b25782518084602001fd5b8160405162461bcd60e51b81526004016101159190610218565b60005b838110156101e75781810151838201526020016101cf565b838111156101f6576000848401525b50505050565b6000825161020e8184602087016101cc565b9190910192915050565b60208152600082518060208401526102378160408501602087016101cc565b601f01601f1916919091016040019291505056fe416464726573733a206c6f772d6c6576656c2064656c65676174652063616c6c206661696c6564a26469706673582212206201ac3a418b0db9a3453c2a0d05a84f8db8563725bdf0c06993c601499612a664736f6c634300080a0033360894a13ba1a3210667c828492db98dca3e2076cc3735a920a3ca505d382bbc416464726573733a206c6f772d6c6576656c2064656c65676174652063616c6c206661696c6564a26469706673582212203b241d0f3ef40c11afec1307cbc45b2789ec234a7fd65f69e423e31fc4df702964736f6c634300080a0033",
  "immutableReferences": {},
  "source": "pragma solidity >=  0.8.0;\npragma experimental ABIEncoderV2;\n//import \"@openzeppelin/contracts/proxy/Clones.sol\";\n// import \"./ProxySimple.sol\";\n//import \"@openzeppelin/contracts/proxy/transparent/TransparentUpgradeableProxy.sol\";\nimport  \"@openzeppelin/contracts/proxy/ERC1967/ERC1967Proxy.sol\";\nimport \"./interfaces/iIOUtoken.sol\";\nimport \"./interfaces/iStoreIOUs.sol\";\n\n\ncontract MakeIOU {\n    \n    address private owner;\n    address private instIOU;\n    iStoreIOUs store;\n\n    function setOwner (address _newOwner) public onlyOwner {\n        owner = _newOwner;\n    }\n\n    function setStore (address _new) public onlyOwner {\n        store = iStoreIOUs(_new);\n        \n    }   \n\n    function setinstIOU (address _new) public onlyOwner {\n        instIOU = _new;\n        \n    }   \n\n    constructor ()  {\n        owner = msg.sender;\n    }\n\n    modifier onlyOwner() {\n        require (owner == msg.sender, \"Only owner can do this\");\n        _;\n    }\n\n    function makeIOU(string memory _name, \n                 string memory _symbol, \n                 string memory _myName, //name of emitter\n                 string memory _socialProfile, //profile  of emitter in social nets\n                 string memory _description, //description of bond IOU to  work\n                 iIOUtoken.geo  memory _location, //where is                  \n                 bytes32  _units, //units of deal\n                 bytes32[] memory _keywords,\n                 bytes32 _phone\n                        ) public returns (address) {\n        \n\n    iIOUtoken.DescriptionIOU memory thisIOU = iIOUtoken.DescriptionIOU (0,0,0,\n            _units,\n            msg.sender, \n            _myName,\n            _socialProfile,\n            _description,\n            _location,\n            _keywords,\n           _phone\n        );\n    ERC1967Proxy proxIOU = new ERC1967Proxy(instIOU, \"\");\n    iIOUtoken newIOU =  iIOUtoken(address (proxIOU)/* Clones.clone(instIOU) */);\n    newIOU.setIOU (_name, _symbol, thisIOU,address(store));\n    require (address(store) != address(0x0), \"No store address\");\n    store.addIOU1(address(newIOU), msg.sender, thisIOU); //, _socialProfile, msg.sender, _keywords);\n     //   newIOU.setStore(address(store));\n\n        return address (newIOU);\n        }\n\n}",
  "sourcePath": "/mnt/512-2/dfd/iou2/contracts/MakeIOU.sol",
  "compiler": {
    "name": "solc",
    "version": "0.8.10+commit.fc410830.Emscripten.clang"
  },
  "schemaVersion": "3.4.4",
  "updatedAt": "2022-02-15T09:58:55.468Z",
  "networkType": "ethereum",
  "devdoc": {
    "kind": "dev",
    "methods": {},
    "version": 1
  },
  "userdoc": {
    "kind": "user",
    "methods": {},
    "version": 1
  }
}