{
  "contractName": "MakeIOU",
  "abi": [
    {
      "inputs": [],
      "stateMutability": "nonpayable",
      "type": "constructor"
    },
    {
      "inputs": [
        {
          "internalType": "address",
          "name": "_newOwner",
          "type": "address"
        }
      ],
      "name": "setOwner",
      "outputs": [],
      "stateMutability": "nonpayable",
      "type": "function"
    },
    {
      "inputs": [
        {
          "internalType": "address",
          "name": "_newOwner",
          "type": "address"
        }
      ],
      "name": "setStore",
      "outputs": [],
      "stateMutability": "nonpayable",
      "type": "function"
    },
    {
      "inputs": [
        {
          "internalType": "string",
          "name": "_name",
          "type": "string"
        },
        {
          "internalType": "string",
          "name": "_symbol",
          "type": "string"
        },
        {
          "internalType": "string",
          "name": "_myName",
          "type": "string"
        },
        {
          "internalType": "string",
          "name": "_socialProfile",
          "type": "string"
        },
        {
          "internalType": "string",
          "name": "_description",
          "type": "string"
        },
        {
          "components": [
            {
              "internalType": "string",
              "name": "country",
              "type": "string"
            },
            {
              "internalType": "string",
              "name": "state",
              "type": "string"
            },
            {
              "internalType": "string",
              "name": "city",
              "type": "string"
            },
            {
              "internalType": "string",
              "name": "street",
              "type": "string"
            }
          ],
          "internalType": "struct iIOUtoken.geo",
          "name": "_location",
          "type": "tuple"
        },
        {
          "internalType": "bytes32",
          "name": "_units",
          "type": "bytes32"
        },
        {
          "internalType": "bytes32[]",
          "name": "_keywords",
          "type": "bytes32[]"
        },
        {
          "internalType": "bytes32",
          "name": "_phone",
          "type": "bytes32"
        }
      ],
      "name": "makeIOU",
      "outputs": [
        {
          "internalType": "address",
          "name": "",
          "type": "address"
        }
      ],
      "stateMutability": "nonpayable",
      "type": "function"
    },
    {
      "inputs": [
        {
          "internalType": "address",
          "name": "_holder",
          "type": "address"
        },
        {
          "internalType": "address",
          "name": "_IOUtoken",
          "type": "address"
        }
      ],
      "name": "addHolder",
      "outputs": [],
      "stateMutability": "nonpayable",
      "type": "function"
    },
    {
      "inputs": [
        {
          "internalType": "bytes32[]",
          "name": "_keys",
          "type": "bytes32[]"
        },
        {
          "internalType": "address",
          "name": "_IOUtok",
          "type": "address"
        }
      ],
      "name": "addKeys",
      "outputs": [],
      "stateMutability": "nonpayable",
      "type": "function"
    },
    {
      "inputs": [
        {
          "internalType": "bytes32[]",
          "name": "_keys",
          "type": "bytes32[]"
        },
        {
          "internalType": "address",
          "name": "_IOUtok",
          "type": "address"
        }
      ],
      "name": "delKeys",
      "outputs": [],
      "stateMutability": "nonpayable",
      "type": "function"
    },
    {
      "inputs": [
        {
          "components": [
            {
              "internalType": "string",
              "name": "country",
              "type": "string"
            },
            {
              "internalType": "string",
              "name": "state",
              "type": "string"
            },
            {
              "internalType": "string",
              "name": "city",
              "type": "string"
            },
            {
              "internalType": "string",
              "name": "street",
              "type": "string"
            }
          ],
          "internalType": "struct iIOUtoken.geo",
          "name": "_location",
          "type": "tuple"
        },
        {
          "internalType": "address",
          "name": "_IOUtok",
          "type": "address"
        }
      ],
      "name": "editGeo",
      "outputs": [],
      "stateMutability": "nonpayable",
      "type": "function"
    }
  ],
  "bytecode": "0x608060405234801561001057600080fd5b50600080546001600160a01b0319163317905561456e806100326000396000f3fe60806040523480156200001157600080fd5b5060043610620000875760003560e01c80638602789611620000625780638602789614620000d35780638bcd065514620000ea5780639a7a83621462000101578063a3af7487146200011857600080fd5b8063087cbd40146200008c57806313af403514620000a557806323b3af8914620000bc575b600080fd5b620000a36200009d36600462000820565b6200014b565b005b620000a3620000b636600462000820565b620001c6565b620000a3620000cd36600462000844565b6200023d565b620000a3620000e43660046200087b565b620002ab565b620000a3620000fb3660046200087b565b62000380565b620000a36200011236600462000a3e565b6200041c565b6200012f6200012936600462000901565b620004b4565b6040516001600160a01b03909116815260200160405180910390f35b6000546001600160a01b03163314620001a45760405162461bcd60e51b81526020600482015260166024820152754f6e6c79206f776e65722063616e20646f207468697360501b60448201526064015b60405180910390fd5b600180546001600160a01b0319166001600160a01b0392909216919091179055565b6000546001600160a01b031633146200021b5760405162461bcd60e51b81526020600482015260166024820152754f6e6c79206f776e65722063616e20646f207468697360501b60448201526064016200019b565b600080546001600160a01b0319166001600160a01b0392909216919091179055565b6001546040516323b3af8960e01b81526001600160a01b0384811660048301528381166024830152909116906323b3af89906044015b600060405180830381600087803b1580156200028e57600080fd5b505af1158015620002a3573d6000803e3d6000fd5b505050505050565b6040516343013c4b60e11b81526001600160a01b03821690638602789690620002dd9086908690339060040162000b2d565b600060405180830381600087803b158015620002f857600080fd5b505af11580156200030d573d6000803e3d6000fd5b50506001546040516343013c4b60e11b81526001600160a01b03909116925063860278969150620003479086908690869060040162000b2d565b600060405180830381600087803b1580156200036257600080fd5b505af115801562000377573d6000803e3d6000fd5b50505050505050565b604051638bcd065560e01b81526001600160a01b03821690638bcd065590620003b29086908690339060040162000b2d565b600060405180830381600087803b158015620003cd57600080fd5b505af1158015620003e2573d6000803e3d6000fd5b5050600154604051638bcd065560e01b81526001600160a01b039091169250638bcd06559150620003479086908690869060040162000b2d565b604051634d3d41b160e11b81526001600160a01b03821690639a7a8362906200044c908590339060040162000cd8565b600060405180830381600087803b1580156200046757600080fd5b505af11580156200047c573d6000803e3d6000fd5b505060015460405163d107704d60e01b81526001600160a01b03909116925063d107704d915062000273908590859060040162000cd8565b6000808a8a604051620004c79062000630565b620004d492919062000b78565b604051809103906000f080158015620004f1573d6000803e3d6000fd5b5060405163154ebd9760e21b81529091506001600160a01b0382169063553af65c9062000535908e908e908e908e908e908e908e908e9033908f9060040162000baa565b600060405180830381600087803b1580156200055057600080fd5b505af115801562000565573d6000803e3d6000fd5b50506001546001600160a01b031615159150620005ba90505760405162461bcd60e51b815260206004820152601060248201526f4e6f2073746f7265206164647265737360801b60448201526064016200019b565b600154604051632c4ce8a160e11b81526001600160a01b03838116600483015233602483015290911690635899d14290604401600060405180830381600087803b1580156200060857600080fd5b505af11580156200061d573d6000803e3d6000fd5b50929d9c50505050505050505050505050565b6136d38062000e6683390190565b80356001600160a01b03811681146200065657600080fd5b919050565b600082601f8301126200066c578081fd5b8135602067ffffffffffffffff8211156200068b576200068b62000e4f565b8160051b6200069c82820162000dcc565b838152828101908684018388018501891015620006b7578687fd5b8693505b85841015620006db578035835260019390930192918401918401620006bb565b50979650505050505050565b600082601f830112620006f8578081fd5b813567ffffffffffffffff81111562000715576200071562000e4f565b6200072a601f8201601f191660200162000dcc565b8181528460208386010111156200073f578283fd5b816020850160208301379081016020019190915292915050565b6000608082840312156200076b578081fd5b6200077562000da0565b9050813567ffffffffffffffff808211156200079057600080fd5b6200079e85838601620006e7565b83526020840135915080821115620007b557600080fd5b620007c385838601620006e7565b60208401526040840135915080821115620007dd57600080fd5b620007eb85838601620006e7565b604084015260608401359150808211156200080557600080fd5b506200081484828501620006e7565b60608301525092915050565b60006020828403121562000832578081fd5b6200083d826200063e565b9392505050565b6000806040838503121562000857578081fd5b62000862836200063e565b915062000872602084016200063e565b90509250929050565b60008060006040848603121562000890578081fd5b833567ffffffffffffffff80821115620008a8578283fd5b818601915086601f830112620008bc578283fd5b813581811115620008cb578384fd5b8760208260051b8501011115620008e0578384fd5b602092830195509350620008f891860190506200063e565b90509250925092565b60008060008060008060008060006101208a8c03121562000920578485fd5b893567ffffffffffffffff8082111562000938578687fd5b620009468d838e01620006e7565b9a5060208c01359150808211156200095c578687fd5b6200096a8d838e01620006e7565b995060408c013591508082111562000980578687fd5b6200098e8d838e01620006e7565b985060608c0135915080821115620009a4578687fd5b620009b28d838e01620006e7565b975060808c0135915080821115620009c8578687fd5b620009d68d838e01620006e7565b965060a08c0135915080821115620009ec578586fd5b620009fa8d838e0162000759565b955060c08c0135945060e08c013591508082111562000a17578384fd5b5062000a268c828d016200065b565b9250506101008a013590509295985092959850929598565b6000806040838503121562000a51578182fd5b823567ffffffffffffffff81111562000a68578283fd5b83016080818603121562000862578283fd5b6000815180845260208085019450808401835b8381101562000aab5781518752958201959082019060010162000a8d565b509495945050505050565b81835281816020850137506000828201602090810191909152601f909101601f19169091010190565b60008151808452815b8181101562000b065760208185018101518683018201520162000ae8565b8181111562000b185782602083870101525b50601f01601f19169290920160200192915050565b6040808252810183905260006001600160fb1b0384111562000b4d578081fd5b8360051b8086606085013782016060019081526001600160a01b039290921660209091015292915050565b60408152600062000b8d604083018562000adf565b828103602084015262000ba1818562000adf565b95945050505050565b600061014080835262000bc08184018e62000adf565b9050828103602084015262000bd6818d62000adf565b9050828103604084015262000bec818c62000adf565b9050828103606084015262000c02818b62000adf565b9050828103608084015262000c18818a62000adf565b905082810360a084015287516080825262000c37608083018262000adf565b90506020890151828203602084015262000c52828262000adf565b9150506040890151828203604084015262000c6e828262000adf565b9150506060890151828203606084015262000c8a828262000adf565b925050508660c084015282810360e084015262000ca8818762000a7a565b91505062000cc26101008301856001600160a01b03169052565b826101208301529b9a5050505050505050505050565b60408152600062000cea848562000e00565b6080604085015262000d0160c08501828462000ab6565b91505062000d13602086018662000e00565b603f198086850301606087015262000d2d84838562000ab6565b935062000d3e604089018962000e00565b935091508086850301608087015262000d5984848462000ab6565b935062000d6a606089018962000e00565b93509150808685030160a08701525062000d8683838362000ab6565b935050505060018060a01b03831660208301529392505050565b6040516080810167ffffffffffffffff8111828210171562000dc65762000dc662000e4f565b60405290565b604051601f8201601f1916810167ffffffffffffffff8111828210171562000df85762000df862000e4f565b604052919050565b6000808335601e1984360301811262000e17578283fd5b830160208101925035905067ffffffffffffffff81111562000e3857600080fd5b80360383131562000e4857600080fd5b9250929050565b634e487b7160e01b600052604160045260246000fdfe60806040523480156200001157600080fd5b50604051620036d3380380620036d38339810160408190526200003491620001da565b8151829082906200004d90600390602085019062000081565b5080516200006390600490602084019062000081565b5050601780546001600160a01b031916331790555062000294915050565b8280546200008f9062000241565b90600052602060002090601f016020900481019282620000b35760008555620000fe565b82601f10620000ce57805160ff1916838001178555620000fe565b82800160010185558215620000fe579182015b82811115620000fe578251825591602001919060010190620000e1565b506200010c92915062000110565b5090565b5b808211156200010c576000815560010162000111565b600082601f83011262000138578081fd5b81516001600160401b03808211156200015557620001556200027e565b604051601f8301601f19908116603f011681019082821181831017156200018057620001806200027e565b816040528381526020925086838588010111156200019c578485fd5b8491505b83821015620001bf5785820183015181830184015290820190620001a0565b83821115620001d057848385830101525b9695505050505050565b60008060408385031215620001ed578182fd5b82516001600160401b038082111562000204578384fd5b620002128683870162000127565b9350602085015191508082111562000228578283fd5b50620002378582860162000127565b9150509250929050565b600181811c908216806200025657607f821691505b602082108114156200027857634e487b7160e01b600052602260045260246000fd5b50919050565b634e487b7160e01b600052604160045260246000fd5b61342f80620002a46000396000f3fe608060405234801561001057600080fd5b50600436106101da5760003560e01c80637fdcf01f11610104578063a69bac24116100a2578063d25b1c6d11610071578063d25b1c6d1461040e578063d3fc986414610421578063dd62ed3e14610434578063f67ad2331461046d57600080fd5b8063a69bac24146103ad578063a9059cbb146103cf578063abb1dc44146103e2578063b2511314146103f957600080fd5b806395d89b41116100de57806395d89b41146103775780639a7a83621461037f5780639ee0950614610392578063a457c2d71461039a57600080fd5b80637fdcf01f1461033657806386027896146103515780638bcd06551461036457600080fd5b80631bbb6e581161017c578063553af65c1161014b578063553af65c146102df57806358aee270146102f25780636a3611b9146102fa57806370a082311461030d57600080fd5b80631bbb6e581461028657806323b872dd146102aa578063313ce567146102bd57806339509351146102cc57600080fd5b80630a576364116101b85780630a5763641461023557806313af40351461024a57806314fcf3151461025d57806318160ddd1461027e57600080fd5b806306fdde03146101df578063070df2d2146101fd578063095ea7b314610212575b600080fd5b6101e7610480565b6040516101f49190612dfd565b60405180910390f35b61021061020b366004612b82565b610512565b005b610225610220366004612893565b6107cd565b60405190151581526020016101f4565b61023d6107e3565b6040516101f49190612ee7565b610210610258366004612805565b610ca6565b61027061026b366004612893565b610cf2565b6040519081526020016101f4565b600254610270565b61029961029436600461298e565b610d23565b6040516101f4959493929190612d85565b6102256102b8366004612858565b610dfa565b604051601281526020016101f4565b6102256102da366004612893565b610ea4565b6102106102ed366004612a12565b610ee0565b6101e7611137565b61021061030836600461298e565b611146565b61027061031b366004612805565b6001600160a01b031660009081526020819052604090205490565b601554601354604080519283526020830191909152016101f4565b61021061035f366004612910565b611175565b610210610372366004612910565b611285565b6101e7611526565b61021061038d366004612b4a565b611535565b6101e761159f565b6102256103a8366004612893565b6115a9565b6103c06103bb36600461298e565b611642565b6040516101f493929190612dc3565b6102256103dd366004612893565b61170b565b6103ea61177b565b6040516101f493929190612e10565b610401611c57565b6040516101f49190612dea565b61027061041c366004612893565b611cb1565b61021061042f3660046128bc565b611ccd565b610270610442366004612826565b6001600160a01b03918216600090815260016020908152604080832093909416825291909152205490565b61021061047b3660046129a6565b611ee9565b60606003805461048f9061321c565b80601f01602080910402602001604051908101604052809291908181526020018280546104bb9061321c565b80156105085780601f106104dd57610100808354040283529160200191610508565b820191906000526020600020905b8154815290600101906020018083116104eb57829003601f168201915b5050505050905090565b33600090815260208190526040902054839081106105775760405162461bcd60e51b815260206004820152601a60248201527f4e6f20616d6f756e7420746f6b656e20686f6c6465722068617300000000000060448201526064015b60405180910390fd5b6101008251106105c95760405162461bcd60e51b815260206004820152601f60248201527f466565646261636b206973206c6f6e672c206d757374206265203c2032353600604482015260640161056e565b6040805160a08101825233815242602080830191825292820186815260608301888152608084018781526013805460018101825560009190915285517f66de8ffda797e3de9c05e8fc57b3bf0ec28a930d40b0d285d93c06501cf6a090600590920291820180546001600160a01b0319166001600160a01b0390921691909117815594517f66de8ffda797e3de9c05e8fc57b3bf0ec28a930d40b0d285d93c06501cf6a09182015592517f66de8ffda797e3de9c05e8fc57b3bf0ec28a930d40b0d285d93c06501cf6a09284015590517f66de8ffda797e3de9c05e8fc57b3bf0ec28a930d40b0d285d93c06501cf6a093830155518051939485946106f4937f66de8ffda797e3de9c05e8fc57b3bf0ec28a930d40b0d285d93c06501cf6a094019290910190612452565b5050336000908152601460205260409020601354909150610717906001906130f2565b81546001810183556000928352602083200155610749336001600160a01b031660009081526020819052604090205490565b6107538787613030565b61075d9190612ff6565b60135490915061076d8183613030565b60135461077c906001906130b3565b6007546107899190613030565b6107939190612f9d565b61079d9190612ff6565b600755600680548791906000906107b5908490612fde565b909155506107c590503387611f24565b505050505050565b60006107da338484612072565b50600192915050565b6107eb6124d6565b604080516101608101825260058054825260065460208301526007549282019290925260085460608201526009546001600160a01b03166080820152600a805491929160a08401919061083d9061321c565b80601f01602080910402602001604051908101604052809291908181526020018280546108699061321c565b80156108b65780601f1061088b576101008083540402835291602001916108b6565b820191906000526020600020905b81548152906001019060200180831161089957829003601f168201915b505050505081526020016006820180546108cf9061321c565b80601f01602080910402602001604051908101604052809291908181526020018280546108fb9061321c565b80156109485780601f1061091d57610100808354040283529160200191610948565b820191906000526020600020905b81548152906001019060200180831161092b57829003601f168201915b505050505081526020016007820180546109619061321c565b80601f016020809104026020016040519081016040528092919081815260200182805461098d9061321c565b80156109da5780601f106109af576101008083540402835291602001916109da565b820191906000526020600020905b8154815290600101906020018083116109bd57829003601f168201915b5050505050815260200160088201604051806080016040529081600082018054610a039061321c565b80601f0160208091040260200160405190810160405280929190818152602001828054610a2f9061321c565b8015610a7c5780601f10610a5157610100808354040283529160200191610a7c565b820191906000526020600020905b815481529060010190602001808311610a5f57829003601f168201915b50505050508152602001600182018054610a959061321c565b80601f0160208091040260200160405190810160405280929190818152602001828054610ac19061321c565b8015610b0e5780601f10610ae357610100808354040283529160200191610b0e565b820191906000526020600020905b815481529060010190602001808311610af157829003601f168201915b50505050508152602001600282018054610b279061321c565b80601f0160208091040260200160405190810160405280929190818152602001828054610b539061321c565b8015610ba05780601f10610b7557610100808354040283529160200191610ba0565b820191906000526020600020905b815481529060010190602001808311610b8357829003601f168201915b50505050508152602001600382018054610bb99061321c565b80601f0160208091040260200160405190810160405280929190818152602001828054610be59061321c565b8015610c325780601f10610c0757610100808354040283529160200191610c32565b820191906000526020600020905b815481529060010190602001808311610c1557829003601f168201915b5050505050815250508152602001600c8201805480602002602001604051908101604052809291908181526020018280548015610c8e57602002820191906000526020600020905b815481526020019060010190808311610c7a575b50505050508152602001600d82015481525050905090565b6018546001600160a01b03163314610cd05760405162461bcd60e51b815260040161056e90612e53565b601880546001600160a01b0319166001600160a01b0392909216919091179055565b60166020528160005260406000208181548110610d0e57600080fd5b90600052602060002001600091509150505481565b60138181548110610d3357600080fd5b6000918252602090912060059091020180546001820154600283015460038401546004850180546001600160a01b03909516965092949193909290610d779061321c565b80601f0160208091040260200160405190810160405280929190818152602001828054610da39061321c565b8015610df05780601f10610dc557610100808354040283529160200191610df0565b820191906000526020600020905b815481529060010190602001808311610dd357829003601f168201915b5050505050905085565b6000610e07848484612196565b6001600160a01b038416600090815260016020908152604080832033845290915290205482811015610e8c5760405162461bcd60e51b815260206004820152602860248201527f45524332303a207472616e7366657220616d6f756e74206578636565647320616044820152676c6c6f77616e636560c01b606482015260840161056e565b610e998533858403612072565b506001949350505050565b3360008181526001602090815260408083206001600160a01b038716845290915281205490916107da918590610edb908690612fde565b612072565b6017546001600160a01b03163314610f0a5760405162461bcd60e51b815260040161056e90612e83565b601880546001600160a01b0319166001600160a01b038416179055895160101180610f365750600a8951105b80610f42575060408851105b80610f4e575060808751105b80610f5b57506101008651105b80610f6857506005835111155b610fb45760405162461bcd60e51b815260206004820152601b60248201527f546f6f206d616e792073796d627320696e20706172616d657465720000000000604482015260640161056e565b604080516101608101825260008082526020808301829052928201819052606082018790526001600160a01b0385166080830181905260a083018c905260c083018b905260e083018a9052610100830189905261012083018790526101408301859052600582815560068390556007929092556008889055600980546001600160a01b03191690911790558a519192909161105591600a91908d0190612452565b5060c08201518051611071916006840191602090910190612452565b5060e0820151805161108d916007840191602090910190612452565b506101008201518051805160088401916110ac91839160200190612452565b5060208281015180516110c59260018501920190612452565b50604082015180516110e1916002840191602090910190612452565b50606082015180516110fd916003840191602090910190612452565b505050610120820151805161111c91600c840191602090910190612565565b5061014082015181600d015590505050505050505050505050565b6060611141611526565b905090565b6018546001600160a01b031633146111705760405162461bcd60e51b815260040161056e90612e53565b601255565b6017546001600160a01b0316331461119f5760405162461bcd60e51b815260040161056e90612e83565b6018546001600160a01b038281169116146111cc5760405162461bcd60e51b815260040161056e90612eba565b816005811061121d5760405162461bcd60e51b815260206004820152601860248201527f4f6e6c792035206b6579732063616e20616464206f6e63650000000000000000604482015260640161056e565b60005b8181101561127e57601185858381811061124a57634e487b7160e01b600052603260045260246000fd5b835460018101855560009485526020948590209190940292909201359190920155508061127681613257565b915050611220565b5050505050565b6017546001600160a01b031633146112af5760405162461bcd60e51b815260040161056e90612e83565b6018546001600160a01b038281169116146112dc5760405162461bcd60e51b815260040161056e90612eba565b816005811061132d5760405162461bcd60e51b815260206004820152601b60248201527f4f6e6c792035206b6579732063616e2072656d6f7665206f6e63650000000000604482015260640161056e565b61133561259f565b6000805b838110156114035760005b6011548110156113f05787878381811061136e57634e487b7160e01b600052603260045260246000fd5b905060200201356005600c01828154811061139957634e487b7160e01b600052603260045260246000fd5b906000526020600020015414156113de57808484600581106113cb57634e487b7160e01b600052603260045260246000fd5b60200201526113db836001612fde565b92505b806113e881613257565b915050611344565b50806113fb81613257565b915050611339565b5060005b818110156114ba57601180548290611421906001906130f2565b61142b91906130f2565b8154811061144957634e487b7160e01b600052603260045260246000fd5b90600052602060002001546005600c0184836005811061147957634e487b7160e01b600052603260045260246000fd5b60200201518154811061149c57634e487b7160e01b600052603260045260246000fd5b600091825260209091200155806114b281613257565b915050611407565b5060005b8181101561151d576011805482906114d8906001906130f2565b6114e291906130f2565b8154811061150057634e487b7160e01b600052603260045260246000fd5b60009182526020822001558061151581613257565b9150506114be565b50505050505050565b60606004805461048f9061321c565b6017546001600160a01b0316331461155f5760405162461bcd60e51b815260040161056e90612e83565b6018546001600160a01b0382811691161461158c5760405162461bcd60e51b815260040161056e90612eba565b81600d611599828261329e565b50505050565b6060611141610480565b3360009081526001602090815260408083206001600160a01b03861684529091528120548281101561162b5760405162461bcd60e51b815260206004820152602560248201527f45524332303a2064656372656173656420616c6c6f77616e63652062656c6f77604482015264207a65726f60d81b606482015260840161056e565b6116383385858403612072565b5060019392505050565b6015818154811061165257600080fd5b60009182526020909120600390910201805460018201546002830180546001600160a01b0390931694509092916116889061321c565b80601f01602080910402602001604051908101604052809291908181526020018280546116b49061321c565b80156117015780601f106116d657610100808354040283529160200191611701565b820191906000526020600020905b8154815290600101906020018083116116e457829003601f168201915b5050505050905083565b6017546040516323b3af8960e01b81526001600160a01b03848116600483015230602483015260009216906323b3af8990604401600060405180830381600087803b15801561175957600080fd5b505af115801561176d573d6000803e3d6000fd5b505050506116388383612365565b6060806117866124d6565b61178e610480565b611796611526565b604080516101608101825260058054825260065460208301526007549282019290925260085460608201526009546001600160a01b03166080820152600a8054839160a08401916117e69061321c565b80601f01602080910402602001604051908101604052809291908181526020018280546118129061321c565b801561185f5780601f106118345761010080835404028352916020019161185f565b820191906000526020600020905b81548152906001019060200180831161184257829003601f168201915b505050505081526020016006820180546118789061321c565b80601f01602080910402602001604051908101604052809291908181526020018280546118a49061321c565b80156118f15780601f106118c6576101008083540402835291602001916118f1565b820191906000526020600020905b8154815290600101906020018083116118d457829003601f168201915b5050505050815260200160078201805461190a9061321c565b80601f01602080910402602001604051908101604052809291908181526020018280546119369061321c565b80156119835780601f1061195857610100808354040283529160200191611983565b820191906000526020600020905b81548152906001019060200180831161196657829003601f168201915b50505050508152602001600882016040518060800160405290816000820180546119ac9061321c565b80601f01602080910402602001604051908101604052809291908181526020018280546119d89061321c565b8015611a255780601f106119fa57610100808354040283529160200191611a25565b820191906000526020600020905b815481529060010190602001808311611a0857829003601f168201915b50505050508152602001600182018054611a3e9061321c565b80601f0160208091040260200160405190810160405280929190818152602001828054611a6a9061321c565b8015611ab75780601f10611a8c57610100808354040283529160200191611ab7565b820191906000526020600020905b815481529060010190602001808311611a9a57829003601f168201915b50505050508152602001600282018054611ad09061321c565b80601f0160208091040260200160405190810160405280929190818152602001828054611afc9061321c565b8015611b495780601f10611b1e57610100808354040283529160200191611b49565b820191906000526020600020905b815481529060010190602001808311611b2c57829003601f168201915b50505050508152602001600382018054611b629061321c565b80601f0160208091040260200160405190810160405280929190818152602001828054611b8e9061321c565b8015611bdb5780601f10611bb057610100808354040283529160200191611bdb565b820191906000526020600020905b815481529060010190602001808311611bbe57829003601f168201915b5050505050815250508152602001600c8201805480602002602001604051908101604052809291908181526020018280548015611c3757602002820191906000526020600020905b815481526020019060010190808311611c23575b50505050508152602001600d820154815250509050925092509250909192565b60606005600c0180548060200260200160405190810160405280929190818152602001828054801561050857602002820191906000526020600020905b815481526020019060010190808311611c94575050505050905090565b60146020528160005260406000208181548110610d0e57600080fd5b6018546001600160a01b03163314611cf75760405162461bcd60e51b815260040161056e90612e53565b610100815110611d495760405162461bcd60e51b815260206004820152601c60248201527f494f552074657874206973206c6f6e672c206e656564203c2032353600000000604482015260640161056e565b604080516060810182526001600160a01b0385811682524260208084019182529383018581526015805460018101825560009190915284517f55f448fdea98c4d29eb340757ef0a66cd03dbb9538908a6a81d96026b71ec475600390920291820180546001600160a01b0319169190951617845591517f55f448fdea98c4d29eb340757ef0a66cd03dbb9538908a6a81d96026b71ec47683015551805193948594611e1a937f55f448fdea98c4d29eb340757ef0a66cd03dbb9538908a6a81d96026b71ec477019290910190612452565b5050506001600160a01b0384166000908152601660205260409020601554611e44906001906130f2565b81546001810183556000928352602090922090910155611e648484612372565b8260056000016000828254611e799190612fde565b90915550506017546040516323b3af8960e01b81526001600160a01b038681166004830152306024830152909116906323b3af8990604401600060405180830381600087803b158015611ecb57600080fd5b505af1158015611edf573d6000803e3d6000fd5b5050505050505050565b6018546001600160a01b03163314611f135760405162461bcd60e51b815260040161056e90612e53565b611f1f600c83836125bd565b505050565b6001600160a01b038216611f845760405162461bcd60e51b815260206004820152602160248201527f45524332303a206275726e2066726f6d20746865207a65726f206164647265736044820152607360f81b606482015260840161056e565b6001600160a01b03821660009081526020819052604090205481811015611ff85760405162461bcd60e51b815260206004820152602260248201527f45524332303a206275726e20616d6f756e7420657863656564732062616c616e604482015261636560f01b606482015260840161056e565b6001600160a01b03831660009081526020819052604081208383039055600280548492906120279084906130f2565b90915550506040518281526000906001600160a01b038516907fddf252ad1be2c89b69c2b068fc378daa952ba7f163c4a11628f55a4df523b3ef9060200160405180910390a3505050565b6001600160a01b0383166120d45760405162461bcd60e51b8152602060048201526024808201527f45524332303a20617070726f76652066726f6d20746865207a65726f206164646044820152637265737360e01b606482015260840161056e565b6001600160a01b0382166121355760405162461bcd60e51b815260206004820152602260248201527f45524332303a20617070726f766520746f20746865207a65726f206164647265604482015261737360f01b606482015260840161056e565b6001600160a01b0383811660008181526001602090815260408083209487168084529482529182902085905590518481527f8c5be1e5ebec7d5bd14f71427d1e84f3dd0314c0f7b2291e5b200ac8c7c3b925910160405180910390a3505050565b6001600160a01b0383166121fa5760405162461bcd60e51b815260206004820152602560248201527f45524332303a207472616e736665722066726f6d20746865207a65726f206164604482015264647265737360d81b606482015260840161056e565b6001600160a01b03821661225c5760405162461bcd60e51b815260206004820152602360248201527f45524332303a207472616e7366657220746f20746865207a65726f206164647260448201526265737360e81b606482015260840161056e565b6001600160a01b038316600090815260208190526040902054818110156122d45760405162461bcd60e51b815260206004820152602660248201527f45524332303a207472616e7366657220616d6f756e7420657863656564732062604482015265616c616e636560d01b606482015260840161056e565b6001600160a01b0380851660009081526020819052604080822085850390559185168152908120805484929061230b908490612fde565b92505081905550826001600160a01b0316846001600160a01b03167fddf252ad1be2c89b69c2b068fc378daa952ba7f163c4a11628f55a4df523b3ef8460405161235791815260200190565b60405180910390a350505050565b60006107da338484612196565b6001600160a01b0382166123c85760405162461bcd60e51b815260206004820152601f60248201527f45524332303a206d696e7420746f20746865207a65726f206164647265737300604482015260640161056e565b80600260008282546123da9190612fde565b90915550506001600160a01b03821660009081526020819052604081208054839290612407908490612fde565b90915550506040518181526001600160a01b038316906000907fddf252ad1be2c89b69c2b068fc378daa952ba7f163c4a11628f55a4df523b3ef9060200160405180910390a35b5050565b82805461245e9061321c565b90600052602060002090601f01602090048101928261248057600085556124c6565b82601f1061249957805160ff19168380011785556124c6565b828001600101855582156124c6579182015b828111156124c65782518255916020019190600101906124ab565b506124d2929150612631565b5090565b6040518061016001604052806000815260200160008152602001600081526020016000801916815260200160006001600160a01b031681526020016060815260200160608152602001606081526020016125516040518060800160405280606081526020016060815260200160608152602001606081525090565b815260606020820152600060409091015290565b8280548282559060005260206000209081019282156124c657916020028201828111156124c65782518255916020019190600101906124ab565b6040518060a001604052806005906020820280368337509192915050565b8280546125c99061321c565b90600052602060002090601f0160209004810192826125eb57600085556124c6565b82601f106126045782800160ff198235161785556124c6565b828001600101855582156124c6579182015b828111156124c6578235825591602001919060010190612616565b5b808211156124d25760008155600101612632565b80356001600160a01b038116811461265d57600080fd5b919050565b600082601f830112612672578081fd5b813560206001600160401b0382111561268d5761268d613288565b8160051b61269c828201612f6d565b8381528281019086840183880185018910156126b6578687fd5b8693505b858410156126d85780358352600193909301929184019184016126ba565b50979650505050505050565b600082601f8301126126f4578081fd5b81356001600160401b0381111561270d5761270d613288565b612720601f8201601f1916602001612f6d565b818152846020838601011115612734578283fd5b816020850160208301379081016020019190915292915050565b60006080828403121561275f578081fd5b612767612f45565b905081356001600160401b038082111561278057600080fd5b61278c858386016126e4565b835260208401359150808211156127a257600080fd5b6127ae858386016126e4565b602084015260408401359150808211156127c757600080fd5b6127d3858386016126e4565b604084015260608401359150808211156127ec57600080fd5b506127f9848285016126e4565b60608301525092915050565b600060208284031215612816578081fd5b61281f82612646565b9392505050565b60008060408385031215612838578081fd5b61284183612646565b915061284f60208401612646565b90509250929050565b60008060006060848603121561286c578081fd5b61287584612646565b925061288360208501612646565b9150604084013590509250925092565b600080604083850312156128a5578182fd5b6128ae83612646565b946020939093013593505050565b6000806000606084860312156128d0578283fd5b6128d984612646565b92506020840135915060408401356001600160401b038111156128fa578182fd5b612906868287016126e4565b9150509250925092565b600080600060408486031215612924578283fd5b83356001600160401b038082111561293a578485fd5b818601915086601f83011261294d578485fd5b81358181111561295b578586fd5b8760208260051b850101111561296f578586fd5b6020928301955093506129859186019050612646565b90509250925092565b60006020828403121561299f578081fd5b5035919050565b600080602083850312156129b8578182fd5b82356001600160401b03808211156129ce578384fd5b818501915085601f8301126129e1578384fd5b8135818111156129ef578485fd5b866020828501011115612a00578485fd5b60209290920196919550909350505050565b6000806000806000806000806000806101408b8d031215612a31578586fd5b8a356001600160401b0380821115612a47578788fd5b612a538e838f016126e4565b9b5060208d0135915080821115612a68578788fd5b612a748e838f016126e4565b9a5060408d0135915080821115612a89578788fd5b612a958e838f016126e4565b995060608d0135915080821115612aaa578788fd5b612ab68e838f016126e4565b985060808d0135915080821115612acb578788fd5b612ad78e838f016126e4565b975060a08d0135915080821115612aec578687fd5b612af88e838f0161274e565b965060c08d0135955060e08d0135915080821115612b14578485fd5b50612b218d828e01612662565b935050612b316101008c01612646565b91506101208b013590509295989b9194979a5092959850565b60008060408385031215612b5c578182fd5b82356001600160401b03811115612b71578283fd5b830160808186031215612841578283fd5b600080600060608486031215612b96578081fd5b833592506020840135915060408401356001600160401b038111156128fa578182fd5b6000815180845260208085019450808401835b83811015612be857815187529582019590820190600101612bcc565b509495945050505050565b60008151808452815b81811015612c1857602081850181015186830182015201612bfc565b81811115612c295782602083870101525b50601f01601f19169290920160200192915050565b6000610160825184526020830151602085015260408301516040850152606083015160608501526080830151612c7f60808601826001600160a01b03169052565b5060a08301518160a0860152612c9782860182612bf3565b91505060c083015184820360c0860152612cb18282612bf3565b91505060e083015184820360e0860152612ccb8282612bf3565b9150506101008084015185830382870152612ce68382612d1a565b925050506101208084015185830382870152612d028382612bb9565b61014095860151969095019590955250919392505050565b6000815160808452612d2f6080850182612bf3565b905060208301518482036020860152612d488282612bf3565b91505060408301518482036040860152612d628282612bf3565b91505060608301518482036060860152612d7c8282612bf3565b95945050505050565b60018060a01b038616815284602082015283604082015282606082015260a060808201526000612db860a0830184612bf3565b979650505050505050565b60018060a01b0384168152826020820152606060408201526000612d7c6060830184612bf3565b60208152600061281f6020830184612bb9565b60208152600061281f6020830184612bf3565b606081526000612e236060830186612bf3565b8281036020840152612e358186612bf3565b90508281036040840152612e498185612c3e565b9695505050505050565b6020808252601690820152754f6e6c79206f776e65722063616e20646f207468697360501b604082015260600190565b60208082526018908201527f4f6e6c7920666163746f72792063616e20646f20746869730000000000000000604082015260600190565b60208082526013908201527213db9b1e481bdddb995c8818d85b8819591a5d606a1b604082015260600190565b60208152600061281f6020830184612c3e565b6000808335601e19843603018112612f10578283fd5b8301803591506001600160401b03821115612f29578283fd5b602001915036819003821315612f3e57600080fd5b9250929050565b604051608081016001600160401b0381118282101715612f6757612f67613288565b60405290565b604051601f8201601f191681016001600160401b0381118282101715612f9557612f95613288565b604052919050565b600080821280156001600160ff1b0384900385131615612fbf57612fbf613272565b600160ff1b8390038412811615612fd857612fd8613272565b50500190565b60008219821115612ff157612ff1613272565b500190565b60008261301157634e487b7160e01b81526012600452602481fd5b600160ff1b82146000198414161561302b5761302b613272565b500590565b60006001600160ff1b038184138284138082168684048611161561305657613056613272565b600160ff1b8487128281168783058912161561307457613074613272565b85871292508782058712848416161561308f5761308f613272565b878505871281841616156130a5576130a5613272565b505050929093029392505050565b60008083128015600160ff1b8501841216156130d1576130d1613272565b6001600160ff1b03840183138116156130ec576130ec613272565b50500390565b60008282101561310457613104613272565b500390565b5b8181101561244e576000815560010161310a565b6001600160401b0383111561313557613135613288565b61313f815461321c565b600080601f8611601f84118181171561315e5760008681526020902092505b801561318d57601f880160051c830160208910156131795750825b61318b601f870160051c850182613109565b505b5080600181146131c1576000945087156131a8578387013594505b600188901b60001960038a901b1c198616178655611edf565b601f198816945082845b868110156131eb57888601358255602095860195600190920191016131cb565b50888610156132085760001960f88a60031b161c19858901351681555b5060018860011b0186555050505050505050565b600181811c9082168061323057607f821691505b6020821081141561325157634e487b7160e01b600052602260045260246000fd5b50919050565b600060001982141561326b5761326b613272565b5060010190565b634e487b7160e01b600052601160045260246000fd5b634e487b7160e01b600052604160045260246000fd5b6132a88283612efa565b6001600160401b038111156132bf576132bf613288565b6132c9835461321c565b600080601f8411601f8411818117156132e85760008881526020902092505b801561331757601f860160051c830160208710156133035750825b613315601f870160051c850182613109565b505b50806001811461334b57600094508515613332578387013594505b600186901b600019600388901b1c19861617885561339d565b601f198616945082845b868110156133755788860135825560209586019560019092019101613355565b50868610156133925760001960f88860031b161c19858901351681555b5060018660011b0188555b505050505050506133b16020830183612efa565b6133bf81836001860161311e565b50506133ce6040830183612efa565b6133dc81836002860161311e565b50506133eb6060830183612efa565b61159981836003860161311e56fea2646970667358221220a0bc275e55a9b8a90949a80a6dbd1a96d83abf729f526b8f17be46c918b2cfa664736f6c63430008040033a264697066735822122085233f766a22231d48fc0b3f1bfcdd2205686f10b751c5ced8e97f929c1335aa64736f6c63430008040033",
  "immutableReferences": {},
  "source": "pragma solidity >=  0.8.0;\npragma experimental ABIEncoderV2;\nimport \"./IOUtoken.sol\";\nimport \"./interfaces/iStoreIOUs.sol\";\nimport \"./interfaces/iIOUtoken.sol\";\n\ncontract MakeIOU {\n    \n    address private owner;\n    iStoreIOUs store;\n\n    function setOwner (address _newOwner) public onlyOwner {\n        owner = _newOwner;\n    }\n\n    function setStore (address _newOwner) public onlyOwner {\n        store = iStoreIOUs(_newOwner);\n        \n    }   \n\n    constructor ()  {\n        owner = msg.sender;\n    }\n\n    modifier onlyOwner() {\n        require (owner == msg.sender, \"Only owner can do this\");\n        _;\n    }\n\n    function makeIOU(string memory _name, \n                 string memory _symbol, \n                 string memory _myName, //name of emitter\n                 string memory _socialProfile, //profile  of emitter in social nets\n                 string memory _description, //description of bond IOU to  work\n                 iIOUtoken.geo  memory _location, //where is                  \n                 bytes32  _units, //units of deal\n                 bytes32[] memory _keywords,\n                 bytes32 _phone\n                        ) public returns (address) {\n\n        IOUtoken newIOU = new IOUtoken(_name, \n                                    _symbol);\n        newIOU.setIOU(  _name, \n                        _symbol,                    \n                        _myName, \n                        _socialProfile,  \n                        _description,\n                        _location,\n                        _units, \n                        _keywords,\n                        msg.sender, \n                        _phone\n            );\n        //store.addIOU2(address(newIOU), _socialProfile, msg.sender, _keywords);\n        require (address(store) != address(0x0), \"No store address\");\n        store.addIOU1(address(newIOU), msg.sender);//, _socialProfile, msg.sender, _keywords);\n\n        return address (newIOU);\n        }\n\n    function addHolder(address _holder, address _IOUtoken) public  {\n        store.addHolder(_holder, _IOUtoken);\n      }\n\n\n   function addKeys (bytes32[] calldata _keys, address _IOUtok)  public  {\n        IOUtoken (_IOUtok).addKeys(_keys, msg.sender);\n        store.addKeys( _keys, _IOUtok);  \n        } \n\n   function delKeys (bytes32[] calldata _keys, address _IOUtok)  public  {\n        IOUtoken (_IOUtok).delKeys(_keys, msg.sender);\n        store.delKeys( _keys, _IOUtok);\n        }\n\n    function editGeo (iIOUtoken.geo calldata _location, address _IOUtok)  public  {\n        IOUtoken (_IOUtok).editGeo(_location, msg.sender);\n        store.changeIOUGeoAllkeys(_location, _IOUtok);\n    }\n}",
  "sourcePath": "/mnt/512-2/dfd/iou2/contracts/MakeIOU.sol",
  "compiler": {
    "name": "solc",
    "version": "0.8.4+commit.c7e474f2.Emscripten.clang"
  },
  "schemaVersion": "3.4.4",
  "updatedAt": "2022-01-08T11:30:54.665Z",
  "networkType": "ethereum",
  "devdoc": {
    "kind": "dev",
    "methods": {},
    "version": 1
  },
  "userdoc": {
    "kind": "user",
    "methods": {},
    "version": 1
  }
}