{
  "contractName": "MakeIOU",
  "abi": [
    {
      "inputs": [],
      "stateMutability": "nonpayable",
      "type": "constructor"
    },
    {
      "inputs": [
        {
          "internalType": "address",
          "name": "_newOwner",
          "type": "address"
        }
      ],
      "name": "setOwner",
      "outputs": [],
      "stateMutability": "nonpayable",
      "type": "function"
    },
    {
      "inputs": [
        {
          "internalType": "address",
          "name": "_new",
          "type": "address"
        }
      ],
      "name": "setStore",
      "outputs": [],
      "stateMutability": "nonpayable",
      "type": "function"
    },
    {
      "inputs": [
        {
          "internalType": "address",
          "name": "_proxy",
          "type": "address"
        }
      ],
      "name": "setimplement",
      "outputs": [],
      "stateMutability": "nonpayable",
      "type": "function"
    },
    {
      "inputs": [
        {
          "internalType": "string",
          "name": "_name",
          "type": "string"
        },
        {
          "internalType": "string",
          "name": "_symbol",
          "type": "string"
        },
        {
          "internalType": "string",
          "name": "_myName",
          "type": "string"
        },
        {
          "internalType": "string",
          "name": "_socialProfile",
          "type": "string"
        },
        {
          "internalType": "string",
          "name": "_description",
          "type": "string"
        },
        {
          "components": [
            {
              "internalType": "string",
              "name": "country",
              "type": "string"
            },
            {
              "internalType": "string",
              "name": "state",
              "type": "string"
            },
            {
              "internalType": "string",
              "name": "city",
              "type": "string"
            },
            {
              "internalType": "string",
              "name": "street",
              "type": "string"
            }
          ],
          "internalType": "struct iIOUtoken.geo",
          "name": "_location",
          "type": "tuple"
        },
        {
          "internalType": "bytes32",
          "name": "_units",
          "type": "bytes32"
        },
        {
          "internalType": "bytes32[]",
          "name": "_keywords",
          "type": "bytes32[]"
        },
        {
          "internalType": "bytes32",
          "name": "_phone",
          "type": "bytes32"
        }
      ],
      "name": "makeIOU",
      "outputs": [
        {
          "internalType": "address",
          "name": "",
          "type": "address"
        }
      ],
      "stateMutability": "nonpayable",
      "type": "function"
    }
  ],
  "bytecode": "0x608060405234801561001057600080fd5b50600080546001600160a01b03191633179055610974806100326000396000f3fe608060405234801561001057600080fd5b506004361061004c5760003560e01c8063087cbd401461005157806313af403514610066578063a3af748714610079578063c44e26a2146100a8575b600080fd5b61006461005f36600461038c565b6100bb565b005b61006461007436600461038c565b610110565b61008c6100873660046105d5565b61015c565b6040516001600160a01b03909116815260200160405180910390f35b6100646100b636600461038c565b6102a3565b6000546001600160a01b031633146100ee5760405162461bcd60e51b81526004016100e590610704565b60405180910390fd5b600380546001600160a01b0319166001600160a01b0392909216919091179055565b6000546001600160a01b0316331461013a5760405162461bcd60e51b81526004016100e590610704565b600080546001600160a01b0319166001600160a01b0392909216919091179055565b60408051610160810182526000808252602082018190529181018290526060810185905233608082015260a0810189905260c0810188905260e0810187905261010081018690526101208101849052610140810183905260025482906101ca906001600160a01b03166102ef565b9050806001600160a01b031663a1a613bb8d8d85600360009054906101000a90046001600160a01b03166040518563ffffffff1660e01b81526004016102139493929190610827565b600060405180830381600087803b15801561022d57600080fd5b505af1158015610241573d6000803e3d6000fd5b50506003546001600160a01b03161515915061029490505760405162461bcd60e51b815260206004820152601060248201526f4e6f2073746f7265206164647265737360801b60448201526064016100e5565b9b9a5050505050505050505050565b6000546001600160a01b031633146102cd5760405162461bcd60e51b81526004016100e590610704565b600280546001600160a01b0319166001600160a01b0392909216919091179055565b6000604051733d602d80600a3d3981f3363d3d373d3d3d363d7360601b81528260601b60148201526e5af43d82803e903d91602b57fd5bf360881b60288201526037816000f09150506001600160a01b0381166103875760405162461bcd60e51b8152602060048201526016602482015275115490cc4c4d8dce8818dc99585d194819985a5b195960521b60448201526064016100e5565b919050565b60006020828403121561039e57600080fd5b81356001600160a01b03811681146103b557600080fd5b9392505050565b634e487b7160e01b600052604160045260246000fd5b6040516080810167ffffffffffffffff811182821017156103f5576103f56103bc565b60405290565b604051601f8201601f1916810167ffffffffffffffff81118282101715610424576104246103bc565b604052919050565b600082601f83011261043d57600080fd5b813567ffffffffffffffff811115610457576104576103bc565b61046a601f8201601f19166020016103fb565b81815284602083860101111561047f57600080fd5b816020850160208301376000918101602001919091529392505050565b6000608082840312156104ae57600080fd5b6104b66103d2565b9050813567ffffffffffffffff808211156104d057600080fd5b6104dc8583860161042c565b835260208401359150808211156104f257600080fd5b6104fe8583860161042c565b6020840152604084013591508082111561051757600080fd5b6105238583860161042c565b6040840152606084013591508082111561053c57600080fd5b506105498482850161042c565b60608301525092915050565b600082601f83011261056657600080fd5b8135602067ffffffffffffffff821115610582576105826103bc565b8160051b6105918282016103fb565b92835284810182019282810190878511156105ab57600080fd5b83870192505b848310156105ca578235825291830191908301906105b1565b979650505050505050565b60008060008060008060008060006101208a8c0312156105f457600080fd5b893567ffffffffffffffff8082111561060c57600080fd5b6106188d838e0161042c565b9a5060208c013591508082111561062e57600080fd5b61063a8d838e0161042c565b995060408c013591508082111561065057600080fd5b61065c8d838e0161042c565b985060608c013591508082111561067257600080fd5b61067e8d838e0161042c565b975060808c013591508082111561069457600080fd5b6106a08d838e0161042c565b965060a08c01359150808211156106b657600080fd5b6106c28d838e0161049c565b955060c08c0135945060e08c01359150808211156106df57600080fd5b506106ec8c828d01610555565b9250506101008a013590509295985092959850929598565b6020808252601690820152754f6e6c79206f776e65722063616e20646f207468697360501b604082015260600190565b6000815180845260005b8181101561075a5760208185018101518683018201520161073e565b8181111561076c576000602083870101525b50601f01601f19169290920160200192915050565b60008151608084526107966080850182610734565b9050602083015184820360208601526107af8282610734565b915050604083015184820360408601526107c98282610734565b915050606083015184820360608601526107e38282610734565b95945050505050565b600081518084526020808501945080840160005b8381101561081c57815187529582019590820190600101610800565b509495945050505050565b60808152600061083a6080830187610734565b828103602084015261084c8187610734565b9050828103604084015261016085518252602086015160208301526040860151604083015260608601516060830152608086015161089560808401826001600160a01b03169052565b5060a08601518160a08401526108ad82840182610734565b91505060c086015182820360c08401526108c78282610734565b91505060e086015182820360e08401526108e18282610734565b91505061010080870151838303828501526108fc8382610781565b92505050610120808701518383038285015261091883826107ec565b610140898101519501949094525050506001600160a01b038416606084015290506107e356fea264697066735822122027ec8bed70f0477b6ae96ef499b2a22959d2b44fb4f74d05ef0172895b0eafb264736f6c634300080a0033",
  "immutableReferences": {},
  "source": "pragma solidity >=  0.8.0;\npragma experimental ABIEncoderV2;\nimport \"@openzeppelin/contracts/proxy/Clones.sol\";\n// import \"./ProxySimple.sol\";\n//import \"@openzeppelin/contracts/proxy/transparent/TransparentUpgradeableProxy.sol\";\n//import  \"@openzeppelin/contracts/proxy/ERC1967/ERC1967Proxy.sol\";\nimport \"./interfaces/iIOUtoken.sol\";\nimport \"./interfaces/iStoreIOUs.sol\";\n\n\ncontract MakeIOU {\n    \n    address private owner;\n    address private implement;\n    address private proxy;\n    iStoreIOUs store;\n\n    function setOwner (address _newOwner) public onlyOwner {\n        owner = _newOwner;\n    }\n\n    function setStore (address _new) public onlyOwner {\n        store = iStoreIOUs(_new);\n        \n    }   \n\n    function setimplement (address _proxy ) public onlyOwner {\n        proxy = _proxy;\n        \n    }   \n\n    constructor ()  {\n        owner = msg.sender;\n    }\n\n    modifier onlyOwner() {\n        require (owner == msg.sender, \"Only owner can do this\");\n        _;\n    }\n\n    function makeIOU(string memory _name, \n                 string memory _symbol, \n                 string memory _myName, //name of emitter\n                 string memory _socialProfile, //profile  of emitter in social nets\n                 string memory _description, //description of bond IOU to  work\n                 iIOUtoken.geo  memory _location, //where is                  \n                 bytes32  _units, //units of deal\n                 bytes32[] memory _keywords,\n                 bytes32 _phone\n                        ) public returns (address) {\n        \n\n    iIOUtoken.DescriptionIOU memory thisIOU = iIOUtoken.DescriptionIOU (0,0,0,\n            _units,\n            msg.sender, \n            _myName,\n            _socialProfile,\n            _description,\n            _location,\n            _keywords,\n           _phone\n        );\n    //TransparentUpgradeableProxy proxIOU = new TransparentUpgradeableProxy(proxy, owner, \"\");\n    iIOUtoken newIOU =  iIOUtoken(address ( /* proxIOU */   Clones.clone(proxy) ));\n    \n    newIOU.setIOU (_name, _symbol, thisIOU,address(store)); \n    require (address(store) != address(0x0), \"No store address\");\n    //store.addIOU1(address(newIOU), msg.sender, thisIOU); //, _socialProfile, msg.sender, _keywords);\n     //   newIOU.setStore(address(store));\n\n    return address (newIOU);\n        }\n\n}",
  "sourcePath": "/512-2/dfd/iou2/contracts/MakeIOU.sol",
  "compiler": {
    "name": "solc",
    "version": "0.8.10+commit.fc410830.Emscripten.clang"
  },
  "schemaVersion": "3.4.5",
  "updatedAt": "2022-03-17T11:50:31.011Z",
  "networkType": "ethereum",
  "devdoc": {
    "kind": "dev",
    "methods": {},
    "version": 1
  },
  "userdoc": {
    "kind": "user",
    "methods": {},
    "version": 1
  }
}