{
  "contractName": "MakeIOU",
  "abi": [
    {
      "inputs": [],
      "stateMutability": "nonpayable",
      "type": "constructor"
    },
    {
      "inputs": [
        {
          "internalType": "address",
          "name": "_newOwner",
          "type": "address"
        }
      ],
      "name": "setOwner",
      "outputs": [],
      "stateMutability": "nonpayable",
      "type": "function"
    },
    {
      "inputs": [
        {
          "internalType": "address",
          "name": "_newOwner",
          "type": "address"
        }
      ],
      "name": "setStore",
      "outputs": [],
      "stateMutability": "nonpayable",
      "type": "function"
    },
    {
      "inputs": [
        {
          "internalType": "string",
          "name": "_name",
          "type": "string"
        },
        {
          "internalType": "string",
          "name": "_symbol",
          "type": "string"
        },
        {
          "internalType": "string",
          "name": "_myName",
          "type": "string"
        },
        {
          "internalType": "string",
          "name": "_socialProfile",
          "type": "string"
        },
        {
          "internalType": "string",
          "name": "_description",
          "type": "string"
        },
        {
          "components": [
            {
              "internalType": "string",
              "name": "country",
              "type": "string"
            },
            {
              "internalType": "string",
              "name": "state",
              "type": "string"
            },
            {
              "internalType": "string",
              "name": "city",
              "type": "string"
            },
            {
              "internalType": "string",
              "name": "street",
              "type": "string"
            }
          ],
          "internalType": "struct iIOUtoken.geo",
          "name": "_location",
          "type": "tuple"
        },
        {
          "internalType": "bytes32",
          "name": "_units",
          "type": "bytes32"
        },
        {
          "internalType": "bytes32[]",
          "name": "_keywords",
          "type": "bytes32[]"
        }
      ],
      "name": "makeIOU",
      "outputs": [
        {
          "internalType": "address",
          "name": "",
          "type": "address"
        }
      ],
      "stateMutability": "nonpayable",
      "type": "function"
    }
  ],
  "bytecode": "0x608060405234801561001057600080fd5b50336000806101000a81548173ffffffffffffffffffffffffffffffffffffffff021916908373ffffffffffffffffffffffffffffffffffffffff160217905550615a6e806100606000396000f3fe60806040523480156200001157600080fd5b5060043610620000465760003560e01c8063087cbd40146200004b57806313af4035146200006b5780635e51f634146200008b575b600080fd5b620000696004803603810190620000639190620006b8565b620000c1565b005b620000896004803603810190620000839190620006b8565b62000196565b005b620000a96004803603810190620000a39190620006e4565b6200026a565b604051620000b8919062000a5d565b60405180910390f35b3373ffffffffffffffffffffffffffffffffffffffff1660008054906101000a900473ffffffffffffffffffffffffffffffffffffffff1673ffffffffffffffffffffffffffffffffffffffff161462000152576040517f08c379a0000000000000000000000000000000000000000000000000000000008152600401620001499062000be5565b60405180910390fd5b80600160006101000a81548173ffffffffffffffffffffffffffffffffffffffff021916908373ffffffffffffffffffffffffffffffffffffffff16021790555050565b3373ffffffffffffffffffffffffffffffffffffffff1660008054906101000a900473ffffffffffffffffffffffffffffffffffffffff1673ffffffffffffffffffffffffffffffffffffffff161462000227576040517f08c379a00000000000000000000000000000000000000000000000000000000081526004016200021e9062000be5565b60405180910390fd5b806000806101000a81548173ffffffffffffffffffffffffffffffffffffffff021916908373ffffffffffffffffffffffffffffffffffffffff16021790555050565b60008089896040516200027d9062000485565b6200028a92919062000aa7565b604051809103906000f080158015620002a7573d6000803e3d6000fd5b5090508073ffffffffffffffffffffffffffffffffffffffff1663c659e6d58b8b8b8b8b8b8b8b600160009054906101000a900473ffffffffffffffffffffffffffffffffffffffff16336040518b63ffffffff1660e01b8152600401620003199a9998979695949392919062000ae2565b600060405180830381600087803b1580156200033457600080fd5b505af115801562000349573d6000803e3d6000fd5b50505050600073ffffffffffffffffffffffffffffffffffffffff16600160009054906101000a900473ffffffffffffffffffffffffffffffffffffffff1673ffffffffffffffffffffffffffffffffffffffff161415620003e2576040517f08c379a0000000000000000000000000000000000000000000000000000000008152600401620003d99062000bc3565b60405180910390fd5b600160009054906101000a900473ffffffffffffffffffffffffffffffffffffffff1673ffffffffffffffffffffffffffffffffffffffff16635899d14282336040518363ffffffff1660e01b81526004016200044192919062000a7a565b600060405180830381600087803b1580156200045c57600080fd5b505af115801562000471573d6000803e3d6000fd5b505050508091505098975050505050505050565b614bbe8062000e7b83390190565b6000620004aa620004a48462000c30565b62000c07565b90508083825260208201905082856020860282011115620004ca57600080fd5b60005b85811015620004fe5781620004e3888262000591565b845260208401935060208301925050600181019050620004cd565b5050509392505050565b60006200051f620005198462000c5f565b62000c07565b9050828152602081018484840111156200053857600080fd5b6200054584828562000d39565b509392505050565b6000813590506200055e8162000e46565b92915050565b600082601f8301126200057657600080fd5b81356200058884826020860162000493565b91505092915050565b600081359050620005a28162000e60565b92915050565b600082601f830112620005ba57600080fd5b8135620005cc84826020860162000508565b91505092915050565b600060808284031215620005e857600080fd5b620005f4608062000c07565b9050600082013567ffffffffffffffff8111156200061157600080fd5b6200061f84828501620005a8565b600083015250602082013567ffffffffffffffff8111156200064057600080fd5b6200064e84828501620005a8565b602083015250604082013567ffffffffffffffff8111156200066f57600080fd5b6200067d84828501620005a8565b604083015250606082013567ffffffffffffffff8111156200069e57600080fd5b620006ac84828501620005a8565b60608301525092915050565b600060208284031215620006cb57600080fd5b6000620006db848285016200054d565b91505092915050565b600080600080600080600080610100898b0312156200070257600080fd5b600089013567ffffffffffffffff8111156200071d57600080fd5b6200072b8b828c01620005a8565b985050602089013567ffffffffffffffff8111156200074957600080fd5b620007578b828c01620005a8565b975050604089013567ffffffffffffffff8111156200077557600080fd5b620007838b828c01620005a8565b965050606089013567ffffffffffffffff811115620007a157600080fd5b620007af8b828c01620005a8565b955050608089013567ffffffffffffffff811115620007cd57600080fd5b620007db8b828c01620005a8565b94505060a089013567ffffffffffffffff811115620007f957600080fd5b620008078b828c01620005d5565b93505060c06200081a8b828c0162000591565b92505060e089013567ffffffffffffffff8111156200083857600080fd5b620008468b828c0162000564565b9150509295985092959890939650565b6000620008648383620008eb565b60208301905092915050565b6200087b8162000cfb565b82525050565b60006200088e8262000ca5565b6200089a818562000cc8565b9350620008a78362000c95565b8060005b83811015620008de578151620008c2888262000856565b9750620008cf8362000cbb565b925050600181019050620008ab565b5085935050505092915050565b620008f68162000d0f565b82525050565b620009078162000d0f565b82525050565b60006200091a8262000cb0565b62000926818562000cd9565b93506200093881856020860162000d48565b620009438162000de3565b840191505092915050565b60006200095b8262000cb0565b62000967818562000cea565b93506200097981856020860162000d48565b620009848162000de3565b840191505092915050565b60006200099e60108362000cea565b9150620009ab8262000df4565b602082019050919050565b6000620009c560168362000cea565b9150620009d28262000e1d565b602082019050919050565b60006080830160008301518482036000860152620009fc82826200090d565b9150506020830151848203602086015262000a1882826200090d565b9150506040830151848203604086015262000a3482826200090d565b9150506060830151848203606086015262000a5082826200090d565b9150508091505092915050565b600060208201905062000a74600083018462000870565b92915050565b600060408201905062000a91600083018562000870565b62000aa0602083018462000870565b9392505050565b6000604082019050818103600083015262000ac381856200094e565b9050818103602083015262000ad981846200094e565b90509392505050565b600061014082019050818103600083015262000aff818d6200094e565b9050818103602083015262000b15818c6200094e565b9050818103604083015262000b2b818b6200094e565b9050818103606083015262000b41818a6200094e565b9050818103608083015262000b5781896200094e565b905081810360a083015262000b6d8188620009dd565b905062000b7e60c0830187620008fc565b81810360e083015262000b92818662000881565b905062000ba461010083018562000870565b62000bb461012083018462000870565b9b9a5050505050505050505050565b6000602082019050818103600083015262000bde816200098f565b9050919050565b6000602082019050818103600083015262000c0081620009b6565b9050919050565b600062000c1362000c26565b905062000c21828262000d7e565b919050565b6000604051905090565b600067ffffffffffffffff82111562000c4e5762000c4d62000db4565b5b602082029050602081019050919050565b600067ffffffffffffffff82111562000c7d5762000c7c62000db4565b5b62000c888262000de3565b9050602081019050919050565b6000819050602082019050919050565b600081519050919050565b600081519050919050565b6000602082019050919050565b600082825260208201905092915050565b600082825260208201905092915050565b600082825260208201905092915050565b600062000d088262000d19565b9050919050565b6000819050919050565b600073ffffffffffffffffffffffffffffffffffffffff82169050919050565b82818337600083830152505050565b60005b8381101562000d6857808201518184015260208101905062000d4b565b8381111562000d78576000848401525b50505050565b62000d898262000de3565b810181811067ffffffffffffffff8211171562000dab5762000daa62000db4565b5b80604052505050565b7f4e487b7100000000000000000000000000000000000000000000000000000000600052604160045260246000fd5b6000601f19601f8301169050919050565b7f4e6f2073746f7265206164647265737300000000000000000000000000000000600082015250565b7f4f6e6c79206f776e65722063616e20646f207468697300000000000000000000600082015250565b62000e518162000cfb565b811462000e5d57600080fd5b50565b62000e6b8162000d0f565b811462000e7757600080fd5b5056fe60806040523480156200001157600080fd5b5060405162004bbe38038062004bbe8339818101604052810190620000379190620001d8565b8181816003908051906020019062000051929190620000b6565b5080600490805190602001906200006a929190620000b6565b50505033601760006101000a81548173ffffffffffffffffffffffffffffffffffffffff021916908373ffffffffffffffffffffffffffffffffffffffff1602179055505050620003bb565b828054620000c490620002e0565b90600052602060002090601f016020900481019282620000e8576000855562000134565b82601f106200010357805160ff191683800117855562000134565b8280016001018555821562000134579182015b828111156200013357825182559160200191906001019062000116565b5b50905062000143919062000147565b5090565b5b808211156200016257600081600090555060010162000148565b5090565b60006200017d620001778462000274565b6200024b565b9050828152602081018484840111156200019657600080fd5b620001a3848285620002aa565b509392505050565b600082601f830112620001bd57600080fd5b8151620001cf84826020860162000166565b91505092915050565b60008060408385031215620001ec57600080fd5b600083015167ffffffffffffffff8111156200020757600080fd5b6200021585828601620001ab565b925050602083015167ffffffffffffffff8111156200023357600080fd5b6200024185828601620001ab565b9150509250929050565b6000620002576200026a565b905062000265828262000316565b919050565b6000604051905090565b600067ffffffffffffffff8211156200029257620002916200037b565b5b6200029d82620003aa565b9050602081019050919050565b60005b83811015620002ca578082015181840152602081019050620002ad565b83811115620002da576000848401525b50505050565b60006002820490506001821680620002f957607f821691505b6020821081141562000310576200030f6200034c565b5b50919050565b6200032182620003aa565b810181811067ffffffffffffffff821117156200034357620003426200037b565b5b80604052505050565b7f4e487b7100000000000000000000000000000000000000000000000000000000600052602260045260246000fd5b7f4e487b7100000000000000000000000000000000000000000000000000000000600052604160045260246000fd5b6000601f19601f8301169050919050565b6147f380620003cb6000396000f3fe608060405234801561001057600080fd5b50600436106101a95760003560e01c806370a08231116100f9578063abb1dc4411610097578063d25b1c6d11610071578063d25b1c6d14610502578063d3fc986414610532578063dd62ed3e1461054e578063e5fefded1461057e576101a9565b8063abb1dc44146104a8578063b2511314146104c8578063c659e6d5146104e6576101a9565b80639ee09506116100d35780639ee09506146103f8578063a457c2d714610416578063a69bac2414610446578063a9059cbb14610478576101a9565b806370a082311461038b5780637fdcf01f146103bb57806395d89b41146103da576101a9565b806314fcf3151161016657806323b872dd1161014057806323b872dd146102ef578063313ce5671461031f578063395093511461033d57806358aee2701461036d576101a9565b806314fcf3151461026e57806318160ddd1461029e5780631bbb6e58146102bc576101a9565b806306fdde03146101ae578063070df2d2146101cc578063087cbd40146101e8578063095ea7b3146102045780630a5763641461023457806313af403514610252575b600080fd5b6101b6610588565b6040516101c391906139ff565b60405180910390f35b6101e660048036038101906101e19190613213565b61061a565b005b61020260048036038101906101fd9190612f10565b6108a9565b005b61021e60048036038101906102199190612fc4565b61097d565b60405161022b91906139e4565b60405180910390f35b61023c61099b565b6040516102499190613c6d565b60405180910390f35b61026c60048036038101906102679190612f10565b610e9e565b005b61028860048036038101906102839190612fc4565b610f72565b6040516102959190613c8f565b60405180910390f35b6102a6610fa3565b6040516102b39190613c8f565b60405180910390f35b6102d660048036038101906102d191906131ea565b610fad565b6040516102e69493929190613938565b60405180910390f35b61030960048036038101906103049190612f75565b611095565b60405161031691906139e4565b60405180910390f35b61032761118d565b6040516103349190613cd3565b60405180910390f35b61035760048036038101906103529190612fc4565b611196565b60405161036491906139e4565b60405180910390f35b610375611242565b60405161038291906139ff565b60405180910390f35b6103a560048036038101906103a09190612f10565b611251565b6040516103b29190613c8f565b60405180910390f35b6103c3611299565b6040516103d1929190613caa565b60405180910390f35b6103e26112b0565b6040516103ef91906139ff565b60405180910390f35b610400611342565b60405161040d91906139ff565b60405180910390f35b610430600480360381019061042b9190612fc4565b611351565b60405161043d91906139e4565b60405180910390f35b610460600480360381019061045b91906131ea565b61143c565b60405161046f93929190613984565b60405180910390f35b610492600480360381019061048d9190612fc4565b61151e565b60405161049f91906139e4565b60405180910390f35b6104b06115c4565b6040516104bf93929190613a21565b60405180910390f35b6104d0611ae3565b6040516104dd91906139c2565b60405180910390f35b61050060048036038101906104fb9190613067565b611b3e565b005b61051c60048036038101906105179190612fc4565b611ea6565b6040516105299190613c8f565b60405180910390f35b61054c60048036038101906105479190613000565b611ed7565b005b61056860048036038101906105639190612f39565b612277565b6040516105759190613c8f565b60405180910390f35b6105866122fe565b005b60606003805461059790614211565b80601f01602080910402602001604051908101604052809291908181526020018280546105c390614211565b80156106105780601f106105e557610100808354040283529160200191610610565b820191906000526020600020905b8154815290600101906020018083116105f357829003601f168201915b5050505050905090565b828061062533611251565b11610665576040517f08c379a000000000000000000000000000000000000000000000000000000000815260040161065c90613b0d565b60405180910390fd5b6101008251106106aa576040517f08c379a00000000000000000000000000000000000000000000000000000000081526004016106a190613bed565b60405180910390fd5b600060405180608001604052803373ffffffffffffffffffffffffffffffffffffffff168152602001428152602001858152602001848152509050601381908060018154018082558091505060019003906000526020600020906004020160009091909190915060008201518160000160006101000a81548173ffffffffffffffffffffffffffffffffffffffff021916908373ffffffffffffffffffffffffffffffffffffffff16021790555060208201518160010155604082015181600201556060820151816003019080519060200190610788929190612b43565b505050601460003373ffffffffffffffffffffffffffffffffffffffff1673ffffffffffffffffffffffffffffffffffffffff16815260200190815260200160002060016013805490506107dc9190614128565b9080600181540180825580915050600190039060005260206000200160009091909190915055600061080d33611251565b86866108199190613f7d565b6108239190613f13565b90506013805490506013805490508261083c9190613f7d565b600160138054905061084e9190614094565b60066002015461085e9190613f7d565b6108689190613e29565b6108729190613f13565b60066002018190555085600660010160008282546108909190613ebd565b925050819055506108a13387612390565b505050505050565b3373ffffffffffffffffffffffffffffffffffffffff16601760009054906101000a900473ffffffffffffffffffffffffffffffffffffffff1673ffffffffffffffffffffffffffffffffffffffff1614610939576040517f08c379a000000000000000000000000000000000000000000000000000000000815260040161093090613bcd565b60405180910390fd5b80600560006101000a81548173ffffffffffffffffffffffffffffffffffffffff021916908373ffffffffffffffffffffffffffffffffffffffff16021790555050565b600061099161098a612567565b848461256f565b6001905092915050565b6109a3612bc9565b600660405180610140016040529081600082015481526020016001820154815260200160028201548152602001600382015481526020016004820160009054906101000a900473ffffffffffffffffffffffffffffffffffffffff1673ffffffffffffffffffffffffffffffffffffffff1673ffffffffffffffffffffffffffffffffffffffff168152602001600582018054610a3f90614211565b80601f0160208091040260200160405190810160405280929190818152602001828054610a6b90614211565b8015610ab85780601f10610a8d57610100808354040283529160200191610ab8565b820191906000526020600020905b815481529060010190602001808311610a9b57829003601f168201915b50505050508152602001600682018054610ad190614211565b80601f0160208091040260200160405190810160405280929190818152602001828054610afd90614211565b8015610b4a5780601f10610b1f57610100808354040283529160200191610b4a565b820191906000526020600020905b815481529060010190602001808311610b2d57829003601f168201915b50505050508152602001600782018054610b6390614211565b80601f0160208091040260200160405190810160405280929190818152602001828054610b8f90614211565b8015610bdc5780601f10610bb157610100808354040283529160200191610bdc565b820191906000526020600020905b815481529060010190602001808311610bbf57829003601f168201915b5050505050815260200160088201604051806080016040529081600082018054610c0590614211565b80601f0160208091040260200160405190810160405280929190818152602001828054610c3190614211565b8015610c7e5780601f10610c5357610100808354040283529160200191610c7e565b820191906000526020600020905b815481529060010190602001808311610c6157829003601f168201915b50505050508152602001600182018054610c9790614211565b80601f0160208091040260200160405190810160405280929190818152602001828054610cc390614211565b8015610d105780601f10610ce557610100808354040283529160200191610d10565b820191906000526020600020905b815481529060010190602001808311610cf357829003601f168201915b50505050508152602001600282018054610d2990614211565b80601f0160208091040260200160405190810160405280929190818152602001828054610d5590614211565b8015610da25780601f10610d7757610100808354040283529160200191610da2565b820191906000526020600020905b815481529060010190602001808311610d8557829003601f168201915b50505050508152602001600382018054610dbb90614211565b80601f0160208091040260200160405190810160405280929190818152602001828054610de790614211565b8015610e345780601f10610e0957610100808354040283529160200191610e34565b820191906000526020600020905b815481529060010190602001808311610e1757829003601f168201915b5050505050815250508152602001600c8201805480602002602001604051908101604052809291908181526020018280548015610e9057602002820191906000526020600020905b815481526020019060010190808311610e7c575b505050505081525050905090565b3373ffffffffffffffffffffffffffffffffffffffff16601860009054906101000a900473ffffffffffffffffffffffffffffffffffffffff1673ffffffffffffffffffffffffffffffffffffffff1614610f2e576040517f08c379a0000000000000000000000000000000000000000000000000000000008152600401610f2590613b2d565b60405180910390fd5b80601860006101000a81548173ffffffffffffffffffffffffffffffffffffffff021916908373ffffffffffffffffffffffffffffffffffffffff16021790555050565b60166020528160005260406000208181548110610f8e57600080fd5b90600052602060002001600091509150505481565b6000600254905090565b60138181548110610fbd57600080fd5b90600052602060002090600402016000915090508060000160009054906101000a900473ffffffffffffffffffffffffffffffffffffffff169080600101549080600201549080600301805461101290614211565b80601f016020809104026020016040519081016040528092919081815260200182805461103e90614211565b801561108b5780601f106110605761010080835404028352916020019161108b565b820191906000526020600020905b81548152906001019060200180831161106e57829003601f168201915b5050505050905084565b60006110a284848461273a565b6000600160008673ffffffffffffffffffffffffffffffffffffffff1673ffffffffffffffffffffffffffffffffffffffff16815260200190815260200160002060006110ed612567565b73ffffffffffffffffffffffffffffffffffffffff1673ffffffffffffffffffffffffffffffffffffffff1681526020019081526020016000205490508281101561116d576040517f08c379a000000000000000000000000000000000000000000000000000000000815260040161116490613b4d565b60405180910390fd5b61118185611179612567565b85840361256f565b60019150509392505050565b60006012905090565b60006112386111a3612567565b8484600160006111b1612567565b73ffffffffffffffffffffffffffffffffffffffff1673ffffffffffffffffffffffffffffffffffffffff16815260200190815260200160002060008873ffffffffffffffffffffffffffffffffffffffff1673ffffffffffffffffffffffffffffffffffffffff168152602001908152602001600020546112339190613ebd565b61256f565b6001905092915050565b606061124c6112b0565b905090565b60008060008373ffffffffffffffffffffffffffffffffffffffff1673ffffffffffffffffffffffffffffffffffffffff168152602001908152602001600020549050919050565b600080601580549050601380549050915091509091565b6060600480546112bf90614211565b80601f01602080910402602001604051908101604052809291908181526020018280546112eb90614211565b80156113385780601f1061130d57610100808354040283529160200191611338565b820191906000526020600020905b81548152906001019060200180831161131b57829003601f168201915b5050505050905090565b606061134c610588565b905090565b60008060016000611360612567565b73ffffffffffffffffffffffffffffffffffffffff1673ffffffffffffffffffffffffffffffffffffffff16815260200190815260200160002060008573ffffffffffffffffffffffffffffffffffffffff1673ffffffffffffffffffffffffffffffffffffffff1681526020019081526020016000205490508281101561141d576040517f08c379a000000000000000000000000000000000000000000000000000000000815260040161141490613c2d565b60405180910390fd5b611431611428612567565b8585840361256f565b600191505092915050565b6015818154811061144c57600080fd5b90600052602060002090600302016000915090508060000160009054906101000a900473ffffffffffffffffffffffffffffffffffffffff169080600101549080600201805461149b90614211565b80601f01602080910402602001604051908101604052809291908181526020018280546114c790614211565b80156115145780601f106114e957610100808354040283529160200191611514565b820191906000526020600020905b8154815290600101906020018083116114f757829003601f168201915b5050505050905083565b6000600560009054906101000a900473ffffffffffffffffffffffffffffffffffffffff1673ffffffffffffffffffffffffffffffffffffffff166323b3af8984306040518363ffffffff1660e01b815260040161157d9291906138ca565b600060405180830381600087803b15801561159757600080fd5b505af11580156115ab573d6000803e3d6000fd5b505050506115b983836129bb565b506001905092915050565b6060806115cf612bc9565b6115d7610588565b6115df6112b0565b60068060405180610140016040529081600082015481526020016001820154815260200160028201548152602001600382015481526020016004820160009054906101000a900473ffffffffffffffffffffffffffffffffffffffff1673ffffffffffffffffffffffffffffffffffffffff1673ffffffffffffffffffffffffffffffffffffffff16815260200160058201805461167c90614211565b80601f01602080910402602001604051908101604052809291908181526020018280546116a890614211565b80156116f55780601f106116ca576101008083540402835291602001916116f5565b820191906000526020600020905b8154815290600101906020018083116116d857829003601f168201915b5050505050815260200160068201805461170e90614211565b80601f016020809104026020016040519081016040528092919081815260200182805461173a90614211565b80156117875780601f1061175c57610100808354040283529160200191611787565b820191906000526020600020905b81548152906001019060200180831161176a57829003601f168201915b505050505081526020016007820180546117a090614211565b80601f01602080910402602001604051908101604052809291908181526020018280546117cc90614211565b80156118195780601f106117ee57610100808354040283529160200191611819565b820191906000526020600020905b8154815290600101906020018083116117fc57829003601f168201915b505050505081526020016008820160405180608001604052908160008201805461184290614211565b80601f016020809104026020016040519081016040528092919081815260200182805461186e90614211565b80156118bb5780601f10611890576101008083540402835291602001916118bb565b820191906000526020600020905b81548152906001019060200180831161189e57829003601f168201915b505050505081526020016001820180546118d490614211565b80601f016020809104026020016040519081016040528092919081815260200182805461190090614211565b801561194d5780601f106119225761010080835404028352916020019161194d565b820191906000526020600020905b81548152906001019060200180831161193057829003601f168201915b5050505050815260200160028201805461196690614211565b80601f016020809104026020016040519081016040528092919081815260200182805461199290614211565b80156119df5780601f106119b4576101008083540402835291602001916119df565b820191906000526020600020905b8154815290600101906020018083116119c257829003601f168201915b505050505081526020016003820180546119f890614211565b80601f0160208091040260200160405190810160405280929190818152602001828054611a2490614211565b8015611a715780601f10611a4657610100808354040283529160200191611a71565b820191906000526020600020905b815481529060010190602001808311611a5457829003601f168201915b5050505050815250508152602001600c8201805480602002602001604051908101604052809291908181526020018280548015611acd57602002820191906000526020600020905b815481526020019060010190808311611ab9575b5050505050815250509050925092509250909192565b60606006600c01805480602002602001604051908101604052809291908181526020018280548015611b3457602002820191906000526020600020905b815481526020019060010190808311611b20575b5050505050905090565b3373ffffffffffffffffffffffffffffffffffffffff16601760009054906101000a900473ffffffffffffffffffffffffffffffffffffffff1673ffffffffffffffffffffffffffffffffffffffff1614611bce576040517f08c379a0000000000000000000000000000000000000000000000000000000008152600401611bc590613bcd565b60405180910390fd5b80601860006101000a81548173ffffffffffffffffffffffffffffffffffffffff021916908373ffffffffffffffffffffffffffffffffffffffff16021790555081600560006101000a81548173ffffffffffffffffffffffffffffffffffffffff021916908373ffffffffffffffffffffffffffffffffffffffff16021790555060108a511080611c615750600a8951105b80611c6d575060408851105b80611c79575060808751105b80611c8657506101008651105b80611c9357506005835111155b611cd2576040517f08c379a0000000000000000000000000000000000000000000000000000000008152600401611cc990613a6d565b60405180910390fd5b6040518061014001604052806000815260200160008152602001600081526020018581526020018273ffffffffffffffffffffffffffffffffffffffff1681526020018981526020018881526020018781526020018681526020018481525060066000820151816000015560208201518160010155604082015181600201556060820151816003015560808201518160040160006101000a81548173ffffffffffffffffffffffffffffffffffffffff021916908373ffffffffffffffffffffffffffffffffffffffff16021790555060a0820151816005019080519060200190611dbe929190612b43565b5060c0820151816006019080519060200190611ddb929190612b43565b5060e0820151816007019080519060200190611df8929190612b43565b50610100820151816008016000820151816000019080519060200190611e1f929190612b43565b506020820151816001019080519060200190611e3c929190612b43565b506040820151816002019080519060200190611e59929190612b43565b506060820151816003019080519060200190611e76929190612b43565b50505061012082015181600c019080519060200190611e96929190612c3b565b5090505050505050505050505050565b60146020528160005260406000208181548110611ec257600080fd5b90600052602060002001600091509150505481565b3373ffffffffffffffffffffffffffffffffffffffff16601860009054906101000a900473ffffffffffffffffffffffffffffffffffffffff1673ffffffffffffffffffffffffffffffffffffffff1614611f67576040517f08c379a0000000000000000000000000000000000000000000000000000000008152600401611f5e90613b2d565b60405180910390fd5b600560149054906101000a900460ff1661202f57600560009054906101000a900473ffffffffffffffffffffffffffffffffffffffff1673ffffffffffffffffffffffffffffffffffffffff166338a1048530600680016006600c016040518463ffffffff1660e01b8152600401611fe1939291906138f3565b600060405180830381600087803b158015611ffb57600080fd5b505af115801561200f573d6000803e3d6000fd5b505050506001600560146101000a81548160ff0219169083151502179055505b610100815110612074576040517f08c379a000000000000000000000000000000000000000000000000000000000815260040161206b90613bad565b60405180910390fd5b600060405180606001604052808573ffffffffffffffffffffffffffffffffffffffff168152602001428152602001838152509050601581908060018154018082558091505060019003906000526020600020906003020160009091909190915060008201518160000160006101000a81548173ffffffffffffffffffffffffffffffffffffffff021916908373ffffffffffffffffffffffffffffffffffffffff160217905550602082015181600101556040820151816002019080519060200190612142929190612b43565b505050601660008573ffffffffffffffffffffffffffffffffffffffff1673ffffffffffffffffffffffffffffffffffffffff16815260200190815260200160002060016015805490506121969190614128565b90806001815401808255809150506001900390600052602060002001600090919091909150556121c684846129d9565b82600660000160008282546121db9190613ebd565b92505081905550600560009054906101000a900473ffffffffffffffffffffffffffffffffffffffff1673ffffffffffffffffffffffffffffffffffffffff166323b3af8985306040518363ffffffff1660e01b815260040161223f9291906138ca565b600060405180830381600087803b15801561225957600080fd5b505af115801561226d573d6000803e3d6000fd5b5050505050505050565b6000600160008473ffffffffffffffffffffffffffffffffffffffff1673ffffffffffffffffffffffffffffffffffffffff16815260200190815260200160002060008373ffffffffffffffffffffffffffffffffffffffff1673ffffffffffffffffffffffffffffffffffffffff16815260200190815260200160002054905092915050565b3373ffffffffffffffffffffffffffffffffffffffff16601860009054906101000a900473ffffffffffffffffffffffffffffffffffffffff1673ffffffffffffffffffffffffffffffffffffffff161461238e576040517f08c379a000000000000000000000000000000000000000000000000000000000815260040161238590613b2d565b60405180910390fd5b565b600073ffffffffffffffffffffffffffffffffffffffff168273ffffffffffffffffffffffffffffffffffffffff161415612400576040517f08c379a00000000000000000000000000000000000000000000000000000000081526004016123f790613b6d565b60405180910390fd5b61240c82600083612b39565b60008060008473ffffffffffffffffffffffffffffffffffffffff1673ffffffffffffffffffffffffffffffffffffffff16815260200190815260200160002054905081811015612492576040517f08c379a000000000000000000000000000000000000000000000000000000000815260040161248990613aad565b60405180910390fd5b8181036000808573ffffffffffffffffffffffffffffffffffffffff1673ffffffffffffffffffffffffffffffffffffffff1681526020019081526020016000208190555081600260008282546124e99190614128565b92505081905550600073ffffffffffffffffffffffffffffffffffffffff168373ffffffffffffffffffffffffffffffffffffffff167fddf252ad1be2c89b69c2b068fc378daa952ba7f163c4a11628f55a4df523b3ef8460405161254e9190613c8f565b60405180910390a361256283600084612b3e565b505050565b600033905090565b600073ffffffffffffffffffffffffffffffffffffffff168373ffffffffffffffffffffffffffffffffffffffff1614156125df576040517f08c379a00000000000000000000000000000000000000000000000000000000081526004016125d690613c0d565b60405180910390fd5b600073ffffffffffffffffffffffffffffffffffffffff168273ffffffffffffffffffffffffffffffffffffffff16141561264f576040517f08c379a000000000000000000000000000000000000000000000000000000000815260040161264690613acd565b60405180910390fd5b80600160008573ffffffffffffffffffffffffffffffffffffffff1673ffffffffffffffffffffffffffffffffffffffff16815260200190815260200160002060008473ffffffffffffffffffffffffffffffffffffffff1673ffffffffffffffffffffffffffffffffffffffff168152602001908152602001600020819055508173ffffffffffffffffffffffffffffffffffffffff168373ffffffffffffffffffffffffffffffffffffffff167f8c5be1e5ebec7d5bd14f71427d1e84f3dd0314c0f7b2291e5b200ac8c7c3b9258360405161272d9190613c8f565b60405180910390a3505050565b600073ffffffffffffffffffffffffffffffffffffffff168373ffffffffffffffffffffffffffffffffffffffff1614156127aa576040517f08c379a00000000000000000000000000000000000000000000000000000000081526004016127a190613b8d565b60405180910390fd5b600073ffffffffffffffffffffffffffffffffffffffff168273ffffffffffffffffffffffffffffffffffffffff16141561281a576040517f08c379a000000000000000000000000000000000000000000000000000000000815260040161281190613a8d565b60405180910390fd5b612825838383612b39565b60008060008573ffffffffffffffffffffffffffffffffffffffff1673ffffffffffffffffffffffffffffffffffffffff168152602001908152602001600020549050818110156128ab576040517f08c379a00000000000000000000000000000000000000000000000000000000081526004016128a290613aed565b60405180910390fd5b8181036000808673ffffffffffffffffffffffffffffffffffffffff1673ffffffffffffffffffffffffffffffffffffffff16815260200190815260200160002081905550816000808573ffffffffffffffffffffffffffffffffffffffff1673ffffffffffffffffffffffffffffffffffffffff168152602001908152602001600020600082825461293e9190613ebd565b925050819055508273ffffffffffffffffffffffffffffffffffffffff168473ffffffffffffffffffffffffffffffffffffffff167fddf252ad1be2c89b69c2b068fc378daa952ba7f163c4a11628f55a4df523b3ef846040516129a29190613c8f565b60405180910390a36129b5848484612b3e565b50505050565b60006129cf6129c8612567565b848461273a565b6001905092915050565b600073ffffffffffffffffffffffffffffffffffffffff168273ffffffffffffffffffffffffffffffffffffffff161415612a49576040517f08c379a0000000000000000000000000000000000000000000000000000000008152600401612a4090613c4d565b60405180910390fd5b612a5560008383612b39565b8060026000828254612a679190613ebd565b92505081905550806000808473ffffffffffffffffffffffffffffffffffffffff1673ffffffffffffffffffffffffffffffffffffffff1681526020019081526020016000206000828254612abc9190613ebd565b925050819055508173ffffffffffffffffffffffffffffffffffffffff16600073ffffffffffffffffffffffffffffffffffffffff167fddf252ad1be2c89b69c2b068fc378daa952ba7f163c4a11628f55a4df523b3ef83604051612b219190613c8f565b60405180910390a3612b3560008383612b3e565b5050565b505050565b505050565b828054612b4f90614211565b90600052602060002090601f016020900481019282612b715760008555612bb8565b82601f10612b8a57805160ff1916838001178555612bb8565b82800160010185558215612bb8579182015b82811115612bb7578251825591602001919060010190612b9c565b5b509050612bc59190612c88565b5090565b60405180610140016040528060008152602001600081526020016000815260200160008019168152602001600073ffffffffffffffffffffffffffffffffffffffff168152602001606081526020016060815260200160608152602001612c2e612ca5565b8152602001606081525090565b828054828255906000526020600020908101928215612c77579160200282015b82811115612c76578251825591602001919060010190612c5b565b5b509050612c849190612ccd565b5090565b5b80821115612ca1576000816000905550600101612c89565b5090565b6040518060800160405280606081526020016060815260200160608152602001606081525090565b5b80821115612ce6576000816000905550600101612cce565b5090565b6000612cfd612cf884613d13565b613cee565b90508083825260208201905082856020860282011115612d1c57600080fd5b60005b85811015612d4c5781612d328882612dd3565b845260208401935060208301925050600181019050612d1f565b5050509392505050565b6000612d69612d6484613d3f565b613cee565b905082815260208101848484011115612d8157600080fd5b612d8c8482856141cf565b509392505050565b600081359050612da381614761565b92915050565b600082601f830112612dba57600080fd5b8135612dca848260208601612cea565b91505092915050565b600081359050612de281614778565b92915050565b600081359050612df78161478f565b92915050565b600082601f830112612e0e57600080fd5b8135612e1e848260208601612d56565b91505092915050565b600060808284031215612e3957600080fd5b612e436080613cee565b9050600082013567ffffffffffffffff811115612e5f57600080fd5b612e6b84828501612dfd565b600083015250602082013567ffffffffffffffff811115612e8b57600080fd5b612e9784828501612dfd565b602083015250604082013567ffffffffffffffff811115612eb757600080fd5b612ec384828501612dfd565b604083015250606082013567ffffffffffffffff811115612ee357600080fd5b612eef84828501612dfd565b60608301525092915050565b600081359050612f0a816147a6565b92915050565b600060208284031215612f2257600080fd5b6000612f3084828501612d94565b91505092915050565b60008060408385031215612f4c57600080fd5b6000612f5a85828601612d94565b9250506020612f6b85828601612d94565b9150509250929050565b600080600060608486031215612f8a57600080fd5b6000612f9886828701612d94565b9350506020612fa986828701612d94565b9250506040612fba86828701612efb565b9150509250925092565b60008060408385031215612fd757600080fd5b6000612fe585828601612d94565b9250506020612ff685828601612efb565b9150509250929050565b60008060006060848603121561301557600080fd5b600061302386828701612d94565b935050602061303486828701612efb565b925050604084013567ffffffffffffffff81111561305157600080fd5b61305d86828701612dfd565b9150509250925092565b6000806000806000806000806000806101408b8d03121561308757600080fd5b60008b013567ffffffffffffffff8111156130a157600080fd5b6130ad8d828e01612dfd565b9a505060208b013567ffffffffffffffff8111156130ca57600080fd5b6130d68d828e01612dfd565b99505060408b013567ffffffffffffffff8111156130f357600080fd5b6130ff8d828e01612dfd565b98505060608b013567ffffffffffffffff81111561311c57600080fd5b6131288d828e01612dfd565b97505060808b013567ffffffffffffffff81111561314557600080fd5b6131518d828e01612dfd565b96505060a08b013567ffffffffffffffff81111561316e57600080fd5b61317a8d828e01612e27565b95505060c061318b8d828e01612dd3565b94505060e08b013567ffffffffffffffff8111156131a857600080fd5b6131b48d828e01612da9565b9350506101006131c68d828e01612d94565b9250506101206131d88d828e01612d94565b9150509295989b9194979a5092959850565b6000602082840312156131fc57600080fd5b600061320a84828501612efb565b91505092915050565b60008060006060848603121561322857600080fd5b600061323686828701612efb565b935050602061324786828701612de8565b925050604084013567ffffffffffffffff81111561326457600080fd5b61327086828701612dfd565b9150509250925092565b600061328683836133e0565b60208301905092915050565b61329b81614166565b82525050565b6132aa81614166565b82525050565b60006132bb82613daa565b6132c58185613de5565b93506132d083613d70565b8060005b838110156133015781516132e8888261327a565b97506132f383613dcb565b9250506001810190506132d4565b5085935050505092915050565b600061331982613daa565b6133238185613df6565b935061332e83613d70565b8060005b8381101561335f578151613346888261327a565b975061335183613dcb565b925050600181019050613332565b5085935050505092915050565b600061337782613db5565b6133818185613df6565b935061338c83613d80565b8060005b838110156133c4576133a18261434a565b6133ab888261327a565b97506133b683613dd8565b925050600181019050613390565b5085935050505092915050565b6133da81614178565b82525050565b6133e981614184565b82525050565b6133f88161418e565b82525050565b6134078161418e565b82525050565b600061341882613dc0565b6134228185613e07565b93506134328185602086016141de565b61343b8161435d565b840191505092915050565b600061345182613dc0565b61345b8185613e18565b935061346b8185602086016141de565b6134748161435d565b840191505092915050565b6000815461348c81614211565b6134968186613e18565b945060018216600081146134b157600181146134c3576134f6565b60ff19831686526020860193506134f6565b6134cc85613d95565b60005b838110156134ee578154818901526001820191506020810190506134cf565b808801955050505b50505092915050565b600061350c601b83613e18565b91506135178261437b565b602082019050919050565b600061352f602383613e18565b915061353a826143a4565b604082019050919050565b6000613552602283613e18565b915061355d826143f3565b604082019050919050565b6000613575602283613e18565b915061358082614442565b604082019050919050565b6000613598602683613e18565b91506135a382614491565b604082019050919050565b60006135bb601a83613e18565b91506135c6826144e0565b602082019050919050565b60006135de601683613e18565b91506135e982614509565b602082019050919050565b6000613601602883613e18565b915061360c82614532565b604082019050919050565b6000613624602183613e18565b915061362f82614581565b604082019050919050565b6000613647602583613e18565b9150613652826145d0565b604082019050919050565b600061366a601c83613e18565b91506136758261461f565b602082019050919050565b600061368d601883613e18565b915061369882614648565b602082019050919050565b60006136b0601f83613e18565b91506136bb82614671565b602082019050919050565b60006136d3602483613e18565b91506136de8261469a565b604082019050919050565b60006136f6602583613e18565b9150613701826146e9565b604082019050919050565b6000613719601f83613e18565b915061372482614738565b602082019050919050565b600061014083016000830151613748600086018261389d565b50602083015161375b602086018261389d565b50604083015161376e60408601826133ef565b50606083015161378160608601826133e0565b5060808301516137946080860182613292565b5060a083015184820360a08601526137ac828261340d565b91505060c083015184820360c08601526137c6828261340d565b91505060e083015184820360e08601526137e0828261340d565b9150506101008301518482036101008601526137fc8282613825565b91505061012083015184820361012086015261381882826132b0565b9150508091505092915050565b60006080830160008301518482036000860152613842828261340d565b9150506020830151848203602086015261385c828261340d565b91505060408301518482036040860152613876828261340d565b91505060608301518482036060860152613890828261340d565b9150508091505092915050565b6138a6816141b8565b82525050565b6138b5816141b8565b82525050565b6138c4816141c2565b82525050565b60006040820190506138df60008301856132a1565b6138ec60208301846132a1565b9392505050565b600060608201905061390860008301866132a1565b818103602083015261391a818561347f565b9050818103604083015261392e818461336c565b9050949350505050565b600060808201905061394d60008301876132a1565b61395a60208301866138ac565b61396760408301856133fe565b81810360608301526139798184613446565b905095945050505050565b600060608201905061399960008301866132a1565b6139a660208301856138ac565b81810360408301526139b88184613446565b9050949350505050565b600060208201905081810360008301526139dc818461330e565b905092915050565b60006020820190506139f960008301846133d1565b92915050565b60006020820190508181036000830152613a198184613446565b905092915050565b60006060820190508181036000830152613a3b8186613446565b90508181036020830152613a4f8185613446565b90508181036040830152613a63818461372f565b9050949350505050565b60006020820190508181036000830152613a86816134ff565b9050919050565b60006020820190508181036000830152613aa681613522565b9050919050565b60006020820190508181036000830152613ac681613545565b9050919050565b60006020820190508181036000830152613ae681613568565b9050919050565b60006020820190508181036000830152613b068161358b565b9050919050565b60006020820190508181036000830152613b26816135ae565b9050919050565b60006020820190508181036000830152613b46816135d1565b9050919050565b60006020820190508181036000830152613b66816135f4565b9050919050565b60006020820190508181036000830152613b8681613617565b9050919050565b60006020820190508181036000830152613ba68161363a565b9050919050565b60006020820190508181036000830152613bc68161365d565b9050919050565b60006020820190508181036000830152613be681613680565b9050919050565b60006020820190508181036000830152613c06816136a3565b9050919050565b60006020820190508181036000830152613c26816136c6565b9050919050565b60006020820190508181036000830152613c46816136e9565b9050919050565b60006020820190508181036000830152613c668161370c565b9050919050565b60006020820190508181036000830152613c87818461372f565b905092915050565b6000602082019050613ca460008301846138ac565b92915050565b6000604082019050613cbf60008301856138ac565b613ccc60208301846138ac565b9392505050565b6000602082019050613ce860008301846138bb565b92915050565b6000613cf8613d09565b9050613d04828261425d565b919050565b6000604051905090565b600067ffffffffffffffff821115613d2e57613d2d61431b565b5b602082029050602081019050919050565b600067ffffffffffffffff821115613d5a57613d5961431b565b5b613d638261435d565b9050602081019050919050565b6000819050602082019050919050565b60008190508160005260206000209050919050565b60008190508160005260206000209050919050565b600081519050919050565b600081549050919050565b600081519050919050565b6000602082019050919050565b6000600182019050919050565b600082825260208201905092915050565b600082825260208201905092915050565b600082825260208201905092915050565b600082825260208201905092915050565b6000613e348261418e565b9150613e3f8361418e565b9250817f7fffffffffffffffffffffffffffffffffffffffffffffffffffffffffffffff03831360008312151615613e7a57613e7961428e565b5b817f8000000000000000000000000000000000000000000000000000000000000000038312600083121615613eb257613eb161428e565b5b828201905092915050565b6000613ec8826141b8565b9150613ed3836141b8565b9250827fffffffffffffffffffffffffffffffffffffffffffffffffffffffffffffffff03821115613f0857613f0761428e565b5b828201905092915050565b6000613f1e8261418e565b9150613f298361418e565b925082613f3957613f386142bd565b5b600160000383147f800000000000000000000000000000000000000000000000000000000000000083141615613f7257613f7161428e565b5b828205905092915050565b6000613f888261418e565b9150613f938361418e565b9250827f7fffffffffffffffffffffffffffffffffffffffffffffffffffffffffffffff0482116000841360008413161615613fd257613fd161428e565b5b817f8000000000000000000000000000000000000000000000000000000000000000058312600084126000841316161561400f5761400e61428e565b5b827f8000000000000000000000000000000000000000000000000000000000000000058212600084136000841216161561404c5761404b61428e565b5b827f7fffffffffffffffffffffffffffffffffffffffffffffffffffffffffffffff05821260008412600084121616156140895761408861428e565b5b828202905092915050565b600061409f8261418e565b91506140aa8361418e565b9250827f8000000000000000000000000000000000000000000000000000000000000000018212600084121516156140e5576140e461428e565b5b827f7fffffffffffffffffffffffffffffffffffffffffffffffffffffffffffffff01821360008412161561411d5761411c61428e565b5b828203905092915050565b6000614133826141b8565b915061413e836141b8565b9250828210156141515761415061428e565b5b828203905092915050565b6000819050919050565b600061417182614198565b9050919050565b60008115159050919050565b6000819050919050565b6000819050919050565b600073ffffffffffffffffffffffffffffffffffffffff82169050919050565b6000819050919050565b600060ff82169050919050565b82818337600083830152505050565b60005b838110156141fc5780820151818401526020810190506141e1565b8381111561420b576000848401525b50505050565b6000600282049050600182168061422957607f821691505b6020821081141561423d5761423c6142ec565b5b50919050565b60006142566142518361436e565b61415c565b9050919050565b6142668261435d565b810181811067ffffffffffffffff821117156142855761428461431b565b5b80604052505050565b7f4e487b7100000000000000000000000000000000000000000000000000000000600052601160045260246000fd5b7f4e487b7100000000000000000000000000000000000000000000000000000000600052601260045260246000fd5b7f4e487b7100000000000000000000000000000000000000000000000000000000600052602260045260246000fd5b7f4e487b7100000000000000000000000000000000000000000000000000000000600052604160045260246000fd5b60006143568254614243565b9050919050565b6000601f19601f8301169050919050565b60008160001c9050919050565b7f546f6f206d616e792073796d627320696e20706172616d657465720000000000600082015250565b7f45524332303a207472616e7366657220746f20746865207a65726f206164647260008201527f6573730000000000000000000000000000000000000000000000000000000000602082015250565b7f45524332303a206275726e20616d6f756e7420657863656564732062616c616e60008201527f6365000000000000000000000000000000000000000000000000000000000000602082015250565b7f45524332303a20617070726f766520746f20746865207a65726f20616464726560008201527f7373000000000000000000000000000000000000000000000000000000000000602082015250565b7f45524332303a207472616e7366657220616d6f756e742065786365656473206260008201527f616c616e63650000000000000000000000000000000000000000000000000000602082015250565b7f4e6f20616d6f756e7420746f6b656e20686f6c64657220686173000000000000600082015250565b7f4f6e6c79206f776e65722063616e20646f207468697300000000000000000000600082015250565b7f45524332303a207472616e7366657220616d6f756e742065786365656473206160008201527f6c6c6f77616e6365000000000000000000000000000000000000000000000000602082015250565b7f45524332303a206275726e2066726f6d20746865207a65726f2061646472657360008201527f7300000000000000000000000000000000000000000000000000000000000000602082015250565b7f45524332303a207472616e736665722066726f6d20746865207a65726f20616460008201527f6472657373000000000000000000000000000000000000000000000000000000602082015250565b7f494f552074657874206973206c6f6e672c206e656564203c2032353600000000600082015250565b7f4f6e6c7920666163746f72792063616e20646f20746869730000000000000000600082015250565b7f466565646261636b206973206c6f6e672c206d757374206265203c2032353600600082015250565b7f45524332303a20617070726f76652066726f6d20746865207a65726f2061646460008201527f7265737300000000000000000000000000000000000000000000000000000000602082015250565b7f45524332303a2064656372656173656420616c6c6f77616e63652062656c6f7760008201527f207a65726f000000000000000000000000000000000000000000000000000000602082015250565b7f45524332303a206d696e7420746f20746865207a65726f206164647265737300600082015250565b61476a81614166565b811461477557600080fd5b50565b61478181614184565b811461478c57600080fd5b50565b6147988161418e565b81146147a357600080fd5b50565b6147af816141b8565b81146147ba57600080fd5b5056fea26469706673582212202e193af7463f2c8f0c72e0187e0c3bc98b541ebcb7d8c407a077a3ac0385040d64736f6c63430008040033a2646970667358221220fd5a11d47af1eee9ae98217f2c754bef26e56cfae4448c009e9493a0232e006664736f6c63430008040033",
  "immutableReferences": {},
  "source": "pragma solidity >=  0.8.0;\npragma experimental ABIEncoderV2;\nimport \"./IOUtoken.sol\";\nimport \"./interfaces/iStoreIOUs.sol\";\nimport \"./interfaces/iIOUtoken.sol\";\n\ncontract MakeIOU {\n    \n    address private owner;\n    iStoreIOUs store;\n\n    function setOwner (address _newOwner) public onlyOwner {\n        owner = _newOwner;\n    }\n\n    function setStore (address _newOwner) public onlyOwner {\n        store = iStoreIOUs(_newOwner);\n        \n    }   \n\n    constructor ()  {\n        owner = msg.sender;\n    }\n\n    modifier onlyOwner() {\n        require (owner == msg.sender, \"Only owner can do this\");\n        _;\n    }\n\n    function makeIOU(string memory _name, \n                 string memory _symbol, \n                 string memory _myName, //name of emitter\n                 string memory _socialProfile, //profile  of emitter in social nets\n                 string memory _description, //description of bond IOU to  work\n                 iIOUtoken.geo  memory _location, //where is                  \n                 bytes32  _units, //units of deal\n                 bytes32[] memory _keywords\n                        ) public returns (address) {\n\n        IOUtoken newIOU = new IOUtoken(_name, \n                                    _symbol);\n        newIOU.setIOU(  _name, \n                        _symbol,                    \n                        _myName, \n                        _socialProfile,  \n                        _description,\n                        _location,\n                        _units, \n                        _keywords,\n                        address(store),\n                        msg.sender\n            );\n        //store.addIOU2(address(newIOU), _socialProfile, msg.sender, _keywords);\n        require (address(store) != address(0x0), \"No store address\");\n        store.addIOU1(address(newIOU), msg.sender);//, _socialProfile, msg.sender, _keywords);\n\n        return address (newIOU);\n        }\n\n  \n}",
  "sourcePath": "/mnt/512-2/dfd/iou2/contracts/MakeIOU.sol",
  "compiler": {
    "name": "solc",
    "version": "0.8.4+commit.c7e474f2.Emscripten.clang"
  },
  "schemaVersion": "3.4.3",
  "updatedAt": "2021-08-28T19:14:44.622Z",
  "networkType": "ethereum",
  "devdoc": {
    "kind": "dev",
    "methods": {},
    "version": 1
  },
  "userdoc": {
    "kind": "user",
    "methods": {},
    "version": 1
  }
}