{
  "contractName": "MakeIOU",
  "abi": [
    {
      "inputs": [],
      "payable": false,
      "stateMutability": "nonpayable",
      "type": "constructor"
    },
    {
      "constant": false,
      "inputs": [
        {
          "internalType": "address",
          "name": "_newOwner",
          "type": "address"
        }
      ],
      "name": "setOwner",
      "outputs": [],
      "payable": false,
      "stateMutability": "nonpayable",
      "type": "function"
    },
    {
      "constant": false,
      "inputs": [
        {
          "internalType": "address",
          "name": "_newOwner",
          "type": "address"
        }
      ],
      "name": "setStore",
      "outputs": [],
      "payable": false,
      "stateMutability": "nonpayable",
      "type": "function"
    },
    {
      "constant": false,
      "inputs": [
        {
          "internalType": "string",
          "name": "_name",
          "type": "string"
        },
        {
          "internalType": "string",
          "name": "_symbol",
          "type": "string"
        },
        {
          "internalType": "string",
          "name": "_myName",
          "type": "string"
        },
        {
          "internalType": "string",
          "name": "_socialProfile",
          "type": "string"
        },
        {
          "internalType": "string",
          "name": "_description",
          "type": "string"
        },
        {
          "internalType": "string",
          "name": "_location",
          "type": "string"
        },
        {
          "internalType": "bytes32",
          "name": "_units",
          "type": "bytes32"
        },
        {
          "internalType": "bytes32[]",
          "name": "_keywords",
          "type": "bytes32[]"
        }
      ],
      "name": "makeIOU",
      "outputs": [
        {
          "internalType": "address",
          "name": "",
          "type": "address"
        }
      ],
      "payable": false,
      "stateMutability": "nonpayable",
      "type": "function"
    }
  ],
  "bytecode": "0x608060405234801561001057600080fd5b50336000806101000a81548173ffffffffffffffffffffffffffffffffffffffff021916908373ffffffffffffffffffffffffffffffffffffffff160217905550614fbc806100606000396000f3fe60806040523480156200001157600080fd5b5060043610620000465760003560e01c8063087cbd40146200004b57806313af4035146200006b578063c199c5d6146200008b575b600080fd5b6200006960048036036200006391908101906200059d565b620000c1565b005b6200008960048036036200008391908101906200059d565b62000197565b005b620000a96004803603620000a39190810190620005c9565b6200026c565b604051620000b89190620008c8565b60405180910390f35b3373ffffffffffffffffffffffffffffffffffffffff166000809054906101000a900473ffffffffffffffffffffffffffffffffffffffff1673ffffffffffffffffffffffffffffffffffffffff161462000153576040517f08c379a00000000000000000000000000000000000000000000000000000000081526004016200014a9062000a15565b60405180910390fd5b80600160006101000a81548173ffffffffffffffffffffffffffffffffffffffff021916908373ffffffffffffffffffffffffffffffffffffffff16021790555050565b3373ffffffffffffffffffffffffffffffffffffffff166000809054906101000a900473ffffffffffffffffffffffffffffffffffffffff1673ffffffffffffffffffffffffffffffffffffffff161462000229576040517f08c379a0000000000000000000000000000000000000000000000000000000008152600401620002209062000a15565b60405180910390fd5b806000806101000a81548173ffffffffffffffffffffffffffffffffffffffff021916908373ffffffffffffffffffffffffffffffffffffffff16021790555050565b6000806040516200027d9062000478565b604051809103906000f0801580156200029a573d6000803e3d6000fd5b5090508073ffffffffffffffffffffffffffffffffffffffff16638acc56128b8b8b8b8b8b8b8b600160009054906101000a900473ffffffffffffffffffffffffffffffffffffffff16336040518b63ffffffff1660e01b81526004016200030c9a9998979695949392919062000912565b600060405180830381600087803b1580156200032757600080fd5b505af11580156200033c573d6000803e3d6000fd5b50505050600073ffffffffffffffffffffffffffffffffffffffff16600160009054906101000a900473ffffffffffffffffffffffffffffffffffffffff1673ffffffffffffffffffffffffffffffffffffffff161415620003d5576040517f08c379a0000000000000000000000000000000000000000000000000000000008152600401620003cc90620009f3565b60405180910390fd5b600160009054906101000a900473ffffffffffffffffffffffffffffffffffffffff1673ffffffffffffffffffffffffffffffffffffffff16635899d14282336040518363ffffffff1660e01b815260040162000434929190620008e5565b600060405180830381600087803b1580156200044f57600080fd5b505af115801562000464573d6000803e3d6000fd5b505050508091505098975050505050505050565b6143658062000c1583390190565b600081359050620004978162000be0565b92915050565b600082601f830112620004af57600080fd5b8135620004c6620004c08262000a65565b62000a37565b91508181835260208401935060208101905083856020840282011115620004ec57600080fd5b60005b838110156200052057816200050588826200052a565b845260208401935060208301925050600181019050620004ef565b5050505092915050565b6000813590506200053b8162000bfa565b92915050565b600082601f8301126200055357600080fd5b81356200056a620005648262000a8e565b62000a37565b915080825260208301602083018583830111156200058757600080fd5b6200059483828462000b8a565b50505092915050565b600060208284031215620005b057600080fd5b6000620005c08482850162000486565b91505092915050565b600080600080600080600080610100898b031215620005e757600080fd5b600089013567ffffffffffffffff8111156200060257600080fd5b620006108b828c0162000541565b985050602089013567ffffffffffffffff8111156200062e57600080fd5b6200063c8b828c0162000541565b975050604089013567ffffffffffffffff8111156200065a57600080fd5b620006688b828c0162000541565b965050606089013567ffffffffffffffff8111156200068657600080fd5b620006948b828c0162000541565b955050608089013567ffffffffffffffff811115620006b257600080fd5b620006c08b828c0162000541565b94505060a089013567ffffffffffffffff811115620006de57600080fd5b620006ec8b828c0162000541565b93505060c0620006ff8b828c016200052a565b92505060e089013567ffffffffffffffff8111156200071d57600080fd5b6200072b8b828c016200049d565b9150509295985092959890939650565b6000620007498383620007e1565b60208301905092915050565b620007608162000b4e565b82525050565b620007718162000b10565b82525050565b6000620007848262000acb565b62000790818562000aee565b93506200079d8362000abb565b8060005b83811015620007d4578151620007b888826200073b565b9750620007c58362000ae1565b925050600181019050620007a1565b5085935050505092915050565b620007ec8162000b24565b82525050565b620007fd8162000b24565b82525050565b6000620008108262000ad6565b6200081c818562000aff565b93506200082e81856020860162000b99565b620008398162000bcf565b840191505092915050565b60006200085360108362000aff565b91507f4e6f2073746f72652061646472657373000000000000000000000000000000006000830152602082019050919050565b60006200089560168362000aff565b91507f4f6e6c79206f776e65722063616e20646f2074686973000000000000000000006000830152602082019050919050565b6000602082019050620008df600083018462000766565b92915050565b6000604082019050620008fc600083018562000766565b6200090b602083018462000755565b9392505050565b60006101408201905081810360008301526200092f818d62000803565b9050818103602083015262000945818c62000803565b905081810360408301526200095b818b62000803565b9050818103606083015262000971818a62000803565b9050818103608083015262000987818962000803565b905081810360a08301526200099d818862000803565b9050620009ae60c0830187620007f2565b81810360e0830152620009c2818662000777565b9050620009d461010083018562000766565b620009e461012083018462000755565b9b9a5050505050505050505050565b6000602082019050818103600083015262000a0e8162000844565b9050919050565b6000602082019050818103600083015262000a308162000886565b9050919050565b6000604051905081810181811067ffffffffffffffff8211171562000a5b57600080fd5b8060405250919050565b600067ffffffffffffffff82111562000a7d57600080fd5b602082029050602081019050919050565b600067ffffffffffffffff82111562000aa657600080fd5b601f19601f8301169050602081019050919050565b6000819050602082019050919050565b600081519050919050565b600081519050919050565b6000602082019050919050565b600082825260208201905092915050565b600082825260208201905092915050565b600062000b1d8262000b2e565b9050919050565b6000819050919050565b600073ffffffffffffffffffffffffffffffffffffffff82169050919050565b600062000b5b8262000b62565b9050919050565b600062000b6f8262000b76565b9050919050565b600062000b838262000b2e565b9050919050565b82818337600083830152505050565b60005b8381101562000bb957808201518184015260208101905062000b9c565b8381111562000bc9576000848401525b50505050565b6000601f19601f8301169050919050565b62000beb8162000b10565b811462000bf757600080fd5b50565b62000c058162000b24565b811462000c1157600080fd5b5056fe60806040523480156200001157600080fd5b5062000032620000266200007960201b60201c565b6200008160201b60201c565b33601560006101000a81548173ffffffffffffffffffffffffffffffffffffffff021916908373ffffffffffffffffffffffffffffffffffffffff1602179055506200035f565b600033905090565b6200009c816003620000e260201b620028921790919060201c565b8073ffffffffffffffffffffffffffffffffffffffff167f6ae172837ea30b801fbfcdd4108aa1d5bf8ff775444fd70256b44e6bf3dfc3f660405160405180910390a250565b620000f482826200019560201b60201c565b1562000137576040517f08c379a00000000000000000000000000000000000000000000000000000000081526004016200012e906200030a565b60405180910390fd5b60018260000160008373ffffffffffffffffffffffffffffffffffffffff1673ffffffffffffffffffffffffffffffffffffffff16815260200190815260200160002060006101000a81548160ff0219169083151502179055505050565b60008073ffffffffffffffffffffffffffffffffffffffff168273ffffffffffffffffffffffffffffffffffffffff16141562000209576040517f08c379a000000000000000000000000000000000000000000000000000000000815260040162000200906200032c565b60405180910390fd5b8260000160008373ffffffffffffffffffffffffffffffffffffffff1673ffffffffffffffffffffffffffffffffffffffff16815260200190815260200160002060009054906101000a900460ff16905092915050565b60006200026f601f836200034e565b91507f526f6c65733a206163636f756e7420616c72656164792068617320726f6c65006000830152602082019050919050565b6000620002b16022836200034e565b91507f526f6c65733a206163636f756e7420697320746865207a65726f20616464726560008301527f73730000000000000000000000000000000000000000000000000000000000006020830152604082019050919050565b60006020820190508181036000830152620003258162000260565b9050919050565b600060208201905081810360008301526200034781620002a2565b9050919050565b600082825260208201905092915050565b613ff6806200036f6000396000f3fe608060405234801561001057600080fd5b50600436106101cf5760003560e01c806379cc679011610104578063a69bac24116100a2578063be39e78d11610071578063be39e78d1461056c578063d25b1c6d14610592578063d3fc9864146105c2578063dd62ed3e146105de576101cf565b8063a69bac24146104bc578063a9059cbb146104ee578063aa271e1a1461051e578063b25113141461054e576101cf565b806395d89b41116100de57806395d89b4114610448578063983b2d56146104665780639865027514610482578063a457c2d71461048c576101cf565b806379cc6790146103f15780637fdcf01f1461040d5780638acc56121461042c576101cf565b80631bbb6e5811610171578063395093511161014b578063395093511461034557806340c10f191461037557806342966c68146103a557806370a08231146103c1576101cf565b80631bbb6e58146102c457806323b872dd146102f7578063313ce56714610327576101cf565b8063095ea7b3116101ad578063095ea7b31461022a57806313af40351461025a57806314fcf3151461027657806318160ddd146102a6576101cf565b806306fdde03146101d4578063070df2d2146101f2578063087cbd401461020e575b600080fd5b6101dc61060e565b6040516101e9919061390f565b60405180910390f35b61020c60048036036102079190810190612fbe565b6106ac565b005b61022860048036036102239190810190612cbb565b610903565b005b610244600480360361023f9190810190612d6f565b6109d7565b60405161025191906138f4565b60405180910390f35b610274600480360361026f9190810190612cbb565b6109f5565b005b610290600480360361028b9190810190612d6f565b610afd565b60405161029d9190613b73565b60405180910390f35b6102ae610b2b565b6040516102bb9190613b73565b60405180910390f35b6102de60048036036102d99190810190612f95565b610b35565b6040516102ee9493929190613848565b60405180910390f35b610311600480360361030c9190810190612d20565b610c2a565b60405161031e91906138f4565b60405180910390f35b61032f610d03565b60405161033c9190613c60565b60405180910390f35b61035f600480360361035a9190810190612d6f565b610d16565b60405161036c91906138f4565b60405180910390f35b61038f600480360361038a9190810190612d6f565b610dc9565b60405161039c91906138f4565b60405180910390f35b6103bf60048036036103ba9190810190612f95565b610e2e565b005b6103db60048036036103d69190810190612cbb565b610e42565b6040516103e89190613b73565b60405180910390f35b61040b60048036036104069190810190612d6f565b610e8a565b005b610415610e98565b604051610423929190613b8e565b60405180910390f35b61044660048036036104419190810190612e12565b610eaf565b005b61045061121c565b60405161045d919061390f565b60405180910390f35b610480600480360361047b9190810190612cbb565b6112ba565b005b61048a611315565b005b6104a660048036036104a19190810190612d6f565b611327565b6040516104b391906138f4565b60405180910390f35b6104d660048036036104d19190810190612f95565b6113f4565b6040516104e593929190613894565b60405180910390f35b61050860048036036105039190810190612d6f565b6114e3565b60405161051591906138f4565b60405180910390f35b61053860048036036105339190810190612cbb565b611589565b60405161054591906138f4565b60405180910390f35b6105566115a6565b60405161056391906138d2565b60405180910390f35b610574611601565b60405161058999989796959493929190613bb7565b60405180910390f35b6105ac60048036036105a79190810190612d6f565b6118bd565b6040516105b99190613b73565b60405180910390f35b6105dc60048036036105d79190810190612dab565b6118eb565b005b6105f860048036036105f39190810190612ce4565b611cc4565b6040516106059190613b73565b60405180910390f35b60048054600181600116156101000203166002900480601f0160208091040260200160405190810160405280929190818152602001828054600181600116156101000203166002900480156106a45780601f10610679576101008083540402835291602001916106a4565b820191906000526020600020905b81548152906001019060200180831161068757829003601f168201915b505050505081565b82806106b733610e42565b116106f7576040517f08c379a00000000000000000000000000000000000000000000000000000000081526004016106ee906139f3565b60405180910390fd5b61010082511061073c576040517f08c379a000000000000000000000000000000000000000000000000000000000815260040161073390613b13565b60405180910390fd5b610744612984565b60405180608001604052803373ffffffffffffffffffffffffffffffffffffffff1681526020014281526020018581526020018481525090506011819080600181540180825580915050906001820390600052602060002090600402016000909192909190915060008201518160000160006101000a81548173ffffffffffffffffffffffffffffffffffffffff021916908373ffffffffffffffffffffffffffffffffffffffff160217905550602082015181600101556040820151816002015560608201518160030190805190602001906108229291906129c2565b50505050601260003373ffffffffffffffffffffffffffffffffffffffff1673ffffffffffffffffffffffffffffffffffffffff168152602001908152602001600020600160118054905003908060018154018082558091505090600182039060005260206000200160009091929091909150555060006108a233610e42565b868602816108ac57fe5b05905060118054905060118054905082026001601180549050036007600201540201816108d557fe5b05600760020181905550856007600101600082825401925050819055506108fb86610e2e565b505050505050565b3373ffffffffffffffffffffffffffffffffffffffff16601560009054906101000a900473ffffffffffffffffffffffffffffffffffffffff1673ffffffffffffffffffffffffffffffffffffffff1614610993576040517f08c379a000000000000000000000000000000000000000000000000000000000815260040161098a90613af3565b60405180910390fd5b80600660006101000a81548173ffffffffffffffffffffffffffffffffffffffff021916908373ffffffffffffffffffffffffffffffffffffffff16021790555050565b60006109eb6109e4611d4b565b8484611d53565b6001905092915050565b3373ffffffffffffffffffffffffffffffffffffffff16601660009054906101000a900473ffffffffffffffffffffffffffffffffffffffff1673ffffffffffffffffffffffffffffffffffffffff1614610a85576040517f08c379a0000000000000000000000000000000000000000000000000000000008152600401610a7c90613a13565b60405180910390fd5b610ab0601660009054906101000a900473ffffffffffffffffffffffffffffffffffffffff16611f1e565b80601660006101000a81548173ffffffffffffffffffffffffffffffffffffffff021916908373ffffffffffffffffffffffffffffffffffffffff160217905550610afa81611f78565b50565b60146020528160005260406000208181548110610b1657fe5b90600052602060002001600091509150505481565b6000600254905090565b60118181548110610b4257fe5b90600052602060002090600402016000915090508060000160009054906101000a900473ffffffffffffffffffffffffffffffffffffffff1690806001015490806002015490806003018054600181600116156101000203166002900480601f016020809104026020016040519081016040528092919081815260200182805460018160011615610100020316600290048015610c205780601f10610bf557610100808354040283529160200191610c20565b820191906000526020600020905b815481529060010190602001808311610c0357829003601f168201915b5050505050905084565b6000610c37848484611fd2565b610cf884610c43611d4b565b610cf385604051806060016040528060288152602001613f4360289139600160008b73ffffffffffffffffffffffffffffffffffffffff1673ffffffffffffffffffffffffffffffffffffffff1681526020019081526020016000206000610ca9611d4b565b73ffffffffffffffffffffffffffffffffffffffff1673ffffffffffffffffffffffffffffffffffffffff1681526020019081526020016000205461225c9092919063ffffffff16565b611d53565b600190509392505050565b600660149054906101000a900460ff1681565b6000610dbf610d23611d4b565b84610dba8560016000610d34611d4b565b73ffffffffffffffffffffffffffffffffffffffff1673ffffffffffffffffffffffffffffffffffffffff16815260200190815260200160002060008973ffffffffffffffffffffffffffffffffffffffff1673ffffffffffffffffffffffffffffffffffffffff168152602001908152602001600020546122b790919063ffffffff16565b611d53565b6001905092915050565b6000610ddb610dd6611d4b565b611589565b610e1a576040517f08c379a0000000000000000000000000000000000000000000000000000000008152600401610e1190613a33565b60405180910390fd5b610e24838361230c565b6001905092915050565b610e3f610e39611d4b565b82612494565b50565b60008060008373ffffffffffffffffffffffffffffffffffffffff1673ffffffffffffffffffffffffffffffffffffffff168152602001908152602001600020549050919050565b610e948282612636565b5050565b600080601380549050601180549050915091509091565b3373ffffffffffffffffffffffffffffffffffffffff16601560009054906101000a900473ffffffffffffffffffffffffffffffffffffffff1673ffffffffffffffffffffffffffffffffffffffff1614610f3f576040517f08c379a0000000000000000000000000000000000000000000000000000000008152600401610f3690613af3565b60405180910390fd5b610f4833611f1e565b610f5181611f78565b80601660006101000a81548173ffffffffffffffffffffffffffffffffffffffff021916908373ffffffffffffffffffffffffffffffffffffffff16021790555081600660006101000a81548173ffffffffffffffffffffffffffffffffffffffff021916908373ffffffffffffffffffffffffffffffffffffffff1602179055506012600660146101000a81548160ff021916908360ff16021790555060108a5110806110005750600a8951105b8061100c575060408851105b80611018575060808751105b80611024575060808651105b80611030575060808551105b8061103d57506005835111155b61107c576040517f08c379a000000000000000000000000000000000000000000000000000000000815260040161107390613953565b60405180910390fd5b6040518061014001604052806000815260200160008152602001600081526020018581526020018273ffffffffffffffffffffffffffffffffffffffff1681526020018981526020018881526020018781526020018681526020018481525060076000820151816000015560208201518160010155604082015181600201556060820151816003015560808201518160040160006101000a81548173ffffffffffffffffffffffffffffffffffffffff021916908373ffffffffffffffffffffffffffffffffffffffff16021790555060a08201518160050190805190602001906111689291906129c2565b5060c08201518160060190805190602001906111859291906129c2565b5060e08201518160070190805190602001906111a29291906129c2565b506101008201518160080190805190602001906111c09291906129c2565b506101208201518160090190805190602001906111de929190612a42565b5090505089600490805190602001906111f8929190612a8f565b50886005908051906020019061120f929190612a8f565b5050505050505050505050565b60058054600181600116156101000203166002900480601f0160208091040260200160405190810160405280929190818152602001828054600181600116156101000203166002900480156112b25780601f10611287576101008083540402835291602001916112b2565b820191906000526020600020905b81548152906001019060200180831161129557829003601f168201915b505050505081565b6112ca6112c5611d4b565b611589565b611309576040517f08c379a000000000000000000000000000000000000000000000000000000000815260040161130090613a33565b60405180910390fd5b61131281611f78565b50565b611325611320611d4b565b611f1e565b565b60006113ea611334611d4b565b846113e585604051806060016040528060258152602001613f8f602591396001600061135e611d4b565b73ffffffffffffffffffffffffffffffffffffffff1673ffffffffffffffffffffffffffffffffffffffff16815260200190815260200160002060008a73ffffffffffffffffffffffffffffffffffffffff1673ffffffffffffffffffffffffffffffffffffffff1681526020019081526020016000205461225c9092919063ffffffff16565b611d53565b6001905092915050565b6013818154811061140157fe5b90600052602060002090600302016000915090508060000160009054906101000a900473ffffffffffffffffffffffffffffffffffffffff1690806001015490806002018054600181600116156101000203166002900480601f0160208091040260200160405190810160405280929190818152602001828054600181600116156101000203166002900480156114d95780601f106114ae576101008083540402835291602001916114d9565b820191906000526020600020905b8154815290600101906020018083116114bc57829003601f168201915b5050505050905083565b6000600660009054906101000a900473ffffffffffffffffffffffffffffffffffffffff1673ffffffffffffffffffffffffffffffffffffffff166323b3af8984306040518363ffffffff1660e01b81526004016115429291906137da565b600060405180830381600087803b15801561155c57600080fd5b505af1158015611570573d6000803e3d6000fd5b5050505061157e8383612705565b506001905092915050565b600061159f82600361272390919063ffffffff16565b9050919050565b606060076009018054806020026020016040519081016040528092919081815260200182805480156115f757602002820191906000526020600020905b8154815260200190600101908083116115e3575b5050505050905090565b60078060000154908060010154908060020154908060030154908060040160009054906101000a900473ffffffffffffffffffffffffffffffffffffffff1690806005018054600181600116156101000203166002900480601f0160208091040260200160405190810160405280929190818152602001828054600181600116156101000203166002900480156116d95780601f106116ae576101008083540402835291602001916116d9565b820191906000526020600020905b8154815290600101906020018083116116bc57829003601f168201915b505050505090806006018054600181600116156101000203166002900480601f0160208091040260200160405190810160405280929190818152602001828054600181600116156101000203166002900480156117775780601f1061174c57610100808354040283529160200191611777565b820191906000526020600020905b81548152906001019060200180831161175a57829003601f168201915b505050505090806007018054600181600116156101000203166002900480601f0160208091040260200160405190810160405280929190818152602001828054600181600116156101000203166002900480156118155780601f106117ea57610100808354040283529160200191611815565b820191906000526020600020905b8154815290600101906020018083116117f857829003601f168201915b505050505090806008018054600181600116156101000203166002900480601f0160208091040260200160405190810160405280929190818152602001828054600181600116156101000203166002900480156118b35780601f10611888576101008083540402835291602001916118b3565b820191906000526020600020905b81548152906001019060200180831161189657829003601f168201915b5050505050905089565b601260205281600052604060002081815481106118d657fe5b90600052602060002001600091509150505481565b3373ffffffffffffffffffffffffffffffffffffffff16601660009054906101000a900473ffffffffffffffffffffffffffffffffffffffff1673ffffffffffffffffffffffffffffffffffffffff161461197b576040517f08c379a000000000000000000000000000000000000000000000000000000000815260040161197290613a13565b60405180910390fd5b600660159054906101000a900460ff16611a4457600660009054906101000a900473ffffffffffffffffffffffffffffffffffffffff1673ffffffffffffffffffffffffffffffffffffffff166338a1048530600760060160076009016040518463ffffffff1660e01b81526004016119f693929190613803565b600060405180830381600087803b158015611a1057600080fd5b505af1158015611a24573d6000803e3d6000fd5b505050506001600660156101000a81548160ff0219169083151502179055505b610100815110611a89576040517f08c379a0000000000000000000000000000000000000000000000000000000008152600401611a8090613ad3565b60405180910390fd5b611a91612b0f565b60405180606001604052808573ffffffffffffffffffffffffffffffffffffffff1681526020014281526020018381525090506013819080600181540180825580915050906001820390600052602060002090600302016000909192909190915060008201518160000160006101000a81548173ffffffffffffffffffffffffffffffffffffffff021916908373ffffffffffffffffffffffffffffffffffffffff160217905550602082015181600101556040820151816002019080519060200190611b5f9291906129c2565b50505050601460008573ffffffffffffffffffffffffffffffffffffffff1673ffffffffffffffffffffffffffffffffffffffff1681526020019081526020016000206001601460008773ffffffffffffffffffffffffffffffffffffffff1673ffffffffffffffffffffffffffffffffffffffff16815260200190815260200160002080549050039080600181540180825580915050906001820390600052602060002001600090919290919091505550611c1b8484610dc9565b5082600760000160008282540192505081905550600660009054906101000a900473ffffffffffffffffffffffffffffffffffffffff1673ffffffffffffffffffffffffffffffffffffffff166323b3af8985306040518363ffffffff1660e01b8152600401611c8c9291906137da565b600060405180830381600087803b158015611ca657600080fd5b505af1158015611cba573d6000803e3d6000fd5b5050505050505050565b6000600160008473ffffffffffffffffffffffffffffffffffffffff1673ffffffffffffffffffffffffffffffffffffffff16815260200190815260200160002060008373ffffffffffffffffffffffffffffffffffffffff1673ffffffffffffffffffffffffffffffffffffffff16815260200190815260200160002054905092915050565b600033905090565b600073ffffffffffffffffffffffffffffffffffffffff168373ffffffffffffffffffffffffffffffffffffffff161415611dc3576040517f08c379a0000000000000000000000000000000000000000000000000000000008152600401611dba90613b33565b60405180910390fd5b600073ffffffffffffffffffffffffffffffffffffffff168273ffffffffffffffffffffffffffffffffffffffff161415611e33576040517f08c379a0000000000000000000000000000000000000000000000000000000008152600401611e2a906139b3565b60405180910390fd5b80600160008573ffffffffffffffffffffffffffffffffffffffff1673ffffffffffffffffffffffffffffffffffffffff16815260200190815260200160002060008473ffffffffffffffffffffffffffffffffffffffff1673ffffffffffffffffffffffffffffffffffffffff168152602001908152602001600020819055508173ffffffffffffffffffffffffffffffffffffffff168373ffffffffffffffffffffffffffffffffffffffff167f8c5be1e5ebec7d5bd14f71427d1e84f3dd0314c0f7b2291e5b200ac8c7c3b92583604051611f119190613b73565b60405180910390a3505050565b611f328160036127eb90919063ffffffff16565b8073ffffffffffffffffffffffffffffffffffffffff167fe94479a9f7e1952cc78f2d6baab678adc1b772d936c6583def489e524cb6669260405160405180910390a250565b611f8c81600361289290919063ffffffff16565b8073ffffffffffffffffffffffffffffffffffffffff167f6ae172837ea30b801fbfcdd4108aa1d5bf8ff775444fd70256b44e6bf3dfc3f660405160405180910390a250565b600073ffffffffffffffffffffffffffffffffffffffff168373ffffffffffffffffffffffffffffffffffffffff161415612042576040517f08c379a000000000000000000000000000000000000000000000000000000000815260040161203990613ab3565b60405180910390fd5b600073ffffffffffffffffffffffffffffffffffffffff168273ffffffffffffffffffffffffffffffffffffffff1614156120b2576040517f08c379a00000000000000000000000000000000000000000000000000000000081526004016120a990613973565b60405180910390fd5b61211d81604051806060016040528060268152602001613f1d602691396000808773ffffffffffffffffffffffffffffffffffffffff1673ffffffffffffffffffffffffffffffffffffffff1681526020019081526020016000205461225c9092919063ffffffff16565b6000808573ffffffffffffffffffffffffffffffffffffffff1673ffffffffffffffffffffffffffffffffffffffff168152602001908152602001600020819055506121b0816000808573ffffffffffffffffffffffffffffffffffffffff1673ffffffffffffffffffffffffffffffffffffffff168152602001908152602001600020546122b790919063ffffffff16565b6000808473ffffffffffffffffffffffffffffffffffffffff1673ffffffffffffffffffffffffffffffffffffffff168152602001908152602001600020819055508173ffffffffffffffffffffffffffffffffffffffff168373ffffffffffffffffffffffffffffffffffffffff167fddf252ad1be2c89b69c2b068fc378daa952ba7f163c4a11628f55a4df523b3ef8360405161224f9190613b73565b60405180910390a3505050565b60008383111582906122a4576040517f08c379a000000000000000000000000000000000000000000000000000000000815260040161229b9190613931565b60405180910390fd5b5060008385039050809150509392505050565b600080828401905083811015612302576040517f08c379a00000000000000000000000000000000000000000000000000000000081526004016122f9906139d3565b60405180910390fd5b8091505092915050565b600073ffffffffffffffffffffffffffffffffffffffff168273ffffffffffffffffffffffffffffffffffffffff16141561237c576040517f08c379a000000000000000000000000000000000000000000000000000000000815260040161237390613b53565b60405180910390fd5b612391816002546122b790919063ffffffff16565b6002819055506123e8816000808573ffffffffffffffffffffffffffffffffffffffff1673ffffffffffffffffffffffffffffffffffffffff168152602001908152602001600020546122b790919063ffffffff16565b6000808473ffffffffffffffffffffffffffffffffffffffff1673ffffffffffffffffffffffffffffffffffffffff168152602001908152602001600020819055508173ffffffffffffffffffffffffffffffffffffffff16600073ffffffffffffffffffffffffffffffffffffffff167fddf252ad1be2c89b69c2b068fc378daa952ba7f163c4a11628f55a4df523b3ef836040516124889190613b73565b60405180910390a35050565b600073ffffffffffffffffffffffffffffffffffffffff168273ffffffffffffffffffffffffffffffffffffffff161415612504576040517f08c379a00000000000000000000000000000000000000000000000000000000081526004016124fb90613a93565b60405180910390fd5b61256f81604051806060016040528060228152602001613efb602291396000808673ffffffffffffffffffffffffffffffffffffffff1673ffffffffffffffffffffffffffffffffffffffff1681526020019081526020016000205461225c9092919063ffffffff16565b6000808473ffffffffffffffffffffffffffffffffffffffff1673ffffffffffffffffffffffffffffffffffffffff168152602001908152602001600020819055506125c68160025461293a90919063ffffffff16565b600281905550600073ffffffffffffffffffffffffffffffffffffffff168273ffffffffffffffffffffffffffffffffffffffff167fddf252ad1be2c89b69c2b068fc378daa952ba7f163c4a11628f55a4df523b3ef8360405161262a9190613b73565b60405180910390a35050565b6126408282612494565b6127018261264c611d4b565b6126fc84604051806060016040528060248152602001613f6b60249139600160008973ffffffffffffffffffffffffffffffffffffffff1673ffffffffffffffffffffffffffffffffffffffff16815260200190815260200160002060006126b2611d4b565b73ffffffffffffffffffffffffffffffffffffffff1673ffffffffffffffffffffffffffffffffffffffff1681526020019081526020016000205461225c9092919063ffffffff16565b611d53565b5050565b6000612719612712611d4b565b8484611fd2565b6001905092915050565b60008073ffffffffffffffffffffffffffffffffffffffff168273ffffffffffffffffffffffffffffffffffffffff161415612794576040517f08c379a000000000000000000000000000000000000000000000000000000000815260040161278b90613a73565b60405180910390fd5b8260000160008373ffffffffffffffffffffffffffffffffffffffff1673ffffffffffffffffffffffffffffffffffffffff16815260200190815260200160002060009054906101000a900460ff16905092915050565b6127f58282612723565b612834576040517f08c379a000000000000000000000000000000000000000000000000000000000815260040161282b90613a53565b60405180910390fd5b60008260000160008373ffffffffffffffffffffffffffffffffffffffff1673ffffffffffffffffffffffffffffffffffffffff16815260200190815260200160002060006101000a81548160ff0219169083151502179055505050565b61289c8282612723565b156128dc576040517f08c379a00000000000000000000000000000000000000000000000000000000081526004016128d390613993565b60405180910390fd5b60018260000160008373ffffffffffffffffffffffffffffffffffffffff1673ffffffffffffffffffffffffffffffffffffffff16815260200190815260200160002060006101000a81548160ff0219169083151502179055505050565b600061297c83836040518060400160405280601e81526020017f536166654d6174683a207375627472616374696f6e206f766572666c6f77000081525061225c565b905092915050565b6040518060800160405280600073ffffffffffffffffffffffffffffffffffffffff1681526020016000815260200160008152602001606081525090565b828054600181600116156101000203166002900490600052602060002090601f016020900481019282601f10612a0357805160ff1916838001178555612a31565b82800160010185558215612a31579182015b82811115612a30578251825591602001919060010190612a15565b5b509050612a3e9190612b46565b5090565b828054828255906000526020600020908101928215612a7e579160200282015b82811115612a7d578251825591602001919060010190612a62565b5b509050612a8b9190612b6b565b5090565b828054600181600116156101000203166002900490600052602060002090601f016020900481019282601f10612ad057805160ff1916838001178555612afe565b82800160010185558215612afe579182015b82811115612afd578251825591602001919060010190612ae2565b5b509050612b0b9190612b46565b5090565b6040518060600160405280600073ffffffffffffffffffffffffffffffffffffffff16815260200160008152602001606081525090565b612b6891905b80821115612b64576000816000905550600101612b4c565b5090565b90565b612b8d91905b80821115612b89576000816000905550600101612b71565b5090565b90565b600081359050612b9f81613e9e565b92915050565b600082601f830112612bb657600080fd5b8135612bc9612bc482613ca8565b613c7b565b91508181835260208401935060208101905083856020840282011115612bee57600080fd5b60005b83811015612c1e5781612c048882612c28565b845260208401935060208301925050600181019050612bf1565b5050505092915050565b600081359050612c3781613eb5565b92915050565b600081359050612c4c81613ecc565b92915050565b600082601f830112612c6357600080fd5b8135612c76612c7182613cd0565b613c7b565b91508082526020830160208301858383011115612c9257600080fd5b612c9d838284613e11565b50505092915050565b600081359050612cb581613ee3565b92915050565b600060208284031215612ccd57600080fd5b6000612cdb84828501612b90565b91505092915050565b60008060408385031215612cf757600080fd5b6000612d0585828601612b90565b9250506020612d1685828601612b90565b9150509250929050565b600080600060608486031215612d3557600080fd5b6000612d4386828701612b90565b9350506020612d5486828701612b90565b9250506040612d6586828701612ca6565b9150509250925092565b60008060408385031215612d8257600080fd5b6000612d9085828601612b90565b9250506020612da185828601612ca6565b9150509250929050565b600080600060608486031215612dc057600080fd5b6000612dce86828701612b90565b9350506020612ddf86828701612ca6565b925050604084013567ffffffffffffffff811115612dfc57600080fd5b612e0886828701612c52565b9150509250925092565b6000806000806000806000806000806101408b8d031215612e3257600080fd5b60008b013567ffffffffffffffff811115612e4c57600080fd5b612e588d828e01612c52565b9a505060208b013567ffffffffffffffff811115612e7557600080fd5b612e818d828e01612c52565b99505060408b013567ffffffffffffffff811115612e9e57600080fd5b612eaa8d828e01612c52565b98505060608b013567ffffffffffffffff811115612ec757600080fd5b612ed38d828e01612c52565b97505060808b013567ffffffffffffffff811115612ef057600080fd5b612efc8d828e01612c52565b96505060a08b013567ffffffffffffffff811115612f1957600080fd5b612f258d828e01612c52565b95505060c0612f368d828e01612c28565b94505060e08b013567ffffffffffffffff811115612f5357600080fd5b612f5f8d828e01612ba5565b935050610100612f718d828e01612b90565b925050610120612f838d828e01612b90565b9150509295989b9194979a5092959850565b600060208284031215612fa757600080fd5b6000612fb584828501612ca6565b91505092915050565b600080600060608486031215612fd357600080fd5b6000612fe186828701612ca6565b9350506020612ff286828701612c3d565b925050604084013567ffffffffffffffff81111561300f57600080fd5b61301b86828701612c52565b9150509250925092565b6000613031838361311e565b60208301905092915050565b61304681613da8565b82525050565b600061305782613d36565b6130618185613d7c565b935061306c83613cfc565b8060005b8381101561309d5781516130848882613025565b975061308f83613d62565b925050600181019050613070565b5085935050505092915050565b60006130b582613d41565b6130bf8185613d7c565b93506130ca83613d0c565b8060005b83811015613102576130df82613e6d565b6130e98882613025565b97506130f483613d6f565b9250506001810190506130ce565b5085935050505092915050565b61311881613dba565b82525050565b61312781613dc6565b82525050565b61313681613dc6565b82525050565b61314581613dd0565b82525050565b600061315682613d57565b6131608185613d8d565b9350613170818560208601613e20565b61317981613e80565b840191505092915050565b600061318f82613d4c565b6131998185613d8d565b93506131a9818560208601613e20565b6131b281613e80565b840191505092915050565b6000815460018116600081146131da576001811461320057613244565b607f60028304166131eb8187613d8d565b955060ff198316865260208601935050613244565b6002820461320e8187613d8d565b955061321985613d21565b60005b8281101561323b5781548189015260018201915060208101905061321c565b80880195505050505b505092915050565b6000613259601b83613d8d565b91507f546f6f206d616e792073796d627320696e20706172616d6574657200000000006000830152602082019050919050565b6000613299602383613d8d565b91507f45524332303a207472616e7366657220746f20746865207a65726f206164647260008301527f65737300000000000000000000000000000000000000000000000000000000006020830152604082019050919050565b60006132ff601f83613d8d565b91507f526f6c65733a206163636f756e7420616c72656164792068617320726f6c65006000830152602082019050919050565b600061333f602283613d8d565b91507f45524332303a20617070726f766520746f20746865207a65726f20616464726560008301527f73730000000000000000000000000000000000000000000000000000000000006020830152604082019050919050565b60006133a5601b83613d8d565b91507f536166654d6174683a206164646974696f6e206f766572666c6f7700000000006000830152602082019050919050565b60006133e5601a83613d8d565b91507f4e6f20616d6f756e7420746f6b656e20686f6c646572206861730000000000006000830152602082019050919050565b6000613425601683613d8d565b91507f4f6e6c79206f776e65722063616e20646f2074686973000000000000000000006000830152602082019050919050565b6000613465603083613d8d565b91507f4d696e746572526f6c653a2063616c6c657220646f6573206e6f74206861766560008301527f20746865204d696e74657220726f6c65000000000000000000000000000000006020830152604082019050919050565b60006134cb602183613d8d565b91507f526f6c65733a206163636f756e7420646f6573206e6f74206861766520726f6c60008301527f65000000000000000000000000000000000000000000000000000000000000006020830152604082019050919050565b6000613531602283613d8d565b91507f526f6c65733a206163636f756e7420697320746865207a65726f20616464726560008301527f73730000000000000000000000000000000000000000000000000000000000006020830152604082019050919050565b6000613597602183613d8d565b91507f45524332303a206275726e2066726f6d20746865207a65726f2061646472657360008301527f73000000000000000000000000000000000000000000000000000000000000006020830152604082019050919050565b60006135fd602583613d8d565b91507f45524332303a207472616e736665722066726f6d20746865207a65726f20616460008301527f64726573730000000000000000000000000000000000000000000000000000006020830152604082019050919050565b6000613663601c83613d8d565b91507f494f552074657874206973206c6f6e672c206e656564203c20323536000000006000830152602082019050919050565b60006136a3601883613d8d565b91507f4f6e6c7920666163746f72792063616e20646f207468697300000000000000006000830152602082019050919050565b60006136e3601f83613d8d565b91507f466565646261636b206973206c6f6e672c206d757374206265203c20323536006000830152602082019050919050565b6000613723602483613d8d565b91507f45524332303a20617070726f76652066726f6d20746865207a65726f2061646460008301527f72657373000000000000000000000000000000000000000000000000000000006020830152604082019050919050565b6000613789601f83613d8d565b91507f45524332303a206d696e7420746f20746865207a65726f2061646472657373006000830152602082019050919050565b6137c581613dfa565b82525050565b6137d481613e04565b82525050565b60006040820190506137ef600083018561303d565b6137fc602083018461303d565b9392505050565b6000606082019050613818600083018661303d565b818103602083015261382a81856131bd565b9050818103604083015261383e81846130aa565b9050949350505050565b600060808201905061385d600083018761303d565b61386a60208301866137bc565b613877604083018561313c565b81810360608301526138898184613184565b905095945050505050565b60006060820190506138a9600083018661303d565b6138b660208301856137bc565b81810360408301526138c88184613184565b9050949350505050565b600060208201905081810360008301526138ec818461304c565b905092915050565b6000602082019050613909600083018461310f565b92915050565b600060208201905081810360008301526139298184613184565b905092915050565b6000602082019050818103600083015261394b818461314b565b905092915050565b6000602082019050818103600083015261396c8161324c565b9050919050565b6000602082019050818103600083015261398c8161328c565b9050919050565b600060208201905081810360008301526139ac816132f2565b9050919050565b600060208201905081810360008301526139cc81613332565b9050919050565b600060208201905081810360008301526139ec81613398565b9050919050565b60006020820190508181036000830152613a0c816133d8565b9050919050565b60006020820190508181036000830152613a2c81613418565b9050919050565b60006020820190508181036000830152613a4c81613458565b9050919050565b60006020820190508181036000830152613a6c816134be565b9050919050565b60006020820190508181036000830152613a8c81613524565b9050919050565b60006020820190508181036000830152613aac8161358a565b9050919050565b60006020820190508181036000830152613acc816135f0565b9050919050565b60006020820190508181036000830152613aec81613656565b9050919050565b60006020820190508181036000830152613b0c81613696565b9050919050565b60006020820190508181036000830152613b2c816136d6565b9050919050565b60006020820190508181036000830152613b4c81613716565b9050919050565b60006020820190508181036000830152613b6c8161377c565b9050919050565b6000602082019050613b8860008301846137bc565b92915050565b6000604082019050613ba360008301856137bc565b613bb060208301846137bc565b9392505050565b600061012082019050613bcd600083018c6137bc565b613bda602083018b6137bc565b613be7604083018a61313c565b613bf4606083018961312d565b613c01608083018861303d565b81810360a0830152613c138187613184565b905081810360c0830152613c278186613184565b905081810360e0830152613c3b8185613184565b9050818103610100830152613c508184613184565b90509a9950505050505050505050565b6000602082019050613c7560008301846137cb565b92915050565b6000604051905081810181811067ffffffffffffffff82111715613c9e57600080fd5b8060405250919050565b600067ffffffffffffffff821115613cbf57600080fd5b602082029050602081019050919050565b600067ffffffffffffffff821115613ce757600080fd5b601f19601f8301169050602081019050919050565b6000819050602082019050919050565b60008190508160005260206000209050919050565b60008190508160005260206000209050919050565b600081519050919050565b600081549050919050565b600081519050919050565b600081519050919050565b6000602082019050919050565b6000600182019050919050565b600082825260208201905092915050565b600082825260208201905092915050565b6000819050919050565b6000613db382613dda565b9050919050565b60008115159050919050565b6000819050919050565b6000819050919050565b600073ffffffffffffffffffffffffffffffffffffffff82169050919050565b6000819050919050565b600060ff82169050919050565b82818337600083830152505050565b60005b83811015613e3e578082015181840152602081019050613e23565b83811115613e4d576000848401525b50505050565b6000613e66613e6183613e91565b613d9e565b9050919050565b6000613e798254613e53565b9050919050565b6000601f19601f8301169050919050565b60008160001c9050919050565b613ea781613da8565b8114613eb257600080fd5b50565b613ebe81613dc6565b8114613ec957600080fd5b50565b613ed581613dd0565b8114613ee057600080fd5b50565b613eec81613dfa565b8114613ef757600080fd5b5056fe45524332303a206275726e20616d6f756e7420657863656564732062616c616e636545524332303a207472616e7366657220616d6f756e7420657863656564732062616c616e636545524332303a207472616e7366657220616d6f756e74206578636565647320616c6c6f77616e636545524332303a206275726e20616d6f756e74206578636565647320616c6c6f77616e636545524332303a2064656372656173656420616c6c6f77616e63652062656c6f77207a65726fa365627a7a72315820a98836b0c4ee7af9e7b80d8adbfaa57781e69914789fca2f4a97f2774c1ddb666c6578706572696d656e74616cf564736f6c63430005100040a365627a7a723158204ffa2fda217550d00f720a4489735c53f358d5faf45dfc234c0d7664d0bfc7216c6578706572696d656e74616cf564736f6c63430005100040",
  "source": "pragma solidity >=  0.5.0;\npragma experimental ABIEncoderV2;\nimport \"./IOUtoken.sol\";\nimport \"./StoreIOUs.sol\";\n\ncontract MakeIOU {\n    \n    address private owner;\n    StoreIOUs store;\n\n    function setOwner (address _newOwner) public onlyOwner {\n        owner = _newOwner;\n    }\n\n    function setStore (address _newOwner) public onlyOwner {\n        store = StoreIOUs(_newOwner);\n        \n    }   \n\n    constructor () public {\n        owner = msg.sender;\n    }\n\n    modifier onlyOwner() {\n        require (owner == msg.sender, \"Only owner can do this\");\n        _;\n    }\n\n    function makeIOU(string memory _name, \n                 string memory _symbol, \n                 string memory _myName, //name of emitter\n                 string memory _socialProfile, //profile  of emitter in social nets\n                 string memory _description, //description of bond IOU to  work\n                 string  memory _location, //where is                  \n                 bytes32  _units, //units of deal\n                 bytes32[] memory _keywords\n                        ) public returns (address) {\n\n        IOUtoken newIOU = new IOUtoken();\n        newIOU.setIOU(  _name, \n                        _symbol,                          \n                        _myName, \n                        _socialProfile,  \n                        _description,\n                        _location,\n                        _units, \n                        _keywords,\n                        address(store),\n                        msg.sender\n            );\n        //store.addIOU2(address(newIOU), _socialProfile, msg.sender, _keywords);\n        require (address(store) != address(0x0), \"No store address\");\n        store.addIOU1(address(newIOU), msg.sender);//, _socialProfile, msg.sender, _keywords);\n\n        return address (newIOU);\n        }\n\n  \n}",
  "sourcePath": "/Users/pro/Development/blockchain/IOU/iou-components/contracts/MakeIOU.sol",
  "compiler": {
    "name": "solc",
    "version": "0.5.16+commit.9c3226ce.Emscripten.clang"
  },
  "schemaVersion": "3.3.3",
  "updatedAt": "2021-06-27T13:39:49.814Z",
  "networkType": "ethereum",
  "devdoc": {
    "methods": {}
  },
  "userdoc": {
    "methods": {}
  }
}