{
  "contractName": "MakeIOU",
  "abi": [
    {
      "inputs": [],
      "stateMutability": "nonpayable",
      "type": "constructor"
    },
    {
      "inputs": [
        {
          "internalType": "address",
          "name": "_newOwner",
          "type": "address"
        }
      ],
      "name": "setOwner",
      "outputs": [],
      "stateMutability": "nonpayable",
      "type": "function"
    },
    {
      "inputs": [
        {
          "internalType": "address",
          "name": "_newOwner",
          "type": "address"
        }
      ],
      "name": "setStore",
      "outputs": [],
      "stateMutability": "nonpayable",
      "type": "function"
    },
    {
      "inputs": [
        {
          "internalType": "string",
          "name": "_name",
          "type": "string"
        },
        {
          "internalType": "string",
          "name": "_symbol",
          "type": "string"
        },
        {
          "internalType": "string",
          "name": "_myName",
          "type": "string"
        },
        {
          "internalType": "string",
          "name": "_socialProfile",
          "type": "string"
        },
        {
          "internalType": "string",
          "name": "_description",
          "type": "string"
        },
        {
          "components": [
            {
              "internalType": "string",
              "name": "country",
              "type": "string"
            },
            {
              "internalType": "string",
              "name": "state",
              "type": "string"
            },
            {
              "internalType": "string",
              "name": "city",
              "type": "string"
            },
            {
              "internalType": "string",
              "name": "street",
              "type": "string"
            }
          ],
          "internalType": "struct iIOUtoken.geo",
          "name": "_location",
          "type": "tuple"
        },
        {
          "internalType": "bytes32",
          "name": "_units",
          "type": "bytes32"
        },
        {
          "internalType": "bytes32[]",
          "name": "_keywords",
          "type": "bytes32[]"
        }
      ],
      "name": "makeIOU",
      "outputs": [
        {
          "internalType": "address",
          "name": "",
          "type": "address"
        }
      ],
      "stateMutability": "nonpayable",
      "type": "function"
    }
  ],
  "bytecode": "0x608060405234801561001057600080fd5b50600080546001600160a01b031916331790556137fc806100326000396000f3fe60806040523480156200001157600080fd5b5060043610620000465760003560e01c8063087cbd40146200004b57806313af403514620000645780635e51f634146200007b575b600080fd5b620000626200005c366004620004f4565b620000ae565b005b6200006262000075366004620004f4565b62000129565b620000926200008c36600462000524565b620001a0565b6040516001600160a01b03909116815260200160405180910390f35b6000546001600160a01b03163314620001075760405162461bcd60e51b81526020600482015260166024820152754f6e6c79206f776e65722063616e20646f207468697360501b60448201526064015b60405180910390fd5b600180546001600160a01b0319166001600160a01b0392909216919091179055565b6000546001600160a01b031633146200017e5760405162461bcd60e51b81526020600482015260166024820152754f6e6c79206f776e65722063616e20646f207468697360501b6044820152606401620000fe565b600080546001600160a01b0319166001600160a01b0392909216919091179055565b6000808989604051620001b39062000321565b620001c0929190620006e1565b604051809103906000f080158015620001dd573d6000803e3d6000fd5b5060015460405163c659e6d560e01b81529192506001600160a01b038084169263c659e6d59262000227928f928f928f928f928f928f928f928f9290911690339060040162000713565b600060405180830381600087803b1580156200024257600080fd5b505af115801562000257573d6000803e3d6000fd5b50506001546001600160a01b031615159150620002ac90505760405162461bcd60e51b815260206004820152601060248201526f4e6f2073746f7265206164647265737360801b6044820152606401620000fe565b600154604051632c4ce8a160e11b81526001600160a01b03838116600483015233602483015290911690635899d14290604401600060405180830381600087803b158015620002fa57600080fd5b505af11580156200030f573d6000803e3d6000fd5b50929c9b505050505050505050505050565b612f0680620008c183390190565b600082601f83011262000340578081fd5b8135602067ffffffffffffffff8211156200035f576200035f620008aa565b8160051b6200037082820162000876565b8381528281019086840183880185018910156200038b578687fd5b8693505b85841015620003af5780358352600193909301929184019184016200038f565b50979650505050505050565b600082601f830112620003cc578081fd5b813567ffffffffffffffff811115620003e957620003e9620008aa565b620003fe601f8201601f191660200162000876565b81815284602083860101111562000413578283fd5b816020850160208301379081016020019190915292915050565b6000608082840312156200043f578081fd5b620004496200084a565b9050813567ffffffffffffffff808211156200046457600080fd5b6200047285838601620003bb565b835260208401359150808211156200048957600080fd5b6200049785838601620003bb565b60208401526040840135915080821115620004b157600080fd5b620004bf85838601620003bb565b60408401526060840135915080821115620004d957600080fd5b50620004e884828501620003bb565b60608301525092915050565b60006020828403121562000506578081fd5b81356001600160a01b03811681146200051d578182fd5b9392505050565b600080600080600080600080610100898b03121562000541578384fd5b883567ffffffffffffffff8082111562000559578586fd5b620005678c838d01620003bb565b995060208b01359150808211156200057d578586fd5b6200058b8c838d01620003bb565b985060408b0135915080821115620005a1578586fd5b620005af8c838d01620003bb565b975060608b0135915080821115620005c5578586fd5b620005d38c838d01620003bb565b965060808b0135915080821115620005e9578586fd5b620005f78c838d01620003bb565b955060a08b01359150808211156200060d578485fd5b6200061b8c838d016200042d565b945060c08b0135935060e08b013591508082111562000638578283fd5b50620006478b828c016200032f565b9150509295985092959890939650565b6000815180845260208085019450808401835b8381101562000688578151875295820195908201906001016200066a565b509495945050505050565b60008151808452815b81811015620006ba576020818501810151868301820152016200069c565b81811115620006cc5782602083870101525b50601f01601f19169290920160200192915050565b604081526000620006f6604083018562000693565b82810360208401526200070a818562000693565b95945050505050565b6000610140808352620007298184018e62000693565b905082810360208401526200073f818d62000693565b9050828103604084015262000755818c62000693565b905082810360608401526200076b818b62000693565b9050828103608084015262000781818a62000693565b905082810360a0840152875160808252620007a0608083018262000693565b905060208901518282036020840152620007bb828262000693565b91505060408901518282036040840152620007d7828262000693565b91505060608901518282036060840152620007f3828262000693565b925050508660c084015282810360e084015262000811818762000657565b9150506200082b6101008301856001600160a01b03169052565b6001600160a01b0383166101208301529b9a5050505050505050505050565b6040516080810167ffffffffffffffff81118282101715620008705762000870620008aa565b60405290565b604051601f8201601f1916810167ffffffffffffffff81118282101715620008a257620008a2620008aa565b604052919050565b634e487b7160e01b600052604160045260246000fdfe60806040523480156200001157600080fd5b5060405162002f0638038062002f068339810160408190526200003491620001da565b8151829082906200004d90600390602085019062000081565b5080516200006390600490602084019062000081565b5050601780546001600160a01b031916331790555062000294915050565b8280546200008f9062000241565b90600052602060002090601f016020900481019282620000b35760008555620000fe565b82601f10620000ce57805160ff1916838001178555620000fe565b82800160010185558215620000fe579182015b82811115620000fe578251825591602001919060010190620000e1565b506200010c92915062000110565b5090565b5b808211156200010c576000815560010162000111565b600082601f83011262000138578081fd5b81516001600160401b03808211156200015557620001556200027e565b604051601f8301601f19908116603f011681019082821181831017156200018057620001806200027e565b816040528381526020925086838588010111156200019c578485fd5b8491505b83821015620001bf5785820183015181830184015290820190620001a0565b83821115620001d057848385830101525b9695505050505050565b60008060408385031215620001ed578182fd5b82516001600160401b038082111562000204578384fd5b620002128683870162000127565b9350602085015191508082111562000228578283fd5b50620002378582860162000127565b9150509250929050565b600181811c908216806200025657607f821691505b602082108114156200027857634e487b7160e01b600052602260045260246000fd5b50919050565b634e487b7160e01b600052604160045260246000fd5b612c6280620002a46000396000f3fe608060405234801561001057600080fd5b50600436106101a95760003560e01c806370a08231116100f9578063abb1dc4411610097578063d25b1c6d11610071578063d25b1c6d146103a3578063d3fc9864146103b6578063dd62ed3e146103c9578063e5fefded1461040257600080fd5b8063abb1dc4414610364578063b25113141461037b578063c659e6d51461039057600080fd5b80639ee09506116100d35780639ee0950614610314578063a457c2d71461031c578063a69bac241461032f578063a9059cbb1461035157600080fd5b806370a08231146102c85780637fdcf01f146102f157806395d89b411461030c57600080fd5b806314fcf3151161016657806323b872dd1161014057806323b872dd1461028b578063313ce5671461029e57806339509351146102ad57806358aee270146102c057600080fd5b806314fcf3151461023f57806318160ddd146102605780631bbb6e581461026857600080fd5b806306fdde03146101ae578063070df2d2146101cc578063087cbd40146101e1578063095ea7b3146101f45780630a5763641461021757806313af40351461022c575b600080fd5b6101b661040a565b6040516101c39190612970565b60405180910390f35b6101df6101da3660046125e6565b61049c565b005b6101df6101ef366004612382565b61072a565b610207610202366004612410565b6107a1565b60405190151581526020016101c3565b61021f6107b7565b6040516101c391906129ec565b6101df61023a366004612382565b610c70565b61025261024d366004612410565b610cbc565b6040519081526020016101c3565b600254610252565b61027b6102763660046125ce565b610ced565b6040516101c394939291906128d8565b6102076102993660046123d5565b610dbf565b604051601281526020016101c3565b6102076102bb366004612410565b610e69565b6101b6610ea5565b6102526102d6366004612382565b6001600160a01b031660009081526020819052604090205490565b601554601354604080519283526020830191909152016101c3565b6101b6610eb4565b6101b6610ec3565b61020761032a366004612410565b610ecd565b61034261033d3660046125ce565b610f66565b6040516101c393929190612905565b61020761035f366004612410565b61102f565b61036c61109f565b6040516101c393929190612983565b610383611571565b6040516101c3919061292c565b6101df61039e36600461248e565b6115cb565b6102526103b1366004612410565b61184e565b6101df6103c4366004612439565b61186a565b6102526103d73660046123a3565b6001600160a01b03918216600090815260016020908152604080832093909416825291909152205490565b6101df611b13565b60606003805461041990612bc5565b80601f016020809104026020016040519081016040528092919081815260200182805461044590612bc5565b80156104925780601f1061046757610100808354040283529160200191610492565b820191906000526020600020905b81548152906001019060200180831161047557829003601f168201915b5050505050905090565b33600090815260208190526040902054839081106105015760405162461bcd60e51b815260206004820152601a60248201527f4e6f20616d6f756e7420746f6b656e20686f6c6465722068617300000000000060448201526064015b60405180910390fd5b6101008251106105535760405162461bcd60e51b815260206004820152601f60248201527f466565646261636b206973206c6f6e672c206d757374206265203c203235360060448201526064016104f8565b60408051608081018252338152426020808301918252928201868152606083018681526013805460018101825560009190915284517f66de8ffda797e3de9c05e8fc57b3bf0ec28a930d40b0d285d93c06501cf6a090600490920291820180546001600160a01b0319166001600160a01b0390921691909117815593517f66de8ffda797e3de9c05e8fc57b3bf0ec28a930d40b0d285d93c06501cf6a09182015591517f66de8ffda797e3de9c05e8fc57b3bf0ec28a930d40b0d285d93c06501cf6a09283015551805193948594610651937f66de8ffda797e3de9c05e8fc57b3bf0ec28a930d40b0d285d93c06501cf6a093019290910190612065565b505033600090815260146020526040902060135490915061067490600190612bae565b815460018101835560009283526020832001556106a6336001600160a01b031660009081526020819052604090205490565b6106b08787612aec565b6106ba9190612ab2565b6013549091506106ca8183612aec565b6013546106d990600190612b6f565b6008546106e69190612aec565b6106f09190612a59565b6106fa9190612ab2565b60085560078054879190600090610712908490612a9a565b9091555061072290503387611b3f565b505050505050565b6017546001600160a01b0316331461077f5760405162461bcd60e51b81526020600482015260186024820152774f6e6c7920666163746f72792063616e20646f207468697360401b60448201526064016104f8565b600580546001600160a01b0319166001600160a01b0392909216919091179055565b60006107ae338484611c8e565b50600192915050565b6107bf6120e9565b60408051610140810182526006805482526007546020830152600854928201929092526009546060820152600a546001600160a01b03166080820152600b805491929160a08401919061081190612bc5565b80601f016020809104026020016040519081016040528092919081815260200182805461083d90612bc5565b801561088a5780601f1061085f5761010080835404028352916020019161088a565b820191906000526020600020905b81548152906001019060200180831161086d57829003601f168201915b505050505081526020016006820180546108a390612bc5565b80601f01602080910402602001604051908101604052809291908181526020018280546108cf90612bc5565b801561091c5780601f106108f15761010080835404028352916020019161091c565b820191906000526020600020905b8154815290600101906020018083116108ff57829003601f168201915b5050505050815260200160078201805461093590612bc5565b80601f016020809104026020016040519081016040528092919081815260200182805461096190612bc5565b80156109ae5780601f10610983576101008083540402835291602001916109ae565b820191906000526020600020905b81548152906001019060200180831161099157829003601f168201915b50505050508152602001600882016040518060800160405290816000820180546109d790612bc5565b80601f0160208091040260200160405190810160405280929190818152602001828054610a0390612bc5565b8015610a505780601f10610a2557610100808354040283529160200191610a50565b820191906000526020600020905b815481529060010190602001808311610a3357829003601f168201915b50505050508152602001600182018054610a6990612bc5565b80601f0160208091040260200160405190810160405280929190818152602001828054610a9590612bc5565b8015610ae25780601f10610ab757610100808354040283529160200191610ae2565b820191906000526020600020905b815481529060010190602001808311610ac557829003601f168201915b50505050508152602001600282018054610afb90612bc5565b80601f0160208091040260200160405190810160405280929190818152602001828054610b2790612bc5565b8015610b745780601f10610b4957610100808354040283529160200191610b74565b820191906000526020600020905b815481529060010190602001808311610b5757829003601f168201915b50505050508152602001600382018054610b8d90612bc5565b80601f0160208091040260200160405190810160405280929190818152602001828054610bb990612bc5565b8015610c065780601f10610bdb57610100808354040283529160200191610c06565b820191906000526020600020905b815481529060010190602001808311610be957829003601f168201915b5050505050815250508152602001600c8201805480602002602001604051908101604052809291908181526020018280548015610c6257602002820191906000526020600020905b815481526020019060010190808311610c4e575b505050505081525050905090565b6018546001600160a01b03163314610c9a5760405162461bcd60e51b81526004016104f8906129bc565b601880546001600160a01b0319166001600160a01b0392909216919091179055565b60166020528160005260406000208181548110610cd857600080fd5b90600052602060002001600091509150505481565b60138181548110610cfd57600080fd5b600091825260209091206004909102018054600182015460028301546003840180546001600160a01b03909416955091939092909190610d3c90612bc5565b80601f0160208091040260200160405190810160405280929190818152602001828054610d6890612bc5565b8015610db55780601f10610d8a57610100808354040283529160200191610db5565b820191906000526020600020905b815481529060010190602001808311610d9857829003601f168201915b5050505050905084565b6000610dcc848484611daa565b6001600160a01b038416600090815260016020908152604080832033845290915290205482811015610e515760405162461bcd60e51b815260206004820152602860248201527f45524332303a207472616e7366657220616d6f756e74206578636565647320616044820152676c6c6f77616e636560c01b60648201526084016104f8565b610e5e8533858403611c8e565b506001949350505050565b3360008181526001602090815260408083206001600160a01b038716845290915281205490916107ae918590610ea0908690612a9a565b611c8e565b6060610eaf610eb4565b905090565b60606004805461041990612bc5565b6060610eaf61040a565b3360009081526001602090815260408083206001600160a01b038616845290915281205482811015610f4f5760405162461bcd60e51b815260206004820152602560248201527f45524332303a2064656372656173656420616c6c6f77616e63652062656c6f77604482015264207a65726f60d81b60648201526084016104f8565b610f5c3385858403611c8e565b5060019392505050565b60158181548110610f7657600080fd5b60009182526020909120600390910201805460018201546002830180546001600160a01b039093169450909291610fac90612bc5565b80601f0160208091040260200160405190810160405280929190818152602001828054610fd890612bc5565b80156110255780601f10610ffa57610100808354040283529160200191611025565b820191906000526020600020905b81548152906001019060200180831161100857829003601f168201915b5050505050905083565b6005546040516323b3af8960e01b81526001600160a01b03848116600483015230602483015260009216906323b3af8990604401600060405180830381600087803b15801561107d57600080fd5b505af1158015611091573d6000803e3d6000fd5b50505050610f5c8383611f79565b6060806110aa6120e9565b6110b261040a565b6110ba610eb4565b60408051610140810182526006805482526007546020830152600854928201929092526009546060820152600a546001600160a01b03166080820152600b8054839160a084019161110a90612bc5565b80601f016020809104026020016040519081016040528092919081815260200182805461113690612bc5565b80156111835780601f1061115857610100808354040283529160200191611183565b820191906000526020600020905b81548152906001019060200180831161116657829003601f168201915b5050505050815260200160068201805461119c90612bc5565b80601f01602080910402602001604051908101604052809291908181526020018280546111c890612bc5565b80156112155780601f106111ea57610100808354040283529160200191611215565b820191906000526020600020905b8154815290600101906020018083116111f857829003601f168201915b5050505050815260200160078201805461122e90612bc5565b80601f016020809104026020016040519081016040528092919081815260200182805461125a90612bc5565b80156112a75780601f1061127c576101008083540402835291602001916112a7565b820191906000526020600020905b81548152906001019060200180831161128a57829003601f168201915b50505050508152602001600882016040518060800160405290816000820180546112d090612bc5565b80601f01602080910402602001604051908101604052809291908181526020018280546112fc90612bc5565b80156113495780601f1061131e57610100808354040283529160200191611349565b820191906000526020600020905b81548152906001019060200180831161132c57829003601f168201915b5050505050815260200160018201805461136290612bc5565b80601f016020809104026020016040519081016040528092919081815260200182805461138e90612bc5565b80156113db5780601f106113b0576101008083540402835291602001916113db565b820191906000526020600020905b8154815290600101906020018083116113be57829003601f168201915b505050505081526020016002820180546113f490612bc5565b80601f016020809104026020016040519081016040528092919081815260200182805461142090612bc5565b801561146d5780601f106114425761010080835404028352916020019161146d565b820191906000526020600020905b81548152906001019060200180831161145057829003601f168201915b5050505050815260200160038201805461148690612bc5565b80601f01602080910402602001604051908101604052809291908181526020018280546114b290612bc5565b80156114ff5780601f106114d4576101008083540402835291602001916114ff565b820191906000526020600020905b8154815290600101906020018083116114e257829003601f168201915b5050505050815250508152602001600c820180548060200260200160405190810160405280929190818152602001828054801561155b57602002820191906000526020600020905b815481526020019060010190808311611547575b5050505050815250509050925092509250909192565b60606006600c0180548060200260200160405190810160405280929190818152602001828054801561049257602002820191906000526020600020905b8154815260200190600101908083116115ae575050505050905090565b6017546001600160a01b031633146116205760405162461bcd60e51b81526020600482015260186024820152774f6e6c7920666163746f72792063616e20646f207468697360401b60448201526064016104f8565b601880546001600160a01b038084166001600160a01b03199283161790925560058054928516929091169190911790558951601011806116615750600a8951105b8061166d575060408851105b80611679575060808751105b8061168657506101008651105b8061169357506005835111155b6116df5760405162461bcd60e51b815260206004820152601b60248201527f546f6f206d616e792073796d627320696e20706172616d65746572000000000060448201526064016104f8565b604080516101408101825260008082526020808301829052928201819052606082018790526001600160a01b0384166080830181905260a083018c905260c083018b905260e083018a905261010083018990526101208301879052600682815560078390556008929092556009889055600a80546001600160a01b03191690911790558a519192909161177891600b91908d0190612065565b5060c08201518051611794916006840191602090910190612065565b5060e082015180516117b0916007840191602090910190612065565b506101008201518051805160088401916117cf91839160200190612065565b5060208281015180516117e89260018501920190612065565b5060408201518051611804916002840191602090910190612065565b5060608201518051611820916003840191602090910190612065565b505050610120820151805161183f91600c840191602090910190612171565b50505050505050505050505050565b60146020528160005260406000208181548110610cd857600080fd5b6018546001600160a01b031633146118945760405162461bcd60e51b81526004016104f8906129bc565b600554600160a01b900460ff16611921576005546040516338a1048560e01b81526001600160a01b03909116906338a10485906118db903090600c9060129060040161280e565b600060405180830381600087803b1580156118f557600080fd5b505af1158015611909573d6000803e3d6000fd5b50506005805460ff60a01b1916600160a01b17905550505b6101008151106119735760405162461bcd60e51b815260206004820152601c60248201527f494f552074657874206973206c6f6e672c206e656564203c203235360000000060448201526064016104f8565b604080516060810182526001600160a01b0385811682524260208084019182529383018581526015805460018101825560009190915284517f55f448fdea98c4d29eb340757ef0a66cd03dbb9538908a6a81d96026b71ec475600390920291820180546001600160a01b0319169190951617845591517f55f448fdea98c4d29eb340757ef0a66cd03dbb9538908a6a81d96026b71ec47683015551805193948594611a44937f55f448fdea98c4d29eb340757ef0a66cd03dbb9538908a6a81d96026b71ec477019290910190612065565b5050506001600160a01b0384166000908152601660205260409020601554611a6e90600190612bae565b81546001810183556000928352602090922090910155611a8e8484611f86565b8260066000016000828254611aa39190612a9a565b90915550506005546040516323b3af8960e01b81526001600160a01b038681166004830152306024830152909116906323b3af8990604401600060405180830381600087803b158015611af557600080fd5b505af1158015611b09573d6000803e3d6000fd5b5050505050505050565b6018546001600160a01b03163314611b3d5760405162461bcd60e51b81526004016104f8906129bc565b565b6001600160a01b038216611b9f5760405162461bcd60e51b815260206004820152602160248201527f45524332303a206275726e2066726f6d20746865207a65726f206164647265736044820152607360f81b60648201526084016104f8565b6001600160a01b03821660009081526020819052604090205481811015611c135760405162461bcd60e51b815260206004820152602260248201527f45524332303a206275726e20616d6f756e7420657863656564732062616c616e604482015261636560f01b60648201526084016104f8565b6001600160a01b0383166000908152602081905260408120838303905560028054849290611c42908490612bae565b90915550506040518281526000906001600160a01b038516907fddf252ad1be2c89b69c2b068fc378daa952ba7f163c4a11628f55a4df523b3ef906020015b60405180910390a3505050565b6001600160a01b038316611cf05760405162461bcd60e51b8152602060048201526024808201527f45524332303a20617070726f76652066726f6d20746865207a65726f206164646044820152637265737360e01b60648201526084016104f8565b6001600160a01b038216611d515760405162461bcd60e51b815260206004820152602260248201527f45524332303a20617070726f766520746f20746865207a65726f206164647265604482015261737360f01b60648201526084016104f8565b6001600160a01b0383811660008181526001602090815260408083209487168084529482529182902085905590518481527f8c5be1e5ebec7d5bd14f71427d1e84f3dd0314c0f7b2291e5b200ac8c7c3b9259101611c81565b6001600160a01b038316611e0e5760405162461bcd60e51b815260206004820152602560248201527f45524332303a207472616e736665722066726f6d20746865207a65726f206164604482015264647265737360d81b60648201526084016104f8565b6001600160a01b038216611e705760405162461bcd60e51b815260206004820152602360248201527f45524332303a207472616e7366657220746f20746865207a65726f206164647260448201526265737360e81b60648201526084016104f8565b6001600160a01b03831660009081526020819052604090205481811015611ee85760405162461bcd60e51b815260206004820152602660248201527f45524332303a207472616e7366657220616d6f756e7420657863656564732062604482015265616c616e636560d01b60648201526084016104f8565b6001600160a01b03808516600090815260208190526040808220858503905591851681529081208054849290611f1f908490612a9a565b92505081905550826001600160a01b0316846001600160a01b03167fddf252ad1be2c89b69c2b068fc378daa952ba7f163c4a11628f55a4df523b3ef84604051611f6b91815260200190565b60405180910390a350505050565b60006107ae338484611daa565b6001600160a01b038216611fdc5760405162461bcd60e51b815260206004820152601f60248201527f45524332303a206d696e7420746f20746865207a65726f20616464726573730060448201526064016104f8565b8060026000828254611fee9190612a9a565b90915550506001600160a01b0382166000908152602081905260408120805483929061201b908490612a9a565b90915550506040518181526001600160a01b038316906000907fddf252ad1be2c89b69c2b068fc378daa952ba7f163c4a11628f55a4df523b3ef9060200160405180910390a35050565b82805461207190612bc5565b90600052602060002090601f01602090048101928261209357600085556120d9565b82601f106120ac57805160ff19168380011785556120d9565b828001600101855582156120d9579182015b828111156120d95782518255916020019190600101906120be565b506120e59291506121ab565b5090565b6040518061014001604052806000815260200160008152602001600081526020016000801916815260200160006001600160a01b031681526020016060815260200160608152602001606081526020016121646040518060800160405280606081526020016060815260200160608152602001606081525090565b8152602001606081525090565b8280548282559060005260206000209081019282156120d957916020028201828111156120d95782518255916020019190600101906120be565b5b808211156120e557600081556001016121ac565b80356001600160a01b03811681146121d757600080fd5b919050565b600082601f8301126121ec578081fd5b8135602067ffffffffffffffff82111561220857612208612c16565b8160051b612217828201612a28565b838152828101908684018388018501891015612231578687fd5b8693505b85841015612253578035835260019390930192918401918401612235565b50979650505050505050565b600082601f83011261226f578081fd5b813567ffffffffffffffff81111561228957612289612c16565b61229c601f8201601f1916602001612a28565b8181528460208386010111156122b0578283fd5b816020850160208301379081016020019190915292915050565b6000608082840312156122db578081fd5b6122e36129ff565b9050813567ffffffffffffffff808211156122fd57600080fd5b6123098583860161225f565b8352602084013591508082111561231f57600080fd5b61232b8583860161225f565b6020840152604084013591508082111561234457600080fd5b6123508583860161225f565b6040840152606084013591508082111561236957600080fd5b506123768482850161225f565b60608301525092915050565b600060208284031215612393578081fd5b61239c826121c0565b9392505050565b600080604083850312156123b5578081fd5b6123be836121c0565b91506123cc602084016121c0565b90509250929050565b6000806000606084860312156123e9578081fd5b6123f2846121c0565b9250612400602085016121c0565b9150604084013590509250925092565b60008060408385031215612422578182fd5b61242b836121c0565b946020939093013593505050565b60008060006060848603121561244d578283fd5b612456846121c0565b925060208401359150604084013567ffffffffffffffff811115612478578182fd5b6124848682870161225f565b9150509250925092565b6000806000806000806000806000806101408b8d0312156124ad578586fd5b8a3567ffffffffffffffff808211156124c4578788fd5b6124d08e838f0161225f565b9b5060208d01359150808211156124e5578788fd5b6124f18e838f0161225f565b9a5060408d0135915080821115612506578788fd5b6125128e838f0161225f565b995060608d0135915080821115612527578788fd5b6125338e838f0161225f565b985060808d0135915080821115612548578788fd5b6125548e838f0161225f565b975060a08d0135915080821115612569578687fd5b6125758e838f016122ca565b965060c08d0135955060e08d0135915080821115612591578485fd5b5061259e8d828e016121dc565b9350506125ae6101008c016121c0565b91506125bd6101208c016121c0565b90509295989b9194979a5092959850565b6000602082840312156125df578081fd5b5035919050565b6000806000606084860312156125fa578283fd5b8335925060208401359150604084013567ffffffffffffffff811115612478578182fd5b6000815180845260208085019450808401835b8381101561264d57815187529582019590820190600101612631565b509495945050505050565b6000815480845260208085019450838352808320835b8381101561264d5781548752958201956001918201910161266e565b60008151808452815b818110156126af57602081850181015186830182015201612693565b818111156126c05782602083870101525b50601f01601f19169290920160200192915050565b600061014082518452602083015160208501526040830151604085015260608301516060850152608083015161271660808601826001600160a01b03169052565b5060a08301518160a086015261272e8286018261268a565b91505060c083015184820360c0860152612748828261268a565b91505060e083015184820360e0860152612762828261268a565b915050610100808401518583038287015261277d83826127a3565b925050506101208084015185830382870152612799838261261e565b9695505050505050565b60008151608084526127b8608085018261268a565b9050602083015184820360208601526127d1828261268a565b915050604083015184820360408601526127eb828261268a565b91505060608301518482036060860152612805828261268a565b95945050505050565b60018060a01b03841681526000602060608184015281855483600182811c91508083168061283d57607f831692505b85831081141561285b57634e487b7160e01b87526022600452602487fd5b606088018390526080880181801561287a576001811461288b576128b5565b60ff198616825287820196506128b5565b60008c815260209020895b868110156128af57815484820152908501908901612896565b83019750505b50505050505083810360408501526128cd8186612658565b979650505050505050565b60018060a01b0385168152836020820152826040820152608060608201526000612799608083018461268a565b60018060a01b0384168152826020820152606060408201526000612805606083018461268a565b6020808252825182820181905260009190848201906040850190845b8181101561296457835183529284019291840191600101612948565b50909695505050505050565b60208152600061239c602083018461268a565b606081526000612996606083018661268a565b82810360208401526129a8818661268a565b9050828103604084015261279981856126d5565b6020808252601690820152754f6e6c79206f776e65722063616e20646f207468697360501b604082015260600190565b60208152600061239c60208301846126d5565b6040516080810167ffffffffffffffff81118282101715612a2257612a22612c16565b60405290565b604051601f8201601f1916810167ffffffffffffffff81118282101715612a5157612a51612c16565b604052919050565b600080821280156001600160ff1b0384900385131615612a7b57612a7b612c00565b600160ff1b8390038412811615612a9457612a94612c00565b50500190565b60008219821115612aad57612aad612c00565b500190565b600082612acd57634e487b7160e01b81526012600452602481fd5b600160ff1b821460001984141615612ae757612ae7612c00565b500590565b60006001600160ff1b0381841382841380821686840486111615612b1257612b12612c00565b600160ff1b84871282811687830589121615612b3057612b30612c00565b858712925087820587128484161615612b4b57612b4b612c00565b87850587128184161615612b6157612b61612c00565b505050929093029392505050565b60008083128015600160ff1b850184121615612b8d57612b8d612c00565b6001600160ff1b0384018313811615612ba857612ba8612c00565b50500390565b600082821015612bc057612bc0612c00565b500390565b600181811c90821680612bd957607f821691505b60208210811415612bfa57634e487b7160e01b600052602260045260246000fd5b50919050565b634e487b7160e01b600052601160045260246000fd5b634e487b7160e01b600052604160045260246000fdfea2646970667358221220035ef0bb909fa0e07412e3f784ce56800c4835975af23253076cdec47d40983864736f6c63430008040033a2646970667358221220d960a1610e053be4a26285ef8b485332a5fb8f933e5ee5f4d7390b7e086cfe0664736f6c63430008040033",
  "immutableReferences": {},
  "source": "pragma solidity >=  0.8.0;\npragma experimental ABIEncoderV2;\nimport \"./IOUtoken.sol\";\nimport \"./interfaces/iStoreIOUs.sol\";\nimport \"./interfaces/iIOUtoken.sol\";\n\ncontract MakeIOU {\n    \n    address private owner;\n    iStoreIOUs store;\n\n    function setOwner (address _newOwner) public onlyOwner {\n        owner = _newOwner;\n    }\n\n    function setStore (address _newOwner) public onlyOwner {\n        store = iStoreIOUs(_newOwner);\n        \n    }   \n\n    constructor ()  {\n        owner = msg.sender;\n    }\n\n    modifier onlyOwner() {\n        require (owner == msg.sender, \"Only owner can do this\");\n        _;\n    }\n\n    function makeIOU(string memory _name, \n                 string memory _symbol, \n                 string memory _myName, //name of emitter\n                 string memory _socialProfile, //profile  of emitter in social nets\n                 string memory _description, //description of bond IOU to  work\n                 iIOUtoken.geo  memory _location, //where is                  \n                 bytes32  _units, //units of deal\n                 bytes32[] memory _keywords\n                        ) public returns (address) {\n\n        IOUtoken newIOU = new IOUtoken(_name, \n                                    _symbol);\n        newIOU.setIOU(  _name, \n                        _symbol,                    \n                        _myName, \n                        _socialProfile,  \n                        _description,\n                        _location,\n                        _units, \n                        _keywords,\n                        address(store),\n                        msg.sender\n            );\n        //store.addIOU2(address(newIOU), _socialProfile, msg.sender, _keywords);\n        require (address(store) != address(0x0), \"No store address\");\n        store.addIOU1(address(newIOU), msg.sender);//, _socialProfile, msg.sender, _keywords);\n\n        return address (newIOU);\n        }\n\n  \n}",
  "sourcePath": "/mnt/512-2/dfd/iou2/contracts/MakeIOU.sol",
  "compiler": {
    "name": "solc",
    "version": "0.8.4+commit.c7e474f2.Emscripten.clang"
  },
  "schemaVersion": "3.4.3",
  "updatedAt": "2021-08-28T06:55:05.818Z",
  "networkType": "ethereum",
  "devdoc": {
    "kind": "dev",
    "methods": {},
    "version": 1
  },
  "userdoc": {
    "kind": "user",
    "methods": {},
    "version": 1
  }
}