{
  "contractName": "MakeIOU",
  "abi": [
    {
      "inputs": [],
      "stateMutability": "nonpayable",
      "type": "constructor"
    },
    {
      "inputs": [
        {
          "internalType": "address",
          "name": "_newOwner",
          "type": "address"
        }
      ],
      "name": "setOwner",
      "outputs": [],
      "stateMutability": "nonpayable",
      "type": "function"
    },
    {
      "inputs": [
        {
          "internalType": "address",
          "name": "_new",
          "type": "address"
        }
      ],
      "name": "setStore",
      "outputs": [],
      "stateMutability": "nonpayable",
      "type": "function"
    },
    {
      "inputs": [
        {
          "internalType": "address",
          "name": "_proxy",
          "type": "address"
        },
        {
          "internalType": "address",
          "name": "_implement",
          "type": "address"
        }
      ],
      "name": "setimplement",
      "outputs": [],
      "stateMutability": "nonpayable",
      "type": "function"
    },
    {
      "inputs": [
        {
          "internalType": "string",
          "name": "_name",
          "type": "string"
        },
        {
          "internalType": "string",
          "name": "_symbol",
          "type": "string"
        },
        {
          "internalType": "string",
          "name": "_myName",
          "type": "string"
        },
        {
          "internalType": "string",
          "name": "_socialProfile",
          "type": "string"
        },
        {
          "internalType": "string",
          "name": "_description",
          "type": "string"
        },
        {
          "components": [
            {
              "internalType": "string",
              "name": "country",
              "type": "string"
            },
            {
              "internalType": "string",
              "name": "state",
              "type": "string"
            },
            {
              "internalType": "string",
              "name": "city",
              "type": "string"
            },
            {
              "internalType": "string",
              "name": "street",
              "type": "string"
            }
          ],
          "internalType": "struct iIOUtoken.geo",
          "name": "_location",
          "type": "tuple"
        },
        {
          "internalType": "bytes32",
          "name": "_units",
          "type": "bytes32"
        },
        {
          "internalType": "bytes32[]",
          "name": "_keywords",
          "type": "bytes32[]"
        },
        {
          "internalType": "bytes32",
          "name": "_phone",
          "type": "bytes32"
        }
      ],
      "name": "makeIOU",
      "outputs": [
        {
          "internalType": "address",
          "name": "",
          "type": "address"
        }
      ],
      "stateMutability": "nonpayable",
      "type": "function"
    }
  ],
  "bytecode": "0x608060405234801561001057600080fd5b50600080546001600160a01b031916331790556109e1806100326000396000f3fe608060405234801561001057600080fd5b506004361061004c5760003560e01c8063087cbd401461005157806313af40351461006657806346028a3314610079578063a3af74871461008c575b600080fd5b61006461005f3660046103c9565b6100bb565b005b6100646100743660046103c9565b610110565b6100646100873660046103eb565b61015c565b61009f61009a366004610637565b6101b7565b6040516001600160a01b03909116815260200160405180910390f35b6000546001600160a01b031633146100ee5760405162461bcd60e51b81526004016100e590610766565b60405180910390fd5b600380546001600160a01b0319166001600160a01b0392909216919091179055565b6000546001600160a01b0316331461013a5760405162461bcd60e51b81526004016100e590610766565b600080546001600160a01b0319166001600160a01b0392909216919091179055565b6000546001600160a01b031633146101865760405162461bcd60e51b81526004016100e590610766565b600180546001600160a01b039283166001600160a01b03199182161790915560028054939092169216919091179055565b60408051610160810182526000808252602082018190529181018290526060810185905233608082015260a0810189905260c0810188905260e081018790526101008101869052610120810184905261014081018390526002548290610225906001600160a01b0316610315565b9050806001600160a01b03166390c296708d8d85600360009054906101000a90046001600160a01b0316600160009054906101000a90046001600160a01b03166040518663ffffffff1660e01b8152600401610285959493929190610889565b600060405180830381600087803b15801561029f57600080fd5b505af11580156102b3573d6000803e3d6000fd5b50506003546001600160a01b03161515915061030690505760405162461bcd60e51b815260206004820152601060248201526f4e6f2073746f7265206164647265737360801b60448201526064016100e5565b9b9a5050505050505050505050565b6000604051733d602d80600a3d3981f3363d3d373d3d3d363d7360601b81528260601b60148201526e5af43d82803e903d91602b57fd5bf360881b60288201526037816000f09150506001600160a01b0381166103ad5760405162461bcd60e51b8152602060048201526016602482015275115490cc4c4d8dce8818dc99585d194819985a5b195960521b60448201526064016100e5565b919050565b80356001600160a01b03811681146103ad57600080fd5b6000602082840312156103db57600080fd5b6103e4826103b2565b9392505050565b600080604083850312156103fe57600080fd5b610407836103b2565b9150610415602084016103b2565b90509250929050565b634e487b7160e01b600052604160045260246000fd5b6040516080810167ffffffffffffffff811182821017156104575761045761041e565b60405290565b604051601f8201601f1916810167ffffffffffffffff811182821017156104865761048661041e565b604052919050565b600082601f83011261049f57600080fd5b813567ffffffffffffffff8111156104b9576104b961041e565b6104cc601f8201601f191660200161045d565b8181528460208386010111156104e157600080fd5b816020850160208301376000918101602001919091529392505050565b60006080828403121561051057600080fd5b610518610434565b9050813567ffffffffffffffff8082111561053257600080fd5b61053e8583860161048e565b8352602084013591508082111561055457600080fd5b6105608583860161048e565b6020840152604084013591508082111561057957600080fd5b6105858583860161048e565b6040840152606084013591508082111561059e57600080fd5b506105ab8482850161048e565b60608301525092915050565b600082601f8301126105c857600080fd5b8135602067ffffffffffffffff8211156105e4576105e461041e565b8160051b6105f382820161045d565b928352848101820192828101908785111561060d57600080fd5b83870192505b8483101561062c57823582529183019190830190610613565b979650505050505050565b60008060008060008060008060006101208a8c03121561065657600080fd5b893567ffffffffffffffff8082111561066e57600080fd5b61067a8d838e0161048e565b9a5060208c013591508082111561069057600080fd5b61069c8d838e0161048e565b995060408c01359150808211156106b257600080fd5b6106be8d838e0161048e565b985060608c01359150808211156106d457600080fd5b6106e08d838e0161048e565b975060808c01359150808211156106f657600080fd5b6107028d838e0161048e565b965060a08c013591508082111561071857600080fd5b6107248d838e016104fe565b955060c08c0135945060e08c013591508082111561074157600080fd5b5061074e8c828d016105b7565b9250506101008a013590509295985092959850929598565b6020808252601690820152754f6e6c79206f776e65722063616e20646f207468697360501b604082015260600190565b6000815180845260005b818110156107bc576020818501810151868301820152016107a0565b818111156107ce576000602083870101525b50601f01601f19169290920160200192915050565b60008151608084526107f86080850182610796565b9050602083015184820360208601526108118282610796565b9150506040830151848203604086015261082b8282610796565b915050606083015184820360608601526108458282610796565b95945050505050565b600081518084526020808501945080840160005b8381101561087e57815187529582019590820190600101610862565b509495945050505050565b60a08152600061089c60a0830188610796565b82810360208401526108ae8188610796565b905082810360408401526101608651825260208701516020830152604087015160408301526060870151606083015260808701516108f760808401826001600160a01b03169052565b5060a08701518160a084015261090f82840182610796565b91505060c087015182820360c08401526109298282610796565b91505060e087015182820360e08401526109438282610796565b915050610100808801518383038285015261095e83826107e3565b92505050610120808801518383038285015261097a838261084e565b610140998a01519490990193909352505050506001600160a01b03928316606082015291166080909101529291505056fea2646970667358221220aaefc9923dd1f59b050d2840d716a21e6cd7e11e24fbaaf069c4846e023e98a664736f6c634300080a0033",
  "immutableReferences": {},
  "source": "pragma solidity >=  0.8.0;\npragma experimental ABIEncoderV2;\nimport \"@openzeppelin/contracts/proxy/Clones.sol\";\n// import \"./ProxySimple.sol\";\n//import \"@openzeppelin/contracts/proxy/transparent/TransparentUpgradeableProxy.sol\";\n//import  \"@openzeppelin/contracts/proxy/ERC1967/ERC1967Proxy.sol\";\nimport \"./interfaces/iIOUtoken.sol\";\nimport \"./interfaces/iStoreIOUs.sol\";\n\n\ncontract MakeIOU {\n    \n    address private owner;\n    address private implement;\n    address private proxy;\n    iStoreIOUs store;\n\n    function setOwner (address _newOwner) public onlyOwner {\n        owner = _newOwner;\n    }\n\n    function setStore (address _new) public onlyOwner {\n        store = iStoreIOUs(_new);\n        \n    }   \n\n    function setimplement (address _proxy, address _implement ) public onlyOwner {\n        implement = _implement;\n        proxy = _proxy;\n        \n    }   \n\n    constructor ()  {\n        owner = msg.sender;\n    }\n\n    modifier onlyOwner() {\n        require (owner == msg.sender, \"Only owner can do this\");\n        _;\n    }\n\n    function makeIOU(string memory _name, \n                 string memory _symbol, \n                 string memory _myName, //name of emitter\n                 string memory _socialProfile, //profile  of emitter in social nets\n                 string memory _description, //description of bond IOU to  work\n                 iIOUtoken.geo  memory _location, //where is                  \n                 bytes32  _units, //units of deal\n                 bytes32[] memory _keywords,\n                 bytes32 _phone\n                        ) public returns (address) {\n        \n\n    iIOUtoken.DescriptionIOU memory thisIOU = iIOUtoken.DescriptionIOU (0,0,0,\n            _units,\n            msg.sender, \n            _myName,\n            _socialProfile,\n            _description,\n            _location,\n            _keywords,\n           _phone\n        );\n  //  ERC1967Proxy proxIOU = new ERC1967Proxy(proxy, \"\");\n    iIOUtoken newIOU =  iIOUtoken(address ( /* proxIOU */   Clones.clone(proxy)  ));\n    \n    newIOU.setIOU (_name, _symbol, thisIOU,address(store), implement ); \n    require (address(store) != address(0x0), \"No store address\");\n    //store.addIOU1(address(newIOU), msg.sender, thisIOU); //, _socialProfile, msg.sender, _keywords);\n     //   newIOU.setStore(address(store));\n\n        return address (newIOU);\n        }\n\n}",
  "sourcePath": "/mnt/512-2/dfd/iou2/contracts/MakeIOU.sol",
  "compiler": {
    "name": "solc",
    "version": "0.8.10+commit.fc410830.Emscripten.clang"
  },
  "schemaVersion": "3.4.4",
  "updatedAt": "2022-02-16T16:17:47.199Z",
  "networkType": "ethereum",
  "devdoc": {
    "kind": "dev",
    "methods": {},
    "version": 1
  },
  "userdoc": {
    "kind": "user",
    "methods": {},
    "version": 1
  }
}