{
  "contractName": "MakeIOU",
  "abi": [
    {
      "inputs": [],
      "stateMutability": "nonpayable",
      "type": "constructor"
    },
    {
      "inputs": [
        {
          "internalType": "address",
          "name": "_newOwner",
          "type": "address"
        }
      ],
      "name": "setOwner",
      "outputs": [],
      "stateMutability": "nonpayable",
      "type": "function"
    },
    {
      "inputs": [
        {
          "internalType": "address",
          "name": "_new",
          "type": "address"
        }
      ],
      "name": "setStore",
      "outputs": [],
      "stateMutability": "nonpayable",
      "type": "function"
    },
    {
      "inputs": [
        {
          "internalType": "address",
          "name": "_proxy",
          "type": "address"
        }
      ],
      "name": "setimplement",
      "outputs": [],
      "stateMutability": "nonpayable",
      "type": "function"
    },
    {
      "inputs": [
        {
          "internalType": "string",
          "name": "_name",
          "type": "string"
        },
        {
          "internalType": "string",
          "name": "_symbol",
          "type": "string"
        },
        {
          "internalType": "string",
          "name": "_myName",
          "type": "string"
        },
        {
          "internalType": "string",
          "name": "_socialProfile",
          "type": "string"
        },
        {
          "internalType": "string",
          "name": "_description",
          "type": "string"
        },
        {
          "components": [
            {
              "internalType": "string",
              "name": "country",
              "type": "string"
            },
            {
              "internalType": "string",
              "name": "state",
              "type": "string"
            },
            {
              "internalType": "string",
              "name": "city",
              "type": "string"
            },
            {
              "internalType": "string",
              "name": "street",
              "type": "string"
            }
          ],
          "internalType": "struct iIOUtoken.geo",
          "name": "_location",
          "type": "tuple"
        },
        {
          "internalType": "bytes32",
          "name": "_units",
          "type": "bytes32"
        },
        {
          "internalType": "bytes32[]",
          "name": "_keywords",
          "type": "bytes32[]"
        },
        {
          "internalType": "bytes32",
          "name": "_phone",
          "type": "bytes32"
        }
      ],
      "name": "makeIOU",
      "outputs": [
        {
          "internalType": "address",
          "name": "",
          "type": "address"
        }
      ],
      "stateMutability": "nonpayable",
      "type": "function"
    }
  ],
  "bytecode": "0x608060405234801561001057600080fd5b50600080546001600160a01b03191633179055610972806100326000396000f3fe608060405234801561001057600080fd5b506004361061004c5760003560e01c8063087cbd401461005157806313af403514610066578063a3af748714610079578063c44e26a2146100a8575b600080fd5b61006461005f36600461038a565b6100bb565b005b61006461007436600461038a565b610110565b61008c6100873660046105d3565b61015c565b6040516001600160a01b03909116815260200160405180910390f35b6100646100b636600461038a565b6102a1565b6000546001600160a01b031633146100ee5760405162461bcd60e51b81526004016100e590610702565b60405180910390fd5b600380546001600160a01b0319166001600160a01b0392909216919091179055565b6000546001600160a01b0316331461013a5760405162461bcd60e51b81526004016100e590610702565b600080546001600160a01b0319166001600160a01b0392909216919091179055565b60408051610160810182526000808252602082018190529181018290526060810185905233608082015260a0810189905260c0810188905260e0810187905261010081018690526101208101849052610140810183905260025482906101ca906001600160a01b03166102ed565b6003549091506001600160a01b03166102185760405162461bcd60e51b815260206004820152601060248201526f4e6f2073746f7265206164647265737360801b60448201526064016100e5565b806001600160a01b031663a1a613bb8d8d85600360009054906101000a90046001600160a01b03166040518563ffffffff1660e01b815260040161025f9493929190610825565b600060405180830381600087803b15801561027957600080fd5b505af115801561028d573d6000803e3d6000fd5b50929e9d5050505050505050505050505050565b6000546001600160a01b031633146102cb5760405162461bcd60e51b81526004016100e590610702565b600280546001600160a01b0319166001600160a01b0392909216919091179055565b6000604051733d602d80600a3d3981f3363d3d373d3d3d363d7360601b81528260601b60148201526e5af43d82803e903d91602b57fd5bf360881b60288201526037816000f09150506001600160a01b0381166103855760405162461bcd60e51b8152602060048201526016602482015275115490cc4c4d8dce8818dc99585d194819985a5b195960521b60448201526064016100e5565b919050565b60006020828403121561039c57600080fd5b81356001600160a01b03811681146103b357600080fd5b9392505050565b634e487b7160e01b600052604160045260246000fd5b6040516080810167ffffffffffffffff811182821017156103f3576103f36103ba565b60405290565b604051601f8201601f1916810167ffffffffffffffff81118282101715610422576104226103ba565b604052919050565b600082601f83011261043b57600080fd5b813567ffffffffffffffff811115610455576104556103ba565b610468601f8201601f19166020016103f9565b81815284602083860101111561047d57600080fd5b816020850160208301376000918101602001919091529392505050565b6000608082840312156104ac57600080fd5b6104b46103d0565b9050813567ffffffffffffffff808211156104ce57600080fd5b6104da8583860161042a565b835260208401359150808211156104f057600080fd5b6104fc8583860161042a565b6020840152604084013591508082111561051557600080fd5b6105218583860161042a565b6040840152606084013591508082111561053a57600080fd5b506105478482850161042a565b60608301525092915050565b600082601f83011261056457600080fd5b8135602067ffffffffffffffff821115610580576105806103ba565b8160051b61058f8282016103f9565b92835284810182019282810190878511156105a957600080fd5b83870192505b848310156105c8578235825291830191908301906105af565b979650505050505050565b60008060008060008060008060006101208a8c0312156105f257600080fd5b893567ffffffffffffffff8082111561060a57600080fd5b6106168d838e0161042a565b9a5060208c013591508082111561062c57600080fd5b6106388d838e0161042a565b995060408c013591508082111561064e57600080fd5b61065a8d838e0161042a565b985060608c013591508082111561067057600080fd5b61067c8d838e0161042a565b975060808c013591508082111561069257600080fd5b61069e8d838e0161042a565b965060a08c01359150808211156106b457600080fd5b6106c08d838e0161049a565b955060c08c0135945060e08c01359150808211156106dd57600080fd5b506106ea8c828d01610553565b9250506101008a013590509295985092959850929598565b6020808252601690820152754f6e6c79206f776e65722063616e20646f207468697360501b604082015260600190565b6000815180845260005b818110156107585760208185018101518683018201520161073c565b8181111561076a576000602083870101525b50601f01601f19169290920160200192915050565b60008151608084526107946080850182610732565b9050602083015184820360208601526107ad8282610732565b915050604083015184820360408601526107c78282610732565b915050606083015184820360608601526107e18282610732565b95945050505050565b600081518084526020808501945080840160005b8381101561081a578151875295820195908201906001016107fe565b509495945050505050565b6080815260006108386080830187610732565b828103602084015261084a8187610732565b9050828103604084015261016085518252602086015160208301526040860151604083015260608601516060830152608086015161089360808401826001600160a01b03169052565b5060a08601518160a08401526108ab82840182610732565b91505060c086015182820360c08401526108c58282610732565b91505060e086015182820360e08401526108df8282610732565b91505061010080870151838303828501526108fa838261077f565b92505050610120808701518383038285015261091683826107ea565b610140898101519501949094525050506001600160a01b038416606084015290506107e156fea264697066735822122086b3bcfe4972b9c7f228d80ae6ddc89a5301d42e8614e030b266ab1c5dcd02df64736f6c634300080e0033",
  "immutableReferences": {},
  "source": "pragma solidity >=  0.8.0;\npragma experimental ABIEncoderV2;\nimport \"@openzeppelin/contracts/proxy/Clones.sol\";\n// import \"./ProxySimple.sol\";\n//import \"@openzeppelin/contracts/proxy/transparent/TransparentUpgradeableProxy.sol\";\n//import  \"@openzeppelin/contracts/proxy/ERC1967/ERC1967Proxy.sol\";\nimport \"./interfaces/iIOUtoken.sol\";\nimport \"./interfaces/iStoreIOUs.sol\";\n\n\ncontract MakeIOU {\n    \n    address private owner;\n    address private implement;\n    address private proxy;\n    iStoreIOUs store;\n\n    function setOwner (address _newOwner) public onlyOwner {\n        owner = _newOwner;\n    }\n\n    function setStore (address _new) public onlyOwner {\n        store = iStoreIOUs(_new);\n        \n    }   \n\n    function setimplement (address _proxy ) public onlyOwner {\n        proxy = _proxy;\n        \n    }   \n\n    constructor ()  {\n        owner = msg.sender;\n    }\n\n    modifier onlyOwner() {\n        require (owner == msg.sender, \"Only owner can do this\");\n        _;\n    }\n\n    function makeIOU(string memory _name, \n                 string memory _symbol, \n                 string memory _myName, //name of emitter\n                 string memory _socialProfile, //profile  of emitter in social nets\n                 string memory _description, //description of bond IOU to  work\n                 iIOUtoken.geo  memory _location, //where is                  \n                 bytes32  _units, //units of deal\n                 bytes32[] memory _keywords,\n                 bytes32 _phone\n                        ) public returns (address) {\n        \n\n    iIOUtoken.DescriptionIOU memory thisIOU = iIOUtoken.DescriptionIOU (0,0,0,\n            _units,\n            msg.sender, \n            _myName,\n            _socialProfile,\n            _description,\n            _location,\n            _keywords,\n           _phone\n        );\n    //TransparentUpgradeableProxy proxIOU = new TransparentUpgradeableProxy(proxy, owner, \"\");\n    iIOUtoken newIOU =  iIOUtoken(address ( /* proxIOU */   Clones.clone(proxy) ));\n    require (address(store) != address(0x0), \"No store address\");\n    newIOU.setIOU (_name, _symbol, thisIOU,address(store)); \n    \n    return address (newIOU);\n        }\n\n}",
  "sourcePath": "/512-2/dfd/iou2/contracts/MakeIOU.sol",
  "compiler": {
    "name": "solc",
    "version": "0.8.14+commit.80d49f37.Emscripten.clang"
  },
  "schemaVersion": "3.4.10",
  "updatedAt": "2023-07-07T08:58:16.385Z",
  "networkType": "ethereum",
  "devdoc": {
    "kind": "dev",
    "methods": {},
    "version": 1
  },
  "userdoc": {
    "kind": "user",
    "methods": {},
    "version": 1
  }
}