{
  "contractName": "MakeIOU",
  "abi": [
    {
      "inputs": [],
      "stateMutability": "nonpayable",
      "type": "constructor"
    },
    {
      "inputs": [
        {
          "internalType": "address",
          "name": "_newOwner",
          "type": "address"
        }
      ],
      "name": "setOwner",
      "outputs": [],
      "stateMutability": "nonpayable",
      "type": "function"
    },
    {
      "inputs": [
        {
          "internalType": "address",
          "name": "_new",
          "type": "address"
        }
      ],
      "name": "setStore",
      "outputs": [],
      "stateMutability": "nonpayable",
      "type": "function"
    },
    {
      "inputs": [
        {
          "internalType": "string",
          "name": "_name",
          "type": "string"
        },
        {
          "internalType": "string",
          "name": "_symbol",
          "type": "string"
        },
        {
          "internalType": "string",
          "name": "_myName",
          "type": "string"
        },
        {
          "internalType": "string",
          "name": "_socialProfile",
          "type": "string"
        },
        {
          "internalType": "string",
          "name": "_description",
          "type": "string"
        },
        {
          "components": [
            {
              "internalType": "string",
              "name": "country",
              "type": "string"
            },
            {
              "internalType": "string",
              "name": "state",
              "type": "string"
            },
            {
              "internalType": "string",
              "name": "city",
              "type": "string"
            },
            {
              "internalType": "string",
              "name": "street",
              "type": "string"
            }
          ],
          "internalType": "struct iIOUtoken.geo",
          "name": "_location",
          "type": "tuple"
        },
        {
          "internalType": "bytes32",
          "name": "_units",
          "type": "bytes32"
        },
        {
          "internalType": "bytes32[]",
          "name": "_keywords",
          "type": "bytes32[]"
        },
        {
          "internalType": "bytes32",
          "name": "_phone",
          "type": "bytes32"
        }
      ],
      "name": "makeIOU",
      "outputs": [
        {
          "internalType": "address",
          "name": "",
          "type": "address"
        }
      ],
      "stateMutability": "nonpayable",
      "type": "function"
    }
  ],
  "bytecode": "0x608060405234801561001057600080fd5b50600080546001600160a01b0319163317905561408e806100326000396000f3fe60806040523480156200001157600080fd5b5060043610620000465760003560e01c8063087cbd40146200004b57806313af40351462000064578063a3af7487146200007b575b600080fd5b620000626200005c366004620004ed565b620000ae565b005b6200006262000075366004620004ed565b62000129565b620000926200008c3660046200051d565b620001a0565b6040516001600160a01b03909116815260200160405180910390f35b6000546001600160a01b03163314620001075760405162461bcd60e51b81526020600482015260166024820152754f6e6c79206f776e65722063616e20646f207468697360501b60448201526064015b60405180910390fd5b600180546001600160a01b0319166001600160a01b0392909216919091179055565b6000546001600160a01b031633146200017e5760405162461bcd60e51b81526020600482015260166024820152754f6e6c79206f776e65722063616e20646f207468697360501b6044820152606401620000fe565b600080546001600160a01b0319166001600160a01b0392909216919091179055565b600080604051806101600160405280600081526020016000815260200160008152602001868152602001336001600160a01b031681526020018a815260200189815260200188815260200187815260200185815260200184815250905060008b8b83600160009054906101000a90046001600160a01b031660405162000226906200031a565b62000235949392919062000757565b604051809103906000f08015801562000252573d6000803e3d6000fd5b506001549091506001600160a01b0316620002a35760405162461bcd60e51b815260206004820152601060248201526f4e6f2073746f7265206164647265737360801b6044820152606401620000fe565b600154604051632c4ce8a160e11b81526001600160a01b03838116600483015233602483015290911690635899d14290604401600060405180830381600087803b158015620002f157600080fd5b505af115801562000306573d6000803e3d6000fd5b50929e9d5050505050505050505050505050565b61376480620008f583390190565b600082601f83011262000339578081fd5b8135602067ffffffffffffffff821115620003585762000358620008de565b8160051b62000369828201620008aa565b83815282810190868401838801850189101562000384578687fd5b8693505b85841015620003a857803583526001939093019291840191840162000388565b50979650505050505050565b600082601f830112620003c5578081fd5b813567ffffffffffffffff811115620003e257620003e2620008de565b620003f7601f8201601f1916602001620008aa565b8181528460208386010111156200040c578283fd5b816020850160208301379081016020019190915292915050565b60006080828403121562000438578081fd5b620004426200087e565b9050813567ffffffffffffffff808211156200045d57600080fd5b6200046b85838601620003b4565b835260208401359150808211156200048257600080fd5b6200049085838601620003b4565b60208401526040840135915080821115620004aa57600080fd5b620004b885838601620003b4565b60408401526060840135915080821115620004d257600080fd5b50620004e184828501620003b4565b60608301525092915050565b600060208284031215620004ff578081fd5b81356001600160a01b038116811462000516578182fd5b9392505050565b60008060008060008060008060006101208a8c0312156200053c578485fd5b893567ffffffffffffffff8082111562000554578687fd5b620005628d838e01620003b4565b9a5060208c013591508082111562000578578687fd5b620005868d838e01620003b4565b995060408c01359150808211156200059c578687fd5b620005aa8d838e01620003b4565b985060608c0135915080821115620005c0578687fd5b620005ce8d838e01620003b4565b975060808c0135915080821115620005e4578687fd5b620005f28d838e01620003b4565b965060a08c013591508082111562000608578586fd5b620006168d838e0162000426565b955060c08c0135945060e08c013591508082111562000633578384fd5b50620006428c828d0162000328565b9250506101008a013590509295985092959850929598565b6000815180845260208085019450808401835b838110156200068b578151875295820195908201906001016200066d565b509495945050505050565b60008151808452815b81811015620006bd576020818501810151868301820152016200069f565b81811115620006cf5782602083870101525b50601f01601f19169290920160200192915050565b6000815160808452620006fb608085018262000696565b90506020830151848203602086015262000716828262000696565b9150506040830151848203604086015262000732828262000696565b915050606083015184820360608601526200074e828262000696565b95945050505050565b6080815260006200076c608083018762000696565b828103602084015262000780818762000696565b90508281036040840152610160855182526020860151602083015260408601516040830152606086015160608301526080860151620007ca60808401826001600160a01b03169052565b5060a08601518160a0840152620007e48284018262000696565b91505060c086015182820360c084015262000800828262000696565b91505060e086015182820360e08401526200081c828262000696565b9150506101008087015183830382850152620008398382620006e4565b9250505061012080870151838303828501526200085783826200065a565b610140898101519501949094525050506001600160a01b038416606084015290506200074e565b6040516080810167ffffffffffffffff81118282101715620008a457620008a4620008de565b60405290565b604051601f8201601f1916810167ffffffffffffffff81118282101715620008d657620008d6620008de565b604052919050565b634e487b7160e01b600052604160045260246000fdfe60806040523480156200001157600080fd5b506040516200376438038062003764833981016040819052620000349162000582565b8351849084906200004d9060039060208501906200029f565b508051620000639060049060208401906200029f565b505082516005908155602080850151600655604085015160075560608501516008556080850151600980546001600160a01b0319166001600160a01b0390921691909117905560a08501518051869450620000c392600a9201906200029f565b5060c08201518051620000e19160068401916020909101906200029f565b5060e08201518051620000ff9160078401916020909101906200029f565b5061010082015180518051600884019162000120918391602001906200029f565b5060208281015180516200013b92600185019201906200029f565b5060408201518051620001599160028401916020909101906200029f565b5060608201518051620001779160038401916020909101906200029f565b50505061012082015180516200019891600c8401916020909101906200032e565b506101409190910151600d909101556080820151601780546001600160a01b0319166001600160a01b03909216919091179055835160101180620001dd5750600a8351105b80620001ee575060408260a0015151105b80620001ff575060808260c0015151105b806200021157506101008260e0015151105b8062000224575060058261012001515111155b620002755760405162461bcd60e51b815260206004820152601b60248201527f546f6f206d616e792073796d627320696e20706172616d657465720000000000604482015260640160405180910390fd5b601880546001600160a01b0319166001600160a01b03929092169190911790555062000810915050565b828054620002ad90620007bd565b90600052602060002090601f016020900481019282620002d157600085556200031c565b82601f10620002ec57805160ff19168380011785556200031c565b828001600101855582156200031c579182015b828111156200031c578251825591602001919060010190620002ff565b506200032a9291506200036b565b5090565b8280548282559060005260206000209081019282156200031c57916020028201828111156200031c578251825591602001919060010190620002ff565b5b808211156200032a57600081556001016200036c565b80516001600160a01b03811681146200039a57600080fd5b919050565b600082601f830112620003b0578081fd5b815160206001600160401b03821115620003ce57620003ce620007fa565b8160051b620003df8282016200078a565b838152828101908684018388018501891015620003fa578687fd5b8693505b858410156200041e578051835260019390930192918401918401620003fe565b50979650505050505050565b600082601f8301126200043b578081fd5b81516001600160401b03811115620004575762000457620007fa565b60206200046d601f8301601f191682016200078a565b828152858284870101111562000481578384fd5b835b83811015620004a057858101830151828201840152820162000483565b83811115620004b157848385840101525b5095945050505050565b600060808284031215620004cd578081fd5b620004d762000739565b82519091506001600160401b0380821115620004f257600080fd5b62000500858386016200042a565b835260208401519150808211156200051757600080fd5b62000525858386016200042a565b602084015260408401519150808211156200053f57600080fd5b6200054d858386016200042a565b604084015260608401519150808211156200056757600080fd5b5062000576848285016200042a565b60608301525092915050565b6000806000806080858703121562000598578384fd5b84516001600160401b0380821115620005af578586fd5b620005bd888389016200042a565b95506020870151915080821115620005d3578485fd5b620005e1888389016200042a565b94506040870151915080821115620005f7578384fd5b9086019061016082890312156200060c578384fd5b6200061662000764565b82518152602083015160208201526040830151604082015260608301516060820152620006466080840162000382565b608082015260a0830151828111156200065d578586fd5b6200066b8a8286016200042a565b60a08301525060c08301518281111562000683578586fd5b620006918a8286016200042a565b60c08301525060e083015182811115620006a9578586fd5b620006b78a8286016200042a565b60e0830152506101008084015183811115620006d1578687fd5b620006df8b828701620004bb565b8284015250506101208084015183811115620006f9578687fd5b620007078b8287016200039f565b828401525050610140915081830151828201528094505050506200072e6060860162000382565b905092959194509250565b604051608081016001600160401b03811182821017156200075e576200075e620007fa565b60405290565b60405161016081016001600160401b03811182821017156200075e576200075e620007fa565b604051601f8201601f191681016001600160401b0381118282101715620007b557620007b5620007fa565b604052919050565b600181811c90821680620007d257607f821691505b60208210811415620007f457634e487b7160e01b600052602260045260246000fd5b50919050565b634e487b7160e01b600052604160045260246000fd5b612f4480620008206000396000f3fe608060405234801561001057600080fd5b50600436106101da5760003560e01c80636f87972411610104578063a9059cbb116100a2578063d25b1c6d11610071578063d25b1c6d1461040e578063d3fc986414610421578063dd62ed3e14610434578063f67ad2331461046d57600080fd5b8063a9059cbb146103bc578063abb1dc44146103cf578063ac6137ea146103e6578063b2511314146103f957600080fd5b806395d89b41116100de57806395d89b41146103775780639ee095061461037f578063a457c2d714610387578063a69bac241461039a57600080fd5b80636f8797241461032057806370a08231146103335780637fdcf01f1461035c57600080fd5b806318160ddd1161017c578063313ce5671161014b578063313ce567146102e357806339509351146102f257806358aee270146103055780636a3611b91461030d57600080fd5b806318160ddd14610291578063188caf8a146102995780631bbb6e58146102ac57806323b872dd146102d057600080fd5b8063095ea7b3116101b8578063095ea7b3146102255780630a5763641461024857806313af40351461025d57806314fcf3151461027057600080fd5b806306fdde03146101df578063070df2d2146101fd578063087cbd4014610212575b600080fd5b6101e7610480565b6040516101f49190612c5d565b60405180910390f35b61021061020b366004612966565b610512565b005b6102106102203660046126d3565b6107cd565b610238610233366004612761565b610819565b60405190151581526020016101f4565b61025061082f565b6040516101f49190612ce3565b61021061026b3660046126d3565b610cf2565b61028361027e366004612761565b610d3e565b6040519081526020016101f4565b600254610283565b6102106102a73660046127df565b610d6f565b6102bf6102ba36600461284f565b610eb7565b6040516101f4959493929190612b6a565b6102386102de366004612726565b610f8e565b604051601281526020016101f4565b610238610300366004612761565b611038565b6101e7611074565b61021061031b36600461284f565b611083565b61021061032e3660046128a7565b6110b2565b6102836103413660046126d3565b6001600160a01b031660009081526020819052604090205490565b601554601354604080519283526020830191909152016101f4565b6101e7611295565b6101e76112a4565b610238610395366004612761565b6112ae565b6103ad6103a836600461284f565b611347565b6040516101f493929190612ba8565b6102386103ca366004612761565b611410565b6103d7611480565b6040516101f493929190612c70565b6102106103f43660046127df565b61195c565b610401611c35565b6040516101f49190612c19565b61028361041c366004612761565b611c8f565b61021061042f36600461278a565b611cab565b6102836104423660046126f4565b6001600160a01b03918216600090815260016020908152604080832093909416825291909152205490565b61021061047b366004612867565b611ec7565b60606003805461048f90612e8c565b80601f01602080910402602001604051908101604052809291908181526020018280546104bb90612e8c565b80156105085780601f106104dd57610100808354040283529160200191610508565b820191906000526020600020905b8154815290600101906020018083116104eb57829003601f168201915b5050505050905090565b33600090815260208190526040902054839081106105775760405162461bcd60e51b815260206004820152601a60248201527f4e6f20616d6f756e7420746f6b656e20686f6c6465722068617300000000000060448201526064015b60405180910390fd5b6101008251106105c95760405162461bcd60e51b815260206004820152601f60248201527f466565646261636b206973206c6f6e672c206d757374206265203c2032353600604482015260640161056e565b6040805160a08101825233815242602080830191825292820186815260608301888152608084018781526013805460018101825560009190915285517f66de8ffda797e3de9c05e8fc57b3bf0ec28a930d40b0d285d93c06501cf6a090600590920291820180546001600160a01b0319166001600160a01b0390921691909117815594517f66de8ffda797e3de9c05e8fc57b3bf0ec28a930d40b0d285d93c06501cf6a09182015592517f66de8ffda797e3de9c05e8fc57b3bf0ec28a930d40b0d285d93c06501cf6a09284015590517f66de8ffda797e3de9c05e8fc57b3bf0ec28a930d40b0d285d93c06501cf6a093830155518051939485946106f4937f66de8ffda797e3de9c05e8fc57b3bf0ec28a930d40b0d285d93c06501cf6a09401929091019061242f565b505033600090815260146020526040902060135490915061071790600190612e75565b81546001810183556000928352602083200155610749336001600160a01b031660009081526020819052604090205490565b6107538787612db3565b61075d9190612d79565b60135490915061076d8183612db3565b60135461077c90600190612e36565b6007546107899190612db3565b6107939190612d20565b61079d9190612d79565b600755600680548791906000906107b5908490612d61565b909155506107c590503387611f02565b505050505050565b6017546001600160a01b031633146107f75760405162461bcd60e51b815260040161056e90612cb3565b601880546001600160a01b0319166001600160a01b0392909216919091179055565b6000610826338484612050565b50600192915050565b6108376124b3565b604080516101608101825260058054825260065460208301526007549282019290925260085460608201526009546001600160a01b03166080820152600a805491929160a08401919061088990612e8c565b80601f01602080910402602001604051908101604052809291908181526020018280546108b590612e8c565b80156109025780601f106108d757610100808354040283529160200191610902565b820191906000526020600020905b8154815290600101906020018083116108e557829003601f168201915b5050505050815260200160068201805461091b90612e8c565b80601f016020809104026020016040519081016040528092919081815260200182805461094790612e8c565b80156109945780601f1061096957610100808354040283529160200191610994565b820191906000526020600020905b81548152906001019060200180831161097757829003601f168201915b505050505081526020016007820180546109ad90612e8c565b80601f01602080910402602001604051908101604052809291908181526020018280546109d990612e8c565b8015610a265780601f106109fb57610100808354040283529160200191610a26565b820191906000526020600020905b815481529060010190602001808311610a0957829003601f168201915b5050505050815260200160088201604051806080016040529081600082018054610a4f90612e8c565b80601f0160208091040260200160405190810160405280929190818152602001828054610a7b90612e8c565b8015610ac85780601f10610a9d57610100808354040283529160200191610ac8565b820191906000526020600020905b815481529060010190602001808311610aab57829003601f168201915b50505050508152602001600182018054610ae190612e8c565b80601f0160208091040260200160405190810160405280929190818152602001828054610b0d90612e8c565b8015610b5a5780601f10610b2f57610100808354040283529160200191610b5a565b820191906000526020600020905b815481529060010190602001808311610b3d57829003601f168201915b50505050508152602001600282018054610b7390612e8c565b80601f0160208091040260200160405190810160405280929190818152602001828054610b9f90612e8c565b8015610bec5780601f10610bc157610100808354040283529160200191610bec565b820191906000526020600020905b815481529060010190602001808311610bcf57829003601f168201915b50505050508152602001600382018054610c0590612e8c565b80601f0160208091040260200160405190810160405280929190818152602001828054610c3190612e8c565b8015610c7e5780601f10610c5357610100808354040283529160200191610c7e565b820191906000526020600020905b815481529060010190602001808311610c6157829003601f168201915b5050505050815250508152602001600c8201805480602002602001604051908101604052809291908181526020018280548015610cda57602002820191906000526020600020905b815481526020019060010190808311610cc6575b50505050508152602001600d82015481525050905090565b6017546001600160a01b03163314610d1c5760405162461bcd60e51b815260040161056e90612cb3565b601780546001600160a01b0319166001600160a01b0392909216919091179055565b60166020528160005260406000208181548110610d5a57600080fd5b90600052602060002001600091509150505481565b6017546001600160a01b03163314610d995760405162461bcd60e51b815260040161056e90612cb3565b8060058110610dea5760405162461bcd60e51b815260206004820152601860248201527f4f6e6c792035206b6579732063616e20616464206f6e63650000000000000000604482015260640161056e565b60005b81811015610e4b576011848483818110610e1757634e487b7160e01b600052603260045260246000fd5b8354600181018555600094855260209485902091909402929092013591909201555080610e4381612ec7565b915050610ded565b506018546040516343013c4b60e11b81526001600160a01b0390911690638602789690610e8090869086903090600401612bcf565b600060405180830381600087803b158015610e9a57600080fd5b505af1158015610eae573d6000803e3d6000fd5b50505050505050565b60138181548110610ec757600080fd5b6000918252602090912060059091020180546001820154600283015460038401546004850180546001600160a01b03909516965092949193909290610f0b90612e8c565b80601f0160208091040260200160405190810160405280929190818152602001828054610f3790612e8c565b8015610f845780601f10610f5957610100808354040283529160200191610f84565b820191906000526020600020905b815481529060010190602001808311610f6757829003601f168201915b5050505050905085565b6000610f9b848484612174565b6001600160a01b0384166000908152600160209081526040808320338452909152902054828110156110205760405162461bcd60e51b815260206004820152602860248201527f45524332303a207472616e7366657220616d6f756e74206578636565647320616044820152676c6c6f77616e636560c01b606482015260840161056e565b61102d8533858403612050565b506001949350505050565b3360008181526001602090815260408083206001600160a01b0387168452909152812054909161082691859061106f908690612d61565b612050565b606061107e611295565b905090565b6017546001600160a01b031633146110ad5760405162461bcd60e51b815260040161056e90612cb3565b601255565b6017546001600160a01b031633146110dc5760405162461bcd60e51b815260040161056e90612cb3565b6111076040518060800160405280606081526020016060815260200160608152602001606081525090565b88888080601f016020809104026020016040519081016040528093929190818152602001838380828437600092019190915250505090825250604080516020601f890181900481028201810190925287815290889088908190840183828082843760009201919091525050505060208083019190915260408051601f870183900483028101830190915285815290869086908190840183828082843760009201919091525050505060408083019190915280516020601f8501819004810282018101909252838152908490849081908401838280828437600092019190915250505050606082015260185460405163d107704d60e01b81526001600160a01b039091169063d107704d906112219084903090600401612cf6565b600060405180830381600087803b15801561123b57600080fd5b505af115801561124f573d6000803e3d6000fd5b506112629250600d91508b90508a612542565b5061126f600e8888612542565b5061127c600f8686612542565b5061128960108484612542565b50505050505050505050565b60606004805461048f90612e8c565b606061107e610480565b3360009081526001602090815260408083206001600160a01b0386168452909152812054828110156113305760405162461bcd60e51b815260206004820152602560248201527f45524332303a2064656372656173656420616c6c6f77616e63652062656c6f77604482015264207a65726f60d81b606482015260840161056e565b61133d3385858403612050565b5060019392505050565b6015818154811061135757600080fd5b60009182526020909120600390910201805460018201546002830180546001600160a01b03909316945090929161138d90612e8c565b80601f01602080910402602001604051908101604052809291908181526020018280546113b990612e8c565b80156114065780601f106113db57610100808354040283529160200191611406565b820191906000526020600020905b8154815290600101906020018083116113e957829003601f168201915b5050505050905083565b6018546040516323b3af8960e01b81526001600160a01b03848116600483015230602483015260009216906323b3af8990604401600060405180830381600087803b15801561145e57600080fd5b505af1158015611472573d6000803e3d6000fd5b5050505061133d8383612343565b60608061148b6124b3565b611493610480565b61149b611295565b604080516101608101825260058054825260065460208301526007549282019290925260085460608201526009546001600160a01b03166080820152600a8054839160a08401916114eb90612e8c565b80601f016020809104026020016040519081016040528092919081815260200182805461151790612e8c565b80156115645780601f1061153957610100808354040283529160200191611564565b820191906000526020600020905b81548152906001019060200180831161154757829003601f168201915b5050505050815260200160068201805461157d90612e8c565b80601f01602080910402602001604051908101604052809291908181526020018280546115a990612e8c565b80156115f65780601f106115cb576101008083540402835291602001916115f6565b820191906000526020600020905b8154815290600101906020018083116115d957829003601f168201915b5050505050815260200160078201805461160f90612e8c565b80601f016020809104026020016040519081016040528092919081815260200182805461163b90612e8c565b80156116885780601f1061165d57610100808354040283529160200191611688565b820191906000526020600020905b81548152906001019060200180831161166b57829003601f168201915b50505050508152602001600882016040518060800160405290816000820180546116b190612e8c565b80601f01602080910402602001604051908101604052809291908181526020018280546116dd90612e8c565b801561172a5780601f106116ff5761010080835404028352916020019161172a565b820191906000526020600020905b81548152906001019060200180831161170d57829003601f168201915b5050505050815260200160018201805461174390612e8c565b80601f016020809104026020016040519081016040528092919081815260200182805461176f90612e8c565b80156117bc5780601f10611791576101008083540402835291602001916117bc565b820191906000526020600020905b81548152906001019060200180831161179f57829003601f168201915b505050505081526020016002820180546117d590612e8c565b80601f016020809104026020016040519081016040528092919081815260200182805461180190612e8c565b801561184e5780601f106118235761010080835404028352916020019161184e565b820191906000526020600020905b81548152906001019060200180831161183157829003601f168201915b5050505050815260200160038201805461186790612e8c565b80601f016020809104026020016040519081016040528092919081815260200182805461189390612e8c565b80156118e05780601f106118b5576101008083540402835291602001916118e0565b820191906000526020600020905b8154815290600101906020018083116118c357829003601f168201915b5050505050815250508152602001600c820180548060200260200160405190810160405280929190818152602001828054801561193c57602002820191906000526020600020905b815481526020019060010190808311611928575b50505050508152602001600d820154815250509050925092509250909192565b6017546001600160a01b031633146119865760405162461bcd60e51b815260040161056e90612cb3565b80600581106119d75760405162461bcd60e51b815260206004820152601b60248201527f4f6e6c792035206b6579732063616e2072656d6f7665206f6e63650000000000604482015260640161056e565b6119df6125b6565b6000805b83811015611aad5760005b601154811015611a9a57868683818110611a1857634e487b7160e01b600052603260045260246000fd5b905060200201356005600c018281548110611a4357634e487b7160e01b600052603260045260246000fd5b90600052602060002001541415611a885780848460058110611a7557634e487b7160e01b600052603260045260246000fd5b6020020152611a85836001612d61565b92505b80611a9281612ec7565b9150506119ee565b5080611aa581612ec7565b9150506119e3565b5060005b81811015611b6457601180548290611acb90600190612e75565b611ad59190612e75565b81548110611af357634e487b7160e01b600052603260045260246000fd5b90600052602060002001546005600c01848360058110611b2357634e487b7160e01b600052603260045260246000fd5b602002015181548110611b4657634e487b7160e01b600052603260045260246000fd5b60009182526020909120015580611b5c81612ec7565b915050611ab1565b5060005b81811015611bc757601180548290611b8290600190612e75565b611b8c9190612e75565b81548110611baa57634e487b7160e01b600052603260045260246000fd5b600091825260208220015580611bbf81612ec7565b915050611b68565b50601854604051638bcd065560e01b81526001600160a01b0390911690638bcd065590611bfc90889088903090600401612bcf565b600060405180830381600087803b158015611c1657600080fd5b505af1158015611c2a573d6000803e3d6000fd5b505050505050505050565b60606005600c0180548060200260200160405190810160405280929190818152602001828054801561050857602002820191906000526020600020905b815481526020019060010190808311611c72575050505050905090565b60146020528160005260406000208181548110610d5a57600080fd5b6017546001600160a01b03163314611cd55760405162461bcd60e51b815260040161056e90612cb3565b610100815110611d275760405162461bcd60e51b815260206004820152601c60248201527f494f552074657874206973206c6f6e672c206e656564203c2032353600000000604482015260640161056e565b604080516060810182526001600160a01b0385811682524260208084019182529383018581526015805460018101825560009190915284517f55f448fdea98c4d29eb340757ef0a66cd03dbb9538908a6a81d96026b71ec475600390920291820180546001600160a01b0319169190951617845591517f55f448fdea98c4d29eb340757ef0a66cd03dbb9538908a6a81d96026b71ec47683015551805193948594611df8937f55f448fdea98c4d29eb340757ef0a66cd03dbb9538908a6a81d96026b71ec47701929091019061242f565b5050506001600160a01b0384166000908152601660205260409020601554611e2290600190612e75565b81546001810183556000928352602090922090910155611e428484612350565b8260056000016000828254611e579190612d61565b90915550506018546040516323b3af8960e01b81526001600160a01b038681166004830152306024830152909116906323b3af8990604401600060405180830381600087803b158015611ea957600080fd5b505af1158015611ebd573d6000803e3d6000fd5b5050505050505050565b6017546001600160a01b03163314611ef15760405162461bcd60e51b815260040161056e90612cb3565b611efd600c8383612542565b505050565b6001600160a01b038216611f625760405162461bcd60e51b815260206004820152602160248201527f45524332303a206275726e2066726f6d20746865207a65726f206164647265736044820152607360f81b606482015260840161056e565b6001600160a01b03821660009081526020819052604090205481811015611fd65760405162461bcd60e51b815260206004820152602260248201527f45524332303a206275726e20616d6f756e7420657863656564732062616c616e604482015261636560f01b606482015260840161056e565b6001600160a01b0383166000908152602081905260408120838303905560028054849290612005908490612e75565b90915550506040518281526000906001600160a01b038516907fddf252ad1be2c89b69c2b068fc378daa952ba7f163c4a11628f55a4df523b3ef9060200160405180910390a3505050565b6001600160a01b0383166120b25760405162461bcd60e51b8152602060048201526024808201527f45524332303a20617070726f76652066726f6d20746865207a65726f206164646044820152637265737360e01b606482015260840161056e565b6001600160a01b0382166121135760405162461bcd60e51b815260206004820152602260248201527f45524332303a20617070726f766520746f20746865207a65726f206164647265604482015261737360f01b606482015260840161056e565b6001600160a01b0383811660008181526001602090815260408083209487168084529482529182902085905590518481527f8c5be1e5ebec7d5bd14f71427d1e84f3dd0314c0f7b2291e5b200ac8c7c3b925910160405180910390a3505050565b6001600160a01b0383166121d85760405162461bcd60e51b815260206004820152602560248201527f45524332303a207472616e736665722066726f6d20746865207a65726f206164604482015264647265737360d81b606482015260840161056e565b6001600160a01b03821661223a5760405162461bcd60e51b815260206004820152602360248201527f45524332303a207472616e7366657220746f20746865207a65726f206164647260448201526265737360e81b606482015260840161056e565b6001600160a01b038316600090815260208190526040902054818110156122b25760405162461bcd60e51b815260206004820152602660248201527f45524332303a207472616e7366657220616d6f756e7420657863656564732062604482015265616c616e636560d01b606482015260840161056e565b6001600160a01b038085166000908152602081905260408082208585039055918516815290812080548492906122e9908490612d61565b92505081905550826001600160a01b0316846001600160a01b03167fddf252ad1be2c89b69c2b068fc378daa952ba7f163c4a11628f55a4df523b3ef8460405161233591815260200190565b60405180910390a350505050565b6000610826338484612174565b6001600160a01b0382166123a65760405162461bcd60e51b815260206004820152601f60248201527f45524332303a206d696e7420746f20746865207a65726f206164647265737300604482015260640161056e565b80600260008282546123b89190612d61565b90915550506001600160a01b038216600090815260208190526040812080548392906123e5908490612d61565b90915550506040518181526001600160a01b038316906000907fddf252ad1be2c89b69c2b068fc378daa952ba7f163c4a11628f55a4df523b3ef9060200160405180910390a35050565b82805461243b90612e8c565b90600052602060002090601f01602090048101928261245d57600085556124a3565b82601f1061247657805160ff19168380011785556124a3565b828001600101855582156124a3579182015b828111156124a3578251825591602001919060010190612488565b506124af9291506125d4565b5090565b6040518061016001604052806000815260200160008152602001600081526020016000801916815260200160006001600160a01b0316815260200160608152602001606081526020016060815260200161252e6040518060800160405280606081526020016060815260200160608152602001606081525090565b815260606020820152600060409091015290565b82805461254e90612e8c565b90600052602060002090601f01602090048101928261257057600085556124a3565b82601f106125895782800160ff198235161785556124a3565b828001600101855582156124a3579182015b828111156124a357823582559160200191906001019061259b565b6040518060a001604052806005906020820280368337509192915050565b5b808211156124af57600081556001016125d5565b80356001600160a01b038116811461260057600080fd5b919050565b60008083601f840112612616578182fd5b50813567ffffffffffffffff81111561262d578182fd5b60208301915083602082850101111561264557600080fd5b9250929050565b600082601f83011261265c578081fd5b813567ffffffffffffffff8082111561267757612677612ef8565b604051601f8301601f19908116603f0116810190828211818310171561269f5761269f612ef8565b816040528381528660208588010111156126b7578485fd5b8360208701602083013792830160200193909352509392505050565b6000602082840312156126e4578081fd5b6126ed826125e9565b9392505050565b60008060408385031215612706578081fd5b61270f836125e9565b915061271d602084016125e9565b90509250929050565b60008060006060848603121561273a578081fd5b612743846125e9565b9250612751602085016125e9565b9150604084013590509250925092565b60008060408385031215612773578182fd5b61277c836125e9565b946020939093013593505050565b60008060006060848603121561279e578283fd5b6127a7846125e9565b925060208401359150604084013567ffffffffffffffff8111156127c9578182fd5b6127d58682870161264c565b9150509250925092565b600080602083850312156127f1578182fd5b823567ffffffffffffffff80821115612808578384fd5b818501915085601f83011261281b578384fd5b813581811115612829578485fd5b8660208260051b850101111561283d578485fd5b60209290920196919550909350505050565b600060208284031215612860578081fd5b5035919050565b60008060208385031215612879578182fd5b823567ffffffffffffffff81111561288f578283fd5b61289b85828601612605565b90969095509350505050565b6000806000806000806000806080898b0312156128c2578384fd5b883567ffffffffffffffff808211156128d9578586fd5b6128e58c838d01612605565b909a50985060208b01359150808211156128fd578586fd5b6129098c838d01612605565b909850965060408b0135915080821115612921578586fd5b61292d8c838d01612605565b909650945060608b0135915080821115612945578384fd5b506129528b828c01612605565b999c989b5096995094979396929594505050565b60008060006060848603121561297a578283fd5b8335925060208401359150604084013567ffffffffffffffff8111156127c9578182fd5b6000815180845260208085019450808401835b838110156129cd578151875295820195908201906001016129b1565b509495945050505050565b60008151808452815b818110156129fd576020818501810151868301820152016129e1565b81811115612a0e5782602083870101525b50601f01601f19169290920160200192915050565b6000610160825184526020830151602085015260408301516040850152606083015160608501526080830151612a6460808601826001600160a01b03169052565b5060a08301518160a0860152612a7c828601826129d8565b91505060c083015184820360c0860152612a9682826129d8565b91505060e083015184820360e0860152612ab082826129d8565b9150506101008084015185830382870152612acb8382612aff565b925050506101208084015185830382870152612ae7838261299e565b61014095860151969095019590955250919392505050565b6000815160808452612b1460808501826129d8565b905060208301518482036020860152612b2d82826129d8565b91505060408301518482036040860152612b4782826129d8565b91505060608301518482036060860152612b6182826129d8565b95945050505050565b60018060a01b038616815284602082015283604082015282606082015260a060808201526000612b9d60a08301846129d8565b979650505050505050565b60018060a01b0384168152826020820152606060408201526000612b6160608301846129d8565b6040808252810183905260006001600160fb1b03841115612bee578081fd5b8360051b8086606085013782016060019081526001600160a01b039290921660209091015292915050565b6020808252825182820181905260009190848201906040850190845b81811015612c5157835183529284019291840191600101612c35565b50909695505050505050565b6020815260006126ed60208301846129d8565b606081526000612c8360608301866129d8565b8281036020840152612c9581866129d8565b90508281036040840152612ca98185612a23565b9695505050505050565b6020808252601690820152754f6e6c79206f776e65722063616e20646f207468697360501b604082015260600190565b6020815260006126ed6020830184612a23565b604081526000612d096040830185612aff565b905060018060a01b03831660208301529392505050565b600080821280156001600160ff1b0384900385131615612d4257612d42612ee2565b600160ff1b8390038412811615612d5b57612d5b612ee2565b50500190565b60008219821115612d7457612d74612ee2565b500190565b600082612d9457634e487b7160e01b81526012600452602481fd5b600160ff1b821460001984141615612dae57612dae612ee2565b500590565b60006001600160ff1b0381841382841380821686840486111615612dd957612dd9612ee2565b600160ff1b84871282811687830589121615612df757612df7612ee2565b858712925087820587128484161615612e1257612e12612ee2565b87850587128184161615612e2857612e28612ee2565b505050929093029392505050565b60008083128015600160ff1b850184121615612e5457612e54612ee2565b6001600160ff1b0384018313811615612e6f57612e6f612ee2565b50500390565b600082821015612e8757612e87612ee2565b500390565b600181811c90821680612ea057607f821691505b60208210811415612ec157634e487b7160e01b600052602260045260246000fd5b50919050565b6000600019821415612edb57612edb612ee2565b5060010190565b634e487b7160e01b600052601160045260246000fd5b634e487b7160e01b600052604160045260246000fdfea264697066735822122047ce5e447147e1d3443452a29f799c91cd7c4f411d9ea725ac025db38b74995b64736f6c63430008040033a26469706673582212208fc1450271ddcde05856a7f4ee648d6bcda4adca75001e5470ac4c050abf922a64736f6c63430008040033",
  "immutableReferences": {},
  "source": "pragma solidity >=  0.8.0;\npragma experimental ABIEncoderV2;\nimport \"./IOUtoken.sol\";\nimport \"./interfaces/iStoreIOUs.sol\";\n\ncontract MakeIOU {\n    \n    address private owner;\n    iStoreIOUs store;\n\n    function setOwner (address _newOwner) public onlyOwner {\n        owner = _newOwner;\n    }\n\n    function setStore (address _new) public onlyOwner {\n        store = iStoreIOUs(_new);\n        \n    }   \n\n    constructor ()  {\n        owner = msg.sender;\n    }\n\n    modifier onlyOwner() {\n        require (owner == msg.sender, \"Only owner can do this\");\n        _;\n    }\n\n    function makeIOU(string memory _name, \n                 string memory _symbol, \n                 string memory _myName, //name of emitter\n                 string memory _socialProfile, //profile  of emitter in social nets\n                 string memory _description, //description of bond IOU to  work\n                 iIOUtoken.geo  memory _location, //where is                  \n                 bytes32  _units, //units of deal\n                 bytes32[] memory _keywords,\n                 bytes32 _phone\n                        ) public returns (address) {\n        \n\n    iIOUtoken.DescriptionIOU memory thisIOU = iIOUtoken.DescriptionIOU (0,0,0,\n            _units,\n            msg.sender, \n            _myName,\n            _socialProfile,\n            _description,\n            _location,\n            _keywords,\n           _phone\n        );\n\n        IOUtoken newIOU = new IOUtoken(_name, \n                                    _symbol,   \n                                    thisIOU,                                                    \n                                    address(store)\n            );\n        //store.addIOU2(address(newIOU), _socialProfile, msg.sender, _keywords);\n        require (address(store) != address(0x0), \"No store address\");\n        store.addIOU1(address(newIOU), msg.sender);//, _socialProfile, msg.sender, _keywords);\n     //   newIOU.setStore(address(store));\n\n        return address (newIOU);\n        }\n/* \n    function addHolder(address _holder, address _IOUtoken) public  {\n        store.addHolder(_holder, _IOUtoken);\n      }\n\n\n   function addKeys (bytes32[] calldata _keys, address _IOUtok)  public  {\n        IOUtoken (_IOUtok).addKeys(_keys, msg.sender);\n        \n        } \n\n   function delKeys (bytes32[] calldata _keys, address _IOUtok)  public  {\n        IOUtoken (_IOUtok).delKeys(_keys, msg.sender);\n        \n        }\n\n    function editGeo (iIOUtoken.geo calldata _location, address _IOUtok)  public  {\n        IOUtoken (_IOUtok).editGeo(_location, msg.sender);\n        \n    }\n\n     function editDescr (string calldata _descr,  address _IOUtok)  public onlyOwner {\n        IOUtoken (_IOUtok).editDescr( _descr);\n    }\n\n    function editPhone (bytes32 _phone,  address _IOUtok)  public onlyOwner {\n        IOUtoken (_IOUtok).editPhone (_phone);\n    } */\n}",
  "sourcePath": "/mnt/512-2/dfd/iou2/contracts/MakeIOU.sol",
  "compiler": {
    "name": "solc",
    "version": "0.8.4+commit.c7e474f2.Emscripten.clang"
  },
  "schemaVersion": "3.4.4",
  "updatedAt": "2022-01-19T09:34:43.654Z",
  "networkType": "ethereum",
  "devdoc": {
    "kind": "dev",
    "methods": {},
    "version": 1
  },
  "userdoc": {
    "kind": "user",
    "methods": {},
    "version": 1
  }
}