{
  "contractName": "MakeIOU",
  "abi": [
    {
      "inputs": [],
      "stateMutability": "nonpayable",
      "type": "constructor"
    },
    {
      "inputs": [
        {
          "internalType": "address",
          "name": "_newOwner",
          "type": "address"
        }
      ],
      "name": "setOwner",
      "outputs": [],
      "stateMutability": "nonpayable",
      "type": "function"
    },
    {
      "inputs": [
        {
          "internalType": "address",
          "name": "_new",
          "type": "address"
        }
      ],
      "name": "setStore",
      "outputs": [],
      "stateMutability": "nonpayable",
      "type": "function"
    },
    {
      "inputs": [
        {
          "internalType": "address",
          "name": "_new",
          "type": "address"
        }
      ],
      "name": "setinstIOU",
      "outputs": [],
      "stateMutability": "nonpayable",
      "type": "function"
    },
    {
      "inputs": [
        {
          "internalType": "string",
          "name": "_name",
          "type": "string"
        },
        {
          "internalType": "string",
          "name": "_symbol",
          "type": "string"
        },
        {
          "internalType": "string",
          "name": "_myName",
          "type": "string"
        },
        {
          "internalType": "string",
          "name": "_socialProfile",
          "type": "string"
        },
        {
          "internalType": "string",
          "name": "_description",
          "type": "string"
        },
        {
          "components": [
            {
              "internalType": "string",
              "name": "country",
              "type": "string"
            },
            {
              "internalType": "string",
              "name": "state",
              "type": "string"
            },
            {
              "internalType": "string",
              "name": "city",
              "type": "string"
            },
            {
              "internalType": "string",
              "name": "street",
              "type": "string"
            }
          ],
          "internalType": "struct iIOUtoken.geo",
          "name": "_location",
          "type": "tuple"
        },
        {
          "internalType": "bytes32",
          "name": "_units",
          "type": "bytes32"
        },
        {
          "internalType": "bytes32[]",
          "name": "_keywords",
          "type": "bytes32[]"
        },
        {
          "internalType": "bytes32",
          "name": "_phone",
          "type": "bytes32"
        }
      ],
      "name": "makeIOU",
      "outputs": [
        {
          "internalType": "address",
          "name": "",
          "type": "address"
        }
      ],
      "stateMutability": "nonpayable",
      "type": "function"
    }
  ],
  "bytecode": "0x608060405234801561001057600080fd5b50600080546001600160a01b031916331790556109da806100326000396000f3fe608060405234801561001057600080fd5b506004361061004c5760003560e01c8063087cbd401461005157806313af4035146100665780632b204b5b14610079578063a3af74871461008c575b600080fd5b61006461005f3660046103f2565b6100bb565b005b6100646100743660046103f2565b610110565b6100646100873660046103f2565b61015c565b61009f61009a36600461063b565b6101a8565b6040516001600160a01b03909116815260200160405180910390f35b6000546001600160a01b031633146100ee5760405162461bcd60e51b81526004016100e59061076a565b60405180910390fd5b600280546001600160a01b0319166001600160a01b0392909216919091179055565b6000546001600160a01b0316331461013a5760405162461bcd60e51b81526004016100e59061076a565b600080546001600160a01b0319166001600160a01b0392909216919091179055565b6000546001600160a01b031633146101865760405162461bcd60e51b81526004016100e59061076a565b600180546001600160a01b0319166001600160a01b0392909216919091179055565b60408051610160810182526000808252602082018190529181018290526060810185905233608082015260a0810189905260c0810188905260e081018790526101008101869052610120810184905261014081018390526001548290610216906001600160a01b0316610355565b9050806001600160a01b031663a1a613bb8d8d85600260009054906101000a90046001600160a01b03166040518563ffffffff1660e01b815260040161025f949392919061088d565b600060405180830381600087803b15801561027957600080fd5b505af115801561028d573d6000803e3d6000fd5b50506002546001600160a01b0316151591506102e090505760405162461bcd60e51b815260206004820152601060248201526f4e6f2073746f7265206164647265737360801b60448201526064016100e5565b600254604051632c4ce8a160e11b81526001600160a01b03838116600483015233602483015290911690635899d14290604401600060405180830381600087803b15801561032d57600080fd5b505af1158015610341573d6000803e3d6000fd5b50929e9d5050505050505050505050505050565b6000604051733d602d80600a3d3981f3363d3d373d3d3d363d7360601b81528260601b60148201526e5af43d82803e903d91602b57fd5bf360881b60288201526037816000f09150506001600160a01b0381166103ed5760405162461bcd60e51b8152602060048201526016602482015275115490cc4c4d8dce8818dc99585d194819985a5b195960521b60448201526064016100e5565b919050565b60006020828403121561040457600080fd5b81356001600160a01b038116811461041b57600080fd5b9392505050565b634e487b7160e01b600052604160045260246000fd5b6040516080810167ffffffffffffffff8111828210171561045b5761045b610422565b60405290565b604051601f8201601f1916810167ffffffffffffffff8111828210171561048a5761048a610422565b604052919050565b600082601f8301126104a357600080fd5b813567ffffffffffffffff8111156104bd576104bd610422565b6104d0601f8201601f1916602001610461565b8181528460208386010111156104e557600080fd5b816020850160208301376000918101602001919091529392505050565b60006080828403121561051457600080fd5b61051c610438565b9050813567ffffffffffffffff8082111561053657600080fd5b61054285838601610492565b8352602084013591508082111561055857600080fd5b61056485838601610492565b6020840152604084013591508082111561057d57600080fd5b61058985838601610492565b604084015260608401359150808211156105a257600080fd5b506105af84828501610492565b60608301525092915050565b600082601f8301126105cc57600080fd5b8135602067ffffffffffffffff8211156105e8576105e8610422565b8160051b6105f7828201610461565b928352848101820192828101908785111561061157600080fd5b83870192505b8483101561063057823582529183019190830190610617565b979650505050505050565b60008060008060008060008060006101208a8c03121561065a57600080fd5b893567ffffffffffffffff8082111561067257600080fd5b61067e8d838e01610492565b9a5060208c013591508082111561069457600080fd5b6106a08d838e01610492565b995060408c01359150808211156106b657600080fd5b6106c28d838e01610492565b985060608c01359150808211156106d857600080fd5b6106e48d838e01610492565b975060808c01359150808211156106fa57600080fd5b6107068d838e01610492565b965060a08c013591508082111561071c57600080fd5b6107288d838e01610502565b955060c08c0135945060e08c013591508082111561074557600080fd5b506107528c828d016105bb565b9250506101008a013590509295985092959850929598565b6020808252601690820152754f6e6c79206f776e65722063616e20646f207468697360501b604082015260600190565b6000815180845260005b818110156107c0576020818501810151868301820152016107a4565b818111156107d2576000602083870101525b50601f01601f19169290920160200192915050565b60008151608084526107fc608085018261079a565b905060208301518482036020860152610815828261079a565b9150506040830151848203604086015261082f828261079a565b91505060608301518482036060860152610849828261079a565b95945050505050565b600081518084526020808501945080840160005b8381101561088257815187529582019590820190600101610866565b509495945050505050565b6080815260006108a0608083018761079a565b82810360208401526108b2818761079a565b905082810360408401526101608551825260208601516020830152604086015160408301526060860151606083015260808601516108fb60808401826001600160a01b03169052565b5060a08601518160a08401526109138284018261079a565b91505060c086015182820360c084015261092d828261079a565b91505060e086015182820360e0840152610947828261079a565b915050610100808701518383038285015261096283826107e7565b92505050610120808701518383038285015261097e8382610852565b610140898101519501949094525050506001600160a01b0384166060840152905061084956fea264697066735822122051c4baa9fd640b5da4d6c5c36465bcc96326defba655c6fe2918215134d9f7f364736f6c634300080a0033",
  "immutableReferences": {},
  "source": "pragma solidity >=  0.8.0;\npragma experimental ABIEncoderV2;\nimport \"@openzeppelin/contracts/proxy/Clones.sol\";\nimport \"./interfaces/iIOUtoken.sol\";\nimport \"./interfaces/iStoreIOUs.sol\";\n\n\ncontract MakeIOU {\n    \n    address private owner;\n    address private instIOU;\n    iStoreIOUs store;\n\n    function setOwner (address _newOwner) public onlyOwner {\n        owner = _newOwner;\n    }\n\n    function setStore (address _new) public onlyOwner {\n        store = iStoreIOUs(_new);\n        \n    }   \n\n    function setinstIOU (address _new) public onlyOwner {\n        instIOU = _new;\n        \n    }   \n\n    constructor ()  {\n        owner = msg.sender;\n    }\n\n    modifier onlyOwner() {\n        require (owner == msg.sender, \"Only owner can do this\");\n        _;\n    }\n\n    function makeIOU(string memory _name, \n                 string memory _symbol, \n                 string memory _myName, //name of emitter\n                 string memory _socialProfile, //profile  of emitter in social nets\n                 string memory _description, //description of bond IOU to  work\n                 iIOUtoken.geo  memory _location, //where is                  \n                 bytes32  _units, //units of deal\n                 bytes32[] memory _keywords,\n                 bytes32 _phone\n                        ) public returns (address) {\n        \n\n    iIOUtoken.DescriptionIOU memory thisIOU = iIOUtoken.DescriptionIOU (0,0,0,\n            _units,\n            msg.sender, \n            _myName,\n            _socialProfile,\n            _description,\n            _location,\n            _keywords,\n           _phone\n        );\n\n    iIOUtoken newIOU =  iIOUtoken(Clones.clone(instIOU));\n    newIOU.setIOU (_name, _symbol, thisIOU,address(store));\n    require (address(store) != address(0x0), \"No store address\");\n    store.addIOU1(address(newIOU), msg.sender);//, _socialProfile, msg.sender, _keywords);\n     //   newIOU.setStore(address(store));\n\n        return address (newIOU);\n        }\n/* \n    function addHolder(address _holder, address _IOUtoken) public  {\n        store.addHolder(_holder, _IOUtoken);\n      }\n\n\n   function addKeys (bytes32[] calldata _keys, address _IOUtok)  public  {\n        IOUtoken (_IOUtok).addKeys(_keys, msg.sender);\n        \n        } \n\n   function delKeys (bytes32[] calldata _keys, address _IOUtok)  public  {\n        IOUtoken (_IOUtok).delKeys(_keys, msg.sender);\n        \n        }\n\n    function editGeo (iIOUtoken.geo calldata _location, address _IOUtok)  public  {\n        IOUtoken (_IOUtok).editGeo(_location, msg.sender);\n        \n    }\n\n     function editDescr (string calldata _descr,  address _IOUtok)  public onlyOwner {\n        IOUtoken (_IOUtok).editDescr( _descr);\n    }\n\n    function editPhone (bytes32 _phone,  address _IOUtok)  public onlyOwner {\n        IOUtoken (_IOUtok).editPhone (_phone);\n    } */\n}",
  "sourcePath": "/mnt/512-2/dfd/iou2/contracts/MakeIOU.sol",
  "compiler": {
    "name": "solc",
    "version": "0.8.10+commit.fc410830.Emscripten.clang"
  },
  "schemaVersion": "3.4.4",
  "updatedAt": "2022-01-31T12:49:43.455Z",
  "networkType": "ethereum",
  "devdoc": {
    "kind": "dev",
    "methods": {},
    "version": 1
  },
  "userdoc": {
    "kind": "user",
    "methods": {},
    "version": 1
  }
}