{
  "contractName": "newStoreIOUs",
  "abi": [
    {
      "inputs": [
        {
          "internalType": "uint256",
          "name": "",
          "type": "uint256"
        }
      ],
      "name": "allIOU",
      "outputs": [
        {
          "internalType": "address",
          "name": "",
          "type": "address"
        }
      ],
      "stateMutability": "view",
      "type": "function"
    },
    {
      "inputs": [
        {
          "internalType": "uint256",
          "name": "",
          "type": "uint256"
        }
      ],
      "name": "allIssuers",
      "outputs": [
        {
          "internalType": "address",
          "name": "",
          "type": "address"
        }
      ],
      "stateMutability": "view",
      "type": "function"
    },
    {
      "inputs": [
        {
          "internalType": "uint256",
          "name": "",
          "type": "uint256"
        }
      ],
      "name": "allKeywords",
      "outputs": [
        {
          "internalType": "bytes32",
          "name": "",
          "type": "bytes32"
        }
      ],
      "stateMutability": "view",
      "type": "function"
    },
    {
      "inputs": [
        {
          "internalType": "address",
          "name": "",
          "type": "address"
        }
      ],
      "name": "isIOU",
      "outputs": [
        {
          "internalType": "uint256",
          "name": "",
          "type": "uint256"
        }
      ],
      "stateMutability": "view",
      "type": "function"
    },
    {
      "inputs": [
        {
          "internalType": "address",
          "name": "",
          "type": "address"
        },
        {
          "internalType": "uint256",
          "name": "",
          "type": "uint256"
        }
      ],
      "name": "listHoldersIOUs",
      "outputs": [
        {
          "internalType": "address",
          "name": "",
          "type": "address"
        }
      ],
      "stateMutability": "view",
      "type": "function"
    },
    {
      "inputs": [
        {
          "internalType": "address",
          "name": "",
          "type": "address"
        },
        {
          "internalType": "uint256",
          "name": "",
          "type": "uint256"
        }
      ],
      "name": "listIOUs",
      "outputs": [
        {
          "internalType": "address",
          "name": "",
          "type": "address"
        }
      ],
      "stateMutability": "view",
      "type": "function"
    },
    {
      "inputs": [],
      "name": "initialize",
      "outputs": [],
      "stateMutability": "nonpayable",
      "type": "function"
    },
    {
      "inputs": [
        {
          "internalType": "address",
          "name": "_newOwner",
          "type": "address"
        }
      ],
      "name": "setOwner",
      "outputs": [],
      "stateMutability": "nonpayable",
      "type": "function"
    },
    {
      "inputs": [
        {
          "internalType": "address",
          "name": "_newFact",
          "type": "address"
        }
      ],
      "name": "setFactory",
      "outputs": [],
      "stateMutability": "nonpayable",
      "type": "function"
    },
    {
      "inputs": [
        {
          "internalType": "address",
          "name": "_addrIOU",
          "type": "address"
        },
        {
          "internalType": "address",
          "name": "_emitent",
          "type": "address"
        },
        {
          "components": [
            {
              "internalType": "uint256",
              "name": "totalMinted",
              "type": "uint256"
            },
            {
              "internalType": "uint256",
              "name": "totalBurned",
              "type": "uint256"
            },
            {
              "internalType": "int256",
              "name": "avRate",
              "type": "int256"
            },
            {
              "internalType": "bytes32",
              "name": "units",
              "type": "bytes32"
            },
            {
              "internalType": "address",
              "name": "issuer",
              "type": "address"
            },
            {
              "internalType": "string",
              "name": "myName",
              "type": "string"
            },
            {
              "internalType": "string",
              "name": "socialProfile",
              "type": "string"
            },
            {
              "internalType": "string",
              "name": "description",
              "type": "string"
            },
            {
              "components": [
                {
                  "internalType": "string",
                  "name": "country",
                  "type": "string"
                },
                {
                  "internalType": "string",
                  "name": "state",
                  "type": "string"
                },
                {
                  "internalType": "string",
                  "name": "city",
                  "type": "string"
                },
                {
                  "internalType": "string",
                  "name": "street",
                  "type": "string"
                }
              ],
              "internalType": "struct iIOUtoken.geo",
              "name": "location",
              "type": "tuple"
            },
            {
              "internalType": "bytes32[]",
              "name": "keywords",
              "type": "bytes32[]"
            },
            {
              "internalType": "bytes32",
              "name": "phone",
              "type": "bytes32"
            }
          ],
          "internalType": "struct iIOUtoken.DescriptionIOU",
          "name": "_thisIOU",
          "type": "tuple"
        }
      ],
      "name": "addIOU1",
      "outputs": [],
      "stateMutability": "nonpayable",
      "type": "function"
    },
    {
      "inputs": [
        {
          "internalType": "bytes32[]",
          "name": "_keywords",
          "type": "bytes32[]"
        },
        {
          "internalType": "address",
          "name": "_addrIOU",
          "type": "address"
        }
      ],
      "name": "addKeys",
      "outputs": [],
      "stateMutability": "nonpayable",
      "type": "function"
    },
    {
      "inputs": [
        {
          "internalType": "bytes32[]",
          "name": "_keywords",
          "type": "bytes32[]"
        },
        {
          "internalType": "address",
          "name": "_addrIOU",
          "type": "address"
        }
      ],
      "name": "delKeys",
      "outputs": [],
      "stateMutability": "nonpayable",
      "type": "function"
    },
    {
      "inputs": [
        {
          "components": [
            {
              "internalType": "string",
              "name": "country",
              "type": "string"
            },
            {
              "internalType": "string",
              "name": "state",
              "type": "string"
            },
            {
              "internalType": "string",
              "name": "city",
              "type": "string"
            },
            {
              "internalType": "string",
              "name": "street",
              "type": "string"
            }
          ],
          "internalType": "struct iIOUtoken.geo",
          "name": "_newloc",
          "type": "tuple"
        },
        {
          "internalType": "address",
          "name": "_addrIOU",
          "type": "address"
        }
      ],
      "name": "changeIOUGeoAllkeys",
      "outputs": [],
      "stateMutability": "nonpayable",
      "type": "function"
    },
    {
      "inputs": [
        {
          "internalType": "address",
          "name": "_holder",
          "type": "address"
        },
        {
          "internalType": "address",
          "name": "_IOUtoken",
          "type": "address"
        }
      ],
      "name": "addHolder",
      "outputs": [],
      "stateMutability": "nonpayable",
      "type": "function"
    },
    {
      "inputs": [
        {
          "internalType": "address",
          "name": "_owner",
          "type": "address"
        }
      ],
      "name": "getIOUList",
      "outputs": [
        {
          "internalType": "address[]",
          "name": "",
          "type": "address[]"
        }
      ],
      "stateMutability": "view",
      "type": "function"
    },
    {
      "inputs": [
        {
          "internalType": "string",
          "name": "_profile",
          "type": "string"
        }
      ],
      "name": "getIOUListSoc",
      "outputs": [
        {
          "internalType": "address[]",
          "name": "",
          "type": "address[]"
        }
      ],
      "stateMutability": "view",
      "type": "function"
    },
    {
      "inputs": [
        {
          "internalType": "bytes32",
          "name": "_key",
          "type": "bytes32"
        }
      ],
      "name": "getIOUListKey",
      "outputs": [
        {
          "internalType": "address[]",
          "name": "",
          "type": "address[]"
        }
      ],
      "stateMutability": "view",
      "type": "function"
    },
    {
      "inputs": [
        {
          "internalType": "address",
          "name": "_holder",
          "type": "address"
        }
      ],
      "name": "getIOUListHold",
      "outputs": [
        {
          "internalType": "address[]",
          "name": "",
          "type": "address[]"
        }
      ],
      "stateMutability": "view",
      "type": "function"
    },
    {
      "inputs": [],
      "name": "getIOUstotal",
      "outputs": [
        {
          "internalType": "uint256",
          "name": "",
          "type": "uint256"
        }
      ],
      "stateMutability": "view",
      "type": "function"
    },
    {
      "inputs": [],
      "name": "getKeystotal",
      "outputs": [
        {
          "internalType": "bytes32[]",
          "name": "",
          "type": "bytes32[]"
        }
      ],
      "stateMutability": "view",
      "type": "function"
    },
    {
      "inputs": [],
      "name": "getIssuerstotal",
      "outputs": [
        {
          "internalType": "uint256",
          "name": "",
          "type": "uint256"
        }
      ],
      "stateMutability": "view",
      "type": "function"
    },
    {
      "inputs": [
        {
          "internalType": "bytes32",
          "name": "_key",
          "type": "bytes32"
        },
        {
          "internalType": "string",
          "name": "_country",
          "type": "string"
        },
        {
          "internalType": "string",
          "name": "_state",
          "type": "string"
        },
        {
          "internalType": "string",
          "name": "_city",
          "type": "string"
        }
      ],
      "name": "getIOUsbyCity",
      "outputs": [
        {
          "internalType": "address[]",
          "name": "",
          "type": "address[]"
        }
      ],
      "stateMutability": "view",
      "type": "function"
    },
    {
      "inputs": [
        {
          "internalType": "bytes32",
          "name": "_key",
          "type": "bytes32"
        },
        {
          "internalType": "string",
          "name": "_country",
          "type": "string"
        },
        {
          "internalType": "string",
          "name": "_state",
          "type": "string"
        },
        {
          "internalType": "string",
          "name": "_city",
          "type": "string"
        },
        {
          "internalType": "string",
          "name": "_street",
          "type": "string"
        }
      ],
      "name": "getIOUsbyStreet",
      "outputs": [
        {
          "internalType": "address[]",
          "name": "",
          "type": "address[]"
        }
      ],
      "stateMutability": "view",
      "type": "function"
    }
  ],
  "bytecode": "0x608060405234801561001057600080fd5b506123c5806100206000396000f3fe608060405234801561001057600080fd5b506004361061014c5760003560e01c80638129fc1c116100c3578063d107704d1161007c578063d107704d146102d2578063d83c8bd3146102e5578063e03e56a9146102f8578063e83d90f41461030b578063f22c3bc31461031e578063f466013d1461032657600080fd5b80638129fc1c1461024f57806386027896146102665780638bcd065514610279578063b21b44511461028c578063b442fc61146102ac578063c5ab1529146102bf57600080fd5b80634f2c272a116101155780634f2c272a146101db57806352fae04e146101ee5780635596b2ab146102015780635bb47808146102145780636e01acb81461022757806376f7f6de1461023a57600080fd5b8062a50d811461015157806313af40351461018157806323b3af891461019657806330b02b21146101a957806331df3737146101bb575b600080fd5b61016461015f3660046119b4565b610339565b6040516001600160a01b0390911681526020015b60405180910390f35b61019461018f3660046119e0565b610371565b005b6101946101a4366004611a04565b6103eb565b6009545b604051908152602001610178565b6101ce6101c93660046119e0565b6104a6565b6040516101789190611a3d565b6101ce6101e9366004611a8a565b61051a565b6101ad6101fc366004611a8a565b610584565b6101ce61020f366004611bb1565b6105a5565b6101946102223660046119e0565b610688565b6101ce6102353660046119e0565b6106fd565b610242610771565b6040516101789190611c67565b610194600d80546001600160a01b03191633179055565b610194610274366004611c9f565b6107c9565b610194610287366004611c9f565b6108a2565b6101ad61029a3660046119e0565b60036020526000908152604090205481565b6101646102ba366004611a8a565b610908565b6101646102cd366004611a8a565b610932565b6101946102e0366004611d24565b610942565b6101946102f3366004611d5f565b610a41565b6101ce610306366004611dbd565b610c4e565b6101ce610319366004611df9565b610cc6565b6008546101ad565b6101646103343660046119b4565b610d8c565b6000602052816000526040600020818154811061035557600080fd5b6000918252602090912001546001600160a01b03169150829050565b600d546001600160a01b031633146103c95760405162461bcd60e51b81526020600482015260166024820152754f6e6c79206f776e65722063616e20646f207468697360501b60448201526064015b60405180910390fd5b600d80546001600160a01b0319166001600160a01b0392909216919091179055565b806001600160a01b03811633146104145760405162461bcd60e51b81526004016103c090611e8a565b6001600160a01b0380841660009081526004602090815260408083209386168352929052205460ff166104a1576001600160a01b0383811660008181526002602090815260408083208054600180820183559185528385200180546001600160a01b03191696891696871790559383526004825280832094835293905291909120805460ff191690911790555b505050565b6001600160a01b0381166000908152602081815260409182902080548351818402810184019094528084526060939283018282801561050e57602002820191906000526020600020905b81546001600160a01b031681526001909101906020018083116104f0575b50505050509050919050565b60008181526005602090815260409182902080548351818402810184019094528084526060939283018282801561050e576020028201919060005260206000209081546001600160a01b031681526001909101906020018083116104f05750505050509050919050565b6007818154811061059457600080fd5b600091825260209091200154905081565b6060600b6000878152602001908152602001600020856040516105c89190611eed565b9081526020016040518091039020846040516105e49190611eed565b9081526020016040518091039020836040516106009190611eed565b90815260200160405180910390208260405161061c9190611eed565b908152604080519182900360209081018320805480830285018301909352828452919083018282801561067857602002820191906000526020600020905b81546001600160a01b0316815260019091019060200180831161065a575b5050505050905095945050505050565b600d546001600160a01b031633146106db5760405162461bcd60e51b81526020600482015260166024820152754f6e6c79206f776e65722063616e20646f207468697360501b60448201526064016103c0565b600e80546001600160a01b0319166001600160a01b0392909216919091179055565b6001600160a01b03811660009081526002602090815260409182902080548351818402810184019094528084526060939283018282801561050e576020028201919060005260206000209081546001600160a01b031681526001909101906020018083116104f05750505050509050919050565b606060078054806020026020016040519081016040528092919081815260200182805480156107bf57602002820191906000526020600020905b8154815260200190600101908083116107ab575b5050505050905090565b806001600160a01b03811633146107f25760405162461bcd60e51b81526004016103c090611e8a565b61089c82858580806020026020016040519081016040528093929190818152602001838360200280828437600092018290525060408051630295d8d960e21b815290516001600160a01b038b169550630a57636494506004808301945090918290030181865afa15801561086a573d6000803e3d6000fd5b505050506040513d6000823e601f3d908101601f191682016040526108929190810190612095565b6101000151610da8565b50505050565b806001600160a01b03811633146108cb5760405162461bcd60e51b81526004016103c090611e8a565b61089c82858580806020026020016040519081016040528093929190818152602001838360200280828437600092019190915250610f3992505050565b6009818154811061091857600080fd5b6000918252602090912001546001600160a01b0316905081565b6008818154811061091857600080fd5b806001600160a01b038116331461096b5760405162461bcd60e51b81526004016103c090611e8a565b6000826001600160a01b0316630a5763646040518163ffffffff1660e01b8152600401600060405180830381865afa1580156109ab573d6000803e3d6000fd5b505050506040513d6000823e601f3d908101601f191682016040526109d39190810190612095565b6101200151905060005b81518160ff161015610a3a576000828260ff1681518110610a0057610a006121de565b60200260200101519050610a1485826110aa565b610a2785610a21886121f4565b836116da565b5080610a32816122b4565b9150506109dd565b5050505050565b600880546001810182557ff3f7a9fe364faab93b216da50a3214154f22a0a2b415b23a84c8169e8b636ee30180546001600160a01b0319166001600160a01b038681169182179092559154600092835260036020908152604080852092909255918516835290829052902054610afd57600980546001810182556000919091527f6e1540171b6c0c960b71a7020d9f60077f6af931a8bbf590da0223dacf75c7af0180546001600160a01b0319166001600160a01b0384161790555b6001600160a01b03828116600090815260208181526040808320805460018101825590845291832090910180546001600160a01b03191693871693841790558051630295d8d960e21b81529051869391630a57636491600480830192869291908290030181865afa158015610b76573d6000803e3d6000fd5b505050506040513d6000823e601f3d908101601f19168201604052610b9e9190810190612095565b905060018160c00151604051610bb49190611eed565b90815260405160209181900382019020805460018101825560009182529190200180546001600160a01b0319166001600160a01b038716179055610a3a85610c006101208601866122d4565b80806020026020016040519081016040528093929190818152602001838360200280828437600092019190915250610c4092505050610100870187612324565b610c49906121f4565b610da8565b6060600182604051610c609190611eed565b908152604080519182900360209081018320805480830285018301909352828452919083018282801561050e576020028201919060005260206000209081546001600160a01b031681526001909101906020018083116104f05750505050509050919050565b6060600a600086815260200190815260200160002084604051610ce99190611eed565b908152602001604051809103902083604051610d059190611eed565b908152602001604051809103902082604051610d219190611eed565b9081526040805191829003602090810183208054808302850183019093528284529190830182828015610d7d57602002820191906000526020600020905b81546001600160a01b03168152600190910190602001808311610d5f575b50505050509050949350505050565b6002602052816000526040600020818154811061035557600080fd5b60006005835111610dba578251610dbd565b60055b905060005b818160ff161015610a3a576000848260ff1681518110610de457610de46121de565b602002602001015190506000801b811115610f2657600081815260056020908152604080832080548251818502810185019093528083529192909190830182828015610e5957602002820191906000526020600020905b81546001600160a01b03168152600190910190602001808311610e3b575b50505050509050805160001415610ea057600780546001810182556000919091527fa66cc928b5edb82af9bd49922954155ab7b0942694bea4ce44661d9a8736c688018290555b60008281526006602090815260408083206001600160a01b038b168452909152902054610f1957600082815260056020908152604080832080546001810182558185528385200180546001600160a01b0319166001600160a01b038d169081179091558685529054600684528285209185529252909120555b610f248786846116da565b505b5080610f31816122b4565b915050610dc2565b60006005825111610f4b578151610f4e565b60055b905060005b818160ff16101561089c576000838260ff1681518110610f7557610f756121de565b602002602001015190506000801b8111156110975760008181526006602090815260408083206001600160a01b038916845290915290205480156110955760008281526005602052604090208054610fcf9060019061233a565b81548110610fdf57610fdf6121de565b6000918252602080832090910154848352600590915260409091206001600160a01b039091169061101160018461233a565b81548110611021576110216121de565b600091825260208083209190910180546001600160a01b0319166001600160a01b03949094169390931790925583815260059091526040902080548061106957611069612351565b600082815260209020810160001990810180546001600160a01b031916905501905561109586836110aa565b505b50806110a2816122b4565b915050610f53565b6000826001600160a01b0316630a5763646040518163ffffffff1660e01b8152600401600060405180830381865afa1580156110ea573d6000803e3d6000fd5b505050506040513d6000823e601f3d908101601f191682016040526111129190810190612095565b61010001516000838152600a60205260408082208351915193945091926111399190611eed565b908152602001604051809103902082602001516040516111599190611eed565b908152602001604051809103902082604001516040516111799190611eed565b908152604080519182900360209081018320546000878152600a9092529190208451919350916111a99190611eed565b908152602001604051809103902082602001516040516111c99190611eed565b908152602001604051809103902082604001516040516111e99190611eed565b90815260405190819003602001902061120360018361233a565b81548110611213576112136121de565b6000918252602080832090910154858352600a909152604091829020845192516001600160a01b0390921692909161124b9190611eed565b9081526020016040518091039020836020015160405161126b9190611eed565b9081526020016040518091039020836040015160405161128b9190611eed565b90815260408051602092819003830190206001600160a01b0388166000908152600c9093529120546112c8906001906001600160401b0316612367565b6001600160401b0316815481106112e1576112e16121de565b9060005260206000200160006101000a8154816001600160a01b0302191690836001600160a01b03160217905550600a600084815260200190815260200160002082600001516040516113349190611eed565b908152602001604051809103902082602001516040516113549190611eed565b908152602001604051809103902082604001516040516113749190611eed565b908152602001604051809103902080548061139157611391612351565b60008281526020808220830160001990810180546001600160a01b0319169055909201909255848252600b90526040908190208351915190916113d391611eed565b908152602001604051809103902082602001516040516113f39190611eed565b908152602001604051809103902082604001516040516114139190611eed565b908152602001604051809103902082606001516040516114339190611eed565b908152604080519182900360209081018320546000878152600b9092529190208451919350916114639190611eed565b908152602001604051809103902082602001516040516114839190611eed565b908152602001604051809103902082604001516040516114a39190611eed565b908152602001604051809103902082606001516040516114c39190611eed565b9081526040519081900360200190206114dd60018361233a565b815481106114ed576114ed6121de565b6000918252602080832090910154858352600b909152604091829020845192516001600160a01b039092169290916115259190611eed565b908152602001604051809103902083602001516040516115459190611eed565b908152602001604051809103902083604001516040516115659190611eed565b908152602001604051809103902083606001516040516115859190611eed565b90815260408051602092819003830190206001600160a01b0388166000908152600c9093529120546115c990600190600160401b90046001600160401b0316612367565b6001600160401b0316815481106115e2576115e26121de565b9060005260206000200160006101000a8154816001600160a01b0302191690836001600160a01b03160217905550600b600084815260200190815260200160002082600001516040516116359190611eed565b908152602001604051809103902082602001516040516116559190611eed565b908152602001604051809103902082604001516040516116759190611eed565b908152602001604051809103902082606001516040516116959190611eed565b90815260200160405180910390208054806116b2576116b2612351565b600082815260209020810160001990810180546001600160a01b031916905501905550505050565b6000818152600a6020526040908190208351915190916116f991611eed565b908152602001604051809103902082602001516040516117199190611eed565b908152602001604051809103902082604001516040516117399190611eed565b9081526040805160209281900383018120805460018101825560009182528482200180546001600160a01b0319166001600160a01b038916179055848152600a90935291208351909161178c9190611eed565b908152602001604051809103902082602001516040516117ac9190611eed565b908152602001604051809103902082604001516040516117cc9190611eed565b9081526040805160209281900383018120546001600160a01b0387166000908152600c8552838120805467ffffffffffffffff19166001600160401b0390931692909217909155848152600b90935291208351909161182b9190611eed565b9081526020016040518091039020826020015160405161184b9190611eed565b9081526020016040518091039020826040015160405161186b9190611eed565b9081526020016040518091039020826060015160405161188b9190611eed565b9081526040805160209281900383018120805460018101825560009182528482200180546001600160a01b0319166001600160a01b038916179055848152600b9093529120835190916118de9190611eed565b908152602001604051809103902082602001516040516118fe9190611eed565b9081526020016040518091039020826040015160405161191e9190611eed565b9081526020016040518091039020826060015160405161193e9190611eed565b90815260408051918290036020908101909220546001600160a01b039095166000908152600c909252902080546001600160401b03909416600160401b026fffffffffffffffff000000000000000019909416939093179092555050565b6001600160a01b03811681146119b157600080fd5b50565b600080604083850312156119c757600080fd5b82356119d28161199c565b946020939093013593505050565b6000602082840312156119f257600080fd5b81356119fd8161199c565b9392505050565b60008060408385031215611a1757600080fd5b8235611a228161199c565b91506020830135611a328161199c565b809150509250929050565b6020808252825182820181905260009190848201906040850190845b81811015611a7e5783516001600160a01b031683529284019291840191600101611a59565b50909695505050505050565b600060208284031215611a9c57600080fd5b5035919050565b634e487b7160e01b600052604160045260246000fd5b604051608081016001600160401b0381118282101715611adb57611adb611aa3565b60405290565b60405161016081016001600160401b0381118282101715611adb57611adb611aa3565b604051601f8201601f191681016001600160401b0381118282101715611b2c57611b2c611aa3565b604052919050565b60006001600160401b03821115611b4d57611b4d611aa3565b50601f01601f191660200190565b600082601f830112611b6c57600080fd5b8135611b7f611b7a82611b34565b611b04565b818152846020838601011115611b9457600080fd5b816020850160208301376000918101602001919091529392505050565b600080600080600060a08688031215611bc957600080fd5b8535945060208601356001600160401b0380821115611be757600080fd5b611bf389838a01611b5b565b95506040880135915080821115611c0957600080fd5b611c1589838a01611b5b565b94506060880135915080821115611c2b57600080fd5b611c3789838a01611b5b565b93506080880135915080821115611c4d57600080fd5b50611c5a88828901611b5b565b9150509295509295909350565b6020808252825182820181905260009190848201906040850190845b81811015611a7e57835183529284019291840191600101611c83565b600080600060408486031215611cb457600080fd5b83356001600160401b0380821115611ccb57600080fd5b818601915086601f830112611cdf57600080fd5b813581811115611cee57600080fd5b8760208260051b8501011115611d0357600080fd5b60209283019550935050840135611d198161199c565b809150509250925092565b60008060408385031215611d3757600080fd5b82356001600160401b03811115611d4d57600080fd5b830160808186031215611a2257600080fd5b600080600060608486031215611d7457600080fd5b8335611d7f8161199c565b92506020840135611d8f8161199c565b915060408401356001600160401b03811115611daa57600080fd5b84016101608187031215611d1957600080fd5b600060208284031215611dcf57600080fd5b81356001600160401b03811115611de557600080fd5b611df184828501611b5b565b949350505050565b60008060008060808587031215611e0f57600080fd5b8435935060208501356001600160401b0380821115611e2d57600080fd5b611e3988838901611b5b565b94506040870135915080821115611e4f57600080fd5b611e5b88838901611b5b565b93506060870135915080821115611e7157600080fd5b50611e7e87828801611b5b565b91505092959194509250565b6020808252601c908201527f4f6e6c79206f776e20646174612063616e206265206368616e67656400000000604082015260600190565b60005b83811015611edc578181015183820152602001611ec4565b8381111561089c5750506000910152565b60008251611eff818460208701611ec1565b9190910192915050565b8051611f148161199c565b919050565b600082601f830112611f2a57600080fd5b8151611f38611b7a82611b34565b818152846020838601011115611f4d57600080fd5b611df1826020830160208701611ec1565b600060808284031215611f7057600080fd5b611f78611ab9565b905081516001600160401b0380821115611f9157600080fd5b611f9d85838601611f19565b83526020840151915080821115611fb357600080fd5b611fbf85838601611f19565b60208401526040840151915080821115611fd857600080fd5b611fe485838601611f19565b60408401526060840151915080821115611ffd57600080fd5b5061200a84828501611f19565b60608301525092915050565b600082601f83011261202757600080fd5b815160206001600160401b0382111561204257612042611aa3565b8160051b612051828201611b04565b928352848101820192828101908785111561206b57600080fd5b83870192505b8483101561208a57825182529183019190830190612071565b979650505050505050565b6000602082840312156120a757600080fd5b81516001600160401b03808211156120be57600080fd5b9083019061016082860312156120d357600080fd5b6120db611ae1565b8251815260208301516020820152604083015160408201526060830151606082015261210960808401611f09565b608082015260a08301518281111561212057600080fd5b61212c87828601611f19565b60a08301525060c08301518281111561214457600080fd5b61215087828601611f19565b60c08301525060e08301518281111561216857600080fd5b61217487828601611f19565b60e083015250610100808401518381111561218e57600080fd5b61219a88828701611f5e565b82840152505061012080840151838111156121b457600080fd5b6121c088828701612016565b91830191909152506101409283015192810192909252509392505050565b634e487b7160e01b600052603260045260246000fd5b60006080823603121561220657600080fd5b61220e611ab9565b82356001600160401b038082111561222557600080fd5b61223136838701611b5b565b8352602085013591508082111561224757600080fd5b61225336838701611b5b565b6020840152604085013591508082111561226c57600080fd5b61227836838701611b5b565b6040840152606085013591508082111561229157600080fd5b5061200a36828601611b5b565b634e487b7160e01b600052601160045260246000fd5b600060ff821660ff8114156122cb576122cb61229e565b60010192915050565b6000808335601e198436030181126122eb57600080fd5b8301803591506001600160401b0382111561230557600080fd5b6020019150600581901b360382131561231d57600080fd5b9250929050565b60008235607e19833603018112611eff57600080fd5b60008282101561234c5761234c61229e565b500390565b634e487b7160e01b600052603160045260246000fd5b60006001600160401b03838116908316818110156123875761238761229e565b03939250505056fea2646970667358221220c728286807323d1b3b02b6af301fea14658e737b92cf153cb914ddb416336d0364736f6c634300080a0033",
  "immutableReferences": {},
  "source": "pragma solidity >=  0.8.0;\npragma experimental ABIEncoderV2;\nimport \"./interfaces/iStoreIOUs.sol\";\nimport \"./interfaces/iIOUtoken.sol\";\nimport \"./Initializable.sol\";\n\n\ncontract newStoreIOUs is iStoreIOUs {\n//todo : break this brick \n    mapping (address => address[]) public listIOUs; // list of emitted IOUs from emitent\n    mapping (string => address[])   listIOUsSoc; // list of emitted IOUs by social profile\n    mapping (address => address[]) public listHoldersIOUs; //list of tokens by holder\n    mapping (address => uint256) public isIOU; //security check is token emitted \n    mapping (address => mapping (address => bool)) isHolderthisIOU; //  check list of tokens by holder\n\n    mapping (bytes32 => address[]) listbyKeys; //list of IOUs by keyword\n    mapping (bytes32 => \n     mapping (address => uint256))  keyByList; //reverse index for listbyKeys to editing keywords\n    bytes32[] public allKeywords;  //list all keywords\n    address[] public allIOU; //list all emitted IOus\n    address[] public allIssuers; //list all issuers of  IOus\n\n    mapping (bytes32 => // keyword\n     mapping (string =>  // (country\n      mapping (string =>  //  state \n       mapping (string =>  //street\n        address[])))) internal  listbyCity_; // (keyword => country =>state =>city) => of IOUs\n    \n    mapping (bytes32 => // keyword\n     mapping (string =>  // country\n      mapping (string =>  //  state \n       mapping (string =>  //  city \n        mapping (string =>  //street\n          address[]))))) internal listbyStreet_; // (keyword=>country=> state => city =>street) => IOU \n\n    mapping (address => geoIOU ) posIOU;\n\n\n    address owner;\n    address makeFactory;\n\n    //constructor ()  {\n    function initialize () public {\n        owner = msg.sender;\n    }\n\n    modifier onlyOwner() {\n        require (owner == msg.sender, \"Only owner can do this\");\n        _;\n    }\n\n/*     modifier onlyFactory() {\n/*         require (makeFactory != address(0x0), \"No makeFactory address\");\n        require (makeFactory == msg.sender, \"Only makeFactory can do this\"); \n        _;\n    }\n\n    modifier isIOUtoken () {\n        require (makeFactory == msg.sender || isIOU[msg.sender] > 0 , \"Not IOU token calls\" );\n        _;\n    }\n */\n    function setOwner (address _newOwner) public onlyOwner {\n        owner = _newOwner;\n    }\n\n    function setFactory (address _newFact) public onlyOwner {\n        makeFactory = _newFact;\n    }\n\n    modifier onlySelf(address _addrIOU) {\n       // iIOUtoken.DescriptionIOU memory desc = iIOUtoken(_addrIOU).thisIOUDesc();\n        require (_addrIOU == msg.sender, \"Only own data can be changed\");\n        _;\n    }\n\n    function addIOU1 (address _addrIOU, address _emitent,  iIOUtoken.DescriptionIOU calldata _thisIOU ) public override  {\n        \n        allIOU.push(_addrIOU);\n        isIOU[_addrIOU] = allIOU.length;\n\n        if (listIOUs[_emitent].length == 0) {\n            allIssuers.push(_emitent); \n        }\n        listIOUs[_emitent].push(_addrIOU);\n        iIOUtoken curIOU =  iIOUtoken(_addrIOU);\n        iIOUtoken.DescriptionIOU memory thisIOU = curIOU.thisIOUDesc();\n        listIOUsSoc[thisIOU.socialProfile].push(_addrIOU);\n        _addKeys(_addrIOU, _thisIOU.keywords, _thisIOU.location);\n    }\n\n\n    function addKeys (bytes32[] calldata _keywords, address _addrIOU ) public onlySelf (_addrIOU) override {\n\n        _addKeys(_addrIOU, _keywords, iIOUtoken(_addrIOU).thisIOUDesc().location);\n    }\n    function delKeys (bytes32[] calldata _keywords, address _addrIOU ) public onlySelf (_addrIOU) override {\n        _delKeys(_addrIOU, _keywords);\n    }\n\n    \n    /// when changed geolocation\n    function changeIOUGeoAllkeys  (iIOUtoken.geo calldata _newloc, address _addrIOU ) external override onlySelf (_addrIOU) {\n        bytes32[] memory keys = iIOUtoken(_addrIOU).thisIOUDesc().keywords;\n        for (uint8 k=0; k<keys.length; k++)  {  \n            bytes32 key = keys[k];\n            _delkeyIOUGeo(_addrIOU, key);\n            _setIOUGeo(_addrIOU, _newloc, key);          \n\n            }\n    }\n    function _addKeys (address _addrIOU, bytes32[] memory _keywords, iIOUtoken.geo  memory _location) internal{\n\n        uint lenArr = _keywords.length > 5 ? 5: _keywords.length;\n        for (uint8 k=0 ; k < lenArr ; k++){\n            bytes32 key = _keywords[k];\n                if (key > 0 ){\n                    address[] memory lbk = listbyKeys[key];\n                    if  (lbk.length == 0 ) { // new keyword, never used in IOUs before\n                        allKeywords.push(key);\n                    }\n                    if (keyByList[key][_addrIOU] == 0) {\n                        listbyKeys[key].push(_addrIOU);\n                        keyByList[key][_addrIOU] = listbyKeys[key].length;\n                    }\n                    _setIOUGeo(_addrIOU,\n                            _location, \n                            key);\n                }\n            } \n    }\n\n\n    function _delKeys (address _addrIOU, bytes32[] memory _keywords) internal{\n\n        uint lenArr = _keywords.length > 5 ? 5: _keywords.length;\n        for (uint8 k=0 ; k < lenArr ; k++){\n            bytes32 key = _keywords[k];\n            if (key > 0 ){\n                uint keyNum = keyByList[key][_addrIOU];\n                if  (keyNum > 0 ) {\n                    listbyKeys[key][keyNum-1] = \n                    listbyKeys[key][\n                      listbyKeys[key].length -1];\n                    listbyKeys[key].pop();\n                    _delkeyIOUGeo(_addrIOU, key);\n                }\n \n            }\n        } \n    }\n\n\n    function _setIOUGeo (address _addrIOU, \n                        iIOUtoken.geo memory _loc,\n                        bytes32 _key) internal { //public  onlySelf (_addrIOU)\n\n        listbyCity_[_key] [_loc.country][_loc.state][_loc.city].push(_addrIOU);\n        posIOU[_addrIOU].inCity = uint64(listbyCity_[_key][_loc.country][_loc.state][_loc.city].length);\n        listbyStreet_[_key][_loc.country][_loc.state][_loc.city][_loc.street].push(_addrIOU);\n        posIOU[_addrIOU].onStreet = uint64(listbyStreet_[_key][_loc.country][_loc.state][_loc.city][_loc.street].length);\n\n    }\n\n    function _delkeyIOUGeo  (address _addrIOU, \n                            bytes32 key) internal {\n\n        iIOUtoken.geo memory curr = iIOUtoken(_addrIOU).thisIOUDesc().location;\n\n        uint curlen = listbyCity_[key][curr.country][curr.state][curr.city].length;\n        // delete old key connection\n        listbyCity_[key][curr.country][curr.state][curr.city][posIOU[_addrIOU].inCity -1] = \n        listbyCity_[key][curr.country][curr.state][curr.city][curlen-1];\n        listbyCity_[key][curr.country][curr.state][curr.city].pop();\n\n        curlen = listbyStreet_[key][curr.country][curr.state][curr.city][curr.street].length;\n        listbyStreet_[key][curr.country][curr.state][curr.city][curr.street][posIOU[_addrIOU].onStreet -1] = \n        listbyStreet_[key][curr.country][curr.state][curr.city][curr.street][curlen-1];\n        listbyStreet_[key][curr.country][curr.state][curr.city][curr.street].pop();\n        \n        }\n\n\n\n    function addHolder(address _holder, address _IOUtoken) public override onlySelf (_IOUtoken) {\n        if (!isHolderthisIOU[_holder][_IOUtoken] ) {\n            listHoldersIOUs [_holder].push(_IOUtoken);\n            isHolderthisIOU[_holder][_IOUtoken] = true;\n        }\n    }\n\n    function getIOUList (address _owner) public override view returns (address[] memory) {\n            return listIOUs[_owner];\n        }\n\n    function getIOUListSoc (string memory _profile) public override view returns (address[] memory) {\n            return listIOUsSoc[_profile];\n                }\n\n    function getIOUListKey (bytes32 _key) public override view returns (address[] memory) {\n            return listbyKeys[_key];\n                }\n\n\n    function getIOUListHold (address _holder) public view override returns (address[] memory) {\n            return listHoldersIOUs [_holder];\n        }\n\n    function getIOUstotal () public view override  returns (uint256)\n    {\n        return allIOU.length;\n    }    \n\n    function getKeystotal () public view override returns (bytes32[] memory) \n    {\n        return allKeywords;\n    }    \n\n    function getIssuerstotal () public view override returns (uint256)\n    {\n        return allIssuers.length;\n    }\n\n    function getIOUsbyCity(bytes32 _key,\n                            string memory _country,\n                            string memory _state,\n                            string memory _city) public  view returns (address[] memory) {\n                return listbyCity_  [_key][_country][_state][_city];\n            }\n\n    function getIOUsbyStreet (bytes32 _key,\n                        string memory _country,\n                        string memory _state,\n                        string memory _city,\n                        string memory _street) public view returns (address[] memory) {\n            return listbyStreet_[_key][_country][_state][_city][_street];\n                }\n\n\n    }",
  "sourcePath": "/mnt/512-2/dfd/iou2/contracts/newStoreIOUs.sol",
  "compiler": {
    "name": "solc",
    "version": "0.8.10+commit.fc410830.Emscripten.clang"
  },
  "schemaVersion": "3.4.4",
  "updatedAt": "2022-02-15T09:58:41.889Z",
  "devdoc": {
    "kind": "dev",
    "methods": {},
    "version": 1
  },
  "userdoc": {
    "kind": "user",
    "methods": {
      "changeIOUGeoAllkeys((string,string,string,string),address)": {
        "notice": "when changed geolocation"
      }
    },
    "version": 1
  }
}