{
  "contractName": "ProxyIOU",
  "abi": [
    {
      "anonymous": false,
      "inputs": [
        {
          "indexed": true,
          "internalType": "address",
          "name": "owner",
          "type": "address"
        },
        {
          "indexed": true,
          "internalType": "address",
          "name": "spender",
          "type": "address"
        },
        {
          "indexed": false,
          "internalType": "uint256",
          "name": "value",
          "type": "uint256"
        }
      ],
      "name": "Approval",
      "type": "event"
    },
    {
      "anonymous": false,
      "inputs": [
        {
          "indexed": true,
          "internalType": "address",
          "name": "from",
          "type": "address"
        },
        {
          "indexed": true,
          "internalType": "address",
          "name": "to",
          "type": "address"
        },
        {
          "indexed": false,
          "internalType": "uint256",
          "name": "value",
          "type": "uint256"
        }
      ],
      "name": "Transfer",
      "type": "event"
    },
    {
      "inputs": [
        {
          "internalType": "address",
          "name": "",
          "type": "address"
        },
        {
          "internalType": "uint256",
          "name": "",
          "type": "uint256"
        }
      ],
      "name": "IOUbyReceiver",
      "outputs": [
        {
          "internalType": "uint256",
          "name": "",
          "type": "uint256"
        }
      ],
      "stateMutability": "view",
      "type": "function",
      "constant": true
    },
    {
      "inputs": [
        {
          "internalType": "uint256",
          "name": "",
          "type": "uint256"
        }
      ],
      "name": "allFeedbacks",
      "outputs": [
        {
          "internalType": "address",
          "name": "sender",
          "type": "address"
        },
        {
          "internalType": "uint256",
          "name": "time",
          "type": "uint256"
        },
        {
          "internalType": "int256",
          "name": "rating",
          "type": "int256"
        },
        {
          "internalType": "uint256",
          "name": "amount",
          "type": "uint256"
        },
        {
          "internalType": "string",
          "name": "text",
          "type": "string"
        }
      ],
      "stateMutability": "view",
      "type": "function",
      "constant": true
    },
    {
      "inputs": [
        {
          "internalType": "uint256",
          "name": "",
          "type": "uint256"
        }
      ],
      "name": "allIOUs",
      "outputs": [
        {
          "internalType": "address",
          "name": "receiver",
          "type": "address"
        },
        {
          "internalType": "uint256",
          "name": "time",
          "type": "uint256"
        },
        {
          "internalType": "string",
          "name": "IOUDescr",
          "type": "string"
        }
      ],
      "stateMutability": "view",
      "type": "function",
      "constant": true
    },
    {
      "inputs": [
        {
          "internalType": "address",
          "name": "owner",
          "type": "address"
        },
        {
          "internalType": "address",
          "name": "spender",
          "type": "address"
        }
      ],
      "name": "allowance",
      "outputs": [
        {
          "internalType": "uint256",
          "name": "",
          "type": "uint256"
        }
      ],
      "stateMutability": "view",
      "type": "function",
      "constant": true
    },
    {
      "inputs": [
        {
          "internalType": "address",
          "name": "spender",
          "type": "address"
        },
        {
          "internalType": "uint256",
          "name": "amount",
          "type": "uint256"
        }
      ],
      "name": "approve",
      "outputs": [
        {
          "internalType": "bool",
          "name": "",
          "type": "bool"
        }
      ],
      "stateMutability": "nonpayable",
      "type": "function"
    },
    {
      "inputs": [
        {
          "internalType": "address",
          "name": "account",
          "type": "address"
        }
      ],
      "name": "balanceOf",
      "outputs": [
        {
          "internalType": "uint256",
          "name": "",
          "type": "uint256"
        }
      ],
      "stateMutability": "view",
      "type": "function",
      "constant": true
    },
    {
      "inputs": [],
      "name": "decimals",
      "outputs": [
        {
          "internalType": "uint8",
          "name": "",
          "type": "uint8"
        }
      ],
      "stateMutability": "view",
      "type": "function",
      "constant": true
    },
    {
      "inputs": [
        {
          "internalType": "address",
          "name": "spender",
          "type": "address"
        },
        {
          "internalType": "uint256",
          "name": "subtractedValue",
          "type": "uint256"
        }
      ],
      "name": "decreaseAllowance",
      "outputs": [
        {
          "internalType": "bool",
          "name": "",
          "type": "bool"
        }
      ],
      "stateMutability": "nonpayable",
      "type": "function"
    },
    {
      "inputs": [
        {
          "internalType": "address",
          "name": "",
          "type": "address"
        },
        {
          "internalType": "uint256",
          "name": "",
          "type": "uint256"
        }
      ],
      "name": "feedBacksbySender",
      "outputs": [
        {
          "internalType": "uint256",
          "name": "",
          "type": "uint256"
        }
      ],
      "stateMutability": "view",
      "type": "function",
      "constant": true
    },
    {
      "inputs": [
        {
          "internalType": "address",
          "name": "spender",
          "type": "address"
        },
        {
          "internalType": "uint256",
          "name": "addedValue",
          "type": "uint256"
        }
      ],
      "name": "increaseAllowance",
      "outputs": [
        {
          "internalType": "bool",
          "name": "",
          "type": "bool"
        }
      ],
      "stateMutability": "nonpayable",
      "type": "function"
    },
    {
      "inputs": [],
      "name": "name",
      "outputs": [
        {
          "internalType": "string",
          "name": "",
          "type": "string"
        }
      ],
      "stateMutability": "view",
      "type": "function",
      "constant": true
    },
    {
      "inputs": [],
      "name": "symbol",
      "outputs": [
        {
          "internalType": "string",
          "name": "",
          "type": "string"
        }
      ],
      "stateMutability": "view",
      "type": "function",
      "constant": true
    },
    {
      "inputs": [],
      "name": "totalSupply",
      "outputs": [
        {
          "internalType": "uint256",
          "name": "",
          "type": "uint256"
        }
      ],
      "stateMutability": "view",
      "type": "function",
      "constant": true
    },
    {
      "inputs": [
        {
          "internalType": "address",
          "name": "sender",
          "type": "address"
        },
        {
          "internalType": "address",
          "name": "recipient",
          "type": "address"
        },
        {
          "internalType": "uint256",
          "name": "amount",
          "type": "uint256"
        }
      ],
      "name": "transferFrom",
      "outputs": [
        {
          "internalType": "bool",
          "name": "",
          "type": "bool"
        }
      ],
      "stateMutability": "nonpayable",
      "type": "function"
    },
    {
      "inputs": [
        {
          "internalType": "string",
          "name": "name_",
          "type": "string"
        },
        {
          "internalType": "string",
          "name": "symbol_",
          "type": "string"
        },
        {
          "components": [
            {
              "internalType": "uint256",
              "name": "totalMinted",
              "type": "uint256"
            },
            {
              "internalType": "uint256",
              "name": "totalBurned",
              "type": "uint256"
            },
            {
              "internalType": "int256",
              "name": "avRate",
              "type": "int256"
            },
            {
              "internalType": "bytes32",
              "name": "units",
              "type": "bytes32"
            },
            {
              "internalType": "address",
              "name": "issuer",
              "type": "address"
            },
            {
              "internalType": "string",
              "name": "myName",
              "type": "string"
            },
            {
              "internalType": "string",
              "name": "socialProfile",
              "type": "string"
            },
            {
              "internalType": "string",
              "name": "description",
              "type": "string"
            },
            {
              "components": [
                {
                  "internalType": "string",
                  "name": "country",
                  "type": "string"
                },
                {
                  "internalType": "string",
                  "name": "state",
                  "type": "string"
                },
                {
                  "internalType": "string",
                  "name": "city",
                  "type": "string"
                },
                {
                  "internalType": "string",
                  "name": "street",
                  "type": "string"
                }
              ],
              "internalType": "struct iIOUtoken.geo",
              "name": "location",
              "type": "tuple"
            },
            {
              "internalType": "bytes32[]",
              "name": "keywords",
              "type": "bytes32[]"
            },
            {
              "internalType": "bytes32",
              "name": "phone",
              "type": "bytes32"
            }
          ],
          "internalType": "struct iIOUtoken.DescriptionIOU",
          "name": "_thisIOU",
          "type": "tuple"
        },
        {
          "internalType": "address",
          "name": "_store",
          "type": "address"
        }
      ],
      "name": "setIOU",
      "outputs": [],
      "stateMutability": "nonpayable",
      "type": "function"
    },
    {
      "inputs": [
        {
          "internalType": "address",
          "name": "_newOwner",
          "type": "address"
        }
      ],
      "name": "setStore",
      "outputs": [],
      "stateMutability": "nonpayable",
      "type": "function"
    },
    {
      "inputs": [
        {
          "internalType": "address",
          "name": "_newOwner",
          "type": "address"
        }
      ],
      "name": "setOwner",
      "outputs": [],
      "stateMutability": "nonpayable",
      "type": "function"
    },
    {
      "inputs": [
        {
          "internalType": "address",
          "name": "_who",
          "type": "address"
        },
        {
          "internalType": "uint256",
          "name": "_amount",
          "type": "uint256"
        },
        {
          "internalType": "string",
          "name": "_descr",
          "type": "string"
        }
      ],
      "name": "mint",
      "outputs": [],
      "stateMutability": "nonpayable",
      "type": "function"
    },
    {
      "inputs": [
        {
          "internalType": "uint256",
          "name": "_amount",
          "type": "uint256"
        },
        {
          "internalType": "int256",
          "name": "_rating",
          "type": "int256"
        },
        {
          "internalType": "string",
          "name": "_feedback",
          "type": "string"
        }
      ],
      "name": "burn",
      "outputs": [],
      "stateMutability": "nonpayable",
      "type": "function"
    },
    {
      "inputs": [
        {
          "internalType": "address",
          "name": "_recipient",
          "type": "address"
        },
        {
          "internalType": "uint256",
          "name": "_amount",
          "type": "uint256"
        }
      ],
      "name": "transfer",
      "outputs": [
        {
          "internalType": "bool",
          "name": "",
          "type": "bool"
        }
      ],
      "stateMutability": "nonpayable",
      "type": "function"
    },
    {
      "inputs": [
        {
          "internalType": "string",
          "name": "_descr",
          "type": "string"
        }
      ],
      "name": "editDescr",
      "outputs": [],
      "stateMutability": "nonpayable",
      "type": "function"
    },
    {
      "inputs": [
        {
          "internalType": "bytes32",
          "name": "_phone",
          "type": "bytes32"
        }
      ],
      "name": "editPhone",
      "outputs": [],
      "stateMutability": "nonpayable",
      "type": "function"
    },
    {
      "inputs": [
        {
          "internalType": "string",
          "name": "_country",
          "type": "string"
        },
        {
          "internalType": "string",
          "name": "_state",
          "type": "string"
        },
        {
          "internalType": "string",
          "name": "_city",
          "type": "string"
        },
        {
          "internalType": "string",
          "name": "_street",
          "type": "string"
        }
      ],
      "name": "editGeo",
      "outputs": [],
      "stateMutability": "nonpayable",
      "type": "function"
    },
    {
      "inputs": [
        {
          "internalType": "bytes32[]",
          "name": "_keys",
          "type": "bytes32[]"
        }
      ],
      "name": "addKeys",
      "outputs": [],
      "stateMutability": "nonpayable",
      "type": "function"
    },
    {
      "inputs": [
        {
          "internalType": "bytes32[]",
          "name": "_keys",
          "type": "bytes32[]"
        }
      ],
      "name": "delKeys",
      "outputs": [],
      "stateMutability": "nonpayable",
      "type": "function"
    },
    {
      "inputs": [
        {
          "internalType": "address",
          "name": "_iou",
          "type": "address"
        }
      ],
      "name": "getIOU",
      "outputs": [
        {
          "components": [
            {
              "internalType": "string",
              "name": "name",
              "type": "string"
            },
            {
              "internalType": "string",
              "name": "symbol",
              "type": "string"
            },
            {
              "components": [
                {
                  "internalType": "uint256",
                  "name": "totalMinted",
                  "type": "uint256"
                },
                {
                  "internalType": "uint256",
                  "name": "totalBurned",
                  "type": "uint256"
                },
                {
                  "internalType": "int256",
                  "name": "avRate",
                  "type": "int256"
                },
                {
                  "internalType": "bytes32",
                  "name": "units",
                  "type": "bytes32"
                },
                {
                  "internalType": "address",
                  "name": "issuer",
                  "type": "address"
                },
                {
                  "internalType": "string",
                  "name": "myName",
                  "type": "string"
                },
                {
                  "internalType": "string",
                  "name": "socialProfile",
                  "type": "string"
                },
                {
                  "internalType": "string",
                  "name": "description",
                  "type": "string"
                },
                {
                  "components": [
                    {
                      "internalType": "string",
                      "name": "country",
                      "type": "string"
                    },
                    {
                      "internalType": "string",
                      "name": "state",
                      "type": "string"
                    },
                    {
                      "internalType": "string",
                      "name": "city",
                      "type": "string"
                    },
                    {
                      "internalType": "string",
                      "name": "street",
                      "type": "string"
                    }
                  ],
                  "internalType": "struct iIOUtoken.geo",
                  "name": "location",
                  "type": "tuple"
                },
                {
                  "internalType": "bytes32[]",
                  "name": "keywords",
                  "type": "bytes32[]"
                },
                {
                  "internalType": "bytes32",
                  "name": "phone",
                  "type": "bytes32"
                }
              ],
              "internalType": "struct iIOUtoken.DescriptionIOU",
              "name": "description",
              "type": "tuple"
            }
          ],
          "internalType": "struct iIOUtoken.IOUdescr",
          "name": "",
          "type": "tuple"
        }
      ],
      "stateMutability": "view",
      "type": "function",
      "constant": true
    },
    {
      "inputs": [],
      "name": "thisIOUkeywords",
      "outputs": [
        {
          "internalType": "bytes32[]",
          "name": "",
          "type": "bytes32[]"
        }
      ],
      "stateMutability": "view",
      "type": "function",
      "constant": true
    },
    {
      "inputs": [],
      "name": "getlen",
      "outputs": [
        {
          "internalType": "uint256",
          "name": "",
          "type": "uint256"
        },
        {
          "internalType": "uint256",
          "name": "",
          "type": "uint256"
        }
      ],
      "stateMutability": "view",
      "type": "function",
      "constant": true
    },
    {
      "inputs": [],
      "name": "thisIOUDesc",
      "outputs": [
        {
          "components": [
            {
              "internalType": "uint256",
              "name": "totalMinted",
              "type": "uint256"
            },
            {
              "internalType": "uint256",
              "name": "totalBurned",
              "type": "uint256"
            },
            {
              "internalType": "int256",
              "name": "avRate",
              "type": "int256"
            },
            {
              "internalType": "bytes32",
              "name": "units",
              "type": "bytes32"
            },
            {
              "internalType": "address",
              "name": "issuer",
              "type": "address"
            },
            {
              "internalType": "string",
              "name": "myName",
              "type": "string"
            },
            {
              "internalType": "string",
              "name": "socialProfile",
              "type": "string"
            },
            {
              "internalType": "string",
              "name": "description",
              "type": "string"
            },
            {
              "components": [
                {
                  "internalType": "string",
                  "name": "country",
                  "type": "string"
                },
                {
                  "internalType": "string",
                  "name": "state",
                  "type": "string"
                },
                {
                  "internalType": "string",
                  "name": "city",
                  "type": "string"
                },
                {
                  "internalType": "string",
                  "name": "street",
                  "type": "string"
                }
              ],
              "internalType": "struct iIOUtoken.geo",
              "name": "location",
              "type": "tuple"
            },
            {
              "internalType": "bytes32[]",
              "name": "keywords",
              "type": "bytes32[]"
            },
            {
              "internalType": "bytes32",
              "name": "phone",
              "type": "bytes32"
            }
          ],
          "internalType": "struct iIOUtoken.DescriptionIOU",
          "name": "",
          "type": "tuple"
        }
      ],
      "stateMutability": "view",
      "type": "function",
      "constant": true
    },
    {
      "inputs": [],
      "name": "IOUname",
      "outputs": [
        {
          "internalType": "string",
          "name": "",
          "type": "string"
        }
      ],
      "stateMutability": "view",
      "type": "function",
      "constant": true
    },
    {
      "inputs": [],
      "name": "IOUsymbol",
      "outputs": [
        {
          "internalType": "string",
          "name": "",
          "type": "string"
        }
      ],
      "stateMutability": "view",
      "type": "function",
      "constant": true
    },
    {
      "inputs": [],
      "name": "getTokenInfo",
      "outputs": [
        {
          "internalType": "string",
          "name": "",
          "type": "string"
        },
        {
          "internalType": "string",
          "name": "",
          "type": "string"
        },
        {
          "components": [
            {
              "internalType": "uint256",
              "name": "totalMinted",
              "type": "uint256"
            },
            {
              "internalType": "uint256",
              "name": "totalBurned",
              "type": "uint256"
            },
            {
              "internalType": "int256",
              "name": "avRate",
              "type": "int256"
            },
            {
              "internalType": "bytes32",
              "name": "units",
              "type": "bytes32"
            },
            {
              "internalType": "address",
              "name": "issuer",
              "type": "address"
            },
            {
              "internalType": "string",
              "name": "myName",
              "type": "string"
            },
            {
              "internalType": "string",
              "name": "socialProfile",
              "type": "string"
            },
            {
              "internalType": "string",
              "name": "description",
              "type": "string"
            },
            {
              "components": [
                {
                  "internalType": "string",
                  "name": "country",
                  "type": "string"
                },
                {
                  "internalType": "string",
                  "name": "state",
                  "type": "string"
                },
                {
                  "internalType": "string",
                  "name": "city",
                  "type": "string"
                },
                {
                  "internalType": "string",
                  "name": "street",
                  "type": "string"
                }
              ],
              "internalType": "struct iIOUtoken.geo",
              "name": "location",
              "type": "tuple"
            },
            {
              "internalType": "bytes32[]",
              "name": "keywords",
              "type": "bytes32[]"
            },
            {
              "internalType": "bytes32",
              "name": "phone",
              "type": "bytes32"
            }
          ],
          "internalType": "struct iIOUtoken.DescriptionIOU",
          "name": "",
          "type": "tuple"
        }
      ],
      "stateMutability": "view",
      "type": "function",
      "constant": true
    }
  ],
  "bytecode": "0x608060405234801561001057600080fd5b50613777806100206000396000f3fe608060405234801561001057600080fd5b50600436106101f05760003560e01c806370a082311161010f578063abb1dc44116100a2578063d3fc986411610071578063d3fc98641461044a578063dd62ed3e1461045d578063f67ad23314610496578063fc9925b9146104a957600080fd5b8063abb1dc44146103f8578063ac6137ea1461040f578063b251131414610422578063d25b1c6d1461043757600080fd5b8063a1a613bb116100de578063a1a613bb1461039d578063a457c2d7146103b0578063a69bac24146103c3578063a9059cbb146103e557600080fd5b806370a08231146103495780637fdcf01f1461037257806395d89b411461038d5780639ee095061461039557600080fd5b8063188caf8a116101875780633950935111610156578063395093511461030857806358aee2701461031b5780636a3611b9146103235780636f8797241461033657600080fd5b8063188caf8a146102af5780631bbb6e58146102c257806323b872dd146102e6578063313ce567146102f957600080fd5b80630a576364116101c35780630a5763641461025e57806313af40351461027357806314fcf3151461028657806318160ddd146102a757600080fd5b806306fdde03146101f5578063070df2d214610213578063087cbd4014610228578063095ea7b31461023b575b600080fd5b6101fd6104c9565b60405161020a91906127b6565b60405180910390f35b6102266102213660046128de565b61055b565b005b610226610236366004612955565b6106cf565b61024e610249366004612972565b610853565b604051901515815260200161020a565b610266610869565b60405161020a9190612b20565b610226610281366004612955565b610d2c565b610299610294366004612972565b610e46565b60405190815260200161020a565b600254610299565b6102266102bd366004612b33565b610e77565b6102d56102d0366004612ba7565b610ffe565b60405161020a959493929190612bc0565b61024e6102f4366004612bfe565b6110d5565b6040516012815260200161020a565b61024e610316366004612972565b61117f565b6101fd6111bb565b610226610331366004612ba7565b6111ca565b610226610344366004612c87565b6112e5565b610299610357366004612955565b6001600160a01b031660009081526020819052604090205490565b601a546018546040805192835260208301919091520161020a565b6101fd61147e565b6101fd61148d565b6102266103ab366004612e8b565b611497565b61024e6103be366004612972565b611673565b6103d66103d1366004612ba7565b61170c565b60405161020a9392919061302e565b61024e6103f3366004612972565b6117d5565b610400611945565b60405161020a93929190613055565b61022661041d366004612b33565b611e21565b61042a611f3c565b60405161020a9190613098565b610299610445366004612972565b611f96565b6102266104583660046130dc565b611fb2565b61029961046b36600461311e565b6001600160a01b03918216600090815260016020908152604080832093909416825291909152205490565b6102266104a4366004613157565b61213c565b6104bc6104b7366004612955565b612257565b60405161020a9190613198565b6060600380546104d8906131f0565b80601f0160208091040260200160405190810160405280929190818152602001828054610504906131f0565b80156105515780601f1061052657610100808354040283529160200191610551565b820191906000526020600020905b81548152906001019060200180831161053457829003601f168201915b5050505050905090565b33600090815260208190526040902054839081106105945760405162461bcd60e51b815260040161058b9061322b565b60405180910390fd5b600080601d60009054906101000a90046001600160a01b03166001600160a01b0316638c6a2cde6040518163ffffffff1660e01b8152600401602060405180830381865afa1580156105ea573d6000803e3d6000fd5b505050506040513d601f19601f8201168201806040525081019061060e9190613278565b6001600160a01b031686868660405160240161062c93929190613295565b60408051601f198184030181529181526020820180516001600160e01b0316630386f96960e11b1790525161066191906132b4565b600060405180830381855af49150503d806000811461069c576040519150601f19603f3d011682016040523d82523d6000602084013e6106a1565b606091505b50915091508181906106c65760405162461bcd60e51b815260040161058b91906127b6565b50505050505050565b601c54604051336001600160a01b03909216828114926106f1926020016132d0565b6040516020818303038152906040529061071e5760405162461bcd60e51b815260040161058b91906127b6565b50600080601d60009054906101000a90046001600160a01b03166001600160a01b0316638c6a2cde6040518163ffffffff1660e01b8152600401602060405180830381865afa158015610775573d6000803e3d6000fd5b505050506040513d601f19601f820116820180604052508101906107999190613278565b6040516001600160a01b038581166024830152919091169060440160408051601f198184030181529181526020820180516001600160e01b03166221f2f560e61b179052516107e891906132b4565b600060405180830381855af49150503d8060008114610823576040519150601f19603f3d011682016040523d82523d6000602084013e610828565b606091505b509150915081819061084d5760405162461bcd60e51b815260040161058b91906127b6565b50505050565b60006108603384846123b7565b50600192915050565b6108716126a9565b6040805161016081018252600a80548252600b546020830152600c5492820192909252600d546060820152600e546001600160a01b03166080820152600f805491929160a0840191906108c3906131f0565b80601f01602080910402602001604051908101604052809291908181526020018280546108ef906131f0565b801561093c5780601f106109115761010080835404028352916020019161093c565b820191906000526020600020905b81548152906001019060200180831161091f57829003601f168201915b50505050508152602001600682018054610955906131f0565b80601f0160208091040260200160405190810160405280929190818152602001828054610981906131f0565b80156109ce5780601f106109a3576101008083540402835291602001916109ce565b820191906000526020600020905b8154815290600101906020018083116109b157829003601f168201915b505050505081526020016007820180546109e7906131f0565b80601f0160208091040260200160405190810160405280929190818152602001828054610a13906131f0565b8015610a605780601f10610a3557610100808354040283529160200191610a60565b820191906000526020600020905b815481529060010190602001808311610a4357829003601f168201915b5050505050815260200160088201604051806080016040529081600082018054610a89906131f0565b80601f0160208091040260200160405190810160405280929190818152602001828054610ab5906131f0565b8015610b025780601f10610ad757610100808354040283529160200191610b02565b820191906000526020600020905b815481529060010190602001808311610ae557829003601f168201915b50505050508152602001600182018054610b1b906131f0565b80601f0160208091040260200160405190810160405280929190818152602001828054610b47906131f0565b8015610b945780601f10610b6957610100808354040283529160200191610b94565b820191906000526020600020905b815481529060010190602001808311610b7757829003601f168201915b50505050508152602001600282018054610bad906131f0565b80601f0160208091040260200160405190810160405280929190818152602001828054610bd9906131f0565b8015610c265780601f10610bfb57610100808354040283529160200191610c26565b820191906000526020600020905b815481529060010190602001808311610c0957829003601f168201915b50505050508152602001600382018054610c3f906131f0565b80601f0160208091040260200160405190810160405280929190818152602001828054610c6b906131f0565b8015610cb85780601f10610c8d57610100808354040283529160200191610cb8565b820191906000526020600020905b815481529060010190602001808311610c9b57829003601f168201915b5050505050815250508152602001600c8201805480602002602001604051908101604052809291908181526020018280548015610d1457602002820191906000526020600020905b815481526020019060010190808311610d00575b50505050508152602001600d82015481525050905090565b601c54604051336001600160a01b0390921682811492610d4e926020016132d0565b60405160208183030381529060405290610d7b5760405162461bcd60e51b815260040161058b91906127b6565b50600080601d60009054906101000a90046001600160a01b03166001600160a01b0316638c6a2cde6040518163ffffffff1660e01b8152600401602060405180830381865afa158015610dd2573d6000803e3d6000fd5b505050506040513d601f19601f82011682018060405250810190610df69190613278565b6040516001600160a01b038581166024830152919091169060440160408051601f198184030181529181526020820180516001600160e01b03166313af403560e01b179052516107e891906132b4565b601b6020528160005260406000208181548110610e6257600080fd5b90600052602060002001600091509150505481565b601c54604051336001600160a01b0390921682811492610e99926020016132d0565b60405160208183030381529060405290610ec65760405162461bcd60e51b815260040161058b91906127b6565b50600080601d60009054906101000a90046001600160a01b03166001600160a01b0316638c6a2cde6040518163ffffffff1660e01b8152600401602060405180830381865afa158015610f1d573d6000803e3d6000fd5b505050506040513d601f19601f82011682018060405250810190610f419190613278565b6001600160a01b03168484604051602401610f5d92919061331e565b60408051601f198184030181529181526020820180516001600160e01b0316630c4657c560e11b17905251610f9291906132b4565b600060405180830381855af49150503d8060008114610fcd576040519150601f19603f3d011682016040523d82523d6000602084013e610fd2565b606091505b5091509150818190610ff75760405162461bcd60e51b815260040161058b91906127b6565b5050505050565b6018818154811061100e57600080fd5b6000918252602090912060059091020180546001820154600283015460038401546004850180546001600160a01b03909516965092949193909290611052906131f0565b80601f016020809104026020016040519081016040528092919081815260200182805461107e906131f0565b80156110cb5780601f106110a0576101008083540402835291602001916110cb565b820191906000526020600020905b8154815290600101906020018083116110ae57829003601f168201915b5050505050905085565b60006110e28484846124db565b6001600160a01b0384166000908152600160209081526040808320338452909152902054828110156111675760405162461bcd60e51b815260206004820152602860248201527f45524332303a207472616e7366657220616d6f756e74206578636565647320616044820152676c6c6f77616e636560c01b606482015260840161058b565b61117485338584036123b7565b506001949350505050565b3360008181526001602090815260408083206001600160a01b038716845290915281205490916108609185906111b690869061335a565b6123b7565b60606111c561147e565b905090565b601c54604051336001600160a01b03909216828114926111ec926020016132d0565b604051602081830303815290604052906112195760405162461bcd60e51b815260040161058b91906127b6565b50600080601d60009054906101000a90046001600160a01b03166001600160a01b0316638c6a2cde6040518163ffffffff1660e01b8152600401602060405180830381865afa158015611270573d6000803e3d6000fd5b505050506040513d601f19601f820116820180604052508101906112949190613278565b6001600160a01b0316836040516024016112b091815260200190565b60408051601f198184030181529181526020820180516001600160e01b0316636a3611b960e01b179052516107e891906132b4565b601c54604051336001600160a01b0390921682811492611307926020016132d0565b604051602081830303815290604052906113345760405162461bcd60e51b815260040161058b91906127b6565b50600080601d60009054906101000a90046001600160a01b03166001600160a01b0316638c6a2cde6040518163ffffffff1660e01b8152600401602060405180830381865afa15801561138b573d6000803e3d6000fd5b505050506040513d601f19601f820116820180604052508101906113af9190613278565b6001600160a01b03168a8a8a8a8a8a8a8a6040516024016113d79897969594939291906133a9565b60408051601f198184030181529181526020820180516001600160e01b0316631be1e5c960e21b1790525161140c91906132b4565b600060405180830381855af49150503d8060008114611447576040519150601f19603f3d011682016040523d82523d6000602084013e61144c565b606091505b50915091508181906114715760405162461bcd60e51b815260040161058b91906127b6565b5050505050505050505050565b6060600480546104d8906131f0565b60606111c56104c9565b60008190506000816001600160a01b0316638c6a2cde6040518163ffffffff1660e01b8152600401602060405180830381865afa1580156114dc573d6000803e3d6000fd5b505050506040513d601f19601f820116820180604052508101906115009190613278565b60408051600481526024810182526020810180516001600160e01b031663204a7f0760e21b179052905191925060009182916001600160a01b0385169161154791906132b4565b600060405180830381855af49150503d8060008114611582576040519150601f19603f3d011682016040523d82523d6000602084013e611587565b606091505b50915091508181906115ac5760405162461bcd60e51b815260040161058b91906127b6565b50826001600160a01b0316888888886040516024016115ce9493929190613409565b60408051601f198184030181529181526020820180516001600160e01b031663a1a613bb60e01b1790525161160391906132b4565b600060405180830381855af49150503d806000811461163e576040519150601f19603f3d011682016040523d82523d6000602084013e611643565b606091505b50909250905080826116685760405162461bcd60e51b815260040161058b91906127b6565b505050505050505050565b3360009081526001602090815260408083206001600160a01b0386168452909152812054828110156116f55760405162461bcd60e51b815260206004820152602560248201527f45524332303a2064656372656173656420616c6c6f77616e63652062656c6f77604482015264207a65726f60d81b606482015260840161058b565b61170233858584036123b7565b5060019392505050565b601a818154811061171c57600080fd5b60009182526020909120600390910201805460018201546002830180546001600160a01b039093169450909291611752906131f0565b80601f016020809104026020016040519081016040528092919081815260200182805461177e906131f0565b80156117cb5780601f106117a0576101008083540402835291602001916117cb565b820191906000526020600020905b8154815290600101906020018083116117ae57829003601f168201915b5050505050905083565b33600090815260208190526040812054829081106118055760405162461bcd60e51b815260040161058b9061322b565b600080601d60009054906101000a90046001600160a01b03166001600160a01b0316638c6a2cde6040518163ffffffff1660e01b8152600401602060405180830381865afa15801561185b573d6000803e3d6000fd5b505050506040513d601f19601f8201168201806040525081019061187f9190613278565b6040516001600160a01b03888116602483015260448201889052919091169060640160408051601f198184030181529181526020820180516001600160e01b031663a9059cbb60e01b179052516118d691906132b4565b600060405180830381855af49150503d8060008114611911576040519150601f19603f3d011682016040523d82523d6000602084013e611916565b606091505b509150915081819061193b5760405162461bcd60e51b815260040161058b91906127b6565b5050505092915050565b6060806119506126a9565b6119586104c9565b61196061147e565b6040805161016081018252600a80548252600b546020830152600c5492820192909252600d546060820152600e546001600160a01b03166080820152600f8054839160a08401916119b0906131f0565b80601f01602080910402602001604051908101604052809291908181526020018280546119dc906131f0565b8015611a295780601f106119fe57610100808354040283529160200191611a29565b820191906000526020600020905b815481529060010190602001808311611a0c57829003601f168201915b50505050508152602001600682018054611a42906131f0565b80601f0160208091040260200160405190810160405280929190818152602001828054611a6e906131f0565b8015611abb5780601f10611a9057610100808354040283529160200191611abb565b820191906000526020600020905b815481529060010190602001808311611a9e57829003601f168201915b50505050508152602001600782018054611ad4906131f0565b80601f0160208091040260200160405190810160405280929190818152602001828054611b00906131f0565b8015611b4d5780601f10611b2257610100808354040283529160200191611b4d565b820191906000526020600020905b815481529060010190602001808311611b3057829003601f168201915b5050505050815260200160088201604051806080016040529081600082018054611b76906131f0565b80601f0160208091040260200160405190810160405280929190818152602001828054611ba2906131f0565b8015611bef5780601f10611bc457610100808354040283529160200191611bef565b820191906000526020600020905b815481529060010190602001808311611bd257829003601f168201915b50505050508152602001600182018054611c08906131f0565b80601f0160208091040260200160405190810160405280929190818152602001828054611c34906131f0565b8015611c815780601f10611c5657610100808354040283529160200191611c81565b820191906000526020600020905b815481529060010190602001808311611c6457829003601f168201915b50505050508152602001600282018054611c9a906131f0565b80601f0160208091040260200160405190810160405280929190818152602001828054611cc6906131f0565b8015611d135780601f10611ce857610100808354040283529160200191611d13565b820191906000526020600020905b815481529060010190602001808311611cf657829003601f168201915b50505050508152602001600382018054611d2c906131f0565b80601f0160208091040260200160405190810160405280929190818152602001828054611d58906131f0565b8015611da55780601f10611d7a57610100808354040283529160200191611da5565b820191906000526020600020905b815481529060010190602001808311611d8857829003601f168201915b5050505050815250508152602001600c8201805480602002602001604051908101604052809291908181526020018280548015611e0157602002820191906000526020600020905b815481526020019060010190808311611ded575b50505050508152602001600d820154815250509050925092509250909192565b601c54604051336001600160a01b0390921682811492611e43926020016132d0565b60405160208183030381529060405290611e705760405162461bcd60e51b815260040161058b91906127b6565b50600080601d60009054906101000a90046001600160a01b03166001600160a01b0316638c6a2cde6040518163ffffffff1660e01b8152600401602060405180830381865afa158015611ec7573d6000803e3d6000fd5b505050506040513d601f19601f82011682018060405250810190611eeb9190613278565b6001600160a01b03168484604051602401611f0792919061331e565b60408051601f198184030181529181526020820180516001600160e01b03166356309bf560e11b17905251610f9291906132b4565b6060600a600c0180548060200260200160405190810160405280929190818152602001828054801561055157602002820191906000526020600020905b815481526020019060010190808311611f79575050505050905090565b60196020528160005260406000208181548110610e6257600080fd5b601c54604051336001600160a01b0390921682811492611fd4926020016132d0565b604051602081830303815290604052906120015760405162461bcd60e51b815260040161058b91906127b6565b50600080601d60009054906101000a90046001600160a01b03166001600160a01b0316638c6a2cde6040518163ffffffff1660e01b8152600401602060405180830381865afa158015612058573d6000803e3d6000fd5b505050506040513d601f19601f8201168201806040525081019061207c9190613278565b6001600160a01b031685858560405160240161209a9392919061302e565b60408051601f198184030181529181526020820180516001600160e01b03166334ff261960e21b179052516120cf91906132b4565b600060405180830381855af49150503d806000811461210a576040519150601f19603f3d011682016040523d82523d6000602084013e61210f565b606091505b50915091508181906121345760405162461bcd60e51b815260040161058b91906127b6565b505050505050565b601c54604051336001600160a01b039092168281149261215e926020016132d0565b6040516020818303038152906040529061218b5760405162461bcd60e51b815260040161058b91906127b6565b50600080601d60009054906101000a90046001600160a01b03166001600160a01b0316638c6a2cde6040518163ffffffff1660e01b8152600401602060405180830381865afa1580156121e2573d6000803e3d6000fd5b505050506040513d601f19601f820116820180604052508101906122069190613278565b6001600160a01b0316848460405160240161222292919061345c565b60408051601f198184030181529181526020820180516001600160e01b031663f67ad23360e01b17905251610f9291906132b4565b61225f612738565b600082905060006040518060600160405280836001600160a01b0316639ee095066040518163ffffffff1660e01b8152600401600060405180830381865afa1580156122af573d6000803e3d6000fd5b505050506040513d6000823e601f3d908101601f191682016040526122d791908101906134bd565b8152602001836001600160a01b03166358aee2706040518163ffffffff1660e01b8152600401600060405180830381865afa15801561231a573d6000803e3d6000fd5b505050506040513d6000823e601f3d908101601f1916820160405261234291908101906134bd565b8152602001836001600160a01b0316630a5763646040518163ffffffff1660e01b8152600401600060405180830381865afa158015612385573d6000803e3d6000fd5b505050506040513d6000823e601f3d908101601f191682016040526123ad91908101906135f8565b9052949350505050565b6001600160a01b0383166124195760405162461bcd60e51b8152602060048201526024808201527f45524332303a20617070726f76652066726f6d20746865207a65726f206164646044820152637265737360e01b606482015260840161058b565b6001600160a01b03821661247a5760405162461bcd60e51b815260206004820152602260248201527f45524332303a20617070726f766520746f20746865207a65726f206164647265604482015261737360f01b606482015260840161058b565b6001600160a01b0383811660008181526001602090815260408083209487168084529482529182902085905590518481527f8c5be1e5ebec7d5bd14f71427d1e84f3dd0314c0f7b2291e5b200ac8c7c3b925910160405180910390a3505050565b6001600160a01b03831661253f5760405162461bcd60e51b815260206004820152602560248201527f45524332303a207472616e736665722066726f6d20746865207a65726f206164604482015264647265737360d81b606482015260840161058b565b6001600160a01b0382166125a15760405162461bcd60e51b815260206004820152602360248201527f45524332303a207472616e7366657220746f20746865207a65726f206164647260448201526265737360e81b606482015260840161058b565b6001600160a01b038316600090815260208190526040902054818110156126195760405162461bcd60e51b815260206004820152602660248201527f45524332303a207472616e7366657220616d6f756e7420657863656564732062604482015265616c616e636560d01b606482015260840161058b565b6001600160a01b0380851660009081526020819052604080822085850390559185168152908120805484929061265090849061335a565b92505081905550826001600160a01b0316846001600160a01b03167fddf252ad1be2c89b69c2b068fc378daa952ba7f163c4a11628f55a4df523b3ef8460405161269c91815260200190565b60405180910390a361084d565b6040518061016001604052806000815260200160008152602001600081526020016000801916815260200160006001600160a01b031681526020016060815260200160608152602001606081526020016127246040518060800160405280606081526020016060815260200160608152602001606081525090565b815260606020820152600060409091015290565b604051806060016040528060608152602001606081526020016127596126a9565b905290565b60005b83811015612779578181015183820152602001612761565b8381111561084d5750506000910152565b600081518084526127a281602086016020860161275e565b601f01601f19169290920160200192915050565b6020815260006127c9602083018461278a565b9392505050565b634e487b7160e01b600052604160045260246000fd5b604051608081016001600160401b0381118282101715612808576128086127d0565b60405290565b60405161016081016001600160401b0381118282101715612808576128086127d0565b604051601f8201601f191681016001600160401b0381118282101715612859576128596127d0565b604052919050565b60006001600160401b0382111561287a5761287a6127d0565b50601f01601f191660200190565b600082601f83011261289957600080fd5b81356128ac6128a782612861565b612831565b8181528460208386010111156128c157600080fd5b816020850160208301376000918101602001919091529392505050565b6000806000606084860312156128f357600080fd5b833592506020840135915060408401356001600160401b0381111561291757600080fd5b61292386828701612888565b9150509250925092565b6001600160a01b038116811461294257600080fd5b50565b80356129508161292d565b919050565b60006020828403121561296757600080fd5b81356127c98161292d565b6000806040838503121561298557600080fd5b82356129908161292d565b946020939093013593505050565b60008151608084526129b3608085018261278a565b9050602083015184820360208601526129cc828261278a565b915050604083015184820360408601526129e6828261278a565b91505060608301518482036060860152612a00828261278a565b95945050505050565b600081518084526020808501945080840160005b83811015612a3957815187529582019590820190600101612a1d565b509495945050505050565b6000610160825184526020830151602085015260408301516040850152606083015160608501526080830151612a8560808601826001600160a01b03169052565b5060a08301518160a0860152612a9d8286018261278a565b91505060c083015184820360c0860152612ab7828261278a565b91505060e083015184820360e0860152612ad1828261278a565b9150506101008084015185830382870152612aec838261299e565b925050506101208084015185830382870152612b088382612a09565b61014095860151969095019590955250919392505050565b6020815260006127c96020830184612a44565b60008060208385031215612b4657600080fd5b82356001600160401b0380821115612b5d57600080fd5b818501915085601f830112612b7157600080fd5b813581811115612b8057600080fd5b8660208260051b8501011115612b9557600080fd5b60209290920196919550909350505050565b600060208284031215612bb957600080fd5b5035919050565b60018060a01b038616815284602082015283604082015282606082015260a060808201526000612bf360a083018461278a565b979650505050505050565b600080600060608486031215612c1357600080fd5b8335612c1e8161292d565b92506020840135612c2e8161292d565b929592945050506040919091013590565b60008083601f840112612c5157600080fd5b5081356001600160401b03811115612c6857600080fd5b602083019150836020828501011115612c8057600080fd5b9250929050565b6000806000806000806000806080898b031215612ca357600080fd5b88356001600160401b0380821115612cba57600080fd5b612cc68c838d01612c3f565b909a50985060208b0135915080821115612cdf57600080fd5b612ceb8c838d01612c3f565b909850965060408b0135915080821115612d0457600080fd5b612d108c838d01612c3f565b909650945060608b0135915080821115612d2957600080fd5b50612d368b828c01612c3f565b999c989b5096995094979396929594505050565b600060808284031215612d5c57600080fd5b612d646127e6565b905081356001600160401b0380821115612d7d57600080fd5b612d8985838601612888565b83526020840135915080821115612d9f57600080fd5b612dab85838601612888565b60208401526040840135915080821115612dc457600080fd5b612dd085838601612888565b60408401526060840135915080821115612de957600080fd5b50612df684828501612888565b60608301525092915050565b60006001600160401b03821115612e1b57612e1b6127d0565b5060051b60200190565b600082601f830112612e3657600080fd5b81356020612e466128a783612e02565b82815260059290921b84018101918181019086841115612e6557600080fd5b8286015b84811015612e805780358352918301918301612e69565b509695505050505050565b60008060008060808587031215612ea157600080fd5b84356001600160401b0380821115612eb857600080fd5b612ec488838901612888565b95506020870135915080821115612eda57600080fd5b612ee688838901612888565b94506040870135915080821115612efc57600080fd5b908601906101608289031215612f1157600080fd5b612f1961280e565b82358152602083013560208201526040830135604082015260608301356060820152612f4760808401612945565b608082015260a083013582811115612f5e57600080fd5b612f6a8a828601612888565b60a08301525060c083013582811115612f8257600080fd5b612f8e8a828601612888565b60c08301525060e083013582811115612fa657600080fd5b612fb28a828601612888565b60e0830152506101008084013583811115612fcc57600080fd5b612fd88b828701612d4a565b8284015250506101208084013583811115612ff257600080fd5b612ffe8b828701612e25565b8284015250506101409150818301358282015280945050505061302360608601612945565b905092959194509250565b60018060a01b0384168152826020820152606060408201526000612a00606083018461278a565b606081526000613068606083018661278a565b828103602084015261307a818661278a565b9050828103604084015261308e8185612a44565b9695505050505050565b6020808252825182820181905260009190848201906040850190845b818110156130d0578351835292840192918401916001016130b4565b50909695505050505050565b6000806000606084860312156130f157600080fd5b83356130fc8161292d565b92506020840135915060408401356001600160401b0381111561291757600080fd5b6000806040838503121561313157600080fd5b823561313c8161292d565b9150602083013561314c8161292d565b809150509250929050565b6000806020838503121561316a57600080fd5b82356001600160401b0381111561318057600080fd5b61318c85828601612c3f565b90969095509350505050565b6020815260008251606060208401526131b4608084018261278a565b90506020840151601f19808584030160408601526131d2838361278a565b9250604086015191508085840301606086015250612a008282612a44565b600181811c9082168061320457607f821691505b6020821081141561322557634e487b7160e01b600052602260045260246000fd5b50919050565b60208082526022908201527f4e6f20616d6f756e7420746f6b656e20686f6c64657220686173202870726f78604082015261792960f01b606082015260800190565b80516129508161292d565b60006020828403121561328a57600080fd5b81516127c98161292d565b838152826020820152606060408201526000612a00606083018461278a565b600082516132c681846020870161275e565b9190910192915050565b6060808252601e908201527f4f6e6c79206f776e65722063616e20646f2074686973202870726f787929000060808201526001600160a01b0392831660208201529116604082015260a00190565b6020808252810182905260006001600160fb1b0383111561333e57600080fd5b8260051b80856040850137600092016040019182525092915050565b6000821982111561337b57634e487b7160e01b600052601160045260246000fd5b500190565b81835281816020850137506000828201602090810191909152601f909101601f19169091010190565b6080815260006133bd608083018a8c613380565b82810360208401526133d081898b613380565b905082810360408401526133e5818789613380565b905082810360608401526133fa818587613380565b9b9a5050505050505050505050565b60808152600061341c608083018761278a565b828103602084015261342e818761278a565b905082810360408401526134428186612a44565b91505060018060a01b038316606083015295945050505050565b602081526000613470602083018486613380565b949350505050565b600082601f83011261348957600080fd5b81516134976128a782612861565b8181528460208386010111156134ac57600080fd5b61347082602083016020870161275e565b6000602082840312156134cf57600080fd5b81516001600160401b038111156134e557600080fd5b61347084828501613478565b60006080828403121561350357600080fd5b61350b6127e6565b905081516001600160401b038082111561352457600080fd5b61353085838601613478565b8352602084015191508082111561354657600080fd5b61355285838601613478565b6020840152604084015191508082111561356b57600080fd5b61357785838601613478565b6040840152606084015191508082111561359057600080fd5b50612df684828501613478565b600082601f8301126135ae57600080fd5b815160206135be6128a783612e02565b82815260059290921b840181019181810190868411156135dd57600080fd5b8286015b84811015612e8057805183529183019183016135e1565b60006020828403121561360a57600080fd5b81516001600160401b038082111561362157600080fd5b90830190610160828603121561363657600080fd5b61363e61280e565b8251815260208301516020820152604083015160408201526060830151606082015261366c6080840161326d565b608082015260a08301518281111561368357600080fd5b61368f87828601613478565b60a08301525060c0830151828111156136a757600080fd5b6136b387828601613478565b60c08301525060e0830151828111156136cb57600080fd5b6136d787828601613478565b60e08301525061010080840151838111156136f157600080fd5b6136fd888287016134f1565b828401525050610120808401518381111561371757600080fd5b6137238882870161359d565b9183019190915250610140928301519281019290925250939250505056fea2646970667358221220d23b6e63984b8db6719b260f9a29eb60b3bb6d4ba64a1f75052a192567b0034764736f6c634300080a0033",
  "immutableReferences": {},
  "source": "pragma solidity >= 0.8.0;\npragma experimental ABIEncoderV2;\nimport  \"./IOUtoken.sol\";\nimport  \"./interfaces/iStoreIOUs.sol\";\n\n//import \"@openzeppelin/contracts/proxy/transparent/TransparentUpgradeableProxy.sol\";\n\ncontract ProxyIOU   is IOUData /*,TransparentUpgradeableProxy */  {  \n   // address implementation;\n/*     constructor(\n        address _logic,\n        address admin_\n    ) payable TransparentUpgradeableProxy(_logic, admin_, \"\") {\n        assert(_ADMIN_SLOT == bytes32(uint256(keccak256(\"eip1967.proxy.admin\")) - 1));\n        _changeAdmin(admin_);\n    } */\n    \n     modifier onlyOwner() {\n        require (owner == msg.sender, string(abi.encode(\"Only owner can do this (proxy)\", owner, msg.sender)));\n        _;\n    }\n\n\n    modifier nonInited () {\n        require(!inited, \"Already inited (proxy)\");\n        _;\n        inited = true;\n\n    }\n\n    modifier nonConfiged () {\n        require(!configured, \"Already configured (proxy)\");\n        _;\n        configured = true;\n\n    }\n\n    modifier onlyHolder (uint256 _amount) {\n        require (balanceOf(msg.sender) > _amount, \"No amount token holder has (proxy)\" );\n    _;\n    }\n/*    function _getRevertMsg(bytes memory _res) internal pure returns (string memory) {\n    // If the _res length is less than 68, then the transaction failed silently (without a revert message)\n    if (_res.length < 68) return 'Transaction reverted silently';\n    bytes memory revertData = _res.slice(4, _res.length - 4); // Remove the selector which is the first 4 bytes\n    return abi.decode(revertData, (string)); // All that remains is the revert string\n} */\n     function setIOU (//    constructor (\n                string memory name_, \n                string memory symbol_, \n                iIOUtoken.DescriptionIOU memory _thisIOU,\n                 address _store                 ) /* nonConfiged */ external {\n     //   implementation = _implementation;\n//        initialize();\n        iStoreIOUs store1 = iStoreIOUs(_store);\n        address impl = store1.implIOU();\n        (bool success, bytes memory returnedData) = impl.delegatecall(abi.encodeWithSignature(\n        ((\"initialize()\")) \n    ));\n        require(success, string (returnedData));\n        /*  info for encodeWithSignature for function setIOU\n         (//  as a  constructor (\n        \n                string memory name_, \n                string memory symbol_, \n                DescriptionIOU memory _thisIOU,\n                 address _store, \n                address _implementation\n            )  external;\n\n    struct geo {\n        string country;\n        string state;\n        string city;\n        string street;\n    }\n\n    struct DescriptionIOU {\n        uint256 totalMinted;\n        uint256 totalBurned;\n        int256 avRate;\n        bytes32 units;        \n        address issuer;\n        string myName ; //name of emitter\n        string socialProfile ; //profile  of emitter in social nets\n        string description ; //description of bond IOU to  work\n        geo location; //where is it             \n        bytes32[] keywords;\n        bytes32 phone;\n    }\n */\n        ( success,  returnedData) = impl.delegatecall(abi.encodeWithSignature( //\"0x90c29670\"\n            \"setIOU(string,string,(uint256,uint256,int256,bytes32,address,string,string,string,(string,string,string,string),bytes32[],bytes32),address)\",\n            name_,\n            symbol_,\n            _thisIOU,\n            _store\n            ));\n\n    require(success, string (returnedData));\n    } \n \n/*     function initialize() nonInited public {\n        (bool success, bytes memory returnedData) = store.implIOU().delegatecall(abi.encodeWithSignature(\n        ((\"initialize()\"))\n    ));\n        require(success, string (returnedData));\n\n    } */\n\n    function setStore (address _newOwner) public  onlyOwner {\n        //store = iStoreIOUs(_newOwner);\n        (bool success, bytes memory returnedData) = store.implIOU().delegatecall(abi.encodeWithSignature(\n        ((\"setStore(address)\")), _newOwner));\n        require(success, string (returnedData));\n\n    }   \n\n    function setOwner (address _newOwner) public  onlyOwner {\n\n        (bool success, bytes memory returnedData) = store.implIOU().delegatecall(abi.encodeWithSignature(\n        ((\"setOwner(address)\")), _newOwner));\n        require(success, string (returnedData));\n    }\n\n    function mint (address _who, uint256 _amount, string memory _descr) public onlyOwner { \n\n        (bool success, bytes memory returnedData) = store.implIOU().delegatecall(abi.encodeWithSignature(\n        ((\"mint(address,uint256,string)\")), \n        _who, _amount,  _descr));\n        require(success, string (returnedData));\n    }\n    function burn (uint256 _amount, int256 _rating, string memory _feedback) onlyHolder  (_amount) public {\n        \n        (bool success, bytes memory returnedData) = store.implIOU().delegatecall(abi.encodeWithSignature(\n        ((\"burn(uint256,int256,string)\")), \n         _amount, _rating, _feedback));\n        require(success, string (returnedData));\n        }\n\n    function transfer(address _recipient, uint256 _amount) onlyHolder(_amount) public override returns (bool) {   \n                (bool success, bytes memory returnedData) = store.implIOU().delegatecall(abi.encodeWithSignature(\n        ((\"transfer(address,uint256)\")), \n         _recipient, _amount));\n        require(success, string (returnedData));\n        }\n\n\n    function editDescr (string calldata _descr)  public onlyOwner {\n       (bool success, bytes memory returnedData) = store.implIOU().delegatecall(abi.encodeWithSignature(\n        ((\"editDescr(string)\")), \n         _descr));\n        require(success, string (returnedData));\n    }\n\n    function editPhone (bytes32 _phone)  public onlyOwner {\n        (bool success, bytes memory returnedData) = store.implIOU().delegatecall(abi.encodeWithSignature(\n        ((\"editPhone(bytes32)\")), \n         _phone));\n        require(success, string (returnedData));    \n        }\n\n    function editGeo (string calldata _country,\n                    string calldata _state,\n                    string calldata _city,\n                    string calldata _street)  public onlyOwner {\n        (bool success, bytes memory returnedData) = store.implIOU().delegatecall(abi.encodeWithSignature(\n        ((\"editGeo(string,string,string,string)\")), \n         _country, _state,_city,_street));\n        require(success, string (returnedData));    \n    }\n    function addKeys (bytes32[] calldata _keys)  public onlyOwner { \n        (bool success, bytes memory returnedData) = store.implIOU().delegatecall(abi.encodeWithSignature(\n        ((\"addKeys(bytes32[])\")), \n         _keys));\n        require(success, string (returnedData)); \n    }\n    function delKeys (bytes32[] calldata _keys)  public onlyOwner {\n           (bool success, bytes memory returnedData) = store.implIOU().delegatecall(abi.encodeWithSignature(\n        ((\"delKeys(bytes32[])\")), \n         _keys));\n        require(success, string (returnedData)); \n    }\n\n    function getIOU (address _iou) public view returns ( iIOUtoken.IOUdescr memory) {\n        iIOUtoken iouT = iIOUtoken(_iou);\n        iIOUtoken.IOUdescr memory iouD = iIOUtoken.IOUdescr (iouT.IOUname(), iouT.IOUsymbol(), iouT.thisIOUDesc()  );\n        return iouD;\n}\n\n    function thisIOUkeywords() public view returns (bytes32[] memory)\n    {\n        return thisIOU.keywords;\n    }\n\n    function getlen ()  public view returns (uint256, uint256) {\n        return (allIOUs.length, allFeedbacks.length);\n    } \n\n    function thisIOUDesc () public view  returns (iIOUtoken.DescriptionIOU memory)\n    {    return thisIOU;\n    }\n    function IOUname () public view  returns (string memory)\n    {    return name();\n    }\n    function IOUsymbol () public view  returns (string memory)\n    {    return symbol ();\n    }\n\n\n    function getTokenInfo() public view returns(string memory,\n                                           string memory,\n                                           iIOUtoken.DescriptionIOU memory ) {\n        return(name(), symbol(), thisIOU);\n\n    }\n\n}",
  "sourcePath": "/mnt/512-2/dfd/iou2/contracts/ProxyIOU.sol",
  "compiler": {
    "name": "solc",
    "version": "0.8.10+commit.fc410830.Emscripten.clang"
  },
  "schemaVersion": "3.4.4",
  "updatedAt": "2022-02-17T11:58:54.816Z",
  "networkType": "ethereum",
  "devdoc": {
    "kind": "dev",
    "methods": {
      "allowance(address,address)": {
        "details": "See {IERC20-allowance}."
      },
      "approve(address,uint256)": {
        "details": "See {IERC20-approve}. Requirements: - `spender` cannot be the zero address."
      },
      "balanceOf(address)": {
        "details": "See {IERC20-balanceOf}."
      },
      "decimals()": {
        "details": "Returns the number of decimals used to get its user representation. For example, if `decimals` equals `2`, a balance of `505` tokens should be displayed to a user as `5.05` (`505 / 10 ** 2`). Tokens usually opt for a value of 18, imitating the relationship between Ether and Wei. This is the value {ERC20} uses, unless this function is overridden; NOTE: This information is only used for _display_ purposes: it in no way affects any of the arithmetic of the contract, including {IERC20-balanceOf} and {IERC20-transfer}."
      },
      "decreaseAllowance(address,uint256)": {
        "details": "Atomically decreases the allowance granted to `spender` by the caller. This is an alternative to {approve} that can be used as a mitigation for problems described in {IERC20-approve}. Emits an {Approval} event indicating the updated allowance. Requirements: - `spender` cannot be the zero address. - `spender` must have allowance for the caller of at least `subtractedValue`."
      },
      "increaseAllowance(address,uint256)": {
        "details": "Atomically increases the allowance granted to `spender` by the caller. This is an alternative to {approve} that can be used as a mitigation for problems described in {IERC20-approve}. Emits an {Approval} event indicating the updated allowance. Requirements: - `spender` cannot be the zero address."
      },
      "name()": {
        "details": "Returns the name of the token."
      },
      "symbol()": {
        "details": "Returns the symbol of the token, usually a shorter version of the name."
      },
      "totalSupply()": {
        "details": "See {IERC20-totalSupply}."
      },
      "transferFrom(address,address,uint256)": {
        "details": "See {IERC20-transferFrom}. Emits an {Approval} event indicating the updated allowance. This is not required by the EIP. See the note at the beginning of {ERC20}. Requirements: - `sender` and `recipient` cannot be the zero address. - `sender` must have a balance of at least `amount`. - the caller must have allowance for ``sender``'s tokens of at least `amount`."
      }
    },
    "version": 1
  },
  "userdoc": {
    "kind": "user",
    "methods": {},
    "version": 1
  }
}