{
  "contractName": "ProxyIOU",
  "abi": [
    {
      "inputs": [
        {
          "internalType": "address",
          "name": "_logic",
          "type": "address"
        },
        {
          "internalType": "address",
          "name": "admin_",
          "type": "address"
        }
      ],
      "stateMutability": "payable",
      "type": "constructor",
      "payable": true
    },
    {
      "anonymous": false,
      "inputs": [
        {
          "indexed": false,
          "internalType": "address",
          "name": "previousAdmin",
          "type": "address"
        },
        {
          "indexed": false,
          "internalType": "address",
          "name": "newAdmin",
          "type": "address"
        }
      ],
      "name": "AdminChanged",
      "type": "event"
    },
    {
      "anonymous": false,
      "inputs": [
        {
          "indexed": true,
          "internalType": "address",
          "name": "beacon",
          "type": "address"
        }
      ],
      "name": "BeaconUpgraded",
      "type": "event"
    },
    {
      "anonymous": false,
      "inputs": [
        {
          "indexed": true,
          "internalType": "address",
          "name": "implementation",
          "type": "address"
        }
      ],
      "name": "Upgraded",
      "type": "event"
    },
    {
      "stateMutability": "payable",
      "type": "fallback",
      "payable": true
    },
    {
      "inputs": [],
      "name": "admin",
      "outputs": [
        {
          "internalType": "address",
          "name": "admin_",
          "type": "address"
        }
      ],
      "stateMutability": "nonpayable",
      "type": "function"
    },
    {
      "inputs": [
        {
          "internalType": "address",
          "name": "newAdmin",
          "type": "address"
        }
      ],
      "name": "changeAdmin",
      "outputs": [],
      "stateMutability": "nonpayable",
      "type": "function"
    },
    {
      "inputs": [],
      "name": "implementation",
      "outputs": [
        {
          "internalType": "address",
          "name": "implementation_",
          "type": "address"
        }
      ],
      "stateMutability": "nonpayable",
      "type": "function"
    },
    {
      "inputs": [
        {
          "internalType": "address",
          "name": "newImplementation",
          "type": "address"
        }
      ],
      "name": "upgradeTo",
      "outputs": [],
      "stateMutability": "nonpayable",
      "type": "function"
    },
    {
      "inputs": [
        {
          "internalType": "address",
          "name": "newImplementation",
          "type": "address"
        },
        {
          "internalType": "bytes",
          "name": "data",
          "type": "bytes"
        }
      ],
      "name": "upgradeToAndCall",
      "outputs": [],
      "stateMutability": "payable",
      "type": "function",
      "payable": true
    },
    {
      "stateMutability": "payable",
      "type": "receive",
      "payable": true
    },
    {
      "inputs": [
        {
          "internalType": "address",
          "name": "_iou",
          "type": "address"
        }
      ],
      "name": "getIOU",
      "outputs": [
        {
          "components": [
            {
              "internalType": "string",
              "name": "name",
              "type": "string"
            },
            {
              "internalType": "string",
              "name": "symbol",
              "type": "string"
            },
            {
              "components": [
                {
                  "internalType": "uint256",
                  "name": "totalMinted",
                  "type": "uint256"
                },
                {
                  "internalType": "uint256",
                  "name": "totalBurned",
                  "type": "uint256"
                },
                {
                  "internalType": "int256",
                  "name": "avRate",
                  "type": "int256"
                },
                {
                  "internalType": "bytes32",
                  "name": "units",
                  "type": "bytes32"
                },
                {
                  "internalType": "address",
                  "name": "issuer",
                  "type": "address"
                },
                {
                  "internalType": "string",
                  "name": "myName",
                  "type": "string"
                },
                {
                  "internalType": "string",
                  "name": "socialProfile",
                  "type": "string"
                },
                {
                  "internalType": "string",
                  "name": "description",
                  "type": "string"
                },
                {
                  "components": [
                    {
                      "internalType": "string",
                      "name": "country",
                      "type": "string"
                    },
                    {
                      "internalType": "string",
                      "name": "state",
                      "type": "string"
                    },
                    {
                      "internalType": "string",
                      "name": "city",
                      "type": "string"
                    },
                    {
                      "internalType": "string",
                      "name": "street",
                      "type": "string"
                    }
                  ],
                  "internalType": "struct iIOUtoken.geo",
                  "name": "location",
                  "type": "tuple"
                },
                {
                  "internalType": "bytes32[]",
                  "name": "keywords",
                  "type": "bytes32[]"
                },
                {
                  "internalType": "bytes32",
                  "name": "phone",
                  "type": "bytes32"
                }
              ],
              "internalType": "struct iIOUtoken.DescriptionIOU",
              "name": "description",
              "type": "tuple"
            }
          ],
          "internalType": "struct ProxyIOU.IOUdescr",
          "name": "",
          "type": "tuple"
        }
      ],
      "stateMutability": "view",
      "type": "function",
      "constant": true
    }
  ],
  "bytecode": "0x6080604052604051620016d7380380620016d783398101604081905262000026916200050f565b6040805160208101909152600081528290829082816200006860017f360894a13ba1a3210667c828492db98dca3e2076cc3735a920a3ca505d382bbd62000547565b60008051602062001670833981519152146200008857620000886200056d565b620000968282600062000134565b50620000b5905060016000805160206200169083398151915262000547565b6000805160206200165083398151915214620000d557620000d56200056d565b620000e08262000171565b50620001019150600190506000805160206200169083398151915262000547565b60008051602062001650833981519152146200012157620001216200056d565b6200012c8162000171565b505062000605565b6200013f83620001cc565b6000825111806200014d5750805b156200016c576200016a83836200020e60201b620003f91760201c565b505b505050565b7f7e644d79422f17c01e4894b5f4f588d331ebfa28653d42ae832dc59e38c9798f6200019c6200023d565b604080516001600160a01b03928316815291841660208301520160405180910390a1620001c98162000276565b50565b620001d7816200032b565b6040516001600160a01b038216907fbc7cd75a20ee27fd9adebab32041f755214dbc6bffa90cc0225b39da2e5c2d3b90600090a250565b6060620002368383604051806060016040528060278152602001620016b060279139620003ce565b9392505050565b6000620002676000805160206200165083398151915260001b620004ab60201b620002411760201c565b546001600160a01b0316919050565b6001600160a01b038116620002e15760405162461bcd60e51b815260206004820152602660248201527f455243313936373a206e65772061646d696e20697320746865207a65726f206160448201526564647265737360d01b60648201526084015b60405180910390fd5b806200030a6000805160206200165083398151915260001b620004ab60201b620002411760201c565b80546001600160a01b0319166001600160a01b039290921691909117905550565b6200034181620004ae60201b620004251760201c565b620003a55760405162461bcd60e51b815260206004820152602d60248201527f455243313936373a206e657720696d706c656d656e746174696f6e206973206e60448201526c1bdd08184818dbdb9d1c9858dd609a1b6064820152608401620002d8565b806200030a6000805160206200167083398151915260001b620004ab60201b620002411760201c565b6060833b6200042f5760405162461bcd60e51b815260206004820152602660248201527f416464726573733a2064656c65676174652063616c6c20746f206e6f6e2d636f6044820152651b9d1c9858dd60d21b6064820152608401620002d8565b600080856001600160a01b0316856040516200044c9190620005b2565b600060405180830381855af49150503d806000811462000489576040519150601f19603f3d011682016040523d82523d6000602084013e6200048e565b606091505b509092509050620004a1828286620004b4565b9695505050505050565b90565b3b151590565b60608315620004c557508162000236565b825115620004d65782518084602001fd5b8160405162461bcd60e51b8152600401620002d89190620005d0565b80516001600160a01b03811681146200050a57600080fd5b919050565b600080604083850312156200052357600080fd5b6200052e83620004f2565b91506200053e60208401620004f2565b90509250929050565b6000828210156200056857634e487b7160e01b600052601160045260246000fd5b500390565b634e487b7160e01b600052600160045260246000fd5b60005b83811015620005a057818101518382015260200162000586565b838111156200016a5750506000910152565b60008251620005c681846020870162000583565b9190910192915050565b6020815260008251806020840152620005f181604085016020870162000583565b601f01601f19169190910160400192915050565b61103b80620006156000396000f3fe6080604052600436106100595760003560e01c80633659cfe6146100705780634f1ef286146100905780635c60da1b146100a35780638f283970146100d5578063f851a440146100f5578063fc9925b91461010a57610068565b3661006857610066610137565b005b610066610137565b34801561007c57600080fd5b5061006661008b36600461091d565b610151565b61006661009e36600461093a565b610198565b3480156100af57600080fd5b506100b8610209565b6040516001600160a01b0390911681526020015b60405180910390f35b3480156100e157600080fd5b506100666100f036600461091d565b610244565b34801561010157600080fd5b506100b861026e565b34801561011657600080fd5b5061012a61012536600461091d565b610299565b6040516100cc9190610abd565b61013f61042b565b61014f61014a6104ca565b6104d4565b565b6101596104f8565b6001600160a01b0316336001600160a01b031614156101905761018d8160405180602001604052806000815250600061052b565b50565b61018d610137565b6101a06104f8565b6001600160a01b0316336001600160a01b03161415610201576101fc8383838080601f0160208091040260200160405190810160405280939291908181526020018383808284376000920191909152506001925061052b915050565b505050565b6101fc610137565b60006102136104f8565b6001600160a01b0316336001600160a01b03161415610239576102346104ca565b905090565b610241610137565b90565b61024c6104f8565b6001600160a01b0316336001600160a01b031614156101905761018d81610556565b60006102786104f8565b6001600160a01b0316336001600160a01b03161415610239576102346104f8565b6102a1610853565b600082905060006040518060600160405280836001600160a01b0316639ee095066040518163ffffffff1660e01b8152600401600060405180830381865afa1580156102f1573d6000803e3d6000fd5b505050506040513d6000823e601f3d908101601f191682016040526103199190810190610ce7565b8152602001836001600160a01b03166358aee2706040518163ffffffff1660e01b8152600401600060405180830381865afa15801561035c573d6000803e3d6000fd5b505050506040513d6000823e601f3d908101601f191682016040526103849190810190610ce7565b8152602001836001600160a01b0316630a5763646040518163ffffffff1660e01b8152600401600060405180830381865afa1580156103c7573d6000803e3d6000fd5b505050506040513d6000823e601f3d908101601f191682016040526103ef9190810190610e65565b9052949350505050565b606061041e8383604051806060016040528060278152602001610fdf602791396105aa565b9392505050565b3b151590565b6104336104f8565b6001600160a01b0316336001600160a01b0316141561014f5760405162461bcd60e51b815260206004820152604260248201527f5472616e73706172656e745570677261646561626c6550726f78793a2061646d60448201527f696e2063616e6e6f742066616c6c6261636b20746f2070726f78792074617267606482015261195d60f21b608482015260a4015b60405180910390fd5b600061023461067e565b3660008037600080366000845af43d6000803e8080156104f3573d6000f35b3d6000fd5b60007fb53127684a568b3173ae13b9f8a6016e243e63b6e8ee1178d6a717850b5d61035b546001600160a01b0316919050565b610534836106a6565b6000825111806105415750805b156101fc5761055083836103f9565b50505050565b7f7e644d79422f17c01e4894b5f4f588d331ebfa28653d42ae832dc59e38c9798f61057f6104f8565b604080516001600160a01b03928316815291841660208301520160405180910390a161018d816106e6565b6060833b6106095760405162461bcd60e51b815260206004820152602660248201527f416464726573733a2064656c65676174652063616c6c20746f206e6f6e2d636f6044820152651b9d1c9858dd60d21b60648201526084016104c1565b600080856001600160a01b0316856040516106249190610faf565b600060405180830381855af49150503d806000811461065f576040519150601f19603f3d011682016040523d82523d6000602084013e610664565b606091505b509150915061067482828661078f565b9695505050505050565b60007f360894a13ba1a3210667c828492db98dca3e2076cc3735a920a3ca505d382bbc61051c565b6106af816107c8565b6040516001600160a01b038216907fbc7cd75a20ee27fd9adebab32041f755214dbc6bffa90cc0225b39da2e5c2d3b90600090a250565b6001600160a01b03811661074b5760405162461bcd60e51b815260206004820152602660248201527f455243313936373a206e65772061646d696e20697320746865207a65726f206160448201526564647265737360d01b60648201526084016104c1565b807fb53127684a568b3173ae13b9f8a6016e243e63b6e8ee1178d6a717850b5d61035b80546001600160a01b0319166001600160a01b039290921691909117905550565b6060831561079e57508161041e565b8251156107ae5782518084602001fd5b8160405162461bcd60e51b81526004016104c19190610fcb565b803b61082c5760405162461bcd60e51b815260206004820152602d60248201527f455243313936373a206e657720696d706c656d656e746174696f6e206973206e60448201526c1bdd08184818dbdb9d1c9858dd609a1b60648201526084016104c1565b807f360894a13ba1a3210667c828492db98dca3e2076cc3735a920a3ca505d382bbc61076e565b60405180606001604052806060815260200160608152602001610874610879565b905290565b6040518061016001604052806000815260200160008152602001600081526020016000801916815260200160006001600160a01b031681526020016060815260200160608152602001606081526020016108f46040518060800160405280606081526020016060815260200160608152602001606081525090565b815260606020820152600060409091015290565b6001600160a01b038116811461018d57600080fd5b60006020828403121561092f57600080fd5b813561041e81610908565b60008060006040848603121561094f57600080fd5b833561095a81610908565b9250602084013567ffffffffffffffff8082111561097757600080fd5b818601915086601f83011261098b57600080fd5b81358181111561099a57600080fd5b8760208285010111156109ac57600080fd5b6020830194508093505050509250925092565b60005b838110156109da5781810151838201526020016109c2565b838111156105505750506000910152565b60008151808452610a038160208601602086016109bf565b601f01601f19169290920160200192915050565b6000815160808452610a2c60808501826109eb565b905060208301518482036020860152610a4582826109eb565b91505060408301518482036040860152610a5f82826109eb565b91505060608301518482036060860152610a7982826109eb565b95945050505050565b600081518084526020808501945080840160005b83811015610ab257815187529582019590820190600101610a96565b509495945050505050565b602081526000825160606020840152610ad960808401826109eb565b90506020840151601f1980858403016040860152610af783836109eb565b9250604086015191508085840301606086015250610160815183526020820151602084015260408201516040840152606082015160608401526080820151610b4a60808501826001600160a01b03169052565b5060a08201518160a0850152610b62828501826109eb565b91505060c082015183820360c0850152610b7c82826109eb565b91505060e082015183820360e0850152610b9682826109eb565b9150506101008083015184830382860152610bb18382610a17565b925050506101208083015184830382860152610bcd8382610a82565b610140948501519590940194909452509095945050505050565b634e487b7160e01b600052604160045260246000fd5b6040516080810167ffffffffffffffff81118282101715610c2057610c20610be7565b60405290565b604051610160810167ffffffffffffffff81118282101715610c2057610c20610be7565b604051601f8201601f1916810167ffffffffffffffff81118282101715610c7357610c73610be7565b604052919050565b600082601f830112610c8c57600080fd5b815167ffffffffffffffff811115610ca657610ca6610be7565b610cb9601f8201601f1916602001610c4a565b818152846020838601011115610cce57600080fd5b610cdf8260208301602087016109bf565b949350505050565b600060208284031215610cf957600080fd5b815167ffffffffffffffff811115610d1057600080fd5b610cdf84828501610c7b565b8051610d2781610908565b919050565b600060808284031215610d3e57600080fd5b610d46610bfd565b9050815167ffffffffffffffff80821115610d6057600080fd5b610d6c85838601610c7b565b83526020840151915080821115610d8257600080fd5b610d8e85838601610c7b565b60208401526040840151915080821115610da757600080fd5b610db385838601610c7b565b60408401526060840151915080821115610dcc57600080fd5b50610dd984828501610c7b565b60608301525092915050565b600082601f830112610df657600080fd5b8151602067ffffffffffffffff821115610e1257610e12610be7565b8160051b610e21828201610c4a565b9283528481018201928281019087851115610e3b57600080fd5b83870192505b84831015610e5a57825182529183019190830190610e41565b979650505050505050565b600060208284031215610e7757600080fd5b815167ffffffffffffffff80821115610e8f57600080fd5b908301906101608286031215610ea457600080fd5b610eac610c26565b82518152602083015160208201526040830151604082015260608301516060820152610eda60808401610d1c565b608082015260a083015182811115610ef157600080fd5b610efd87828601610c7b565b60a08301525060c083015182811115610f1557600080fd5b610f2187828601610c7b565b60c08301525060e083015182811115610f3957600080fd5b610f4587828601610c7b565b60e0830152506101008084015183811115610f5f57600080fd5b610f6b88828701610d2c565b8284015250506101208084015183811115610f8557600080fd5b610f9188828701610de5565b91830191909152506101409283015192810192909252509392505050565b60008251610fc18184602087016109bf565b9190910192915050565b60208152600061041e60208301846109eb56fe416464726573733a206c6f772d6c6576656c2064656c65676174652063616c6c206661696c6564a2646970667358221220dbb1393d8d3bf6ea52d9cf4571fa8ce47d4f2032348d103495bb303294dce4c564736f6c634300080a0033b53127684a568b3173ae13b9f8a6016e243e63b6e8ee1178d6a717850b5d6103360894a13ba1a3210667c828492db98dca3e2076cc3735a920a3ca505d382bbcb53127684a568b3173ae13b9f8a6016e243e63b6e8ee1178d6a717850b5d6104416464726573733a206c6f772d6c6576656c2064656c65676174652063616c6c206661696c6564",
  "immutableReferences": {},
  "source": "pragma solidity >= 0.8.0;\npragma experimental ABIEncoderV2;\nimport  \"./IOUtoken.sol\";\nimport \"@openzeppelin/contracts/proxy/transparent/TransparentUpgradeableProxy.sol\";\n\ncontract ProxyIOU  is TransparentUpgradeableProxy {  \n    struct IOUdescr {\n        string name;\n        string symbol;\n        iIOUtoken.DescriptionIOU description;\n    }\n\n        constructor(\n        address _logic,\n        address admin_\n    ) payable TransparentUpgradeableProxy(_logic, admin_, \"\") {\n        assert(_ADMIN_SLOT == bytes32(uint256(keccak256(\"eip1967.proxy.admin\")) - 1));\n        _changeAdmin(admin_);\n    }\n    \n    /* function getIOU (address _iou) public view returns (\n        string memory  ,\n        string  memory ,\n//        iIOUtoken.DescriptionIOU memory descr\n        uint256,// totalMinted;\n        uint256,// totalBurned;\n        int256,// avRate;\n        bytes32,// units;        \n        address,// issuer;\n        string memory,// myName ; //name of emitter\n        string memory,  //socialProfile ; //profile  of emitter in social nets\n        string memory, //description ; //description of bond IOU to  work\n        iIOUtoken.geo  memory, //location; //where is it             \n        bytes32[] memory, // keywords;\n        bytes32 //phone\n    ) {\n\n        iIOUtoken iouT = iIOUtoken(_iou);\n        iIOUtoken.DescriptionIOU memory descr = iouT.thisIOUDesc();\n     return (iouT.IOUname(),\n            iouT.IOUsymbol(),\n            \n            descr.totalMinted,\n            descr.totalBurned,\n            descr.avRate,\n            descr.units,\n            descr.issuer,\n            descr.myName , //name of emitter\n            descr.socialProfile,  //profile  of emitter in social nets\n            descr.description,//description of bond IOU to  work\n            descr.location, //where is it             \n            descr.keywords,\n            descr.phone\n            );\n    } \n    function _implementation() internal view virtual override returns (address impl) {\n        return ERC1967Upgrade._getImplementation();\n    }\n /*    function IOUname() external view returns  (string memory) {\n        (bool success, bytes memory returnedData) = _implementation().  delegatecall(abi.encodeWithSelector(\n      bytes4(keccak256(\"IOUname()\"))\n    ));\n    require(success, string(returnedData));\n    } \n    function IOUsymbol() external view returns (string memory) {\n        (bool success, bytes memory returnedData) = _implementation().  delegatecall(abi.encodeWithSelector(\n      bytes4(keccak256(\"IOUsymbol()\"))\n    ));\n    } \n    function thisIOUDesc() external view returns (DescriptionIOU memory) {\n        (bool success, bytes memory returnedData) = _implementation().  delegatecall(abi.encodeWithSelector(\n      bytes4(keccak256(\"thisIOUDesc()\"))\n    ));\n    } \n     function setIOU (//    constructor (\n                string memory name_, \n                string memory symbol_, \n                iIOUtoken.DescriptionIOU memory _thisIOU,\n                 address _store)  external {\n        (bool success, bytes memory returnedData) = _implementation().  delegatecall(abi.encodeWithSelector(\n            bytes4(keccak256(\"setIOU(string,string,iIOUtoken.DescriptionIOU,address)\")),\n            name_,\n            symbol_,\n            _thisIOU,\n            _store\n            ));\n\n    require(success, string (returnedData));\n    } \n/* \n    function initialize() external {\n            (bool success, bytes memory returnedData) = _implementation().  delegatecall(abi.encodeWithSelector(\n      bytes4(keccak256(\"initialize()\"))\n    ));\n    } */\n    function getIOU (address _iou) public view returns ( IOUdescr memory) {\n        iIOUtoken iouT = iIOUtoken(_iou);\n        IOUdescr memory iouD = IOUdescr (iouT.IOUname(), iouT.IOUsymbol(), iouT.thisIOUDesc()  );\n        return iouD;\n}\n\n}",
  "sourcePath": "/mnt/512-2/dfd/iou2/contracts/ProxyIOU.sol",
  "compiler": {
    "name": "solc",
    "version": "0.8.10+commit.fc410830.Emscripten.clang"
  },
  "schemaVersion": "3.4.4",
  "updatedAt": "2022-02-15T09:58:55.521Z",
  "networkType": "ethereum",
  "devdoc": {
    "kind": "dev",
    "methods": {
      "admin()": {
        "details": "Returns the current admin. NOTE: Only the admin can call this function. See {ProxyAdmin-getProxyAdmin}. TIP: To get this value clients can read directly from the storage slot shown below (specified by EIP1967) using the https://eth.wiki/json-rpc/API#eth_getstorageat[`eth_getStorageAt`] RPC call. `0xb53127684a568b3173ae13b9f8a6016e243e63b6e8ee1178d6a717850b5d6103`"
      },
      "changeAdmin(address)": {
        "details": "Changes the admin of the proxy. Emits an {AdminChanged} event. NOTE: Only the admin can call this function. See {ProxyAdmin-changeProxyAdmin}."
      },
      "implementation()": {
        "details": "Returns the current implementation. NOTE: Only the admin can call this function. See {ProxyAdmin-getProxyImplementation}. TIP: To get this value clients can read directly from the storage slot shown below (specified by EIP1967) using the https://eth.wiki/json-rpc/API#eth_getstorageat[`eth_getStorageAt`] RPC call. `0x360894a13ba1a3210667c828492db98dca3e2076cc3735a920a3ca505d382bbc`"
      },
      "upgradeTo(address)": {
        "details": "Upgrade the implementation of the proxy. NOTE: Only the admin can call this function. See {ProxyAdmin-upgrade}."
      },
      "upgradeToAndCall(address,bytes)": {
        "details": "Upgrade the implementation of the proxy, and then call a function from the new implementation as specified by `data`, which should be an encoded function call. This is useful to initialize new storage variables in the proxied contract. NOTE: Only the admin can call this function. See {ProxyAdmin-upgradeAndCall}."
      }
    },
    "version": 1
  },
  "userdoc": {
    "kind": "user",
    "methods": {},
    "version": 1
  }
}