{
  "contractName": "ProxyIOU",
  "abi": [
    {
      "anonymous": false,
      "inputs": [
        {
          "indexed": true,
          "internalType": "address",
          "name": "owner",
          "type": "address"
        },
        {
          "indexed": true,
          "internalType": "address",
          "name": "spender",
          "type": "address"
        },
        {
          "indexed": false,
          "internalType": "uint256",
          "name": "value",
          "type": "uint256"
        }
      ],
      "name": "Approval",
      "type": "event"
    },
    {
      "anonymous": false,
      "inputs": [
        {
          "indexed": true,
          "internalType": "address",
          "name": "from",
          "type": "address"
        },
        {
          "indexed": true,
          "internalType": "address",
          "name": "to",
          "type": "address"
        },
        {
          "indexed": false,
          "internalType": "uint256",
          "name": "value",
          "type": "uint256"
        }
      ],
      "name": "Transfer",
      "type": "event"
    },
    {
      "inputs": [
        {
          "internalType": "address",
          "name": "",
          "type": "address"
        },
        {
          "internalType": "uint256",
          "name": "",
          "type": "uint256"
        }
      ],
      "name": "IOUbyReceiver",
      "outputs": [
        {
          "internalType": "uint256",
          "name": "",
          "type": "uint256"
        }
      ],
      "stateMutability": "view",
      "type": "function",
      "constant": true
    },
    {
      "inputs": [
        {
          "internalType": "uint256",
          "name": "",
          "type": "uint256"
        }
      ],
      "name": "allFeedbacks",
      "outputs": [
        {
          "internalType": "address",
          "name": "sender",
          "type": "address"
        },
        {
          "internalType": "uint256",
          "name": "time",
          "type": "uint256"
        },
        {
          "internalType": "int256",
          "name": "rating",
          "type": "int256"
        },
        {
          "internalType": "uint256",
          "name": "amount",
          "type": "uint256"
        },
        {
          "internalType": "string",
          "name": "text",
          "type": "string"
        }
      ],
      "stateMutability": "view",
      "type": "function",
      "constant": true
    },
    {
      "inputs": [
        {
          "internalType": "uint256",
          "name": "",
          "type": "uint256"
        }
      ],
      "name": "allIOUs",
      "outputs": [
        {
          "internalType": "address",
          "name": "receiver",
          "type": "address"
        },
        {
          "internalType": "uint256",
          "name": "time",
          "type": "uint256"
        },
        {
          "internalType": "string",
          "name": "IOUDescr",
          "type": "string"
        }
      ],
      "stateMutability": "view",
      "type": "function",
      "constant": true
    },
    {
      "inputs": [
        {
          "internalType": "address",
          "name": "owner",
          "type": "address"
        },
        {
          "internalType": "address",
          "name": "spender",
          "type": "address"
        }
      ],
      "name": "allowance",
      "outputs": [
        {
          "internalType": "uint256",
          "name": "",
          "type": "uint256"
        }
      ],
      "stateMutability": "view",
      "type": "function",
      "constant": true
    },
    {
      "inputs": [
        {
          "internalType": "address",
          "name": "spender",
          "type": "address"
        },
        {
          "internalType": "uint256",
          "name": "amount",
          "type": "uint256"
        }
      ],
      "name": "approve",
      "outputs": [
        {
          "internalType": "bool",
          "name": "",
          "type": "bool"
        }
      ],
      "stateMutability": "nonpayable",
      "type": "function"
    },
    {
      "inputs": [
        {
          "internalType": "address",
          "name": "account",
          "type": "address"
        }
      ],
      "name": "balanceOf",
      "outputs": [
        {
          "internalType": "uint256",
          "name": "",
          "type": "uint256"
        }
      ],
      "stateMutability": "view",
      "type": "function",
      "constant": true
    },
    {
      "inputs": [],
      "name": "decimals",
      "outputs": [
        {
          "internalType": "uint8",
          "name": "",
          "type": "uint8"
        }
      ],
      "stateMutability": "view",
      "type": "function",
      "constant": true
    },
    {
      "inputs": [
        {
          "internalType": "address",
          "name": "spender",
          "type": "address"
        },
        {
          "internalType": "uint256",
          "name": "subtractedValue",
          "type": "uint256"
        }
      ],
      "name": "decreaseAllowance",
      "outputs": [
        {
          "internalType": "bool",
          "name": "",
          "type": "bool"
        }
      ],
      "stateMutability": "nonpayable",
      "type": "function"
    },
    {
      "inputs": [
        {
          "internalType": "address",
          "name": "",
          "type": "address"
        },
        {
          "internalType": "uint256",
          "name": "",
          "type": "uint256"
        }
      ],
      "name": "feedBacksbySender",
      "outputs": [
        {
          "internalType": "uint256",
          "name": "",
          "type": "uint256"
        }
      ],
      "stateMutability": "view",
      "type": "function",
      "constant": true
    },
    {
      "inputs": [
        {
          "internalType": "address",
          "name": "spender",
          "type": "address"
        },
        {
          "internalType": "uint256",
          "name": "addedValue",
          "type": "uint256"
        }
      ],
      "name": "increaseAllowance",
      "outputs": [
        {
          "internalType": "bool",
          "name": "",
          "type": "bool"
        }
      ],
      "stateMutability": "nonpayable",
      "type": "function"
    },
    {
      "inputs": [],
      "name": "totalSupply",
      "outputs": [
        {
          "internalType": "uint256",
          "name": "",
          "type": "uint256"
        }
      ],
      "stateMutability": "view",
      "type": "function",
      "constant": true
    },
    {
      "inputs": [
        {
          "internalType": "address",
          "name": "sender",
          "type": "address"
        },
        {
          "internalType": "address",
          "name": "recipient",
          "type": "address"
        },
        {
          "internalType": "uint256",
          "name": "amount",
          "type": "uint256"
        }
      ],
      "name": "transferFrom",
      "outputs": [
        {
          "internalType": "bool",
          "name": "",
          "type": "bool"
        }
      ],
      "stateMutability": "nonpayable",
      "type": "function"
    },
    {
      "inputs": [
        {
          "internalType": "string",
          "name": "name_",
          "type": "string"
        },
        {
          "internalType": "string",
          "name": "symbol_",
          "type": "string"
        },
        {
          "components": [
            {
              "internalType": "uint256",
              "name": "totalMinted",
              "type": "uint256"
            },
            {
              "internalType": "uint256",
              "name": "totalBurned",
              "type": "uint256"
            },
            {
              "internalType": "int256",
              "name": "avRate",
              "type": "int256"
            },
            {
              "internalType": "bytes32",
              "name": "units",
              "type": "bytes32"
            },
            {
              "internalType": "address",
              "name": "issuer",
              "type": "address"
            },
            {
              "internalType": "string",
              "name": "myName",
              "type": "string"
            },
            {
              "internalType": "string",
              "name": "socialProfile",
              "type": "string"
            },
            {
              "internalType": "string",
              "name": "description",
              "type": "string"
            },
            {
              "components": [
                {
                  "internalType": "string",
                  "name": "country",
                  "type": "string"
                },
                {
                  "internalType": "string",
                  "name": "state",
                  "type": "string"
                },
                {
                  "internalType": "string",
                  "name": "city",
                  "type": "string"
                },
                {
                  "internalType": "string",
                  "name": "street",
                  "type": "string"
                }
              ],
              "internalType": "struct iIOUtoken.geo",
              "name": "location",
              "type": "tuple"
            },
            {
              "internalType": "bytes32[]",
              "name": "keywords",
              "type": "bytes32[]"
            },
            {
              "internalType": "bytes32",
              "name": "phone",
              "type": "bytes32"
            }
          ],
          "internalType": "struct iIOUtoken.DescriptionIOU",
          "name": "_thisIOU",
          "type": "tuple"
        },
        {
          "internalType": "address",
          "name": "_store",
          "type": "address"
        }
      ],
      "name": "setIOU",
      "outputs": [],
      "stateMutability": "nonpayable",
      "type": "function"
    },
    {
      "inputs": [
        {
          "internalType": "address",
          "name": "_newOwner",
          "type": "address"
        }
      ],
      "name": "setStore",
      "outputs": [],
      "stateMutability": "nonpayable",
      "type": "function"
    },
    {
      "inputs": [
        {
          "internalType": "address",
          "name": "_newOwner",
          "type": "address"
        }
      ],
      "name": "setOwner",
      "outputs": [],
      "stateMutability": "nonpayable",
      "type": "function"
    },
    {
      "inputs": [
        {
          "internalType": "address",
          "name": "_who",
          "type": "address"
        },
        {
          "internalType": "uint256",
          "name": "_amount",
          "type": "uint256"
        },
        {
          "internalType": "string",
          "name": "_descr",
          "type": "string"
        }
      ],
      "name": "mint",
      "outputs": [],
      "stateMutability": "nonpayable",
      "type": "function"
    },
    {
      "inputs": [
        {
          "internalType": "uint256",
          "name": "_amount",
          "type": "uint256"
        },
        {
          "internalType": "int256",
          "name": "_rating",
          "type": "int256"
        },
        {
          "internalType": "string",
          "name": "_feedback",
          "type": "string"
        }
      ],
      "name": "burn",
      "outputs": [],
      "stateMutability": "nonpayable",
      "type": "function"
    },
    {
      "inputs": [
        {
          "internalType": "address",
          "name": "_recipient",
          "type": "address"
        },
        {
          "internalType": "uint256",
          "name": "_amount",
          "type": "uint256"
        }
      ],
      "name": "transfer",
      "outputs": [
        {
          "internalType": "bool",
          "name": "",
          "type": "bool"
        }
      ],
      "stateMutability": "nonpayable",
      "type": "function"
    },
    {
      "inputs": [
        {
          "internalType": "string",
          "name": "_descr",
          "type": "string"
        }
      ],
      "name": "editDescr",
      "outputs": [],
      "stateMutability": "nonpayable",
      "type": "function"
    },
    {
      "inputs": [
        {
          "internalType": "bytes32",
          "name": "_phone",
          "type": "bytes32"
        }
      ],
      "name": "editPhone",
      "outputs": [],
      "stateMutability": "nonpayable",
      "type": "function"
    },
    {
      "inputs": [
        {
          "internalType": "string",
          "name": "_country",
          "type": "string"
        },
        {
          "internalType": "string",
          "name": "_state",
          "type": "string"
        },
        {
          "internalType": "string",
          "name": "_city",
          "type": "string"
        },
        {
          "internalType": "string",
          "name": "_street",
          "type": "string"
        }
      ],
      "name": "editGeo",
      "outputs": [],
      "stateMutability": "nonpayable",
      "type": "function"
    },
    {
      "inputs": [
        {
          "internalType": "bytes32[]",
          "name": "_keys",
          "type": "bytes32[]"
        }
      ],
      "name": "addKeys",
      "outputs": [],
      "stateMutability": "nonpayable",
      "type": "function"
    },
    {
      "inputs": [
        {
          "internalType": "bytes32[]",
          "name": "_keys",
          "type": "bytes32[]"
        }
      ],
      "name": "delKeys",
      "outputs": [],
      "stateMutability": "nonpayable",
      "type": "function"
    },
    {
      "inputs": [
        {
          "internalType": "address",
          "name": "_iou",
          "type": "address"
        }
      ],
      "name": "getIOU",
      "outputs": [
        {
          "components": [
            {
              "internalType": "string",
              "name": "name",
              "type": "string"
            },
            {
              "internalType": "string",
              "name": "symbol",
              "type": "string"
            },
            {
              "components": [
                {
                  "internalType": "uint256",
                  "name": "totalMinted",
                  "type": "uint256"
                },
                {
                  "internalType": "uint256",
                  "name": "totalBurned",
                  "type": "uint256"
                },
                {
                  "internalType": "int256",
                  "name": "avRate",
                  "type": "int256"
                },
                {
                  "internalType": "bytes32",
                  "name": "units",
                  "type": "bytes32"
                },
                {
                  "internalType": "address",
                  "name": "issuer",
                  "type": "address"
                },
                {
                  "internalType": "string",
                  "name": "myName",
                  "type": "string"
                },
                {
                  "internalType": "string",
                  "name": "socialProfile",
                  "type": "string"
                },
                {
                  "internalType": "string",
                  "name": "description",
                  "type": "string"
                },
                {
                  "components": [
                    {
                      "internalType": "string",
                      "name": "country",
                      "type": "string"
                    },
                    {
                      "internalType": "string",
                      "name": "state",
                      "type": "string"
                    },
                    {
                      "internalType": "string",
                      "name": "city",
                      "type": "string"
                    },
                    {
                      "internalType": "string",
                      "name": "street",
                      "type": "string"
                    }
                  ],
                  "internalType": "struct iIOUtoken.geo",
                  "name": "location",
                  "type": "tuple"
                },
                {
                  "internalType": "bytes32[]",
                  "name": "keywords",
                  "type": "bytes32[]"
                },
                {
                  "internalType": "bytes32",
                  "name": "phone",
                  "type": "bytes32"
                }
              ],
              "internalType": "struct iIOUtoken.DescriptionIOU",
              "name": "description",
              "type": "tuple"
            }
          ],
          "internalType": "struct iIOUtoken.IOUdescr",
          "name": "",
          "type": "tuple"
        }
      ],
      "stateMutability": "view",
      "type": "function",
      "constant": true
    },
    {
      "inputs": [],
      "name": "thisIOUkeywords",
      "outputs": [
        {
          "internalType": "bytes32[]",
          "name": "",
          "type": "bytes32[]"
        }
      ],
      "stateMutability": "view",
      "type": "function",
      "constant": true
    },
    {
      "inputs": [],
      "name": "getlen",
      "outputs": [
        {
          "internalType": "uint256",
          "name": "",
          "type": "uint256"
        },
        {
          "internalType": "uint256",
          "name": "",
          "type": "uint256"
        }
      ],
      "stateMutability": "view",
      "type": "function",
      "constant": true
    },
    {
      "inputs": [],
      "name": "thisIOUDesc",
      "outputs": [
        {
          "components": [
            {
              "internalType": "uint256",
              "name": "totalMinted",
              "type": "uint256"
            },
            {
              "internalType": "uint256",
              "name": "totalBurned",
              "type": "uint256"
            },
            {
              "internalType": "int256",
              "name": "avRate",
              "type": "int256"
            },
            {
              "internalType": "bytes32",
              "name": "units",
              "type": "bytes32"
            },
            {
              "internalType": "address",
              "name": "issuer",
              "type": "address"
            },
            {
              "internalType": "string",
              "name": "myName",
              "type": "string"
            },
            {
              "internalType": "string",
              "name": "socialProfile",
              "type": "string"
            },
            {
              "internalType": "string",
              "name": "description",
              "type": "string"
            },
            {
              "components": [
                {
                  "internalType": "string",
                  "name": "country",
                  "type": "string"
                },
                {
                  "internalType": "string",
                  "name": "state",
                  "type": "string"
                },
                {
                  "internalType": "string",
                  "name": "city",
                  "type": "string"
                },
                {
                  "internalType": "string",
                  "name": "street",
                  "type": "string"
                }
              ],
              "internalType": "struct iIOUtoken.geo",
              "name": "location",
              "type": "tuple"
            },
            {
              "internalType": "bytes32[]",
              "name": "keywords",
              "type": "bytes32[]"
            },
            {
              "internalType": "bytes32",
              "name": "phone",
              "type": "bytes32"
            }
          ],
          "internalType": "struct iIOUtoken.DescriptionIOU",
          "name": "",
          "type": "tuple"
        }
      ],
      "stateMutability": "view",
      "type": "function",
      "constant": true
    },
    {
      "inputs": [],
      "name": "IOUname",
      "outputs": [
        {
          "internalType": "string",
          "name": "",
          "type": "string"
        }
      ],
      "stateMutability": "view",
      "type": "function",
      "constant": true
    },
    {
      "inputs": [],
      "name": "IOUsymbol",
      "outputs": [
        {
          "internalType": "string",
          "name": "",
          "type": "string"
        }
      ],
      "stateMutability": "view",
      "type": "function",
      "constant": true
    },
    {
      "inputs": [],
      "name": "getTokenInfo",
      "outputs": [
        {
          "internalType": "string",
          "name": "",
          "type": "string"
        },
        {
          "internalType": "string",
          "name": "",
          "type": "string"
        },
        {
          "components": [
            {
              "internalType": "uint256",
              "name": "totalMinted",
              "type": "uint256"
            },
            {
              "internalType": "uint256",
              "name": "totalBurned",
              "type": "uint256"
            },
            {
              "internalType": "int256",
              "name": "avRate",
              "type": "int256"
            },
            {
              "internalType": "bytes32",
              "name": "units",
              "type": "bytes32"
            },
            {
              "internalType": "address",
              "name": "issuer",
              "type": "address"
            },
            {
              "internalType": "string",
              "name": "myName",
              "type": "string"
            },
            {
              "internalType": "string",
              "name": "socialProfile",
              "type": "string"
            },
            {
              "internalType": "string",
              "name": "description",
              "type": "string"
            },
            {
              "components": [
                {
                  "internalType": "string",
                  "name": "country",
                  "type": "string"
                },
                {
                  "internalType": "string",
                  "name": "state",
                  "type": "string"
                },
                {
                  "internalType": "string",
                  "name": "city",
                  "type": "string"
                },
                {
                  "internalType": "string",
                  "name": "street",
                  "type": "string"
                }
              ],
              "internalType": "struct iIOUtoken.geo",
              "name": "location",
              "type": "tuple"
            },
            {
              "internalType": "bytes32[]",
              "name": "keywords",
              "type": "bytes32[]"
            },
            {
              "internalType": "bytes32",
              "name": "phone",
              "type": "bytes32"
            }
          ],
          "internalType": "struct iIOUtoken.DescriptionIOU",
          "name": "",
          "type": "tuple"
        }
      ],
      "stateMutability": "view",
      "type": "function",
      "constant": true
    },
    {
      "inputs": [],
      "name": "name",
      "outputs": [
        {
          "internalType": "string",
          "name": "",
          "type": "string"
        }
      ],
      "stateMutability": "view",
      "type": "function",
      "constant": true
    },
    {
      "inputs": [],
      "name": "symbol",
      "outputs": [
        {
          "internalType": "string",
          "name": "",
          "type": "string"
        }
      ],
      "stateMutability": "view",
      "type": "function",
      "constant": true
    }
  ],
  "bytecode": "0x608060405234801561001057600080fd5b506137b1806100206000396000f3fe608060405234801561001057600080fd5b50600436106101f05760003560e01c806370a082311161010f578063abb1dc44116100a2578063d3fc986411610071578063d3fc98641461044a578063dd62ed3e1461045d578063f67ad23314610496578063fc9925b9146104a957600080fd5b8063abb1dc44146103f8578063ac6137ea1461040f578063b251131414610422578063d25b1c6d1461043757600080fd5b8063a1a613bb116100de578063a1a613bb1461039d578063a457c2d7146103b0578063a69bac24146103c3578063a9059cbb146103e557600080fd5b806370a08231146103495780637fdcf01f1461037257806395d89b411461038d5780639ee095061461039557600080fd5b8063188caf8a116101875780633950935111610156578063395093511461030857806358aee2701461031b5780636a3611b9146103235780636f8797241461033657600080fd5b8063188caf8a146102af5780631bbb6e58146102c257806323b872dd146102e6578063313ce567146102f957600080fd5b80630a576364116101c35780630a5763641461025e57806313af40351461027357806314fcf3151461028657806318160ddd146102a757600080fd5b806306fdde03146101f5578063070df2d214610213578063087cbd4014610228578063095ea7b31461023b575b600080fd5b6101fd6104c9565b60405161020a919061280e565b60405180910390f35b610226610221366004612870565b61055b565b005b6102266102363660046128ea565b6106fe565b61024e610249366004612907565b610882565b604051901515815260200161020a565b610266610898565b60405161020a9190612ab5565b6102266102813660046128ea565b610d5b565b610299610294366004612907565b610e75565b60405190815260200161020a565b600254610299565b6102266102bd366004612ac8565b610ea6565b6102d56102d0366004612b3c565b61102d565b60405161020a959493929190612b55565b61024e6102f4366004612b93565b611104565b6040516012815260200161020a565b61024e610316366004612907565b6111ae565b6101fd6111ea565b610226610331366004612b3c565b6111f9565b610226610344366004612bd4565b611314565b6102996103573660046128ea565b6001600160a01b031660009081526020819052604090205490565b601a546018546040805192835260208301919091520161020a565b6101fd6114ad565b6101fd6114bc565b6102266103ab366004612c97565b6114c6565b61024e6103be366004612907565b61169b565b6103d66103d1366004612b3c565b611734565b60405161020a93929190612d43565b61024e6103f3366004612907565b6117fd565b61040061199d565b60405161020a93929190612d6a565b61022661041d366004612ac8565b611e79565b61042a611f94565b60405161020a9190612dad565b610299610445366004612907565b611fee565b610226610458366004612ea9565b61200a565b61029961046b366004612f44565b6001600160a01b03918216600090815260016020908152604080832093909416825291909152205490565b6102266104a4366004612f7d565b612194565b6104bc6104b73660046128ea565b6122af565b60405161020a9190612fbe565b6060600880546104d890613016565b80601f016020809104026020016040519081016040528092919081815260200182805461050490613016565b80156105515780601f1061052657610100808354040283529160200191610551565b820191906000526020600020905b81548152906001019060200180831161053457829003601f168201915b5050505050905090565b33600090815260208190526040902054849081106105c05760405162461bcd60e51b815260206004820152601a60248201527f4e6f20616d6f756e7420746f6b656e20686f6c6465722068617300000000000060448201526064015b60405180910390fd5b600080601d60009054906101000a90046001600160a01b03166001600160a01b0316638c6a2cde6040518163ffffffff1660e01b8152600401602060405180830381865afa158015610616573d6000803e3d6000fd5b505050506040513d601f19601f8201168201806040525081019061063a919061305b565b6001600160a01b03168787878760405160240161065a94939291906130a1565b60408051601f198184030181529181526020820180516001600160e01b0316630386f96960e11b1790525161068f91906130c1565b600060405180830381855af49150503d80600081146106ca576040519150601f19603f3d011682016040523d82523d6000602084013e6106cf565b606091505b50915091508181906106f45760405162461bcd60e51b81526004016105b7919061280e565b5050505050505050565b601c54604051336001600160a01b0390921682811492610720926020016130dd565b6040516020818303038152906040529061074d5760405162461bcd60e51b81526004016105b7919061280e565b50600080601d60009054906101000a90046001600160a01b03166001600160a01b0316638c6a2cde6040518163ffffffff1660e01b8152600401602060405180830381865afa1580156107a4573d6000803e3d6000fd5b505050506040513d601f19601f820116820180604052508101906107c8919061305b565b6040516001600160a01b038581166024830152919091169060440160408051601f198184030181529181526020820180516001600160e01b03166221f2f560e61b1790525161081791906130c1565b600060405180830381855af49150503d8060008114610852576040519150601f19603f3d011682016040523d82523d6000602084013e610857565b606091505b509150915081819061087c5760405162461bcd60e51b81526004016105b7919061280e565b50505050565b600061088f33848461240f565b50600192915050565b6108a0612701565b6040805161016081018252600a80548252600b546020830152600c5492820192909252600d546060820152600e546001600160a01b03166080820152600f805491929160a0840191906108f290613016565b80601f016020809104026020016040519081016040528092919081815260200182805461091e90613016565b801561096b5780601f106109405761010080835404028352916020019161096b565b820191906000526020600020905b81548152906001019060200180831161094e57829003601f168201915b5050505050815260200160068201805461098490613016565b80601f01602080910402602001604051908101604052809291908181526020018280546109b090613016565b80156109fd5780601f106109d2576101008083540402835291602001916109fd565b820191906000526020600020905b8154815290600101906020018083116109e057829003601f168201915b50505050508152602001600782018054610a1690613016565b80601f0160208091040260200160405190810160405280929190818152602001828054610a4290613016565b8015610a8f5780601f10610a6457610100808354040283529160200191610a8f565b820191906000526020600020905b815481529060010190602001808311610a7257829003601f168201915b5050505050815260200160088201604051806080016040529081600082018054610ab890613016565b80601f0160208091040260200160405190810160405280929190818152602001828054610ae490613016565b8015610b315780601f10610b0657610100808354040283529160200191610b31565b820191906000526020600020905b815481529060010190602001808311610b1457829003601f168201915b50505050508152602001600182018054610b4a90613016565b80601f0160208091040260200160405190810160405280929190818152602001828054610b7690613016565b8015610bc35780601f10610b9857610100808354040283529160200191610bc3565b820191906000526020600020905b815481529060010190602001808311610ba657829003601f168201915b50505050508152602001600282018054610bdc90613016565b80601f0160208091040260200160405190810160405280929190818152602001828054610c0890613016565b8015610c555780601f10610c2a57610100808354040283529160200191610c55565b820191906000526020600020905b815481529060010190602001808311610c3857829003601f168201915b50505050508152602001600382018054610c6e90613016565b80601f0160208091040260200160405190810160405280929190818152602001828054610c9a90613016565b8015610ce75780601f10610cbc57610100808354040283529160200191610ce7565b820191906000526020600020905b815481529060010190602001808311610cca57829003601f168201915b5050505050815250508152602001600c8201805480602002602001604051908101604052809291908181526020018280548015610d4357602002820191906000526020600020905b815481526020019060010190808311610d2f575b50505050508152602001600d82015481525050905090565b601c54604051336001600160a01b0390921682811492610d7d926020016130dd565b60405160208183030381529060405290610daa5760405162461bcd60e51b81526004016105b7919061280e565b50600080601d60009054906101000a90046001600160a01b03166001600160a01b0316638c6a2cde6040518163ffffffff1660e01b8152600401602060405180830381865afa158015610e01573d6000803e3d6000fd5b505050506040513d601f19601f82011682018060405250810190610e25919061305b565b6040516001600160a01b038581166024830152919091169060440160408051601f198184030181529181526020820180516001600160e01b03166313af403560e01b1790525161081791906130c1565b601b6020528160005260406000208181548110610e9157600080fd5b90600052602060002001600091509150505481565b601c54604051336001600160a01b0390921682811492610ec8926020016130dd565b60405160208183030381529060405290610ef55760405162461bcd60e51b81526004016105b7919061280e565b50600080601d60009054906101000a90046001600160a01b03166001600160a01b0316638c6a2cde6040518163ffffffff1660e01b8152600401602060405180830381865afa158015610f4c573d6000803e3d6000fd5b505050506040513d601f19601f82011682018060405250810190610f70919061305b565b6001600160a01b03168484604051602401610f8c92919061315a565b60408051601f198184030181529181526020820180516001600160e01b0316630c4657c560e11b17905251610fc191906130c1565b600060405180830381855af49150503d8060008114610ffc576040519150601f19603f3d011682016040523d82523d6000602084013e611001565b606091505b50915091508181906110265760405162461bcd60e51b81526004016105b7919061280e565b5050505050565b6018818154811061103d57600080fd5b6000918252602090912060059091020180546001820154600283015460038401546004850180546001600160a01b0390951696509294919390929061108190613016565b80601f01602080910402602001604051908101604052809291908181526020018280546110ad90613016565b80156110fa5780601f106110cf576101008083540402835291602001916110fa565b820191906000526020600020905b8154815290600101906020018083116110dd57829003601f168201915b5050505050905085565b6000611111848484612533565b6001600160a01b0384166000908152600160209081526040808320338452909152902054828110156111965760405162461bcd60e51b815260206004820152602860248201527f45524332303a207472616e7366657220616d6f756e74206578636565647320616044820152676c6c6f77616e636560c01b60648201526084016105b7565b6111a3853385840361240f565b506001949350505050565b3360008181526001602090815260408083206001600160a01b0387168452909152812054909161088f9185906111e5908690613176565b61240f565b60606111f46114ad565b905090565b601c54604051336001600160a01b039092168281149261121b926020016130dd565b604051602081830303815290604052906112485760405162461bcd60e51b81526004016105b7919061280e565b50600080601d60009054906101000a90046001600160a01b03166001600160a01b0316638c6a2cde6040518163ffffffff1660e01b8152600401602060405180830381865afa15801561129f573d6000803e3d6000fd5b505050506040513d601f19601f820116820180604052508101906112c3919061305b565b6001600160a01b0316836040516024016112df91815260200190565b60408051601f198184030181529181526020820180516001600160e01b0316636a3611b960e01b1790525161081791906130c1565b601c54604051336001600160a01b0390921682811492611336926020016130dd565b604051602081830303815290604052906113635760405162461bcd60e51b81526004016105b7919061280e565b50600080601d60009054906101000a90046001600160a01b03166001600160a01b0316638c6a2cde6040518163ffffffff1660e01b8152600401602060405180830381865afa1580156113ba573d6000803e3d6000fd5b505050506040513d601f19601f820116820180604052508101906113de919061305b565b6001600160a01b03168a8a8a8a8a8a8a8a60405160240161140698979695949392919061319c565b60408051601f198184030181529181526020820180516001600160e01b0316631be1e5c960e21b1790525161143b91906130c1565b600060405180830381855af49150503d8060008114611476576040519150601f19603f3d011682016040523d82523d6000602084013e61147b565b606091505b50915091508181906114a05760405162461bcd60e51b81526004016105b7919061280e565b5050505050505050505050565b6060600980546104d890613016565b60606111f46104c9565b60008190506000816001600160a01b0316638c6a2cde6040518163ffffffff1660e01b8152600401602060405180830381865afa15801561150b573d6000803e3d6000fd5b505050506040513d601f19601f8201168201806040525081019061152f919061305b565b60408051600481526024810182526020810180516001600160e01b031663204a7f0760e21b179052905191925060009182916001600160a01b0385169161157691906130c1565b600060405180830381855af49150503d80600081146115b1576040519150601f19603f3d011682016040523d82523d6000602084013e6115b6565b606091505b50915091508181906115db5760405162461bcd60e51b81526004016105b7919061280e565b50826001600160a01b03168a8a8a8a8a8a60405160240161160196959493929190613331565b60408051601f198184030181529181526020820180516001600160e01b031663a1a613bb60e01b1790525161163691906130c1565b600060405180830381855af49150503d8060008114611671576040519150601f19603f3d011682016040523d82523d6000602084013e611676565b606091505b50909250905080826114a05760405162461bcd60e51b81526004016105b7919061280e565b3360009081526001602090815260408083206001600160a01b03861684529091528120548281101561171d5760405162461bcd60e51b815260206004820152602560248201527f45524332303a2064656372656173656420616c6c6f77616e63652062656c6f77604482015264207a65726f60d81b60648201526084016105b7565b61172a338585840361240f565b5060019392505050565b601a818154811061174457600080fd5b60009182526020909120600390910201805460018201546002830180546001600160a01b03909316945090929161177a90613016565b80601f01602080910402602001604051908101604052809291908181526020018280546117a690613016565b80156117f35780601f106117c8576101008083540402835291602001916117f3565b820191906000526020600020905b8154815290600101906020018083116117d657829003601f168201915b5050505050905083565b336000908152602081905260408120548290811061185d5760405162461bcd60e51b815260206004820152601a60248201527f4e6f20616d6f756e7420746f6b656e20686f6c6465722068617300000000000060448201526064016105b7565b600080601d60009054906101000a90046001600160a01b03166001600160a01b0316638c6a2cde6040518163ffffffff1660e01b8152600401602060405180830381865afa1580156118b3573d6000803e3d6000fd5b505050506040513d601f19601f820116820180604052508101906118d7919061305b565b6040516001600160a01b03888116602483015260448201889052919091169060640160408051601f198184030181529181526020820180516001600160e01b031663a9059cbb60e01b1790525161192e91906130c1565b600060405180830381855af49150503d8060008114611969576040519150601f19603f3d011682016040523d82523d6000602084013e61196e565b606091505b50915091508181906119935760405162461bcd60e51b81526004016105b7919061280e565b5050505092915050565b6060806119a8612701565b6119b06104c9565b6119b86114ad565b6040805161016081018252600a80548252600b546020830152600c5492820192909252600d546060820152600e546001600160a01b03166080820152600f8054839160a0840191611a0890613016565b80601f0160208091040260200160405190810160405280929190818152602001828054611a3490613016565b8015611a815780601f10611a5657610100808354040283529160200191611a81565b820191906000526020600020905b815481529060010190602001808311611a6457829003601f168201915b50505050508152602001600682018054611a9a90613016565b80601f0160208091040260200160405190810160405280929190818152602001828054611ac690613016565b8015611b135780601f10611ae857610100808354040283529160200191611b13565b820191906000526020600020905b815481529060010190602001808311611af657829003601f168201915b50505050508152602001600782018054611b2c90613016565b80601f0160208091040260200160405190810160405280929190818152602001828054611b5890613016565b8015611ba55780601f10611b7a57610100808354040283529160200191611ba5565b820191906000526020600020905b815481529060010190602001808311611b8857829003601f168201915b5050505050815260200160088201604051806080016040529081600082018054611bce90613016565b80601f0160208091040260200160405190810160405280929190818152602001828054611bfa90613016565b8015611c475780601f10611c1c57610100808354040283529160200191611c47565b820191906000526020600020905b815481529060010190602001808311611c2a57829003601f168201915b50505050508152602001600182018054611c6090613016565b80601f0160208091040260200160405190810160405280929190818152602001828054611c8c90613016565b8015611cd95780601f10611cae57610100808354040283529160200191611cd9565b820191906000526020600020905b815481529060010190602001808311611cbc57829003601f168201915b50505050508152602001600282018054611cf290613016565b80601f0160208091040260200160405190810160405280929190818152602001828054611d1e90613016565b8015611d6b5780601f10611d4057610100808354040283529160200191611d6b565b820191906000526020600020905b815481529060010190602001808311611d4e57829003601f168201915b50505050508152602001600382018054611d8490613016565b80601f0160208091040260200160405190810160405280929190818152602001828054611db090613016565b8015611dfd5780601f10611dd257610100808354040283529160200191611dfd565b820191906000526020600020905b815481529060010190602001808311611de057829003601f168201915b5050505050815250508152602001600c8201805480602002602001604051908101604052809291908181526020018280548015611e5957602002820191906000526020600020905b815481526020019060010190808311611e45575b50505050508152602001600d820154815250509050925092509250909192565b601c54604051336001600160a01b0390921682811492611e9b926020016130dd565b60405160208183030381529060405290611ec85760405162461bcd60e51b81526004016105b7919061280e565b50600080601d60009054906101000a90046001600160a01b03166001600160a01b0316638c6a2cde6040518163ffffffff1660e01b8152600401602060405180830381865afa158015611f1f573d6000803e3d6000fd5b505050506040513d601f19601f82011682018060405250810190611f43919061305b565b6001600160a01b03168484604051602401611f5f92919061315a565b60408051601f198184030181529181526020820180516001600160e01b03166356309bf560e11b17905251610fc191906130c1565b6060600a600c0180548060200260200160405190810160405280929190818152602001828054801561055157602002820191906000526020600020905b815481526020019060010190808311611fd1575050505050905090565b60196020528160005260406000208181548110610e9157600080fd5b601c54604051336001600160a01b039092168281149261202c926020016130dd565b604051602081830303815290604052906120595760405162461bcd60e51b81526004016105b7919061280e565b50600080601d60009054906101000a90046001600160a01b03166001600160a01b0316638c6a2cde6040518163ffffffff1660e01b8152600401602060405180830381865afa1580156120b0573d6000803e3d6000fd5b505050506040513d601f19601f820116820180604052508101906120d4919061305b565b6001600160a01b03168585856040516024016120f293929190612d43565b60408051601f198184030181529181526020820180516001600160e01b03166334ff261960e21b1790525161212791906130c1565b600060405180830381855af49150503d8060008114612162576040519150601f19603f3d011682016040523d82523d6000602084013e612167565b606091505b509150915081819061218c5760405162461bcd60e51b81526004016105b7919061280e565b505050505050565b601c54604051336001600160a01b03909216828114926121b6926020016130dd565b604051602081830303815290604052906121e35760405162461bcd60e51b81526004016105b7919061280e565b50600080601d60009054906101000a90046001600160a01b03166001600160a01b0316638c6a2cde6040518163ffffffff1660e01b8152600401602060405180830381865afa15801561223a573d6000803e3d6000fd5b505050506040513d601f19601f8201168201806040525081019061225e919061305b565b6001600160a01b0316848460405160240161227a929190613479565b60408051601f198184030181529181526020820180516001600160e01b031663f67ad23360e01b17905251610fc191906130c1565b6122b7612790565b600082905060006040518060600160405280836001600160a01b0316639ee095066040518163ffffffff1660e01b8152600401600060405180830381865afa158015612307573d6000803e3d6000fd5b505050506040513d6000823e601f3d908101601f1916820160405261232f91908101906134d2565b8152602001836001600160a01b03166358aee2706040518163ffffffff1660e01b8152600401600060405180830381865afa158015612372573d6000803e3d6000fd5b505050506040513d6000823e601f3d908101601f1916820160405261239a91908101906134d2565b8152602001836001600160a01b0316630a5763646040518163ffffffff1660e01b8152600401600060405180830381865afa1580156123dd573d6000803e3d6000fd5b505050506040513d6000823e601f3d908101601f191682016040526124059190810190613632565b9052949350505050565b6001600160a01b0383166124715760405162461bcd60e51b8152602060048201526024808201527f45524332303a20617070726f76652066726f6d20746865207a65726f206164646044820152637265737360e01b60648201526084016105b7565b6001600160a01b0382166124d25760405162461bcd60e51b815260206004820152602260248201527f45524332303a20617070726f766520746f20746865207a65726f206164647265604482015261737360f01b60648201526084016105b7565b6001600160a01b0383811660008181526001602090815260408083209487168084529482529182902085905590518481527f8c5be1e5ebec7d5bd14f71427d1e84f3dd0314c0f7b2291e5b200ac8c7c3b925910160405180910390a3505050565b6001600160a01b0383166125975760405162461bcd60e51b815260206004820152602560248201527f45524332303a207472616e736665722066726f6d20746865207a65726f206164604482015264647265737360d81b60648201526084016105b7565b6001600160a01b0382166125f95760405162461bcd60e51b815260206004820152602360248201527f45524332303a207472616e7366657220746f20746865207a65726f206164647260448201526265737360e81b60648201526084016105b7565b6001600160a01b038316600090815260208190526040902054818110156126715760405162461bcd60e51b815260206004820152602660248201527f45524332303a207472616e7366657220616d6f756e7420657863656564732062604482015265616c616e636560d01b60648201526084016105b7565b6001600160a01b038085166000908152602081905260408082208585039055918516815290812080548492906126a8908490613176565b92505081905550826001600160a01b0316846001600160a01b03167fddf252ad1be2c89b69c2b068fc378daa952ba7f163c4a11628f55a4df523b3ef846040516126f491815260200190565b60405180910390a361087c565b6040518061016001604052806000815260200160008152602001600081526020016000801916815260200160006001600160a01b0316815260200160608152602001606081526020016060815260200161277c6040518060800160405280606081526020016060815260200160608152602001606081525090565b815260606020820152600060409091015290565b604051806060016040528060608152602001606081526020016127b1612701565b905290565b60005b838110156127d15781810151838201526020016127b9565b8381111561087c5750506000910152565b600081518084526127fa8160208601602086016127b6565b601f01601f19169290920160200192915050565b60208152600061282160208301846127e2565b9392505050565b60008083601f84011261283a57600080fd5b5081356001600160401b0381111561285157600080fd5b60208301915083602082850101111561286957600080fd5b9250929050565b6000806000806060858703121561288657600080fd5b843593506020850135925060408501356001600160401b038111156128aa57600080fd5b6128b687828801612828565b95989497509550505050565b6001600160a01b03811681146128d757600080fd5b50565b80356128e5816128c2565b919050565b6000602082840312156128fc57600080fd5b8135612821816128c2565b6000806040838503121561291a57600080fd5b8235612925816128c2565b946020939093013593505050565b600081516080845261294860808501826127e2565b90506020830151848203602086015261296182826127e2565b9150506040830151848203604086015261297b82826127e2565b9150506060830151848203606086015261299582826127e2565b95945050505050565b600081518084526020808501945080840160005b838110156129ce578151875295820195908201906001016129b2565b509495945050505050565b6000610160825184526020830151602085015260408301516040850152606083015160608501526080830151612a1a60808601826001600160a01b03169052565b5060a08301518160a0860152612a32828601826127e2565b91505060c083015184820360c0860152612a4c82826127e2565b91505060e083015184820360e0860152612a6682826127e2565b9150506101008084015185830382870152612a818382612933565b925050506101208084015185830382870152612a9d838261299e565b61014095860151969095019590955250919392505050565b60208152600061282160208301846129d9565b60008060208385031215612adb57600080fd5b82356001600160401b0380821115612af257600080fd5b818501915085601f830112612b0657600080fd5b813581811115612b1557600080fd5b8660208260051b8501011115612b2a57600080fd5b60209290920196919550909350505050565b600060208284031215612b4e57600080fd5b5035919050565b60018060a01b038616815284602082015283604082015282606082015260a060808201526000612b8860a08301846127e2565b979650505050505050565b600080600060608486031215612ba857600080fd5b8335612bb3816128c2565b92506020840135612bc3816128c2565b929592945050506040919091013590565b6000806000806000806000806080898b031215612bf057600080fd5b88356001600160401b0380821115612c0757600080fd5b612c138c838d01612828565b909a50985060208b0135915080821115612c2c57600080fd5b612c388c838d01612828565b909850965060408b0135915080821115612c5157600080fd5b612c5d8c838d01612828565b909650945060608b0135915080821115612c7657600080fd5b50612c838b828c01612828565b999c989b5096995094979396929594505050565b60008060008060008060808789031215612cb057600080fd5b86356001600160401b0380821115612cc757600080fd5b612cd38a838b01612828565b90985096506020890135915080821115612cec57600080fd5b612cf88a838b01612828565b90965094506040890135915080821115612d1157600080fd5b508701610160818a031215612d2557600080fd5b91506060870135612d35816128c2565b809150509295509295509295565b60018060a01b038416815282602082015260606040820152600061299560608301846127e2565b606081526000612d7d60608301866127e2565b8281036020840152612d8f81866127e2565b90508281036040840152612da381856129d9565b9695505050505050565b6020808252825182820181905260009190848201906040850190845b81811015612de557835183529284019291840191600101612dc9565b50909695505050505050565b634e487b7160e01b600052604160045260246000fd5b604051608081016001600160401b0381118282101715612e2957612e29612df1565b60405290565b60405161016081016001600160401b0381118282101715612e2957612e29612df1565b604051601f8201601f191681016001600160401b0381118282101715612e7a57612e7a612df1565b604052919050565b60006001600160401b03821115612e9b57612e9b612df1565b50601f01601f191660200190565b600080600060608486031215612ebe57600080fd5b8335612ec9816128c2565b92506020840135915060408401356001600160401b03811115612eeb57600080fd5b8401601f81018613612efc57600080fd5b8035612f0f612f0a82612e82565b612e52565b818152876020838501011115612f2457600080fd5b816020840160208301376000602083830101528093505050509250925092565b60008060408385031215612f5757600080fd5b8235612f62816128c2565b91506020830135612f72816128c2565b809150509250929050565b60008060208385031215612f9057600080fd5b82356001600160401b03811115612fa657600080fd5b612fb285828601612828565b90969095509350505050565b602081526000825160606020840152612fda60808401826127e2565b90506020840151601f1980858403016040860152612ff883836127e2565b925060408601519150808584030160608601525061299582826129d9565b600181811c9082168061302a57607f821691505b60208210810361304a57634e487b7160e01b600052602260045260246000fd5b50919050565b80516128e5816128c2565b60006020828403121561306d57600080fd5b8151612821816128c2565b81835281816020850137506000828201602090810191909152601f909101601f19169091010190565b848152836020820152606060408201526000612da3606083018486613078565b600082516130d38184602087016127b6565b9190910192915050565b6060808252601690820152754f6e6c79206f776e65722063616e20646f207468697360501b60808201526001600160a01b0392831660208201529116604082015260a00190565b81835260006001600160fb1b0383111561313d57600080fd5b8260051b8083602087013760009401602001938452509192915050565b60208152600061316e602083018486613124565b949350505050565b6000821982111561319757634e487b7160e01b600052601160045260246000fd5b500190565b6080815260006131b0608083018a8c613078565b82810360208401526131c381898b613078565b905082810360408401526131d8818789613078565b905082810360608401526131ed818587613078565b9b9a5050505050505050505050565b6000808335601e1984360301811261321357600080fd5b83016020810192503590506001600160401b0381111561323257600080fd5b80360382131561286957600080fd5b60008235607e1983360301811261325757600080fd5b90910192915050565b600061326c82836131fc565b6080855261327e608086018284613078565b91505061328e60208401846131fc565b85830360208701526132a1838284613078565b925050506132b260408401846131fc565b85830360408701526132c5838284613078565b925050506132d660608401846131fc565b8583036060870152612da3838284613078565b6000808335601e1984360301811261330057600080fd5b83016020810192503590506001600160401b0381111561331f57600080fd5b8060051b360382131561286957600080fd5b60808152600061334560808301888a613078565b8281036020840152613358818789613078565b9050828103604084015261016085358252602086013560208301526040860135604083015260608601356060830152613393608087016128da565b6001600160a01b031660808301526133ae60a08701876131fc565b8260a08501526133c18385018284613078565b925050506133d260c08701876131fc565b83830360c08501526133e5838284613078565b925050506133f660e08701876131fc565b83830360e0850152613409838284613078565b9250505061010061341c81880188613241565b8383038285015261342d8382613260565b92505050610120613440818801886132e9565b84840383860152613452848284613124565b6101408a8101359601959095525050506001600160a01b0385166060850152509050612b88565b60208152600061316e602083018486613078565b600082601f83011261349e57600080fd5b81516134ac612f0a82612e82565b8181528460208386010111156134c157600080fd5b61316e8260208301602087016127b6565b6000602082840312156134e457600080fd5b81516001600160401b038111156134fa57600080fd5b61316e8482850161348d565b60006080828403121561351857600080fd5b613520612e07565b905081516001600160401b038082111561353957600080fd5b6135458583860161348d565b8352602084015191508082111561355b57600080fd5b6135678583860161348d565b6020840152604084015191508082111561358057600080fd5b61358c8583860161348d565b604084015260608401519150808211156135a557600080fd5b506135b28482850161348d565b60608301525092915050565b600082601f8301126135cf57600080fd5b815160206001600160401b038211156135ea576135ea612df1565b8160051b6135f9828201612e52565b928352848101820192828101908785111561361357600080fd5b83870192505b84831015612b8857825182529183019190830190613619565b60006020828403121561364457600080fd5b81516001600160401b038082111561365b57600080fd5b90830190610160828603121561367057600080fd5b613678612e2f565b825181526020830151602082015260408301516040820152606083015160608201526136a660808401613050565b608082015260a0830151828111156136bd57600080fd5b6136c98782860161348d565b60a08301525060c0830151828111156136e157600080fd5b6136ed8782860161348d565b60c08301525060e08301518281111561370557600080fd5b6137118782860161348d565b60e083015250610100808401518381111561372b57600080fd5b61373788828701613506565b828401525050610120808401518381111561375157600080fd5b61375d888287016135be565b9183019190915250610140928301519281019290925250939250505056fea26469706673582212202d0d406b075ceba8249250414fa12209cf9a7c8a2262926374defec9ad86d7d064736f6c634300080e0033",
  "immutableReferences": {},
  "source": "pragma solidity >= 0.8.0;\npragma experimental ABIEncoderV2;\nimport  \"./IOUtoken.sol\";\nimport  \"./interfaces/iStoreIOUs.sol\";\n\n//import \"@openzeppelin/contracts/proxy/transparent/TransparentUpgradeableProxy.sol\";\n\ncontract ProxyIOU   is IOUData /*,TransparentUpgradeableProxy */  {  \n     function setIOU (//    constructor (\n                string calldata name_, \n                string calldata symbol_, \n                iIOUtoken.DescriptionIOU calldata _thisIOU,\n                 address _store                 ) /* nonConfiged */ external {\n     //   implementation = _implementation;\n//        initialize();\n        iStoreIOUs store1 = iStoreIOUs(_store);\n        address impl = store1.implIOU();\n        (bool success, bytes memory returnedData) = impl.delegatecall(abi.encodeWithSignature(\n        ((\"initialize()\")) \n    ));\n        require(success, string (returnedData));\n        /*  info for encodeWithSignature for function setIOU\n         (//  as a  constructor (\n        \n                string memory name_, \n                string memory symbol_, \n                DescriptionIOU memory _thisIOU,\n                 address _store, \n                address _implementation\n            )  external;\n\n    struct geo {\n        string country;\n        string state;\n        string city;\n        string street;\n    }\n\n    struct DescriptionIOU {\n        uint256 totalMinted;\n        uint256 totalBurned;\n        int256 avRate;\n        bytes32 units;        \n        address issuer;\n        string myName ; //name of emitter\n        string socialProfile ; //profile  of emitter in social nets\n        string description ; //description of bond IOU to  work\n        geo location; //where is it             \n        bytes32[] keywords;\n        bytes32 phone;\n    }\n */\n        ( success,  returnedData) = impl.delegatecall(abi.encodeWithSignature( //\"0x90c29670\"\n            \"setIOU(string,string,(uint256,uint256,int256,bytes32,address,string,string,string,(string,string,string,string),bytes32[],bytes32),address)\",\n            name_,\n            symbol_,\n            _thisIOU,\n            _store\n            ));\n\n    require(success, string (returnedData));\n    } \n \n/*     function initialize() nonInited public {\n        (bool success, bytes memory returnedData) = store.implIOU().delegatecall(abi.encodeWithSignature(\n        ((\"initialize()\"))\n    ));\n        require(success, string (returnedData));\n\n    } */\n\n    function setStore (address _newOwner) public  onlyOwner {\n        //store = iStoreIOUs(_newOwner);\n        (bool success, bytes memory returnedData) = store.implIOU().delegatecall(abi.encodeWithSignature(\n        ((\"setStore(address)\")), _newOwner));\n        require(success, string (returnedData));\n\n    }   \n\n    function setOwner (address _newOwner) public  onlyOwner {\n\n        (bool success, bytes memory returnedData) = store.implIOU().delegatecall(abi.encodeWithSignature(\n        ((\"setOwner(address)\")), _newOwner));\n        require(success, string (returnedData));\n    }\n\n    function mint (address _who, uint256 _amount, string memory _descr) public onlyOwner { \n\n        (bool success, bytes memory returnedData) = store.implIOU().delegatecall(abi.encodeWithSignature(\n        ((\"mint(address,uint256,string)\")), \n        _who, _amount,  _descr));\n        require(success, string (returnedData));\n    }\n    function burn (uint256 _amount, int256 _rating, string calldata _feedback) onlyHolder  (_amount) public {\n        \n        (bool success, bytes memory returnedData) = store.implIOU().delegatecall(abi.encodeWithSignature(\n        ((\"burn(uint256,int256,string)\")), \n         _amount, _rating, _feedback));\n        require(success, string (returnedData));\n        }\n\n    function transfer(address _recipient, uint256 _amount) onlyHolder(_amount) public override returns (bool) {   \n                (bool success, bytes memory returnedData) = store.implIOU().delegatecall(abi.encodeWithSignature(\n        ((\"transfer(address,uint256)\")), \n         _recipient, _amount));\n        require(success, string (returnedData));\n        }\n\n\n    function editDescr (string calldata _descr)  public onlyOwner {\n       (bool success, bytes memory returnedData) = store.implIOU().delegatecall(abi.encodeWithSignature(\n        ((\"editDescr(string)\")), \n         _descr));\n        require(success, string (returnedData));\n    }\n\n    function editPhone (bytes32 _phone)  public onlyOwner {\n        (bool success, bytes memory returnedData) = store.implIOU().delegatecall(abi.encodeWithSignature(\n        ((\"editPhone(bytes32)\")), \n         _phone));\n        require(success, string (returnedData));    \n        }\n\n    function editGeo (string calldata _country,\n                    string calldata _state,\n                    string calldata _city,\n                    string calldata _street)  public onlyOwner {\n        (bool success, bytes memory returnedData) = store.implIOU().delegatecall(abi.encodeWithSignature(\n        ((\"editGeo(string,string,string,string)\")), \n         _country, _state,_city,_street));\n        require(success, string (returnedData));    \n    }\n    function addKeys (bytes32[] calldata _keys)  public onlyOwner { \n        (bool success, bytes memory returnedData) = store.implIOU().delegatecall(abi.encodeWithSignature(\n        ((\"addKeys(bytes32[])\")), \n         _keys));\n        require(success, string (returnedData)); \n    }\n    function delKeys (bytes32[] calldata _keys)  public onlyOwner {\n           (bool success, bytes memory returnedData) = store.implIOU().delegatecall(abi.encodeWithSignature(\n        ((\"delKeys(bytes32[])\")), \n         _keys));\n        require(success, string (returnedData)); \n    }\n\n    function getIOU (address _iou) public view returns ( iIOUtoken.IOUdescr memory) {\n        iIOUtoken iouT = iIOUtoken(_iou);\n        iIOUtoken.IOUdescr memory iouD = iIOUtoken.IOUdescr (iouT.IOUname(), iouT.IOUsymbol(), iouT.thisIOUDesc()  );\n        return iouD;\n}\n\n    function thisIOUkeywords() public view returns (bytes32[] memory)\n    {\n        return thisIOU.keywords;\n    }\n\n    function getlen ()  public view returns (uint256, uint256) {\n        return (allIOUs.length, allFeedbacks.length);\n    } \n\n    function thisIOUDesc () public view  returns (iIOUtoken.DescriptionIOU memory)\n    {    return thisIOU;\n    }\n    function IOUname () public view  returns (string memory)\n    {    return name();\n    }\n    function IOUsymbol () public view  returns (string memory)\n    {    return symbol ();\n    }\n\n\n    function getTokenInfo() public view returns(string memory,\n                                           string memory,\n                                           iIOUtoken.DescriptionIOU memory ) {\n        return(name(), symbol(), thisIOU);\n\n    }\n\n    function name() public view override returns (string memory) {\n        return _name;\n    }\n\n    function symbol() public view override returns (string memory) {\n        return _symbol;\n    }\n\n}",
  "sourcePath": "/512-2/dfd/iou2/contracts/ProxyIOU.sol",
  "compiler": {
    "name": "solc",
    "version": "0.8.14+commit.80d49f37.Emscripten.clang"
  },
  "schemaVersion": "3.4.10",
  "updatedAt": "2023-07-07T08:59:46.978Z",
  "networkType": "ethereum",
  "devdoc": {
    "kind": "dev",
    "methods": {
      "allowance(address,address)": {
        "details": "See {IERC20-allowance}."
      },
      "approve(address,uint256)": {
        "details": "See {IERC20-approve}. Requirements: - `spender` cannot be the zero address."
      },
      "balanceOf(address)": {
        "details": "See {IERC20-balanceOf}."
      },
      "decimals()": {
        "details": "Returns the number of decimals used to get its user representation. For example, if `decimals` equals `2`, a balance of `505` tokens should be displayed to a user as `5.05` (`505 / 10 ** 2`). Tokens usually opt for a value of 18, imitating the relationship between Ether and Wei. This is the value {ERC20} uses, unless this function is overridden; NOTE: This information is only used for _display_ purposes: it in no way affects any of the arithmetic of the contract, including {IERC20-balanceOf} and {IERC20-transfer}."
      },
      "decreaseAllowance(address,uint256)": {
        "details": "Atomically decreases the allowance granted to `spender` by the caller. This is an alternative to {approve} that can be used as a mitigation for problems described in {IERC20-approve}. Emits an {Approval} event indicating the updated allowance. Requirements: - `spender` cannot be the zero address. - `spender` must have allowance for the caller of at least `subtractedValue`."
      },
      "increaseAllowance(address,uint256)": {
        "details": "Atomically increases the allowance granted to `spender` by the caller. This is an alternative to {approve} that can be used as a mitigation for problems described in {IERC20-approve}. Emits an {Approval} event indicating the updated allowance. Requirements: - `spender` cannot be the zero address."
      },
      "name()": {
        "details": "Returns the name of the token."
      },
      "symbol()": {
        "details": "Returns the symbol of the token, usually a shorter version of the name."
      },
      "totalSupply()": {
        "details": "See {IERC20-totalSupply}."
      },
      "transferFrom(address,address,uint256)": {
        "details": "See {IERC20-transferFrom}. Emits an {Approval} event indicating the updated allowance. This is not required by the EIP. See the note at the beginning of {ERC20}. Requirements: - `sender` and `recipient` cannot be the zero address. - `sender` must have a balance of at least `amount`. - the caller must have allowance for ``sender``'s tokens of at least `amount`."
      }
    },
    "version": 1
  },
  "userdoc": {
    "kind": "user",
    "methods": {},
    "version": 1
  }
}