{
  "contractName": "ProxyIOU",
  "abi": [
    {
      "inputs": [
        {
          "internalType": "address",
          "name": "_iou",
          "type": "address"
        }
      ],
      "name": "getIOU",
      "outputs": [
        {
          "internalType": "string",
          "name": "",
          "type": "string"
        },
        {
          "internalType": "string",
          "name": "",
          "type": "string"
        },
        {
          "internalType": "uint256",
          "name": "",
          "type": "uint256"
        },
        {
          "internalType": "uint256",
          "name": "",
          "type": "uint256"
        },
        {
          "internalType": "int256",
          "name": "",
          "type": "int256"
        },
        {
          "internalType": "bytes32",
          "name": "",
          "type": "bytes32"
        },
        {
          "internalType": "address",
          "name": "",
          "type": "address"
        },
        {
          "internalType": "string",
          "name": "",
          "type": "string"
        },
        {
          "internalType": "string",
          "name": "",
          "type": "string"
        },
        {
          "internalType": "string",
          "name": "",
          "type": "string"
        },
        {
          "components": [
            {
              "internalType": "string",
              "name": "country",
              "type": "string"
            },
            {
              "internalType": "string",
              "name": "state",
              "type": "string"
            },
            {
              "internalType": "string",
              "name": "city",
              "type": "string"
            },
            {
              "internalType": "string",
              "name": "street",
              "type": "string"
            }
          ],
          "internalType": "struct iIOUtoken.geo",
          "name": "",
          "type": "tuple"
        },
        {
          "internalType": "bytes32[]",
          "name": "",
          "type": "bytes32[]"
        }
      ],
      "stateMutability": "view",
      "type": "function",
      "constant": true
    }
  ],
  "bytecode": "0x608060405234801561001057600080fd5b50610858806100206000396000f3fe608060405234801561001057600080fd5b506004361061002b5760003560e01c8063fc9925b914610030575b600080fd5b61004361003e36600461041b565b610064565b60405161005b9c9b9a99989796959493929190610677565b60405180910390f35b6060806000806000806000606080606061009f6040518060800160405280606081526020016060815260200160608152602001606081525090565b606060008d90506000816001600160a01b0316630a5763646040518163ffffffff1660e01b815260040160006040518083038186803b1580156100e157600080fd5b505afa1580156100f5573d6000803e3d6000fd5b505050506040513d6000823e601f3d908101601f1916820160405261011d9190810190610471565b9050816001600160a01b0316639ee095066040518163ffffffff1660e01b815260040160006040518083038186803b15801561015857600080fd5b505afa15801561016c573d6000803e3d6000fd5b505050506040513d6000823e601f3d908101601f19168201604052610194919081019061043e565b826001600160a01b03166358aee2706040518163ffffffff1660e01b815260040160006040518083038186803b1580156101cd57600080fd5b505afa1580156101e1573d6000803e3d6000fd5b505050506040513d6000823e601f3d908101601f19168201604052610209919081019061043e565b826000015183602001518460400151856060015186608001518760a001518860c001518960e001518a61010001518b61012001519d509d509d509d509d509d509d509d509d509d509d509d50505091939597999b5091939597999b565b80516102718161080a565b919050565b600082601f830112610286578081fd5b8151602067ffffffffffffffff8211156102a2576102a26107f4565b8160051b6102b1828201610793565b8381528281019086840183880185018910156102cb578687fd5b8693505b858410156102ed5780518352600193909301929184019184016102cf565b50979650505050505050565b600082601f830112610309578081fd5b815167ffffffffffffffff811115610323576103236107f4565b610336601f8201601f1916602001610793565b81815284602083860101111561034a578283fd5b61035b8260208301602087016107c4565b949350505050565b600060808284031215610374578081fd5b61037c610746565b9050815167ffffffffffffffff8082111561039657600080fd5b6103a2858386016102f9565b835260208401519150808211156103b857600080fd5b6103c4858386016102f9565b602084015260408401519150808211156103dd57600080fd5b6103e9858386016102f9565b6040840152606084015191508082111561040257600080fd5b5061040f848285016102f9565b60608301525092915050565b60006020828403121561042c578081fd5b81356104378161080a565b9392505050565b60006020828403121561044f578081fd5b815167ffffffffffffffff811115610465578182fd5b61035b848285016102f9565b600060208284031215610482578081fd5b815167ffffffffffffffff80821115610499578283fd5b9083019061014082860312156104ad578283fd5b6104b561076f565b825181526020830151602082015260408301516040820152606083015160608201526104e360808401610266565b608082015260a0830151828111156104f9578485fd5b610505878286016102f9565b60a08301525060c08301518281111561051c578485fd5b610528878286016102f9565b60c08301525060e08301518281111561053f578485fd5b61054b878286016102f9565b60e0830152506101008084015183811115610564578586fd5b61057088828701610363565b8284015250506101208084015183811115610589578586fd5b61059588828701610276565b918301919091525095945050505050565b6000815180845260208085019450808401835b838110156105d5578151875295820195908201906001016105b9565b509495945050505050565b600081518084526105f88160208601602086016107c4565b601f01601f19169290920160200192915050565b600081516080845261062160808501826105e0565b90506020830151848203602086015261063a82826105e0565b9150506040830151848203604086015261065482826105e0565b9150506060830151848203606086015261066e82826105e0565b95945050505050565b6101808152600061068c61018083018f6105e0565b828103602084015261069e818f6105e0565b90508c60408401528b60608401528a60808401528960a08401526106cd60c084018a6001600160a01b03169052565b82810360e08401526106df81896105e0565b90508281036101008401526106f481886105e0565b905082810361012084015261070981876105e0565b905082810361014084015261071e818661060c565b905082810361016084015261073381856105a6565b9f9e505050505050505050505050505050565b6040516080810167ffffffffffffffff81118282101715610769576107696107f4565b60405290565b604051610140810167ffffffffffffffff81118282101715610769576107696107f4565b604051601f8201601f1916810167ffffffffffffffff811182821017156107bc576107bc6107f4565b604052919050565b60005b838110156107df5781810151838201526020016107c7565b838111156107ee576000848401525b50505050565b634e487b7160e01b600052604160045260246000fd5b6001600160a01b038116811461081f57600080fd5b5056fea26469706673582212203968065b0a8e82a1d28a06badf523fb635dd793a08a2e694c216cb91efbe696c64736f6c63430008040033",
  "immutableReferences": {},
  "source": "pragma solidity >= 0.8.0;\npragma experimental ABIEncoderV2;\nimport  \"./interfaces/iIOUtoken.sol\";\n\ncontract ProxyIOU  { \n\n\n    function getIOU (address _iou) public view returns (\n        string memory  ,\n        string  memory ,\n//        iIOUtoken.DescriptionIOU memory descr\n        uint256,// totalMinted;\n        uint256,// totalBurned;\n        int256,// avRate;\n        bytes32,// units;        \n        address,// issuer;\n        string memory,// myName ; //name of emitter\n        string memory,  //socialProfile ; //profile  of emitter in social nets\n        string memory, //description ; //description of bond IOU to  work\n        iIOUtoken.geo  memory, //location; //where is it             \n        bytes32[] memory// keywords;\n    ) {\n\n        iIOUtoken iouT = iIOUtoken(_iou);\n        iIOUtoken.DescriptionIOU memory descr = iouT.thisIOUDesc();\n     return (iouT.IOUname(),\n            iouT.IOUsymbol(),\n            \n            descr.totalMinted,\n            descr.totalBurned,\n            descr.avRate,\n            descr.units,\n            descr.issuer,\n            descr.myName , //name of emitter\n            descr.socialProfile,  //profile  of emitter in social nets\n            descr.description,//description of bond IOU to  work\n            descr.location, //where is it             \n            descr.keywords\n            );\n    }\n\n}",
  "sourcePath": "/mnt/512-2/dfd/iou2/contracts/ProxyIOU.sol",
  "compiler": {
    "name": "solc",
    "version": "0.8.4+commit.c7e474f2.Emscripten.clang"
  },
  "schemaVersion": "3.4.3",
  "updatedAt": "2021-08-28T06:55:04.868Z",
  "networkType": "ethereum",
  "devdoc": {
    "kind": "dev",
    "methods": {},
    "version": 1
  },
  "userdoc": {
    "kind": "user",
    "methods": {},
    "version": 1
  }
}