{
  "contractName": "ProxyIOU",
  "abi": [
    {
      "inputs": [
        {
          "internalType": "address",
          "name": "_logic",
          "type": "address"
        },
        {
          "internalType": "address",
          "name": "admin_",
          "type": "address"
        }
      ],
      "stateMutability": "payable",
      "type": "constructor"
    },
    {
      "anonymous": false,
      "inputs": [
        {
          "indexed": false,
          "internalType": "address",
          "name": "previousAdmin",
          "type": "address"
        },
        {
          "indexed": false,
          "internalType": "address",
          "name": "newAdmin",
          "type": "address"
        }
      ],
      "name": "AdminChanged",
      "type": "event"
    },
    {
      "anonymous": false,
      "inputs": [
        {
          "indexed": true,
          "internalType": "address",
          "name": "owner",
          "type": "address"
        },
        {
          "indexed": true,
          "internalType": "address",
          "name": "spender",
          "type": "address"
        },
        {
          "indexed": false,
          "internalType": "uint256",
          "name": "value",
          "type": "uint256"
        }
      ],
      "name": "Approval",
      "type": "event"
    },
    {
      "anonymous": false,
      "inputs": [
        {
          "indexed": true,
          "internalType": "address",
          "name": "beacon",
          "type": "address"
        }
      ],
      "name": "BeaconUpgraded",
      "type": "event"
    },
    {
      "anonymous": false,
      "inputs": [
        {
          "indexed": true,
          "internalType": "address",
          "name": "from",
          "type": "address"
        },
        {
          "indexed": true,
          "internalType": "address",
          "name": "to",
          "type": "address"
        },
        {
          "indexed": false,
          "internalType": "uint256",
          "name": "value",
          "type": "uint256"
        }
      ],
      "name": "Transfer",
      "type": "event"
    },
    {
      "anonymous": false,
      "inputs": [
        {
          "indexed": true,
          "internalType": "address",
          "name": "implementation",
          "type": "address"
        }
      ],
      "name": "Upgraded",
      "type": "event"
    },
    {
      "stateMutability": "payable",
      "type": "fallback"
    },
    {
      "inputs": [
        {
          "internalType": "address",
          "name": "",
          "type": "address"
        },
        {
          "internalType": "uint256",
          "name": "",
          "type": "uint256"
        }
      ],
      "name": "IOUbyReceiver",
      "outputs": [
        {
          "internalType": "uint256",
          "name": "",
          "type": "uint256"
        }
      ],
      "stateMutability": "view",
      "type": "function"
    },
    {
      "inputs": [],
      "name": "admin",
      "outputs": [
        {
          "internalType": "address",
          "name": "admin_",
          "type": "address"
        }
      ],
      "stateMutability": "nonpayable",
      "type": "function"
    },
    {
      "inputs": [
        {
          "internalType": "uint256",
          "name": "",
          "type": "uint256"
        }
      ],
      "name": "allFeedbacks",
      "outputs": [
        {
          "internalType": "address",
          "name": "sender",
          "type": "address"
        },
        {
          "internalType": "uint256",
          "name": "time",
          "type": "uint256"
        },
        {
          "internalType": "int256",
          "name": "rating",
          "type": "int256"
        },
        {
          "internalType": "uint256",
          "name": "amount",
          "type": "uint256"
        },
        {
          "internalType": "string",
          "name": "text",
          "type": "string"
        }
      ],
      "stateMutability": "view",
      "type": "function"
    },
    {
      "inputs": [
        {
          "internalType": "uint256",
          "name": "",
          "type": "uint256"
        }
      ],
      "name": "allIOUs",
      "outputs": [
        {
          "internalType": "address",
          "name": "receiver",
          "type": "address"
        },
        {
          "internalType": "uint256",
          "name": "time",
          "type": "uint256"
        },
        {
          "internalType": "string",
          "name": "IOUDescr",
          "type": "string"
        }
      ],
      "stateMutability": "view",
      "type": "function"
    },
    {
      "inputs": [
        {
          "internalType": "address",
          "name": "owner",
          "type": "address"
        },
        {
          "internalType": "address",
          "name": "spender",
          "type": "address"
        }
      ],
      "name": "allowance",
      "outputs": [
        {
          "internalType": "uint256",
          "name": "",
          "type": "uint256"
        }
      ],
      "stateMutability": "view",
      "type": "function"
    },
    {
      "inputs": [
        {
          "internalType": "address",
          "name": "spender",
          "type": "address"
        },
        {
          "internalType": "uint256",
          "name": "amount",
          "type": "uint256"
        }
      ],
      "name": "approve",
      "outputs": [
        {
          "internalType": "bool",
          "name": "",
          "type": "bool"
        }
      ],
      "stateMutability": "nonpayable",
      "type": "function"
    },
    {
      "inputs": [
        {
          "internalType": "address",
          "name": "account",
          "type": "address"
        }
      ],
      "name": "balanceOf",
      "outputs": [
        {
          "internalType": "uint256",
          "name": "",
          "type": "uint256"
        }
      ],
      "stateMutability": "view",
      "type": "function"
    },
    {
      "inputs": [
        {
          "internalType": "address",
          "name": "newAdmin",
          "type": "address"
        }
      ],
      "name": "changeAdmin",
      "outputs": [],
      "stateMutability": "nonpayable",
      "type": "function"
    },
    {
      "inputs": [],
      "name": "decimals",
      "outputs": [
        {
          "internalType": "uint8",
          "name": "",
          "type": "uint8"
        }
      ],
      "stateMutability": "view",
      "type": "function"
    },
    {
      "inputs": [
        {
          "internalType": "address",
          "name": "spender",
          "type": "address"
        },
        {
          "internalType": "uint256",
          "name": "subtractedValue",
          "type": "uint256"
        }
      ],
      "name": "decreaseAllowance",
      "outputs": [
        {
          "internalType": "bool",
          "name": "",
          "type": "bool"
        }
      ],
      "stateMutability": "nonpayable",
      "type": "function"
    },
    {
      "inputs": [
        {
          "internalType": "address",
          "name": "",
          "type": "address"
        },
        {
          "internalType": "uint256",
          "name": "",
          "type": "uint256"
        }
      ],
      "name": "feedBacksbySender",
      "outputs": [
        {
          "internalType": "uint256",
          "name": "",
          "type": "uint256"
        }
      ],
      "stateMutability": "view",
      "type": "function"
    },
    {
      "inputs": [],
      "name": "implementation",
      "outputs": [
        {
          "internalType": "address",
          "name": "implementation_",
          "type": "address"
        }
      ],
      "stateMutability": "nonpayable",
      "type": "function"
    },
    {
      "inputs": [
        {
          "internalType": "address",
          "name": "spender",
          "type": "address"
        },
        {
          "internalType": "uint256",
          "name": "addedValue",
          "type": "uint256"
        }
      ],
      "name": "increaseAllowance",
      "outputs": [
        {
          "internalType": "bool",
          "name": "",
          "type": "bool"
        }
      ],
      "stateMutability": "nonpayable",
      "type": "function"
    },
    {
      "inputs": [],
      "name": "name",
      "outputs": [
        {
          "internalType": "string",
          "name": "",
          "type": "string"
        }
      ],
      "stateMutability": "view",
      "type": "function"
    },
    {
      "inputs": [],
      "name": "symbol",
      "outputs": [
        {
          "internalType": "string",
          "name": "",
          "type": "string"
        }
      ],
      "stateMutability": "view",
      "type": "function"
    },
    {
      "inputs": [],
      "name": "totalSupply",
      "outputs": [
        {
          "internalType": "uint256",
          "name": "",
          "type": "uint256"
        }
      ],
      "stateMutability": "view",
      "type": "function"
    },
    {
      "inputs": [
        {
          "internalType": "address",
          "name": "sender",
          "type": "address"
        },
        {
          "internalType": "address",
          "name": "recipient",
          "type": "address"
        },
        {
          "internalType": "uint256",
          "name": "amount",
          "type": "uint256"
        }
      ],
      "name": "transferFrom",
      "outputs": [
        {
          "internalType": "bool",
          "name": "",
          "type": "bool"
        }
      ],
      "stateMutability": "nonpayable",
      "type": "function"
    },
    {
      "inputs": [
        {
          "internalType": "address",
          "name": "newImplementation",
          "type": "address"
        }
      ],
      "name": "upgradeTo",
      "outputs": [],
      "stateMutability": "nonpayable",
      "type": "function"
    },
    {
      "inputs": [
        {
          "internalType": "address",
          "name": "newImplementation",
          "type": "address"
        },
        {
          "internalType": "bytes",
          "name": "data",
          "type": "bytes"
        }
      ],
      "name": "upgradeToAndCall",
      "outputs": [],
      "stateMutability": "payable",
      "type": "function"
    },
    {
      "stateMutability": "payable",
      "type": "receive"
    },
    {
      "inputs": [
        {
          "internalType": "string",
          "name": "name_",
          "type": "string"
        },
        {
          "internalType": "string",
          "name": "symbol_",
          "type": "string"
        },
        {
          "components": [
            {
              "internalType": "uint256",
              "name": "totalMinted",
              "type": "uint256"
            },
            {
              "internalType": "uint256",
              "name": "totalBurned",
              "type": "uint256"
            },
            {
              "internalType": "int256",
              "name": "avRate",
              "type": "int256"
            },
            {
              "internalType": "bytes32",
              "name": "units",
              "type": "bytes32"
            },
            {
              "internalType": "address",
              "name": "issuer",
              "type": "address"
            },
            {
              "internalType": "string",
              "name": "myName",
              "type": "string"
            },
            {
              "internalType": "string",
              "name": "socialProfile",
              "type": "string"
            },
            {
              "internalType": "string",
              "name": "description",
              "type": "string"
            },
            {
              "components": [
                {
                  "internalType": "string",
                  "name": "country",
                  "type": "string"
                },
                {
                  "internalType": "string",
                  "name": "state",
                  "type": "string"
                },
                {
                  "internalType": "string",
                  "name": "city",
                  "type": "string"
                },
                {
                  "internalType": "string",
                  "name": "street",
                  "type": "string"
                }
              ],
              "internalType": "struct iIOUtoken.geo",
              "name": "location",
              "type": "tuple"
            },
            {
              "internalType": "bytes32[]",
              "name": "keywords",
              "type": "bytes32[]"
            },
            {
              "internalType": "bytes32",
              "name": "phone",
              "type": "bytes32"
            }
          ],
          "internalType": "struct iIOUtoken.DescriptionIOU",
          "name": "_thisIOU",
          "type": "tuple"
        },
        {
          "internalType": "address",
          "name": "_store",
          "type": "address"
        }
      ],
      "name": "setIOU",
      "outputs": [],
      "stateMutability": "nonpayable",
      "type": "function"
    },
    {
      "inputs": [],
      "name": "initialize",
      "outputs": [],
      "stateMutability": "nonpayable",
      "type": "function"
    },
    {
      "inputs": [
        {
          "internalType": "address",
          "name": "_newOwner",
          "type": "address"
        }
      ],
      "name": "setStore",
      "outputs": [],
      "stateMutability": "nonpayable",
      "type": "function"
    },
    {
      "inputs": [
        {
          "internalType": "address",
          "name": "_newOwner",
          "type": "address"
        }
      ],
      "name": "setOwner",
      "outputs": [],
      "stateMutability": "nonpayable",
      "type": "function"
    },
    {
      "inputs": [
        {
          "internalType": "address",
          "name": "_who",
          "type": "address"
        },
        {
          "internalType": "uint256",
          "name": "_amount",
          "type": "uint256"
        },
        {
          "internalType": "string",
          "name": "_descr",
          "type": "string"
        }
      ],
      "name": "mint",
      "outputs": [],
      "stateMutability": "nonpayable",
      "type": "function"
    },
    {
      "inputs": [
        {
          "internalType": "uint256",
          "name": "_amount",
          "type": "uint256"
        },
        {
          "internalType": "int256",
          "name": "_rating",
          "type": "int256"
        },
        {
          "internalType": "string",
          "name": "_feedback",
          "type": "string"
        }
      ],
      "name": "burn",
      "outputs": [],
      "stateMutability": "nonpayable",
      "type": "function"
    },
    {
      "inputs": [
        {
          "internalType": "address",
          "name": "_recipient",
          "type": "address"
        },
        {
          "internalType": "uint256",
          "name": "_amount",
          "type": "uint256"
        }
      ],
      "name": "transfer",
      "outputs": [
        {
          "internalType": "bool",
          "name": "",
          "type": "bool"
        }
      ],
      "stateMutability": "nonpayable",
      "type": "function"
    },
    {
      "inputs": [
        {
          "internalType": "string",
          "name": "_descr",
          "type": "string"
        }
      ],
      "name": "editDescr",
      "outputs": [],
      "stateMutability": "nonpayable",
      "type": "function"
    },
    {
      "inputs": [
        {
          "internalType": "bytes32",
          "name": "_phone",
          "type": "bytes32"
        }
      ],
      "name": "editPhone",
      "outputs": [],
      "stateMutability": "nonpayable",
      "type": "function"
    },
    {
      "inputs": [
        {
          "internalType": "string",
          "name": "_country",
          "type": "string"
        },
        {
          "internalType": "string",
          "name": "_state",
          "type": "string"
        },
        {
          "internalType": "string",
          "name": "_city",
          "type": "string"
        },
        {
          "internalType": "string",
          "name": "_street",
          "type": "string"
        }
      ],
      "name": "editGeo",
      "outputs": [],
      "stateMutability": "nonpayable",
      "type": "function"
    },
    {
      "inputs": [
        {
          "internalType": "bytes32[]",
          "name": "_keys",
          "type": "bytes32[]"
        }
      ],
      "name": "addKeys",
      "outputs": [],
      "stateMutability": "nonpayable",
      "type": "function"
    },
    {
      "inputs": [
        {
          "internalType": "bytes32[]",
          "name": "_keys",
          "type": "bytes32[]"
        }
      ],
      "name": "delKeys",
      "outputs": [],
      "stateMutability": "nonpayable",
      "type": "function"
    },
    {
      "inputs": [
        {
          "internalType": "address",
          "name": "_iou",
          "type": "address"
        }
      ],
      "name": "getIOU",
      "outputs": [
        {
          "components": [
            {
              "internalType": "string",
              "name": "name",
              "type": "string"
            },
            {
              "internalType": "string",
              "name": "symbol",
              "type": "string"
            },
            {
              "components": [
                {
                  "internalType": "uint256",
                  "name": "totalMinted",
                  "type": "uint256"
                },
                {
                  "internalType": "uint256",
                  "name": "totalBurned",
                  "type": "uint256"
                },
                {
                  "internalType": "int256",
                  "name": "avRate",
                  "type": "int256"
                },
                {
                  "internalType": "bytes32",
                  "name": "units",
                  "type": "bytes32"
                },
                {
                  "internalType": "address",
                  "name": "issuer",
                  "type": "address"
                },
                {
                  "internalType": "string",
                  "name": "myName",
                  "type": "string"
                },
                {
                  "internalType": "string",
                  "name": "socialProfile",
                  "type": "string"
                },
                {
                  "internalType": "string",
                  "name": "description",
                  "type": "string"
                },
                {
                  "components": [
                    {
                      "internalType": "string",
                      "name": "country",
                      "type": "string"
                    },
                    {
                      "internalType": "string",
                      "name": "state",
                      "type": "string"
                    },
                    {
                      "internalType": "string",
                      "name": "city",
                      "type": "string"
                    },
                    {
                      "internalType": "string",
                      "name": "street",
                      "type": "string"
                    }
                  ],
                  "internalType": "struct iIOUtoken.geo",
                  "name": "location",
                  "type": "tuple"
                },
                {
                  "internalType": "bytes32[]",
                  "name": "keywords",
                  "type": "bytes32[]"
                },
                {
                  "internalType": "bytes32",
                  "name": "phone",
                  "type": "bytes32"
                }
              ],
              "internalType": "struct iIOUtoken.DescriptionIOU",
              "name": "description",
              "type": "tuple"
            }
          ],
          "internalType": "struct ProxyIOU.IOUdescr",
          "name": "",
          "type": "tuple"
        }
      ],
      "stateMutability": "view",
      "type": "function"
    },
    {
      "inputs": [],
      "name": "thisIOUkeywords",
      "outputs": [
        {
          "internalType": "bytes32[]",
          "name": "",
          "type": "bytes32[]"
        }
      ],
      "stateMutability": "view",
      "type": "function"
    },
    {
      "inputs": [],
      "name": "getlen",
      "outputs": [
        {
          "internalType": "uint256",
          "name": "",
          "type": "uint256"
        },
        {
          "internalType": "uint256",
          "name": "",
          "type": "uint256"
        }
      ],
      "stateMutability": "view",
      "type": "function"
    },
    {
      "inputs": [],
      "name": "thisIOUDesc",
      "outputs": [
        {
          "components": [
            {
              "internalType": "uint256",
              "name": "totalMinted",
              "type": "uint256"
            },
            {
              "internalType": "uint256",
              "name": "totalBurned",
              "type": "uint256"
            },
            {
              "internalType": "int256",
              "name": "avRate",
              "type": "int256"
            },
            {
              "internalType": "bytes32",
              "name": "units",
              "type": "bytes32"
            },
            {
              "internalType": "address",
              "name": "issuer",
              "type": "address"
            },
            {
              "internalType": "string",
              "name": "myName",
              "type": "string"
            },
            {
              "internalType": "string",
              "name": "socialProfile",
              "type": "string"
            },
            {
              "internalType": "string",
              "name": "description",
              "type": "string"
            },
            {
              "components": [
                {
                  "internalType": "string",
                  "name": "country",
                  "type": "string"
                },
                {
                  "internalType": "string",
                  "name": "state",
                  "type": "string"
                },
                {
                  "internalType": "string",
                  "name": "city",
                  "type": "string"
                },
                {
                  "internalType": "string",
                  "name": "street",
                  "type": "string"
                }
              ],
              "internalType": "struct iIOUtoken.geo",
              "name": "location",
              "type": "tuple"
            },
            {
              "internalType": "bytes32[]",
              "name": "keywords",
              "type": "bytes32[]"
            },
            {
              "internalType": "bytes32",
              "name": "phone",
              "type": "bytes32"
            }
          ],
          "internalType": "struct iIOUtoken.DescriptionIOU",
          "name": "",
          "type": "tuple"
        }
      ],
      "stateMutability": "view",
      "type": "function"
    },
    {
      "inputs": [],
      "name": "IOUname",
      "outputs": [
        {
          "internalType": "string",
          "name": "",
          "type": "string"
        }
      ],
      "stateMutability": "view",
      "type": "function"
    },
    {
      "inputs": [],
      "name": "IOUsymbol",
      "outputs": [
        {
          "internalType": "string",
          "name": "",
          "type": "string"
        }
      ],
      "stateMutability": "view",
      "type": "function"
    },
    {
      "inputs": [],
      "name": "getTokenInfo",
      "outputs": [
        {
          "internalType": "string",
          "name": "",
          "type": "string"
        },
        {
          "internalType": "string",
          "name": "",
          "type": "string"
        },
        {
          "components": [
            {
              "internalType": "uint256",
              "name": "totalMinted",
              "type": "uint256"
            },
            {
              "internalType": "uint256",
              "name": "totalBurned",
              "type": "uint256"
            },
            {
              "internalType": "int256",
              "name": "avRate",
              "type": "int256"
            },
            {
              "internalType": "bytes32",
              "name": "units",
              "type": "bytes32"
            },
            {
              "internalType": "address",
              "name": "issuer",
              "type": "address"
            },
            {
              "internalType": "string",
              "name": "myName",
              "type": "string"
            },
            {
              "internalType": "string",
              "name": "socialProfile",
              "type": "string"
            },
            {
              "internalType": "string",
              "name": "description",
              "type": "string"
            },
            {
              "components": [
                {
                  "internalType": "string",
                  "name": "country",
                  "type": "string"
                },
                {
                  "internalType": "string",
                  "name": "state",
                  "type": "string"
                },
                {
                  "internalType": "string",
                  "name": "city",
                  "type": "string"
                },
                {
                  "internalType": "string",
                  "name": "street",
                  "type": "string"
                }
              ],
              "internalType": "struct iIOUtoken.geo",
              "name": "location",
              "type": "tuple"
            },
            {
              "internalType": "bytes32[]",
              "name": "keywords",
              "type": "bytes32[]"
            },
            {
              "internalType": "bytes32",
              "name": "phone",
              "type": "bytes32"
            }
          ],
          "internalType": "struct iIOUtoken.DescriptionIOU",
          "name": "",
          "type": "tuple"
        }
      ],
      "stateMutability": "view",
      "type": "function"
    }
  ],
  "bytecode": "0x6080604052604051620042433803806200424383398101604081905262000026916200052e565b6040805160208101909152600081528290829082816200006860017f360894a13ba1a3210667c828492db98dca3e2076cc3735a920a3ca505d382bbd62000566565b600080516020620041dc833981519152146200008857620000886200058c565b620000968282600062000153565b50620000b590506001600080516020620041fc83398151915262000566565b600080516020620041bc83398151915214620000d557620000d56200058c565b620000e08262000190565b5062000101915060019050600080516020620041fc83398151915262000566565b600080516020620041bc833981519152146200012157620001216200058c565b6200012c8162000190565b50601e80546001600160a01b0319166001600160a01b039290921691909117905562000624565b6200015e83620001eb565b6000825111806200016c5750805b156200018b576200018983836200022d60201b620023961760201c565b505b505050565b7f7e644d79422f17c01e4894b5f4f588d331ebfa28653d42ae832dc59e38c9798f620001bb6200025c565b604080516001600160a01b03928316815291841660208301520160405180910390a1620001e88162000295565b50565b620001f6816200034a565b6040516001600160a01b038216907fbc7cd75a20ee27fd9adebab32041f755214dbc6bffa90cc0225b39da2e5c2d3b90600090a250565b60606200025583836040518060600160405280602781526020016200421c60279139620003ed565b9392505050565b600062000286600080516020620041bc83398151915260001b620004ca60201b620013d41760201c565b546001600160a01b0316919050565b6001600160a01b038116620003005760405162461bcd60e51b815260206004820152602660248201527f455243313936373a206e65772061646d696e20697320746865207a65726f206160448201526564647265737360d01b60648201526084015b60405180910390fd5b8062000329600080516020620041bc83398151915260001b620004ca60201b620013d41760201c565b80546001600160a01b0319166001600160a01b039290921691909117905550565b6200036081620004cd60201b620023bb1760201c565b620003c45760405162461bcd60e51b815260206004820152602d60248201527f455243313936373a206e657720696d706c656d656e746174696f6e206973206e60448201526c1bdd08184818dbdb9d1c9858dd609a1b6064820152608401620002f7565b8062000329600080516020620041dc83398151915260001b620004ca60201b620013d41760201c565b6060833b6200044e5760405162461bcd60e51b815260206004820152602660248201527f416464726573733a2064656c65676174652063616c6c20746f206e6f6e2d636f6044820152651b9d1c9858dd60d21b6064820152608401620002f7565b600080856001600160a01b0316856040516200046b9190620005d1565b600060405180830381855af49150503d8060008114620004a8576040519150601f19603f3d011682016040523d82523d6000602084013e620004ad565b606091505b509092509050620004c0828286620004d3565b9695505050505050565b90565b3b151590565b60608315620004e457508162000255565b825115620004f55782518084602001fd5b8160405162461bcd60e51b8152600401620002f79190620005ef565b80516001600160a01b03811681146200052957600080fd5b919050565b600080604083850312156200054257600080fd5b6200054d8362000511565b91506200055d6020840162000511565b90509250929050565b6000828210156200058757634e487b7160e01b600052601160045260246000fd5b500390565b634e487b7160e01b600052600160045260246000fd5b60005b83811015620005bf578181015183820152602001620005a5565b83811115620001895750506000910152565b60008251620005e5818460208701620005a2565b9190910192915050565b602081526000825180602084015262000610816040850160208701620005a2565b601f01601f19169190910160400192915050565b613b8880620006346000396000f3fe6080604052600436106102295760003560e01c806370a0823111610123578063a9059cbb116100ab578063d3fc98641161006f578063d3fc986414610694578063dd62ed3e146106b4578063f67ad233146106fa578063f851a4401461071a578063fc9925b91461072f57610238565b8063a9059cbb146105ee578063abb1dc441461060e578063ac6137ea14610632578063b251131414610652578063d25b1c6d1461067457610238565b806395d89b41116100f257806395d89b41146105555780639ee095061461056a578063a1a613bb1461057f578063a457c2d71461059f578063a69bac24146105bf57610238565b806370a08231146104c25780637fdcf01f146104f85780638129fc1c146105205780638f2839701461053557610238565b80631bbb6e58116101b15780634f1ef286116101755780634f1ef2861461042d57806358aee270146104405780635c60da1b146104555780636a3611b9146104825780636f879724146104a257610238565b80631bbb6e581461038057806323b872dd146103b1578063313ce567146103d15780633659cfe6146103ed578063395093511461040d57610238565b80630a576364116101f85780630a576364146102db57806313af4035146102fd57806314fcf3151461031d57806318160ddd1461034b578063188caf8a1461036057610238565b806306fdde0314610240578063070df2d21461026b578063087cbd401461028b578063095ea7b3146102ab57610238565b366102385761023661075c565b005b61023661075c565b34801561024c57600080fd5b50610255610776565b6040516102629190612bdd565b60405180910390f35b34801561027757600080fd5b50610236610286366004612cfe565b610808565b34801561029757600080fd5b506102366102a6366004612d72565b610964565b3480156102b757600080fd5b506102cb6102c6366004612d8f565b610a7d565b6040519015158152602001610262565b3480156102e757600080fd5b506102f0610a93565b6040516102629190612f3d565b34801561030957600080fd5b50610236610318366004612d72565b610f56565b34801561032957600080fd5b5061033d610338366004612d8f565b610fd8565b604051908152602001610262565b34801561035757600080fd5b5060025461033d565b34801561036c57600080fd5b5061023661037b366004612f50565b611009565b34801561038c57600080fd5b506103a061039b366004612fc4565b611126565b604051610262959493929190612fdd565b3480156103bd57600080fd5b506102cb6103cc36600461301b565b6111fd565b3480156103dd57600080fd5b5060405160128152602001610262565b3480156103f957600080fd5b50610236610408366004612d72565b6112a9565b34801561041957600080fd5b506102cb610428366004612d8f565b6112e5565b61023661043b3660046130a4565b611321565b34801561044c57600080fd5b50610255611392565b34801561046157600080fd5b5061046a6113a1565b6040516001600160a01b039091168152602001610262565b34801561048e57600080fd5b5061023661049d366004612fc4565b6113d7565b3480156104ae57600080fd5b506102366104bd3660046130f8565b611449565b3480156104ce57600080fd5b5061033d6104dd366004612d72565b6001600160a01b031660009081526020819052604090205490565b34801561050457600080fd5b50601a5460185460408051928352602083019190915201610262565b34801561052c57600080fd5b50610236611578565b34801561054157600080fd5b50610236610550366004612d72565b611688565b34801561056157600080fd5b506102556116b2565b34801561057657600080fd5b506102556116c1565b34801561058b57600080fd5b5061023661059a3660046132fc565b6116cb565b3480156105ab57600080fd5b506102cb6105ba366004612d8f565b611826565b3480156105cb57600080fd5b506105df6105da366004612fc4565b6118bf565b6040516102629392919061349f565b3480156105fa57600080fd5b506102cb610609366004612d8f565b611988565b34801561061a57600080fd5b50610623611ab3565b604051610262939291906134c6565b34801561063e57600080fd5b5061023661064d366004612f50565b611f8f565b34801561065e57600080fd5b50610667612002565b60405161026291906134ff565b34801561068057600080fd5b5061033d61068f366004612d8f565b61205c565b3480156106a057600080fd5b506102366106af366004613543565b612078565b3480156106c057600080fd5b5061033d6106cf366004613585565b6001600160a01b03918216600090815260016020908152604080832093909416825291909152205490565b34801561070657600080fd5b506102366107153660046135be565b612198565b34801561072657600080fd5b5061046a61220b565b34801561073b57600080fd5b5061074f61074a366004612d72565b612236565b60405161026291906135ff565b6107646123c1565b61077461076f61245b565b612465565b565b60606003805461078590613657565b80601f01602080910402602001604051908101604052809291908181526020018280546107b190613657565b80156107fe5780601f106107d3576101008083540402835291602001916107fe565b820191906000526020600020905b8154815290600101906020018083116107e157829003601f168201915b5050505050905090565b336000908152602081905260409020548390811061086d5760405162461bcd60e51b815260206004820152601a60248201527f4e6f20616d6f756e7420746f6b656e20686f6c6465722068617300000000000060448201526064015b60405180910390fd5b601e5460405160009182916001600160a01b03909116907fce2198a2383e97acaa67509d6dae3b29576c440b5c65141f56aa9662259fae3f906108b890899089908990602401613692565b60408051601f198184030181529181526020820180516001600160e01b03166001600160e01b03199094169390931790925290516108f691906136b1565b600060405180830381855af49150503d8060008114610931576040519150601f19603f3d011682016040523d82523d6000602084013e610936565b606091505b509150915081819061095b5760405162461bcd60e51b81526004016108649190612bdd565b50505050505050565b61096c612489565b6001600160a01b0316336001600160a01b03161415610a7257601e546040516001600160a01b03838116602483015260009283929116907f087cbd40609a24f3fef235784fbc1697e8e7a1448c372a2d6b24b88539fb8c00906044015b60408051601f198184030181529181526020820180516001600160e01b03166001600160e01b0319909416939093179092529051610a0791906136b1565b600060405180830381855af49150503d8060008114610a42576040519150601f19603f3d011682016040523d82523d6000602084013e610a47565b606091505b5091509150818190610a6c5760405162461bcd60e51b81526004016108649190612bdd565b50505050565b610a7a61075c565b50565b6000610a8a3384846124bc565b50600192915050565b610a9b612ad0565b6040805161016081018252600a80548252600b546020830152600c5492820192909252600d546060820152600e546001600160a01b03166080820152600f805491929160a084019190610aed90613657565b80601f0160208091040260200160405190810160405280929190818152602001828054610b1990613657565b8015610b665780601f10610b3b57610100808354040283529160200191610b66565b820191906000526020600020905b815481529060010190602001808311610b4957829003601f168201915b50505050508152602001600682018054610b7f90613657565b80601f0160208091040260200160405190810160405280929190818152602001828054610bab90613657565b8015610bf85780601f10610bcd57610100808354040283529160200191610bf8565b820191906000526020600020905b815481529060010190602001808311610bdb57829003601f168201915b50505050508152602001600782018054610c1190613657565b80601f0160208091040260200160405190810160405280929190818152602001828054610c3d90613657565b8015610c8a5780601f10610c5f57610100808354040283529160200191610c8a565b820191906000526020600020905b815481529060010190602001808311610c6d57829003601f168201915b5050505050815260200160088201604051806080016040529081600082018054610cb390613657565b80601f0160208091040260200160405190810160405280929190818152602001828054610cdf90613657565b8015610d2c5780601f10610d0157610100808354040283529160200191610d2c565b820191906000526020600020905b815481529060010190602001808311610d0f57829003601f168201915b50505050508152602001600182018054610d4590613657565b80601f0160208091040260200160405190810160405280929190818152602001828054610d7190613657565b8015610dbe5780601f10610d9357610100808354040283529160200191610dbe565b820191906000526020600020905b815481529060010190602001808311610da157829003601f168201915b50505050508152602001600282018054610dd790613657565b80601f0160208091040260200160405190810160405280929190818152602001828054610e0390613657565b8015610e505780601f10610e2557610100808354040283529160200191610e50565b820191906000526020600020905b815481529060010190602001808311610e3357829003601f168201915b50505050508152602001600382018054610e6990613657565b80601f0160208091040260200160405190810160405280929190818152602001828054610e9590613657565b8015610ee25780601f10610eb757610100808354040283529160200191610ee2565b820191906000526020600020905b815481529060010190602001808311610ec557829003601f168201915b5050505050815250508152602001600c8201805480602002602001604051908101604052809291908181526020018280548015610f3e57602002820191906000526020600020905b815481526020019060010190808311610f2a575b50505050508152602001600d82015481525050905090565b601c546001600160a01b03163314610f805760405162461bcd60e51b8152600401610864906136cd565b601e54604080516001600160a01b0384811660248084019190915283518084039091018152604490920183526020820180516001600160e01b03166313af403560e01b179052915160009384931691610a07916136b1565b601b6020528160005260406000208181548110610ff457600080fd5b90600052602060002001600091509150505481565b601c546001600160a01b031633146110335760405162461bcd60e51b8152600401610864906136cd565b601e5460405160009182916001600160a01b03909116907f188caf8ae9daf1ae6d63502b50005ce72eb2fc44d2e723ac9a4d1689c24ba6b19061107c90879087906024016136fd565b60408051601f198184030181529181526020820180516001600160e01b03166001600160e01b03199094169390931790925290516110ba91906136b1565b600060405180830381855af49150503d80600081146110f5576040519150601f19603f3d011682016040523d82523d6000602084013e6110fa565b606091505b509150915081819061111f5760405162461bcd60e51b81526004016108649190612bdd565b5050505050565b6018818154811061113657600080fd5b6000918252602090912060059091020180546001820154600283015460038401546004850180546001600160a01b0390951696509294919390929061117a90613657565b80601f01602080910402602001604051908101604052809291908181526020018280546111a690613657565b80156111f35780601f106111c8576101008083540402835291602001916111f3565b820191906000526020600020905b8154815290600101906020018083116111d657829003601f168201915b5050505050905085565b600061120a8484846125e0565b6001600160a01b03841660009081526001602090815260408083203384529091529020548281101561128f5760405162461bcd60e51b815260206004820152602860248201527f45524332303a207472616e7366657220616d6f756e74206578636565647320616044820152676c6c6f77616e636560c01b6064820152608401610864565b61129c85338584036124bc565b60019150505b9392505050565b6112b1612489565b6001600160a01b0316336001600160a01b03161415610a7257610a7a816040518060200160405280600081525060006127ae565b3360008181526001602090815260408083206001600160a01b03871684529091528120549091610a8a91859061131c908690613739565b6124bc565b611329612489565b6001600160a01b0316336001600160a01b0316141561138a576113858383838080601f016020809104026020016040519081016040528093929190818152602001838380828437600092019190915250600192506127ae915050565b505050565b61138561075c565b606061139c6116b2565b905090565b60006113ab612489565b6001600160a01b0316336001600160a01b031614156113cc5761139c61245b565b6113d461075c565b90565b601c546001600160a01b031633146114015760405162461bcd60e51b8152600401610864906136cd565b601e546040516024810183905260009182916001600160a01b03909116907f6a3611b93aa5f2234f3ef510dc6e604f6883d7b16dc38bdde099e5a0e1a61910906044016109c9565b601c546001600160a01b031633146114735760405162461bcd60e51b8152600401610864906136cd565b601e5460405160009182916001600160a01b03909116907f6f879724973809076cc591a9061387da6ff02bdd35f59024b2a3dfadc754ae09906114c8908d908d908d908d908d908d908d908d90602401613788565b60408051601f198184030181529181526020820180516001600160e01b03166001600160e01b031990941693909317909252905161150691906136b1565b600060405180830381855af49150503d8060008114611541576040519150601f19603f3d011682016040523d82523d6000602084013e611546565b606091505b509150915081819061156b5760405162461bcd60e51b81526004016108649190612bdd565b5050505050505050505050565b601c54600160a81b900460ff16156115c35760405162461bcd60e51b815260206004820152600e60248201526d105b1c9958591e481a5b9a5d195960921b6044820152606401610864565b601e5460408051600481526024810182526020810180516001600160e01b031663204a7f0760e21b179052905160009283926001600160a01b039091169161160b91906136b1565b600060405180830381855af49150503d8060008114611646576040519150601f19603f3d011682016040523d82523d6000602084013e61164b565b606091505b50915091508181906116705760405162461bcd60e51b81526004016108649190612bdd565b5050601c805460ff60a81b1916600160a81b17905550565b611690612489565b6001600160a01b0316336001600160a01b03161415610a7257610a7a816127d3565b60606004805461078590613657565b606061139c610776565b601c54600160a01b900460ff161561171a5760405162461bcd60e51b8152602060048201526012602482015271105b1c9958591e4818dbdb999a59dd5c995960721b6044820152606401610864565b601e5460405160009182916001600160a01b03909116907f4836fe8594e5c43d75a24c4a7b928f6fde8a87dbad1cf4cab1ad2b48cf2142e3906117679089908990899089906024016137e8565b60408051601f198184030181529181526020820180516001600160e01b03166001600160e01b03199094169390931790925290516117a591906136b1565b600060405180830381855af49150503d80600081146117e0576040519150601f19603f3d011682016040523d82523d6000602084013e6117e5565b606091505b509150915081819061180a5760405162461bcd60e51b81526004016108649190612bdd565b5050601c805460ff60a01b1916600160a01b1790555050505050565b3360009081526001602090815260408083206001600160a01b0386168452909152812054828110156118a85760405162461bcd60e51b815260206004820152602560248201527f45524332303a2064656372656173656420616c6c6f77616e63652062656c6f77604482015264207a65726f60d81b6064820152608401610864565b6118b533858584036124bc565b5060019392505050565b601a81815481106118cf57600080fd5b60009182526020909120600390910201805460018201546002830180546001600160a01b03909316945090929161190590613657565b80601f016020809104026020016040519081016040528092919081815260200182805461193190613657565b801561197e5780601f106119535761010080835404028352916020019161197e565b820191906000526020600020905b81548152906001019060200180831161196157829003601f168201915b5050505050905083565b33600090815260208190526040812054829081106119e85760405162461bcd60e51b815260206004820152601a60248201527f4e6f20616d6f756e7420746f6b656e20686f6c646572206861730000000000006044820152606401610864565b601e54604080516001600160a01b038781166024830152604480830188905283518084039091018152606490920183526020820180516001600160e01b031663a9059cbb60e01b179052915160009384931691611a44916136b1565b600060405180830381855af49150503d8060008114611a7f576040519150601f19603f3d011682016040523d82523d6000602084013e611a84565b606091505b5091509150818190611aa95760405162461bcd60e51b81526004016108649190612bdd565b5050505092915050565b606080611abe612ad0565b611ac6610776565b611ace6116b2565b6040805161016081018252600a80548252600b546020830152600c5492820192909252600d546060820152600e546001600160a01b03166080820152600f8054839160a0840191611b1e90613657565b80601f0160208091040260200160405190810160405280929190818152602001828054611b4a90613657565b8015611b975780601f10611b6c57610100808354040283529160200191611b97565b820191906000526020600020905b815481529060010190602001808311611b7a57829003601f168201915b50505050508152602001600682018054611bb090613657565b80601f0160208091040260200160405190810160405280929190818152602001828054611bdc90613657565b8015611c295780601f10611bfe57610100808354040283529160200191611c29565b820191906000526020600020905b815481529060010190602001808311611c0c57829003601f168201915b50505050508152602001600782018054611c4290613657565b80601f0160208091040260200160405190810160405280929190818152602001828054611c6e90613657565b8015611cbb5780601f10611c9057610100808354040283529160200191611cbb565b820191906000526020600020905b815481529060010190602001808311611c9e57829003601f168201915b5050505050815260200160088201604051806080016040529081600082018054611ce490613657565b80601f0160208091040260200160405190810160405280929190818152602001828054611d1090613657565b8015611d5d5780601f10611d3257610100808354040283529160200191611d5d565b820191906000526020600020905b815481529060010190602001808311611d4057829003601f168201915b50505050508152602001600182018054611d7690613657565b80601f0160208091040260200160405190810160405280929190818152602001828054611da290613657565b8015611def5780601f10611dc457610100808354040283529160200191611def565b820191906000526020600020905b815481529060010190602001808311611dd257829003601f168201915b50505050508152602001600282018054611e0890613657565b80601f0160208091040260200160405190810160405280929190818152602001828054611e3490613657565b8015611e815780601f10611e5657610100808354040283529160200191611e81565b820191906000526020600020905b815481529060010190602001808311611e6457829003601f168201915b50505050508152602001600382018054611e9a90613657565b80601f0160208091040260200160405190810160405280929190818152602001828054611ec690613657565b8015611f135780601f10611ee857610100808354040283529160200191611f13565b820191906000526020600020905b815481529060010190602001808311611ef657829003601f168201915b5050505050815250508152602001600c8201805480602002602001604051908101604052809291908181526020018280548015611f6f57602002820191906000526020600020905b815481526020019060010190808311611f5b575b50505050508152602001600d820154815250509050925092509250909192565b601c546001600160a01b03163314611fb95760405162461bcd60e51b8152600401610864906136cd565b601e5460405160009182916001600160a01b03909116907fac6137ea7a10a3da696b7f9f9c035cb52829c2ea16072aec6a6816440111f3719061107c90879087906024016136fd565b6060600a600c018054806020026020016040519081016040528092919081815260200182805480156107fe57602002820191906000526020600020905b81548152602001906001019080831161203f575050505050905090565b60196020528160005260406000208181548110610ff457600080fd5b601c546001600160a01b031633146120a25760405162461bcd60e51b8152600401610864906136cd565b601e5460405160009182916001600160a01b03909116907fd3fc9864faa02642f71dd9b0b1ad99c6139591b8a2cf1add7f1970a4d243556a906120ed9088908890889060240161349f565b60408051601f198184030181529181526020820180516001600160e01b03166001600160e01b031990941693909317909252905161212b91906136b1565b600060405180830381855af49150503d8060008114612166576040519150601f19603f3d011682016040523d82523d6000602084013e61216b565b606091505b50915091508181906121905760405162461bcd60e51b81526004016108649190612bdd565b505050505050565b601c546001600160a01b031633146121c25760405162461bcd60e51b8152600401610864906136cd565b601e5460405160009182916001600160a01b03909116907ff67ad2330d40ba54966f45caa7b60ec951dfb4811cf4be198b16c8055e1d09e79061107c908790879060240161383b565b6000612215612489565b6001600160a01b0316336001600160a01b031614156113cc5761139c612489565b61223e612b5f565b600082905060006040518060600160405280836001600160a01b0316639ee095066040518163ffffffff1660e01b8152600401600060405180830381865afa15801561228e573d6000803e3d6000fd5b505050506040513d6000823e601f3d908101601f191682016040526122b6919081019061389c565b8152602001836001600160a01b03166358aee2706040518163ffffffff1660e01b8152600401600060405180830381865afa1580156122f9573d6000803e3d6000fd5b505050506040513d6000823e601f3d908101601f19168201604052612321919081019061389c565b8152602001836001600160a01b0316630a5763646040518163ffffffff1660e01b8152600401600060405180830381865afa158015612364573d6000803e3d6000fd5b505050506040513d6000823e601f3d908101601f1916820160405261238c91908101906139e2565b9052949350505050565b60606112a28383604051806060016040528060278152602001613b2c60279139612827565b3b151590565b6123c9612489565b6001600160a01b0316336001600160a01b031614156107745760405162461bcd60e51b815260206004820152604260248201527f5472616e73706172656e745570677261646561626c6550726f78793a2061646d60448201527f696e2063616e6e6f742066616c6c6261636b20746f2070726f78792074617267606482015261195d60f21b608482015260a401610864565b600061139c6128fb565b3660008037600080366000845af43d6000803e808015612484573d6000f35b3d6000fd5b60007fb53127684a568b3173ae13b9f8a6016e243e63b6e8ee1178d6a717850b5d61035b546001600160a01b0316919050565b6001600160a01b03831661251e5760405162461bcd60e51b8152602060048201526024808201527f45524332303a20617070726f76652066726f6d20746865207a65726f206164646044820152637265737360e01b6064820152608401610864565b6001600160a01b03821661257f5760405162461bcd60e51b815260206004820152602260248201527f45524332303a20617070726f766520746f20746865207a65726f206164647265604482015261737360f01b6064820152608401610864565b6001600160a01b0383811660008181526001602090815260408083209487168084529482529182902085905590518481527f8c5be1e5ebec7d5bd14f71427d1e84f3dd0314c0f7b2291e5b200ac8c7c3b925910160405180910390a3505050565b6001600160a01b0383166126445760405162461bcd60e51b815260206004820152602560248201527f45524332303a207472616e736665722066726f6d20746865207a65726f206164604482015264647265737360d81b6064820152608401610864565b6001600160a01b0382166126a65760405162461bcd60e51b815260206004820152602360248201527f45524332303a207472616e7366657220746f20746865207a65726f206164647260448201526265737360e81b6064820152608401610864565b6001600160a01b0383166000908152602081905260409020548181101561271e5760405162461bcd60e51b815260206004820152602660248201527f45524332303a207472616e7366657220616d6f756e7420657863656564732062604482015265616c616e636560d01b6064820152608401610864565b6001600160a01b03808516600090815260208190526040808220858503905591851681529081208054849290612755908490613739565b92505081905550826001600160a01b0316846001600160a01b03167fddf252ad1be2c89b69c2b068fc378daa952ba7f163c4a11628f55a4df523b3ef846040516127a191815260200190565b60405180910390a3610a6c565b6127b783612923565b6000825111806127c45750805b1561138557610a6c8383612396565b7f7e644d79422f17c01e4894b5f4f588d331ebfa28653d42ae832dc59e38c9798f6127fc612489565b604080516001600160a01b03928316815291841660208301520160405180910390a1610a7a81612963565b6060833b6128865760405162461bcd60e51b815260206004820152602660248201527f416464726573733a2064656c65676174652063616c6c20746f206e6f6e2d636f6044820152651b9d1c9858dd60d21b6064820152608401610864565b600080856001600160a01b0316856040516128a191906136b1565b600060405180830381855af49150503d80600081146128dc576040519150601f19603f3d011682016040523d82523d6000602084013e6128e1565b606091505b50915091506128f1828286612a0c565b9695505050505050565b60007f360894a13ba1a3210667c828492db98dca3e2076cc3735a920a3ca505d382bbc6124ad565b61292c81612a45565b6040516001600160a01b038216907fbc7cd75a20ee27fd9adebab32041f755214dbc6bffa90cc0225b39da2e5c2d3b90600090a250565b6001600160a01b0381166129c85760405162461bcd60e51b815260206004820152602660248201527f455243313936373a206e65772061646d696e20697320746865207a65726f206160448201526564647265737360d01b6064820152608401610864565b807fb53127684a568b3173ae13b9f8a6016e243e63b6e8ee1178d6a717850b5d61035b80546001600160a01b0319166001600160a01b039290921691909117905550565b60608315612a1b5750816112a2565b825115612a2b5782518084602001fd5b8160405162461bcd60e51b81526004016108649190612bdd565b803b612aa95760405162461bcd60e51b815260206004820152602d60248201527f455243313936373a206e657720696d706c656d656e746174696f6e206973206e60448201526c1bdd08184818dbdb9d1c9858dd609a1b6064820152608401610864565b807f360894a13ba1a3210667c828492db98dca3e2076cc3735a920a3ca505d382bbc6129eb565b6040518061016001604052806000815260200160008152602001600081526020016000801916815260200160006001600160a01b03168152602001606081526020016060815260200160608152602001612b4b6040518060800160405280606081526020016060815260200160608152602001606081525090565b815260606020820152600060409091015290565b60405180606001604052806060815260200160608152602001612b80612ad0565b905290565b60005b83811015612ba0578181015183820152602001612b88565b83811115610a6c5750506000910152565b60008151808452612bc9816020860160208601612b85565b601f01601f19169290920160200192915050565b6020815260006112a26020830184612bb1565b634e487b7160e01b600052604160045260246000fd5b604051608081016001600160401b0381118282101715612c2857612c28612bf0565b60405290565b60405161016081016001600160401b0381118282101715612c2857612c28612bf0565b604051601f8201601f191681016001600160401b0381118282101715612c7957612c79612bf0565b604052919050565b60006001600160401b03821115612c9a57612c9a612bf0565b50601f01601f191660200190565b600082601f830112612cb957600080fd5b8135612ccc612cc782612c81565b612c51565b818152846020838601011115612ce157600080fd5b816020850160208301376000918101602001919091529392505050565b600080600060608486031215612d1357600080fd5b833592506020840135915060408401356001600160401b03811115612d3757600080fd5b612d4386828701612ca8565b9150509250925092565b6001600160a01b0381168114610a7a57600080fd5b8035612d6d81612d4d565b919050565b600060208284031215612d8457600080fd5b81356112a281612d4d565b60008060408385031215612da257600080fd5b8235612dad81612d4d565b946020939093013593505050565b6000815160808452612dd06080850182612bb1565b905060208301518482036020860152612de98282612bb1565b91505060408301518482036040860152612e038282612bb1565b91505060608301518482036060860152612e1d8282612bb1565b95945050505050565b600081518084526020808501945080840160005b83811015612e5657815187529582019590820190600101612e3a565b509495945050505050565b6000610160825184526020830151602085015260408301516040850152606083015160608501526080830151612ea260808601826001600160a01b03169052565b5060a08301518160a0860152612eba82860182612bb1565b91505060c083015184820360c0860152612ed48282612bb1565b91505060e083015184820360e0860152612eee8282612bb1565b9150506101008084015185830382870152612f098382612dbb565b925050506101208084015185830382870152612f258382612e26565b61014095860151969095019590955250919392505050565b6020815260006112a26020830184612e61565b60008060208385031215612f6357600080fd5b82356001600160401b0380821115612f7a57600080fd5b818501915085601f830112612f8e57600080fd5b813581811115612f9d57600080fd5b8660208260051b8501011115612fb257600080fd5b60209290920196919550909350505050565b600060208284031215612fd657600080fd5b5035919050565b60018060a01b038616815284602082015283604082015282606082015260a06080820152600061301060a0830184612bb1565b979650505050505050565b60008060006060848603121561303057600080fd5b833561303b81612d4d565b9250602084013561304b81612d4d565b929592945050506040919091013590565b60008083601f84011261306e57600080fd5b5081356001600160401b0381111561308557600080fd5b60208301915083602082850101111561309d57600080fd5b9250929050565b6000806000604084860312156130b957600080fd5b83356130c481612d4d565b925060208401356001600160401b038111156130df57600080fd5b6130eb8682870161305c565b9497909650939450505050565b6000806000806000806000806080898b03121561311457600080fd5b88356001600160401b038082111561312b57600080fd5b6131378c838d0161305c565b909a50985060208b013591508082111561315057600080fd5b61315c8c838d0161305c565b909850965060408b013591508082111561317557600080fd5b6131818c838d0161305c565b909650945060608b013591508082111561319a57600080fd5b506131a78b828c0161305c565b999c989b5096995094979396929594505050565b6000608082840312156131cd57600080fd5b6131d5612c06565b905081356001600160401b03808211156131ee57600080fd5b6131fa85838601612ca8565b8352602084013591508082111561321057600080fd5b61321c85838601612ca8565b6020840152604084013591508082111561323557600080fd5b61324185838601612ca8565b6040840152606084013591508082111561325a57600080fd5b5061326784828501612ca8565b60608301525092915050565b60006001600160401b0382111561328c5761328c612bf0565b5060051b60200190565b600082601f8301126132a757600080fd5b813560206132b7612cc783613273565b82815260059290921b840181019181810190868411156132d657600080fd5b8286015b848110156132f157803583529183019183016132da565b509695505050505050565b6000806000806080858703121561331257600080fd5b84356001600160401b038082111561332957600080fd5b61333588838901612ca8565b9550602087013591508082111561334b57600080fd5b61335788838901612ca8565b9450604087013591508082111561336d57600080fd5b90860190610160828903121561338257600080fd5b61338a612c2e565b823581526020830135602082015260408301356040820152606083013560608201526133b860808401612d62565b608082015260a0830135828111156133cf57600080fd5b6133db8a828601612ca8565b60a08301525060c0830135828111156133f357600080fd5b6133ff8a828601612ca8565b60c08301525060e08301358281111561341757600080fd5b6134238a828601612ca8565b60e083015250610100808401358381111561343d57600080fd5b6134498b8287016131bb565b828401525050610120808401358381111561346357600080fd5b61346f8b828701613296565b8284015250506101409150818301358282015280945050505061349460608601612d62565b905092959194509250565b60018060a01b0384168152826020820152606060408201526000612e1d6060830184612bb1565b6060815260006134d96060830186612bb1565b82810360208401526134eb8186612bb1565b905082810360408401526128f18185612e61565b6020808252825182820181905260009190848201906040850190845b818110156135375783518352928401929184019160010161351b565b50909695505050505050565b60008060006060848603121561355857600080fd5b833561356381612d4d565b92506020840135915060408401356001600160401b03811115612d3757600080fd5b6000806040838503121561359857600080fd5b82356135a381612d4d565b915060208301356135b381612d4d565b809150509250929050565b600080602083850312156135d157600080fd5b82356001600160401b038111156135e757600080fd5b6135f38582860161305c565b90969095509350505050565b60208152600082516060602084015261361b6080840182612bb1565b90506020840151601f19808584030160408601526136398383612bb1565b9250604086015191508085840301606086015250612e1d8282612e61565b600181811c9082168061366b57607f821691505b6020821081141561368c57634e487b7160e01b600052602260045260246000fd5b50919050565b838152826020820152606060408201526000612e1d6060830184612bb1565b600082516136c3818460208701612b85565b9190910192915050565b6020808252601690820152754f6e6c79206f776e65722063616e20646f207468697360501b604082015260600190565b6020808252810182905260006001600160fb1b0383111561371d57600080fd5b8260051b80856040850137600092016040019182525092915050565b6000821982111561375a57634e487b7160e01b600052601160045260246000fd5b500190565b81835281816020850137506000828201602090810191909152601f909101601f19169091010190565b60808152600061379c608083018a8c61375f565b82810360208401526137af81898b61375f565b905082810360408401526137c481878961375f565b905082810360608401526137d981858761375f565b9b9a5050505050505050505050565b6080815260006137fb6080830187612bb1565b828103602084015261380d8187612bb1565b905082810360408401526138218186612e61565b91505060018060a01b038316606083015295945050505050565b60208152600061384f60208301848661375f565b949350505050565b600082601f83011261386857600080fd5b8151613876612cc782612c81565b81815284602083860101111561388b57600080fd5b61384f826020830160208701612b85565b6000602082840312156138ae57600080fd5b81516001600160401b038111156138c457600080fd5b61384f84828501613857565b8051612d6d81612d4d565b6000608082840312156138ed57600080fd5b6138f5612c06565b905081516001600160401b038082111561390e57600080fd5b61391a85838601613857565b8352602084015191508082111561393057600080fd5b61393c85838601613857565b6020840152604084015191508082111561395557600080fd5b61396185838601613857565b6040840152606084015191508082111561397a57600080fd5b5061326784828501613857565b600082601f83011261399857600080fd5b815160206139a8612cc783613273565b82815260059290921b840181019181810190868411156139c757600080fd5b8286015b848110156132f157805183529183019183016139cb565b6000602082840312156139f457600080fd5b81516001600160401b0380821115613a0b57600080fd5b908301906101608286031215613a2057600080fd5b613a28612c2e565b82518152602083015160208201526040830151604082015260608301516060820152613a56608084016138d0565b608082015260a083015182811115613a6d57600080fd5b613a7987828601613857565b60a08301525060c083015182811115613a9157600080fd5b613a9d87828601613857565b60c08301525060e083015182811115613ab557600080fd5b613ac187828601613857565b60e0830152506101008084015183811115613adb57600080fd5b613ae7888287016138db565b8284015250506101208084015183811115613b0157600080fd5b613b0d88828701613987565b9183019190915250610140928301519281019290925250939250505056fe416464726573733a206c6f772d6c6576656c2064656c65676174652063616c6c206661696c6564a264697066735822122049006c030dd5998ad3eb7ed4499ca9f348120652c084529c9645e66fa2cf8c9d64736f6c634300080a0033b53127684a568b3173ae13b9f8a6016e243e63b6e8ee1178d6a717850b5d6103360894a13ba1a3210667c828492db98dca3e2076cc3735a920a3ca505d382bbcb53127684a568b3173ae13b9f8a6016e243e63b6e8ee1178d6a717850b5d6104416464726573733a206c6f772d6c6576656c2064656c65676174652063616c6c206661696c6564",
  "immutableReferences": {},
  "source": "pragma solidity >= 0.8.0;\npragma experimental ABIEncoderV2;\nimport  \"./IOUtoken.sol\";\nimport \"@openzeppelin/contracts/proxy/transparent/TransparentUpgradeableProxy.sol\";\n\ncontract ProxyIOU  is IOUData,TransparentUpgradeableProxy  {  \n    \n    struct IOUdescr {\n        string name;\n        string symbol;\n        iIOUtoken.DescriptionIOU description;\n    }\n    address implementation;\n    constructor(\n        address _logic,\n        address admin_\n    ) payable TransparentUpgradeableProxy(_logic, admin_, \"\") {\n        assert(_ADMIN_SLOT == bytes32(uint256(keccak256(\"eip1967.proxy.admin\")) - 1));\n        _changeAdmin(admin_);\n        implementation = _logic;\n    }\n    \n    modifier onlyOwner() {\n        require (owner == msg.sender, \"Only owner can do this\");\n        _;\n    }\n    modifier nonInited () {\n        require(!inited, \"Already inited\");\n        _;\n        inited = true;\n\n    }\n\n    modifier nonConfiged () {\n        require(!configured, \"Already configured\");\n        _;\n        configured = true;\n\n    }\n\n    modifier onlyHolder (uint256 _amount) {\n        require (balanceOf(msg.sender) > _amount, \"No amount token holder has\" );\n    _;\n    }\n   \n     function setIOU (//    constructor (\n                string memory name_, \n                string memory symbol_, \n                iIOUtoken.DescriptionIOU memory _thisIOU,\n                 address _store) nonConfiged external {\n        (bool success, bytes memory returnedData) = implementation.delegatecall(abi.encodeWithSelector(\n            bytes4(keccak256(\"setIOU(string,string,iIOUtoken.DescriptionIOU,address)\")),\n            name_,\n            symbol_,\n            _thisIOU,\n            _store\n            ));\n\n    require(success, string (returnedData));\n    } \n \n    function initialize() nonInited external {\n        (bool success, bytes memory returnedData) = implementation.delegatecall(abi.encodeWithSelector(\n        bytes4(keccak256(\"initialize()\"))\n    ));\n        require(success, string (returnedData));\n\n    }\n\n    function setStore (address _newOwner) public  ifAdmin {\n        //store = iStoreIOUs(_newOwner);\n        (bool success, bytes memory returnedData) = implementation.delegatecall(abi.encodeWithSelector(\n        bytes4(keccak256(\"setStore(address)\")), _newOwner));\n        require(success, string (returnedData));\n\n    }   \n\n    function setOwner (address _newOwner) public  onlyOwner {\n\n        (bool success, bytes memory returnedData) = implementation.delegatecall(abi.encodeWithSelector(\n        bytes4(keccak256(\"setOwner(address)\")), _newOwner));\n        require(success, string (returnedData));\n    }\n\n    function mint (address _who, uint256 _amount, string memory _descr) public onlyOwner { \n\n        (bool success, bytes memory returnedData) = implementation.delegatecall(abi.encodeWithSelector(\n        bytes4(keccak256(\"mint(address,uint256,string)\")), \n        _who, _amount,  _descr));\n        require(success, string (returnedData));\n    }\n    function burn (uint256 _amount, int256 _rating, string memory _feedback) onlyHolder  (_amount) public {\n        \n        (bool success, bytes memory returnedData) = implementation.delegatecall(abi.encodeWithSelector(\n        bytes4(keccak256(\"burn(uint256,uint256,string)\")), \n         _amount, _rating, _feedback));\n        require(success, string (returnedData));\n        }\n\n    function transfer(address _recipient, uint256 _amount) onlyHolder(_amount) public override returns (bool) {   \n                (bool success, bytes memory returnedData) = implementation.delegatecall(abi.encodeWithSelector(\n        bytes4(keccak256(\"transfer(address,uint256)\")), \n         _recipient, _amount));\n        require(success, string (returnedData));\n        }\n\n\n    function editDescr (string calldata _descr)  public onlyOwner {\n       (bool success, bytes memory returnedData) = implementation.delegatecall(abi.encodeWithSelector(\n        bytes4(keccak256(\"editDescr(string)\")), \n         _descr));\n        require(success, string (returnedData));\n    }\n\n    function editPhone (bytes32 _phone)  public onlyOwner {\n        (bool success, bytes memory returnedData) = implementation.delegatecall(abi.encodeWithSelector(\n        bytes4(keccak256(\"editPhone(bytes32)\")), \n         _phone));\n        require(success, string (returnedData));    \n        }\n\n    function editGeo (string calldata _country,\n                    string calldata _state,\n                    string calldata _city,\n                    string calldata _street)  public onlyOwner {\n        (bool success, bytes memory returnedData) = implementation.delegatecall(abi.encodeWithSelector(\n        bytes4(keccak256(\"editGeo(string,string,string,string)\")), \n         _country, _state,_city,_street));\n        require(success, string (returnedData));    \n    }\n    function addKeys (bytes32[] calldata _keys)  public onlyOwner { \n        (bool success, bytes memory returnedData) = implementation.delegatecall(abi.encodeWithSelector(\n        bytes4(keccak256(\"addKeys(bytes32[])\")), \n         _keys));\n        require(success, string (returnedData)); \n    }\n    function delKeys (bytes32[] calldata _keys)  public onlyOwner {\n           (bool success, bytes memory returnedData) = implementation.delegatecall(abi.encodeWithSelector(\n        bytes4(keccak256(\"delKeys(bytes32[])\")), \n         _keys));\n        require(success, string (returnedData)); \n    }\n\n    function getIOU (address _iou) public view returns ( IOUdescr memory) {\n        iIOUtoken iouT = iIOUtoken(_iou);\n        IOUdescr memory iouD = IOUdescr (iouT.IOUname(), iouT.IOUsymbol(), iouT.thisIOUDesc()  );\n        return iouD;\n}\n\n    function thisIOUkeywords() public view returns (bytes32[] memory)\n    {\n        return thisIOU.keywords;\n    }\n\n    function getlen ()  public view returns (uint256, uint256) {\n        return (allIOUs.length, allFeedbacks.length);\n    } \n\n    function thisIOUDesc () public view  returns (iIOUtoken.DescriptionIOU memory)\n    {    return thisIOU;\n    }\n    function IOUname () public view  returns (string memory)\n    {    return name();\n    }\n    function IOUsymbol () public view  returns (string memory)\n    {    return symbol ();\n    }\n\n\n    function getTokenInfo() public view returns(string memory,\n                                           string memory,\n                                           iIOUtoken.DescriptionIOU memory ) {\n        return(name(), symbol(), thisIOU);\n\n    }\n\n}",
  "sourcePath": "/mnt/512-2/dfd/iou2/contracts/ProxyIOU.sol",
  "compiler": {
    "name": "solc",
    "version": "0.8.10+commit.fc410830.Emscripten.clang"
  },
  "schemaVersion": "3.4.4",
  "updatedAt": "2022-02-15T18:00:36.654Z",
  "devdoc": {
    "kind": "dev",
    "methods": {
      "admin()": {
        "details": "Returns the current admin. NOTE: Only the admin can call this function. See {ProxyAdmin-getProxyAdmin}. TIP: To get this value clients can read directly from the storage slot shown below (specified by EIP1967) using the https://eth.wiki/json-rpc/API#eth_getstorageat[`eth_getStorageAt`] RPC call. `0xb53127684a568b3173ae13b9f8a6016e243e63b6e8ee1178d6a717850b5d6103`"
      },
      "allowance(address,address)": {
        "details": "See {IERC20-allowance}."
      },
      "approve(address,uint256)": {
        "details": "See {IERC20-approve}. Requirements: - `spender` cannot be the zero address."
      },
      "balanceOf(address)": {
        "details": "See {IERC20-balanceOf}."
      },
      "changeAdmin(address)": {
        "details": "Changes the admin of the proxy. Emits an {AdminChanged} event. NOTE: Only the admin can call this function. See {ProxyAdmin-changeProxyAdmin}."
      },
      "decimals()": {
        "details": "Returns the number of decimals used to get its user representation. For example, if `decimals` equals `2`, a balance of `505` tokens should be displayed to a user as `5.05` (`505 / 10 ** 2`). Tokens usually opt for a value of 18, imitating the relationship between Ether and Wei. This is the value {ERC20} uses, unless this function is overridden; NOTE: This information is only used for _display_ purposes: it in no way affects any of the arithmetic of the contract, including {IERC20-balanceOf} and {IERC20-transfer}."
      },
      "decreaseAllowance(address,uint256)": {
        "details": "Atomically decreases the allowance granted to `spender` by the caller. This is an alternative to {approve} that can be used as a mitigation for problems described in {IERC20-approve}. Emits an {Approval} event indicating the updated allowance. Requirements: - `spender` cannot be the zero address. - `spender` must have allowance for the caller of at least `subtractedValue`."
      },
      "implementation()": {
        "details": "Returns the current implementation. NOTE: Only the admin can call this function. See {ProxyAdmin-getProxyImplementation}. TIP: To get this value clients can read directly from the storage slot shown below (specified by EIP1967) using the https://eth.wiki/json-rpc/API#eth_getstorageat[`eth_getStorageAt`] RPC call. `0x360894a13ba1a3210667c828492db98dca3e2076cc3735a920a3ca505d382bbc`"
      },
      "increaseAllowance(address,uint256)": {
        "details": "Atomically increases the allowance granted to `spender` by the caller. This is an alternative to {approve} that can be used as a mitigation for problems described in {IERC20-approve}. Emits an {Approval} event indicating the updated allowance. Requirements: - `spender` cannot be the zero address."
      },
      "name()": {
        "details": "Returns the name of the token."
      },
      "symbol()": {
        "details": "Returns the symbol of the token, usually a shorter version of the name."
      },
      "totalSupply()": {
        "details": "See {IERC20-totalSupply}."
      },
      "transferFrom(address,address,uint256)": {
        "details": "See {IERC20-transferFrom}. Emits an {Approval} event indicating the updated allowance. This is not required by the EIP. See the note at the beginning of {ERC20}. Requirements: - `sender` and `recipient` cannot be the zero address. - `sender` must have a balance of at least `amount`. - the caller must have allowance for ``sender``'s tokens of at least `amount`."
      },
      "upgradeTo(address)": {
        "details": "Upgrade the implementation of the proxy. NOTE: Only the admin can call this function. See {ProxyAdmin-upgrade}."
      },
      "upgradeToAndCall(address,bytes)": {
        "details": "Upgrade the implementation of the proxy, and then call a function from the new implementation as specified by `data`, which should be an encoded function call. This is useful to initialize new storage variables in the proxied contract. NOTE: Only the admin can call this function. See {ProxyAdmin-upgradeAndCall}."
      }
    },
    "version": 1
  },
  "userdoc": {
    "kind": "user",
    "methods": {},
    "version": 1
  }
}