{
  "contractName": "ProxyIOU",
  "abi": [
    {
      "inputs": [
        {
          "internalType": "address",
          "name": "_logic",
          "type": "address"
        },
        {
          "internalType": "address",
          "name": "admin_",
          "type": "address"
        }
      ],
      "stateMutability": "payable",
      "type": "constructor",
      "payable": true
    },
    {
      "anonymous": false,
      "inputs": [
        {
          "indexed": false,
          "internalType": "address",
          "name": "previousAdmin",
          "type": "address"
        },
        {
          "indexed": false,
          "internalType": "address",
          "name": "newAdmin",
          "type": "address"
        }
      ],
      "name": "AdminChanged",
      "type": "event"
    },
    {
      "anonymous": false,
      "inputs": [
        {
          "indexed": true,
          "internalType": "address",
          "name": "owner",
          "type": "address"
        },
        {
          "indexed": true,
          "internalType": "address",
          "name": "spender",
          "type": "address"
        },
        {
          "indexed": false,
          "internalType": "uint256",
          "name": "value",
          "type": "uint256"
        }
      ],
      "name": "Approval",
      "type": "event"
    },
    {
      "anonymous": false,
      "inputs": [
        {
          "indexed": true,
          "internalType": "address",
          "name": "beacon",
          "type": "address"
        }
      ],
      "name": "BeaconUpgraded",
      "type": "event"
    },
    {
      "anonymous": false,
      "inputs": [
        {
          "indexed": true,
          "internalType": "address",
          "name": "from",
          "type": "address"
        },
        {
          "indexed": true,
          "internalType": "address",
          "name": "to",
          "type": "address"
        },
        {
          "indexed": false,
          "internalType": "uint256",
          "name": "value",
          "type": "uint256"
        }
      ],
      "name": "Transfer",
      "type": "event"
    },
    {
      "anonymous": false,
      "inputs": [
        {
          "indexed": true,
          "internalType": "address",
          "name": "implementation",
          "type": "address"
        }
      ],
      "name": "Upgraded",
      "type": "event"
    },
    {
      "stateMutability": "payable",
      "type": "fallback",
      "payable": true
    },
    {
      "inputs": [
        {
          "internalType": "address",
          "name": "",
          "type": "address"
        },
        {
          "internalType": "uint256",
          "name": "",
          "type": "uint256"
        }
      ],
      "name": "IOUbyReceiver",
      "outputs": [
        {
          "internalType": "uint256",
          "name": "",
          "type": "uint256"
        }
      ],
      "stateMutability": "view",
      "type": "function",
      "constant": true
    },
    {
      "inputs": [],
      "name": "admin",
      "outputs": [
        {
          "internalType": "address",
          "name": "admin_",
          "type": "address"
        }
      ],
      "stateMutability": "nonpayable",
      "type": "function"
    },
    {
      "inputs": [
        {
          "internalType": "uint256",
          "name": "",
          "type": "uint256"
        }
      ],
      "name": "allFeedbacks",
      "outputs": [
        {
          "internalType": "address",
          "name": "sender",
          "type": "address"
        },
        {
          "internalType": "uint256",
          "name": "time",
          "type": "uint256"
        },
        {
          "internalType": "int256",
          "name": "rating",
          "type": "int256"
        },
        {
          "internalType": "uint256",
          "name": "amount",
          "type": "uint256"
        },
        {
          "internalType": "string",
          "name": "text",
          "type": "string"
        }
      ],
      "stateMutability": "view",
      "type": "function",
      "constant": true
    },
    {
      "inputs": [
        {
          "internalType": "uint256",
          "name": "",
          "type": "uint256"
        }
      ],
      "name": "allIOUs",
      "outputs": [
        {
          "internalType": "address",
          "name": "receiver",
          "type": "address"
        },
        {
          "internalType": "uint256",
          "name": "time",
          "type": "uint256"
        },
        {
          "internalType": "string",
          "name": "IOUDescr",
          "type": "string"
        }
      ],
      "stateMutability": "view",
      "type": "function",
      "constant": true
    },
    {
      "inputs": [
        {
          "internalType": "address",
          "name": "owner",
          "type": "address"
        },
        {
          "internalType": "address",
          "name": "spender",
          "type": "address"
        }
      ],
      "name": "allowance",
      "outputs": [
        {
          "internalType": "uint256",
          "name": "",
          "type": "uint256"
        }
      ],
      "stateMutability": "view",
      "type": "function",
      "constant": true
    },
    {
      "inputs": [
        {
          "internalType": "address",
          "name": "spender",
          "type": "address"
        },
        {
          "internalType": "uint256",
          "name": "amount",
          "type": "uint256"
        }
      ],
      "name": "approve",
      "outputs": [
        {
          "internalType": "bool",
          "name": "",
          "type": "bool"
        }
      ],
      "stateMutability": "nonpayable",
      "type": "function"
    },
    {
      "inputs": [
        {
          "internalType": "address",
          "name": "account",
          "type": "address"
        }
      ],
      "name": "balanceOf",
      "outputs": [
        {
          "internalType": "uint256",
          "name": "",
          "type": "uint256"
        }
      ],
      "stateMutability": "view",
      "type": "function",
      "constant": true
    },
    {
      "inputs": [
        {
          "internalType": "address",
          "name": "newAdmin",
          "type": "address"
        }
      ],
      "name": "changeAdmin",
      "outputs": [],
      "stateMutability": "nonpayable",
      "type": "function"
    },
    {
      "inputs": [],
      "name": "decimals",
      "outputs": [
        {
          "internalType": "uint8",
          "name": "",
          "type": "uint8"
        }
      ],
      "stateMutability": "view",
      "type": "function",
      "constant": true
    },
    {
      "inputs": [
        {
          "internalType": "address",
          "name": "spender",
          "type": "address"
        },
        {
          "internalType": "uint256",
          "name": "subtractedValue",
          "type": "uint256"
        }
      ],
      "name": "decreaseAllowance",
      "outputs": [
        {
          "internalType": "bool",
          "name": "",
          "type": "bool"
        }
      ],
      "stateMutability": "nonpayable",
      "type": "function"
    },
    {
      "inputs": [
        {
          "internalType": "address",
          "name": "",
          "type": "address"
        },
        {
          "internalType": "uint256",
          "name": "",
          "type": "uint256"
        }
      ],
      "name": "feedBacksbySender",
      "outputs": [
        {
          "internalType": "uint256",
          "name": "",
          "type": "uint256"
        }
      ],
      "stateMutability": "view",
      "type": "function",
      "constant": true
    },
    {
      "inputs": [],
      "name": "implementation",
      "outputs": [
        {
          "internalType": "address",
          "name": "implementation_",
          "type": "address"
        }
      ],
      "stateMutability": "nonpayable",
      "type": "function"
    },
    {
      "inputs": [
        {
          "internalType": "address",
          "name": "spender",
          "type": "address"
        },
        {
          "internalType": "uint256",
          "name": "addedValue",
          "type": "uint256"
        }
      ],
      "name": "increaseAllowance",
      "outputs": [
        {
          "internalType": "bool",
          "name": "",
          "type": "bool"
        }
      ],
      "stateMutability": "nonpayable",
      "type": "function"
    },
    {
      "inputs": [],
      "name": "name",
      "outputs": [
        {
          "internalType": "string",
          "name": "",
          "type": "string"
        }
      ],
      "stateMutability": "view",
      "type": "function",
      "constant": true
    },
    {
      "inputs": [],
      "name": "symbol",
      "outputs": [
        {
          "internalType": "string",
          "name": "",
          "type": "string"
        }
      ],
      "stateMutability": "view",
      "type": "function",
      "constant": true
    },
    {
      "inputs": [],
      "name": "totalSupply",
      "outputs": [
        {
          "internalType": "uint256",
          "name": "",
          "type": "uint256"
        }
      ],
      "stateMutability": "view",
      "type": "function",
      "constant": true
    },
    {
      "inputs": [
        {
          "internalType": "address",
          "name": "sender",
          "type": "address"
        },
        {
          "internalType": "address",
          "name": "recipient",
          "type": "address"
        },
        {
          "internalType": "uint256",
          "name": "amount",
          "type": "uint256"
        }
      ],
      "name": "transferFrom",
      "outputs": [
        {
          "internalType": "bool",
          "name": "",
          "type": "bool"
        }
      ],
      "stateMutability": "nonpayable",
      "type": "function"
    },
    {
      "inputs": [
        {
          "internalType": "address",
          "name": "newImplementation",
          "type": "address"
        }
      ],
      "name": "upgradeTo",
      "outputs": [],
      "stateMutability": "nonpayable",
      "type": "function"
    },
    {
      "inputs": [
        {
          "internalType": "address",
          "name": "newImplementation",
          "type": "address"
        },
        {
          "internalType": "bytes",
          "name": "data",
          "type": "bytes"
        }
      ],
      "name": "upgradeToAndCall",
      "outputs": [],
      "stateMutability": "payable",
      "type": "function",
      "payable": true
    },
    {
      "stateMutability": "payable",
      "type": "receive",
      "payable": true
    },
    {
      "inputs": [
        {
          "internalType": "string",
          "name": "name_",
          "type": "string"
        },
        {
          "internalType": "string",
          "name": "symbol_",
          "type": "string"
        },
        {
          "components": [
            {
              "internalType": "uint256",
              "name": "totalMinted",
              "type": "uint256"
            },
            {
              "internalType": "uint256",
              "name": "totalBurned",
              "type": "uint256"
            },
            {
              "internalType": "int256",
              "name": "avRate",
              "type": "int256"
            },
            {
              "internalType": "bytes32",
              "name": "units",
              "type": "bytes32"
            },
            {
              "internalType": "address",
              "name": "issuer",
              "type": "address"
            },
            {
              "internalType": "string",
              "name": "myName",
              "type": "string"
            },
            {
              "internalType": "string",
              "name": "socialProfile",
              "type": "string"
            },
            {
              "internalType": "string",
              "name": "description",
              "type": "string"
            },
            {
              "components": [
                {
                  "internalType": "string",
                  "name": "country",
                  "type": "string"
                },
                {
                  "internalType": "string",
                  "name": "state",
                  "type": "string"
                },
                {
                  "internalType": "string",
                  "name": "city",
                  "type": "string"
                },
                {
                  "internalType": "string",
                  "name": "street",
                  "type": "string"
                }
              ],
              "internalType": "struct iIOUtoken.geo",
              "name": "location",
              "type": "tuple"
            },
            {
              "internalType": "bytes32[]",
              "name": "keywords",
              "type": "bytes32[]"
            },
            {
              "internalType": "bytes32",
              "name": "phone",
              "type": "bytes32"
            }
          ],
          "internalType": "struct iIOUtoken.DescriptionIOU",
          "name": "_thisIOU",
          "type": "tuple"
        },
        {
          "internalType": "address",
          "name": "_store",
          "type": "address"
        },
        {
          "internalType": "address",
          "name": "_implementation",
          "type": "address"
        }
      ],
      "name": "setIOU",
      "outputs": [],
      "stateMutability": "nonpayable",
      "type": "function"
    },
    {
      "inputs": [
        {
          "internalType": "address",
          "name": "_newOwner",
          "type": "address"
        }
      ],
      "name": "setStore",
      "outputs": [],
      "stateMutability": "nonpayable",
      "type": "function"
    },
    {
      "inputs": [
        {
          "internalType": "address",
          "name": "_newOwner",
          "type": "address"
        }
      ],
      "name": "setOwner",
      "outputs": [],
      "stateMutability": "nonpayable",
      "type": "function"
    },
    {
      "inputs": [
        {
          "internalType": "address",
          "name": "_who",
          "type": "address"
        },
        {
          "internalType": "uint256",
          "name": "_amount",
          "type": "uint256"
        },
        {
          "internalType": "string",
          "name": "_descr",
          "type": "string"
        }
      ],
      "name": "mint",
      "outputs": [],
      "stateMutability": "nonpayable",
      "type": "function"
    },
    {
      "inputs": [
        {
          "internalType": "uint256",
          "name": "_amount",
          "type": "uint256"
        },
        {
          "internalType": "int256",
          "name": "_rating",
          "type": "int256"
        },
        {
          "internalType": "string",
          "name": "_feedback",
          "type": "string"
        }
      ],
      "name": "burn",
      "outputs": [],
      "stateMutability": "nonpayable",
      "type": "function"
    },
    {
      "inputs": [
        {
          "internalType": "address",
          "name": "_recipient",
          "type": "address"
        },
        {
          "internalType": "uint256",
          "name": "_amount",
          "type": "uint256"
        }
      ],
      "name": "transfer",
      "outputs": [
        {
          "internalType": "bool",
          "name": "",
          "type": "bool"
        }
      ],
      "stateMutability": "nonpayable",
      "type": "function"
    },
    {
      "inputs": [
        {
          "internalType": "string",
          "name": "_descr",
          "type": "string"
        }
      ],
      "name": "editDescr",
      "outputs": [],
      "stateMutability": "nonpayable",
      "type": "function"
    },
    {
      "inputs": [
        {
          "internalType": "bytes32",
          "name": "_phone",
          "type": "bytes32"
        }
      ],
      "name": "editPhone",
      "outputs": [],
      "stateMutability": "nonpayable",
      "type": "function"
    },
    {
      "inputs": [
        {
          "internalType": "string",
          "name": "_country",
          "type": "string"
        },
        {
          "internalType": "string",
          "name": "_state",
          "type": "string"
        },
        {
          "internalType": "string",
          "name": "_city",
          "type": "string"
        },
        {
          "internalType": "string",
          "name": "_street",
          "type": "string"
        }
      ],
      "name": "editGeo",
      "outputs": [],
      "stateMutability": "nonpayable",
      "type": "function"
    },
    {
      "inputs": [
        {
          "internalType": "bytes32[]",
          "name": "_keys",
          "type": "bytes32[]"
        }
      ],
      "name": "addKeys",
      "outputs": [],
      "stateMutability": "nonpayable",
      "type": "function"
    },
    {
      "inputs": [
        {
          "internalType": "bytes32[]",
          "name": "_keys",
          "type": "bytes32[]"
        }
      ],
      "name": "delKeys",
      "outputs": [],
      "stateMutability": "nonpayable",
      "type": "function"
    },
    {
      "inputs": [
        {
          "internalType": "address",
          "name": "_iou",
          "type": "address"
        }
      ],
      "name": "getIOU",
      "outputs": [
        {
          "components": [
            {
              "internalType": "string",
              "name": "name",
              "type": "string"
            },
            {
              "internalType": "string",
              "name": "symbol",
              "type": "string"
            },
            {
              "components": [
                {
                  "internalType": "uint256",
                  "name": "totalMinted",
                  "type": "uint256"
                },
                {
                  "internalType": "uint256",
                  "name": "totalBurned",
                  "type": "uint256"
                },
                {
                  "internalType": "int256",
                  "name": "avRate",
                  "type": "int256"
                },
                {
                  "internalType": "bytes32",
                  "name": "units",
                  "type": "bytes32"
                },
                {
                  "internalType": "address",
                  "name": "issuer",
                  "type": "address"
                },
                {
                  "internalType": "string",
                  "name": "myName",
                  "type": "string"
                },
                {
                  "internalType": "string",
                  "name": "socialProfile",
                  "type": "string"
                },
                {
                  "internalType": "string",
                  "name": "description",
                  "type": "string"
                },
                {
                  "components": [
                    {
                      "internalType": "string",
                      "name": "country",
                      "type": "string"
                    },
                    {
                      "internalType": "string",
                      "name": "state",
                      "type": "string"
                    },
                    {
                      "internalType": "string",
                      "name": "city",
                      "type": "string"
                    },
                    {
                      "internalType": "string",
                      "name": "street",
                      "type": "string"
                    }
                  ],
                  "internalType": "struct iIOUtoken.geo",
                  "name": "location",
                  "type": "tuple"
                },
                {
                  "internalType": "bytes32[]",
                  "name": "keywords",
                  "type": "bytes32[]"
                },
                {
                  "internalType": "bytes32",
                  "name": "phone",
                  "type": "bytes32"
                }
              ],
              "internalType": "struct iIOUtoken.DescriptionIOU",
              "name": "description",
              "type": "tuple"
            }
          ],
          "internalType": "struct iIOUtoken.IOUdescr",
          "name": "",
          "type": "tuple"
        }
      ],
      "stateMutability": "view",
      "type": "function",
      "constant": true
    },
    {
      "inputs": [],
      "name": "thisIOUkeywords",
      "outputs": [
        {
          "internalType": "bytes32[]",
          "name": "",
          "type": "bytes32[]"
        }
      ],
      "stateMutability": "view",
      "type": "function",
      "constant": true
    },
    {
      "inputs": [],
      "name": "getlen",
      "outputs": [
        {
          "internalType": "uint256",
          "name": "",
          "type": "uint256"
        },
        {
          "internalType": "uint256",
          "name": "",
          "type": "uint256"
        }
      ],
      "stateMutability": "view",
      "type": "function",
      "constant": true
    },
    {
      "inputs": [],
      "name": "thisIOUDesc",
      "outputs": [
        {
          "components": [
            {
              "internalType": "uint256",
              "name": "totalMinted",
              "type": "uint256"
            },
            {
              "internalType": "uint256",
              "name": "totalBurned",
              "type": "uint256"
            },
            {
              "internalType": "int256",
              "name": "avRate",
              "type": "int256"
            },
            {
              "internalType": "bytes32",
              "name": "units",
              "type": "bytes32"
            },
            {
              "internalType": "address",
              "name": "issuer",
              "type": "address"
            },
            {
              "internalType": "string",
              "name": "myName",
              "type": "string"
            },
            {
              "internalType": "string",
              "name": "socialProfile",
              "type": "string"
            },
            {
              "internalType": "string",
              "name": "description",
              "type": "string"
            },
            {
              "components": [
                {
                  "internalType": "string",
                  "name": "country",
                  "type": "string"
                },
                {
                  "internalType": "string",
                  "name": "state",
                  "type": "string"
                },
                {
                  "internalType": "string",
                  "name": "city",
                  "type": "string"
                },
                {
                  "internalType": "string",
                  "name": "street",
                  "type": "string"
                }
              ],
              "internalType": "struct iIOUtoken.geo",
              "name": "location",
              "type": "tuple"
            },
            {
              "internalType": "bytes32[]",
              "name": "keywords",
              "type": "bytes32[]"
            },
            {
              "internalType": "bytes32",
              "name": "phone",
              "type": "bytes32"
            }
          ],
          "internalType": "struct iIOUtoken.DescriptionIOU",
          "name": "",
          "type": "tuple"
        }
      ],
      "stateMutability": "view",
      "type": "function",
      "constant": true
    },
    {
      "inputs": [],
      "name": "IOUname",
      "outputs": [
        {
          "internalType": "string",
          "name": "",
          "type": "string"
        }
      ],
      "stateMutability": "view",
      "type": "function",
      "constant": true
    },
    {
      "inputs": [],
      "name": "IOUsymbol",
      "outputs": [
        {
          "internalType": "string",
          "name": "",
          "type": "string"
        }
      ],
      "stateMutability": "view",
      "type": "function",
      "constant": true
    },
    {
      "inputs": [],
      "name": "getTokenInfo",
      "outputs": [
        {
          "internalType": "string",
          "name": "",
          "type": "string"
        },
        {
          "internalType": "string",
          "name": "",
          "type": "string"
        },
        {
          "components": [
            {
              "internalType": "uint256",
              "name": "totalMinted",
              "type": "uint256"
            },
            {
              "internalType": "uint256",
              "name": "totalBurned",
              "type": "uint256"
            },
            {
              "internalType": "int256",
              "name": "avRate",
              "type": "int256"
            },
            {
              "internalType": "bytes32",
              "name": "units",
              "type": "bytes32"
            },
            {
              "internalType": "address",
              "name": "issuer",
              "type": "address"
            },
            {
              "internalType": "string",
              "name": "myName",
              "type": "string"
            },
            {
              "internalType": "string",
              "name": "socialProfile",
              "type": "string"
            },
            {
              "internalType": "string",
              "name": "description",
              "type": "string"
            },
            {
              "components": [
                {
                  "internalType": "string",
                  "name": "country",
                  "type": "string"
                },
                {
                  "internalType": "string",
                  "name": "state",
                  "type": "string"
                },
                {
                  "internalType": "string",
                  "name": "city",
                  "type": "string"
                },
                {
                  "internalType": "string",
                  "name": "street",
                  "type": "string"
                }
              ],
              "internalType": "struct iIOUtoken.geo",
              "name": "location",
              "type": "tuple"
            },
            {
              "internalType": "bytes32[]",
              "name": "keywords",
              "type": "bytes32[]"
            },
            {
              "internalType": "bytes32",
              "name": "phone",
              "type": "bytes32"
            }
          ],
          "internalType": "struct iIOUtoken.DescriptionIOU",
          "name": "",
          "type": "tuple"
        }
      ],
      "stateMutability": "view",
      "type": "function",
      "constant": true
    }
  ],
  "bytecode": "0x608060405260405162003e8d38038062003e8d83398101604081905262000026916200050f565b6040805160208101909152600081528290829082816200006860017f360894a13ba1a3210667c828492db98dca3e2076cc3735a920a3ca505d382bbd62000547565b60008051602062003e26833981519152146200008857620000886200056d565b620000968282600062000134565b50620000b59050600160008051602062003e4683398151915262000547565b60008051602062003e0683398151915214620000d557620000d56200056d565b620000e08262000171565b506200010191506001905060008051602062003e4683398151915262000547565b60008051602062003e06833981519152146200012157620001216200056d565b6200012c8162000171565b505062000605565b6200013f83620001cc565b6000825111806200014d5750805b156200016c576200016a83836200020e60201b620020121760201c565b505b505050565b7f7e644d79422f17c01e4894b5f4f588d331ebfa28653d42ae832dc59e38c9798f6200019c6200023d565b604080516001600160a01b03928316815291841660208301520160405180910390a1620001c98162000276565b50565b620001d7816200032b565b6040516001600160a01b038216907fbc7cd75a20ee27fd9adebab32041f755214dbc6bffa90cc0225b39da2e5c2d3b90600090a250565b606062000236838360405180606001604052806027815260200162003e6660279139620003ce565b9392505050565b60006200026760008051602062003e0683398151915260001b620004ab60201b6200127f1760201c565b546001600160a01b0316919050565b6001600160a01b038116620002e15760405162461bcd60e51b815260206004820152602660248201527f455243313936373a206e65772061646d696e20697320746865207a65726f206160448201526564647265737360d01b60648201526084015b60405180910390fd5b806200030a60008051602062003e0683398151915260001b620004ab60201b6200127f1760201c565b80546001600160a01b0319166001600160a01b039290921691909117905550565b6200034181620004ae60201b620020371760201c565b620003a55760405162461bcd60e51b815260206004820152602d60248201527f455243313936373a206e657720696d706c656d656e746174696f6e206973206e60448201526c1bdd08184818dbdb9d1c9858dd609a1b6064820152608401620002d8565b806200030a60008051602062003e2683398151915260001b620004ab60201b6200127f1760201c565b6060833b6200042f5760405162461bcd60e51b815260206004820152602660248201527f416464726573733a2064656c65676174652063616c6c20746f206e6f6e2d636f6044820152651b9d1c9858dd60d21b6064820152608401620002d8565b600080856001600160a01b0316856040516200044c9190620005b2565b600060405180830381855af49150503d806000811462000489576040519150601f19603f3d011682016040523d82523d6000602084013e6200048e565b606091505b509092509050620004a1828286620004b4565b9695505050505050565b90565b3b151590565b60608315620004c557508162000236565b825115620004d65782518084602001fd5b8160405162461bcd60e51b8152600401620002d89190620005d0565b80516001600160a01b03811681146200050a57600080fd5b919050565b600080604083850312156200052357600080fd5b6200052e83620004f2565b91506200053e60208401620004f2565b90509250929050565b6000828210156200056857634e487b7160e01b600052601160045260246000fd5b500390565b634e487b7160e01b600052600160045260246000fd5b60005b83811015620005a057818101518382015260200162000586565b838111156200016a5750506000910152565b60008251620005c681846020870162000583565b9190910192915050565b6020815260008251806020840152620005f181604085016020870162000583565b601f01601f19169190910160400192915050565b6137f180620006156000396000f3fe60806040526004361061021e5760003560e01c80636f87972411610123578063a9059cbb116100ab578063d3fc98641161006f578063d3fc986414610674578063dd62ed3e14610694578063f67ad233146106da578063f851a440146106fa578063fc9925b91461070f5761022d565b8063a9059cbb146105ce578063abb1dc44146105ee578063ac6137ea14610612578063b251131414610632578063d25b1c6d146106545761022d565b806390c29670116100f257806390c296701461053557806395d89b41146105555780639ee095061461056a578063a457c2d71461057f578063a69bac241461059f5761022d565b80636f8797241461049757806370a08231146104b75780637fdcf01f146104ed5780638f283970146105155761022d565b80631bbb6e58116101a6578063395093511161017557806339509351146104025780634f1ef2861461042257806358aee270146104355780635c60da1b1461044a5780636a3611b9146104775761022d565b80631bbb6e581461037557806323b872dd146103a6578063313ce567146103c65780633659cfe6146103e25761022d565b80630a576364116101ed5780630a576364146102d057806313af4035146102f257806314fcf3151461031257806318160ddd14610340578063188caf8a146103555761022d565b806306fdde0314610235578063070df2d214610260578063087cbd4014610280578063095ea7b3146102a05761022d565b3661022d5761022b61073c565b005b61022b61073c565b34801561024157600080fd5b5061024a610756565b6040516102579190612859565b60405180910390f35b34801561026c57600080fd5b5061022b61027b36600461297a565b6107e8565b34801561028c57600080fd5b5061022b61029b3660046129ee565b6108bd565b3480156102ac57600080fd5b506102c06102bb366004612a0b565b6109a9565b6040519015158152602001610257565b3480156102dc57600080fd5b506102e56109bf565b6040516102579190612bb9565b3480156102fe57600080fd5b5061022b61030d3660046129ee565b610e82565b34801561031e57600080fd5b5061033261032d366004612a0b565b610ed8565b604051908152602001610257565b34801561034c57600080fd5b50600254610332565b34801561036157600080fd5b5061022b610370366004612bcc565b610f09565b34801561038157600080fd5b50610395610390366004612c40565b610fd1565b604051610257959493929190612c59565b3480156103b257600080fd5b506102c06103c1366004612c97565b6110a8565b3480156103d257600080fd5b5060405160128152602001610257565b3480156103ee57600080fd5b5061022b6103fd3660046129ee565b611154565b34801561040e57600080fd5b506102c061041d366004612a0b565b611190565b61022b610430366004612d20565b6111cc565b34801561044157600080fd5b5061024a61123d565b34801561045657600080fd5b5061045f61124c565b6040516001600160a01b039091168152602001610257565b34801561048357600080fd5b5061022b610492366004612c40565b611282565b3480156104a357600080fd5b5061022b6104b2366004612d74565b6112d8565b3480156104c357600080fd5b506103326104d23660046129ee565b6001600160a01b031660009081526020819052604090205490565b3480156104f957600080fd5b50601a5460185460408051928352602083019190915201610257565b34801561052157600080fd5b5061022b6105303660046129ee565b6113b2565b34801561054157600080fd5b5061022b610550366004612f78565b6113dc565b34801561056157600080fd5b5061024a611568565b34801561057657600080fd5b5061024a611577565b34801561058b57600080fd5b506102c061059a366004612a0b565b611581565b3480156105ab57600080fd5b506105bf6105ba366004612c40565b61161a565b6040516102579392919061312c565b3480156105da57600080fd5b506102c06105e9366004612a0b565b6116e3565b3480156105fa57600080fd5b506106036117b2565b60405161025793929190613153565b34801561061e57600080fd5b5061022b61062d366004612bcc565b611c8e565b34801561063e57600080fd5b50610647611cea565b604051610257919061318c565b34801561066057600080fd5b5061033261066f366004612a0b565b611d44565b34801561068057600080fd5b5061022b61068f3660046131d0565b611d60565b3480156106a057600080fd5b506103326106af366004613212565b6001600160a01b03918216600090815260016020908152604080832093909416825291909152205490565b3480156106e657600080fd5b5061022b6106f536600461324b565b611e2b565b34801561070657600080fd5b5061045f611e87565b34801561071b57600080fd5b5061072f61072a3660046129ee565b611eb2565b604051610257919061328c565b61074461203d565b61075461074f6120d7565b6120e1565b565b606060038054610765906132e4565b80601f0160208091040260200160405190810160405280929190818152602001828054610791906132e4565b80156107de5780601f106107b3576101008083540402835291602001916107de565b820191906000526020600020905b8154815290600101906020018083116107c157829003601f168201915b5050505050905090565b601e54604051849160009182916001600160a01b0316906108119085908890889060240161331f565b60408051601f198184030181529181526020820180516001600160e01b0316630386f96960e11b17905251610846919061333e565b600060405180830381855af49150503d8060008114610881576040519150601f19603f3d011682016040523d82523d6000602084013e610886565b606091505b50915091508181906108b45760405162461bcd60e51b81526004016108ab9190612859565b60405180910390fd5b50505050505050565b6108c5612105565b6001600160a01b0316336001600160a01b0316141561099e57601e546040516001600160a01b038381166024830152600092839291169060440160408051601f198184030181529181526020820180516001600160e01b03166221f2f560e61b17905251610933919061333e565b600060405180830381855af49150503d806000811461096e576040519150601f19603f3d011682016040523d82523d6000602084013e610973565b606091505b50915091508181906109985760405162461bcd60e51b81526004016108ab9190612859565b50505050565b6109a661073c565b50565b60006109b6338484612138565b50600192915050565b6109c761274c565b6040805161016081018252600a80548252600b546020830152600c5492820192909252600d546060820152600e546001600160a01b03166080820152600f805491929160a084019190610a19906132e4565b80601f0160208091040260200160405190810160405280929190818152602001828054610a45906132e4565b8015610a925780601f10610a6757610100808354040283529160200191610a92565b820191906000526020600020905b815481529060010190602001808311610a7557829003601f168201915b50505050508152602001600682018054610aab906132e4565b80601f0160208091040260200160405190810160405280929190818152602001828054610ad7906132e4565b8015610b245780601f10610af957610100808354040283529160200191610b24565b820191906000526020600020905b815481529060010190602001808311610b0757829003601f168201915b50505050508152602001600782018054610b3d906132e4565b80601f0160208091040260200160405190810160405280929190818152602001828054610b69906132e4565b8015610bb65780601f10610b8b57610100808354040283529160200191610bb6565b820191906000526020600020905b815481529060010190602001808311610b9957829003601f168201915b5050505050815260200160088201604051806080016040529081600082018054610bdf906132e4565b80601f0160208091040260200160405190810160405280929190818152602001828054610c0b906132e4565b8015610c585780601f10610c2d57610100808354040283529160200191610c58565b820191906000526020600020905b815481529060010190602001808311610c3b57829003601f168201915b50505050508152602001600182018054610c71906132e4565b80601f0160208091040260200160405190810160405280929190818152602001828054610c9d906132e4565b8015610cea5780601f10610cbf57610100808354040283529160200191610cea565b820191906000526020600020905b815481529060010190602001808311610ccd57829003601f168201915b50505050508152602001600282018054610d03906132e4565b80601f0160208091040260200160405190810160405280929190818152602001828054610d2f906132e4565b8015610d7c5780601f10610d5157610100808354040283529160200191610d7c565b820191906000526020600020905b815481529060010190602001808311610d5f57829003601f168201915b50505050508152602001600382018054610d95906132e4565b80601f0160208091040260200160405190810160405280929190818152602001828054610dc1906132e4565b8015610e0e5780601f10610de357610100808354040283529160200191610e0e565b820191906000526020600020905b815481529060010190602001808311610df157829003601f168201915b5050505050815250508152602001600c8201805480602002602001604051908101604052809291908181526020018280548015610e6a57602002820191906000526020600020905b815481526020019060010190808311610e56575b50505050508152602001600d82015481525050905090565b601e546040516001600160a01b038381166024830152600092839291169060440160408051601f198184030181529181526020820180516001600160e01b03166313af403560e01b17905251610933919061333e565b601b6020528160005260406000208181548110610ef457600080fd5b90600052602060002001600091509150505481565b601e5460405160009182916001600160a01b0390911690610f30908690869060240161335a565b60408051601f198184030181529181526020820180516001600160e01b0316630c4657c560e11b17905251610f65919061333e565b600060405180830381855af49150503d8060008114610fa0576040519150601f19603f3d011682016040523d82523d6000602084013e610fa5565b606091505b5091509150818190610fca5760405162461bcd60e51b81526004016108ab9190612859565b5050505050565b60188181548110610fe157600080fd5b6000918252602090912060059091020180546001820154600283015460038401546004850180546001600160a01b03909516965092949193909290611025906132e4565b80601f0160208091040260200160405190810160405280929190818152602001828054611051906132e4565b801561109e5780601f106110735761010080835404028352916020019161109e565b820191906000526020600020905b81548152906001019060200180831161108157829003601f168201915b5050505050905085565b60006110b584848461225c565b6001600160a01b03841660009081526001602090815260408083203384529091529020548281101561113a5760405162461bcd60e51b815260206004820152602860248201527f45524332303a207472616e7366657220616d6f756e74206578636565647320616044820152676c6c6f77616e636560c01b60648201526084016108ab565b6111478533858403612138565b60019150505b9392505050565b61115c612105565b6001600160a01b0316336001600160a01b0316141561099e576109a68160405180602001604052806000815250600061242a565b3360008181526001602090815260408083206001600160a01b038716845290915281205490916109b69185906111c7908690613396565b612138565b6111d4612105565b6001600160a01b0316336001600160a01b03161415611235576112308383838080601f0160208091040260200160405190810160405280939291908181526020018383808284376000920191909152506001925061242a915050565b505050565b61123061073c565b6060611247611568565b905090565b6000611256612105565b6001600160a01b0316336001600160a01b03161415611277576112476120d7565b61127f61073c565b90565b601e546040516024810183905260009182916001600160a01b039091169060440160408051601f198184030181529181526020820180516001600160e01b0316636a3611b960e01b17905251610933919061333e565b601e5460405160009182916001600160a01b039091169061130b908c908c908c908c908c908c908c908c906024016133e5565b60408051601f198184030181529181526020820180516001600160e01b0316631be1e5c960e21b17905251611340919061333e565b600060405180830381855af49150503d806000811461137b576040519150601f19603f3d011682016040523d82523d6000602084013e611380565b606091505b50915091508181906113a55760405162461bcd60e51b81526004016108ab9190612859565b5050505050505050505050565b6113ba612105565b6001600160a01b0316336001600160a01b0316141561099e576109a68161244f565b601e80546001600160a01b0383166001600160a01b0319909116811790915560408051600481526024810182526020810180516001600160e01b031663204a7f0760e21b179052905160009283929091611436919061333e565b600060405180830381855af49150503d8060008114611471576040519150601f19603f3d011682016040523d82523d6000602084013e611476565b606091505b509150915081819061149b5760405162461bcd60e51b81526004016108ab9190612859565b50601e546040516001600160a01b03909116906114c49089908990899089908990602401613445565b60408051601f198184030181529181526020820180516001600160e01b031663090c296760e41b179052516114f9919061333e565b600060405180830381855af49150503d8060008114611534576040519150601f19603f3d011682016040523d82523d6000602084013e611539565b606091505b509092509050808261155e5760405162461bcd60e51b81526004016108ab9190612859565b5050505050505050565b606060048054610765906132e4565b6060611247610756565b3360009081526001602090815260408083206001600160a01b0386168452909152812054828110156116035760405162461bcd60e51b815260206004820152602560248201527f45524332303a2064656372656173656420616c6c6f77616e63652062656c6f77604482015264207a65726f60d81b60648201526084016108ab565b6116103385858403612138565b5060019392505050565b601a818154811061162a57600080fd5b60009182526020909120600390910201805460018201546002830180546001600160a01b039093169450909291611660906132e4565b80601f016020809104026020016040519081016040528092919081815260200182805461168c906132e4565b80156116d95780601f106116ae576101008083540402835291602001916116d9565b820191906000526020600020905b8154815290600101906020018083116116bc57829003601f168201915b5050505050905083565b601e546040516001600160a01b03848116602483015260448201849052600092849284928392169060640160408051601f198184030181529181526020820180516001600160e01b031663a9059cbb60e01b17905251611743919061333e565b600060405180830381855af49150503d806000811461177e576040519150601f19603f3d011682016040523d82523d6000602084013e611783565b606091505b50915091508181906117a85760405162461bcd60e51b81526004016108ab9190612859565b5050505092915050565b6060806117bd61274c565b6117c5610756565b6117cd611568565b6040805161016081018252600a80548252600b546020830152600c5492820192909252600d546060820152600e546001600160a01b03166080820152600f8054839160a084019161181d906132e4565b80601f0160208091040260200160405190810160405280929190818152602001828054611849906132e4565b80156118965780601f1061186b57610100808354040283529160200191611896565b820191906000526020600020905b81548152906001019060200180831161187957829003601f168201915b505050505081526020016006820180546118af906132e4565b80601f01602080910402602001604051908101604052809291908181526020018280546118db906132e4565b80156119285780601f106118fd57610100808354040283529160200191611928565b820191906000526020600020905b81548152906001019060200180831161190b57829003601f168201915b50505050508152602001600782018054611941906132e4565b80601f016020809104026020016040519081016040528092919081815260200182805461196d906132e4565b80156119ba5780601f1061198f576101008083540402835291602001916119ba565b820191906000526020600020905b81548152906001019060200180831161199d57829003601f168201915b50505050508152602001600882016040518060800160405290816000820180546119e3906132e4565b80601f0160208091040260200160405190810160405280929190818152602001828054611a0f906132e4565b8015611a5c5780601f10611a3157610100808354040283529160200191611a5c565b820191906000526020600020905b815481529060010190602001808311611a3f57829003601f168201915b50505050508152602001600182018054611a75906132e4565b80601f0160208091040260200160405190810160405280929190818152602001828054611aa1906132e4565b8015611aee5780601f10611ac357610100808354040283529160200191611aee565b820191906000526020600020905b815481529060010190602001808311611ad157829003601f168201915b50505050508152602001600282018054611b07906132e4565b80601f0160208091040260200160405190810160405280929190818152602001828054611b33906132e4565b8015611b805780601f10611b5557610100808354040283529160200191611b80565b820191906000526020600020905b815481529060010190602001808311611b6357829003601f168201915b50505050508152602001600382018054611b99906132e4565b80601f0160208091040260200160405190810160405280929190818152602001828054611bc5906132e4565b8015611c125780601f10611be757610100808354040283529160200191611c12565b820191906000526020600020905b815481529060010190602001808311611bf557829003601f168201915b5050505050815250508152602001600c8201805480602002602001604051908101604052809291908181526020018280548015611c6e57602002820191906000526020600020905b815481526020019060010190808311611c5a575b50505050508152602001600d820154815250509050925092509250909192565b601e5460405160009182916001600160a01b0390911690611cb5908690869060240161335a565b60408051601f198184030181529181526020820180516001600160e01b03166356309bf560e11b17905251610f65919061333e565b6060600a600c018054806020026020016040519081016040528092919081815260200182805480156107de57602002820191906000526020600020905b815481526020019060010190808311611d27575050505050905090565b60196020528160005260406000208181548110610ef457600080fd5b601e5460405160009182916001600160a01b0390911690611d899087908790879060240161312c565b60408051601f198184030181529181526020820180516001600160e01b03166334ff261960e21b17905251611dbe919061333e565b600060405180830381855af49150503d8060008114611df9576040519150601f19603f3d011682016040523d82523d6000602084013e611dfe565b606091505b5091509150818190611e235760405162461bcd60e51b81526004016108ab9190612859565b505050505050565b601e5460405160009182916001600160a01b0390911690611e5290869086906024016134a4565b60408051601f198184030181529181526020820180516001600160e01b031663f67ad23360e01b17905251610f65919061333e565b6000611e91612105565b6001600160a01b0316336001600160a01b0316141561127757611247612105565b611eba6127db565b600082905060006040518060600160405280836001600160a01b0316639ee095066040518163ffffffff1660e01b8152600401600060405180830381865afa158015611f0a573d6000803e3d6000fd5b505050506040513d6000823e601f3d908101601f19168201604052611f329190810190613505565b8152602001836001600160a01b03166358aee2706040518163ffffffff1660e01b8152600401600060405180830381865afa158015611f75573d6000803e3d6000fd5b505050506040513d6000823e601f3d908101601f19168201604052611f9d9190810190613505565b8152602001836001600160a01b0316630a5763646040518163ffffffff1660e01b8152600401600060405180830381865afa158015611fe0573d6000803e3d6000fd5b505050506040513d6000823e601f3d908101601f19168201604052612008919081019061364b565b9052949350505050565b606061114d8383604051806060016040528060278152602001613795602791396124a3565b3b151590565b612045612105565b6001600160a01b0316336001600160a01b031614156107545760405162461bcd60e51b815260206004820152604260248201527f5472616e73706172656e745570677261646561626c6550726f78793a2061646d60448201527f696e2063616e6e6f742066616c6c6261636b20746f2070726f78792074617267606482015261195d60f21b608482015260a4016108ab565b6000611247612577565b3660008037600080366000845af43d6000803e808015612100573d6000f35b3d6000fd5b60007fb53127684a568b3173ae13b9f8a6016e243e63b6e8ee1178d6a717850b5d61035b546001600160a01b0316919050565b6001600160a01b03831661219a5760405162461bcd60e51b8152602060048201526024808201527f45524332303a20617070726f76652066726f6d20746865207a65726f206164646044820152637265737360e01b60648201526084016108ab565b6001600160a01b0382166121fb5760405162461bcd60e51b815260206004820152602260248201527f45524332303a20617070726f766520746f20746865207a65726f206164647265604482015261737360f01b60648201526084016108ab565b6001600160a01b0383811660008181526001602090815260408083209487168084529482529182902085905590518481527f8c5be1e5ebec7d5bd14f71427d1e84f3dd0314c0f7b2291e5b200ac8c7c3b925910160405180910390a3505050565b6001600160a01b0383166122c05760405162461bcd60e51b815260206004820152602560248201527f45524332303a207472616e736665722066726f6d20746865207a65726f206164604482015264647265737360d81b60648201526084016108ab565b6001600160a01b0382166123225760405162461bcd60e51b815260206004820152602360248201527f45524332303a207472616e7366657220746f20746865207a65726f206164647260448201526265737360e81b60648201526084016108ab565b6001600160a01b0383166000908152602081905260409020548181101561239a5760405162461bcd60e51b815260206004820152602660248201527f45524332303a207472616e7366657220616d6f756e7420657863656564732062604482015265616c616e636560d01b60648201526084016108ab565b6001600160a01b038085166000908152602081905260408082208585039055918516815290812080548492906123d1908490613396565b92505081905550826001600160a01b0316846001600160a01b03167fddf252ad1be2c89b69c2b068fc378daa952ba7f163c4a11628f55a4df523b3ef8460405161241d91815260200190565b60405180910390a3610998565b6124338361259f565b6000825111806124405750805b15611230576109988383612012565b7f7e644d79422f17c01e4894b5f4f588d331ebfa28653d42ae832dc59e38c9798f612478612105565b604080516001600160a01b03928316815291841660208301520160405180910390a16109a6816125df565b6060833b6125025760405162461bcd60e51b815260206004820152602660248201527f416464726573733a2064656c65676174652063616c6c20746f206e6f6e2d636f6044820152651b9d1c9858dd60d21b60648201526084016108ab565b600080856001600160a01b03168560405161251d919061333e565b600060405180830381855af49150503d8060008114612558576040519150601f19603f3d011682016040523d82523d6000602084013e61255d565b606091505b509150915061256d828286612688565b9695505050505050565b60007f360894a13ba1a3210667c828492db98dca3e2076cc3735a920a3ca505d382bbc612129565b6125a8816126c1565b6040516001600160a01b038216907fbc7cd75a20ee27fd9adebab32041f755214dbc6bffa90cc0225b39da2e5c2d3b90600090a250565b6001600160a01b0381166126445760405162461bcd60e51b815260206004820152602660248201527f455243313936373a206e65772061646d696e20697320746865207a65726f206160448201526564647265737360d01b60648201526084016108ab565b807fb53127684a568b3173ae13b9f8a6016e243e63b6e8ee1178d6a717850b5d61035b80546001600160a01b0319166001600160a01b039290921691909117905550565b6060831561269757508161114d565b8251156126a75782518084602001fd5b8160405162461bcd60e51b81526004016108ab9190612859565b803b6127255760405162461bcd60e51b815260206004820152602d60248201527f455243313936373a206e657720696d706c656d656e746174696f6e206973206e60448201526c1bdd08184818dbdb9d1c9858dd609a1b60648201526084016108ab565b807f360894a13ba1a3210667c828492db98dca3e2076cc3735a920a3ca505d382bbc612667565b6040518061016001604052806000815260200160008152602001600081526020016000801916815260200160006001600160a01b031681526020016060815260200160608152602001606081526020016127c76040518060800160405280606081526020016060815260200160608152602001606081525090565b815260606020820152600060409091015290565b604051806060016040528060608152602001606081526020016127fc61274c565b905290565b60005b8381101561281c578181015183820152602001612804565b838111156109985750506000910152565b60008151808452612845816020860160208601612801565b601f01601f19169290920160200192915050565b60208152600061114d602083018461282d565b634e487b7160e01b600052604160045260246000fd5b604051608081016001600160401b03811182821017156128a4576128a461286c565b60405290565b60405161016081016001600160401b03811182821017156128a4576128a461286c565b604051601f8201601f191681016001600160401b03811182821017156128f5576128f561286c565b604052919050565b60006001600160401b038211156129165761291661286c565b50601f01601f191660200190565b600082601f83011261293557600080fd5b8135612948612943826128fd565b6128cd565b81815284602083860101111561295d57600080fd5b816020850160208301376000918101602001919091529392505050565b60008060006060848603121561298f57600080fd5b833592506020840135915060408401356001600160401b038111156129b357600080fd5b6129bf86828701612924565b9150509250925092565b6001600160a01b03811681146109a657600080fd5b80356129e9816129c9565b919050565b600060208284031215612a0057600080fd5b813561114d816129c9565b60008060408385031215612a1e57600080fd5b8235612a29816129c9565b946020939093013593505050565b6000815160808452612a4c608085018261282d565b905060208301518482036020860152612a65828261282d565b91505060408301518482036040860152612a7f828261282d565b91505060608301518482036060860152612a99828261282d565b95945050505050565b600081518084526020808501945080840160005b83811015612ad257815187529582019590820190600101612ab6565b509495945050505050565b6000610160825184526020830151602085015260408301516040850152606083015160608501526080830151612b1e60808601826001600160a01b03169052565b5060a08301518160a0860152612b368286018261282d565b91505060c083015184820360c0860152612b50828261282d565b91505060e083015184820360e0860152612b6a828261282d565b9150506101008084015185830382870152612b858382612a37565b925050506101208084015185830382870152612ba18382612aa2565b61014095860151969095019590955250919392505050565b60208152600061114d6020830184612add565b60008060208385031215612bdf57600080fd5b82356001600160401b0380821115612bf657600080fd5b818501915085601f830112612c0a57600080fd5b813581811115612c1957600080fd5b8660208260051b8501011115612c2e57600080fd5b60209290920196919550909350505050565b600060208284031215612c5257600080fd5b5035919050565b60018060a01b038616815284602082015283604082015282606082015260a060808201526000612c8c60a083018461282d565b979650505050505050565b600080600060608486031215612cac57600080fd5b8335612cb7816129c9565b92506020840135612cc7816129c9565b929592945050506040919091013590565b60008083601f840112612cea57600080fd5b5081356001600160401b03811115612d0157600080fd5b602083019150836020828501011115612d1957600080fd5b9250929050565b600080600060408486031215612d3557600080fd5b8335612d40816129c9565b925060208401356001600160401b03811115612d5b57600080fd5b612d6786828701612cd8565b9497909650939450505050565b6000806000806000806000806080898b031215612d9057600080fd5b88356001600160401b0380821115612da757600080fd5b612db38c838d01612cd8565b909a50985060208b0135915080821115612dcc57600080fd5b612dd88c838d01612cd8565b909850965060408b0135915080821115612df157600080fd5b612dfd8c838d01612cd8565b909650945060608b0135915080821115612e1657600080fd5b50612e238b828c01612cd8565b999c989b5096995094979396929594505050565b600060808284031215612e4957600080fd5b612e51612882565b905081356001600160401b0380821115612e6a57600080fd5b612e7685838601612924565b83526020840135915080821115612e8c57600080fd5b612e9885838601612924565b60208401526040840135915080821115612eb157600080fd5b612ebd85838601612924565b60408401526060840135915080821115612ed657600080fd5b50612ee384828501612924565b60608301525092915050565b60006001600160401b03821115612f0857612f0861286c565b5060051b60200190565b600082601f830112612f2357600080fd5b81356020612f3361294383612eef565b82815260059290921b84018101918181019086841115612f5257600080fd5b8286015b84811015612f6d5780358352918301918301612f56565b509695505050505050565b600080600080600060a08688031215612f9057600080fd5b85356001600160401b0380821115612fa757600080fd5b612fb389838a01612924565b96506020880135915080821115612fc957600080fd5b612fd589838a01612924565b95506040880135915080821115612feb57600080fd5b90870190610160828a03121561300057600080fd5b6130086128aa565b82358152602083013560208201526040830135604082015260608301356060820152613036608084016129de565b608082015260a08301358281111561304d57600080fd5b6130598b828601612924565b60a08301525060c08301358281111561307157600080fd5b61307d8b828601612924565b60c08301525060e08301358281111561309557600080fd5b6130a18b828601612924565b60e08301525061010080840135838111156130bb57600080fd5b6130c78c828701612e37565b82840152505061012080840135838111156130e157600080fd5b6130ed8c828701612f12565b82840152505061014091508183013582820152809550505050613112606087016129de565b9150613120608087016129de565b90509295509295909350565b60018060a01b0384168152826020820152606060408201526000612a99606083018461282d565b606081526000613166606083018661282d565b8281036020840152613178818661282d565b9050828103604084015261256d8185612add565b6020808252825182820181905260009190848201906040850190845b818110156131c4578351835292840192918401916001016131a8565b50909695505050505050565b6000806000606084860312156131e557600080fd5b83356131f0816129c9565b92506020840135915060408401356001600160401b038111156129b357600080fd5b6000806040838503121561322557600080fd5b8235613230816129c9565b91506020830135613240816129c9565b809150509250929050565b6000806020838503121561325e57600080fd5b82356001600160401b0381111561327457600080fd5b61328085828601612cd8565b90969095509350505050565b6020815260008251606060208401526132a8608084018261282d565b90506020840151601f19808584030160408601526132c6838361282d565b9250604086015191508085840301606086015250612a998282612add565b600181811c908216806132f857607f821691505b6020821081141561331957634e487b7160e01b600052602260045260246000fd5b50919050565b838152826020820152606060408201526000612a99606083018461282d565b60008251613350818460208701612801565b9190910192915050565b6020808252810182905260006001600160fb1b0383111561337a57600080fd5b8260051b80856040850137600092016040019182525092915050565b600082198211156133b757634e487b7160e01b600052601160045260246000fd5b500190565b81835281816020850137506000828201602090810191909152601f909101601f19169091010190565b6080815260006133f9608083018a8c6133bc565b828103602084015261340c81898b6133bc565b905082810360408401526134218187896133bc565b905082810360608401526134368185876133bc565b9b9a5050505050505050505050565b60a08152600061345860a083018861282d565b828103602084015261346a818861282d565b9050828103604084015261347e8187612add565b6001600160a01b0395861660608501529390941660809092019190915250949350505050565b6020815260006134b86020830184866133bc565b949350505050565b600082601f8301126134d157600080fd5b81516134df612943826128fd565b8181528460208386010111156134f457600080fd5b6134b8826020830160208701612801565b60006020828403121561351757600080fd5b81516001600160401b0381111561352d57600080fd5b6134b8848285016134c0565b80516129e9816129c9565b60006080828403121561355657600080fd5b61355e612882565b905081516001600160401b038082111561357757600080fd5b613583858386016134c0565b8352602084015191508082111561359957600080fd5b6135a5858386016134c0565b602084015260408401519150808211156135be57600080fd5b6135ca858386016134c0565b604084015260608401519150808211156135e357600080fd5b50612ee3848285016134c0565b600082601f83011261360157600080fd5b8151602061361161294383612eef565b82815260059290921b8401810191818101908684111561363057600080fd5b8286015b84811015612f6d5780518352918301918301613634565b60006020828403121561365d57600080fd5b81516001600160401b038082111561367457600080fd5b90830190610160828603121561368957600080fd5b6136916128aa565b825181526020830151602082015260408301516040820152606083015160608201526136bf60808401613539565b608082015260a0830151828111156136d657600080fd5b6136e2878286016134c0565b60a08301525060c0830151828111156136fa57600080fd5b613706878286016134c0565b60c08301525060e08301518281111561371e57600080fd5b61372a878286016134c0565b60e083015250610100808401518381111561374457600080fd5b61375088828701613544565b828401525050610120808401518381111561376a57600080fd5b613776888287016135f0565b9183019190915250610140928301519281019290925250939250505056fe416464726573733a206c6f772d6c6576656c2064656c65676174652063616c6c206661696c6564a2646970667358221220536d0487a3a3118644df308f2ab527ad0b308206178b79fa0c999dc8335ecfb064736f6c634300080a0033b53127684a568b3173ae13b9f8a6016e243e63b6e8ee1178d6a717850b5d6103360894a13ba1a3210667c828492db98dca3e2076cc3735a920a3ca505d382bbcb53127684a568b3173ae13b9f8a6016e243e63b6e8ee1178d6a717850b5d6104416464726573733a206c6f772d6c6576656c2064656c65676174652063616c6c206661696c6564",
  "immutableReferences": {},
  "source": "pragma solidity >= 0.8.0;\npragma experimental ABIEncoderV2;\nimport  \"./IOUtoken.sol\";\nimport \"@openzeppelin/contracts/proxy/transparent/TransparentUpgradeableProxy.sol\";\n\ncontract ProxyIOU  is IOUData,TransparentUpgradeableProxy  {  \n    \n    constructor(\n        address _logic,\n        address admin_\n    ) payable TransparentUpgradeableProxy(_logic, admin_, \"\") {\n        assert(_ADMIN_SLOT == bytes32(uint256(keccak256(\"eip1967.proxy.admin\")) - 1));\n        _changeAdmin(admin_);\n    }\n    \n     modifier onlyOwner() {\n    //    require (owner == msg.sender, string(abi.encode(\"Only owner can do this (proxy)\", owner, msg.sender)));\n        _;\n    }\n\n\n    modifier nonInited () {\n     //   require(!inited, \"Already inited (proxy)\");\n        _;\n  //      inited = true;\n\n    }\n\n    modifier nonConfiged () {\n  //      require(!configured, \"Already configured (proxy)\");\n        _;\n    //    configured = true;\n\n    }\n\n    modifier onlyHolder (uint256 _amount) {\n   //     require (balanceOf(msg.sender) > _amount, \"No amount token holder has (proxy)\" );\n    _;\n    }\n/*    function _getRevertMsg(bytes memory _res) internal pure returns (string memory) {\n    // If the _res length is less than 68, then the transaction failed silently (without a revert message)\n    if (_res.length < 68) return 'Transaction reverted silently';\n    bytes memory revertData = _res.slice(4, _res.length - 4); // Remove the selector which is the first 4 bytes\n    return abi.decode(revertData, (string)); // All that remains is the revert string\n} */\n     function setIOU (//    constructor (\n                string memory name_, \n                string memory symbol_, \n                iIOUtoken.DescriptionIOU memory _thisIOU,\n                 address _store, \n                 address _implementation\n                 ) /* nonConfiged */ external {\n        implementation = _implementation;\n//        initialize();\n        (bool success, bytes memory returnedData) = implementation.delegatecall(abi.encodeWithSignature(\n        ((\"initialize()\"))\n    ));\n        require(success, string (returnedData));\n        /* \n    struct geo {\n        string country;\n        string state;\n        string city;\n        string street;\n    }\n\n    struct DescriptionIOU {\n        uint256 totalMinted;\n        uint256 totalBurned;\n        int256 avRate;\n        bytes32 units;        \n        address issuer;\n        string myName ; //name of emitter\n        string socialProfile ; //profile  of emitter in social nets\n        string description ; //description of bond IOU to  work\n        geo location; //where is it             \n        bytes32[] keywords;\n        bytes32 phone;\n    }\n */\n        ( success,  returnedData) = implementation.delegatecall(abi.encodeWithSignature( //\"0x90c29670\"\n            \"setIOU(string,string,(uint256,uint256,int256,bytes32,address,string,string,string,(string,string,string,string),bytes32[],bytes32),address,address)\",\n            name_,\n            symbol_,\n            _thisIOU,\n            _store,\n            _implementation\n            ));\n\n    require(success, string (returnedData));\n    } \n \n/*     function initialize() nonInited public {\n        (bool success, bytes memory returnedData) = implementation.delegatecall(abi.encodeWithSignature(\n        ((\"initialize()\"))\n    ));\n        require(success, string (returnedData));\n\n    } */\n\n    function setStore (address _newOwner) public  ifAdmin {\n        //store = iStoreIOUs(_newOwner);\n        (bool success, bytes memory returnedData) = implementation.delegatecall(abi.encodeWithSignature(\n        ((\"setStore(address)\")), _newOwner));\n        require(success, string (returnedData));\n\n    }   \n\n    function setOwner (address _newOwner) public  onlyOwner {\n\n        (bool success, bytes memory returnedData) = implementation.delegatecall(abi.encodeWithSignature(\n        ((\"setOwner(address)\")), _newOwner));\n        require(success, string (returnedData));\n    }\n\n    function mint (address _who, uint256 _amount, string memory _descr) public onlyOwner { \n\n        (bool success, bytes memory returnedData) = implementation.delegatecall(abi.encodeWithSignature(\n        ((\"mint(address,uint256,string)\")), \n        _who, _amount,  _descr));\n        require(success, string (returnedData));\n    }\n    function burn (uint256 _amount, int256 _rating, string memory _feedback) onlyHolder  (_amount) public {\n        \n        (bool success, bytes memory returnedData) = implementation.delegatecall(abi.encodeWithSignature(\n        ((\"burn(uint256,int256,string)\")), \n         _amount, _rating, _feedback));\n        require(success, string (returnedData));\n        }\n\n    function transfer(address _recipient, uint256 _amount) onlyHolder(_amount) public override returns (bool) {   \n                (bool success, bytes memory returnedData) = implementation.delegatecall(abi.encodeWithSignature(\n        ((\"transfer(address,uint256)\")), \n         _recipient, _amount));\n        require(success, string (returnedData));\n        }\n\n\n    function editDescr (string calldata _descr)  public onlyOwner {\n       (bool success, bytes memory returnedData) = implementation.delegatecall(abi.encodeWithSignature(\n        ((\"editDescr(string)\")), \n         _descr));\n        require(success, string (returnedData));\n    }\n\n    function editPhone (bytes32 _phone)  public onlyOwner {\n        (bool success, bytes memory returnedData) = implementation.delegatecall(abi.encodeWithSignature(\n        ((\"editPhone(bytes32)\")), \n         _phone));\n        require(success, string (returnedData));    \n        }\n\n    function editGeo (string calldata _country,\n                    string calldata _state,\n                    string calldata _city,\n                    string calldata _street)  public onlyOwner {\n        (bool success, bytes memory returnedData) = implementation.delegatecall(abi.encodeWithSignature(\n        ((\"editGeo(string,string,string,string)\")), \n         _country, _state,_city,_street));\n        require(success, string (returnedData));    \n    }\n    function addKeys (bytes32[] calldata _keys)  public onlyOwner { \n        (bool success, bytes memory returnedData) = implementation.delegatecall(abi.encodeWithSignature(\n        ((\"addKeys(bytes32[])\")), \n         _keys));\n        require(success, string (returnedData)); \n    }\n    function delKeys (bytes32[] calldata _keys)  public onlyOwner {\n           (bool success, bytes memory returnedData) = implementation.delegatecall(abi.encodeWithSignature(\n        ((\"delKeys(bytes32[])\")), \n         _keys));\n        require(success, string (returnedData)); \n    }\n\n    function getIOU (address _iou) public view returns ( iIOUtoken.IOUdescr memory) {\n        iIOUtoken iouT = iIOUtoken(_iou);\n        iIOUtoken.IOUdescr memory iouD = iIOUtoken.IOUdescr (iouT.IOUname(), iouT.IOUsymbol(), iouT.thisIOUDesc()  );\n        return iouD;\n}\n\n    function thisIOUkeywords() public view returns (bytes32[] memory)\n    {\n        return thisIOU.keywords;\n    }\n\n    function getlen ()  public view returns (uint256, uint256) {\n        return (allIOUs.length, allFeedbacks.length);\n    } \n\n    function thisIOUDesc () public view  returns (iIOUtoken.DescriptionIOU memory)\n    {    return thisIOU;\n    }\n    function IOUname () public view  returns (string memory)\n    {    return name();\n    }\n    function IOUsymbol () public view  returns (string memory)\n    {    return symbol ();\n    }\n\n\n    function getTokenInfo() public view returns(string memory,\n                                           string memory,\n                                           iIOUtoken.DescriptionIOU memory ) {\n        return(name(), symbol(), thisIOU);\n\n    }\n\n}",
  "sourcePath": "/mnt/512-2/dfd/iou2/contracts/ProxyIOU.sol",
  "compiler": {
    "name": "solc",
    "version": "0.8.10+commit.fc410830.Emscripten.clang"
  },
  "schemaVersion": "3.4.4",
  "updatedAt": "2022-02-16T16:17:47.272Z",
  "networkType": "ethereum",
  "devdoc": {
    "kind": "dev",
    "methods": {
      "admin()": {
        "details": "Returns the current admin. NOTE: Only the admin can call this function. See {ProxyAdmin-getProxyAdmin}. TIP: To get this value clients can read directly from the storage slot shown below (specified by EIP1967) using the https://eth.wiki/json-rpc/API#eth_getstorageat[`eth_getStorageAt`] RPC call. `0xb53127684a568b3173ae13b9f8a6016e243e63b6e8ee1178d6a717850b5d6103`"
      },
      "allowance(address,address)": {
        "details": "See {IERC20-allowance}."
      },
      "approve(address,uint256)": {
        "details": "See {IERC20-approve}. Requirements: - `spender` cannot be the zero address."
      },
      "balanceOf(address)": {
        "details": "See {IERC20-balanceOf}."
      },
      "changeAdmin(address)": {
        "details": "Changes the admin of the proxy. Emits an {AdminChanged} event. NOTE: Only the admin can call this function. See {ProxyAdmin-changeProxyAdmin}."
      },
      "decimals()": {
        "details": "Returns the number of decimals used to get its user representation. For example, if `decimals` equals `2`, a balance of `505` tokens should be displayed to a user as `5.05` (`505 / 10 ** 2`). Tokens usually opt for a value of 18, imitating the relationship between Ether and Wei. This is the value {ERC20} uses, unless this function is overridden; NOTE: This information is only used for _display_ purposes: it in no way affects any of the arithmetic of the contract, including {IERC20-balanceOf} and {IERC20-transfer}."
      },
      "decreaseAllowance(address,uint256)": {
        "details": "Atomically decreases the allowance granted to `spender` by the caller. This is an alternative to {approve} that can be used as a mitigation for problems described in {IERC20-approve}. Emits an {Approval} event indicating the updated allowance. Requirements: - `spender` cannot be the zero address. - `spender` must have allowance for the caller of at least `subtractedValue`."
      },
      "implementation()": {
        "details": "Returns the current implementation. NOTE: Only the admin can call this function. See {ProxyAdmin-getProxyImplementation}. TIP: To get this value clients can read directly from the storage slot shown below (specified by EIP1967) using the https://eth.wiki/json-rpc/API#eth_getstorageat[`eth_getStorageAt`] RPC call. `0x360894a13ba1a3210667c828492db98dca3e2076cc3735a920a3ca505d382bbc`"
      },
      "increaseAllowance(address,uint256)": {
        "details": "Atomically increases the allowance granted to `spender` by the caller. This is an alternative to {approve} that can be used as a mitigation for problems described in {IERC20-approve}. Emits an {Approval} event indicating the updated allowance. Requirements: - `spender` cannot be the zero address."
      },
      "name()": {
        "details": "Returns the name of the token."
      },
      "symbol()": {
        "details": "Returns the symbol of the token, usually a shorter version of the name."
      },
      "totalSupply()": {
        "details": "See {IERC20-totalSupply}."
      },
      "transferFrom(address,address,uint256)": {
        "details": "See {IERC20-transferFrom}. Emits an {Approval} event indicating the updated allowance. This is not required by the EIP. See the note at the beginning of {ERC20}. Requirements: - `sender` and `recipient` cannot be the zero address. - `sender` must have a balance of at least `amount`. - the caller must have allowance for ``sender``'s tokens of at least `amount`."
      },
      "upgradeTo(address)": {
        "details": "Upgrade the implementation of the proxy. NOTE: Only the admin can call this function. See {ProxyAdmin-upgrade}."
      },
      "upgradeToAndCall(address,bytes)": {
        "details": "Upgrade the implementation of the proxy, and then call a function from the new implementation as specified by `data`, which should be an encoded function call. This is useful to initialize new storage variables in the proxied contract. NOTE: Only the admin can call this function. See {ProxyAdmin-upgradeAndCall}."
      }
    },
    "version": 1
  },
  "userdoc": {
    "kind": "user",
    "methods": {},
    "version": 1
  }
}