{
  "contractName": "ProxyIOU",
  "abi": [
    {
      "inputs": [
        {
          "internalType": "address",
          "name": "_logic",
          "type": "address"
        },
        {
          "internalType": "address",
          "name": "admin_",
          "type": "address"
        }
      ],
      "stateMutability": "payable",
      "type": "constructor",
      "payable": true
    },
    {
      "anonymous": false,
      "inputs": [
        {
          "indexed": false,
          "internalType": "address",
          "name": "previousAdmin",
          "type": "address"
        },
        {
          "indexed": false,
          "internalType": "address",
          "name": "newAdmin",
          "type": "address"
        }
      ],
      "name": "AdminChanged",
      "type": "event"
    },
    {
      "anonymous": false,
      "inputs": [
        {
          "indexed": true,
          "internalType": "address",
          "name": "owner",
          "type": "address"
        },
        {
          "indexed": true,
          "internalType": "address",
          "name": "spender",
          "type": "address"
        },
        {
          "indexed": false,
          "internalType": "uint256",
          "name": "value",
          "type": "uint256"
        }
      ],
      "name": "Approval",
      "type": "event"
    },
    {
      "anonymous": false,
      "inputs": [
        {
          "indexed": true,
          "internalType": "address",
          "name": "beacon",
          "type": "address"
        }
      ],
      "name": "BeaconUpgraded",
      "type": "event"
    },
    {
      "anonymous": false,
      "inputs": [
        {
          "indexed": true,
          "internalType": "address",
          "name": "from",
          "type": "address"
        },
        {
          "indexed": true,
          "internalType": "address",
          "name": "to",
          "type": "address"
        },
        {
          "indexed": false,
          "internalType": "uint256",
          "name": "value",
          "type": "uint256"
        }
      ],
      "name": "Transfer",
      "type": "event"
    },
    {
      "anonymous": false,
      "inputs": [
        {
          "indexed": true,
          "internalType": "address",
          "name": "implementation",
          "type": "address"
        }
      ],
      "name": "Upgraded",
      "type": "event"
    },
    {
      "stateMutability": "payable",
      "type": "fallback",
      "payable": true
    },
    {
      "inputs": [
        {
          "internalType": "address",
          "name": "",
          "type": "address"
        },
        {
          "internalType": "uint256",
          "name": "",
          "type": "uint256"
        }
      ],
      "name": "IOUbyReceiver",
      "outputs": [
        {
          "internalType": "uint256",
          "name": "",
          "type": "uint256"
        }
      ],
      "stateMutability": "view",
      "type": "function",
      "constant": true
    },
    {
      "inputs": [],
      "name": "admin",
      "outputs": [
        {
          "internalType": "address",
          "name": "admin_",
          "type": "address"
        }
      ],
      "stateMutability": "nonpayable",
      "type": "function"
    },
    {
      "inputs": [
        {
          "internalType": "uint256",
          "name": "",
          "type": "uint256"
        }
      ],
      "name": "allFeedbacks",
      "outputs": [
        {
          "internalType": "address",
          "name": "sender",
          "type": "address"
        },
        {
          "internalType": "uint256",
          "name": "time",
          "type": "uint256"
        },
        {
          "internalType": "int256",
          "name": "rating",
          "type": "int256"
        },
        {
          "internalType": "uint256",
          "name": "amount",
          "type": "uint256"
        },
        {
          "internalType": "string",
          "name": "text",
          "type": "string"
        }
      ],
      "stateMutability": "view",
      "type": "function",
      "constant": true
    },
    {
      "inputs": [
        {
          "internalType": "uint256",
          "name": "",
          "type": "uint256"
        }
      ],
      "name": "allIOUs",
      "outputs": [
        {
          "internalType": "address",
          "name": "receiver",
          "type": "address"
        },
        {
          "internalType": "uint256",
          "name": "time",
          "type": "uint256"
        },
        {
          "internalType": "string",
          "name": "IOUDescr",
          "type": "string"
        }
      ],
      "stateMutability": "view",
      "type": "function",
      "constant": true
    },
    {
      "inputs": [
        {
          "internalType": "address",
          "name": "owner",
          "type": "address"
        },
        {
          "internalType": "address",
          "name": "spender",
          "type": "address"
        }
      ],
      "name": "allowance",
      "outputs": [
        {
          "internalType": "uint256",
          "name": "",
          "type": "uint256"
        }
      ],
      "stateMutability": "view",
      "type": "function",
      "constant": true
    },
    {
      "inputs": [
        {
          "internalType": "address",
          "name": "spender",
          "type": "address"
        },
        {
          "internalType": "uint256",
          "name": "amount",
          "type": "uint256"
        }
      ],
      "name": "approve",
      "outputs": [
        {
          "internalType": "bool",
          "name": "",
          "type": "bool"
        }
      ],
      "stateMutability": "nonpayable",
      "type": "function"
    },
    {
      "inputs": [
        {
          "internalType": "address",
          "name": "account",
          "type": "address"
        }
      ],
      "name": "balanceOf",
      "outputs": [
        {
          "internalType": "uint256",
          "name": "",
          "type": "uint256"
        }
      ],
      "stateMutability": "view",
      "type": "function",
      "constant": true
    },
    {
      "inputs": [
        {
          "internalType": "address",
          "name": "newAdmin",
          "type": "address"
        }
      ],
      "name": "changeAdmin",
      "outputs": [],
      "stateMutability": "nonpayable",
      "type": "function"
    },
    {
      "inputs": [],
      "name": "decimals",
      "outputs": [
        {
          "internalType": "uint8",
          "name": "",
          "type": "uint8"
        }
      ],
      "stateMutability": "view",
      "type": "function",
      "constant": true
    },
    {
      "inputs": [
        {
          "internalType": "address",
          "name": "spender",
          "type": "address"
        },
        {
          "internalType": "uint256",
          "name": "subtractedValue",
          "type": "uint256"
        }
      ],
      "name": "decreaseAllowance",
      "outputs": [
        {
          "internalType": "bool",
          "name": "",
          "type": "bool"
        }
      ],
      "stateMutability": "nonpayable",
      "type": "function"
    },
    {
      "inputs": [
        {
          "internalType": "address",
          "name": "",
          "type": "address"
        },
        {
          "internalType": "uint256",
          "name": "",
          "type": "uint256"
        }
      ],
      "name": "feedBacksbySender",
      "outputs": [
        {
          "internalType": "uint256",
          "name": "",
          "type": "uint256"
        }
      ],
      "stateMutability": "view",
      "type": "function",
      "constant": true
    },
    {
      "inputs": [],
      "name": "implementation",
      "outputs": [
        {
          "internalType": "address",
          "name": "implementation_",
          "type": "address"
        }
      ],
      "stateMutability": "nonpayable",
      "type": "function"
    },
    {
      "inputs": [
        {
          "internalType": "address",
          "name": "spender",
          "type": "address"
        },
        {
          "internalType": "uint256",
          "name": "addedValue",
          "type": "uint256"
        }
      ],
      "name": "increaseAllowance",
      "outputs": [
        {
          "internalType": "bool",
          "name": "",
          "type": "bool"
        }
      ],
      "stateMutability": "nonpayable",
      "type": "function"
    },
    {
      "inputs": [],
      "name": "name",
      "outputs": [
        {
          "internalType": "string",
          "name": "",
          "type": "string"
        }
      ],
      "stateMutability": "view",
      "type": "function",
      "constant": true
    },
    {
      "inputs": [],
      "name": "symbol",
      "outputs": [
        {
          "internalType": "string",
          "name": "",
          "type": "string"
        }
      ],
      "stateMutability": "view",
      "type": "function",
      "constant": true
    },
    {
      "inputs": [],
      "name": "totalSupply",
      "outputs": [
        {
          "internalType": "uint256",
          "name": "",
          "type": "uint256"
        }
      ],
      "stateMutability": "view",
      "type": "function",
      "constant": true
    },
    {
      "inputs": [
        {
          "internalType": "address",
          "name": "sender",
          "type": "address"
        },
        {
          "internalType": "address",
          "name": "recipient",
          "type": "address"
        },
        {
          "internalType": "uint256",
          "name": "amount",
          "type": "uint256"
        }
      ],
      "name": "transferFrom",
      "outputs": [
        {
          "internalType": "bool",
          "name": "",
          "type": "bool"
        }
      ],
      "stateMutability": "nonpayable",
      "type": "function"
    },
    {
      "inputs": [
        {
          "internalType": "address",
          "name": "newImplementation",
          "type": "address"
        }
      ],
      "name": "upgradeTo",
      "outputs": [],
      "stateMutability": "nonpayable",
      "type": "function"
    },
    {
      "inputs": [
        {
          "internalType": "address",
          "name": "newImplementation",
          "type": "address"
        },
        {
          "internalType": "bytes",
          "name": "data",
          "type": "bytes"
        }
      ],
      "name": "upgradeToAndCall",
      "outputs": [],
      "stateMutability": "payable",
      "type": "function",
      "payable": true
    },
    {
      "stateMutability": "payable",
      "type": "receive",
      "payable": true
    },
    {
      "inputs": [
        {
          "internalType": "string",
          "name": "name_",
          "type": "string"
        },
        {
          "internalType": "string",
          "name": "symbol_",
          "type": "string"
        },
        {
          "components": [
            {
              "internalType": "uint256",
              "name": "totalMinted",
              "type": "uint256"
            },
            {
              "internalType": "uint256",
              "name": "totalBurned",
              "type": "uint256"
            },
            {
              "internalType": "int256",
              "name": "avRate",
              "type": "int256"
            },
            {
              "internalType": "bytes32",
              "name": "units",
              "type": "bytes32"
            },
            {
              "internalType": "address",
              "name": "issuer",
              "type": "address"
            },
            {
              "internalType": "string",
              "name": "myName",
              "type": "string"
            },
            {
              "internalType": "string",
              "name": "socialProfile",
              "type": "string"
            },
            {
              "internalType": "string",
              "name": "description",
              "type": "string"
            },
            {
              "components": [
                {
                  "internalType": "string",
                  "name": "country",
                  "type": "string"
                },
                {
                  "internalType": "string",
                  "name": "state",
                  "type": "string"
                },
                {
                  "internalType": "string",
                  "name": "city",
                  "type": "string"
                },
                {
                  "internalType": "string",
                  "name": "street",
                  "type": "string"
                }
              ],
              "internalType": "struct iIOUtoken.geo",
              "name": "location",
              "type": "tuple"
            },
            {
              "internalType": "bytes32[]",
              "name": "keywords",
              "type": "bytes32[]"
            },
            {
              "internalType": "bytes32",
              "name": "phone",
              "type": "bytes32"
            }
          ],
          "internalType": "struct iIOUtoken.DescriptionIOU",
          "name": "_thisIOU",
          "type": "tuple"
        },
        {
          "internalType": "address",
          "name": "_store",
          "type": "address"
        }
      ],
      "name": "setIOU",
      "outputs": [],
      "stateMutability": "nonpayable",
      "type": "function"
    },
    {
      "inputs": [],
      "name": "initialize",
      "outputs": [],
      "stateMutability": "nonpayable",
      "type": "function"
    },
    {
      "inputs": [
        {
          "internalType": "address",
          "name": "_newOwner",
          "type": "address"
        }
      ],
      "name": "setStore",
      "outputs": [],
      "stateMutability": "nonpayable",
      "type": "function"
    },
    {
      "inputs": [
        {
          "internalType": "address",
          "name": "_newOwner",
          "type": "address"
        }
      ],
      "name": "setOwner",
      "outputs": [],
      "stateMutability": "nonpayable",
      "type": "function"
    },
    {
      "inputs": [
        {
          "internalType": "address",
          "name": "_who",
          "type": "address"
        },
        {
          "internalType": "uint256",
          "name": "_amount",
          "type": "uint256"
        },
        {
          "internalType": "string",
          "name": "_descr",
          "type": "string"
        }
      ],
      "name": "mint",
      "outputs": [],
      "stateMutability": "nonpayable",
      "type": "function"
    },
    {
      "inputs": [
        {
          "internalType": "uint256",
          "name": "_amount",
          "type": "uint256"
        },
        {
          "internalType": "int256",
          "name": "_rating",
          "type": "int256"
        },
        {
          "internalType": "string",
          "name": "_feedback",
          "type": "string"
        }
      ],
      "name": "burn",
      "outputs": [],
      "stateMutability": "nonpayable",
      "type": "function"
    },
    {
      "inputs": [
        {
          "internalType": "address",
          "name": "_recipient",
          "type": "address"
        },
        {
          "internalType": "uint256",
          "name": "_amount",
          "type": "uint256"
        }
      ],
      "name": "transfer",
      "outputs": [
        {
          "internalType": "bool",
          "name": "",
          "type": "bool"
        }
      ],
      "stateMutability": "nonpayable",
      "type": "function"
    },
    {
      "inputs": [
        {
          "internalType": "string",
          "name": "_descr",
          "type": "string"
        }
      ],
      "name": "editDescr",
      "outputs": [],
      "stateMutability": "nonpayable",
      "type": "function"
    },
    {
      "inputs": [
        {
          "internalType": "bytes32",
          "name": "_phone",
          "type": "bytes32"
        }
      ],
      "name": "editPhone",
      "outputs": [],
      "stateMutability": "nonpayable",
      "type": "function"
    },
    {
      "inputs": [
        {
          "internalType": "string",
          "name": "_country",
          "type": "string"
        },
        {
          "internalType": "string",
          "name": "_state",
          "type": "string"
        },
        {
          "internalType": "string",
          "name": "_city",
          "type": "string"
        },
        {
          "internalType": "string",
          "name": "_street",
          "type": "string"
        }
      ],
      "name": "editGeo",
      "outputs": [],
      "stateMutability": "nonpayable",
      "type": "function"
    },
    {
      "inputs": [
        {
          "internalType": "bytes32[]",
          "name": "_keys",
          "type": "bytes32[]"
        }
      ],
      "name": "addKeys",
      "outputs": [],
      "stateMutability": "nonpayable",
      "type": "function"
    },
    {
      "inputs": [
        {
          "internalType": "bytes32[]",
          "name": "_keys",
          "type": "bytes32[]"
        }
      ],
      "name": "delKeys",
      "outputs": [],
      "stateMutability": "nonpayable",
      "type": "function"
    },
    {
      "inputs": [
        {
          "internalType": "address",
          "name": "_iou",
          "type": "address"
        }
      ],
      "name": "getIOU",
      "outputs": [
        {
          "components": [
            {
              "internalType": "string",
              "name": "name",
              "type": "string"
            },
            {
              "internalType": "string",
              "name": "symbol",
              "type": "string"
            },
            {
              "components": [
                {
                  "internalType": "uint256",
                  "name": "totalMinted",
                  "type": "uint256"
                },
                {
                  "internalType": "uint256",
                  "name": "totalBurned",
                  "type": "uint256"
                },
                {
                  "internalType": "int256",
                  "name": "avRate",
                  "type": "int256"
                },
                {
                  "internalType": "bytes32",
                  "name": "units",
                  "type": "bytes32"
                },
                {
                  "internalType": "address",
                  "name": "issuer",
                  "type": "address"
                },
                {
                  "internalType": "string",
                  "name": "myName",
                  "type": "string"
                },
                {
                  "internalType": "string",
                  "name": "socialProfile",
                  "type": "string"
                },
                {
                  "internalType": "string",
                  "name": "description",
                  "type": "string"
                },
                {
                  "components": [
                    {
                      "internalType": "string",
                      "name": "country",
                      "type": "string"
                    },
                    {
                      "internalType": "string",
                      "name": "state",
                      "type": "string"
                    },
                    {
                      "internalType": "string",
                      "name": "city",
                      "type": "string"
                    },
                    {
                      "internalType": "string",
                      "name": "street",
                      "type": "string"
                    }
                  ],
                  "internalType": "struct iIOUtoken.geo",
                  "name": "location",
                  "type": "tuple"
                },
                {
                  "internalType": "bytes32[]",
                  "name": "keywords",
                  "type": "bytes32[]"
                },
                {
                  "internalType": "bytes32",
                  "name": "phone",
                  "type": "bytes32"
                }
              ],
              "internalType": "struct iIOUtoken.DescriptionIOU",
              "name": "description",
              "type": "tuple"
            }
          ],
          "internalType": "struct iIOUtoken.IOUdescr",
          "name": "",
          "type": "tuple"
        }
      ],
      "stateMutability": "view",
      "type": "function",
      "constant": true
    },
    {
      "inputs": [],
      "name": "thisIOUkeywords",
      "outputs": [
        {
          "internalType": "bytes32[]",
          "name": "",
          "type": "bytes32[]"
        }
      ],
      "stateMutability": "view",
      "type": "function",
      "constant": true
    },
    {
      "inputs": [],
      "name": "getlen",
      "outputs": [
        {
          "internalType": "uint256",
          "name": "",
          "type": "uint256"
        },
        {
          "internalType": "uint256",
          "name": "",
          "type": "uint256"
        }
      ],
      "stateMutability": "view",
      "type": "function",
      "constant": true
    },
    {
      "inputs": [],
      "name": "thisIOUDesc",
      "outputs": [
        {
          "components": [
            {
              "internalType": "uint256",
              "name": "totalMinted",
              "type": "uint256"
            },
            {
              "internalType": "uint256",
              "name": "totalBurned",
              "type": "uint256"
            },
            {
              "internalType": "int256",
              "name": "avRate",
              "type": "int256"
            },
            {
              "internalType": "bytes32",
              "name": "units",
              "type": "bytes32"
            },
            {
              "internalType": "address",
              "name": "issuer",
              "type": "address"
            },
            {
              "internalType": "string",
              "name": "myName",
              "type": "string"
            },
            {
              "internalType": "string",
              "name": "socialProfile",
              "type": "string"
            },
            {
              "internalType": "string",
              "name": "description",
              "type": "string"
            },
            {
              "components": [
                {
                  "internalType": "string",
                  "name": "country",
                  "type": "string"
                },
                {
                  "internalType": "string",
                  "name": "state",
                  "type": "string"
                },
                {
                  "internalType": "string",
                  "name": "city",
                  "type": "string"
                },
                {
                  "internalType": "string",
                  "name": "street",
                  "type": "string"
                }
              ],
              "internalType": "struct iIOUtoken.geo",
              "name": "location",
              "type": "tuple"
            },
            {
              "internalType": "bytes32[]",
              "name": "keywords",
              "type": "bytes32[]"
            },
            {
              "internalType": "bytes32",
              "name": "phone",
              "type": "bytes32"
            }
          ],
          "internalType": "struct iIOUtoken.DescriptionIOU",
          "name": "",
          "type": "tuple"
        }
      ],
      "stateMutability": "view",
      "type": "function",
      "constant": true
    },
    {
      "inputs": [],
      "name": "IOUname",
      "outputs": [
        {
          "internalType": "string",
          "name": "",
          "type": "string"
        }
      ],
      "stateMutability": "view",
      "type": "function",
      "constant": true
    },
    {
      "inputs": [],
      "name": "IOUsymbol",
      "outputs": [
        {
          "internalType": "string",
          "name": "",
          "type": "string"
        }
      ],
      "stateMutability": "view",
      "type": "function",
      "constant": true
    },
    {
      "inputs": [],
      "name": "getTokenInfo",
      "outputs": [
        {
          "internalType": "string",
          "name": "",
          "type": "string"
        },
        {
          "internalType": "string",
          "name": "",
          "type": "string"
        },
        {
          "components": [
            {
              "internalType": "uint256",
              "name": "totalMinted",
              "type": "uint256"
            },
            {
              "internalType": "uint256",
              "name": "totalBurned",
              "type": "uint256"
            },
            {
              "internalType": "int256",
              "name": "avRate",
              "type": "int256"
            },
            {
              "internalType": "bytes32",
              "name": "units",
              "type": "bytes32"
            },
            {
              "internalType": "address",
              "name": "issuer",
              "type": "address"
            },
            {
              "internalType": "string",
              "name": "myName",
              "type": "string"
            },
            {
              "internalType": "string",
              "name": "socialProfile",
              "type": "string"
            },
            {
              "internalType": "string",
              "name": "description",
              "type": "string"
            },
            {
              "components": [
                {
                  "internalType": "string",
                  "name": "country",
                  "type": "string"
                },
                {
                  "internalType": "string",
                  "name": "state",
                  "type": "string"
                },
                {
                  "internalType": "string",
                  "name": "city",
                  "type": "string"
                },
                {
                  "internalType": "string",
                  "name": "street",
                  "type": "string"
                }
              ],
              "internalType": "struct iIOUtoken.geo",
              "name": "location",
              "type": "tuple"
            },
            {
              "internalType": "bytes32[]",
              "name": "keywords",
              "type": "bytes32[]"
            },
            {
              "internalType": "bytes32",
              "name": "phone",
              "type": "bytes32"
            }
          ],
          "internalType": "struct iIOUtoken.DescriptionIOU",
          "name": "",
          "type": "tuple"
        }
      ],
      "stateMutability": "view",
      "type": "function",
      "constant": true
    }
  ],
  "bytecode": "0x608060405260405162003f7638038062003f7683398101604081905262000026916200052e565b6040805160208101909152600081528290829082816200006860017f360894a13ba1a3210667c828492db98dca3e2076cc3735a920a3ca505d382bbd62000566565b60008051602062003f0f833981519152146200008857620000886200058c565b620000968282600062000153565b50620000b59050600160008051602062003f2f83398151915262000566565b60008051602062003eef83398151915214620000d557620000d56200058c565b620000e08262000190565b506200010191506001905060008051602062003f2f83398151915262000566565b60008051602062003eef833981519152146200012157620001216200058c565b6200012c8162000190565b50601e80546001600160a01b0319166001600160a01b039290921691909117905562000624565b6200015e83620001eb565b6000825111806200016c5750805b156200018b576200018983836200022d60201b620020f91760201c565b505b505050565b7f7e644d79422f17c01e4894b5f4f588d331ebfa28653d42ae832dc59e38c9798f620001bb6200025c565b604080516001600160a01b03928316815291841660208301520160405180910390a1620001e88162000295565b50565b620001f6816200034a565b6040516001600160a01b038216907fbc7cd75a20ee27fd9adebab32041f755214dbc6bffa90cc0225b39da2e5c2d3b90600090a250565b606062000255838360405180606001604052806027815260200162003f4f60279139620003ed565b9392505050565b60006200028660008051602062003eef83398151915260001b620004ca60201b6200129f1760201c565b546001600160a01b0316919050565b6001600160a01b038116620003005760405162461bcd60e51b815260206004820152602660248201527f455243313936373a206e65772061646d696e20697320746865207a65726f206160448201526564647265737360d01b60648201526084015b60405180910390fd5b806200032960008051602062003eef83398151915260001b620004ca60201b6200129f1760201c565b80546001600160a01b0319166001600160a01b039290921691909117905550565b6200036081620004cd60201b6200211e1760201c565b620003c45760405162461bcd60e51b815260206004820152602d60248201527f455243313936373a206e657720696d706c656d656e746174696f6e206973206e60448201526c1bdd08184818dbdb9d1c9858dd609a1b6064820152608401620002f7565b806200032960008051602062003f0f83398151915260001b620004ca60201b6200129f1760201c565b6060833b6200044e5760405162461bcd60e51b815260206004820152602660248201527f416464726573733a2064656c65676174652063616c6c20746f206e6f6e2d636f6044820152651b9d1c9858dd60d21b6064820152608401620002f7565b600080856001600160a01b0316856040516200046b9190620005d1565b600060405180830381855af49150503d8060008114620004a8576040519150601f19603f3d011682016040523d82523d6000602084013e620004ad565b606091505b509092509050620004c0828286620004d3565b9695505050505050565b90565b3b151590565b60608315620004e457508162000255565b825115620004f55782518084602001fd5b8160405162461bcd60e51b8152600401620002f79190620005ef565b80516001600160a01b03811681146200052957600080fd5b919050565b600080604083850312156200054257600080fd5b6200054d8362000511565b91506200055d6020840162000511565b90509250929050565b6000828210156200058757634e487b7160e01b600052601160045260246000fd5b500390565b634e487b7160e01b600052600160045260246000fd5b60005b83811015620005bf578181015183820152602001620005a5565b83811115620001895750506000910152565b60008251620005e5818460208701620005a2565b9190910192915050565b602081526000825180602084015262000610816040850160208701620005a2565b601f01601f19169190910160400192915050565b6138bb80620006346000396000f3fe6080604052600436106102295760003560e01c806370a0823111610123578063a9059cbb116100ab578063d3fc98641161006f578063d3fc986414610694578063dd62ed3e146106b4578063f67ad233146106fa578063f851a4401461071a578063fc9925b91461072f57610238565b8063a9059cbb146105ee578063abb1dc441461060e578063ac6137ea14610632578063b251131414610652578063d25b1c6d1461067457610238565b806395d89b41116100f257806395d89b41146105555780639ee095061461056a578063a1a613bb1461057f578063a457c2d71461059f578063a69bac24146105bf57610238565b806370a08231146104c25780637fdcf01f146104f85780638129fc1c146105205780638f2839701461053557610238565b80631bbb6e58116101b15780634f1ef286116101755780634f1ef2861461042d57806358aee270146104405780635c60da1b146104555780636a3611b9146104825780636f879724146104a257610238565b80631bbb6e581461038057806323b872dd146103b1578063313ce567146103d15780633659cfe6146103ed578063395093511461040d57610238565b80630a576364116101f85780630a576364146102db57806313af4035146102fd57806314fcf3151461031d57806318160ddd1461034b578063188caf8a1461036057610238565b806306fdde0314610240578063070df2d21461026b578063087cbd401461028b578063095ea7b3146102ab57610238565b366102385761023661075c565b005b61023661075c565b34801561024c57600080fd5b50610255610776565b6040516102629190612940565b60405180910390f35b34801561027757600080fd5b50610236610286366004612a61565b610808565b34801561029757600080fd5b506102366102a6366004612ad5565b6108dd565b3480156102b757600080fd5b506102cb6102c6366004612af2565b6109c9565b6040519015158152602001610262565b3480156102e757600080fd5b506102f06109df565b6040516102629190612ca0565b34801561030957600080fd5b50610236610318366004612ad5565b610ea2565b34801561032957600080fd5b5061033d610338366004612af2565b610ef8565b604051908152602001610262565b34801561035757600080fd5b5060025461033d565b34801561036c57600080fd5b5061023661037b366004612cb3565b610f29565b34801561038c57600080fd5b506103a061039b366004612d27565b610ff1565b604051610262959493929190612d40565b3480156103bd57600080fd5b506102cb6103cc366004612d7e565b6110c8565b3480156103dd57600080fd5b5060405160128152602001610262565b3480156103f957600080fd5b50610236610408366004612ad5565b611174565b34801561041957600080fd5b506102cb610428366004612af2565b6111b0565b61023661043b366004612e07565b6111ec565b34801561044c57600080fd5b5061025561125d565b34801561046157600080fd5b5061046a61126c565b6040516001600160a01b039091168152602001610262565b34801561048e57600080fd5b5061023661049d366004612d27565b6112a2565b3480156104ae57600080fd5b506102366104bd366004612e5b565b6112f8565b3480156104ce57600080fd5b5061033d6104dd366004612ad5565b6001600160a01b031660009081526020819052604090205490565b34801561050457600080fd5b50601a5460185460408051928352602083019190915201610262565b34801561052c57600080fd5b506102366113d2565b34801561054157600080fd5b50610236610550366004612ad5565b6114ea565b34801561056157600080fd5b50610255611514565b34801561057657600080fd5b50610255611523565b34801561058b57600080fd5b5061023661059a36600461305f565b61152d565b3480156105ab57600080fd5b506102cb6105ba366004612af2565b611668565b3480156105cb57600080fd5b506105df6105da366004612d27565b611701565b60405161026293929190613202565b3480156105fa57600080fd5b506102cb610609366004612af2565b6117ca565b34801561061a57600080fd5b50610623611899565b60405161026293929190613229565b34801561063e57600080fd5b5061023661064d366004612cb3565b611d75565b34801561065e57600080fd5b50610667611dd1565b6040516102629190613262565b34801561068057600080fd5b5061033d61068f366004612af2565b611e2b565b3480156106a057600080fd5b506102366106af3660046132a6565b611e47565b3480156106c057600080fd5b5061033d6106cf3660046132e8565b6001600160a01b03918216600090815260016020908152604080832093909416825291909152205490565b34801561070657600080fd5b50610236610715366004613321565b611f12565b34801561072657600080fd5b5061046a611f6e565b34801561073b57600080fd5b5061074f61074a366004612ad5565b611f99565b6040516102629190613362565b610764612124565b61077461076f6121be565b6121c8565b565b606060038054610785906133ba565b80601f01602080910402602001604051908101604052809291908181526020018280546107b1906133ba565b80156107fe5780601f106107d3576101008083540402835291602001916107fe565b820191906000526020600020905b8154815290600101906020018083116107e157829003601f168201915b5050505050905090565b601e54604051849160009182916001600160a01b031690610831908590889088906024016133f5565b60408051601f198184030181529181526020820180516001600160e01b0316636710cc5160e11b179052516108669190613414565b600060405180830381855af49150503d80600081146108a1576040519150601f19603f3d011682016040523d82523d6000602084013e6108a6565b606091505b50915091508181906108d45760405162461bcd60e51b81526004016108cb9190612940565b60405180910390fd5b50505050505050565b6108e56121ec565b6001600160a01b0316336001600160a01b031614156109be57601e546040516001600160a01b038381166024830152600092839291169060440160408051601f198184030181529181526020820180516001600160e01b03166221f2f560e61b179052516109539190613414565b600060405180830381855af49150503d806000811461098e576040519150601f19603f3d011682016040523d82523d6000602084013e610993565b606091505b50915091508181906109b85760405162461bcd60e51b81526004016108cb9190612940565b50505050565b6109c661075c565b50565b60006109d633848461221f565b50600192915050565b6109e7612833565b6040805161016081018252600a80548252600b546020830152600c5492820192909252600d546060820152600e546001600160a01b03166080820152600f805491929160a084019190610a39906133ba565b80601f0160208091040260200160405190810160405280929190818152602001828054610a65906133ba565b8015610ab25780601f10610a8757610100808354040283529160200191610ab2565b820191906000526020600020905b815481529060010190602001808311610a9557829003601f168201915b50505050508152602001600682018054610acb906133ba565b80601f0160208091040260200160405190810160405280929190818152602001828054610af7906133ba565b8015610b445780601f10610b1957610100808354040283529160200191610b44565b820191906000526020600020905b815481529060010190602001808311610b2757829003601f168201915b50505050508152602001600782018054610b5d906133ba565b80601f0160208091040260200160405190810160405280929190818152602001828054610b89906133ba565b8015610bd65780601f10610bab57610100808354040283529160200191610bd6565b820191906000526020600020905b815481529060010190602001808311610bb957829003601f168201915b5050505050815260200160088201604051806080016040529081600082018054610bff906133ba565b80601f0160208091040260200160405190810160405280929190818152602001828054610c2b906133ba565b8015610c785780601f10610c4d57610100808354040283529160200191610c78565b820191906000526020600020905b815481529060010190602001808311610c5b57829003601f168201915b50505050508152602001600182018054610c91906133ba565b80601f0160208091040260200160405190810160405280929190818152602001828054610cbd906133ba565b8015610d0a5780601f10610cdf57610100808354040283529160200191610d0a565b820191906000526020600020905b815481529060010190602001808311610ced57829003601f168201915b50505050508152602001600282018054610d23906133ba565b80601f0160208091040260200160405190810160405280929190818152602001828054610d4f906133ba565b8015610d9c5780601f10610d7157610100808354040283529160200191610d9c565b820191906000526020600020905b815481529060010190602001808311610d7f57829003601f168201915b50505050508152602001600382018054610db5906133ba565b80601f0160208091040260200160405190810160405280929190818152602001828054610de1906133ba565b8015610e2e5780601f10610e0357610100808354040283529160200191610e2e565b820191906000526020600020905b815481529060010190602001808311610e1157829003601f168201915b5050505050815250508152602001600c8201805480602002602001604051908101604052809291908181526020018280548015610e8a57602002820191906000526020600020905b815481526020019060010190808311610e76575b50505050508152602001600d82015481525050905090565b601e546040516001600160a01b038381166024830152600092839291169060440160408051601f198184030181529181526020820180516001600160e01b03166313af403560e01b179052516109539190613414565b601b6020528160005260406000208181548110610f1457600080fd5b90600052602060002001600091509150505481565b601e5460405160009182916001600160a01b0390911690610f509086908690602401613430565b60408051601f198184030181529181526020820180516001600160e01b0316630c4657c560e11b17905251610f859190613414565b600060405180830381855af49150503d8060008114610fc0576040519150601f19603f3d011682016040523d82523d6000602084013e610fc5565b606091505b5091509150818190610fea5760405162461bcd60e51b81526004016108cb9190612940565b5050505050565b6018818154811061100157600080fd5b6000918252602090912060059091020180546001820154600283015460038401546004850180546001600160a01b03909516965092949193909290611045906133ba565b80601f0160208091040260200160405190810160405280929190818152602001828054611071906133ba565b80156110be5780601f10611093576101008083540402835291602001916110be565b820191906000526020600020905b8154815290600101906020018083116110a157829003601f168201915b5050505050905085565b60006110d5848484612343565b6001600160a01b03841660009081526001602090815260408083203384529091529020548281101561115a5760405162461bcd60e51b815260206004820152602860248201527f45524332303a207472616e7366657220616d6f756e74206578636565647320616044820152676c6c6f77616e636560c01b60648201526084016108cb565b611167853385840361221f565b60019150505b9392505050565b61117c6121ec565b6001600160a01b0316336001600160a01b031614156109be576109c681604051806020016040528060008152506000612511565b3360008181526001602090815260408083206001600160a01b038716845290915281205490916109d69185906111e790869061346c565b61221f565b6111f46121ec565b6001600160a01b0316336001600160a01b03161415611255576112508383838080601f01602080910402602001604051908101604052809392919081815260200183838082843760009201919091525060019250612511915050565b505050565b61125061075c565b6060611267611514565b905090565b60006112766121ec565b6001600160a01b0316336001600160a01b03161415611297576112676121be565b61129f61075c565b90565b601e546040516024810183905260009182916001600160a01b039091169060440160408051601f198184030181529181526020820180516001600160e01b0316636a3611b960e01b179052516109539190613414565b601e5460405160009182916001600160a01b039091169061132b908c908c908c908c908c908c908c908c906024016134bb565b60408051601f198184030181529181526020820180516001600160e01b0316631be1e5c960e21b179052516113609190613414565b600060405180830381855af49150503d806000811461139b576040519150601f19603f3d011682016040523d82523d6000602084013e6113a0565b606091505b50915091508181906113c55760405162461bcd60e51b81526004016108cb9190612940565b5050505050505050505050565b601c54600160a81b900460ff16156114255760405162461bcd60e51b8152602060048201526016602482015275416c726561647920696e69746564202870726f78792960501b60448201526064016108cb565b601e5460408051600481526024810182526020810180516001600160e01b031663204a7f0760e21b179052905160009283926001600160a01b039091169161146d9190613414565b600060405180830381855af49150503d80600081146114a8576040519150601f19603f3d011682016040523d82523d6000602084013e6114ad565b606091505b50915091508181906114d25760405162461bcd60e51b81526004016108cb9190612940565b5050601c805460ff60a81b1916600160a81b17905550565b6114f26121ec565b6001600160a01b0316336001600160a01b031614156109be576109c681612536565b606060048054610785906133ba565b6060611267610776565b601c54600160a01b900460ff16156115875760405162461bcd60e51b815260206004820152601a60248201527f416c726561647920636f6e66696775726564202870726f78792900000000000060448201526064016108cb565b601e5460405160009182916001600160a01b03909116906115b290889088908890889060240161351b565b60408051601f198184030181529181526020820180516001600160e01b0316634836fe8560e01b179052516115e79190613414565b600060405180830381855af49150503d8060008114611622576040519150601f19603f3d011682016040523d82523d6000602084013e611627565b606091505b509150915081819061164c5760405162461bcd60e51b81526004016108cb9190612940565b5050601c805460ff60a01b1916600160a01b1790555050505050565b3360009081526001602090815260408083206001600160a01b0386168452909152812054828110156116ea5760405162461bcd60e51b815260206004820152602560248201527f45524332303a2064656372656173656420616c6c6f77616e63652062656c6f77604482015264207a65726f60d81b60648201526084016108cb565b6116f7338585840361221f565b5060019392505050565b601a818154811061171157600080fd5b60009182526020909120600390910201805460018201546002830180546001600160a01b039093169450909291611747906133ba565b80601f0160208091040260200160405190810160405280929190818152602001828054611773906133ba565b80156117c05780601f10611795576101008083540402835291602001916117c0565b820191906000526020600020905b8154815290600101906020018083116117a357829003601f168201915b5050505050905083565b601e546040516001600160a01b03848116602483015260448201849052600092849284928392169060640160408051601f198184030181529181526020820180516001600160e01b031663a9059cbb60e01b1790525161182a9190613414565b600060405180830381855af49150503d8060008114611865576040519150601f19603f3d011682016040523d82523d6000602084013e61186a565b606091505b509150915081819061188f5760405162461bcd60e51b81526004016108cb9190612940565b5050505092915050565b6060806118a4612833565b6118ac610776565b6118b4611514565b6040805161016081018252600a80548252600b546020830152600c5492820192909252600d546060820152600e546001600160a01b03166080820152600f8054839160a0840191611904906133ba565b80601f0160208091040260200160405190810160405280929190818152602001828054611930906133ba565b801561197d5780601f106119525761010080835404028352916020019161197d565b820191906000526020600020905b81548152906001019060200180831161196057829003601f168201915b50505050508152602001600682018054611996906133ba565b80601f01602080910402602001604051908101604052809291908181526020018280546119c2906133ba565b8015611a0f5780601f106119e457610100808354040283529160200191611a0f565b820191906000526020600020905b8154815290600101906020018083116119f257829003601f168201915b50505050508152602001600782018054611a28906133ba565b80601f0160208091040260200160405190810160405280929190818152602001828054611a54906133ba565b8015611aa15780601f10611a7657610100808354040283529160200191611aa1565b820191906000526020600020905b815481529060010190602001808311611a8457829003601f168201915b5050505050815260200160088201604051806080016040529081600082018054611aca906133ba565b80601f0160208091040260200160405190810160405280929190818152602001828054611af6906133ba565b8015611b435780601f10611b1857610100808354040283529160200191611b43565b820191906000526020600020905b815481529060010190602001808311611b2657829003601f168201915b50505050508152602001600182018054611b5c906133ba565b80601f0160208091040260200160405190810160405280929190818152602001828054611b88906133ba565b8015611bd55780601f10611baa57610100808354040283529160200191611bd5565b820191906000526020600020905b815481529060010190602001808311611bb857829003601f168201915b50505050508152602001600282018054611bee906133ba565b80601f0160208091040260200160405190810160405280929190818152602001828054611c1a906133ba565b8015611c675780601f10611c3c57610100808354040283529160200191611c67565b820191906000526020600020905b815481529060010190602001808311611c4a57829003601f168201915b50505050508152602001600382018054611c80906133ba565b80601f0160208091040260200160405190810160405280929190818152602001828054611cac906133ba565b8015611cf95780601f10611cce57610100808354040283529160200191611cf9565b820191906000526020600020905b815481529060010190602001808311611cdc57829003601f168201915b5050505050815250508152602001600c8201805480602002602001604051908101604052809291908181526020018280548015611d5557602002820191906000526020600020905b815481526020019060010190808311611d41575b50505050508152602001600d820154815250509050925092509250909192565b601e5460405160009182916001600160a01b0390911690611d9c9086908690602401613430565b60408051601f198184030181529181526020820180516001600160e01b03166356309bf560e11b17905251610f859190613414565b6060600a600c018054806020026020016040519081016040528092919081815260200182805480156107fe57602002820191906000526020600020905b815481526020019060010190808311611e0e575050505050905090565b60196020528160005260406000208181548110610f1457600080fd5b601e5460405160009182916001600160a01b0390911690611e7090879087908790602401613202565b60408051601f198184030181529181526020820180516001600160e01b03166334ff261960e21b17905251611ea59190613414565b600060405180830381855af49150503d8060008114611ee0576040519150601f19603f3d011682016040523d82523d6000602084013e611ee5565b606091505b5091509150818190611f0a5760405162461bcd60e51b81526004016108cb9190612940565b505050505050565b601e5460405160009182916001600160a01b0390911690611f39908690869060240161356e565b60408051601f198184030181529181526020820180516001600160e01b031663f67ad23360e01b17905251610f859190613414565b6000611f786121ec565b6001600160a01b0316336001600160a01b03161415611297576112676121ec565b611fa16128c2565b600082905060006040518060600160405280836001600160a01b0316639ee095066040518163ffffffff1660e01b8152600401600060405180830381865afa158015611ff1573d6000803e3d6000fd5b505050506040513d6000823e601f3d908101601f1916820160405261201991908101906135cf565b8152602001836001600160a01b03166358aee2706040518163ffffffff1660e01b8152600401600060405180830381865afa15801561205c573d6000803e3d6000fd5b505050506040513d6000823e601f3d908101601f1916820160405261208491908101906135cf565b8152602001836001600160a01b0316630a5763646040518163ffffffff1660e01b8152600401600060405180830381865afa1580156120c7573d6000803e3d6000fd5b505050506040513d6000823e601f3d908101601f191682016040526120ef9190810190613715565b9052949350505050565b606061116d838360405180606001604052806027815260200161385f6027913961258a565b3b151590565b61212c6121ec565b6001600160a01b0316336001600160a01b031614156107745760405162461bcd60e51b815260206004820152604260248201527f5472616e73706172656e745570677261646561626c6550726f78793a2061646d60448201527f696e2063616e6e6f742066616c6c6261636b20746f2070726f78792074617267606482015261195d60f21b608482015260a4016108cb565b600061126761265e565b3660008037600080366000845af43d6000803e8080156121e7573d6000f35b3d6000fd5b60007fb53127684a568b3173ae13b9f8a6016e243e63b6e8ee1178d6a717850b5d61035b546001600160a01b0316919050565b6001600160a01b0383166122815760405162461bcd60e51b8152602060048201526024808201527f45524332303a20617070726f76652066726f6d20746865207a65726f206164646044820152637265737360e01b60648201526084016108cb565b6001600160a01b0382166122e25760405162461bcd60e51b815260206004820152602260248201527f45524332303a20617070726f766520746f20746865207a65726f206164647265604482015261737360f01b60648201526084016108cb565b6001600160a01b0383811660008181526001602090815260408083209487168084529482529182902085905590518481527f8c5be1e5ebec7d5bd14f71427d1e84f3dd0314c0f7b2291e5b200ac8c7c3b925910160405180910390a3505050565b6001600160a01b0383166123a75760405162461bcd60e51b815260206004820152602560248201527f45524332303a207472616e736665722066726f6d20746865207a65726f206164604482015264647265737360d81b60648201526084016108cb565b6001600160a01b0382166124095760405162461bcd60e51b815260206004820152602360248201527f45524332303a207472616e7366657220746f20746865207a65726f206164647260448201526265737360e81b60648201526084016108cb565b6001600160a01b038316600090815260208190526040902054818110156124815760405162461bcd60e51b815260206004820152602660248201527f45524332303a207472616e7366657220616d6f756e7420657863656564732062604482015265616c616e636560d01b60648201526084016108cb565b6001600160a01b038085166000908152602081905260408082208585039055918516815290812080548492906124b890849061346c565b92505081905550826001600160a01b0316846001600160a01b03167fddf252ad1be2c89b69c2b068fc378daa952ba7f163c4a11628f55a4df523b3ef8460405161250491815260200190565b60405180910390a36109b8565b61251a83612686565b6000825111806125275750805b15611250576109b883836120f9565b7f7e644d79422f17c01e4894b5f4f588d331ebfa28653d42ae832dc59e38c9798f61255f6121ec565b604080516001600160a01b03928316815291841660208301520160405180910390a16109c6816126c6565b6060833b6125e95760405162461bcd60e51b815260206004820152602660248201527f416464726573733a2064656c65676174652063616c6c20746f206e6f6e2d636f6044820152651b9d1c9858dd60d21b60648201526084016108cb565b600080856001600160a01b0316856040516126049190613414565b600060405180830381855af49150503d806000811461263f576040519150601f19603f3d011682016040523d82523d6000602084013e612644565b606091505b509150915061265482828661276f565b9695505050505050565b60007f360894a13ba1a3210667c828492db98dca3e2076cc3735a920a3ca505d382bbc612210565b61268f816127a8565b6040516001600160a01b038216907fbc7cd75a20ee27fd9adebab32041f755214dbc6bffa90cc0225b39da2e5c2d3b90600090a250565b6001600160a01b03811661272b5760405162461bcd60e51b815260206004820152602660248201527f455243313936373a206e65772061646d696e20697320746865207a65726f206160448201526564647265737360d01b60648201526084016108cb565b807fb53127684a568b3173ae13b9f8a6016e243e63b6e8ee1178d6a717850b5d61035b80546001600160a01b0319166001600160a01b039290921691909117905550565b6060831561277e57508161116d565b82511561278e5782518084602001fd5b8160405162461bcd60e51b81526004016108cb9190612940565b803b61280c5760405162461bcd60e51b815260206004820152602d60248201527f455243313936373a206e657720696d706c656d656e746174696f6e206973206e60448201526c1bdd08184818dbdb9d1c9858dd609a1b60648201526084016108cb565b807f360894a13ba1a3210667c828492db98dca3e2076cc3735a920a3ca505d382bbc61274e565b6040518061016001604052806000815260200160008152602001600081526020016000801916815260200160006001600160a01b031681526020016060815260200160608152602001606081526020016128ae6040518060800160405280606081526020016060815260200160608152602001606081525090565b815260606020820152600060409091015290565b604051806060016040528060608152602001606081526020016128e3612833565b905290565b60005b838110156129035781810151838201526020016128eb565b838111156109b85750506000910152565b6000815180845261292c8160208601602086016128e8565b601f01601f19169290920160200192915050565b60208152600061116d6020830184612914565b634e487b7160e01b600052604160045260246000fd5b604051608081016001600160401b038111828210171561298b5761298b612953565b60405290565b60405161016081016001600160401b038111828210171561298b5761298b612953565b604051601f8201601f191681016001600160401b03811182821017156129dc576129dc612953565b604052919050565b60006001600160401b038211156129fd576129fd612953565b50601f01601f191660200190565b600082601f830112612a1c57600080fd5b8135612a2f612a2a826129e4565b6129b4565b818152846020838601011115612a4457600080fd5b816020850160208301376000918101602001919091529392505050565b600080600060608486031215612a7657600080fd5b833592506020840135915060408401356001600160401b03811115612a9a57600080fd5b612aa686828701612a0b565b9150509250925092565b6001600160a01b03811681146109c657600080fd5b8035612ad081612ab0565b919050565b600060208284031215612ae757600080fd5b813561116d81612ab0565b60008060408385031215612b0557600080fd5b8235612b1081612ab0565b946020939093013593505050565b6000815160808452612b336080850182612914565b905060208301518482036020860152612b4c8282612914565b91505060408301518482036040860152612b668282612914565b91505060608301518482036060860152612b808282612914565b95945050505050565b600081518084526020808501945080840160005b83811015612bb957815187529582019590820190600101612b9d565b509495945050505050565b6000610160825184526020830151602085015260408301516040850152606083015160608501526080830151612c0560808601826001600160a01b03169052565b5060a08301518160a0860152612c1d82860182612914565b91505060c083015184820360c0860152612c378282612914565b91505060e083015184820360e0860152612c518282612914565b9150506101008084015185830382870152612c6c8382612b1e565b925050506101208084015185830382870152612c888382612b89565b61014095860151969095019590955250919392505050565b60208152600061116d6020830184612bc4565b60008060208385031215612cc657600080fd5b82356001600160401b0380821115612cdd57600080fd5b818501915085601f830112612cf157600080fd5b813581811115612d0057600080fd5b8660208260051b8501011115612d1557600080fd5b60209290920196919550909350505050565b600060208284031215612d3957600080fd5b5035919050565b60018060a01b038616815284602082015283604082015282606082015260a060808201526000612d7360a0830184612914565b979650505050505050565b600080600060608486031215612d9357600080fd5b8335612d9e81612ab0565b92506020840135612dae81612ab0565b929592945050506040919091013590565b60008083601f840112612dd157600080fd5b5081356001600160401b03811115612de857600080fd5b602083019150836020828501011115612e0057600080fd5b9250929050565b600080600060408486031215612e1c57600080fd5b8335612e2781612ab0565b925060208401356001600160401b03811115612e4257600080fd5b612e4e86828701612dbf565b9497909650939450505050565b6000806000806000806000806080898b031215612e7757600080fd5b88356001600160401b0380821115612e8e57600080fd5b612e9a8c838d01612dbf565b909a50985060208b0135915080821115612eb357600080fd5b612ebf8c838d01612dbf565b909850965060408b0135915080821115612ed857600080fd5b612ee48c838d01612dbf565b909650945060608b0135915080821115612efd57600080fd5b50612f0a8b828c01612dbf565b999c989b5096995094979396929594505050565b600060808284031215612f3057600080fd5b612f38612969565b905081356001600160401b0380821115612f5157600080fd5b612f5d85838601612a0b565b83526020840135915080821115612f7357600080fd5b612f7f85838601612a0b565b60208401526040840135915080821115612f9857600080fd5b612fa485838601612a0b565b60408401526060840135915080821115612fbd57600080fd5b50612fca84828501612a0b565b60608301525092915050565b60006001600160401b03821115612fef57612fef612953565b5060051b60200190565b600082601f83011261300a57600080fd5b8135602061301a612a2a83612fd6565b82815260059290921b8401810191818101908684111561303957600080fd5b8286015b84811015613054578035835291830191830161303d565b509695505050505050565b6000806000806080858703121561307557600080fd5b84356001600160401b038082111561308c57600080fd5b61309888838901612a0b565b955060208701359150808211156130ae57600080fd5b6130ba88838901612a0b565b945060408701359150808211156130d057600080fd5b9086019061016082890312156130e557600080fd5b6130ed612991565b8235815260208301356020820152604083013560408201526060830135606082015261311b60808401612ac5565b608082015260a08301358281111561313257600080fd5b61313e8a828601612a0b565b60a08301525060c08301358281111561315657600080fd5b6131628a828601612a0b565b60c08301525060e08301358281111561317a57600080fd5b6131868a828601612a0b565b60e08301525061010080840135838111156131a057600080fd5b6131ac8b828701612f1e565b82840152505061012080840135838111156131c657600080fd5b6131d28b828701612ff9565b828401525050610140915081830135828201528094505050506131f760608601612ac5565b905092959194509250565b60018060a01b0384168152826020820152606060408201526000612b806060830184612914565b60608152600061323c6060830186612914565b828103602084015261324e8186612914565b905082810360408401526126548185612bc4565b6020808252825182820181905260009190848201906040850190845b8181101561329a5783518352928401929184019160010161327e565b50909695505050505050565b6000806000606084860312156132bb57600080fd5b83356132c681612ab0565b92506020840135915060408401356001600160401b03811115612a9a57600080fd5b600080604083850312156132fb57600080fd5b823561330681612ab0565b9150602083013561331681612ab0565b809150509250929050565b6000806020838503121561333457600080fd5b82356001600160401b0381111561334a57600080fd5b61335685828601612dbf565b90969095509350505050565b60208152600082516060602084015261337e6080840182612914565b90506020840151601f198085840301604086015261339c8383612914565b9250604086015191508085840301606086015250612b808282612bc4565b600181811c908216806133ce57607f821691505b602082108114156133ef57634e487b7160e01b600052602260045260246000fd5b50919050565b838152826020820152606060408201526000612b806060830184612914565b600082516134268184602087016128e8565b9190910192915050565b6020808252810182905260006001600160fb1b0383111561345057600080fd5b8260051b80856040850137600092016040019182525092915050565b6000821982111561348d57634e487b7160e01b600052601160045260246000fd5b500190565b81835281816020850137506000828201602090810191909152601f909101601f19169091010190565b6080815260006134cf608083018a8c613492565b82810360208401526134e281898b613492565b905082810360408401526134f7818789613492565b9050828103606084015261350c818587613492565b9b9a5050505050505050505050565b60808152600061352e6080830187612914565b82810360208401526135408187612914565b905082810360408401526135548186612bc4565b91505060018060a01b038316606083015295945050505050565b602081526000613582602083018486613492565b949350505050565b600082601f83011261359b57600080fd5b81516135a9612a2a826129e4565b8181528460208386010111156135be57600080fd5b6135828260208301602087016128e8565b6000602082840312156135e157600080fd5b81516001600160401b038111156135f757600080fd5b6135828482850161358a565b8051612ad081612ab0565b60006080828403121561362057600080fd5b613628612969565b905081516001600160401b038082111561364157600080fd5b61364d8583860161358a565b8352602084015191508082111561366357600080fd5b61366f8583860161358a565b6020840152604084015191508082111561368857600080fd5b6136948583860161358a565b604084015260608401519150808211156136ad57600080fd5b50612fca8482850161358a565b600082601f8301126136cb57600080fd5b815160206136db612a2a83612fd6565b82815260059290921b840181019181810190868411156136fa57600080fd5b8286015b8481101561305457805183529183019183016136fe565b60006020828403121561372757600080fd5b81516001600160401b038082111561373e57600080fd5b90830190610160828603121561375357600080fd5b61375b612991565b8251815260208301516020820152604083015160408201526060830151606082015261378960808401613603565b608082015260a0830151828111156137a057600080fd5b6137ac8782860161358a565b60a08301525060c0830151828111156137c457600080fd5b6137d08782860161358a565b60c08301525060e0830151828111156137e857600080fd5b6137f48782860161358a565b60e083015250610100808401518381111561380e57600080fd5b61381a8882870161360e565b828401525050610120808401518381111561383457600080fd5b613840888287016136ba565b9183019190915250610140928301519281019290925250939250505056fe416464726573733a206c6f772d6c6576656c2064656c65676174652063616c6c206661696c6564a2646970667358221220d052156a7b7959fdd1c671f183f333115c2531312df0119629a1c80d3e0d4bbe64736f6c634300080a0033b53127684a568b3173ae13b9f8a6016e243e63b6e8ee1178d6a717850b5d6103360894a13ba1a3210667c828492db98dca3e2076cc3735a920a3ca505d382bbcb53127684a568b3173ae13b9f8a6016e243e63b6e8ee1178d6a717850b5d6104416464726573733a206c6f772d6c6576656c2064656c65676174652063616c6c206661696c6564",
  "immutableReferences": {},
  "source": "pragma solidity >= 0.8.0;\npragma experimental ABIEncoderV2;\nimport  \"./IOUtoken.sol\";\nimport \"@openzeppelin/contracts/proxy/transparent/TransparentUpgradeableProxy.sol\";\n\ncontract ProxyIOU  is IOUData,TransparentUpgradeableProxy  {  \n    \n    constructor(\n        address _logic,\n        address admin_\n    ) payable TransparentUpgradeableProxy(_logic, admin_, \"\") {\n        assert(_ADMIN_SLOT == bytes32(uint256(keccak256(\"eip1967.proxy.admin\")) - 1));\n        _changeAdmin(admin_);\n        implementation = _logic;\n    }\n    \n     modifier onlyOwner() {\n    //    require (owner == msg.sender, string(abi.encode(\"Only owner can do this (proxy)\", owner, msg.sender)));\n        _;\n    }\n\n\n    modifier nonInited () {\n        require(!inited, \"Already inited (proxy)\");\n        _;\n        inited = true;\n\n    }\n\n    modifier nonConfiged () {\n        require(!configured, \"Already configured (proxy)\");\n        _;\n        configured = true;\n\n    }\n\n    modifier onlyHolder (uint256 _amount) {\n   //     require (balanceOf(msg.sender) > _amount, \"No amount token holder has (proxy)\" );\n    _;\n    }\n   \n     function setIOU (//    constructor (\n                string memory name_, \n                string memory symbol_, \n                iIOUtoken.DescriptionIOU memory _thisIOU,\n                 address _store) nonConfiged external {\n        (bool success, bytes memory returnedData) = implementation.delegatecall(abi.encodeWithSignature(\n            ((\"setIOU(string,string,iIOUtoken.DescriptionIOU,address)\")),\n            name_,\n            symbol_,\n            _thisIOU,\n            _store\n            ));\n\n    require(success, string (returnedData));\n    } \n \n    function initialize() nonInited external {\n        (bool success, bytes memory returnedData) = implementation.delegatecall(abi.encodeWithSignature(\n        ((\"initialize()\"))\n    ));\n        require(success, string (returnedData));\n\n    }\n\n    function setStore (address _newOwner) public  ifAdmin {\n        //store = iStoreIOUs(_newOwner);\n        (bool success, bytes memory returnedData) = implementation.delegatecall(abi.encodeWithSignature(\n        ((\"setStore(address)\")), _newOwner));\n        require(success, string (returnedData));\n\n    }   \n\n    function setOwner (address _newOwner) public  onlyOwner {\n\n        (bool success, bytes memory returnedData) = implementation.delegatecall(abi.encodeWithSignature(\n        ((\"setOwner(address)\")), _newOwner));\n        require(success, string (returnedData));\n    }\n\n    function mint (address _who, uint256 _amount, string memory _descr) public onlyOwner { \n\n        (bool success, bytes memory returnedData) = implementation.delegatecall(abi.encodeWithSignature(\n        ((\"mint(address,uint256,string)\")), \n        _who, _amount,  _descr));\n        require(success, string (returnedData));\n    }\n    function burn (uint256 _amount, int256 _rating, string memory _feedback) onlyHolder  (_amount) public {\n        \n        (bool success, bytes memory returnedData) = implementation.delegatecall(abi.encodeWithSignature(\n        ((\"burn(uint256,uint256,string)\")), \n         _amount, _rating, _feedback));\n        require(success, string (returnedData));\n        }\n\n    function transfer(address _recipient, uint256 _amount) onlyHolder(_amount) public override returns (bool) {   \n                (bool success, bytes memory returnedData) = implementation.delegatecall(abi.encodeWithSignature(\n        ((\"transfer(address,uint256)\")), \n         _recipient, _amount));\n        require(success, string (returnedData));\n        }\n\n\n    function editDescr (string calldata _descr)  public onlyOwner {\n       (bool success, bytes memory returnedData) = implementation.delegatecall(abi.encodeWithSignature(\n        ((\"editDescr(string)\")), \n         _descr));\n        require(success, string (returnedData));\n    }\n\n    function editPhone (bytes32 _phone)  public onlyOwner {\n        (bool success, bytes memory returnedData) = implementation.delegatecall(abi.encodeWithSignature(\n        ((\"editPhone(bytes32)\")), \n         _phone));\n        require(success, string (returnedData));    \n        }\n\n    function editGeo (string calldata _country,\n                    string calldata _state,\n                    string calldata _city,\n                    string calldata _street)  public onlyOwner {\n        (bool success, bytes memory returnedData) = implementation.delegatecall(abi.encodeWithSignature(\n        ((\"editGeo(string,string,string,string)\")), \n         _country, _state,_city,_street));\n        require(success, string (returnedData));    \n    }\n    function addKeys (bytes32[] calldata _keys)  public onlyOwner { \n        (bool success, bytes memory returnedData) = implementation.delegatecall(abi.encodeWithSignature(\n        ((\"addKeys(bytes32[])\")), \n         _keys));\n        require(success, string (returnedData)); \n    }\n    function delKeys (bytes32[] calldata _keys)  public onlyOwner {\n           (bool success, bytes memory returnedData) = implementation.delegatecall(abi.encodeWithSignature(\n        ((\"delKeys(bytes32[])\")), \n         _keys));\n        require(success, string (returnedData)); \n    }\n\n    function getIOU (address _iou) public view returns ( iIOUtoken.IOUdescr memory) {\n        iIOUtoken iouT = iIOUtoken(_iou);\n        iIOUtoken.IOUdescr memory iouD = iIOUtoken.IOUdescr (iouT.IOUname(), iouT.IOUsymbol(), iouT.thisIOUDesc()  );\n        return iouD;\n}\n\n    function thisIOUkeywords() public view returns (bytes32[] memory)\n    {\n        return thisIOU.keywords;\n    }\n\n    function getlen ()  public view returns (uint256, uint256) {\n        return (allIOUs.length, allFeedbacks.length);\n    } \n\n    function thisIOUDesc () public view  returns (iIOUtoken.DescriptionIOU memory)\n    {    return thisIOU;\n    }\n    function IOUname () public view  returns (string memory)\n    {    return name();\n    }\n    function IOUsymbol () public view  returns (string memory)\n    {    return symbol ();\n    }\n\n\n    function getTokenInfo() public view returns(string memory,\n                                           string memory,\n                                           iIOUtoken.DescriptionIOU memory ) {\n        return(name(), symbol(), thisIOU);\n\n    }\n\n}",
  "sourcePath": "/mnt/512-2/dfd/iou2/contracts/ProxyIOU.sol",
  "compiler": {
    "name": "solc",
    "version": "0.8.10+commit.fc410830.Emscripten.clang"
  },
  "schemaVersion": "3.4.4",
  "updatedAt": "2022-02-15T19:20:37.013Z",
  "networkType": "ethereum",
  "devdoc": {
    "kind": "dev",
    "methods": {
      "admin()": {
        "details": "Returns the current admin. NOTE: Only the admin can call this function. See {ProxyAdmin-getProxyAdmin}. TIP: To get this value clients can read directly from the storage slot shown below (specified by EIP1967) using the https://eth.wiki/json-rpc/API#eth_getstorageat[`eth_getStorageAt`] RPC call. `0xb53127684a568b3173ae13b9f8a6016e243e63b6e8ee1178d6a717850b5d6103`"
      },
      "allowance(address,address)": {
        "details": "See {IERC20-allowance}."
      },
      "approve(address,uint256)": {
        "details": "See {IERC20-approve}. Requirements: - `spender` cannot be the zero address."
      },
      "balanceOf(address)": {
        "details": "See {IERC20-balanceOf}."
      },
      "changeAdmin(address)": {
        "details": "Changes the admin of the proxy. Emits an {AdminChanged} event. NOTE: Only the admin can call this function. See {ProxyAdmin-changeProxyAdmin}."
      },
      "decimals()": {
        "details": "Returns the number of decimals used to get its user representation. For example, if `decimals` equals `2`, a balance of `505` tokens should be displayed to a user as `5.05` (`505 / 10 ** 2`). Tokens usually opt for a value of 18, imitating the relationship between Ether and Wei. This is the value {ERC20} uses, unless this function is overridden; NOTE: This information is only used for _display_ purposes: it in no way affects any of the arithmetic of the contract, including {IERC20-balanceOf} and {IERC20-transfer}."
      },
      "decreaseAllowance(address,uint256)": {
        "details": "Atomically decreases the allowance granted to `spender` by the caller. This is an alternative to {approve} that can be used as a mitigation for problems described in {IERC20-approve}. Emits an {Approval} event indicating the updated allowance. Requirements: - `spender` cannot be the zero address. - `spender` must have allowance for the caller of at least `subtractedValue`."
      },
      "implementation()": {
        "details": "Returns the current implementation. NOTE: Only the admin can call this function. See {ProxyAdmin-getProxyImplementation}. TIP: To get this value clients can read directly from the storage slot shown below (specified by EIP1967) using the https://eth.wiki/json-rpc/API#eth_getstorageat[`eth_getStorageAt`] RPC call. `0x360894a13ba1a3210667c828492db98dca3e2076cc3735a920a3ca505d382bbc`"
      },
      "increaseAllowance(address,uint256)": {
        "details": "Atomically increases the allowance granted to `spender` by the caller. This is an alternative to {approve} that can be used as a mitigation for problems described in {IERC20-approve}. Emits an {Approval} event indicating the updated allowance. Requirements: - `spender` cannot be the zero address."
      },
      "name()": {
        "details": "Returns the name of the token."
      },
      "symbol()": {
        "details": "Returns the symbol of the token, usually a shorter version of the name."
      },
      "totalSupply()": {
        "details": "See {IERC20-totalSupply}."
      },
      "transferFrom(address,address,uint256)": {
        "details": "See {IERC20-transferFrom}. Emits an {Approval} event indicating the updated allowance. This is not required by the EIP. See the note at the beginning of {ERC20}. Requirements: - `sender` and `recipient` cannot be the zero address. - `sender` must have a balance of at least `amount`. - the caller must have allowance for ``sender``'s tokens of at least `amount`."
      },
      "upgradeTo(address)": {
        "details": "Upgrade the implementation of the proxy. NOTE: Only the admin can call this function. See {ProxyAdmin-upgrade}."
      },
      "upgradeToAndCall(address,bytes)": {
        "details": "Upgrade the implementation of the proxy, and then call a function from the new implementation as specified by `data`, which should be an encoded function call. This is useful to initialize new storage variables in the proxied contract. NOTE: Only the admin can call this function. See {ProxyAdmin-upgradeAndCall}."
      }
    },
    "version": 1
  },
  "userdoc": {
    "kind": "user",
    "methods": {},
    "version": 1
  }
}