{
  "contractName": "ProxyIOU",
  "abi": [
    {
      "inputs": [
        {
          "internalType": "address",
          "name": "_iou",
          "type": "address"
        }
      ],
      "name": "getIOU",
      "outputs": [
        {
          "internalType": "string",
          "name": "",
          "type": "string"
        },
        {
          "internalType": "string",
          "name": "",
          "type": "string"
        },
        {
          "internalType": "uint256",
          "name": "",
          "type": "uint256"
        },
        {
          "internalType": "uint256",
          "name": "",
          "type": "uint256"
        },
        {
          "internalType": "int256",
          "name": "",
          "type": "int256"
        },
        {
          "internalType": "bytes32",
          "name": "",
          "type": "bytes32"
        },
        {
          "internalType": "address",
          "name": "",
          "type": "address"
        },
        {
          "internalType": "string",
          "name": "",
          "type": "string"
        },
        {
          "internalType": "string",
          "name": "",
          "type": "string"
        },
        {
          "internalType": "string",
          "name": "",
          "type": "string"
        },
        {
          "components": [
            {
              "internalType": "string",
              "name": "country",
              "type": "string"
            },
            {
              "internalType": "string",
              "name": "state",
              "type": "string"
            },
            {
              "internalType": "string",
              "name": "city",
              "type": "string"
            },
            {
              "internalType": "string",
              "name": "street",
              "type": "string"
            }
          ],
          "internalType": "struct iIOUtoken.geo",
          "name": "",
          "type": "tuple"
        },
        {
          "internalType": "bytes32[]",
          "name": "",
          "type": "bytes32[]"
        }
      ],
      "stateMutability": "view",
      "type": "function"
    }
  ],
  "bytecode": "0x608060405234801561001057600080fd5b50610bf0806100206000396000f3fe608060405234801561001057600080fd5b506004361061002b5760003560e01c8063fc9925b914610030575b600080fd5b61004a60048036038101906100459190610641565b61006b565b6040516100629c9b9a99989796959493929190610897565b60405180910390f35b60608060008060008060006060806060610083610274565b606060008d905060008173ffffffffffffffffffffffffffffffffffffffff16630a5763646040518163ffffffff1660e01b815260040160006040518083038186803b1580156100d257600080fd5b505afa1580156100e6573d6000803e3d6000fd5b505050506040513d6000823e3d601f19601f8201168201806040525081019061010f91906106ab565b90508173ffffffffffffffffffffffffffffffffffffffff16639ee095066040518163ffffffff1660e01b815260040160006040518083038186803b15801561015757600080fd5b505afa15801561016b573d6000803e3d6000fd5b505050506040513d6000823e3d601f19601f82011682018060405250810190610194919061066a565b8273ffffffffffffffffffffffffffffffffffffffff166358aee2706040518163ffffffff1660e01b815260040160006040518083038186803b1580156101da57600080fd5b505afa1580156101ee573d6000803e3d6000fd5b505050506040513d6000823e3d601f19601f82011682018060405250810190610217919061066a565b826000015183602001518460400151856060015186608001518760a001518860c001518960e001518a61010001518b61012001519d509d509d509d509d509d509d509d509d509d509d509d50505091939597999b5091939597999b565b6040518060800160405280606081526020016060815260200160608152602001606081525090565b60006102af6102aa846109a7565b610982565b905080838252602082019050828560208602820111156102ce57600080fd5b60005b858110156102fe57816102e4888261039a565b8452602084019350602083019250506001810190506102d1565b5050509392505050565b600061031b610316846109d3565b610982565b90508281526020810184848401111561033357600080fd5b61033e848285610aba565b509392505050565b60008135905061035581610b5e565b92915050565b60008151905061036a81610b5e565b92915050565b600082601f83011261038157600080fd5b815161039184826020860161029c565b91505092915050565b6000815190506103a981610b75565b92915050565b6000815190506103be81610b8c565b92915050565b600082601f8301126103d557600080fd5b81516103e5848260208601610308565b91505092915050565b6000610140828403121561040157600080fd5b61040c610140610982565b9050600061041c8482850161062c565b60008301525060206104308482850161062c565b6020830152506040610444848285016103af565b60408301525060606104588482850161039a565b606083015250608061046c8482850161035b565b60808301525060a082015167ffffffffffffffff81111561048c57600080fd5b610498848285016103c4565b60a08301525060c082015167ffffffffffffffff8111156104b857600080fd5b6104c4848285016103c4565b60c08301525060e082015167ffffffffffffffff8111156104e457600080fd5b6104f0848285016103c4565b60e08301525061010082015167ffffffffffffffff81111561051157600080fd5b61051d84828501610558565b6101008301525061012082015167ffffffffffffffff81111561053f57600080fd5b61054b84828501610370565b6101208301525092915050565b60006080828403121561056a57600080fd5b6105746080610982565b9050600082015167ffffffffffffffff81111561059057600080fd5b61059c848285016103c4565b600083015250602082015167ffffffffffffffff8111156105bc57600080fd5b6105c8848285016103c4565b602083015250604082015167ffffffffffffffff8111156105e857600080fd5b6105f4848285016103c4565b604083015250606082015167ffffffffffffffff81111561061457600080fd5b610620848285016103c4565b60608301525092915050565b60008151905061063b81610ba3565b92915050565b60006020828403121561065357600080fd5b600061066184828501610346565b91505092915050565b60006020828403121561067c57600080fd5b600082015167ffffffffffffffff81111561069657600080fd5b6106a2848285016103c4565b91505092915050565b6000602082840312156106bd57600080fd5b600082015167ffffffffffffffff8111156106d757600080fd5b6106e3848285016103ee565b91505092915050565b60006106f88383610771565b60208301905092915050565b61070d81610a6a565b82525050565b600061071e82610a14565b6107288185610a37565b935061073383610a04565b8060005b8381101561076457815161074b88826106ec565b975061075683610a2a565b925050600181019050610737565b5085935050505092915050565b61077a81610a7c565b82525050565b61078981610a7c565b82525050565b61079881610a86565b82525050565b60006107a982610a1f565b6107b38185610a48565b93506107c3818560208601610aba565b6107cc81610b4d565b840191505092915050565b60006107e282610a1f565b6107ec8185610a59565b93506107fc818560208601610aba565b61080581610b4d565b840191505092915050565b6000608083016000830151848203600086015261082d828261079e565b91505060208301518482036020860152610847828261079e565b91505060408301518482036040860152610861828261079e565b9150506060830151848203606086015261087b828261079e565b9150508091505092915050565b61089181610ab0565b82525050565b60006101808201905081810360008301526108b2818f6107d7565b905081810360208301526108c6818e6107d7565b90506108d5604083018d610888565b6108e2606083018c610888565b6108ef608083018b61078f565b6108fc60a083018a610780565b61090960c0830189610704565b81810360e083015261091b81886107d7565b905081810361010083015261093081876107d7565b905081810361012083015261094581866107d7565b905081810361014083015261095a8185610810565b905081810361016083015261096f8184610713565b90509d9c50505050505050505050505050565b600061098c61099d565b90506109988282610aed565b919050565b6000604051905090565b600067ffffffffffffffff8211156109c2576109c1610b1e565b5b602082029050602081019050919050565b600067ffffffffffffffff8211156109ee576109ed610b1e565b5b6109f782610b4d565b9050602081019050919050565b6000819050602082019050919050565b600081519050919050565b600081519050919050565b6000602082019050919050565b600082825260208201905092915050565b600082825260208201905092915050565b600082825260208201905092915050565b6000610a7582610a90565b9050919050565b6000819050919050565b6000819050919050565b600073ffffffffffffffffffffffffffffffffffffffff82169050919050565b6000819050919050565b60005b83811015610ad8578082015181840152602081019050610abd565b83811115610ae7576000848401525b50505050565b610af682610b4d565b810181811067ffffffffffffffff82111715610b1557610b14610b1e565b5b80604052505050565b7f4e487b7100000000000000000000000000000000000000000000000000000000600052604160045260246000fd5b6000601f19601f8301169050919050565b610b6781610a6a565b8114610b7257600080fd5b50565b610b7e81610a7c565b8114610b8957600080fd5b50565b610b9581610a86565b8114610ba057600080fd5b50565b610bac81610ab0565b8114610bb757600080fd5b5056fea2646970667358221220d6a00102f1e49423ec32b286e0faa6bcd3594cd844b8dce9ead12b1ba029ce6d64736f6c63430008040033",
  "immutableReferences": {},
  "source": "pragma solidity >= 0.8.0;\npragma experimental ABIEncoderV2;\nimport  \"./interfaces/iIOUtoken.sol\";\n\ncontract ProxyIOU  { \n\n\n    function getIOU (address _iou) public view returns (\n        string memory  ,\n        string  memory ,\n//        iIOUtoken.DescriptionIOU memory descr\n        uint256,// totalMinted;\n        uint256,// totalBurned;\n        int256,// avRate;\n        bytes32,// units;        \n        address,// issuer;\n        string memory,// myName ; //name of emitter\n        string memory,  //socialProfile ; //profile  of emitter in social nets\n        string memory, //description ; //description of bond IOU to  work\n        iIOUtoken.geo  memory, //location; //where is it             \n        bytes32[] memory// keywords;\n    ) {\n\n        iIOUtoken iouT = iIOUtoken(_iou);\n        iIOUtoken.DescriptionIOU memory descr = iouT.thisIOUDesc();\n     return (iouT.IOUname(),\n            iouT.IOUsymbol(),\n            \n            descr.totalMinted,\n            descr.totalBurned,\n            descr.avRate,\n            descr.units,\n            descr.issuer,\n            descr.myName , //name of emitter\n            descr.socialProfile,  //profile  of emitter in social nets\n            descr.description,//description of bond IOU to  work\n            descr.location, //where is it             \n            descr.keywords\n            );\n    }\n\n}",
  "sourcePath": "/home/st/Desktop/iou-components/contracts/ProxyIOU.sol",
  "compiler": {
    "name": "solc",
    "version": "0.8.4+commit.c7e474f2.Emscripten.clang"
  },
  "schemaVersion": "3.4.0",
  "updatedAt": "2021-07-31T08:45:42.618Z",
  "devdoc": {
    "kind": "dev",
    "methods": {},
    "version": 1
  },
  "userdoc": {
    "kind": "user",
    "methods": {},
    "version": 1
  }
}