{
  "contractName": "ProxyIOU",
  "abi": [
    {
      "anonymous": false,
      "inputs": [
        {
          "indexed": true,
          "internalType": "address",
          "name": "owner",
          "type": "address"
        },
        {
          "indexed": true,
          "internalType": "address",
          "name": "spender",
          "type": "address"
        },
        {
          "indexed": false,
          "internalType": "uint256",
          "name": "value",
          "type": "uint256"
        }
      ],
      "name": "Approval",
      "type": "event"
    },
    {
      "anonymous": false,
      "inputs": [
        {
          "indexed": true,
          "internalType": "address",
          "name": "from",
          "type": "address"
        },
        {
          "indexed": true,
          "internalType": "address",
          "name": "to",
          "type": "address"
        },
        {
          "indexed": false,
          "internalType": "uint256",
          "name": "value",
          "type": "uint256"
        }
      ],
      "name": "Transfer",
      "type": "event"
    },
    {
      "inputs": [
        {
          "internalType": "address",
          "name": "",
          "type": "address"
        },
        {
          "internalType": "uint256",
          "name": "",
          "type": "uint256"
        }
      ],
      "name": "IOUbyReceiver",
      "outputs": [
        {
          "internalType": "uint256",
          "name": "",
          "type": "uint256"
        }
      ],
      "stateMutability": "view",
      "type": "function"
    },
    {
      "inputs": [
        {
          "internalType": "uint256",
          "name": "",
          "type": "uint256"
        }
      ],
      "name": "allFeedbacks",
      "outputs": [
        {
          "internalType": "address",
          "name": "sender",
          "type": "address"
        },
        {
          "internalType": "uint256",
          "name": "time",
          "type": "uint256"
        },
        {
          "internalType": "int256",
          "name": "rating",
          "type": "int256"
        },
        {
          "internalType": "uint256",
          "name": "amount",
          "type": "uint256"
        },
        {
          "internalType": "string",
          "name": "text",
          "type": "string"
        }
      ],
      "stateMutability": "view",
      "type": "function"
    },
    {
      "inputs": [
        {
          "internalType": "uint256",
          "name": "",
          "type": "uint256"
        }
      ],
      "name": "allIOUs",
      "outputs": [
        {
          "internalType": "address",
          "name": "receiver",
          "type": "address"
        },
        {
          "internalType": "uint256",
          "name": "time",
          "type": "uint256"
        },
        {
          "internalType": "string",
          "name": "IOUDescr",
          "type": "string"
        }
      ],
      "stateMutability": "view",
      "type": "function"
    },
    {
      "inputs": [
        {
          "internalType": "uint256",
          "name": "",
          "type": "uint256"
        }
      ],
      "name": "allSureties",
      "outputs": [
        {
          "internalType": "address",
          "name": "ioutoken",
          "type": "address"
        },
        {
          "internalType": "uint256",
          "name": "amount",
          "type": "uint256"
        }
      ],
      "stateMutability": "view",
      "type": "function"
    },
    {
      "inputs": [
        {
          "internalType": "address",
          "name": "owner",
          "type": "address"
        },
        {
          "internalType": "address",
          "name": "spender",
          "type": "address"
        }
      ],
      "name": "allowance",
      "outputs": [
        {
          "internalType": "uint256",
          "name": "",
          "type": "uint256"
        }
      ],
      "stateMutability": "view",
      "type": "function"
    },
    {
      "inputs": [
        {
          "internalType": "address",
          "name": "spender",
          "type": "address"
        },
        {
          "internalType": "uint256",
          "name": "amount",
          "type": "uint256"
        }
      ],
      "name": "approve",
      "outputs": [
        {
          "internalType": "bool",
          "name": "",
          "type": "bool"
        }
      ],
      "stateMutability": "nonpayable",
      "type": "function"
    },
    {
      "inputs": [
        {
          "internalType": "address",
          "name": "account",
          "type": "address"
        }
      ],
      "name": "balanceOf",
      "outputs": [
        {
          "internalType": "uint256",
          "name": "",
          "type": "uint256"
        }
      ],
      "stateMutability": "view",
      "type": "function"
    },
    {
      "inputs": [],
      "name": "decimals",
      "outputs": [
        {
          "internalType": "uint8",
          "name": "",
          "type": "uint8"
        }
      ],
      "stateMutability": "view",
      "type": "function"
    },
    {
      "inputs": [
        {
          "internalType": "address",
          "name": "spender",
          "type": "address"
        },
        {
          "internalType": "uint256",
          "name": "subtractedValue",
          "type": "uint256"
        }
      ],
      "name": "decreaseAllowance",
      "outputs": [
        {
          "internalType": "bool",
          "name": "",
          "type": "bool"
        }
      ],
      "stateMutability": "nonpayable",
      "type": "function"
    },
    {
      "inputs": [
        {
          "internalType": "address",
          "name": "",
          "type": "address"
        },
        {
          "internalType": "uint256",
          "name": "",
          "type": "uint256"
        }
      ],
      "name": "feedBacksbySender",
      "outputs": [
        {
          "internalType": "uint256",
          "name": "",
          "type": "uint256"
        }
      ],
      "stateMutability": "view",
      "type": "function"
    },
    {
      "inputs": [
        {
          "internalType": "address",
          "name": "spender",
          "type": "address"
        },
        {
          "internalType": "uint256",
          "name": "addedValue",
          "type": "uint256"
        }
      ],
      "name": "increaseAllowance",
      "outputs": [
        {
          "internalType": "bool",
          "name": "",
          "type": "bool"
        }
      ],
      "stateMutability": "nonpayable",
      "type": "function"
    },
    {
      "inputs": [],
      "name": "totalSupply",
      "outputs": [
        {
          "internalType": "uint256",
          "name": "",
          "type": "uint256"
        }
      ],
      "stateMutability": "view",
      "type": "function"
    },
    {
      "inputs": [
        {
          "internalType": "address",
          "name": "sender",
          "type": "address"
        },
        {
          "internalType": "address",
          "name": "recipient",
          "type": "address"
        },
        {
          "internalType": "uint256",
          "name": "amount",
          "type": "uint256"
        }
      ],
      "name": "transferFrom",
      "outputs": [
        {
          "internalType": "bool",
          "name": "",
          "type": "bool"
        }
      ],
      "stateMutability": "nonpayable",
      "type": "function"
    },
    {
      "inputs": [
        {
          "internalType": "string",
          "name": "name_",
          "type": "string"
        },
        {
          "internalType": "string",
          "name": "symbol_",
          "type": "string"
        },
        {
          "components": [
            {
              "internalType": "uint256",
              "name": "totalMinted",
              "type": "uint256"
            },
            {
              "internalType": "uint256",
              "name": "totalBurned",
              "type": "uint256"
            },
            {
              "internalType": "int256",
              "name": "avRate",
              "type": "int256"
            },
            {
              "internalType": "bytes32",
              "name": "units",
              "type": "bytes32"
            },
            {
              "internalType": "address",
              "name": "issuer",
              "type": "address"
            },
            {
              "internalType": "string",
              "name": "myName",
              "type": "string"
            },
            {
              "internalType": "string",
              "name": "socialProfile",
              "type": "string"
            },
            {
              "internalType": "string",
              "name": "description",
              "type": "string"
            },
            {
              "components": [
                {
                  "internalType": "string",
                  "name": "country",
                  "type": "string"
                },
                {
                  "internalType": "string",
                  "name": "state",
                  "type": "string"
                },
                {
                  "internalType": "string",
                  "name": "city",
                  "type": "string"
                },
                {
                  "internalType": "string",
                  "name": "street",
                  "type": "string"
                }
              ],
              "internalType": "struct iIOUtoken.geo",
              "name": "location",
              "type": "tuple"
            },
            {
              "internalType": "bytes32[]",
              "name": "keywords",
              "type": "bytes32[]"
            },
            {
              "internalType": "bytes32",
              "name": "phone",
              "type": "bytes32"
            }
          ],
          "internalType": "struct iIOUtoken.DescriptionIOU",
          "name": "_thisIOU",
          "type": "tuple"
        },
        {
          "internalType": "address",
          "name": "_store",
          "type": "address"
        }
      ],
      "name": "setIOU",
      "outputs": [],
      "stateMutability": "nonpayable",
      "type": "function"
    },
    {
      "inputs": [
        {
          "internalType": "address",
          "name": "_newOwner",
          "type": "address"
        }
      ],
      "name": "setStore",
      "outputs": [],
      "stateMutability": "nonpayable",
      "type": "function"
    },
    {
      "inputs": [
        {
          "internalType": "address",
          "name": "_newOwner",
          "type": "address"
        }
      ],
      "name": "setOwner",
      "outputs": [],
      "stateMutability": "nonpayable",
      "type": "function"
    },
    {
      "inputs": [
        {
          "internalType": "address",
          "name": "_who",
          "type": "address"
        },
        {
          "internalType": "uint256",
          "name": "_amount",
          "type": "uint256"
        },
        {
          "internalType": "string",
          "name": "_descr",
          "type": "string"
        }
      ],
      "name": "mint",
      "outputs": [],
      "stateMutability": "nonpayable",
      "type": "function"
    },
    {
      "inputs": [
        {
          "internalType": "uint256",
          "name": "_amount",
          "type": "uint256"
        },
        {
          "internalType": "int256",
          "name": "_rating",
          "type": "int256"
        },
        {
          "internalType": "string",
          "name": "_feedback",
          "type": "string"
        }
      ],
      "name": "burn",
      "outputs": [],
      "stateMutability": "nonpayable",
      "type": "function"
    },
    {
      "inputs": [
        {
          "internalType": "address",
          "name": "_recipient",
          "type": "address"
        },
        {
          "internalType": "uint256",
          "name": "_amount",
          "type": "uint256"
        }
      ],
      "name": "transfer",
      "outputs": [
        {
          "internalType": "bool",
          "name": "",
          "type": "bool"
        }
      ],
      "stateMutability": "nonpayable",
      "type": "function"
    },
    {
      "inputs": [
        {
          "internalType": "string",
          "name": "_descr",
          "type": "string"
        }
      ],
      "name": "editDescr",
      "outputs": [],
      "stateMutability": "nonpayable",
      "type": "function"
    },
    {
      "inputs": [
        {
          "internalType": "bytes32",
          "name": "_phone",
          "type": "bytes32"
        }
      ],
      "name": "editPhone",
      "outputs": [],
      "stateMutability": "nonpayable",
      "type": "function"
    },
    {
      "inputs": [
        {
          "internalType": "string",
          "name": "_country",
          "type": "string"
        },
        {
          "internalType": "string",
          "name": "_state",
          "type": "string"
        },
        {
          "internalType": "string",
          "name": "_city",
          "type": "string"
        },
        {
          "internalType": "string",
          "name": "_street",
          "type": "string"
        }
      ],
      "name": "editGeo",
      "outputs": [],
      "stateMutability": "nonpayable",
      "type": "function"
    },
    {
      "inputs": [
        {
          "internalType": "bytes32[]",
          "name": "_keys",
          "type": "bytes32[]"
        }
      ],
      "name": "addKeys",
      "outputs": [],
      "stateMutability": "nonpayable",
      "type": "function"
    },
    {
      "inputs": [
        {
          "internalType": "bytes32[]",
          "name": "_keys",
          "type": "bytes32[]"
        }
      ],
      "name": "delKeys",
      "outputs": [],
      "stateMutability": "nonpayable",
      "type": "function"
    },
    {
      "inputs": [
        {
          "internalType": "address",
          "name": "_iou",
          "type": "address"
        }
      ],
      "name": "getIOU",
      "outputs": [
        {
          "components": [
            {
              "internalType": "string",
              "name": "name",
              "type": "string"
            },
            {
              "internalType": "string",
              "name": "symbol",
              "type": "string"
            },
            {
              "components": [
                {
                  "internalType": "uint256",
                  "name": "totalMinted",
                  "type": "uint256"
                },
                {
                  "internalType": "uint256",
                  "name": "totalBurned",
                  "type": "uint256"
                },
                {
                  "internalType": "int256",
                  "name": "avRate",
                  "type": "int256"
                },
                {
                  "internalType": "bytes32",
                  "name": "units",
                  "type": "bytes32"
                },
                {
                  "internalType": "address",
                  "name": "issuer",
                  "type": "address"
                },
                {
                  "internalType": "string",
                  "name": "myName",
                  "type": "string"
                },
                {
                  "internalType": "string",
                  "name": "socialProfile",
                  "type": "string"
                },
                {
                  "internalType": "string",
                  "name": "description",
                  "type": "string"
                },
                {
                  "components": [
                    {
                      "internalType": "string",
                      "name": "country",
                      "type": "string"
                    },
                    {
                      "internalType": "string",
                      "name": "state",
                      "type": "string"
                    },
                    {
                      "internalType": "string",
                      "name": "city",
                      "type": "string"
                    },
                    {
                      "internalType": "string",
                      "name": "street",
                      "type": "string"
                    }
                  ],
                  "internalType": "struct iIOUtoken.geo",
                  "name": "location",
                  "type": "tuple"
                },
                {
                  "internalType": "bytes32[]",
                  "name": "keywords",
                  "type": "bytes32[]"
                },
                {
                  "internalType": "bytes32",
                  "name": "phone",
                  "type": "bytes32"
                }
              ],
              "internalType": "struct iIOUtoken.DescriptionIOU",
              "name": "description",
              "type": "tuple"
            }
          ],
          "internalType": "struct iIOUtoken.IOUdescr",
          "name": "",
          "type": "tuple"
        }
      ],
      "stateMutability": "view",
      "type": "function"
    },
    {
      "inputs": [],
      "name": "thisIOUkeywords",
      "outputs": [
        {
          "internalType": "bytes32[]",
          "name": "",
          "type": "bytes32[]"
        }
      ],
      "stateMutability": "view",
      "type": "function"
    },
    {
      "inputs": [],
      "name": "getlen",
      "outputs": [
        {
          "internalType": "uint256",
          "name": "",
          "type": "uint256"
        },
        {
          "internalType": "uint256",
          "name": "",
          "type": "uint256"
        }
      ],
      "stateMutability": "view",
      "type": "function"
    },
    {
      "inputs": [],
      "name": "thisIOUDesc",
      "outputs": [
        {
          "components": [
            {
              "internalType": "uint256",
              "name": "totalMinted",
              "type": "uint256"
            },
            {
              "internalType": "uint256",
              "name": "totalBurned",
              "type": "uint256"
            },
            {
              "internalType": "int256",
              "name": "avRate",
              "type": "int256"
            },
            {
              "internalType": "bytes32",
              "name": "units",
              "type": "bytes32"
            },
            {
              "internalType": "address",
              "name": "issuer",
              "type": "address"
            },
            {
              "internalType": "string",
              "name": "myName",
              "type": "string"
            },
            {
              "internalType": "string",
              "name": "socialProfile",
              "type": "string"
            },
            {
              "internalType": "string",
              "name": "description",
              "type": "string"
            },
            {
              "components": [
                {
                  "internalType": "string",
                  "name": "country",
                  "type": "string"
                },
                {
                  "internalType": "string",
                  "name": "state",
                  "type": "string"
                },
                {
                  "internalType": "string",
                  "name": "city",
                  "type": "string"
                },
                {
                  "internalType": "string",
                  "name": "street",
                  "type": "string"
                }
              ],
              "internalType": "struct iIOUtoken.geo",
              "name": "location",
              "type": "tuple"
            },
            {
              "internalType": "bytes32[]",
              "name": "keywords",
              "type": "bytes32[]"
            },
            {
              "internalType": "bytes32",
              "name": "phone",
              "type": "bytes32"
            }
          ],
          "internalType": "struct iIOUtoken.DescriptionIOU",
          "name": "",
          "type": "tuple"
        }
      ],
      "stateMutability": "view",
      "type": "function"
    },
    {
      "inputs": [],
      "name": "IOUname",
      "outputs": [
        {
          "internalType": "string",
          "name": "",
          "type": "string"
        }
      ],
      "stateMutability": "view",
      "type": "function"
    },
    {
      "inputs": [],
      "name": "IOUsymbol",
      "outputs": [
        {
          "internalType": "string",
          "name": "",
          "type": "string"
        }
      ],
      "stateMutability": "view",
      "type": "function"
    },
    {
      "inputs": [],
      "name": "getTokenInfo",
      "outputs": [
        {
          "internalType": "string",
          "name": "",
          "type": "string"
        },
        {
          "internalType": "string",
          "name": "",
          "type": "string"
        },
        {
          "components": [
            {
              "internalType": "uint256",
              "name": "totalMinted",
              "type": "uint256"
            },
            {
              "internalType": "uint256",
              "name": "totalBurned",
              "type": "uint256"
            },
            {
              "internalType": "int256",
              "name": "avRate",
              "type": "int256"
            },
            {
              "internalType": "bytes32",
              "name": "units",
              "type": "bytes32"
            },
            {
              "internalType": "address",
              "name": "issuer",
              "type": "address"
            },
            {
              "internalType": "string",
              "name": "myName",
              "type": "string"
            },
            {
              "internalType": "string",
              "name": "socialProfile",
              "type": "string"
            },
            {
              "internalType": "string",
              "name": "description",
              "type": "string"
            },
            {
              "components": [
                {
                  "internalType": "string",
                  "name": "country",
                  "type": "string"
                },
                {
                  "internalType": "string",
                  "name": "state",
                  "type": "string"
                },
                {
                  "internalType": "string",
                  "name": "city",
                  "type": "string"
                },
                {
                  "internalType": "string",
                  "name": "street",
                  "type": "string"
                }
              ],
              "internalType": "struct iIOUtoken.geo",
              "name": "location",
              "type": "tuple"
            },
            {
              "internalType": "bytes32[]",
              "name": "keywords",
              "type": "bytes32[]"
            },
            {
              "internalType": "bytes32",
              "name": "phone",
              "type": "bytes32"
            }
          ],
          "internalType": "struct iIOUtoken.DescriptionIOU",
          "name": "",
          "type": "tuple"
        }
      ],
      "stateMutability": "view",
      "type": "function"
    },
    {
      "inputs": [],
      "name": "name",
      "outputs": [
        {
          "internalType": "string",
          "name": "",
          "type": "string"
        }
      ],
      "stateMutability": "view",
      "type": "function"
    },
    {
      "inputs": [],
      "name": "symbol",
      "outputs": [
        {
          "internalType": "string",
          "name": "",
          "type": "string"
        }
      ],
      "stateMutability": "view",
      "type": "function"
    },
    {
      "inputs": [
        {
          "internalType": "address",
          "name": "_iou",
          "type": "address"
        },
        {
          "internalType": "uint256",
          "name": "_amount",
          "type": "uint256"
        }
      ],
      "name": "addSurety",
      "outputs": [],
      "stateMutability": "nonpayable",
      "type": "function"
    },
    {
      "inputs": [
        {
          "internalType": "uint256",
          "name": "_amount",
          "type": "uint256"
        },
        {
          "internalType": "int256",
          "name": "_rating",
          "type": "int256"
        },
        {
          "internalType": "string",
          "name": "_feedback",
          "type": "string"
        }
      ],
      "name": "burnSurety",
      "outputs": [],
      "stateMutability": "nonpayable",
      "type": "function"
    },
    {
      "inputs": [],
      "name": "getAllSureties",
      "outputs": [
        {
          "components": [
            {
              "internalType": "address",
              "name": "ioutoken",
              "type": "address"
            },
            {
              "internalType": "uint256",
              "name": "amount",
              "type": "uint256"
            }
          ],
          "internalType": "struct IOUData.Sureties[]",
          "name": "",
          "type": "tuple[]"
        }
      ],
      "stateMutability": "view",
      "type": "function"
    }
  ],
  "bytecode": "0x608060405234801561001057600080fd5b50613bc6806100206000396000f3fe608060405234801561001057600080fd5b506004361061021c5760003560e01c806370a0823111610125578063abb1dc44116100ad578063d25b1c6d1161007c578063d25b1c6d146104d0578063d3fc9864146104e3578063dd62ed3e146104f6578063f67ad2331461052f578063fc9925b91461054257600080fd5b8063abb1dc441461047e578063ac6137ea14610495578063b2511314146104a8578063cf23adfb146104bd57600080fd5b8063a1a613bb116100f4578063a1a613bb14610410578063a457c2d714610423578063a69bac2414610436578063a8b82e7814610458578063a9059cbb1461046b57600080fd5b806370a08231146103bc5780637fdcf01f146103e557806395d89b41146104005780639ee095061461040857600080fd5b80631bbb6e58116101a857806339509351116101775780633950935114610366578063501474361461037957806358aee2701461038e5780636a3611b9146103965780636f879724146103a957600080fd5b80631bbb6e58146102ee57806323b872dd14610312578063313ce567146103255780633923ad421461033457600080fd5b80630a576364116101ef5780630a5763641461028a57806313af40351461029f57806314fcf315146102b257806318160ddd146102d3578063188caf8a146102db57600080fd5b806306fdde0314610221578063070df2d21461023f578063087cbd4014610254578063095ea7b314610267575b600080fd5b610229610562565b6040516102369190612b3b565b60405180910390f35b61025261024d366004612c63565b6105f4565b005b610252610262366004612cda565b610768565b61027a610275366004612cf7565b6108ec565b6040519015158152602001610236565b610292610902565b6040516102369190612ea5565b6102526102ad366004612cda565b610dc5565b6102c56102c0366004612cf7565b610edf565b604051908152602001610236565b6002546102c5565b6102526102e9366004612eb8565b610f10565b6103016102fc366004612f2c565b611097565b604051610236959493929190612f45565b61027a610320366004612f83565b61116e565b60405160128152602001610236565b610347610342366004612f2c565b611218565b604080516001600160a01b039093168352602083019190915201610236565b61027a610374366004612cf7565b611250565b61038161128c565b6040516102369190612fc4565b610229611301565b6102526103a4366004612f2c565b611310565b6102526103b7366004613064565b61142b565b6102c56103ca366004612cda565b6001600160a01b031660009081526020819052604090205490565b601a5460185460408051928352602083019190915201610236565b6102296115c4565b6102296115d3565b61025261041e366004613268565b6115dd565b61027a610431366004612cf7565b6117b9565b610449610444366004612f2c565b611852565b6040516102369392919061340b565b610252610466366004612cf7565b61191b565b61027a610479366004612cf7565b6119ec565b610486611b5c565b60405161023693929190613432565b6102526104a3366004612eb8565b612038565b6104b0612153565b6040516102369190613475565b6102526104cb3660046134b9565b6121ad565b6102c56104de366004612cf7565b61231b565b6102526104f136600461350b565b612337565b6102c561050436600461354d565b6001600160a01b03918216600090815260016020908152604080832093909416825291909152205490565b61025261053d366004613586565b6124c1565b610555610550366004612cda565b6125dc565b60405161023691906135c7565b6060600880546105719061361f565b80601f016020809104026020016040519081016040528092919081815260200182805461059d9061361f565b80156105ea5780601f106105bf576101008083540402835291602001916105ea565b820191906000526020600020905b8154815290600101906020018083116105cd57829003601f168201915b5050505050905090565b336000908152602081905260409020548390811061062d5760405162461bcd60e51b81526004016106249061365a565b60405180910390fd5b600080601d60009054906101000a90046001600160a01b03166001600160a01b0316638c6a2cde6040518163ffffffff1660e01b8152600401602060405180830381865afa158015610683573d6000803e3d6000fd5b505050506040513d601f19601f820116820180604052508101906106a791906136a7565b6001600160a01b03168686866040516024016106c5939291906136c4565b60408051601f198184030181529181526020820180516001600160e01b0316630386f96960e11b179052516106fa91906136e3565b600060405180830381855af49150503d8060008114610735576040519150601f19603f3d011682016040523d82523d6000602084013e61073a565b606091505b509150915081819061075f5760405162461bcd60e51b81526004016106249190612b3b565b50505050505050565b601c54604051336001600160a01b039092168281149261078a926020016136ff565b604051602081830303815290604052906107b75760405162461bcd60e51b81526004016106249190612b3b565b50600080601d60009054906101000a90046001600160a01b03166001600160a01b0316638c6a2cde6040518163ffffffff1660e01b8152600401602060405180830381865afa15801561080e573d6000803e3d6000fd5b505050506040513d601f19601f8201168201806040525081019061083291906136a7565b6040516001600160a01b038581166024830152919091169060440160408051601f198184030181529181526020820180516001600160e01b03166221f2f560e61b1790525161088191906136e3565b600060405180830381855af49150503d80600081146108bc576040519150601f19603f3d011682016040523d82523d6000602084013e6108c1565b606091505b50915091508181906108e65760405162461bcd60e51b81526004016106249190612b3b565b50505050565b60006108f933848461273c565b50600192915050565b61090a612a2e565b6040805161016081018252600a80548252600b546020830152600c5492820192909252600d546060820152600e546001600160a01b03166080820152600f805491929160a08401919061095c9061361f565b80601f01602080910402602001604051908101604052809291908181526020018280546109889061361f565b80156109d55780601f106109aa576101008083540402835291602001916109d5565b820191906000526020600020905b8154815290600101906020018083116109b857829003601f168201915b505050505081526020016006820180546109ee9061361f565b80601f0160208091040260200160405190810160405280929190818152602001828054610a1a9061361f565b8015610a675780601f10610a3c57610100808354040283529160200191610a67565b820191906000526020600020905b815481529060010190602001808311610a4a57829003601f168201915b50505050508152602001600782018054610a809061361f565b80601f0160208091040260200160405190810160405280929190818152602001828054610aac9061361f565b8015610af95780601f10610ace57610100808354040283529160200191610af9565b820191906000526020600020905b815481529060010190602001808311610adc57829003601f168201915b5050505050815260200160088201604051806080016040529081600082018054610b229061361f565b80601f0160208091040260200160405190810160405280929190818152602001828054610b4e9061361f565b8015610b9b5780601f10610b7057610100808354040283529160200191610b9b565b820191906000526020600020905b815481529060010190602001808311610b7e57829003601f168201915b50505050508152602001600182018054610bb49061361f565b80601f0160208091040260200160405190810160405280929190818152602001828054610be09061361f565b8015610c2d5780601f10610c0257610100808354040283529160200191610c2d565b820191906000526020600020905b815481529060010190602001808311610c1057829003601f168201915b50505050508152602001600282018054610c469061361f565b80601f0160208091040260200160405190810160405280929190818152602001828054610c729061361f565b8015610cbf5780601f10610c9457610100808354040283529160200191610cbf565b820191906000526020600020905b815481529060010190602001808311610ca257829003601f168201915b50505050508152602001600382018054610cd89061361f565b80601f0160208091040260200160405190810160405280929190818152602001828054610d049061361f565b8015610d515780601f10610d2657610100808354040283529160200191610d51565b820191906000526020600020905b815481529060010190602001808311610d3457829003601f168201915b5050505050815250508152602001600c8201805480602002602001604051908101604052809291908181526020018280548015610dad57602002820191906000526020600020905b815481526020019060010190808311610d99575b50505050508152602001600d82015481525050905090565b601c54604051336001600160a01b0390921682811492610de7926020016136ff565b60405160208183030381529060405290610e145760405162461bcd60e51b81526004016106249190612b3b565b50600080601d60009054906101000a90046001600160a01b03166001600160a01b0316638c6a2cde6040518163ffffffff1660e01b8152600401602060405180830381865afa158015610e6b573d6000803e3d6000fd5b505050506040513d601f19601f82011682018060405250810190610e8f91906136a7565b6040516001600160a01b038581166024830152919091169060440160408051601f198184030181529181526020820180516001600160e01b03166313af403560e01b1790525161088191906136e3565b601b6020528160005260406000208181548110610efb57600080fd5b90600052602060002001600091509150505481565b601c54604051336001600160a01b0390921682811492610f32926020016136ff565b60405160208183030381529060405290610f5f5760405162461bcd60e51b81526004016106249190612b3b565b50600080601d60009054906101000a90046001600160a01b03166001600160a01b0316638c6a2cde6040518163ffffffff1660e01b8152600401602060405180830381865afa158015610fb6573d6000803e3d6000fd5b505050506040513d601f19601f82011682018060405250810190610fda91906136a7565b6001600160a01b03168484604051602401610ff692919061374d565b60408051601f198184030181529181526020820180516001600160e01b0316630c4657c560e11b1790525161102b91906136e3565b600060405180830381855af49150503d8060008114611066576040519150601f19603f3d011682016040523d82523d6000602084013e61106b565b606091505b50915091508181906110905760405162461bcd60e51b81526004016106249190612b3b565b5050505050565b601881815481106110a757600080fd5b6000918252602090912060059091020180546001820154600283015460038401546004850180546001600160a01b039095169650929491939092906110eb9061361f565b80601f01602080910402602001604051908101604052809291908181526020018280546111179061361f565b80156111645780601f1061113957610100808354040283529160200191611164565b820191906000526020600020905b81548152906001019060200180831161114757829003601f168201915b5050505050905085565b600061117b848484612860565b6001600160a01b0384166000908152600160209081526040808320338452909152902054828110156112005760405162461bcd60e51b815260206004820152602860248201527f45524332303a207472616e7366657220616d6f756e74206578636565647320616044820152676c6c6f77616e636560c01b6064820152608401610624565b61120d853385840361273c565b506001949350505050565b601e818154811061122857600080fd5b6000918252602090912060029091020180546001909101546001600160a01b03909116915082565b3360008181526001602090815260408083206001600160a01b038716845290915281205490916108f9918590611287908690613789565b61273c565b6060601e805480602002602001604051908101604052809291908181526020016000905b828210156112f8576000848152602090819020604080518082019091526002850290910180546001600160a01b031682526001908101548284015290835290920191016112b0565b50505050905090565b606061130b6115c4565b905090565b601c54604051336001600160a01b0390921682811492611332926020016136ff565b6040516020818303038152906040529061135f5760405162461bcd60e51b81526004016106249190612b3b565b50600080601d60009054906101000a90046001600160a01b03166001600160a01b0316638c6a2cde6040518163ffffffff1660e01b8152600401602060405180830381865afa1580156113b6573d6000803e3d6000fd5b505050506040513d601f19601f820116820180604052508101906113da91906136a7565b6001600160a01b0316836040516024016113f691815260200190565b60408051601f198184030181529181526020820180516001600160e01b0316636a3611b960e01b1790525161088191906136e3565b601c54604051336001600160a01b039092168281149261144d926020016136ff565b6040516020818303038152906040529061147a5760405162461bcd60e51b81526004016106249190612b3b565b50600080601d60009054906101000a90046001600160a01b03166001600160a01b0316638c6a2cde6040518163ffffffff1660e01b8152600401602060405180830381865afa1580156114d1573d6000803e3d6000fd5b505050506040513d601f19601f820116820180604052508101906114f591906136a7565b6001600160a01b03168a8a8a8a8a8a8a8a60405160240161151d9897969594939291906137d8565b60408051601f198184030181529181526020820180516001600160e01b0316631be1e5c960e21b1790525161155291906136e3565b600060405180830381855af49150503d806000811461158d576040519150601f19603f3d011682016040523d82523d6000602084013e611592565b606091505b50915091508181906115b75760405162461bcd60e51b81526004016106249190612b3b565b5050505050505050505050565b6060600980546105719061361f565b606061130b610562565b60008190506000816001600160a01b0316638c6a2cde6040518163ffffffff1660e01b8152600401602060405180830381865afa158015611622573d6000803e3d6000fd5b505050506040513d601f19601f8201168201806040525081019061164691906136a7565b60408051600481526024810182526020810180516001600160e01b031663204a7f0760e21b179052905191925060009182916001600160a01b0385169161168d91906136e3565b600060405180830381855af49150503d80600081146116c8576040519150601f19603f3d011682016040523d82523d6000602084013e6116cd565b606091505b50915091508181906116f25760405162461bcd60e51b81526004016106249190612b3b565b50826001600160a01b0316888888886040516024016117149493929190613838565b60408051601f198184030181529181526020820180516001600160e01b031663a1a613bb60e01b1790525161174991906136e3565b600060405180830381855af49150503d8060008114611784576040519150601f19603f3d011682016040523d82523d6000602084013e611789565b606091505b50909250905080826117ae5760405162461bcd60e51b81526004016106249190612b3b565b505050505050505050565b3360009081526001602090815260408083206001600160a01b03861684529091528120548281101561183b5760405162461bcd60e51b815260206004820152602560248201527f45524332303a2064656372656173656420616c6c6f77616e63652062656c6f77604482015264207a65726f60d81b6064820152608401610624565b611848338585840361273c565b5060019392505050565b601a818154811061186257600080fd5b60009182526020909120600390910201805460018201546002830180546001600160a01b0390931694509092916118989061361f565b80601f01602080910402602001604051908101604052809291908181526020018280546118c49061361f565b80156119115780601f106118e657610100808354040283529160200191611911565b820191906000526020600020905b8154815290600101906020018083116118f457829003601f168201915b5050505050905083565b600080601d60009054906101000a90046001600160a01b03166001600160a01b0316638c6a2cde6040518163ffffffff1660e01b8152600401602060405180830381865afa158015611971573d6000803e3d6000fd5b505050506040513d601f19601f8201168201806040525081019061199591906136a7565b6040516001600160a01b03868116602483015260448201869052919091169060640160408051601f198184030181529181526020820180516001600160e01b031663151705cf60e31b1790525161102b91906136e3565b3360009081526020819052604081205482908110611a1c5760405162461bcd60e51b81526004016106249061365a565b600080601d60009054906101000a90046001600160a01b03166001600160a01b0316638c6a2cde6040518163ffffffff1660e01b8152600401602060405180830381865afa158015611a72573d6000803e3d6000fd5b505050506040513d601f19601f82011682018060405250810190611a9691906136a7565b6040516001600160a01b03888116602483015260448201889052919091169060640160408051601f198184030181529181526020820180516001600160e01b031663a9059cbb60e01b17905251611aed91906136e3565b600060405180830381855af49150503d8060008114611b28576040519150601f19603f3d011682016040523d82523d6000602084013e611b2d565b606091505b5091509150818190611b525760405162461bcd60e51b81526004016106249190612b3b565b5050505092915050565b606080611b67612a2e565b611b6f610562565b611b776115c4565b6040805161016081018252600a80548252600b546020830152600c5492820192909252600d546060820152600e546001600160a01b03166080820152600f8054839160a0840191611bc79061361f565b80601f0160208091040260200160405190810160405280929190818152602001828054611bf39061361f565b8015611c405780601f10611c1557610100808354040283529160200191611c40565b820191906000526020600020905b815481529060010190602001808311611c2357829003601f168201915b50505050508152602001600682018054611c599061361f565b80601f0160208091040260200160405190810160405280929190818152602001828054611c859061361f565b8015611cd25780601f10611ca757610100808354040283529160200191611cd2565b820191906000526020600020905b815481529060010190602001808311611cb557829003601f168201915b50505050508152602001600782018054611ceb9061361f565b80601f0160208091040260200160405190810160405280929190818152602001828054611d179061361f565b8015611d645780601f10611d3957610100808354040283529160200191611d64565b820191906000526020600020905b815481529060010190602001808311611d4757829003601f168201915b5050505050815260200160088201604051806080016040529081600082018054611d8d9061361f565b80601f0160208091040260200160405190810160405280929190818152602001828054611db99061361f565b8015611e065780601f10611ddb57610100808354040283529160200191611e06565b820191906000526020600020905b815481529060010190602001808311611de957829003601f168201915b50505050508152602001600182018054611e1f9061361f565b80601f0160208091040260200160405190810160405280929190818152602001828054611e4b9061361f565b8015611e985780601f10611e6d57610100808354040283529160200191611e98565b820191906000526020600020905b815481529060010190602001808311611e7b57829003601f168201915b50505050508152602001600282018054611eb19061361f565b80601f0160208091040260200160405190810160405280929190818152602001828054611edd9061361f565b8015611f2a5780601f10611eff57610100808354040283529160200191611f2a565b820191906000526020600020905b815481529060010190602001808311611f0d57829003601f168201915b50505050508152602001600382018054611f439061361f565b80601f0160208091040260200160405190810160405280929190818152602001828054611f6f9061361f565b8015611fbc5780601f10611f9157610100808354040283529160200191611fbc565b820191906000526020600020905b815481529060010190602001808311611f9f57829003601f168201915b5050505050815250508152602001600c820180548060200260200160405190810160405280929190818152602001828054801561201857602002820191906000526020600020905b815481526020019060010190808311612004575b50505050508152602001600d820154815250509050925092509250909192565b601c54604051336001600160a01b039092168281149261205a926020016136ff565b604051602081830303815290604052906120875760405162461bcd60e51b81526004016106249190612b3b565b50600080601d60009054906101000a90046001600160a01b03166001600160a01b0316638c6a2cde6040518163ffffffff1660e01b8152600401602060405180830381865afa1580156120de573d6000803e3d6000fd5b505050506040513d601f19601f8201168201806040525081019061210291906136a7565b6001600160a01b0316848460405160240161211e92919061374d565b60408051601f198184030181529181526020820180516001600160e01b03166356309bf560e11b1790525161102b91906136e3565b6060600a600c018054806020026020016040519081016040528092919081815260200182805480156105ea57602002820191906000526020600020905b815481526020019060010190808311612190575050505050905090565b33600090815260208190526040902054849081106121dd5760405162461bcd60e51b81526004016106249061365a565b600080601d60009054906101000a90046001600160a01b03166001600160a01b0316638c6a2cde6040518163ffffffff1660e01b8152600401602060405180830381865afa158015612233573d6000803e3d6000fd5b505050506040513d601f19601f8201168201806040525081019061225791906136a7565b6001600160a01b031687878787604051602401612277949392919061388b565b60408051601f198184030181529181526020820180516001600160e01b031663cf23adfb60e01b179052516122ac91906136e3565b600060405180830381855af49150503d80600081146122e7576040519150601f19603f3d011682016040523d82523d6000602084013e6122ec565b606091505b50915091508181906123115760405162461bcd60e51b81526004016106249190612b3b565b5050505050505050565b60196020528160005260406000208181548110610efb57600080fd5b601c54604051336001600160a01b0390921682811492612359926020016136ff565b604051602081830303815290604052906123865760405162461bcd60e51b81526004016106249190612b3b565b50600080601d60009054906101000a90046001600160a01b03166001600160a01b0316638c6a2cde6040518163ffffffff1660e01b8152600401602060405180830381865afa1580156123dd573d6000803e3d6000fd5b505050506040513d601f19601f8201168201806040525081019061240191906136a7565b6001600160a01b031685858560405160240161241f9392919061340b565b60408051601f198184030181529181526020820180516001600160e01b03166334ff261960e21b1790525161245491906136e3565b600060405180830381855af49150503d806000811461248f576040519150601f19603f3d011682016040523d82523d6000602084013e612494565b606091505b50915091508181906124b95760405162461bcd60e51b81526004016106249190612b3b565b505050505050565b601c54604051336001600160a01b03909216828114926124e3926020016136ff565b604051602081830303815290604052906125105760405162461bcd60e51b81526004016106249190612b3b565b50600080601d60009054906101000a90046001600160a01b03166001600160a01b0316638c6a2cde6040518163ffffffff1660e01b8152600401602060405180830381865afa158015612567573d6000803e3d6000fd5b505050506040513d601f19601f8201168201806040525081019061258b91906136a7565b6001600160a01b031684846040516024016125a79291906138ab565b60408051601f198184030181529181526020820180516001600160e01b031663f67ad23360e01b1790525161102b91906136e3565b6125e4612abd565b600082905060006040518060600160405280836001600160a01b0316639ee095066040518163ffffffff1660e01b8152600401600060405180830381865afa158015612634573d6000803e3d6000fd5b505050506040513d6000823e601f3d908101601f1916820160405261265c919081019061390c565b8152602001836001600160a01b03166358aee2706040518163ffffffff1660e01b8152600401600060405180830381865afa15801561269f573d6000803e3d6000fd5b505050506040513d6000823e601f3d908101601f191682016040526126c7919081019061390c565b8152602001836001600160a01b0316630a5763646040518163ffffffff1660e01b8152600401600060405180830381865afa15801561270a573d6000803e3d6000fd5b505050506040513d6000823e601f3d908101601f191682016040526127329190810190613a47565b9052949350505050565b6001600160a01b03831661279e5760405162461bcd60e51b8152602060048201526024808201527f45524332303a20617070726f76652066726f6d20746865207a65726f206164646044820152637265737360e01b6064820152608401610624565b6001600160a01b0382166127ff5760405162461bcd60e51b815260206004820152602260248201527f45524332303a20617070726f766520746f20746865207a65726f206164647265604482015261737360f01b6064820152608401610624565b6001600160a01b0383811660008181526001602090815260408083209487168084529482529182902085905590518481527f8c5be1e5ebec7d5bd14f71427d1e84f3dd0314c0f7b2291e5b200ac8c7c3b925910160405180910390a3505050565b6001600160a01b0383166128c45760405162461bcd60e51b815260206004820152602560248201527f45524332303a207472616e736665722066726f6d20746865207a65726f206164604482015264647265737360d81b6064820152608401610624565b6001600160a01b0382166129265760405162461bcd60e51b815260206004820152602360248201527f45524332303a207472616e7366657220746f20746865207a65726f206164647260448201526265737360e81b6064820152608401610624565b6001600160a01b0383166000908152602081905260409020548181101561299e5760405162461bcd60e51b815260206004820152602660248201527f45524332303a207472616e7366657220616d6f756e7420657863656564732062604482015265616c616e636560d01b6064820152608401610624565b6001600160a01b038085166000908152602081905260408082208585039055918516815290812080548492906129d5908490613789565b92505081905550826001600160a01b0316846001600160a01b03167fddf252ad1be2c89b69c2b068fc378daa952ba7f163c4a11628f55a4df523b3ef84604051612a2191815260200190565b60405180910390a36108e6565b6040518061016001604052806000815260200160008152602001600081526020016000801916815260200160006001600160a01b03168152602001606081526020016060815260200160608152602001612aa96040518060800160405280606081526020016060815260200160608152602001606081525090565b815260606020820152600060409091015290565b60405180606001604052806060815260200160608152602001612ade612a2e565b905290565b60005b83811015612afe578181015183820152602001612ae6565b838111156108e65750506000910152565b60008151808452612b27816020860160208601612ae3565b601f01601f19169290920160200192915050565b602081526000612b4e6020830184612b0f565b9392505050565b634e487b7160e01b600052604160045260246000fd5b604051608081016001600160401b0381118282101715612b8d57612b8d612b55565b60405290565b60405161016081016001600160401b0381118282101715612b8d57612b8d612b55565b604051601f8201601f191681016001600160401b0381118282101715612bde57612bde612b55565b604052919050565b60006001600160401b03821115612bff57612bff612b55565b50601f01601f191660200190565b600082601f830112612c1e57600080fd5b8135612c31612c2c82612be6565b612bb6565b818152846020838601011115612c4657600080fd5b816020850160208301376000918101602001919091529392505050565b600080600060608486031215612c7857600080fd5b833592506020840135915060408401356001600160401b03811115612c9c57600080fd5b612ca886828701612c0d565b9150509250925092565b6001600160a01b0381168114612cc757600080fd5b50565b8035612cd581612cb2565b919050565b600060208284031215612cec57600080fd5b8135612b4e81612cb2565b60008060408385031215612d0a57600080fd5b8235612d1581612cb2565b946020939093013593505050565b6000815160808452612d386080850182612b0f565b905060208301518482036020860152612d518282612b0f565b91505060408301518482036040860152612d6b8282612b0f565b91505060608301518482036060860152612d858282612b0f565b95945050505050565b600081518084526020808501945080840160005b83811015612dbe57815187529582019590820190600101612da2565b509495945050505050565b6000610160825184526020830151602085015260408301516040850152606083015160608501526080830151612e0a60808601826001600160a01b03169052565b5060a08301518160a0860152612e2282860182612b0f565b91505060c083015184820360c0860152612e3c8282612b0f565b91505060e083015184820360e0860152612e568282612b0f565b9150506101008084015185830382870152612e718382612d23565b925050506101208084015185830382870152612e8d8382612d8e565b61014095860151969095019590955250919392505050565b602081526000612b4e6020830184612dc9565b60008060208385031215612ecb57600080fd5b82356001600160401b0380821115612ee257600080fd5b818501915085601f830112612ef657600080fd5b813581811115612f0557600080fd5b8660208260051b8501011115612f1a57600080fd5b60209290920196919550909350505050565b600060208284031215612f3e57600080fd5b5035919050565b60018060a01b038616815284602082015283604082015282606082015260a060808201526000612f7860a0830184612b0f565b979650505050505050565b600080600060608486031215612f9857600080fd5b8335612fa381612cb2565b92506020840135612fb381612cb2565b929592945050506040919091013590565b602080825282518282018190526000919060409081850190868401855b8281101561300f57815180516001600160a01b03168552860151868501529284019290850190600101612fe1565b5091979650505050505050565b60008083601f84011261302e57600080fd5b5081356001600160401b0381111561304557600080fd5b60208301915083602082850101111561305d57600080fd5b9250929050565b6000806000806000806000806080898b03121561308057600080fd5b88356001600160401b038082111561309757600080fd5b6130a38c838d0161301c565b909a50985060208b01359150808211156130bc57600080fd5b6130c88c838d0161301c565b909850965060408b01359150808211156130e157600080fd5b6130ed8c838d0161301c565b909650945060608b013591508082111561310657600080fd5b506131138b828c0161301c565b999c989b5096995094979396929594505050565b60006080828403121561313957600080fd5b613141612b6b565b905081356001600160401b038082111561315a57600080fd5b61316685838601612c0d565b8352602084013591508082111561317c57600080fd5b61318885838601612c0d565b602084015260408401359150808211156131a157600080fd5b6131ad85838601612c0d565b604084015260608401359150808211156131c657600080fd5b506131d384828501612c0d565b60608301525092915050565b60006001600160401b038211156131f8576131f8612b55565b5060051b60200190565b600082601f83011261321357600080fd5b81356020613223612c2c836131df565b82815260059290921b8401810191818101908684111561324257600080fd5b8286015b8481101561325d5780358352918301918301613246565b509695505050505050565b6000806000806080858703121561327e57600080fd5b84356001600160401b038082111561329557600080fd5b6132a188838901612c0d565b955060208701359150808211156132b757600080fd5b6132c388838901612c0d565b945060408701359150808211156132d957600080fd5b9086019061016082890312156132ee57600080fd5b6132f6612b93565b8235815260208301356020820152604083013560408201526060830135606082015261332460808401612cca565b608082015260a08301358281111561333b57600080fd5b6133478a828601612c0d565b60a08301525060c08301358281111561335f57600080fd5b61336b8a828601612c0d565b60c08301525060e08301358281111561338357600080fd5b61338f8a828601612c0d565b60e08301525061010080840135838111156133a957600080fd5b6133b58b828701613127565b82840152505061012080840135838111156133cf57600080fd5b6133db8b828701613202565b8284015250506101409150818301358282015280945050505061340060608601612cca565b905092959194509250565b60018060a01b0384168152826020820152606060408201526000612d856060830184612b0f565b6060815260006134456060830186612b0f565b82810360208401526134578186612b0f565b9050828103604084015261346b8185612dc9565b9695505050505050565b6020808252825182820181905260009190848201906040850190845b818110156134ad57835183529284019291840191600101613491565b50909695505050505050565b600080600080606085870312156134cf57600080fd5b843593506020850135925060408501356001600160401b038111156134f357600080fd5b6134ff8782880161301c565b95989497509550505050565b60008060006060848603121561352057600080fd5b833561352b81612cb2565b92506020840135915060408401356001600160401b03811115612c9c57600080fd5b6000806040838503121561356057600080fd5b823561356b81612cb2565b9150602083013561357b81612cb2565b809150509250929050565b6000806020838503121561359957600080fd5b82356001600160401b038111156135af57600080fd5b6135bb8582860161301c565b90969095509350505050565b6020815260008251606060208401526135e36080840182612b0f565b90506020840151601f19808584030160408601526136018383612b0f565b9250604086015191508085840301606086015250612d858282612dc9565b600181811c9082168061363357607f821691505b6020821081141561365457634e487b7160e01b600052602260045260246000fd5b50919050565b60208082526022908201527f4e6f20616d6f756e7420746f6b656e20686f6c64657220686173202870726f78604082015261792960f01b606082015260800190565b8051612cd581612cb2565b6000602082840312156136b957600080fd5b8151612b4e81612cb2565b838152826020820152606060408201526000612d856060830184612b0f565b600082516136f5818460208701612ae3565b9190910192915050565b6060808252601e908201527f4f6e6c79206f776e65722063616e20646f2074686973202870726f787929000060808201526001600160a01b0392831660208201529116604082015260a00190565b6020808252810182905260006001600160fb1b0383111561376d57600080fd5b8260051b80856040850137600092016040019182525092915050565b600082198211156137aa57634e487b7160e01b600052601160045260246000fd5b500190565b81835281816020850137506000828201602090810191909152601f909101601f19169091010190565b6080815260006137ec608083018a8c6137af565b82810360208401526137ff81898b6137af565b905082810360408401526138148187896137af565b905082810360608401526138298185876137af565b9b9a5050505050505050505050565b60808152600061384b6080830187612b0f565b828103602084015261385d8187612b0f565b905082810360408401526138718186612dc9565b91505060018060a01b038316606083015295945050505050565b84815283602082015260606040820152600061346b6060830184866137af565b6020815260006138bf6020830184866137af565b949350505050565b600082601f8301126138d857600080fd5b81516138e6612c2c82612be6565b8181528460208386010111156138fb57600080fd5b6138bf826020830160208701612ae3565b60006020828403121561391e57600080fd5b81516001600160401b0381111561393457600080fd5b6138bf848285016138c7565b60006080828403121561395257600080fd5b61395a612b6b565b905081516001600160401b038082111561397357600080fd5b61397f858386016138c7565b8352602084015191508082111561399557600080fd5b6139a1858386016138c7565b602084015260408401519150808211156139ba57600080fd5b6139c6858386016138c7565b604084015260608401519150808211156139df57600080fd5b506131d3848285016138c7565b600082601f8301126139fd57600080fd5b81516020613a0d612c2c836131df565b82815260059290921b84018101918181019086841115613a2c57600080fd5b8286015b8481101561325d5780518352918301918301613a30565b600060208284031215613a5957600080fd5b81516001600160401b0380821115613a7057600080fd5b908301906101608286031215613a8557600080fd5b613a8d612b93565b82518152602083015160208201526040830151604082015260608301516060820152613abb6080840161369c565b608082015260a083015182811115613ad257600080fd5b613ade878286016138c7565b60a08301525060c083015182811115613af657600080fd5b613b02878286016138c7565b60c08301525060e083015182811115613b1a57600080fd5b613b26878286016138c7565b60e0830152506101008084015183811115613b4057600080fd5b613b4c88828701613940565b8284015250506101208084015183811115613b6657600080fd5b613b72888287016139ec565b9183019190915250610140928301519281019290925250939250505056fea2646970667358221220d01913605f1198dff4d8ecc42a2927ef9920a98d061ba5eabd563988234798cd64736f6c634300080a0033",
  "immutableReferences": {},
  "source": "pragma solidity >= 0.8.0;\npragma experimental ABIEncoderV2;\nimport  \"./IOUtoken.sol\";\nimport  \"./interfaces/iStoreIOUs.sol\";\n\n//import \"@openzeppelin/contracts/proxy/transparent/TransparentUpgradeableProxy.sol\";\n\ncontract ProxyIOU   is IOUData /*,TransparentUpgradeableProxy */  {  \n   // address implementation;\n/*     constructor(\n        address _logic,\n        address admin_\n    ) payable TransparentUpgradeableProxy(_logic, admin_, \"\") {\n        assert(_ADMIN_SLOT == bytes32(uint256(keccak256(\"eip1967.proxy.admin\")) - 1));\n        _changeAdmin(admin_);\n    } */\n    \n     modifier onlyOwner() {\n        require (owner == msg.sender, string(abi.encode(\"Only owner can do this (proxy)\", owner, msg.sender)));\n        _;\n    }\n\n\n    modifier nonInited () {\n        require(!inited, \"Already inited (proxy)\");\n        _;\n        inited = true;\n\n    }\n\n    modifier nonConfiged () {\n        require(!configured, \"Already configured (proxy)\");\n        _;\n        configured = true;\n\n    }\n\n    modifier onlyHolder (uint256 _amount) {\n        require (balanceOf(msg.sender) > _amount, \"No amount token holder has (proxy)\" );\n    _;\n    }\n\n     function setIOU (//    constructor (\n                string memory name_, \n                string memory symbol_, \n                iIOUtoken.DescriptionIOU memory _thisIOU,\n                 address _store                 ) /* nonConfiged */ external {\n     //   implementation = _implementation;\n//        initialize();\n        iStoreIOUs store1 = iStoreIOUs(_store);\n        address impl = store1.implIOU();\n        (bool success, bytes memory returnedData) = impl.delegatecall(abi.encodeWithSignature(\n        ((\"initialize()\")) \n    ));\n        require(success, string (returnedData));\n        /*  info for encodeWithSignature for function setIOU\n         (//  as a  constructor (\n        \n                string memory name_, \n                string memory symbol_, \n                DescriptionIOU memory _thisIOU,\n                 address _store, \n                address _implementation\n            )  external;\n\n    struct geo {\n        string country;\n        string state;\n        string city;\n        string street;\n    }\n\n    struct DescriptionIOU {\n        uint256 totalMinted;\n        uint256 totalBurned;\n        int256 avRate;\n        bytes32 units;        \n        address issuer;\n        string myName ; //name of emitter\n        string socialProfile ; //profile  of emitter in social nets\n        string description ; //description of bond IOU to  work\n        geo location; //where is it             \n        bytes32[] keywords;\n        bytes32 phone;\n    }\n */\n        ( success,  returnedData) = impl.delegatecall(abi.encodeWithSignature( //\"0x90c29670\"\n            \"setIOU(string,string,(uint256,uint256,int256,bytes32,address,string,string,string,(string,string,string,string),bytes32[],bytes32),address)\",\n            name_,\n            symbol_,\n            _thisIOU,\n            _store\n            ));\n\n    require(success, string (returnedData));\n    } \n \n/*     function initialize() nonInited public {\n        (bool success, bytes memory returnedData) = store.implIOU().delegatecall(abi.encodeWithSignature(\n        ((\"initialize()\"))\n    ));\n        require(success, string (returnedData));\n\n    } */\n\n    function setStore (address _newOwner) public  onlyOwner {\n        //store = iStoreIOUs(_newOwner);\n        (bool success, bytes memory returnedData) = store.implIOU().delegatecall(abi.encodeWithSignature(\n        ((\"setStore(address)\")), _newOwner));\n        require(success, string (returnedData));\n\n    }   \n\n    function setOwner (address _newOwner) public  onlyOwner {\n\n        (bool success, bytes memory returnedData) = store.implIOU().delegatecall(abi.encodeWithSignature(\n        ((\"setOwner(address)\")), _newOwner));\n        require(success, string (returnedData));\n    }\n\n    function mint (address _who, uint256 _amount, string memory _descr) public onlyOwner { \n\n        (bool success, bytes memory returnedData) = store.implIOU().delegatecall(abi.encodeWithSignature(\n        ((\"mint(address,uint256,string)\")), \n        _who, _amount,  _descr));\n        require(success, string (returnedData));\n    }\n    function burn (uint256 _amount, int256 _rating, string memory _feedback) onlyHolder  (_amount) public {\n        \n        (bool success, bytes memory returnedData) = store.implIOU().delegatecall(abi.encodeWithSignature(\n        ((\"burn(uint256,int256,string)\")), \n         _amount, _rating, _feedback));\n        require(success, string (returnedData));\n        }\n\n    function transfer(address _recipient, uint256 _amount) onlyHolder(_amount) public override returns (bool) {   \n                (bool success, bytes memory returnedData) = store.implIOU().delegatecall(abi.encodeWithSignature(\n        ((\"transfer(address,uint256)\")), \n         _recipient, _amount));\n        require(success, string (returnedData));\n        }\n\n\n    function editDescr (string calldata _descr)  public onlyOwner {\n       (bool success, bytes memory returnedData) = store.implIOU().delegatecall(abi.encodeWithSignature(\n        ((\"editDescr(string)\")), \n         _descr));\n        require(success, string (returnedData));\n    }\n\n    function editPhone (bytes32 _phone)  public onlyOwner {\n        (bool success, bytes memory returnedData) = store.implIOU().delegatecall(abi.encodeWithSignature(\n        ((\"editPhone(bytes32)\")), \n         _phone));\n        require(success, string (returnedData));    \n        }\n\n    function editGeo (string calldata _country,\n                    string calldata _state,\n                    string calldata _city,\n                    string calldata _street)  public onlyOwner {\n        (bool success, bytes memory returnedData) = store.implIOU().delegatecall(abi.encodeWithSignature(\n        ((\"editGeo(string,string,string,string)\")), \n         _country, _state,_city,_street));\n        require(success, string (returnedData));    \n    }\n    function addKeys (bytes32[] calldata _keys)  public onlyOwner { \n        (bool success, bytes memory returnedData) = store.implIOU().delegatecall(abi.encodeWithSignature(\n        ((\"addKeys(bytes32[])\")), \n         _keys));\n        require(success, string (returnedData)); \n    }\n    function delKeys (bytes32[] calldata _keys)  public onlyOwner {\n           (bool success, bytes memory returnedData) = store.implIOU().delegatecall(abi.encodeWithSignature(\n        ((\"delKeys(bytes32[])\")), \n         _keys));\n        require(success, string (returnedData)); \n    }\n\n    function getIOU (address _iou) public view returns ( iIOUtoken.IOUdescr memory) {\n        iIOUtoken iouT = iIOUtoken(_iou);\n        iIOUtoken.IOUdescr memory iouD = iIOUtoken.IOUdescr (iouT.IOUname(), iouT.IOUsymbol(), iouT.thisIOUDesc()  );\n        return iouD;\n}\n\n    function thisIOUkeywords() public view returns (bytes32[] memory)\n    {\n        return thisIOU.keywords;\n    }\n\n    function getlen ()  public view returns (uint256, uint256) {\n        return (allIOUs.length, allFeedbacks.length);\n    } \n\n    function thisIOUDesc () public view  returns (iIOUtoken.DescriptionIOU memory)\n    {    return thisIOU;\n    }\n    function IOUname () public view  returns (string memory)\n    {    return name();\n    }\n    function IOUsymbol () public view  returns (string memory)\n    {    return symbol ();\n    }\n\n\n    function getTokenInfo() public view returns(string memory,\n                                           string memory,\n                                           iIOUtoken.DescriptionIOU memory ) {\n        return(name(), symbol(), thisIOU);\n\n    }\n\n    function name() public view override returns (string memory) {\n        return _name;\n    }\n\n    function symbol() public view override returns (string memory) {\n        return _symbol;\n    }\n     function addSurety (address _iou, uint256 _amount) public {\n        (bool success, bytes memory returnedData) = store.implIOU().delegatecall(abi.encodeWithSignature(\n        ((\"addSurety(address,uint256)\")), \n         _iou, _amount));\n        require(success, string (returnedData)); \n     }\n\n    function burnSurety (uint256 _amount, int256 _rating, string calldata _feedback) public onlyHolder(_amount) { \n        (bool success, bytes memory returnedData) = store.implIOU().delegatecall(abi.encodeWithSignature(\n        ((\"burnSurety(uint256,int256,string)\")), \n         _amount, _rating, _feedback));\n        require(success, string (returnedData));\n    }\n     function getAllSureties() public view returns( Sureties[] memory )  {\n        return allSureties;\n    }\n\n}",
  "sourcePath": "/512-2/dfd/iou2-1/contracts/ProxyIOU.sol",
  "compiler": {
    "name": "solc",
    "version": "0.8.10+commit.fc410830.Emscripten.clang"
  },
  "schemaVersion": "3.4.6",
  "updatedAt": "2022-07-27T05:43:16.344Z",
  "devdoc": {
    "kind": "dev",
    "methods": {
      "allowance(address,address)": {
        "details": "See {IERC20-allowance}."
      },
      "approve(address,uint256)": {
        "details": "See {IERC20-approve}. Requirements: - `spender` cannot be the zero address."
      },
      "balanceOf(address)": {
        "details": "See {IERC20-balanceOf}."
      },
      "decimals()": {
        "details": "Returns the number of decimals used to get its user representation. For example, if `decimals` equals `2`, a balance of `505` tokens should be displayed to a user as `5.05` (`505 / 10 ** 2`). Tokens usually opt for a value of 18, imitating the relationship between Ether and Wei. This is the value {ERC20} uses, unless this function is overridden; NOTE: This information is only used for _display_ purposes: it in no way affects any of the arithmetic of the contract, including {IERC20-balanceOf} and {IERC20-transfer}."
      },
      "decreaseAllowance(address,uint256)": {
        "details": "Atomically decreases the allowance granted to `spender` by the caller. This is an alternative to {approve} that can be used as a mitigation for problems described in {IERC20-approve}. Emits an {Approval} event indicating the updated allowance. Requirements: - `spender` cannot be the zero address. - `spender` must have allowance for the caller of at least `subtractedValue`."
      },
      "increaseAllowance(address,uint256)": {
        "details": "Atomically increases the allowance granted to `spender` by the caller. This is an alternative to {approve} that can be used as a mitigation for problems described in {IERC20-approve}. Emits an {Approval} event indicating the updated allowance. Requirements: - `spender` cannot be the zero address."
      },
      "name()": {
        "details": "Returns the name of the token."
      },
      "symbol()": {
        "details": "Returns the symbol of the token, usually a shorter version of the name."
      },
      "totalSupply()": {
        "details": "See {IERC20-totalSupply}."
      },
      "transferFrom(address,address,uint256)": {
        "details": "See {IERC20-transferFrom}. Emits an {Approval} event indicating the updated allowance. This is not required by the EIP. See the note at the beginning of {ERC20}. Requirements: - `sender` and `recipient` cannot be the zero address. - `sender` must have a balance of at least `amount`. - the caller must have allowance for ``sender``'s tokens of at least `amount`."
      }
    },
    "version": 1
  },
  "userdoc": {
    "kind": "user",
    "methods": {},
    "version": 1
  }
}