{
  "contractName": "StoreIOUs",
  "abi": [
    {
      "inputs": [],
      "payable": false,
      "stateMutability": "nonpayable",
      "type": "constructor"
    },
    {
      "constant": true,
      "inputs": [
        {
          "internalType": "uint256",
          "name": "",
          "type": "uint256"
        }
      ],
      "name": "allIOU",
      "outputs": [
        {
          "internalType": "address",
          "name": "",
          "type": "address"
        }
      ],
      "payable": false,
      "stateMutability": "view",
      "type": "function"
    },
    {
      "constant": true,
      "inputs": [
        {
          "internalType": "uint256",
          "name": "",
          "type": "uint256"
        }
      ],
      "name": "allIssuers",
      "outputs": [
        {
          "internalType": "address",
          "name": "",
          "type": "address"
        }
      ],
      "payable": false,
      "stateMutability": "view",
      "type": "function"
    },
    {
      "constant": true,
      "inputs": [
        {
          "internalType": "uint256",
          "name": "",
          "type": "uint256"
        }
      ],
      "name": "allKeywords",
      "outputs": [
        {
          "internalType": "bytes32",
          "name": "",
          "type": "bytes32"
        }
      ],
      "payable": false,
      "stateMutability": "view",
      "type": "function"
    },
    {
      "constant": true,
      "inputs": [
        {
          "internalType": "address",
          "name": "",
          "type": "address"
        }
      ],
      "name": "isIOU",
      "outputs": [
        {
          "internalType": "bool",
          "name": "",
          "type": "bool"
        }
      ],
      "payable": false,
      "stateMutability": "view",
      "type": "function"
    },
    {
      "constant": true,
      "inputs": [
        {
          "internalType": "address",
          "name": "",
          "type": "address"
        },
        {
          "internalType": "uint256",
          "name": "",
          "type": "uint256"
        }
      ],
      "name": "listHoldersIOUs",
      "outputs": [
        {
          "internalType": "address",
          "name": "",
          "type": "address"
        }
      ],
      "payable": false,
      "stateMutability": "view",
      "type": "function"
    },
    {
      "constant": true,
      "inputs": [
        {
          "internalType": "address",
          "name": "",
          "type": "address"
        },
        {
          "internalType": "uint256",
          "name": "",
          "type": "uint256"
        }
      ],
      "name": "listIOUs",
      "outputs": [
        {
          "internalType": "address",
          "name": "",
          "type": "address"
        }
      ],
      "payable": false,
      "stateMutability": "view",
      "type": "function"
    },
    {
      "constant": false,
      "inputs": [
        {
          "internalType": "address",
          "name": "_newOwner",
          "type": "address"
        }
      ],
      "name": "setOwner",
      "outputs": [],
      "payable": false,
      "stateMutability": "nonpayable",
      "type": "function"
    },
    {
      "constant": false,
      "inputs": [
        {
          "internalType": "address",
          "name": "_newFact",
          "type": "address"
        }
      ],
      "name": "setFactory",
      "outputs": [],
      "payable": false,
      "stateMutability": "nonpayable",
      "type": "function"
    },
    {
      "constant": false,
      "inputs": [
        {
          "internalType": "address",
          "name": "_newIOU",
          "type": "address"
        },
        {
          "internalType": "address",
          "name": "_emitent",
          "type": "address"
        }
      ],
      "name": "addIOU1",
      "outputs": [],
      "payable": false,
      "stateMutability": "nonpayable",
      "type": "function"
    },
    {
      "constant": false,
      "inputs": [
        {
          "internalType": "address",
          "name": "_newIOU",
          "type": "address"
        },
        {
          "internalType": "string",
          "name": "_socialProfile",
          "type": "string"
        },
        {
          "internalType": "bytes32[]",
          "name": "_keywords",
          "type": "bytes32[]"
        }
      ],
      "name": "addIOU2",
      "outputs": [],
      "payable": false,
      "stateMutability": "nonpayable",
      "type": "function"
    },
    {
      "constant": true,
      "inputs": [
        {
          "internalType": "address",
          "name": "_owner",
          "type": "address"
        }
      ],
      "name": "getIOUList",
      "outputs": [
        {
          "internalType": "address[]",
          "name": "",
          "type": "address[]"
        }
      ],
      "payable": false,
      "stateMutability": "view",
      "type": "function"
    },
    {
      "constant": true,
      "inputs": [
        {
          "internalType": "string",
          "name": "_profile",
          "type": "string"
        }
      ],
      "name": "getIOUListSoc",
      "outputs": [
        {
          "internalType": "address[]",
          "name": "",
          "type": "address[]"
        }
      ],
      "payable": false,
      "stateMutability": "view",
      "type": "function"
    },
    {
      "constant": true,
      "inputs": [
        {
          "internalType": "bytes32",
          "name": "_key",
          "type": "bytes32"
        }
      ],
      "name": "getIOUListKey",
      "outputs": [
        {
          "internalType": "address[]",
          "name": "",
          "type": "address[]"
        }
      ],
      "payable": false,
      "stateMutability": "view",
      "type": "function"
    },
    {
      "constant": false,
      "inputs": [
        {
          "internalType": "address",
          "name": "_holder",
          "type": "address"
        },
        {
          "internalType": "address",
          "name": "_IOUtoken",
          "type": "address"
        }
      ],
      "name": "addHolder",
      "outputs": [],
      "payable": false,
      "stateMutability": "nonpayable",
      "type": "function"
    },
    {
      "constant": true,
      "inputs": [
        {
          "internalType": "address",
          "name": "_holder",
          "type": "address"
        }
      ],
      "name": "getIOUListHold",
      "outputs": [
        {
          "internalType": "address[]",
          "name": "",
          "type": "address[]"
        }
      ],
      "payable": false,
      "stateMutability": "view",
      "type": "function"
    },
    {
      "constant": true,
      "inputs": [],
      "name": "getIOUstotal",
      "outputs": [
        {
          "internalType": "uint256",
          "name": "",
          "type": "uint256"
        }
      ],
      "payable": false,
      "stateMutability": "view",
      "type": "function"
    },
    {
      "constant": true,
      "inputs": [],
      "name": "getKeystotal",
      "outputs": [
        {
          "internalType": "uint256",
          "name": "",
          "type": "uint256"
        }
      ],
      "payable": false,
      "stateMutability": "view",
      "type": "function"
    },
    {
      "constant": true,
      "inputs": [],
      "name": "getIssuerstotal",
      "outputs": [
        {
          "internalType": "uint256",
          "name": "",
          "type": "uint256"
        }
      ],
      "payable": false,
      "stateMutability": "view",
      "type": "function"
    }
  ],
  "bytecode": "0x608060405234801561001057600080fd5b5033600960006101000a81548173ffffffffffffffffffffffffffffffffffffffff021916908373ffffffffffffffffffffffffffffffffffffffff160217905550611a73806100616000396000f3fe608060405234801561001057600080fd5b50600436106101155760003560e01c80635bb47808116100a2578063b442fc6111610071578063b442fc6114610302578063c5ab152914610332578063e03e56a914610362578063f22c3bc314610392578063f466013d146103b057610115565b80635bb47808146102685780636e01acb81461028457806376f7f6de146102b4578063b21b4451146102d257610115565b806331df3737116100e957806331df3737146101a057806338a10485146101d05780634f2c272a146101ec57806352fae04e1461021c5780635899d1421461024c57610115565b8062a50d811461011a57806313af40351461014a57806323b3af891461016657806330b02b2114610182575b600080fd5b610134600480360361012f9190810190611490565b6103e0565b6040516101419190611768565b60405180910390f35b610164600480360361015f91908101906113ac565b61042b565b005b610180600480360361017b91908101906113d5565b6104ff565b005b61018a6107ae565b604051610197919061185b565b60405180910390f35b6101ba60048036036101b591908101906113ac565b6107bb565b6040516101c79190611783565b60405180910390f35b6101ea60048036036101e59190810190611411565b610887565b005b610206600480360361020191908101906114cc565b610b53565b6040516102139190611783565b60405180910390f35b61023660048036036102319190810190611536565b610bf4565b60405161024391906117c0565b60405180910390f35b610266600480360361026191908101906113d5565b610c15565b005b610282600480360361027d91908101906113ac565b610f4c565b005b61029e600480360361029991908101906113ac565b611020565b6040516102ab9190611783565b60405180910390f35b6102bc6110ed565b6040516102c9919061185b565b60405180910390f35b6102ec60048036036102e791908101906113ac565b6110fa565b6040516102f991906117a5565b60405180910390f35b61031c60048036036103179190810190611536565b61111a565b6040516103299190611768565b60405180910390f35b61034c60048036036103479190810190611536565b611156565b6040516103599190611768565b60405180910390f35b61037c600480360361037791908101906114f5565b611192565b6040516103899190611783565b60405180910390f35b61039a61123e565b6040516103a7919061185b565b60405180910390f35b6103ca60048036036103c59190810190611490565b61124b565b6040516103d79190611768565b60405180910390f35b600060205281600052604060002081815481106103f957fe5b906000526020600020016000915091509054906101000a900473ffffffffffffffffffffffffffffffffffffffff1681565b3373ffffffffffffffffffffffffffffffffffffffff16600960009054906101000a900473ffffffffffffffffffffffffffffffffffffffff1673ffffffffffffffffffffffffffffffffffffffff16146104bb576040517f08c379a00000000000000000000000000000000000000000000000000000000081526004016104b29061181b565b60405180910390fd5b80600960006101000a81548173ffffffffffffffffffffffffffffffffffffffff021916908373ffffffffffffffffffffffffffffffffffffffff16021790555050565b3373ffffffffffffffffffffffffffffffffffffffff16600a60009054906101000a900473ffffffffffffffffffffffffffffffffffffffff1673ffffffffffffffffffffffffffffffffffffffff1614806105a45750600360003373ffffffffffffffffffffffffffffffffffffffff1673ffffffffffffffffffffffffffffffffffffffff16815260200190815260200160002060009054906101000a900460ff165b6105e3576040517f08c379a00000000000000000000000000000000000000000000000000000000081526004016105da906117db565b60405180910390fd5b600460008373ffffffffffffffffffffffffffffffffffffffff1673ffffffffffffffffffffffffffffffffffffffff16815260200190815260200160002060008273ffffffffffffffffffffffffffffffffffffffff1673ffffffffffffffffffffffffffffffffffffffff16815260200190815260200160002060009054906101000a900460ff166107aa57600260008373ffffffffffffffffffffffffffffffffffffffff1673ffffffffffffffffffffffffffffffffffffffff1681526020019081526020016000208190806001815401808255809150509060018203906000526020600020016000909192909190916101000a81548173ffffffffffffffffffffffffffffffffffffffff021916908373ffffffffffffffffffffffffffffffffffffffff160217905550506001600460008473ffffffffffffffffffffffffffffffffffffffff1673ffffffffffffffffffffffffffffffffffffffff16815260200190815260200160002060008373ffffffffffffffffffffffffffffffffffffffff1673ffffffffffffffffffffffffffffffffffffffff16815260200190815260200160002060006101000a81548160ff0219169083151502179055505b5050565b6000600880549050905090565b60606000808373ffffffffffffffffffffffffffffffffffffffff1673ffffffffffffffffffffffffffffffffffffffff16815260200190815260200160002080548060200260200160405190810160405280929190818152602001828054801561087b57602002820191906000526020600020905b8160009054906101000a900473ffffffffffffffffffffffffffffffffffffffff1673ffffffffffffffffffffffffffffffffffffffff1681526020019060010190808311610831575b50505050509050919050565b3373ffffffffffffffffffffffffffffffffffffffff16600a60009054906101000a900473ffffffffffffffffffffffffffffffffffffffff1673ffffffffffffffffffffffffffffffffffffffff16148061092c5750600360003373ffffffffffffffffffffffffffffffffffffffff1673ffffffffffffffffffffffffffffffffffffffff16815260200190815260200160002060009054906101000a900460ff165b61096b576040517f08c379a0000000000000000000000000000000000000000000000000000000008152600401610962906117db565b60405180910390fd5b60018260405161097b9190611751565b90815260200160405180910390208390806001815401808255809150509060018203906000526020600020016000909192909190916101000a81548173ffffffffffffffffffffffffffffffffffffffff021916908373ffffffffffffffffffffffffffffffffffffffff16021790555050600060058251116109ff578151610a02565b60055b9050600080600090505b828160ff161015610b4b576000801b848260ff1681518110610a2a57fe5b60200260200101511115610b3e57600060056000868460ff1681518110610a4d57fe5b60200260200101518152602001908152602001600020805490501415610ab0576006848260ff1681518110610a7e57fe5b602002602001015190806001815401808255809150509060018203906000526020600020016000909192909190915055505b60056000858360ff1681518110610ac357fe5b602002602001015181526020019081526020016000208690806001815401808255809150509060018203906000526020600020016000909192909190916101000a81548173ffffffffffffffffffffffffffffffffffffffff021916908373ffffffffffffffffffffffffffffffffffffffff160217905550505b8080600101915050610a0c565b505050505050565b606060056000838152602001908152602001600020805480602002602001604051908101604052809291908181526020018280548015610be857602002820191906000526020600020905b8160009054906101000a900473ffffffffffffffffffffffffffffffffffffffff1673ffffffffffffffffffffffffffffffffffffffff1681526020019060010190808311610b9e575b50505050509050919050565b60068181548110610c0157fe5b906000526020600020016000915090505481565b600073ffffffffffffffffffffffffffffffffffffffff16600a60009054906101000a900473ffffffffffffffffffffffffffffffffffffffff1673ffffffffffffffffffffffffffffffffffffffff161415610ca7576040517f08c379a0000000000000000000000000000000000000000000000000000000008152600401610c9e9061183b565b60405180910390fd5b3373ffffffffffffffffffffffffffffffffffffffff16600a60009054906101000a900473ffffffffffffffffffffffffffffffffffffffff1673ffffffffffffffffffffffffffffffffffffffff1614610d37576040517f08c379a0000000000000000000000000000000000000000000000000000000008152600401610d2e906117fb565b60405180910390fd5b6001600360008473ffffffffffffffffffffffffffffffffffffffff1673ffffffffffffffffffffffffffffffffffffffff16815260200190815260200160002060006101000a81548160ff02191690831515021790555060078290806001815401808255809150509060018203906000526020600020016000909192909190916101000a81548173ffffffffffffffffffffffffffffffffffffffff021916908373ffffffffffffffffffffffffffffffffffffffff1602179055505060008060008373ffffffffffffffffffffffffffffffffffffffff1673ffffffffffffffffffffffffffffffffffffffff168152602001908152602001600020805490501415610ea65760088190806001815401808255809150509060018203906000526020600020016000909192909190916101000a81548173ffffffffffffffffffffffffffffffffffffffff021916908373ffffffffffffffffffffffffffffffffffffffff160217905550505b6000808273ffffffffffffffffffffffffffffffffffffffff1673ffffffffffffffffffffffffffffffffffffffff1681526020019081526020016000208290806001815401808255809150509060018203906000526020600020016000909192909190916101000a81548173ffffffffffffffffffffffffffffffffffffffff021916908373ffffffffffffffffffffffffffffffffffffffff160217905550505050565b3373ffffffffffffffffffffffffffffffffffffffff16600960009054906101000a900473ffffffffffffffffffffffffffffffffffffffff1673ffffffffffffffffffffffffffffffffffffffff1614610fdc576040517f08c379a0000000000000000000000000000000000000000000000000000000008152600401610fd39061181b565b60405180910390fd5b80600a60006101000a81548173ffffffffffffffffffffffffffffffffffffffff021916908373ffffffffffffffffffffffffffffffffffffffff16021790555050565b6060600260008373ffffffffffffffffffffffffffffffffffffffff1673ffffffffffffffffffffffffffffffffffffffff1681526020019081526020016000208054806020026020016040519081016040528092919081815260200182805480156110e157602002820191906000526020600020905b8160009054906101000a900473ffffffffffffffffffffffffffffffffffffffff1673ffffffffffffffffffffffffffffffffffffffff1681526020019060010190808311611097575b50505050509050919050565b6000600680549050905090565b60036020528060005260406000206000915054906101000a900460ff1681565b6008818154811061112757fe5b906000526020600020016000915054906101000a900473ffffffffffffffffffffffffffffffffffffffff1681565b6007818154811061116357fe5b906000526020600020016000915054906101000a900473ffffffffffffffffffffffffffffffffffffffff1681565b60606001826040516111a49190611751565b908152602001604051809103902080548060200260200160405190810160405280929190818152602001828054801561123257602002820191906000526020600020905b8160009054906101000a900473ffffffffffffffffffffffffffffffffffffffff1673ffffffffffffffffffffffffffffffffffffffff16815260200190600101908083116111e8575b50505050509050919050565b6000600780549050905090565b6002602052816000526040600020818154811061126457fe5b906000526020600020016000915091509054906101000a900473ffffffffffffffffffffffffffffffffffffffff1681565b6000813590506112a5816119eb565b92915050565b600082601f8301126112bc57600080fd5b81356112cf6112ca826118a3565b611876565b915081818352602084019350602081019050838560208402820111156112f457600080fd5b60005b83811015611324578161130a888261132e565b8452602084019350602083019250506001810190506112f7565b5050505092915050565b60008135905061133d81611a02565b92915050565b600082601f83011261135457600080fd5b8135611367611362826118cb565b611876565b9150808252602083016020830185838301111561138357600080fd5b61138e8382846119a9565b50505092915050565b6000813590506113a681611a19565b92915050565b6000602082840312156113be57600080fd5b60006113cc84828501611296565b91505092915050565b600080604083850312156113e857600080fd5b60006113f685828601611296565b925050602061140785828601611296565b9150509250929050565b60008060006060848603121561142657600080fd5b600061143486828701611296565b935050602084013567ffffffffffffffff81111561145157600080fd5b61145d86828701611343565b925050604084013567ffffffffffffffff81111561147a57600080fd5b611486868287016112ab565b9150509250925092565b600080604083850312156114a357600080fd5b60006114b185828601611296565b92505060206114c285828601611397565b9150509250929050565b6000602082840312156114de57600080fd5b60006114ec8482850161132e565b91505092915050565b60006020828403121561150757600080fd5b600082013567ffffffffffffffff81111561152157600080fd5b61152d84828501611343565b91505092915050565b60006020828403121561154857600080fd5b600061155684828501611397565b91505092915050565b600061156b8383611577565b60208301905092915050565b61158081611957565b82525050565b61158f81611957565b82525050565b60006115a082611907565b6115aa818561192a565b93506115b5836118f7565b8060005b838110156115e65781516115cd888261155f565b97506115d88361191d565b9250506001810190506115b9565b5085935050505092915050565b6115fc81611969565b82525050565b61160b81611975565b82525050565b600061161c82611912565b611626818561194c565b93506116368185602086016119b8565b80840191505092915050565b600061164f60138361193b565b91507f4e6f7420494f5520746f6b656e2063616c6c73000000000000000000000000006000830152602082019050919050565b600061168f601c8361193b565b91507f4f6e6c79206d616b65466163746f72792063616e20646f2074686973000000006000830152602082019050919050565b60006116cf60168361193b565b91507f4f6e6c79206f776e65722063616e20646f2074686973000000000000000000006000830152602082019050919050565b600061170f60168361193b565b91507f4e6f206d616b65466163746f72792061646472657373000000000000000000006000830152602082019050919050565b61174b8161199f565b82525050565b600061175d8284611611565b915081905092915050565b600060208201905061177d6000830184611586565b92915050565b6000602082019050818103600083015261179d8184611595565b905092915050565b60006020820190506117ba60008301846115f3565b92915050565b60006020820190506117d56000830184611602565b92915050565b600060208201905081810360008301526117f481611642565b9050919050565b6000602082019050818103600083015261181481611682565b9050919050565b60006020820190508181036000830152611834816116c2565b9050919050565b6000602082019050818103600083015261185481611702565b9050919050565b60006020820190506118706000830184611742565b92915050565b6000604051905081810181811067ffffffffffffffff8211171561189957600080fd5b8060405250919050565b600067ffffffffffffffff8211156118ba57600080fd5b602082029050602081019050919050565b600067ffffffffffffffff8211156118e257600080fd5b601f19601f8301169050602081019050919050565b6000819050602082019050919050565b600081519050919050565b600081519050919050565b6000602082019050919050565b600082825260208201905092915050565b600082825260208201905092915050565b600081905092915050565b60006119628261197f565b9050919050565b60008115159050919050565b6000819050919050565b600073ffffffffffffffffffffffffffffffffffffffff82169050919050565b6000819050919050565b82818337600083830152505050565b60005b838110156119d65780820151818401526020810190506119bb565b838111156119e5576000848401525b50505050565b6119f481611957565b81146119ff57600080fd5b50565b611a0b81611975565b8114611a1657600080fd5b50565b611a228161199f565b8114611a2d57600080fd5b5056fea365627a7a723158208ce393b28e13e45fe80af26110d30b5a2ddf6572f2ce6686c46070b7e2bdbef96c6578706572696d656e74616cf564736f6c63430005100040",
  "source": "pragma solidity >=  0.5.0;\npragma experimental ABIEncoderV2;\n\n\n\ncontract StoreIOUs {\n\n    mapping (address => address[]) public listIOUs; // list of emitted IOUs from emitent\n    mapping (string => address[])   listIOUsSoc; // list of emitted IOUs by social profile\n    mapping (address => address[]) public listHoldersIOUs; //list of tokens by holder\n    mapping (address => bool) public isIOU; //security check is token emitted \n    mapping (address => mapping (address => bool)) isHolderthisIOU; //  check list of tokens by holder\n    mapping (bytes32 => address[]) listbyKeys; //list of IOUs by keyword\n    bytes32[] public allKeywords;  //list all keywords\n    address[] public allIOU; //list all emitted IOus\n    address[] public allIssuers; //list all issuers of  IOus\n\n\n    address owner;\n    address makeFactory;\n\n    constructor () public {\n        owner = msg.sender;\n    }\n\n    modifier onlyOwner() {\n        require (owner == msg.sender, \"Only owner can do this\");\n        _;\n    }\n\n    modifier onlyMake() {\n        require (makeFactory != address(0x0), \"No makeFactory address\");\n        require (makeFactory == msg.sender, \"Only makeFactory can do this\");\n        _;\n    }\n\n    modifier isIOUtoken () {\n        require (makeFactory == msg.sender || isIOU[msg.sender], \"Not IOU token calls\" );\n        _;\n    }\n\n    function setOwner (address _newOwner) public onlyOwner {\n        owner = _newOwner;\n    }\n\n    function setFactory (address _newFact) public onlyOwner {\n        makeFactory = _newFact;\n    }\n\n    function addIOU1 (address _newIOU, address _emitent) public onlyMake {\n        \n        isIOU[_newIOU] = true;\n        allIOU.push(_newIOU);\n        if (listIOUs[_emitent].length == 0) {\n            allIssuers.push(_emitent); \n        }\n        listIOUs[_emitent].push(_newIOU);\n    }\n\n\n    function addIOU2 (address _newIOU, \n                    string memory _socialProfile,                     \n                    bytes32[] memory _keywords) \n                    public  isIOUtoken   {        \n\n        listIOUsSoc[_socialProfile].push(_newIOU);\n        uint lenArr = _keywords.length > 5 ? 5: _keywords.length;\n        uint lenkey;\n        for (uint8 k=0 ; k < lenArr ; k++){\n        \n            if (_keywords[k] > 0 ){\n                if  (listbyKeys[_keywords[k]].length == 0 ) {\n                    \n                    allKeywords.push(_keywords[k]);\n                }\n                listbyKeys[_keywords[k]].push(address(_newIOU));\n            }\n        } \n        }\n\n    function getIOUList (address _owner) public view returns (address[] memory) {\n            return listIOUs[_owner];\n        }\n\n    function getIOUListSoc (string memory _profile) public view returns (address[] memory) {\n            return listIOUsSoc[_profile];\n                }\n\n    function getIOUListKey (bytes32 _key) public view returns (address[] memory) {\n            return listbyKeys[_key];\n                }\n\n\n    function addHolder(address _holder, address _IOUtoken) public isIOUtoken {\n        if (!isHolderthisIOU[_holder][_IOUtoken] ) {\n            listHoldersIOUs [_holder].push(_IOUtoken);\n            isHolderthisIOU[_holder][_IOUtoken] = true;\n        }\n    }\n\n    function getIOUListHold (address _holder) public view returns (address[] memory) {\n            return listHoldersIOUs [_holder];\n        }\n\n    function getIOUstotal () public view  returns (uint256)\n    {\n        return allIOU.length;\n    }    \n\n    function getKeystotal () public view returns (uint256)\n    {\n        return allKeywords.length;\n    }    \n\n    function getIssuerstotal () public view returns (uint256)\n    {\n        return allIssuers.length;\n    }\n\n}",
  "sourcePath": "/Users/pro/Development/blockchain/IOU/iou-components/contracts/StoreIOUs.sol",
  "compiler": {
    "name": "solc",
    "version": "0.5.16+commit.9c3226ce.Emscripten.clang"
  },
  "schemaVersion": "3.3.3",
  "updatedAt": "2021-06-27T21:54:25.451Z",
  "networkType": "ethereum",
  "devdoc": {
    "methods": {}
  },
  "userdoc": {
    "methods": {}
  }
}