{
  "contractName": "StoreIOUs",
  "abi": [
    {
      "inputs": [
        {
          "internalType": "uint256",
          "name": "",
          "type": "uint256"
        }
      ],
      "name": "allIOU",
      "outputs": [
        {
          "internalType": "address",
          "name": "",
          "type": "address"
        }
      ],
      "stateMutability": "view",
      "type": "function",
      "constant": true
    },
    {
      "inputs": [
        {
          "internalType": "uint256",
          "name": "",
          "type": "uint256"
        }
      ],
      "name": "allIssuers",
      "outputs": [
        {
          "internalType": "address",
          "name": "",
          "type": "address"
        }
      ],
      "stateMutability": "view",
      "type": "function",
      "constant": true
    },
    {
      "inputs": [
        {
          "internalType": "uint256",
          "name": "",
          "type": "uint256"
        }
      ],
      "name": "allKeywords",
      "outputs": [
        {
          "internalType": "bytes32",
          "name": "",
          "type": "bytes32"
        }
      ],
      "stateMutability": "view",
      "type": "function",
      "constant": true
    },
    {
      "inputs": [
        {
          "internalType": "address",
          "name": "",
          "type": "address"
        }
      ],
      "name": "isIOU",
      "outputs": [
        {
          "internalType": "uint256",
          "name": "",
          "type": "uint256"
        }
      ],
      "stateMutability": "view",
      "type": "function",
      "constant": true
    },
    {
      "inputs": [
        {
          "internalType": "address",
          "name": "",
          "type": "address"
        },
        {
          "internalType": "uint256",
          "name": "",
          "type": "uint256"
        }
      ],
      "name": "listHoldersIOUs",
      "outputs": [
        {
          "internalType": "address",
          "name": "",
          "type": "address"
        }
      ],
      "stateMutability": "view",
      "type": "function",
      "constant": true
    },
    {
      "inputs": [
        {
          "internalType": "address",
          "name": "",
          "type": "address"
        },
        {
          "internalType": "uint256",
          "name": "",
          "type": "uint256"
        }
      ],
      "name": "listIOUs",
      "outputs": [
        {
          "internalType": "address",
          "name": "",
          "type": "address"
        }
      ],
      "stateMutability": "view",
      "type": "function",
      "constant": true
    },
    {
      "inputs": [],
      "name": "initialize",
      "outputs": [],
      "stateMutability": "nonpayable",
      "type": "function"
    },
    {
      "inputs": [
        {
          "internalType": "address",
          "name": "_newOwner",
          "type": "address"
        }
      ],
      "name": "setOwner",
      "outputs": [],
      "stateMutability": "nonpayable",
      "type": "function"
    },
    {
      "inputs": [
        {
          "internalType": "address",
          "name": "_newFact",
          "type": "address"
        }
      ],
      "name": "setFactory",
      "outputs": [],
      "stateMutability": "nonpayable",
      "type": "function"
    },
    {
      "inputs": [
        {
          "internalType": "address",
          "name": "_addrIOU",
          "type": "address"
        },
        {
          "internalType": "address",
          "name": "_emitent",
          "type": "address"
        }
      ],
      "name": "addIOU1",
      "outputs": [],
      "stateMutability": "nonpayable",
      "type": "function"
    },
    {
      "inputs": [
        {
          "internalType": "bytes32[]",
          "name": "_keywords",
          "type": "bytes32[]"
        },
        {
          "internalType": "address",
          "name": "_addrIOU",
          "type": "address"
        }
      ],
      "name": "addKeys",
      "outputs": [],
      "stateMutability": "nonpayable",
      "type": "function"
    },
    {
      "inputs": [
        {
          "internalType": "bytes32[]",
          "name": "_keywords",
          "type": "bytes32[]"
        },
        {
          "internalType": "address",
          "name": "_addrIOU",
          "type": "address"
        }
      ],
      "name": "delKeys",
      "outputs": [],
      "stateMutability": "nonpayable",
      "type": "function"
    },
    {
      "inputs": [
        {
          "components": [
            {
              "internalType": "string",
              "name": "country",
              "type": "string"
            },
            {
              "internalType": "string",
              "name": "state",
              "type": "string"
            },
            {
              "internalType": "string",
              "name": "city",
              "type": "string"
            },
            {
              "internalType": "string",
              "name": "street",
              "type": "string"
            }
          ],
          "internalType": "struct iIOUtoken.geo",
          "name": "_newloc",
          "type": "tuple"
        },
        {
          "internalType": "address",
          "name": "_addrIOU",
          "type": "address"
        }
      ],
      "name": "changeIOUGeoAllkeys",
      "outputs": [],
      "stateMutability": "nonpayable",
      "type": "function"
    },
    {
      "inputs": [
        {
          "internalType": "address",
          "name": "_holder",
          "type": "address"
        },
        {
          "internalType": "address",
          "name": "_IOUtoken",
          "type": "address"
        }
      ],
      "name": "addHolder",
      "outputs": [],
      "stateMutability": "nonpayable",
      "type": "function"
    },
    {
      "inputs": [
        {
          "internalType": "address",
          "name": "_owner",
          "type": "address"
        }
      ],
      "name": "getIOUList",
      "outputs": [
        {
          "internalType": "address[]",
          "name": "",
          "type": "address[]"
        }
      ],
      "stateMutability": "view",
      "type": "function",
      "constant": true
    },
    {
      "inputs": [
        {
          "internalType": "string",
          "name": "_profile",
          "type": "string"
        }
      ],
      "name": "getIOUListSoc",
      "outputs": [
        {
          "internalType": "address[]",
          "name": "",
          "type": "address[]"
        }
      ],
      "stateMutability": "view",
      "type": "function",
      "constant": true
    },
    {
      "inputs": [
        {
          "internalType": "bytes32",
          "name": "_key",
          "type": "bytes32"
        }
      ],
      "name": "getIOUListKey",
      "outputs": [
        {
          "internalType": "address[]",
          "name": "",
          "type": "address[]"
        }
      ],
      "stateMutability": "view",
      "type": "function",
      "constant": true
    },
    {
      "inputs": [
        {
          "internalType": "address",
          "name": "_holder",
          "type": "address"
        }
      ],
      "name": "getIOUListHold",
      "outputs": [
        {
          "internalType": "address[]",
          "name": "",
          "type": "address[]"
        }
      ],
      "stateMutability": "view",
      "type": "function",
      "constant": true
    },
    {
      "inputs": [],
      "name": "getIOUstotal",
      "outputs": [
        {
          "internalType": "uint256",
          "name": "",
          "type": "uint256"
        }
      ],
      "stateMutability": "view",
      "type": "function",
      "constant": true
    },
    {
      "inputs": [],
      "name": "getKeystotal",
      "outputs": [
        {
          "internalType": "bytes32[]",
          "name": "",
          "type": "bytes32[]"
        }
      ],
      "stateMutability": "view",
      "type": "function",
      "constant": true
    },
    {
      "inputs": [],
      "name": "getIssuerstotal",
      "outputs": [
        {
          "internalType": "uint256",
          "name": "",
          "type": "uint256"
        }
      ],
      "stateMutability": "view",
      "type": "function",
      "constant": true
    },
    {
      "inputs": [
        {
          "internalType": "bytes32",
          "name": "_key",
          "type": "bytes32"
        },
        {
          "internalType": "string",
          "name": "_country",
          "type": "string"
        },
        {
          "internalType": "string",
          "name": "_state",
          "type": "string"
        },
        {
          "internalType": "string",
          "name": "_city",
          "type": "string"
        }
      ],
      "name": "getIOUsbyCity",
      "outputs": [
        {
          "internalType": "address[]",
          "name": "",
          "type": "address[]"
        }
      ],
      "stateMutability": "view",
      "type": "function",
      "constant": true
    },
    {
      "inputs": [
        {
          "internalType": "bytes32",
          "name": "_key",
          "type": "bytes32"
        },
        {
          "internalType": "string",
          "name": "_country",
          "type": "string"
        },
        {
          "internalType": "string",
          "name": "_state",
          "type": "string"
        },
        {
          "internalType": "string",
          "name": "_city",
          "type": "string"
        },
        {
          "internalType": "string",
          "name": "_street",
          "type": "string"
        }
      ],
      "name": "getIOUsbyStreet",
      "outputs": [
        {
          "internalType": "address[]",
          "name": "",
          "type": "address[]"
        }
      ],
      "stateMutability": "view",
      "type": "function",
      "constant": true
    }
  ],
  "bytecode": "0x608060405234801561001057600080fd5b506122af806100206000396000f3fe608060405234801561001057600080fd5b506004361061014c5760003560e01c806376f7f6de116100c3578063c5ab15291161007c578063c5ab1529146102d2578063d107704d146102e5578063e03e56a9146102f8578063e83d90f41461030b578063f22c3bc31461031e578063f466013d1461032657600080fd5b806376f7f6de1461024d5780638129fc1c1461026257806386027896146102795780638bcd06551461028c578063b21b44511461029f578063b442fc61146102bf57600080fd5b80634f2c272a116101155780634f2c272a146101db57806352fae04e146101ee5780635596b2ab146102015780635899d142146102145780635bb47808146102275780636e01acb81461023a57600080fd5b8062a50d811461015157806313af40351461018157806323b3af891461019657806330b02b21146101a957806331df3737146101bb575b600080fd5b61016461015f366004611962565b610339565b6040516001600160a01b0390911681526020015b60405180910390f35b61019461018f36600461198e565b610371565b005b6101946101a43660046119b2565b6103eb565b6009545b604051908152602001610178565b6101ce6101c936600461198e565b6104a6565b60405161017891906119eb565b6101ce6101e9366004611a38565b61051a565b6101ad6101fc366004611a38565b610584565b6101ce61020f366004611b5f565b6105a5565b6101946102223660046119b2565b610688565b61019461023536600461198e565b61084c565b6101ce61024836600461198e565b6108c1565b610255610935565b6040516101789190611c15565b610194600d80546001600160a01b03191633179055565b610194610287366004611c4d565b61098d565b61019461029a366004611c4d565b6109f3565b6101ad6102ad36600461198e565b60036020526000908152604090205481565b6101646102cd366004611a38565b610a59565b6101646102e0366004611a38565b610a83565b6101946102f3366004611cd2565b610a93565b6101ce610306366004611d0d565b610b92565b6101ce610319366004611d49565b610c0a565b6008546101ad565b610164610334366004611962565b610cd0565b6000602052816000526040600020818154811061035557600080fd5b6000918252602090912001546001600160a01b03169150829050565b600d546001600160a01b031633146103c95760405162461bcd60e51b81526020600482015260166024820152754f6e6c79206f776e65722063616e20646f207468697360501b60448201526064015b60405180910390fd5b600d80546001600160a01b0319166001600160a01b0392909216919091179055565b806001600160a01b03811633146104145760405162461bcd60e51b81526004016103c090611dda565b6001600160a01b0380841660009081526004602090815260408083209386168352929052205460ff166104a1576001600160a01b0383811660008181526002602090815260408083208054600180820183559185528385200180546001600160a01b03191696891696871790559383526004825280832094835293905291909120805460ff191690911790555b505050565b6001600160a01b0381166000908152602081815260409182902080548351818402810184019094528084526060939283018282801561050e57602002820191906000526020600020905b81546001600160a01b031681526001909101906020018083116104f0575b50505050509050919050565b60008181526005602090815260409182902080548351818402810184019094528084526060939283018282801561050e576020028201919060005260206000209081546001600160a01b031681526001909101906020018083116104f05750505050509050919050565b6007818154811061059457600080fd5b600091825260209091200154905081565b6060600b6000878152602001908152602001600020856040516105c89190611e3d565b9081526020016040518091039020846040516105e49190611e3d565b9081526020016040518091039020836040516106009190611e3d565b90815260200160405180910390208260405161061c9190611e3d565b908152604080519182900360209081018320805480830285018301909352828452919083018282801561067857602002820191906000526020600020905b81546001600160a01b0316815260019091019060200180831161065a575b5050505050905095945050505050565b600880546001810182557ff3f7a9fe364faab93b216da50a3214154f22a0a2b415b23a84c8169e8b636ee30180546001600160a01b0319166001600160a01b03858116918217909255915460009283526003602090815260408085209290925591841683529082905290205461074457600980546001810182556000919091527f6e1540171b6c0c960b71a7020d9f60077f6af931a8bbf590da0223dacf75c7af0180546001600160a01b0319166001600160a01b0383161790555b6001600160a01b03818116600090815260208181526040808320805460018101825590845291832090910180546001600160a01b03191693861693841790558051630295d8d960e21b81529051859391630a57636491600480830192869291908290030181865afa1580156107bd573d6000803e3d6000fd5b505050506040513d6000823e601f3d908101601f191682016040526107e59190810190611fe5565b905060018160c001516040516107fb9190611e3d565b90815260405160209181900382019020805460018101825560009182529190200180546001600160a01b0319166001600160a01b038616179055610120810151610846908590610cec565b50505050565b600d546001600160a01b0316331461089f5760405162461bcd60e51b81526020600482015260166024820152754f6e6c79206f776e65722063616e20646f207468697360501b60448201526064016103c0565b600e80546001600160a01b0319166001600160a01b0392909216919091179055565b6001600160a01b03811660009081526002602090815260409182902080548351818402810184019094528084526060939283018282801561050e576020028201919060005260206000209081546001600160a01b031681526001909101906020018083116104f05750505050509050919050565b6060600780548060200260200160405190810160405280929190818152602001828054801561098357602002820191906000526020600020905b81548152602001906001019080831161096f575b5050505050905090565b806001600160a01b03811633146109b65760405162461bcd60e51b81526004016103c090611dda565b61084682858580806020026020016040519081016040528093929190818152602001838360200280828437600092019190915250610cec92505050565b806001600160a01b0381163314610a1c5760405162461bcd60e51b81526004016103c090611dda565b61084682858580806020026020016040519081016040528093929190818152602001838360200280828437600092019190915250610ee792505050565b60098181548110610a6957600080fd5b6000918252602090912001546001600160a01b0316905081565b60088181548110610a6957600080fd5b806001600160a01b0381163314610abc5760405162461bcd60e51b81526004016103c090611dda565b6000826001600160a01b0316630a5763646040518163ffffffff1660e01b8152600401600060405180830381865afa158015610afc573d6000803e3d6000fd5b505050506040513d6000823e601f3d908101601f19168201604052610b249190810190611fe5565b6101200151905060005b81518160ff161015610b8b576000828260ff1681518110610b5157610b5161212e565b60200260200101519050610b658582611058565b610b7885610b7288612144565b83611688565b5080610b8381612204565b915050610b2e565b5050505050565b6060600182604051610ba49190611e3d565b908152604080519182900360209081018320805480830285018301909352828452919083018282801561050e576020028201919060005260206000209081546001600160a01b031681526001909101906020018083116104f05750505050509050919050565b6060600a600086815260200190815260200160002084604051610c2d9190611e3d565b908152602001604051809103902083604051610c499190611e3d565b908152602001604051809103902082604051610c659190611e3d565b9081526040805191829003602090810183208054808302850183019093528284529190830182828015610cc157602002820191906000526020600020905b81546001600160a01b03168152600190910190602001808311610ca3575b50505050509050949350505050565b6002602052816000526040600020818154811061035557600080fd5b60006005825111610cfe578151610d01565b60055b905060005b818160ff161015610846576000838260ff1681518110610d2857610d2861212e565b602002602001015190506000801b811115610ed457600081815260056020908152604080832080548251818502810185019093528083529192909190830182828015610d9d57602002820191906000526020600020905b81546001600160a01b03168152600190910190602001808311610d7f575b50505050509050805160001415610de457600780546001810182556000919091527fa66cc928b5edb82af9bd49922954155ab7b0942694bea4ce44661d9a8736c688018290555b60008281526006602090815260408083206001600160a01b038a168452909152902054610e5d57600082815260056020908152604080832080546001810182558185528385200180546001600160a01b0319166001600160a01b038c169081179091558685529054600684528285209185529252909120555b610ed286876001600160a01b0316630a5763646040518163ffffffff1660e01b8152600401600060405180830381865afa158015610e9f573d6000803e3d6000fd5b505050506040513d6000823e601f3d908101601f19168201604052610ec79190810190611fe5565b610100015184611688565b505b5080610edf81612204565b915050610d06565b60006005825111610ef9578151610efc565b60055b905060005b818160ff161015610846576000838260ff1681518110610f2357610f2361212e565b602002602001015190506000801b8111156110455760008181526006602090815260408083206001600160a01b038916845290915290205480156110435760008281526005602052604090208054610f7d90600190612224565b81548110610f8d57610f8d61212e565b6000918252602080832090910154848352600590915260409091206001600160a01b0390911690610fbf600184612224565b81548110610fcf57610fcf61212e565b600091825260208083209190910180546001600160a01b0319166001600160a01b0394909416939093179092558381526005909152604090208054806110175761101761223b565b600082815260209020810160001990810180546001600160a01b03191690550190556110438683611058565b505b508061105081612204565b915050610f01565b6000826001600160a01b0316630a5763646040518163ffffffff1660e01b8152600401600060405180830381865afa158015611098573d6000803e3d6000fd5b505050506040513d6000823e601f3d908101601f191682016040526110c09190810190611fe5565b61010001516000838152600a60205260408082208351915193945091926110e79190611e3d565b908152602001604051809103902082602001516040516111079190611e3d565b908152602001604051809103902082604001516040516111279190611e3d565b908152604080519182900360209081018320546000878152600a9092529190208451919350916111579190611e3d565b908152602001604051809103902082602001516040516111779190611e3d565b908152602001604051809103902082604001516040516111979190611e3d565b9081526040519081900360200190206111b1600183612224565b815481106111c1576111c161212e565b6000918252602080832090910154858352600a909152604091829020845192516001600160a01b039092169290916111f99190611e3d565b908152602001604051809103902083602001516040516112199190611e3d565b908152602001604051809103902083604001516040516112399190611e3d565b90815260408051602092819003830190206001600160a01b0388166000908152600c909352912054611276906001906001600160401b0316612251565b6001600160401b03168154811061128f5761128f61212e565b9060005260206000200160006101000a8154816001600160a01b0302191690836001600160a01b03160217905550600a600084815260200190815260200160002082600001516040516112e29190611e3d565b908152602001604051809103902082602001516040516113029190611e3d565b908152602001604051809103902082604001516040516113229190611e3d565b908152602001604051809103902080548061133f5761133f61223b565b60008281526020808220830160001990810180546001600160a01b0319169055909201909255848252600b905260409081902083519151909161138191611e3d565b908152602001604051809103902082602001516040516113a19190611e3d565b908152602001604051809103902082604001516040516113c19190611e3d565b908152602001604051809103902082606001516040516113e19190611e3d565b908152604080519182900360209081018320546000878152600b9092529190208451919350916114119190611e3d565b908152602001604051809103902082602001516040516114319190611e3d565b908152602001604051809103902082604001516040516114519190611e3d565b908152602001604051809103902082606001516040516114719190611e3d565b90815260405190819003602001902061148b600183612224565b8154811061149b5761149b61212e565b6000918252602080832090910154858352600b909152604091829020845192516001600160a01b039092169290916114d39190611e3d565b908152602001604051809103902083602001516040516114f39190611e3d565b908152602001604051809103902083604001516040516115139190611e3d565b908152602001604051809103902083606001516040516115339190611e3d565b90815260408051602092819003830190206001600160a01b0388166000908152600c90935291205461157790600190600160401b90046001600160401b0316612251565b6001600160401b0316815481106115905761159061212e565b9060005260206000200160006101000a8154816001600160a01b0302191690836001600160a01b03160217905550600b600084815260200190815260200160002082600001516040516115e39190611e3d565b908152602001604051809103902082602001516040516116039190611e3d565b908152602001604051809103902082604001516040516116239190611e3d565b908152602001604051809103902082606001516040516116439190611e3d565b90815260200160405180910390208054806116605761166061223b565b600082815260209020810160001990810180546001600160a01b031916905501905550505050565b6000818152600a6020526040908190208351915190916116a791611e3d565b908152602001604051809103902082602001516040516116c79190611e3d565b908152602001604051809103902082604001516040516116e79190611e3d565b9081526040805160209281900383018120805460018101825560009182528482200180546001600160a01b0319166001600160a01b038916179055848152600a90935291208351909161173a9190611e3d565b9081526020016040518091039020826020015160405161175a9190611e3d565b9081526020016040518091039020826040015160405161177a9190611e3d565b9081526040805160209281900383018120546001600160a01b0387166000908152600c8552838120805467ffffffffffffffff19166001600160401b0390931692909217909155848152600b9093529120835190916117d99190611e3d565b908152602001604051809103902082602001516040516117f99190611e3d565b908152602001604051809103902082604001516040516118199190611e3d565b908152602001604051809103902082606001516040516118399190611e3d565b9081526040805160209281900383018120805460018101825560009182528482200180546001600160a01b0319166001600160a01b038916179055848152600b90935291208351909161188c9190611e3d565b908152602001604051809103902082602001516040516118ac9190611e3d565b908152602001604051809103902082604001516040516118cc9190611e3d565b908152602001604051809103902082606001516040516118ec9190611e3d565b90815260408051918290036020908101909220546001600160a01b039095166000908152600c909252902080546001600160401b03909416600160401b026fffffffffffffffff000000000000000019909416939093179092555050565b6001600160a01b038116811461195f57600080fd5b50565b6000806040838503121561197557600080fd5b82356119808161194a565b946020939093013593505050565b6000602082840312156119a057600080fd5b81356119ab8161194a565b9392505050565b600080604083850312156119c557600080fd5b82356119d08161194a565b915060208301356119e08161194a565b809150509250929050565b6020808252825182820181905260009190848201906040850190845b81811015611a2c5783516001600160a01b031683529284019291840191600101611a07565b50909695505050505050565b600060208284031215611a4a57600080fd5b5035919050565b634e487b7160e01b600052604160045260246000fd5b604051608081016001600160401b0381118282101715611a8957611a89611a51565b60405290565b60405161016081016001600160401b0381118282101715611a8957611a89611a51565b604051601f8201601f191681016001600160401b0381118282101715611ada57611ada611a51565b604052919050565b60006001600160401b03821115611afb57611afb611a51565b50601f01601f191660200190565b600082601f830112611b1a57600080fd5b8135611b2d611b2882611ae2565b611ab2565b818152846020838601011115611b4257600080fd5b816020850160208301376000918101602001919091529392505050565b600080600080600060a08688031215611b7757600080fd5b8535945060208601356001600160401b0380821115611b9557600080fd5b611ba189838a01611b09565b95506040880135915080821115611bb757600080fd5b611bc389838a01611b09565b94506060880135915080821115611bd957600080fd5b611be589838a01611b09565b93506080880135915080821115611bfb57600080fd5b50611c0888828901611b09565b9150509295509295909350565b6020808252825182820181905260009190848201906040850190845b81811015611a2c57835183529284019291840191600101611c31565b600080600060408486031215611c6257600080fd5b83356001600160401b0380821115611c7957600080fd5b818601915086601f830112611c8d57600080fd5b813581811115611c9c57600080fd5b8760208260051b8501011115611cb157600080fd5b60209283019550935050840135611cc78161194a565b809150509250925092565b60008060408385031215611ce557600080fd5b82356001600160401b03811115611cfb57600080fd5b8301608081860312156119d057600080fd5b600060208284031215611d1f57600080fd5b81356001600160401b03811115611d3557600080fd5b611d4184828501611b09565b949350505050565b60008060008060808587031215611d5f57600080fd5b8435935060208501356001600160401b0380821115611d7d57600080fd5b611d8988838901611b09565b94506040870135915080821115611d9f57600080fd5b611dab88838901611b09565b93506060870135915080821115611dc157600080fd5b50611dce87828801611b09565b91505092959194509250565b6020808252601c908201527f4f6e6c79206f776e20646174612063616e206265206368616e67656400000000604082015260600190565b60005b83811015611e2c578181015183820152602001611e14565b838111156108465750506000910152565b60008251611e4f818460208701611e11565b9190910192915050565b8051611e648161194a565b919050565b600082601f830112611e7a57600080fd5b8151611e88611b2882611ae2565b818152846020838601011115611e9d57600080fd5b611d41826020830160208701611e11565b600060808284031215611ec057600080fd5b611ec8611a67565b905081516001600160401b0380821115611ee157600080fd5b611eed85838601611e69565b83526020840151915080821115611f0357600080fd5b611f0f85838601611e69565b60208401526040840151915080821115611f2857600080fd5b611f3485838601611e69565b60408401526060840151915080821115611f4d57600080fd5b50611f5a84828501611e69565b60608301525092915050565b600082601f830112611f7757600080fd5b815160206001600160401b03821115611f9257611f92611a51565b8160051b611fa1828201611ab2565b9283528481018201928281019087851115611fbb57600080fd5b83870192505b84831015611fda57825182529183019190830190611fc1565b979650505050505050565b600060208284031215611ff757600080fd5b81516001600160401b038082111561200e57600080fd5b90830190610160828603121561202357600080fd5b61202b611a8f565b8251815260208301516020820152604083015160408201526060830151606082015261205960808401611e59565b608082015260a08301518281111561207057600080fd5b61207c87828601611e69565b60a08301525060c08301518281111561209457600080fd5b6120a087828601611e69565b60c08301525060e0830151828111156120b857600080fd5b6120c487828601611e69565b60e08301525061010080840151838111156120de57600080fd5b6120ea88828701611eae565b828401525050610120808401518381111561210457600080fd5b61211088828701611f66565b91830191909152506101409283015192810192909252509392505050565b634e487b7160e01b600052603260045260246000fd5b60006080823603121561215657600080fd5b61215e611a67565b82356001600160401b038082111561217557600080fd5b61218136838701611b09565b8352602085013591508082111561219757600080fd5b6121a336838701611b09565b602084015260408501359150808211156121bc57600080fd5b6121c836838701611b09565b604084015260608501359150808211156121e157600080fd5b50611f5a36828601611b09565b634e487b7160e01b600052601160045260246000fd5b600060ff821660ff81141561221b5761221b6121ee565b60010192915050565b600082821015612236576122366121ee565b500390565b634e487b7160e01b600052603160045260246000fd5b60006001600160401b0383811690831681811015612271576122716121ee565b03939250505056fea2646970667358221220377e2e67ae98bcf8ee4bd5309fedfff990cf1f0b19a5b8e509dcb4364fd60b2164736f6c634300080a0033",
  "immutableReferences": {},
  "source": "pragma solidity >=  0.8.0;\npragma experimental ABIEncoderV2;\nimport \"./interfaces/iStoreIOUs.sol\";\nimport \"./interfaces/iIOUtoken.sol\";\nimport \"./Initializable.sol\";\n\n\ncontract StoreIOUs is iStoreIOUs {\n//todo : break this brick \n    mapping (address => address[]) public listIOUs; // list of emitted IOUs from emitent\n    mapping (string => address[])   listIOUsSoc; // list of emitted IOUs by social profile\n    mapping (address => address[]) public listHoldersIOUs; //list of tokens by holder\n    mapping (address => uint256) public isIOU; //security check is token emitted \n    mapping (address => mapping (address => bool)) isHolderthisIOU; //  check list of tokens by holder\n\n    mapping (bytes32 => address[]) listbyKeys; //list of IOUs by keyword\n    mapping (bytes32 => \n     mapping (address => uint256))  keyByList; //reverse index for listbyKeys to editing keywords\n    bytes32[] public allKeywords;  //list all keywords\n    address[] public allIOU; //list all emitted IOus\n    address[] public allIssuers; //list all issuers of  IOus\n\n    mapping (bytes32 => // keyword\n     mapping (string =>  // (country\n      mapping (string =>  //  state \n       mapping (string =>  //street\n        address[])))) internal  listbyCity_; // (keyword => country =>state =>city) => of IOUs\n    \n    mapping (bytes32 => // keyword\n     mapping (string =>  // country\n      mapping (string =>  //  state \n       mapping (string =>  //  city \n        mapping (string =>  //street\n          address[]))))) internal listbyStreet_; // (keyword=>country=> state => city =>street) => IOU \n\n    mapping (address => geoIOU ) posIOU;\n\n\n    address owner;\n    address makeFactory;\n\n    //constructor ()  {\n    function initialize () public {\n        owner = msg.sender;\n    }\n\n    modifier onlyOwner() {\n        require (owner == msg.sender, \"Only owner can do this\");\n        _;\n    }\n\n/*     modifier onlyFactory() {\n/*         require (makeFactory != address(0x0), \"No makeFactory address\");\n        require (makeFactory == msg.sender, \"Only makeFactory can do this\"); \n        _;\n    }\n\n    modifier isIOUtoken () {\n        require (makeFactory == msg.sender || isIOU[msg.sender] > 0 , \"Not IOU token calls\" );\n        _;\n    }\n */\n    function setOwner (address _newOwner) public onlyOwner {\n        owner = _newOwner;\n    }\n\n    function setFactory (address _newFact) public onlyOwner {\n        makeFactory = _newFact;\n    }\n\n    modifier onlySelf(address _addrIOU) {\n       // iIOUtoken.DescriptionIOU memory desc = iIOUtoken(_addrIOU).thisIOUDesc();\n        require (_addrIOU == msg.sender, \"Only own data can be changed\");\n        _;\n    }\n\n    function addIOU1 (address _addrIOU, address _emitent) public override  {\n        \n        allIOU.push(_addrIOU);\n        isIOU[_addrIOU] = allIOU.length;\n\n        if (listIOUs[_emitent].length == 0) {\n            allIssuers.push(_emitent); \n        }\n        listIOUs[_emitent].push(_addrIOU);\n        iIOUtoken curIOU =  iIOUtoken(_addrIOU);\n        iIOUtoken.DescriptionIOU memory thisIOU = curIOU.thisIOUDesc();\n        listIOUsSoc[thisIOU.socialProfile].push(_addrIOU);\n        _addKeys(_addrIOU, thisIOU.keywords);\n    }\n\n\n    function addKeys (bytes32[] calldata _keywords, address _addrIOU ) public onlySelf (_addrIOU) override {\n        _addKeys(_addrIOU, _keywords);\n    }\n    function delKeys (bytes32[] calldata _keywords, address _addrIOU ) public onlySelf (_addrIOU) override {\n        _delKeys(_addrIOU, _keywords);\n    }\n\n    \n    /// when changed geolocation\n    function changeIOUGeoAllkeys  (iIOUtoken.geo calldata _newloc, address _addrIOU ) external override onlySelf (_addrIOU) {\n        bytes32[] memory keys = iIOUtoken(_addrIOU).thisIOUDesc().keywords;\n        for (uint8 k=0; k<keys.length; k++)  {  \n            bytes32 key = keys[k];\n            _delkeyIOUGeo(_addrIOU, key);\n            _setIOUGeo(_addrIOU, _newloc, key);          \n\n            }\n    }\n    function _addKeys (address _addrIOU, bytes32[] memory _keywords) internal{\n\n        uint lenArr = _keywords.length > 5 ? 5: _keywords.length;\n        for (uint8 k=0 ; k < lenArr ; k++){\n            bytes32 key = _keywords[k];\n                if (key > 0 ){\n                    address[] memory lbk = listbyKeys[key];\n                    if  (lbk.length == 0 ) { // new keyword, never used in IOUs before\n                        allKeywords.push(key);\n                    }\n                    if (keyByList[key][_addrIOU] == 0) {\n                        listbyKeys[key].push(_addrIOU);\n                        keyByList[key][_addrIOU] = listbyKeys[key].length;\n                    }\n                    _setIOUGeo(_addrIOU,\n                            iIOUtoken(_addrIOU).thisIOUDesc().location, \n                            key);\n                }\n            } \n    }\n\n\n    function _delKeys (address _addrIOU, bytes32[] memory _keywords) internal{\n\n        uint lenArr = _keywords.length > 5 ? 5: _keywords.length;\n        for (uint8 k=0 ; k < lenArr ; k++){\n            bytes32 key = _keywords[k];\n            if (key > 0 ){\n                uint keyNum = keyByList[key][_addrIOU];\n                if  (keyNum > 0 ) {\n                    listbyKeys[key][keyNum-1] = \n                    listbyKeys[key][\n                      listbyKeys[key].length -1];\n                    listbyKeys[key].pop();\n                    _delkeyIOUGeo(_addrIOU, key);\n                }\n \n            }\n        } \n    }\n\n\n    function _setIOUGeo (address _addrIOU, \n                        iIOUtoken.geo memory _loc,\n                        bytes32 _key) internal { //public  onlySelf (_addrIOU)\n\n        listbyCity_[_key] [_loc.country][_loc.state][_loc.city].push(_addrIOU);\n        posIOU[_addrIOU].inCity = uint64(listbyCity_[_key][_loc.country][_loc.state][_loc.city].length);\n        listbyStreet_[_key][_loc.country][_loc.state][_loc.city][_loc.street].push(_addrIOU);\n        posIOU[_addrIOU].onStreet = uint64(listbyStreet_[_key][_loc.country][_loc.state][_loc.city][_loc.street].length);\n\n    }\n\n    function _delkeyIOUGeo  (address _addrIOU, \n                            bytes32 key) internal {\n\n        iIOUtoken.geo memory curr = iIOUtoken(_addrIOU).thisIOUDesc().location;\n\n        uint curlen = listbyCity_[key][curr.country][curr.state][curr.city].length;\n        // delete old key connection\n        listbyCity_[key][curr.country][curr.state][curr.city][posIOU[_addrIOU].inCity -1] = \n        listbyCity_[key][curr.country][curr.state][curr.city][curlen-1];\n        listbyCity_[key][curr.country][curr.state][curr.city].pop();\n\n        curlen = listbyStreet_[key][curr.country][curr.state][curr.city][curr.street].length;\n        listbyStreet_[key][curr.country][curr.state][curr.city][curr.street][posIOU[_addrIOU].onStreet -1] = \n        listbyStreet_[key][curr.country][curr.state][curr.city][curr.street][curlen-1];\n        listbyStreet_[key][curr.country][curr.state][curr.city][curr.street].pop();\n        \n        }\n\n\n\n    function addHolder(address _holder, address _IOUtoken) public override onlySelf (_IOUtoken) {\n        if (!isHolderthisIOU[_holder][_IOUtoken] ) {\n            listHoldersIOUs [_holder].push(_IOUtoken);\n            isHolderthisIOU[_holder][_IOUtoken] = true;\n        }\n    }\n\n    function getIOUList (address _owner) public override view returns (address[] memory) {\n            return listIOUs[_owner];\n        }\n\n    function getIOUListSoc (string memory _profile) public override view returns (address[] memory) {\n            return listIOUsSoc[_profile];\n                }\n\n    function getIOUListKey (bytes32 _key) public override view returns (address[] memory) {\n            return listbyKeys[_key];\n                }\n\n\n    function getIOUListHold (address _holder) public view override returns (address[] memory) {\n            return listHoldersIOUs [_holder];\n        }\n\n    function getIOUstotal () public view override  returns (uint256)\n    {\n        return allIOU.length;\n    }    \n\n    function getKeystotal () public view override returns (bytes32[] memory) \n    {\n        return allKeywords;\n    }    \n\n    function getIssuerstotal () public view override returns (uint256)\n    {\n        return allIssuers.length;\n    }\n\n    function getIOUsbyCity(bytes32 _key,\n                            string memory _country,\n                            string memory _state,\n                            string memory _city) public  view returns (address[] memory) {\n                return listbyCity_  [_key][_country][_state][_city];\n            }\n\n    function getIOUsbyStreet (bytes32 _key,\n                        string memory _country,\n                        string memory _state,\n                        string memory _city,\n                        string memory _street) public view returns (address[] memory) {\n            return listbyStreet_[_key][_country][_state][_city][_street];\n                }\n\n\n    }",
  "sourcePath": "/mnt/512-2/dfd/iou2/contracts/StoreIOUs.sol",
  "compiler": {
    "name": "solc",
    "version": "0.8.10+commit.fc410830.Emscripten.clang"
  },
  "schemaVersion": "3.4.4",
  "updatedAt": "2022-01-29T17:11:28.069Z",
  "networkType": "ethereum",
  "devdoc": {
    "kind": "dev",
    "methods": {},
    "version": 1
  },
  "userdoc": {
    "kind": "user",
    "methods": {
      "changeIOUGeoAllkeys((string,string,string,string),address)": {
        "notice": "when changed geolocation"
      }
    },
    "version": 1
  }
}