{
  "contractName": "StoreIOUs",
  "abi": [
    {
      "inputs": [
        {
          "internalType": "uint256",
          "name": "",
          "type": "uint256"
        }
      ],
      "name": "allIOU",
      "outputs": [
        {
          "internalType": "address",
          "name": "",
          "type": "address"
        }
      ],
      "stateMutability": "view",
      "type": "function",
      "constant": true
    },
    {
      "inputs": [
        {
          "internalType": "uint256",
          "name": "",
          "type": "uint256"
        }
      ],
      "name": "allIssuers",
      "outputs": [
        {
          "internalType": "address",
          "name": "",
          "type": "address"
        }
      ],
      "stateMutability": "view",
      "type": "function",
      "constant": true
    },
    {
      "inputs": [
        {
          "internalType": "uint256",
          "name": "",
          "type": "uint256"
        }
      ],
      "name": "allKeywords",
      "outputs": [
        {
          "internalType": "bytes32",
          "name": "",
          "type": "bytes32"
        }
      ],
      "stateMutability": "view",
      "type": "function",
      "constant": true
    },
    {
      "inputs": [
        {
          "internalType": "address",
          "name": "",
          "type": "address"
        }
      ],
      "name": "isIOU",
      "outputs": [
        {
          "internalType": "uint256",
          "name": "",
          "type": "uint256"
        }
      ],
      "stateMutability": "view",
      "type": "function",
      "constant": true
    },
    {
      "inputs": [
        {
          "internalType": "address",
          "name": "",
          "type": "address"
        },
        {
          "internalType": "uint256",
          "name": "",
          "type": "uint256"
        }
      ],
      "name": "listHoldersIOUs",
      "outputs": [
        {
          "internalType": "address",
          "name": "",
          "type": "address"
        }
      ],
      "stateMutability": "view",
      "type": "function",
      "constant": true
    },
    {
      "inputs": [
        {
          "internalType": "address",
          "name": "",
          "type": "address"
        },
        {
          "internalType": "uint256",
          "name": "",
          "type": "uint256"
        }
      ],
      "name": "listIOUs",
      "outputs": [
        {
          "internalType": "address",
          "name": "",
          "type": "address"
        }
      ],
      "stateMutability": "view",
      "type": "function",
      "constant": true
    },
    {
      "inputs": [],
      "name": "initialize",
      "outputs": [],
      "stateMutability": "nonpayable",
      "type": "function"
    },
    {
      "inputs": [
        {
          "internalType": "address",
          "name": "_newOwner",
          "type": "address"
        }
      ],
      "name": "setOwner",
      "outputs": [],
      "stateMutability": "nonpayable",
      "type": "function"
    },
    {
      "inputs": [
        {
          "internalType": "address",
          "name": "_newFact",
          "type": "address"
        }
      ],
      "name": "setFactory",
      "outputs": [],
      "stateMutability": "nonpayable",
      "type": "function"
    },
    {
      "inputs": [
        {
          "internalType": "address",
          "name": "_addrIOU",
          "type": "address"
        },
        {
          "internalType": "address",
          "name": "_emitent",
          "type": "address"
        }
      ],
      "name": "addIOU1",
      "outputs": [],
      "stateMutability": "nonpayable",
      "type": "function"
    },
    {
      "inputs": [
        {
          "internalType": "bytes32[]",
          "name": "_keywords",
          "type": "bytes32[]"
        },
        {
          "internalType": "address",
          "name": "_addrIOU",
          "type": "address"
        }
      ],
      "name": "addKeys",
      "outputs": [],
      "stateMutability": "nonpayable",
      "type": "function"
    },
    {
      "inputs": [
        {
          "internalType": "bytes32[]",
          "name": "_keywords",
          "type": "bytes32[]"
        },
        {
          "internalType": "address",
          "name": "_addrIOU",
          "type": "address"
        }
      ],
      "name": "delKeys",
      "outputs": [],
      "stateMutability": "nonpayable",
      "type": "function"
    },
    {
      "inputs": [
        {
          "components": [
            {
              "internalType": "string",
              "name": "country",
              "type": "string"
            },
            {
              "internalType": "string",
              "name": "state",
              "type": "string"
            },
            {
              "internalType": "string",
              "name": "city",
              "type": "string"
            },
            {
              "internalType": "string",
              "name": "street",
              "type": "string"
            }
          ],
          "internalType": "struct iIOUtoken.geo",
          "name": "_loc",
          "type": "tuple"
        },
        {
          "internalType": "address",
          "name": "_addrIOU",
          "type": "address"
        }
      ],
      "name": "changeIOUGeoAllkeys",
      "outputs": [],
      "stateMutability": "nonpayable",
      "type": "function"
    },
    {
      "inputs": [
        {
          "internalType": "address",
          "name": "_holder",
          "type": "address"
        },
        {
          "internalType": "address",
          "name": "_IOUtoken",
          "type": "address"
        }
      ],
      "name": "addHolder",
      "outputs": [],
      "stateMutability": "nonpayable",
      "type": "function"
    },
    {
      "inputs": [
        {
          "internalType": "address",
          "name": "_owner",
          "type": "address"
        }
      ],
      "name": "getIOUList",
      "outputs": [
        {
          "internalType": "address[]",
          "name": "",
          "type": "address[]"
        }
      ],
      "stateMutability": "view",
      "type": "function",
      "constant": true
    },
    {
      "inputs": [
        {
          "internalType": "string",
          "name": "_profile",
          "type": "string"
        }
      ],
      "name": "getIOUListSoc",
      "outputs": [
        {
          "internalType": "address[]",
          "name": "",
          "type": "address[]"
        }
      ],
      "stateMutability": "view",
      "type": "function",
      "constant": true
    },
    {
      "inputs": [
        {
          "internalType": "bytes32",
          "name": "_key",
          "type": "bytes32"
        }
      ],
      "name": "getIOUListKey",
      "outputs": [
        {
          "internalType": "address[]",
          "name": "",
          "type": "address[]"
        }
      ],
      "stateMutability": "view",
      "type": "function",
      "constant": true
    },
    {
      "inputs": [
        {
          "internalType": "address",
          "name": "_holder",
          "type": "address"
        }
      ],
      "name": "getIOUListHold",
      "outputs": [
        {
          "internalType": "address[]",
          "name": "",
          "type": "address[]"
        }
      ],
      "stateMutability": "view",
      "type": "function",
      "constant": true
    },
    {
      "inputs": [],
      "name": "getIOUstotal",
      "outputs": [
        {
          "internalType": "uint256",
          "name": "",
          "type": "uint256"
        }
      ],
      "stateMutability": "view",
      "type": "function",
      "constant": true
    },
    {
      "inputs": [],
      "name": "getKeystotal",
      "outputs": [
        {
          "internalType": "bytes32[]",
          "name": "",
          "type": "bytes32[]"
        }
      ],
      "stateMutability": "view",
      "type": "function",
      "constant": true
    },
    {
      "inputs": [],
      "name": "getIssuerstotal",
      "outputs": [
        {
          "internalType": "uint256",
          "name": "",
          "type": "uint256"
        }
      ],
      "stateMutability": "view",
      "type": "function",
      "constant": true
    },
    {
      "inputs": [
        {
          "internalType": "bytes32",
          "name": "_key",
          "type": "bytes32"
        },
        {
          "internalType": "string",
          "name": "_country",
          "type": "string"
        },
        {
          "internalType": "string",
          "name": "_state",
          "type": "string"
        },
        {
          "internalType": "string",
          "name": "_city",
          "type": "string"
        }
      ],
      "name": "getIOUsbyCity",
      "outputs": [
        {
          "internalType": "address[]",
          "name": "",
          "type": "address[]"
        }
      ],
      "stateMutability": "view",
      "type": "function",
      "constant": true
    },
    {
      "inputs": [
        {
          "internalType": "bytes32",
          "name": "_key",
          "type": "bytes32"
        },
        {
          "internalType": "string",
          "name": "_country",
          "type": "string"
        },
        {
          "internalType": "string",
          "name": "_state",
          "type": "string"
        },
        {
          "internalType": "string",
          "name": "_city",
          "type": "string"
        },
        {
          "internalType": "string",
          "name": "_street",
          "type": "string"
        }
      ],
      "name": "getIOUsbyStreet",
      "outputs": [
        {
          "internalType": "address[]",
          "name": "",
          "type": "address[]"
        }
      ],
      "stateMutability": "view",
      "type": "function",
      "constant": true
    }
  ],
  "bytecode": "0x608060405234801561001057600080fd5b50612484806100206000396000f3fe608060405234801561001057600080fd5b506004361061014c5760003560e01c806376f7f6de116100c3578063c5ab15291161007c578063c5ab1529146102d2578063d107704d146102e5578063e03e56a9146102f8578063e83d90f41461030b578063f22c3bc31461031e578063f466013d1461032657600080fd5b806376f7f6de1461024d5780638129fc1c1461026257806386027896146102795780638bcd06551461028c578063b21b44511461029f578063b442fc61146102bf57600080fd5b80634f2c272a116101155780634f2c272a146101db57806352fae04e146101ee5780635596b2ab146102015780635899d142146102145780635bb47808146102275780636e01acb81461023a57600080fd5b8062a50d811461015157806313af40351461018157806323b3af891461019657806330b02b21146101a957806331df3737146101bb575b600080fd5b61016461015f366004611d84565b610339565b6040516001600160a01b0390911681526020015b60405180910390f35b61019461018f366004611d29565b610371565b005b6101946101a4366004611d4c565b6103eb565b6009545b604051908152602001610178565b6101ce6101c9366004611d29565b6104e5565b604051610178919061214c565b6101ce6101e9366004611e2f565b610559565b6101ad6101fc366004611e2f565b6105c3565b6101ce61020f366004611ed4565b6105e4565b610194610222366004611d4c565b6106c7565b610194610235366004611d29565b6108ec565b6101ce610248366004611d29565b610961565b6102556109d5565b6040516101789190612199565b610194600d80546001600160a01b03191633179055565b610194610287366004611daf565b610a2d565b61019461029a366004611daf565b610ac1565b6101ad6102ad366004611d29565b60036020526000908152604090205481565b6101646102cd366004611e2f565b610b50565b6101646102e0366004611e2f565b610b7a565b6101946102f33660046120f8565b610b8a565b6101ce610306366004611f85565b610cc8565b6101ce610319366004611e47565b610d40565b6008546101ad565b610164610334366004611d84565b610e06565b6000602052816000526040600020818154811061035557600080fd5b6000918252602090912001546001600160a01b03169150829050565b600d546001600160a01b031633146103c95760405162461bcd60e51b81526020600482015260166024820152754f6e6c79206f776e65722063616e20646f207468697360501b60448201526064015b60405180910390fd5b600d80546001600160a01b0319166001600160a01b0392909216919091179055565b600e546001600160a01b031633148061041257503360009081526003602052604090205415155b6104545760405162461bcd60e51b81526020600482015260136024820152724e6f7420494f5520746f6b656e2063616c6c7360681b60448201526064016103c0565b6001600160a01b0380831660009081526004602090815260408083209385168352929052205460ff166104e1576001600160a01b0382811660008181526002602090815260408083208054600180820183559185528385200180546001600160a01b03191696881696871790559383526004825280832094835293905291909120805460ff191690911790555b5050565b6001600160a01b0381166000908152602081815260409182902080548351818402810184019094528084526060939283018282801561054d57602002820191906000526020600020905b81546001600160a01b0316815260019091019060200180831161052f575b50505050509050919050565b60008181526005602090815260409182902080548351818402810184019094528084526060939283018282801561054d576020028201919060005260206000209081546001600160a01b0316815260019091019060200180831161052f5750505050509050919050565b600781815481106105d357600080fd5b600091825260209091200154905081565b6060600b6000878152602001908152602001600020856040516106079190612130565b9081526020016040518091039020846040516106239190612130565b90815260200160405180910390208360405161063f9190612130565b90815260200160405180910390208260405161065b9190612130565b90815260408051918290036020908101832080548083028501830190935282845291908301828280156106b757602002820191906000526020600020905b81546001600160a01b03168152600190910190602001808311610699575b5050505050905095945050505050565b600e546001600160a01b03166106ef5760405162461bcd60e51b81526004016103c090612208565b600e546001600160a01b031633146107195760405162461bcd60e51b81526004016103c0906121d1565b600880546001810182557ff3f7a9fe364faab93b216da50a3214154f22a0a2b415b23a84c8169e8b636ee30180546001600160a01b0319166001600160a01b0385811691821790925591546000928352600360209081526040808520929092559184168352908290529020546107d557600980546001810182556000919091527f6e1540171b6c0c960b71a7020d9f60077f6af931a8bbf590da0223dacf75c7af0180546001600160a01b0319166001600160a01b0383161790555b6001600160a01b03818116600090815260208181526040808320805460018101825590845291832090910180546001600160a01b03191693861693841790558051630295d8d960e21b81529051859391630a5763649160048083019286929190829003018186803b15801561084957600080fd5b505afa15801561085d573d6000803e3d6000fd5b505050506040513d6000823e601f3d908101601f191682016040526108859190810190611fb7565b905060018160c0015160405161089b9190612130565b90815260405160209181900382019020805460018101825560009182529190200180546001600160a01b0319166001600160a01b0386161790556101208101516108e6908590610e22565b50505050565b600d546001600160a01b0316331461093f5760405162461bcd60e51b81526020600482015260166024820152754f6e6c79206f776e65722063616e20646f207468697360501b60448201526064016103c0565b600e80546001600160a01b0319166001600160a01b0392909216919091179055565b6001600160a01b03811660009081526002602090815260409182902080548351818402810184019094528084526060939283018282801561054d576020028201919060005260206000209081546001600160a01b0316815260019091019060200180831161052f5750505050509050919050565b60606007805480602002602001604051908101604052809291908181526020018280548015610a2357602002820191906000526020600020905b815481526020019060010190808311610a0f575b5050505050905090565b600e546001600160a01b0316610a555760405162461bcd60e51b81526004016103c090612208565b600e546001600160a01b03163314610a7f5760405162461bcd60e51b81526004016103c0906121d1565b610abc81848480806020026020016040519081016040528093929190818152602001838360200280828437600092019190915250610e2292505050565b505050565b600e546001600160a01b0316610ae95760405162461bcd60e51b81526004016103c090612208565b600e546001600160a01b03163314610b135760405162461bcd60e51b81526004016103c0906121d1565b610abc8184848080602002602001604051908101604052809392919081815260200183836020028082843760009201919091525061103a92505050565b60098181548110610b6057600080fd5b6000918252602090912001546001600160a01b0316905081565b60088181548110610b6057600080fd5b600e546001600160a01b0316610bb25760405162461bcd60e51b81526004016103c090612208565b600e546001600160a01b03163314610bdc5760405162461bcd60e51b81526004016103c0906121d1565b6000816001600160a01b0316630a5763646040518163ffffffff1660e01b815260040160006040518083038186803b158015610c1757600080fd5b505afa158015610c2b573d6000803e3d6000fd5b505050506040513d6000823e601f3d908101601f19168201604052610c539190810190611fb7565b6101200151905060005b81518160ff1610156108e6576000828260ff1681518110610c8e57634e487b7160e01b600052603260045260246000fd5b60200260200101519050610ca284826111e9565b610cb584610caf87612319565b83611882565b5080610cc0816123ea565b915050610c5d565b6060600182604051610cda9190612130565b908152604080519182900360209081018320805480830285018301909352828452919083018282801561054d576020028201919060005260206000209081546001600160a01b0316815260019091019060200180831161052f5750505050509050919050565b6060600a600086815260200190815260200160002084604051610d639190612130565b908152602001604051809103902083604051610d7f9190612130565b908152602001604051809103902082604051610d9b9190612130565b9081526040805191829003602090810183208054808302850183019093528284529190830182828015610df757602002820191906000526020600020905b81546001600160a01b03168152600190910190602001808311610dd9575b50505050509050949350505050565b6002602052816000526040600020818154811061035557600080fd5b60006005825111610e34578151610e37565b60055b905060005b818160ff1610156108e6576000838260ff1681518110610e6c57634e487b7160e01b600052603260045260246000fd5b602002602001015190506000801b81111561102757600081815260056020908152604080832080548251818502810185019093528083529192909190830182828015610ee157602002820191906000526020600020905b81546001600160a01b03168152600190910190602001808311610ec3575b50505050509050805160001415610f2857600780546001810182556000919091527fa66cc928b5edb82af9bd49922954155ab7b0942694bea4ce44661d9a8736c688018290555b60008281526006602090815260408083206001600160a01b038a168452909152902054610fa157600082815260056020908152604080832080546001810182558185528385200180546001600160a01b0319166001600160a01b038c169081179091558685529054600684528285209185529252909120555b61102586876001600160a01b0316630a5763646040518163ffffffff1660e01b815260040160006040518083038186803b158015610fde57600080fd5b505afa158015610ff2573d6000803e3d6000fd5b505050506040513d6000823e601f3d908101601f1916820160405261101a9190810190611fb7565b610100015184611882565b505b5080611032816123ea565b915050610e3c565b6000600582511161104c57815161104f565b60055b905060005b818160ff1610156108e6576000838260ff168151811061108457634e487b7160e01b600052603260045260246000fd5b602002602001015190506000801b8111156111d65760008181526006602090815260408083206001600160a01b038916845290915290205480156111d457600082815260056020526040902080546110de906001906122da565b815481106110fc57634e487b7160e01b600052603260045260246000fd5b6000918252602080832090910154848352600590915260409091206001600160a01b039091169061112e6001846122da565b8154811061114c57634e487b7160e01b600052603260045260246000fd5b600091825260208083209190910180546001600160a01b0319166001600160a01b0394909416939093179092558381526005909152604090208054611193906001906122da565b815481106111b157634e487b7160e01b600052603260045260246000fd5b600091825260209091200180546001600160a01b03191690556111d486836111e9565b505b50806111e1816123ea565b915050611054565b6000826001600160a01b0316630a5763646040518163ffffffff1660e01b815260040160006040518083038186803b15801561122457600080fd5b505afa158015611238573d6000803e3d6000fd5b505050506040513d6000823e601f3d908101601f191682016040526112609190810190611fb7565b61010001516000838152600a60205260408082208351915193945091926112879190612130565b908152602001604051809103902082602001516040516112a79190612130565b908152602001604051809103902082604001516040516112c79190612130565b908152604080519182900360209081018320546000878152600a9092529190208451919350916112f79190612130565b908152602001604051809103902082602001516040516113179190612130565b908152602001604051809103902082604001516040516113379190612130565b9081526040519081900360200190206113516001836122da565b8154811061136f57634e487b7160e01b600052603260045260246000fd5b6000918252602080832090910154858352600a909152604091829020845192516001600160a01b039092169290916113a79190612130565b908152602001604051809103902083602001516040516113c79190612130565b908152602001604051809103902083604001516040516113e79190612130565b90815260408051602092819003830190206001600160a01b0388166000908152600c909352912054611424906001906001600160401b03166122f1565b6001600160401b03168154811061144b57634e487b7160e01b600052603260045260246000fd5b9060005260206000200160006101000a8154816001600160a01b0302191690836001600160a01b03160217905550600a6000848152602001908152602001600020826000015160405161149e9190612130565b908152602001604051809103902082602001516040516114be9190612130565b908152602001604051809103902082604001516040516114de9190612130565b9081526040519081900360200190206114f86001836122da565b8154811061151657634e487b7160e01b600052603260045260246000fd5b6000918252602080832090910180546001600160a01b0319169055848252600b905260409081902083519151909161154d91612130565b9081526020016040518091039020826020015160405161156d9190612130565b9081526020016040518091039020826040015160405161158d9190612130565b908152602001604051809103902082606001516040516115ad9190612130565b908152604080519182900360209081018320546000878152600b9092529190208451919350916115dd9190612130565b908152602001604051809103902082602001516040516115fd9190612130565b9081526020016040518091039020826040015160405161161d9190612130565b9081526020016040518091039020826060015160405161163d9190612130565b9081526040519081900360200190206116576001836122da565b8154811061167557634e487b7160e01b600052603260045260246000fd5b6000918252602080832090910154858352600b909152604091829020845192516001600160a01b039092169290916116ad9190612130565b908152602001604051809103902083602001516040516116cd9190612130565b908152602001604051809103902083604001516040516116ed9190612130565b9081526020016040518091039020836060015160405161170d9190612130565b90815260408051602092819003830190206001600160a01b0388166000908152600c90935291205461175190600190600160401b90046001600160401b03166122f1565b6001600160401b03168154811061177857634e487b7160e01b600052603260045260246000fd5b9060005260206000200160006101000a8154816001600160a01b0302191690836001600160a01b03160217905550600b600084815260200190815260200160002082600001516040516117cb9190612130565b908152602001604051809103902082602001516040516117eb9190612130565b9081526020016040518091039020826040015160405161180b9190612130565b9081526020016040518091039020826060015160405161182b9190612130565b9081526040519081900360200190206118456001836122da565b8154811061186357634e487b7160e01b600052603260045260246000fd5b600091825260209091200180546001600160a01b031916905550505050565b6000818152600a6020526040908190208351915190916118a191612130565b908152602001604051809103902082602001516040516118c19190612130565b908152602001604051809103902082604001516040516118e19190612130565b9081526040805160209281900383018120805460018101825560009182528482200180546001600160a01b0319166001600160a01b038916179055848152600a9093529120835190916119349190612130565b908152602001604051809103902082602001516040516119549190612130565b908152602001604051809103902082604001516040516119749190612130565b9081526040805160209281900383018120546001600160a01b0387166000908152600c8552838120805467ffffffffffffffff19166001600160401b0390931692909217909155848152600b9093529120835190916119d39190612130565b908152602001604051809103902082602001516040516119f39190612130565b90815260200160405180910390208260400151604051611a139190612130565b90815260200160405180910390208260600151604051611a339190612130565b9081526040805160209281900383018120805460018101825560009182528482200180546001600160a01b0319166001600160a01b038916179055848152600b909352912083519091611a869190612130565b90815260200160405180910390208260200151604051611aa69190612130565b90815260200160405180910390208260400151604051611ac69190612130565b90815260200160405180910390208260600151604051611ae69190612130565b90815260408051918290036020908101909220546001600160a01b039095166000908152600c909252902080546001600160401b03909416600160401b026fffffffffffffffff000000000000000019909416939093179092555050565b8051611b4f81612436565b919050565b600082601f830112611b64578081fd5b815160206001600160401b03821115611b7f57611b7f612420565b8160051b611b8e828201612283565b838152828101908684018388018501891015611ba8578687fd5b8693505b85841015611bca578051835260019390930192918401918401611bac565b50979650505050505050565b600082601f830112611be6578081fd5b8135611bf9611bf4826122b3565b612283565b818152846020838601011115611c0d578283fd5b816020850160208301379081016020019190915292915050565b600082601f830112611c37578081fd5b8151611c45611bf4826122b3565b818152846020838601011115611c59578283fd5b611c6a8260208301602087016123be565b949350505050565b600060808284031215611c83578081fd5b611c8b612238565b905081516001600160401b0380821115611ca457600080fd5b611cb085838601611c27565b83526020840151915080821115611cc657600080fd5b611cd285838601611c27565b60208401526040840151915080821115611ceb57600080fd5b611cf785838601611c27565b60408401526060840151915080821115611d1057600080fd5b50611d1d84828501611c27565b60608301525092915050565b600060208284031215611d3a578081fd5b8135611d4581612436565b9392505050565b60008060408385031215611d5e578081fd5b8235611d6981612436565b91506020830135611d7981612436565b809150509250929050565b60008060408385031215611d96578182fd5b8235611da181612436565b946020939093013593505050565b600080600060408486031215611dc3578081fd5b83356001600160401b0380821115611dd9578283fd5b818601915086601f830112611dec578283fd5b813581811115611dfa578384fd5b8760208260051b8501011115611e0e578384fd5b60209283019550935050840135611e2481612436565b809150509250925092565b600060208284031215611e40578081fd5b5035919050565b60008060008060808587031215611e5c578182fd5b8435935060208501356001600160401b0380821115611e79578384fd5b611e8588838901611bd6565b94506040870135915080821115611e9a578384fd5b611ea688838901611bd6565b93506060870135915080821115611ebb578283fd5b50611ec887828801611bd6565b91505092959194509250565b600080600080600060a08688031215611eeb578283fd5b8535945060208601356001600160401b0380821115611f08578485fd5b611f1489838a01611bd6565b95506040880135915080821115611f29578485fd5b611f3589838a01611bd6565b94506060880135915080821115611f4a578283fd5b611f5689838a01611bd6565b93506080880135915080821115611f6b578283fd5b50611f7888828901611bd6565b9150509295509295909350565b600060208284031215611f96578081fd5b81356001600160401b03811115611fab578182fd5b611c6a84828501611bd6565b600060208284031215611fc8578081fd5b81516001600160401b0380821115611fde578283fd5b908301906101608286031215611ff2578283fd5b611ffa612260565b8251815260208301516020820152604083015160408201526060830151606082015261202860808401611b44565b608082015260a08301518281111561203e578485fd5b61204a87828601611c27565b60a08301525060c083015182811115612061578485fd5b61206d87828601611c27565b60c08301525060e083015182811115612084578485fd5b61209087828601611c27565b60e08301525061010080840151838111156120a9578586fd5b6120b588828701611c72565b82840152505061012080840151838111156120ce578586fd5b6120da88828701611b54565b91830191909152506101409283015192810192909252509392505050565b6000806040838503121561210a578182fd5b82356001600160401b0381111561211f578283fd5b830160808186031215611d69578283fd5b600082516121428184602087016123be565b9190910192915050565b6020808252825182820181905260009190848201906040850190845b8181101561218d5783516001600160a01b031683529284019291840191600101612168565b50909695505050505050565b6020808252825182820181905260009190848201906040850190845b8181101561218d578351835292840192918401916001016121b5565b6020808252601c908201527f4f6e6c79206d616b65466163746f72792063616e20646f207468697300000000604082015260600190565b6020808252601690820152754e6f206d616b65466163746f7279206164647265737360501b604082015260600190565b604051608081016001600160401b038111828210171561225a5761225a612420565b60405290565b60405161016081016001600160401b038111828210171561225a5761225a612420565b604051601f8201601f191681016001600160401b03811182821017156122ab576122ab612420565b604052919050565b60006001600160401b038211156122cc576122cc612420565b50601f01601f191660200190565b6000828210156122ec576122ec61240a565b500390565b60006001600160401b03838116908316818110156123115761231161240a565b039392505050565b60006080823603121561232a578081fd5b612332612238565b82356001600160401b0380821115612348578384fd5b61235436838701611bd6565b83526020850135915080821115612369578384fd5b61237536838701611bd6565b6020840152604085013591508082111561238d578384fd5b61239936838701611bd6565b604084015260608501359150808211156123b1578384fd5b50611d1d36828601611bd6565b60005b838110156123d95781810151838201526020016123c1565b838111156108e65750506000910152565b600060ff821660ff8114156124015761240161240a565b60010192915050565b634e487b7160e01b600052601160045260246000fd5b634e487b7160e01b600052604160045260246000fd5b6001600160a01b038116811461244b57600080fd5b5056fea2646970667358221220484d1e2003e9ce404b9ec10a5bbf9e406ca23b5c3ed69facb1fcf8aad86d316464736f6c63430008040033",
  "immutableReferences": {},
  "source": "pragma solidity >=  0.8.0;\npragma experimental ABIEncoderV2;\nimport \"./interfaces/iStoreIOUs.sol\";\nimport \"./interfaces/iIOUtoken.sol\";\nimport \"./Initializable.sol\";\n\n\ncontract StoreIOUs is iStoreIOUs {\n//todo : break this brick \n    mapping (address => address[]) public listIOUs; // list of emitted IOUs from emitent\n    mapping (string => address[])   listIOUsSoc; // list of emitted IOUs by social profile\n    mapping (address => address[]) public listHoldersIOUs; //list of tokens by holder\n    mapping (address => uint256) public isIOU; //security check is token emitted \n    mapping (address => mapping (address => bool)) isHolderthisIOU; //  check list of tokens by holder\n\n    mapping (bytes32 => address[]) listbyKeys; //list of IOUs by keyword\n    mapping (bytes32 => \n     mapping (address => uint256))  keyByList; //reverse index for listbyKeys to editing keywords\n    bytes32[] public allKeywords;  //list all keywords\n    address[] public allIOU; //list all emitted IOus\n    address[] public allIssuers; //list all issuers of  IOus\n\n    mapping (bytes32 => // keyword\n     mapping (string =>  // (country\n      mapping (string =>  //  state \n       mapping (string =>  //street\n        address[])))) internal  listbyCity_; // (keyword => country =>state =>city) => of IOUs\n    \n    mapping (bytes32 => // keyword\n     mapping (string =>  // country\n      mapping (string =>  //  state \n       mapping (string =>  //  city \n        mapping (string =>  //street\n          address[]))))) internal listbyStreet_; // (keyword=>country=> state => city =>street) => IOU \n\n    mapping (address => geoIOU ) posIOU;\n\n\n    address owner;\n    address makeFactory;\n\n    //constructor ()  {\n    function initialize () public {\n        owner = msg.sender;\n    }\n\n    modifier onlyOwner() {\n        require (owner == msg.sender, \"Only owner can do this\");\n        _;\n    }\n\n    modifier onlyFactory() {\n        require (makeFactory != address(0x0), \"No makeFactory address\");\n        require (makeFactory == msg.sender, \"Only makeFactory can do this\");\n        _;\n    }\n\n    modifier isIOUtoken () {\n        require (makeFactory == msg.sender || isIOU[msg.sender] > 0 , \"Not IOU token calls\" );\n        _;\n    }\n\n    function setOwner (address _newOwner) public onlyOwner {\n        owner = _newOwner;\n    }\n\n    function setFactory (address _newFact) public onlyOwner {\n        makeFactory = _newFact;\n    }\n\n    modifier onlyissuer(address _addrIOU) {\n        iIOUtoken.DescriptionIOU memory desc = iIOUtoken(_addrIOU).thisIOUDesc();\n        require (desc.issuer == msg.sender, \"Only issuer can do this\");\n        _;\n    }\n\n    function addIOU1 (address _addrIOU, address _emitent) public override onlyFactory {\n        \n        allIOU.push(_addrIOU);\n        isIOU[_addrIOU] = allIOU.length;\n\n        if (listIOUs[_emitent].length == 0) {\n            allIssuers.push(_emitent); \n        }\n        listIOUs[_emitent].push(_addrIOU);\n        iIOUtoken curIOU =  iIOUtoken(_addrIOU);\n        iIOUtoken.DescriptionIOU memory thisIOU = curIOU.thisIOUDesc();\n        listIOUsSoc[thisIOU.socialProfile].push(_addrIOU);\n        _addKeys(_addrIOU, thisIOU.keywords);\n    }\n\n\n    function addKeys (bytes32[] calldata _keywords, address _addrIOU ) public onlyFactory override {\n        _addKeys(_addrIOU, _keywords);\n    }\n    function delKeys (bytes32[] calldata _keywords, address _addrIOU ) public onlyFactory override {\n        _delKeys(_addrIOU, _keywords);\n    }\n\n    \n    /// when changed geolocation\n       function changeIOUGeoAllkeys  (iIOUtoken.geo calldata _loc, address _addrIOU ) external override onlyFactory {\n        bytes32[] memory keys = iIOUtoken(_addrIOU).thisIOUDesc().keywords;\n        for (uint8 k=0; k<keys.length; k++)  {  \n            bytes32 key = keys[k];\n            _delkeyIOUGeo(_addrIOU, key);\n            _setIOUGeo(_addrIOU, _loc, key);          \n\n            }\n    }\n    function _addKeys (address _addrIOU, bytes32[] memory _keywords) internal{\n\n        uint lenArr = _keywords.length > 5 ? 5: _keywords.length;\n        for (uint8 k=0 ; k < lenArr ; k++){\n            bytes32 key = _keywords[k];\n                if (key > 0 ){\n                    address[] memory lbk = listbyKeys[key];\n                    if  (lbk.length == 0 ) { // new keyword, never used in IOUs before\n                        allKeywords.push(key);\n                    }\n                    if (keyByList[key][_addrIOU] == 0) {\n                        listbyKeys[key].push(_addrIOU);\n                        keyByList[key][_addrIOU] = listbyKeys[key].length;\n                    }\n                    _setIOUGeo(_addrIOU,\n                            iIOUtoken(_addrIOU).thisIOUDesc().location, \n                            key);\n                }\n            } \n    }\n\n\n    function _delKeys (address _addrIOU, bytes32[] memory _keywords) internal{\n\n        uint lenArr = _keywords.length > 5 ? 5: _keywords.length;\n        for (uint8 k=0 ; k < lenArr ; k++){\n            bytes32 key = _keywords[k];\n            if (key > 0 ){\n                uint keyNum = keyByList[key][_addrIOU];\n                if  (keyNum > 0 ) {\n                    listbyKeys[key][keyNum-1] = \n                    listbyKeys[key][\n                      listbyKeys[key].length -1];\n                    delete (listbyKeys[key][\n                            listbyKeys[key].length -1]);\n                    _delkeyIOUGeo(_addrIOU, key);\n                }\n \n            }\n        } \n    }\n\n\n    function _setIOUGeo (address _addrIOU, \n                        iIOUtoken.geo memory _loc,\n                        bytes32 _key) internal { //public  onlyissuer (_addrIOU)\n\n        listbyCity_[_key] [_loc.country][_loc.state][_loc.city].push(_addrIOU);\n        posIOU[_addrIOU].inCity = uint64(listbyCity_[_key][_loc.country][_loc.state][_loc.city].length);\n        listbyStreet_[_key][_loc.country][_loc.state][_loc.city][_loc.street].push(_addrIOU);\n        posIOU[_addrIOU].onStreet = uint64(listbyStreet_[_key][_loc.country][_loc.state][_loc.city][_loc.street].length);\n\n    }\n\n    function _delkeyIOUGeo  (address _addrIOU, \n                            bytes32 key) internal {\n\n        iIOUtoken.geo memory curr = iIOUtoken(_addrIOU).thisIOUDesc().location;\n\n        uint curlen = listbyCity_[key][curr.country][curr.state][curr.city].length;\n        // delete old key connection\n        listbyCity_[key][curr.country][curr.state][curr.city][posIOU[_addrIOU].inCity -1] = \n        listbyCity_[key][curr.country][curr.state][curr.city][curlen-1];\n        delete (listbyCity_[key][curr.country][curr.state][curr.city][curlen-1]);\n\n        curlen = listbyStreet_[key][curr.country][curr.state][curr.city][curr.street].length;\n        listbyStreet_[key][curr.country][curr.state][curr.city][curr.street][posIOU[_addrIOU].onStreet -1] = \n        listbyStreet_[key][curr.country][curr.state][curr.city][curr.street][curlen-1];\n        delete (listbyStreet_[key][curr.country][curr.state][curr.city][curr.street][curlen-1]);\n        \n        }\n\n\n\n    function addHolder(address _holder, address _IOUtoken) public override isIOUtoken {\n        if (!isHolderthisIOU[_holder][_IOUtoken] ) {\n            listHoldersIOUs [_holder].push(_IOUtoken);\n            isHolderthisIOU[_holder][_IOUtoken] = true;\n        }\n    }\n\n    function getIOUList (address _owner) public override view returns (address[] memory) {\n            return listIOUs[_owner];\n        }\n\n    function getIOUListSoc (string memory _profile) public override view returns (address[] memory) {\n            return listIOUsSoc[_profile];\n                }\n\n    function getIOUListKey (bytes32 _key) public override view returns (address[] memory) {\n            return listbyKeys[_key];\n                }\n\n\n    function getIOUListHold (address _holder) public view override returns (address[] memory) {\n            return listHoldersIOUs [_holder];\n        }\n\n    function getIOUstotal () public view override  returns (uint256)\n    {\n        return allIOU.length;\n    }    \n\n    function getKeystotal () public view override returns (bytes32[] memory) \n    {\n        return allKeywords;\n    }    \n\n    function getIssuerstotal () public view override returns (uint256)\n    {\n        return allIssuers.length;\n    }\n\n    function getIOUsbyCity(bytes32 _key,\n                            string memory _country,\n                            string memory _state,\n                            string memory _city) public  view returns (address[] memory) {\n                return listbyCity_  [_key][_country][_state][_city];\n            }\n\n    function getIOUsbyStreet (bytes32 _key,\n                        string memory _country,\n                        string memory _state,\n                        string memory _city,\n                        string memory _street) public view returns (address[] memory) {\n            return listbyStreet_[_key][_country][_state][_city][_street];\n                }\n\n\n    }",
  "sourcePath": "/mnt/512-2/dfd/iou2/contracts/StoreIOUs.sol",
  "compiler": {
    "name": "solc",
    "version": "0.8.4+commit.c7e474f2.Emscripten.clang"
  },
  "schemaVersion": "3.4.4",
  "updatedAt": "2022-01-08T11:30:54.645Z",
  "networkType": "ethereum",
  "devdoc": {
    "kind": "dev",
    "methods": {},
    "version": 1
  },
  "userdoc": {
    "kind": "user",
    "methods": {
      "changeIOUGeoAllkeys((string,string,string,string),address)": {
        "notice": "when changed geolocation"
      }
    },
    "version": 1
  }
}