{
  "contractName": "StoreIOUs",
  "abi": [
    {
      "inputs": [
        {
          "internalType": "uint256",
          "name": "",
          "type": "uint256"
        }
      ],
      "name": "allIOU",
      "outputs": [
        {
          "internalType": "address",
          "name": "",
          "type": "address"
        }
      ],
      "stateMutability": "view",
      "type": "function",
      "constant": true
    },
    {
      "inputs": [
        {
          "internalType": "uint256",
          "name": "",
          "type": "uint256"
        }
      ],
      "name": "allIssuers",
      "outputs": [
        {
          "internalType": "address",
          "name": "",
          "type": "address"
        }
      ],
      "stateMutability": "view",
      "type": "function",
      "constant": true
    },
    {
      "inputs": [
        {
          "internalType": "uint256",
          "name": "",
          "type": "uint256"
        }
      ],
      "name": "allKeywords",
      "outputs": [
        {
          "internalType": "bytes32",
          "name": "",
          "type": "bytes32"
        }
      ],
      "stateMutability": "view",
      "type": "function",
      "constant": true
    },
    {
      "inputs": [
        {
          "internalType": "address",
          "name": "",
          "type": "address"
        }
      ],
      "name": "isIOU",
      "outputs": [
        {
          "internalType": "uint256",
          "name": "",
          "type": "uint256"
        }
      ],
      "stateMutability": "view",
      "type": "function",
      "constant": true
    },
    {
      "inputs": [
        {
          "internalType": "address",
          "name": "",
          "type": "address"
        },
        {
          "internalType": "uint256",
          "name": "",
          "type": "uint256"
        }
      ],
      "name": "listHoldersIOUs",
      "outputs": [
        {
          "internalType": "address",
          "name": "",
          "type": "address"
        }
      ],
      "stateMutability": "view",
      "type": "function",
      "constant": true
    },
    {
      "inputs": [
        {
          "internalType": "address",
          "name": "",
          "type": "address"
        },
        {
          "internalType": "uint256",
          "name": "",
          "type": "uint256"
        }
      ],
      "name": "listIOUs",
      "outputs": [
        {
          "internalType": "address",
          "name": "",
          "type": "address"
        }
      ],
      "stateMutability": "view",
      "type": "function",
      "constant": true
    },
    {
      "inputs": [],
      "name": "initialize",
      "outputs": [],
      "stateMutability": "nonpayable",
      "type": "function"
    },
    {
      "inputs": [
        {
          "internalType": "address",
          "name": "_newOwner",
          "type": "address"
        }
      ],
      "name": "setOwner",
      "outputs": [],
      "stateMutability": "nonpayable",
      "type": "function"
    },
    {
      "inputs": [
        {
          "internalType": "address",
          "name": "_newFact",
          "type": "address"
        }
      ],
      "name": "setFactory",
      "outputs": [],
      "stateMutability": "nonpayable",
      "type": "function"
    },
    {
      "inputs": [
        {
          "internalType": "address",
          "name": "_addrIOU",
          "type": "address"
        },
        {
          "internalType": "address",
          "name": "_emitent",
          "type": "address"
        },
        {
          "components": [
            {
              "internalType": "uint256",
              "name": "totalMinted",
              "type": "uint256"
            },
            {
              "internalType": "uint256",
              "name": "totalBurned",
              "type": "uint256"
            },
            {
              "internalType": "int256",
              "name": "avRate",
              "type": "int256"
            },
            {
              "internalType": "bytes32",
              "name": "units",
              "type": "bytes32"
            },
            {
              "internalType": "address",
              "name": "issuer",
              "type": "address"
            },
            {
              "internalType": "string",
              "name": "myName",
              "type": "string"
            },
            {
              "internalType": "string",
              "name": "socialProfile",
              "type": "string"
            },
            {
              "internalType": "string",
              "name": "description",
              "type": "string"
            },
            {
              "components": [
                {
                  "internalType": "string",
                  "name": "country",
                  "type": "string"
                },
                {
                  "internalType": "string",
                  "name": "state",
                  "type": "string"
                },
                {
                  "internalType": "string",
                  "name": "city",
                  "type": "string"
                },
                {
                  "internalType": "string",
                  "name": "street",
                  "type": "string"
                }
              ],
              "internalType": "struct iIOUtoken.geo",
              "name": "location",
              "type": "tuple"
            },
            {
              "internalType": "bytes32[]",
              "name": "keywords",
              "type": "bytes32[]"
            },
            {
              "internalType": "bytes32",
              "name": "phone",
              "type": "bytes32"
            }
          ],
          "internalType": "struct iIOUtoken.DescriptionIOU",
          "name": "_thisIOU",
          "type": "tuple"
        }
      ],
      "name": "addIOU1",
      "outputs": [],
      "stateMutability": "nonpayable",
      "type": "function"
    },
    {
      "inputs": [
        {
          "internalType": "bytes32[]",
          "name": "_keywords",
          "type": "bytes32[]"
        },
        {
          "internalType": "address",
          "name": "_addrIOU",
          "type": "address"
        }
      ],
      "name": "addKeys",
      "outputs": [],
      "stateMutability": "nonpayable",
      "type": "function"
    },
    {
      "inputs": [
        {
          "internalType": "bytes32[]",
          "name": "_keywords",
          "type": "bytes32[]"
        },
        {
          "internalType": "address",
          "name": "_addrIOU",
          "type": "address"
        }
      ],
      "name": "delKeys",
      "outputs": [],
      "stateMutability": "nonpayable",
      "type": "function"
    },
    {
      "inputs": [
        {
          "components": [
            {
              "internalType": "string",
              "name": "country",
              "type": "string"
            },
            {
              "internalType": "string",
              "name": "state",
              "type": "string"
            },
            {
              "internalType": "string",
              "name": "city",
              "type": "string"
            },
            {
              "internalType": "string",
              "name": "street",
              "type": "string"
            }
          ],
          "internalType": "struct iIOUtoken.geo",
          "name": "_newloc",
          "type": "tuple"
        },
        {
          "internalType": "address",
          "name": "_addrIOU",
          "type": "address"
        }
      ],
      "name": "changeIOUGeoAllkeys",
      "outputs": [],
      "stateMutability": "nonpayable",
      "type": "function"
    },
    {
      "inputs": [
        {
          "internalType": "address",
          "name": "_holder",
          "type": "address"
        },
        {
          "internalType": "address",
          "name": "_IOUtoken",
          "type": "address"
        }
      ],
      "name": "addHolder",
      "outputs": [],
      "stateMutability": "nonpayable",
      "type": "function"
    },
    {
      "inputs": [
        {
          "internalType": "address",
          "name": "_owner",
          "type": "address"
        }
      ],
      "name": "getIOUList",
      "outputs": [
        {
          "internalType": "address[]",
          "name": "",
          "type": "address[]"
        }
      ],
      "stateMutability": "view",
      "type": "function",
      "constant": true
    },
    {
      "inputs": [
        {
          "internalType": "string",
          "name": "_profile",
          "type": "string"
        }
      ],
      "name": "getIOUListSoc",
      "outputs": [
        {
          "internalType": "address[]",
          "name": "",
          "type": "address[]"
        }
      ],
      "stateMutability": "view",
      "type": "function",
      "constant": true
    },
    {
      "inputs": [
        {
          "internalType": "bytes32",
          "name": "_key",
          "type": "bytes32"
        }
      ],
      "name": "getIOUListKey",
      "outputs": [
        {
          "internalType": "address[]",
          "name": "",
          "type": "address[]"
        }
      ],
      "stateMutability": "view",
      "type": "function",
      "constant": true
    },
    {
      "inputs": [
        {
          "internalType": "address",
          "name": "_holder",
          "type": "address"
        }
      ],
      "name": "getIOUListHold",
      "outputs": [
        {
          "internalType": "address[]",
          "name": "",
          "type": "address[]"
        }
      ],
      "stateMutability": "view",
      "type": "function",
      "constant": true
    },
    {
      "inputs": [],
      "name": "getIOUstotal",
      "outputs": [
        {
          "internalType": "uint256",
          "name": "",
          "type": "uint256"
        }
      ],
      "stateMutability": "view",
      "type": "function",
      "constant": true
    },
    {
      "inputs": [],
      "name": "getKeystotal",
      "outputs": [
        {
          "internalType": "bytes32[]",
          "name": "",
          "type": "bytes32[]"
        }
      ],
      "stateMutability": "view",
      "type": "function",
      "constant": true
    },
    {
      "inputs": [],
      "name": "getIssuerstotal",
      "outputs": [
        {
          "internalType": "uint256",
          "name": "",
          "type": "uint256"
        }
      ],
      "stateMutability": "view",
      "type": "function",
      "constant": true
    },
    {
      "inputs": [
        {
          "internalType": "bytes32",
          "name": "_key",
          "type": "bytes32"
        },
        {
          "internalType": "string",
          "name": "_country",
          "type": "string"
        },
        {
          "internalType": "string",
          "name": "_state",
          "type": "string"
        },
        {
          "internalType": "string",
          "name": "_city",
          "type": "string"
        }
      ],
      "name": "getIOUsbyCity",
      "outputs": [
        {
          "internalType": "address[]",
          "name": "",
          "type": "address[]"
        }
      ],
      "stateMutability": "view",
      "type": "function",
      "constant": true
    },
    {
      "inputs": [
        {
          "internalType": "bytes32",
          "name": "_key",
          "type": "bytes32"
        },
        {
          "internalType": "string",
          "name": "_country",
          "type": "string"
        },
        {
          "internalType": "string",
          "name": "_state",
          "type": "string"
        },
        {
          "internalType": "string",
          "name": "_city",
          "type": "string"
        },
        {
          "internalType": "string",
          "name": "_street",
          "type": "string"
        }
      ],
      "name": "getIOUsbyStreet",
      "outputs": [
        {
          "internalType": "address[]",
          "name": "",
          "type": "address[]"
        }
      ],
      "stateMutability": "view",
      "type": "function",
      "constant": true
    }
  ],
  "bytecode": "0x608060405234801561001057600080fd5b506123bf806100206000396000f3fe608060405234801561001057600080fd5b506004361061014c5760003560e01c80638129fc1c116100c3578063d107704d1161007c578063d107704d146102d2578063d83c8bd3146102e5578063e03e56a9146102f8578063e83d90f41461030b578063f22c3bc31461031e578063f466013d1461032657600080fd5b80638129fc1c1461024f57806386027896146102665780638bcd065514610279578063b21b44511461028c578063b442fc61146102ac578063c5ab1529146102bf57600080fd5b80634f2c272a116101155780634f2c272a146101db57806352fae04e146101ee5780635596b2ab146102015780635bb47808146102145780636e01acb81461022757806376f7f6de1461023a57600080fd5b8062a50d811461015157806313af40351461018157806323b3af891461019657806330b02b21146101a957806331df3737146101bb575b600080fd5b61016461015f366004611958565b610339565b6040516001600160a01b0390911681526020015b60405180910390f35b61019461018f366004611984565b610371565b005b6101946101a43660046119a8565b6103eb565b6009545b604051908152602001610178565b6101ce6101c9366004611984565b6104a6565b60405161017891906119e1565b6101ce6101e9366004611a2e565b61051a565b6101ad6101fc366004611a2e565b610584565b6101ce61020f366004611b55565b6105a5565b610194610222366004611984565b610688565b6101ce610235366004611984565b6106fd565b610242610771565b6040516101789190611c0b565b610194600d80546001600160a01b03191633179055565b610194610274366004611c43565b6107c9565b610194610287366004611c43565b6108a2565b6101ad61029a366004611984565b60036020526000908152604090205481565b6101646102ba366004611a2e565b610908565b6101646102cd366004611a2e565b610932565b6101946102e0366004611cc8565b610942565b6101946102f3366004611d03565b610a41565b6101ce610306366004611d61565b610bf2565b6101ce610319366004611d9d565b610c6a565b6008546101ad565b610164610334366004611958565b610d30565b6000602052816000526040600020818154811061035557600080fd5b6000918252602090912001546001600160a01b03169150829050565b600d546001600160a01b031633146103c95760405162461bcd60e51b81526020600482015260166024820152754f6e6c79206f776e65722063616e20646f207468697360501b60448201526064015b60405180910390fd5b600d80546001600160a01b0319166001600160a01b0392909216919091179055565b806001600160a01b03811633146104145760405162461bcd60e51b81526004016103c090611e2e565b6001600160a01b0380841660009081526004602090815260408083209386168352929052205460ff166104a1576001600160a01b0383811660008181526002602090815260408083208054600180820183559185528385200180546001600160a01b03191696891696871790559383526004825280832094835293905291909120805460ff191690911790555b505050565b6001600160a01b0381166000908152602081815260409182902080548351818402810184019094528084526060939283018282801561050e57602002820191906000526020600020905b81546001600160a01b031681526001909101906020018083116104f0575b50505050509050919050565b60008181526005602090815260409182902080548351818402810184019094528084526060939283018282801561050e576020028201919060005260206000209081546001600160a01b031681526001909101906020018083116104f05750505050509050919050565b6007818154811061059457600080fd5b600091825260209091200154905081565b6060600b6000878152602001908152602001600020856040516105c89190611e91565b9081526020016040518091039020846040516105e49190611e91565b9081526020016040518091039020836040516106009190611e91565b90815260200160405180910390208260405161061c9190611e91565b908152604080519182900360209081018320805480830285018301909352828452919083018282801561067857602002820191906000526020600020905b81546001600160a01b0316815260019091019060200180831161065a575b5050505050905095945050505050565b600d546001600160a01b031633146106db5760405162461bcd60e51b81526020600482015260166024820152754f6e6c79206f776e65722063616e20646f207468697360501b60448201526064016103c0565b600e80546001600160a01b0319166001600160a01b0392909216919091179055565b6001600160a01b03811660009081526002602090815260409182902080548351818402810184019094528084526060939283018282801561050e576020028201919060005260206000209081546001600160a01b031681526001909101906020018083116104f05750505050509050919050565b606060078054806020026020016040519081016040528092919081815260200182805480156107bf57602002820191906000526020600020905b8154815260200190600101908083116107ab575b5050505050905090565b806001600160a01b03811633146107f25760405162461bcd60e51b81526004016103c090611e2e565b61089c82858580806020026020016040519081016040528093929190818152602001838360200280828437600092018290525060408051630295d8d960e21b815290516001600160a01b038b169550630a57636494506004808301945090918290030181865afa15801561086a573d6000803e3d6000fd5b505050506040513d6000823e601f3d908101601f191682016040526108929190810190612039565b6101000151610d4c565b50505050565b806001600160a01b03811633146108cb5760405162461bcd60e51b81526004016103c090611e2e565b61089c82858580806020026020016040519081016040528093929190818152602001838360200280828437600092019190915250610edd92505050565b6009818154811061091857600080fd5b6000918252602090912001546001600160a01b0316905081565b6008818154811061091857600080fd5b806001600160a01b038116331461096b5760405162461bcd60e51b81526004016103c090611e2e565b6000826001600160a01b0316630a5763646040518163ffffffff1660e01b8152600401600060405180830381865afa1580156109ab573d6000803e3d6000fd5b505050506040513d6000823e601f3d908101601f191682016040526109d39190810190612039565b6101200151905060005b81518160ff161015610a3a576000828260ff1681518110610a0057610a00612182565b60200260200101519050610a14858261104e565b610a2785610a2188612198565b8361167e565b5080610a3281612258565b9150506109dd565b5050505050565b600880546001810182557ff3f7a9fe364faab93b216da50a3214154f22a0a2b415b23a84c8169e8b636ee30180546001600160a01b0319166001600160a01b038681169182179092559154600092835260036020908152604080852092909255918516835290829052902054610afd57600980546001810182556000919091527f6e1540171b6c0c960b71a7020d9f60077f6af931a8bbf590da0223dacf75c7af0180546001600160a01b0319166001600160a01b0384161790555b6001600160a01b038281166000908152602081815260408220805460018082018355918452919092200180546001600160a01b03191692861692909217909155610b4a60c0830183612278565b604051610b589291906122c5565b90815260405160209181900382019020805460018101825560009182529190200180546001600160a01b0319166001600160a01b0385161790556104a183610ba46101208401846122d5565b80806020026020016040519081016040528093929190818152602001838360200280828437600092019190915250610be49250505061010085018561231e565b610bed90612198565b610d4c565b6060600182604051610c049190611e91565b908152604080519182900360209081018320805480830285018301909352828452919083018282801561050e576020028201919060005260206000209081546001600160a01b031681526001909101906020018083116104f05750505050509050919050565b6060600a600086815260200190815260200160002084604051610c8d9190611e91565b908152602001604051809103902083604051610ca99190611e91565b908152602001604051809103902082604051610cc59190611e91565b9081526040805191829003602090810183208054808302850183019093528284529190830182828015610d2157602002820191906000526020600020905b81546001600160a01b03168152600190910190602001808311610d03575b50505050509050949350505050565b6002602052816000526040600020818154811061035557600080fd5b60006005835111610d5e578251610d61565b60055b905060005b818160ff161015610a3a576000848260ff1681518110610d8857610d88612182565b602002602001015190506000801b811115610eca57600081815260056020908152604080832080548251818502810185019093528083529192909190830182828015610dfd57602002820191906000526020600020905b81546001600160a01b03168152600190910190602001808311610ddf575b50505050509050805160001415610e4457600780546001810182556000919091527fa66cc928b5edb82af9bd49922954155ab7b0942694bea4ce44661d9a8736c688018290555b60008281526006602090815260408083206001600160a01b038b168452909152902054610ebd57600082815260056020908152604080832080546001810182558185528385200180546001600160a01b0319166001600160a01b038d169081179091558685529054600684528285209185529252909120555b610ec887868461167e565b505b5080610ed581612258565b915050610d66565b60006005825111610eef578151610ef2565b60055b905060005b818160ff16101561089c576000838260ff1681518110610f1957610f19612182565b602002602001015190506000801b81111561103b5760008181526006602090815260408083206001600160a01b038916845290915290205480156110395760008281526005602052604090208054610f7390600190612334565b81548110610f8357610f83612182565b6000918252602080832090910154848352600590915260409091206001600160a01b0390911690610fb5600184612334565b81548110610fc557610fc5612182565b600091825260208083209190910180546001600160a01b0319166001600160a01b03949094169390931790925583815260059091526040902080548061100d5761100d61234b565b600082815260209020810160001990810180546001600160a01b0319169055019055611039868361104e565b505b508061104681612258565b915050610ef7565b6000826001600160a01b0316630a5763646040518163ffffffff1660e01b8152600401600060405180830381865afa15801561108e573d6000803e3d6000fd5b505050506040513d6000823e601f3d908101601f191682016040526110b69190810190612039565b61010001516000838152600a60205260408082208351915193945091926110dd9190611e91565b908152602001604051809103902082602001516040516110fd9190611e91565b9081526020016040518091039020826040015160405161111d9190611e91565b908152604080519182900360209081018320546000878152600a90925291902084519193509161114d9190611e91565b9081526020016040518091039020826020015160405161116d9190611e91565b9081526020016040518091039020826040015160405161118d9190611e91565b9081526040519081900360200190206111a7600183612334565b815481106111b7576111b7612182565b6000918252602080832090910154858352600a909152604091829020845192516001600160a01b039092169290916111ef9190611e91565b9081526020016040518091039020836020015160405161120f9190611e91565b9081526020016040518091039020836040015160405161122f9190611e91565b90815260408051602092819003830190206001600160a01b0388166000908152600c90935291205461126c906001906001600160401b0316612361565b6001600160401b03168154811061128557611285612182565b9060005260206000200160006101000a8154816001600160a01b0302191690836001600160a01b03160217905550600a600084815260200190815260200160002082600001516040516112d89190611e91565b908152602001604051809103902082602001516040516112f89190611e91565b908152602001604051809103902082604001516040516113189190611e91565b90815260200160405180910390208054806113355761133561234b565b60008281526020808220830160001990810180546001600160a01b0319169055909201909255848252600b905260409081902083519151909161137791611e91565b908152602001604051809103902082602001516040516113979190611e91565b908152602001604051809103902082604001516040516113b79190611e91565b908152602001604051809103902082606001516040516113d79190611e91565b908152604080519182900360209081018320546000878152600b9092529190208451919350916114079190611e91565b908152602001604051809103902082602001516040516114279190611e91565b908152602001604051809103902082604001516040516114479190611e91565b908152602001604051809103902082606001516040516114679190611e91565b908152604051908190036020019020611481600183612334565b8154811061149157611491612182565b6000918252602080832090910154858352600b909152604091829020845192516001600160a01b039092169290916114c99190611e91565b908152602001604051809103902083602001516040516114e99190611e91565b908152602001604051809103902083604001516040516115099190611e91565b908152602001604051809103902083606001516040516115299190611e91565b90815260408051602092819003830190206001600160a01b0388166000908152600c90935291205461156d90600190600160401b90046001600160401b0316612361565b6001600160401b03168154811061158657611586612182565b9060005260206000200160006101000a8154816001600160a01b0302191690836001600160a01b03160217905550600b600084815260200190815260200160002082600001516040516115d99190611e91565b908152602001604051809103902082602001516040516115f99190611e91565b908152602001604051809103902082604001516040516116199190611e91565b908152602001604051809103902082606001516040516116399190611e91565b90815260200160405180910390208054806116565761165661234b565b600082815260209020810160001990810180546001600160a01b031916905501905550505050565b6000818152600a60205260409081902083519151909161169d91611e91565b908152602001604051809103902082602001516040516116bd9190611e91565b908152602001604051809103902082604001516040516116dd9190611e91565b9081526040805160209281900383018120805460018101825560009182528482200180546001600160a01b0319166001600160a01b038916179055848152600a9093529120835190916117309190611e91565b908152602001604051809103902082602001516040516117509190611e91565b908152602001604051809103902082604001516040516117709190611e91565b9081526040805160209281900383018120546001600160a01b0387166000908152600c8552838120805467ffffffffffffffff19166001600160401b0390931692909217909155848152600b9093529120835190916117cf9190611e91565b908152602001604051809103902082602001516040516117ef9190611e91565b9081526020016040518091039020826040015160405161180f9190611e91565b9081526020016040518091039020826060015160405161182f9190611e91565b9081526040805160209281900383018120805460018101825560009182528482200180546001600160a01b0319166001600160a01b038916179055848152600b9093529120835190916118829190611e91565b908152602001604051809103902082602001516040516118a29190611e91565b908152602001604051809103902082604001516040516118c29190611e91565b908152602001604051809103902082606001516040516118e29190611e91565b90815260408051918290036020908101909220546001600160a01b039095166000908152600c909252902080546001600160401b03909416600160401b026fffffffffffffffff000000000000000019909416939093179092555050565b6001600160a01b038116811461195557600080fd5b50565b6000806040838503121561196b57600080fd5b823561197681611940565b946020939093013593505050565b60006020828403121561199657600080fd5b81356119a181611940565b9392505050565b600080604083850312156119bb57600080fd5b82356119c681611940565b915060208301356119d681611940565b809150509250929050565b6020808252825182820181905260009190848201906040850190845b81811015611a225783516001600160a01b0316835292840192918401916001016119fd565b50909695505050505050565b600060208284031215611a4057600080fd5b5035919050565b634e487b7160e01b600052604160045260246000fd5b604051608081016001600160401b0381118282101715611a7f57611a7f611a47565b60405290565b60405161016081016001600160401b0381118282101715611a7f57611a7f611a47565b604051601f8201601f191681016001600160401b0381118282101715611ad057611ad0611a47565b604052919050565b60006001600160401b03821115611af157611af1611a47565b50601f01601f191660200190565b600082601f830112611b1057600080fd5b8135611b23611b1e82611ad8565b611aa8565b818152846020838601011115611b3857600080fd5b816020850160208301376000918101602001919091529392505050565b600080600080600060a08688031215611b6d57600080fd5b8535945060208601356001600160401b0380821115611b8b57600080fd5b611b9789838a01611aff565b95506040880135915080821115611bad57600080fd5b611bb989838a01611aff565b94506060880135915080821115611bcf57600080fd5b611bdb89838a01611aff565b93506080880135915080821115611bf157600080fd5b50611bfe88828901611aff565b9150509295509295909350565b6020808252825182820181905260009190848201906040850190845b81811015611a2257835183529284019291840191600101611c27565b600080600060408486031215611c5857600080fd5b83356001600160401b0380821115611c6f57600080fd5b818601915086601f830112611c8357600080fd5b813581811115611c9257600080fd5b8760208260051b8501011115611ca757600080fd5b60209283019550935050840135611cbd81611940565b809150509250925092565b60008060408385031215611cdb57600080fd5b82356001600160401b03811115611cf157600080fd5b8301608081860312156119c657600080fd5b600080600060608486031215611d1857600080fd5b8335611d2381611940565b92506020840135611d3381611940565b915060408401356001600160401b03811115611d4e57600080fd5b84016101608187031215611cbd57600080fd5b600060208284031215611d7357600080fd5b81356001600160401b03811115611d8957600080fd5b611d9584828501611aff565b949350505050565b60008060008060808587031215611db357600080fd5b8435935060208501356001600160401b0380821115611dd157600080fd5b611ddd88838901611aff565b94506040870135915080821115611df357600080fd5b611dff88838901611aff565b93506060870135915080821115611e1557600080fd5b50611e2287828801611aff565b91505092959194509250565b6020808252601c908201527f4f6e6c79206f776e20646174612063616e206265206368616e67656400000000604082015260600190565b60005b83811015611e80578181015183820152602001611e68565b8381111561089c5750506000910152565b60008251611ea3818460208701611e65565b9190910192915050565b8051611eb881611940565b919050565b600082601f830112611ece57600080fd5b8151611edc611b1e82611ad8565b818152846020838601011115611ef157600080fd5b611d95826020830160208701611e65565b600060808284031215611f1457600080fd5b611f1c611a5d565b905081516001600160401b0380821115611f3557600080fd5b611f4185838601611ebd565b83526020840151915080821115611f5757600080fd5b611f6385838601611ebd565b60208401526040840151915080821115611f7c57600080fd5b611f8885838601611ebd565b60408401526060840151915080821115611fa157600080fd5b50611fae84828501611ebd565b60608301525092915050565b600082601f830112611fcb57600080fd5b815160206001600160401b03821115611fe657611fe6611a47565b8160051b611ff5828201611aa8565b928352848101820192828101908785111561200f57600080fd5b83870192505b8483101561202e57825182529183019190830190612015565b979650505050505050565b60006020828403121561204b57600080fd5b81516001600160401b038082111561206257600080fd5b90830190610160828603121561207757600080fd5b61207f611a85565b825181526020830151602082015260408301516040820152606083015160608201526120ad60808401611ead565b608082015260a0830151828111156120c457600080fd5b6120d087828601611ebd565b60a08301525060c0830151828111156120e857600080fd5b6120f487828601611ebd565b60c08301525060e08301518281111561210c57600080fd5b61211887828601611ebd565b60e083015250610100808401518381111561213257600080fd5b61213e88828701611f02565b828401525050610120808401518381111561215857600080fd5b61216488828701611fba565b91830191909152506101409283015192810192909252509392505050565b634e487b7160e01b600052603260045260246000fd5b6000608082360312156121aa57600080fd5b6121b2611a5d565b82356001600160401b03808211156121c957600080fd5b6121d536838701611aff565b835260208501359150808211156121eb57600080fd5b6121f736838701611aff565b6020840152604085013591508082111561221057600080fd5b61221c36838701611aff565b6040840152606085013591508082111561223557600080fd5b50611fae36828601611aff565b634e487b7160e01b600052601160045260246000fd5b600060ff821660ff81141561226f5761226f612242565b60010192915050565b6000808335601e1984360301811261228f57600080fd5b8301803591506001600160401b038211156122a957600080fd5b6020019150368190038213156122be57600080fd5b9250929050565b8183823760009101908152919050565b6000808335601e198436030181126122ec57600080fd5b8301803591506001600160401b0382111561230657600080fd5b6020019150600581901b36038213156122be57600080fd5b60008235607e19833603018112611ea357600080fd5b60008282101561234657612346612242565b500390565b634e487b7160e01b600052603160045260246000fd5b60006001600160401b038381169083168181101561238157612381612242565b03939250505056fea2646970667358221220b515ab26b51cf6bd317d777243446ac64fc9b6925937337cd5f85b3c61aa308a64736f6c634300080a0033",
  "immutableReferences": {},
  "source": "pragma solidity >=  0.8.0;\npragma experimental ABIEncoderV2;\nimport \"./interfaces/iStoreIOUs.sol\";\nimport \"./interfaces/iIOUtoken.sol\";\nimport \"./Initializable.sol\";\n\n\ncontract StoreIOUs is iStoreIOUs {\n//todo : break this brick \n    mapping (address => address[]) public listIOUs; // list of emitted IOUs from emitent\n    mapping (string => address[])   listIOUsSoc; // list of emitted IOUs by social profile\n    mapping (address => address[]) public listHoldersIOUs; //list of tokens by holder\n    mapping (address => uint256) public isIOU; //security check is token emitted \n    mapping (address => mapping (address => bool)) isHolderthisIOU; //  check list of tokens by holder\n\n    mapping (bytes32 => address[]) listbyKeys; //list of IOUs by keyword\n    mapping (bytes32 => \n     mapping (address => uint256))  keyByList; //reverse index for listbyKeys to editing keywords\n    bytes32[] public allKeywords;  //list all keywords\n    address[] public allIOU; //list all emitted IOus\n    address[] public allIssuers; //list all issuers of  IOus\n\n    mapping (bytes32 => // keyword\n     mapping (string =>  // (country\n      mapping (string =>  //  state \n       mapping (string =>  //street\n        address[])))) internal  listbyCity_; // (keyword => country =>state =>city) => of IOUs\n    \n    mapping (bytes32 => // keyword\n     mapping (string =>  // country\n      mapping (string =>  //  state \n       mapping (string =>  //  city \n        mapping (string =>  //street\n          address[]))))) internal listbyStreet_; // (keyword=>country=> state => city =>street) => IOU \n\n    mapping (address => geoIOU ) posIOU;\n\n\n    address owner;\n    address makeFactory;\n\n    //constructor ()  {\n    function initialize () public {\n        owner = msg.sender;\n    }\n\n    modifier onlyOwner() {\n        require (owner == msg.sender, \"Only owner can do this\");\n        _;\n    }\n\n/*     modifier onlyFactory() {\n/*         require (makeFactory != address(0x0), \"No makeFactory address\");\n        require (makeFactory == msg.sender, \"Only makeFactory can do this\"); \n        _;\n    }\n\n    modifier isIOUtoken () {\n        require (makeFactory == msg.sender || isIOU[msg.sender] > 0 , \"Not IOU token calls\" );\n        _;\n    }\n */\n    function setOwner (address _newOwner) public onlyOwner {\n        owner = _newOwner;\n    }\n\n    function setFactory (address _newFact) public onlyOwner {\n        makeFactory = _newFact;\n    }\n\n    modifier onlySelf(address _addrIOU) {\n       // iIOUtoken.DescriptionIOU memory desc = iIOUtoken(_addrIOU).thisIOUDesc();\n        require (_addrIOU == msg.sender, \"Only own data can be changed\");\n        _;\n    }\n\n    function addIOU1 (address _addrIOU, address _emitent,  iIOUtoken.DescriptionIOU calldata _thisIOU ) public override  {\n        \n        allIOU.push(_addrIOU);\n        isIOU[_addrIOU] = allIOU.length;\n\n        if (listIOUs[_emitent].length == 0) {\n            allIssuers.push(_emitent); \n        }\n        listIOUs[_emitent].push(_addrIOU);\n        //iIOUtoken curIOU =  iIOUtoken(_addrIOU);\n        listIOUsSoc[_thisIOU.socialProfile].push(_addrIOU);\n        _addKeys(_addrIOU, _thisIOU.keywords, _thisIOU.location);\n    }\n\n\n    function addKeys (bytes32[] calldata _keywords, address _addrIOU ) public onlySelf (_addrIOU) override {\n\n        _addKeys(_addrIOU, _keywords, iIOUtoken(_addrIOU).thisIOUDesc().location);\n    }\n    function delKeys (bytes32[] calldata _keywords, address _addrIOU ) public onlySelf (_addrIOU) override {\n        _delKeys(_addrIOU, _keywords);\n    }\n\n    \n    /// when changed geolocation\n    function changeIOUGeoAllkeys  (iIOUtoken.geo calldata _newloc, address _addrIOU ) external override onlySelf (_addrIOU) {\n        bytes32[] memory keys = iIOUtoken(_addrIOU).thisIOUDesc().keywords;\n        for (uint8 k=0; k<keys.length; k++)  {  \n            bytes32 key = keys[k];\n            _delkeyIOUGeo(_addrIOU, key);\n            _setIOUGeo(_addrIOU, _newloc, key);          \n\n            }\n    }\n    function _addKeys (address _addrIOU, bytes32[] memory _keywords, iIOUtoken.geo  memory _location) internal{\n\n        uint lenArr = _keywords.length > 5 ? 5: _keywords.length;\n        for (uint8 k=0 ; k < lenArr ; k++){\n            bytes32 key = _keywords[k];\n                if (key > 0 ){\n                    address[] memory lbk = listbyKeys[key];\n                    if  (lbk.length == 0 ) { // new keyword, never used in IOUs before\n                        allKeywords.push(key);\n                    }\n                    if (keyByList[key][_addrIOU] == 0) {\n                        listbyKeys[key].push(_addrIOU);\n                        keyByList[key][_addrIOU] = listbyKeys[key].length;\n                    }\n                    _setIOUGeo(_addrIOU,\n                            _location, \n                            key);\n                }\n            } \n    }\n\n\n    function _delKeys (address _addrIOU, bytes32[] memory _keywords) internal{\n\n        uint lenArr = _keywords.length > 5 ? 5: _keywords.length;\n        for (uint8 k=0 ; k < lenArr ; k++){\n            bytes32 key = _keywords[k];\n            if (key > 0 ){\n                uint keyNum = keyByList[key][_addrIOU];\n                if  (keyNum > 0 ) {\n                    listbyKeys[key][keyNum-1] = \n                    listbyKeys[key][\n                      listbyKeys[key].length -1];\n                    listbyKeys[key].pop();\n                    _delkeyIOUGeo(_addrIOU, key);\n                }\n \n            }\n        } \n    }\n\n\n    function _setIOUGeo (address _addrIOU, \n                        iIOUtoken.geo memory _loc,\n                        bytes32 _key) internal { //public  onlySelf (_addrIOU)\n\n        listbyCity_[_key] [_loc.country][_loc.state][_loc.city].push(_addrIOU);\n        posIOU[_addrIOU].inCity = uint64(listbyCity_[_key][_loc.country][_loc.state][_loc.city].length);\n        listbyStreet_[_key][_loc.country][_loc.state][_loc.city][_loc.street].push(_addrIOU);\n        posIOU[_addrIOU].onStreet = uint64(listbyStreet_[_key][_loc.country][_loc.state][_loc.city][_loc.street].length);\n\n    }\n\n    function _delkeyIOUGeo  (address _addrIOU, \n                            bytes32 key) internal {\n\n        iIOUtoken.geo memory curr = iIOUtoken(_addrIOU).thisIOUDesc().location;\n\n        uint curlen = listbyCity_[key][curr.country][curr.state][curr.city].length;\n        // delete old key connection\n        listbyCity_[key][curr.country][curr.state][curr.city][posIOU[_addrIOU].inCity -1] = \n        listbyCity_[key][curr.country][curr.state][curr.city][curlen-1];\n        listbyCity_[key][curr.country][curr.state][curr.city].pop();\n\n        curlen = listbyStreet_[key][curr.country][curr.state][curr.city][curr.street].length;\n        listbyStreet_[key][curr.country][curr.state][curr.city][curr.street][posIOU[_addrIOU].onStreet -1] = \n        listbyStreet_[key][curr.country][curr.state][curr.city][curr.street][curlen-1];\n        listbyStreet_[key][curr.country][curr.state][curr.city][curr.street].pop();\n        \n        }\n\n\n\n    function addHolder(address _holder, address _IOUtoken) public override onlySelf (_IOUtoken) {\n        if (!isHolderthisIOU[_holder][_IOUtoken] ) {\n            listHoldersIOUs [_holder].push(_IOUtoken);\n            isHolderthisIOU[_holder][_IOUtoken] = true;\n        }\n    }\n\n    function getIOUList (address _owner) public override view returns (address[] memory) {\n            return listIOUs[_owner];\n        }\n\n    function getIOUListSoc (string memory _profile) public override view returns (address[] memory) {\n            return listIOUsSoc[_profile];\n                }\n\n    function getIOUListKey (bytes32 _key) public override view returns (address[] memory) {\n            return listbyKeys[_key];\n                }\n\n\n    function getIOUListHold (address _holder) public view override returns (address[] memory) {\n            return listHoldersIOUs [_holder];\n        }\n\n    function getIOUstotal () public view override  returns (uint256)\n    {\n        return allIOU.length;\n    }    \n\n    function getKeystotal () public view override returns (bytes32[] memory) \n    {\n        return allKeywords;\n    }    \n\n    function getIssuerstotal () public view override returns (uint256)\n    {\n        return allIssuers.length;\n    }\n\n    function getIOUsbyCity(bytes32 _key,\n                            string memory _country,\n                            string memory _state,\n                            string memory _city) public  view returns (address[] memory) {\n                return listbyCity_  [_key][_country][_state][_city];\n            }\n\n    function getIOUsbyStreet (bytes32 _key,\n                        string memory _country,\n                        string memory _state,\n                        string memory _city,\n                        string memory _street) public view returns (address[] memory) {\n            return listbyStreet_[_key][_country][_state][_city][_street];\n                }\n\n\n    }",
  "sourcePath": "/mnt/512-2/dfd/iou2/contracts/StoreIOUs.sol",
  "compiler": {
    "name": "solc",
    "version": "0.8.10+commit.fc410830.Emscripten.clang"
  },
  "schemaVersion": "3.4.4",
  "updatedAt": "2022-02-16T16:17:47.157Z",
  "networkType": "ethereum",
  "devdoc": {
    "kind": "dev",
    "methods": {},
    "version": 1
  },
  "userdoc": {
    "kind": "user",
    "methods": {
      "changeIOUGeoAllkeys((string,string,string,string),address)": {
        "notice": "when changed geolocation"
      }
    },
    "version": 1
  }
}