{
  "contractName": "StoreIOUs",
  "abi": [
    {
      "inputs": [],
      "stateMutability": "nonpayable",
      "type": "constructor"
    },
    {
      "inputs": [
        {
          "internalType": "uint256",
          "name": "",
          "type": "uint256"
        }
      ],
      "name": "allIOU",
      "outputs": [
        {
          "internalType": "address",
          "name": "",
          "type": "address"
        }
      ],
      "stateMutability": "view",
      "type": "function"
    },
    {
      "inputs": [
        {
          "internalType": "uint256",
          "name": "",
          "type": "uint256"
        }
      ],
      "name": "allIssuers",
      "outputs": [
        {
          "internalType": "address",
          "name": "",
          "type": "address"
        }
      ],
      "stateMutability": "view",
      "type": "function"
    },
    {
      "inputs": [
        {
          "internalType": "uint256",
          "name": "",
          "type": "uint256"
        }
      ],
      "name": "allKeywords",
      "outputs": [
        {
          "internalType": "bytes32",
          "name": "",
          "type": "bytes32"
        }
      ],
      "stateMutability": "view",
      "type": "function"
    },
    {
      "inputs": [
        {
          "internalType": "address",
          "name": "",
          "type": "address"
        }
      ],
      "name": "isIOU",
      "outputs": [
        {
          "internalType": "uint256",
          "name": "",
          "type": "uint256"
        }
      ],
      "stateMutability": "view",
      "type": "function"
    },
    {
      "inputs": [
        {
          "internalType": "address",
          "name": "",
          "type": "address"
        },
        {
          "internalType": "uint256",
          "name": "",
          "type": "uint256"
        }
      ],
      "name": "listHoldersIOUs",
      "outputs": [
        {
          "internalType": "address",
          "name": "",
          "type": "address"
        }
      ],
      "stateMutability": "view",
      "type": "function"
    },
    {
      "inputs": [
        {
          "internalType": "address",
          "name": "",
          "type": "address"
        },
        {
          "internalType": "uint256",
          "name": "",
          "type": "uint256"
        }
      ],
      "name": "listIOUs",
      "outputs": [
        {
          "internalType": "address",
          "name": "",
          "type": "address"
        }
      ],
      "stateMutability": "view",
      "type": "function"
    },
    {
      "inputs": [
        {
          "internalType": "address",
          "name": "_newOwner",
          "type": "address"
        }
      ],
      "name": "setOwner",
      "outputs": [],
      "stateMutability": "nonpayable",
      "type": "function"
    },
    {
      "inputs": [
        {
          "internalType": "address",
          "name": "_newFact",
          "type": "address"
        }
      ],
      "name": "setFactory",
      "outputs": [],
      "stateMutability": "nonpayable",
      "type": "function"
    },
    {
      "inputs": [
        {
          "internalType": "address",
          "name": "_newIOU",
          "type": "address"
        },
        {
          "internalType": "address",
          "name": "_emitent",
          "type": "address"
        }
      ],
      "name": "addIOU1",
      "outputs": [],
      "stateMutability": "nonpayable",
      "type": "function"
    },
    {
      "inputs": [
        {
          "internalType": "address",
          "name": "_newIOU",
          "type": "address"
        },
        {
          "internalType": "string",
          "name": "_socialProfile",
          "type": "string"
        },
        {
          "internalType": "bytes32[]",
          "name": "_keywords",
          "type": "bytes32[]"
        }
      ],
      "name": "addIOU2",
      "outputs": [],
      "stateMutability": "nonpayable",
      "type": "function"
    },
    {
      "inputs": [
        {
          "internalType": "address",
          "name": "_owner",
          "type": "address"
        }
      ],
      "name": "getIOUList",
      "outputs": [
        {
          "internalType": "address[]",
          "name": "",
          "type": "address[]"
        }
      ],
      "stateMutability": "view",
      "type": "function"
    },
    {
      "inputs": [
        {
          "internalType": "string",
          "name": "_profile",
          "type": "string"
        }
      ],
      "name": "getIOUListSoc",
      "outputs": [
        {
          "internalType": "address[]",
          "name": "",
          "type": "address[]"
        }
      ],
      "stateMutability": "view",
      "type": "function"
    },
    {
      "inputs": [
        {
          "internalType": "bytes32",
          "name": "_key",
          "type": "bytes32"
        }
      ],
      "name": "getIOUListKey",
      "outputs": [
        {
          "internalType": "address[]",
          "name": "",
          "type": "address[]"
        }
      ],
      "stateMutability": "view",
      "type": "function"
    },
    {
      "inputs": [
        {
          "internalType": "address",
          "name": "_holder",
          "type": "address"
        },
        {
          "internalType": "address",
          "name": "_IOUtoken",
          "type": "address"
        }
      ],
      "name": "addHolder",
      "outputs": [],
      "stateMutability": "nonpayable",
      "type": "function"
    },
    {
      "inputs": [
        {
          "internalType": "address",
          "name": "_holder",
          "type": "address"
        }
      ],
      "name": "getIOUListHold",
      "outputs": [
        {
          "internalType": "address[]",
          "name": "",
          "type": "address[]"
        }
      ],
      "stateMutability": "view",
      "type": "function"
    },
    {
      "inputs": [],
      "name": "getIOUstotal",
      "outputs": [
        {
          "internalType": "uint256",
          "name": "",
          "type": "uint256"
        }
      ],
      "stateMutability": "view",
      "type": "function"
    },
    {
      "inputs": [],
      "name": "getKeystotal",
      "outputs": [
        {
          "internalType": "uint256",
          "name": "",
          "type": "uint256"
        }
      ],
      "stateMutability": "view",
      "type": "function"
    },
    {
      "inputs": [],
      "name": "getIssuerstotal",
      "outputs": [
        {
          "internalType": "uint256",
          "name": "",
          "type": "uint256"
        }
      ],
      "stateMutability": "view",
      "type": "function"
    },
    {
      "inputs": [
        {
          "internalType": "address",
          "name": "_addrIOU",
          "type": "address"
        },
        {
          "components": [
            {
              "internalType": "string",
              "name": "country",
              "type": "string"
            },
            {
              "internalType": "string",
              "name": "state",
              "type": "string"
            },
            {
              "internalType": "string",
              "name": "city",
              "type": "string"
            },
            {
              "internalType": "string",
              "name": "street",
              "type": "string"
            }
          ],
          "internalType": "struct iIOUtoken.geo",
          "name": "_loc",
          "type": "tuple"
        },
        {
          "internalType": "bytes32",
          "name": "_key",
          "type": "bytes32"
        }
      ],
      "name": "setIOUGeo",
      "outputs": [],
      "stateMutability": "nonpayable",
      "type": "function"
    },
    {
      "inputs": [
        {
          "internalType": "bytes32",
          "name": "_key",
          "type": "bytes32"
        },
        {
          "internalType": "string",
          "name": "_country",
          "type": "string"
        },
        {
          "internalType": "string",
          "name": "_state",
          "type": "string"
        },
        {
          "internalType": "string",
          "name": "_city",
          "type": "string"
        }
      ],
      "name": "getIOUsbyCity",
      "outputs": [
        {
          "internalType": "address[]",
          "name": "",
          "type": "address[]"
        }
      ],
      "stateMutability": "view",
      "type": "function"
    },
    {
      "inputs": [
        {
          "internalType": "bytes32",
          "name": "_key",
          "type": "bytes32"
        },
        {
          "internalType": "string",
          "name": "_country",
          "type": "string"
        },
        {
          "internalType": "string",
          "name": "_state",
          "type": "string"
        },
        {
          "internalType": "string",
          "name": "_city",
          "type": "string"
        },
        {
          "internalType": "string",
          "name": "_street",
          "type": "string"
        }
      ],
      "name": "getIOUsbyStreet",
      "outputs": [
        {
          "internalType": "address[]",
          "name": "",
          "type": "address[]"
        }
      ],
      "stateMutability": "view",
      "type": "function"
    }
  ],
  "bytecode": "0x608060405234801561001057600080fd5b5033600c60006101000a81548173ffffffffffffffffffffffffffffffffffffffff021916908373ffffffffffffffffffffffffffffffffffffffff1602179055506135c5806100616000396000f3fe608060405234801561001057600080fd5b50600436106101365760003560e01c80635bb47808116100b8578063c5ab15291161007c578063c5ab152914610383578063e03e56a9146103b3578063e83d90f4146103e3578063f22c3bc314610413578063f466013d14610431578063f4f561be1461046157610136565b80635bb47808146102b95780636e01acb8146102d557806376f7f6de14610305578063b21b445114610323578063b442fc611461035357610136565b806338a10485116100ff57806338a10485146101f15780634f2c272a1461020d57806352fae04e1461023d5780635596b2ab1461026d5780635899d1421461029d57610136565b8062a50d811461013b57806313af40351461016b57806323b3af891461018757806330b02b21146101a357806331df3737146101c1575b600080fd5b61015560048036038101906101509190612c38565b61047d565b6040516101629190613073565b60405180910390f35b61018560048036038101906101809190612aed565b6104cb565b005b6101a1600480360381019061019c9190612b16565b61059f565b005b6101ab610841565b6040516101b8919061316b565b60405180910390f35b6101db60048036038101906101d69190612aed565b61084e565b6040516101e8919061308e565b60405180910390f35b61020b60048036038101906102069190612b52565b61091a565b005b61022760048036038101906102229190612c74565b610d5c565b604051610234919061308e565b60405180910390f35b61025760048036038101906102529190612ea1565b610dfd565b60405161026491906130b0565b60405180910390f35b61028760048036038101906102829190612d48565b610e21565b604051610294919061308e565b60405180910390f35b6102b760048036038101906102b29190612b16565b610f36565b005b6102d360048036038101906102ce9190612aed565b611255565b005b6102ef60048036038101906102ea9190612aed565b611329565b6040516102fc919061308e565b60405180910390f35b61030d6113f6565b60405161031a919061316b565b60405180910390f35b61033d60048036038101906103389190612aed565b611403565b60405161034a919061316b565b60405180910390f35b61036d60048036038101906103689190612ea1565b61141b565b60405161037a9190613073565b60405180910390f35b61039d60048036038101906103989190612ea1565b61145a565b6040516103aa9190613073565b60405180910390f35b6103cd60048036038101906103c89190612e1f565b611499565b6040516103da919061308e565b60405180910390f35b6103fd60048036038101906103f89190612c9d565b611545565b60405161040a919061308e565b60405180910390f35b61041b61163d565b604051610428919061316b565b60405180910390f35b61044b60048036038101906104469190612c38565b61164a565b6040516104589190613073565b60405180910390f35b61047b60048036038101906104769190612bd1565b611698565b005b6000602052816000526040600020818154811061049957600080fd5b906000526020600020016000915091509054906101000a900473ffffffffffffffffffffffffffffffffffffffff1681565b3373ffffffffffffffffffffffffffffffffffffffff16600c60009054906101000a900473ffffffffffffffffffffffffffffffffffffffff1673ffffffffffffffffffffffffffffffffffffffff161461055b576040517f08c379a00000000000000000000000000000000000000000000000000000000081526004016105529061310b565b60405180910390fd5b80600c60006101000a81548173ffffffffffffffffffffffffffffffffffffffff021916908373ffffffffffffffffffffffffffffffffffffffff16021790555050565b3373ffffffffffffffffffffffffffffffffffffffff16600d60009054906101000a900473ffffffffffffffffffffffffffffffffffffffff1673ffffffffffffffffffffffffffffffffffffffff16148061063a57506000600360003373ffffffffffffffffffffffffffffffffffffffff1673ffffffffffffffffffffffffffffffffffffffff16815260200190815260200160002054115b610679576040517f08c379a0000000000000000000000000000000000000000000000000000000008152600401610670906130cb565b60405180910390fd5b600460008373ffffffffffffffffffffffffffffffffffffffff1673ffffffffffffffffffffffffffffffffffffffff16815260200190815260200160002060008273ffffffffffffffffffffffffffffffffffffffff1673ffffffffffffffffffffffffffffffffffffffff16815260200190815260200160002060009054906101000a900460ff1661083d57600260008373ffffffffffffffffffffffffffffffffffffffff1673ffffffffffffffffffffffffffffffffffffffff168152602001908152602001600020819080600181540180825580915050600190039060005260206000200160009091909190916101000a81548173ffffffffffffffffffffffffffffffffffffffff021916908373ffffffffffffffffffffffffffffffffffffffff1602179055506001600460008473ffffffffffffffffffffffffffffffffffffffff1673ffffffffffffffffffffffffffffffffffffffff16815260200190815260200160002060008373ffffffffffffffffffffffffffffffffffffffff1673ffffffffffffffffffffffffffffffffffffffff16815260200190815260200160002060006101000a81548160ff0219169083151502179055505b5050565b6000600880549050905090565b60606000808373ffffffffffffffffffffffffffffffffffffffff1673ffffffffffffffffffffffffffffffffffffffff16815260200190815260200160002080548060200260200160405190810160405280929190818152602001828054801561090e57602002820191906000526020600020905b8160009054906101000a900473ffffffffffffffffffffffffffffffffffffffff1673ffffffffffffffffffffffffffffffffffffffff16815260200190600101908083116108c4575b50505050509050919050565b3373ffffffffffffffffffffffffffffffffffffffff16600d60009054906101000a900473ffffffffffffffffffffffffffffffffffffffff1673ffffffffffffffffffffffffffffffffffffffff1614806109b557506000600360003373ffffffffffffffffffffffffffffffffffffffff1673ffffffffffffffffffffffffffffffffffffffff16815260200190815260200160002054115b6109f4576040517f08c379a00000000000000000000000000000000000000000000000000000000081526004016109eb906130cb565b60405180910390fd5b600182604051610a04919061305c565b9081526020016040518091039020839080600181540180825580915050600190039060005260206000200160009091909190916101000a81548173ffffffffffffffffffffffffffffffffffffffff021916908373ffffffffffffffffffffffffffffffffffffffff16021790555060006005825111610a85578151610a88565b60055b905060005b818160ff161015610d55576000801b838260ff1681518110610ad8577f4e487b7100000000000000000000000000000000000000000000000000000000600052603260045260246000fd5b60200260200101511115610d4257600060056000858460ff1681518110610b28577f4e487b7100000000000000000000000000000000000000000000000000000000600052603260045260246000fd5b60200260200101518152602001908152602001600020805490501415610c8a576006838260ff1681518110610b86577f4e487b7100000000000000000000000000000000000000000000000000000000600052603260045260246000fd5b60200260200101519080600181540180825580915050600190039060005260206000200160009091909190915055610c89858673ffffffffffffffffffffffffffffffffffffffff16630a5763646040518163ffffffff1660e01b815260040160006040518083038186803b158015610bfe57600080fd5b505afa158015610c12573d6000803e3d6000fd5b505050506040513d6000823e3d601f19601f82011682018060405250810190610c3b9190612e60565b6101000151858460ff1681518110610c7c577f4e487b7100000000000000000000000000000000000000000000000000000000600052603260045260246000fd5b6020026020010151611698565b5b60056000848360ff1681518110610cca577f4e487b7100000000000000000000000000000000000000000000000000000000600052603260045260246000fd5b60200260200101518152602001908152602001600020859080600181540180825580915050600190039060005260206000200160009091909190916101000a81548173ffffffffffffffffffffffffffffffffffffffff021916908373ffffffffffffffffffffffffffffffffffffffff1602179055505b8080610d4d9061339e565b915050610a8d565b5050505050565b606060056000838152602001908152602001600020805480602002602001604051908101604052809291908181526020018280548015610df157602002820191906000526020600020905b8160009054906101000a900473ffffffffffffffffffffffffffffffffffffffff1673ffffffffffffffffffffffffffffffffffffffff1681526020019060010190808311610da7575b50505050509050919050565b60068181548110610e0d57600080fd5b906000526020600020016000915090505481565b6060600a600087815260200190815260200160002085604051610e44919061305c565b908152602001604051809103902084604051610e60919061305c565b908152602001604051809103902083604051610e7c919061305c565b908152602001604051809103902082604051610e98919061305c565b9081526020016040518091039020805480602002602001604051908101604052809291908181526020018280548015610f2657602002820191906000526020600020905b8160009054906101000a900473ffffffffffffffffffffffffffffffffffffffff1673ffffffffffffffffffffffffffffffffffffffff1681526020019060010190808311610edc575b5050505050905095945050505050565b600073ffffffffffffffffffffffffffffffffffffffff16600d60009054906101000a900473ffffffffffffffffffffffffffffffffffffffff1673ffffffffffffffffffffffffffffffffffffffff161415610fc8576040517f08c379a0000000000000000000000000000000000000000000000000000000008152600401610fbf9061314b565b60405180910390fd5b3373ffffffffffffffffffffffffffffffffffffffff16600d60009054906101000a900473ffffffffffffffffffffffffffffffffffffffff1673ffffffffffffffffffffffffffffffffffffffff1614611058576040517f08c379a000000000000000000000000000000000000000000000000000000000815260040161104f906130eb565b60405180910390fd5b6007829080600181540180825580915050600190039060005260206000200160009091909190916101000a81548173ffffffffffffffffffffffffffffffffffffffff021916908373ffffffffffffffffffffffffffffffffffffffff160217905550600780549050600360008473ffffffffffffffffffffffffffffffffffffffff1673ffffffffffffffffffffffffffffffffffffffff1681526020019081526020016000208190555060008060008373ffffffffffffffffffffffffffffffffffffffff1673ffffffffffffffffffffffffffffffffffffffff1681526020019081526020016000208054905014156111b2576008819080600181540180825580915050600190039060005260206000200160009091909190916101000a81548173ffffffffffffffffffffffffffffffffffffffff021916908373ffffffffffffffffffffffffffffffffffffffff1602179055505b6000808273ffffffffffffffffffffffffffffffffffffffff1673ffffffffffffffffffffffffffffffffffffffff168152602001908152602001600020829080600181540180825580915050600190039060005260206000200160009091909190916101000a81548173ffffffffffffffffffffffffffffffffffffffff021916908373ffffffffffffffffffffffffffffffffffffffff1602179055505050565b3373ffffffffffffffffffffffffffffffffffffffff16600c60009054906101000a900473ffffffffffffffffffffffffffffffffffffffff1673ffffffffffffffffffffffffffffffffffffffff16146112e5576040517f08c379a00000000000000000000000000000000000000000000000000000000081526004016112dc9061310b565b60405180910390fd5b80600d60006101000a81548173ffffffffffffffffffffffffffffffffffffffff021916908373ffffffffffffffffffffffffffffffffffffffff16021790555050565b6060600260008373ffffffffffffffffffffffffffffffffffffffff1673ffffffffffffffffffffffffffffffffffffffff1681526020019081526020016000208054806020026020016040519081016040528092919081815260200182805480156113ea57602002820191906000526020600020905b8160009054906101000a900473ffffffffffffffffffffffffffffffffffffffff1673ffffffffffffffffffffffffffffffffffffffff16815260200190600101908083116113a0575b50505050509050919050565b6000600680549050905090565b60036020528060005260406000206000915090505481565b6008818154811061142b57600080fd5b906000526020600020016000915054906101000a900473ffffffffffffffffffffffffffffffffffffffff1681565b6007818154811061146a57600080fd5b906000526020600020016000915054906101000a900473ffffffffffffffffffffffffffffffffffffffff1681565b60606001826040516114ab919061305c565b908152602001604051809103902080548060200260200160405190810160405280929190818152602001828054801561153957602002820191906000526020600020905b8160009054906101000a900473ffffffffffffffffffffffffffffffffffffffff1673ffffffffffffffffffffffffffffffffffffffff16815260200190600101908083116114ef575b50505050509050919050565b60606009600086815260200190815260200160002084604051611568919061305c565b908152602001604051809103902083604051611584919061305c565b9081526020016040518091039020826040516115a0919061305c565b908152602001604051809103902080548060200260200160405190810160405280929190818152602001828054801561162e57602002820191906000526020600020905b8160009054906101000a900473ffffffffffffffffffffffffffffffffffffffff1673ffffffffffffffffffffffffffffffffffffffff16815260200190600101908083116115e4575b50505050509050949350505050565b6000600780549050905090565b6002602052816000526040600020818154811061166657600080fd5b906000526020600020016000915091509054906101000a900473ffffffffffffffffffffffffffffffffffffffff1681565b8260008173ffffffffffffffffffffffffffffffffffffffff16630a5763646040518163ffffffff1660e01b815260040160006040518083038186803b1580156116e157600080fd5b505afa1580156116f5573d6000803e3d6000fd5b505050506040513d6000823e3d601f19601f8201168201806040525081019061171e9190612e60565b90503373ffffffffffffffffffffffffffffffffffffffff16816080015173ffffffffffffffffffffffffffffffffffffffff1614611792576040517f08c379a00000000000000000000000000000000000000000000000000000000081526004016117899061312b565b60405180910390fd5b6000600b60008773ffffffffffffffffffffffffffffffffffffffff1673ffffffffffffffffffffffffffffffffffffffff1681526020019081526020016000206000015414801561182657506000600b60008773ffffffffffffffffffffffffffffffffffffffff1673ffffffffffffffffffffffffffffffffffffffff16815260200190815260200160002060010154145b15611b9257600960008481526020019081526020016000208460000151604051611850919061305c565b90815260200160405180910390208460200151604051611870919061305c565b90815260200160405180910390208460400151604051611890919061305c565b9081526020016040518091039020859080600181540180825580915050600190039060005260206000200160009091909190916101000a81548173ffffffffffffffffffffffffffffffffffffffff021916908373ffffffffffffffffffffffffffffffffffffffff160217905550600960008481526020019081526020016000208460000151604051611924919061305c565b90815260200160405180910390208460200151604051611944919061305c565b90815260200160405180910390208460400151604051611964919061305c565b908152602001604051809103902080549050600b60008773ffffffffffffffffffffffffffffffffffffffff1673ffffffffffffffffffffffffffffffffffffffff16815260200190815260200160002060000181905550600a600084815260200190815260200160002084600001516040516119e1919061305c565b90815260200160405180910390208460200151604051611a01919061305c565b90815260200160405180910390208460400151604051611a21919061305c565b90815260200160405180910390208460600151604051611a41919061305c565b9081526020016040518091039020859080600181540180825580915050600190039060005260206000200160009091909190916101000a81548173ffffffffffffffffffffffffffffffffffffffff021916908373ffffffffffffffffffffffffffffffffffffffff160217905550600a60008481526020019081526020016000208460000151604051611ad5919061305c565b90815260200160405180910390208460200151604051611af5919061305c565b90815260200160405180910390208460400151604051611b15919061305c565b90815260200160405180910390208460600151604051611b35919061305c565b908152602001604051809103902080549050600b60008773ffffffffffffffffffffffffffffffffffffffff1673ffffffffffffffffffffffffffffffffffffffff16815260200190815260200160002060010181905550612545565b6000600b60008773ffffffffffffffffffffffffffffffffffffffff1673ffffffffffffffffffffffffffffffffffffffff1681526020019081526020016000206040518060c00160405290816000820154815260200160018201548152602001600282018054611c029061333b565b80601f0160208091040260200160405190810160405280929190818152602001828054611c2e9061333b565b8015611c7b5780601f10611c5057610100808354040283529160200191611c7b565b820191906000526020600020905b815481529060010190602001808311611c5e57829003601f168201915b50505050508152602001600382018054611c949061333b565b80601f0160208091040260200160405190810160405280929190818152602001828054611cc09061333b565b8015611d0d5780601f10611ce257610100808354040283529160200191611d0d565b820191906000526020600020905b815481529060010190602001808311611cf057829003601f168201915b50505050508152602001600482018054611d269061333b565b80601f0160208091040260200160405190810160405280929190818152602001828054611d529061333b565b8015611d9f5780601f10611d7457610100808354040283529160200191611d9f565b820191906000526020600020905b815481529060010190602001808311611d8257829003601f168201915b50505050508152602001600582018054611db89061333b565b80601f0160208091040260200160405190810160405280929190818152602001828054611de49061333b565b8015611e315780601f10611e0657610100808354040283529160200191611e31565b820191906000526020600020905b815481529060010190602001808311611e1457829003601f168201915b50505050508152505090506000600960008681526020019081526020016000208260400151604051611e63919061305c565b90815260200160405180910390208260600151604051611e83919061305c565b90815260200160405180910390208260800151604051611ea3919061305c565b9081526020016040518091039020805490509050600960008681526020019081526020016000208260400151604051611edc919061305c565b90815260200160405180910390208260600151604051611efc919061305c565b90815260200160405180910390208260800151604051611f1c919061305c565b9081526020016040518091039020600182611f379190613268565b81548110611f6e577f4e487b7100000000000000000000000000000000000000000000000000000000600052603260045260246000fd5b9060005260206000200160009054906101000a900473ffffffffffffffffffffffffffffffffffffffff16600960008781526020019081526020016000208360400151604051611fbe919061305c565b90815260200160405180910390208360600151604051611fde919061305c565b90815260200160405180910390208360800151604051611ffe919061305c565b90815260200160405180910390206001846000015161201d9190613268565b81548110612054577f4e487b7100000000000000000000000000000000000000000000000000000000600052603260045260246000fd5b9060005260206000200160006101000a81548173ffffffffffffffffffffffffffffffffffffffff021916908373ffffffffffffffffffffffffffffffffffffffff1602179055506009600086815260200190815260200160002082604001516040516120c1919061305c565b908152602001604051809103902082606001516040516120e1919061305c565b90815260200160405180910390208260800151604051612101919061305c565b908152602001604051809103902060018261211c9190613268565b81548110612153577f4e487b7100000000000000000000000000000000000000000000000000000000600052603260045260246000fd5b9060005260206000200160006101000a81549073ffffffffffffffffffffffffffffffffffffffff0219169055600a600086815260200190815260200160002082604001516040516121a5919061305c565b908152602001604051809103902082606001516040516121c5919061305c565b908152602001604051809103902082608001516040516121e5919061305c565b90815260200160405180910390208260a00151604051612205919061305c565b9081526020016040518091039020805490509050600a6000868152602001908152602001600020826040015160405161223e919061305c565b9081526020016040518091039020826060015160405161225e919061305c565b9081526020016040518091039020826080015160405161227e919061305c565b90815260200160405180910390208260a0015160405161229e919061305c565b90815260200160405180910390206001826122b99190613268565b815481106122f0577f4e487b7100000000000000000000000000000000000000000000000000000000600052603260045260246000fd5b9060005260206000200160009054906101000a900473ffffffffffffffffffffffffffffffffffffffff16600a60008781526020019081526020016000208360400151604051612340919061305c565b90815260200160405180910390208360600151604051612360919061305c565b90815260200160405180910390208360800151604051612380919061305c565b90815260200160405180910390208360a001516040516123a0919061305c565b9081526020016040518091039020600184602001516123bf9190613268565b815481106123f6577f4e487b7100000000000000000000000000000000000000000000000000000000600052603260045260246000fd5b9060005260206000200160006101000a81548173ffffffffffffffffffffffffffffffffffffffff021916908373ffffffffffffffffffffffffffffffffffffffff160217905550600a60008681526020019081526020016000208260400151604051612463919061305c565b90815260200160405180910390208260600151604051612483919061305c565b908152602001604051809103902082608001516040516124a3919061305c565b90815260200160405180910390208260a001516040516124c3919061305c565b90815260200160405180910390206001826124de9190613268565b81548110612515577f4e487b7100000000000000000000000000000000000000000000000000000000600052603260045260246000fd5b9060005260206000200160006101000a81549073ffffffffffffffffffffffffffffffffffffffff021916905550505b5050505050565b600061255f61255a846131ab565b613186565b9050808382526020820190508285602086028201111561257e57600080fd5b60005b858110156125ae5781612594888261271e565b845260208401935060208301925050600181019050612581565b5050509392505050565b60006125cb6125c6846131ab565b613186565b905080838252602082019050828560208602820111156125ea57600080fd5b60005b8581101561261a57816126008882612733565b8452602084019350602083019250506001810190506125ed565b5050509392505050565b6000612637612632846131d7565b613186565b90508281526020810184848401111561264f57600080fd5b61265a8482856132f9565b509392505050565b6000612675612670846131d7565b613186565b90508281526020810184848401111561268d57600080fd5b612698848285613308565b509392505050565b6000813590506126af81613533565b92915050565b6000815190506126c481613533565b92915050565b600082601f8301126126db57600080fd5b81356126eb84826020860161254c565b91505092915050565b600082601f83011261270557600080fd5b81516127158482602086016125b8565b91505092915050565b60008135905061272d8161354a565b92915050565b6000815190506127428161354a565b92915050565b60008151905061275781613561565b92915050565b600082601f83011261276e57600080fd5b813561277e848260208601612624565b91505092915050565b600082601f83011261279857600080fd5b81516127a8848260208601612662565b91505092915050565b600061014082840312156127c457600080fd5b6127cf610140613186565b905060006127df84828501612ad8565b60008301525060206127f384828501612ad8565b602083015250604061280784828501612748565b604083015250606061281b84828501612733565b606083015250608061282f848285016126b5565b60808301525060a082015167ffffffffffffffff81111561284f57600080fd5b61285b84828501612787565b60a08301525060c082015167ffffffffffffffff81111561287b57600080fd5b61288784828501612787565b60c08301525060e082015167ffffffffffffffff8111156128a757600080fd5b6128b384828501612787565b60e08301525061010082015167ffffffffffffffff8111156128d457600080fd5b6128e0848285016129ef565b6101008301525061012082015167ffffffffffffffff81111561290257600080fd5b61290e848285016126f4565b6101208301525092915050565b60006080828403121561292d57600080fd5b6129376080613186565b9050600082013567ffffffffffffffff81111561295357600080fd5b61295f8482850161275d565b600083015250602082013567ffffffffffffffff81111561297f57600080fd5b61298b8482850161275d565b602083015250604082013567ffffffffffffffff8111156129ab57600080fd5b6129b78482850161275d565b604083015250606082013567ffffffffffffffff8111156129d757600080fd5b6129e38482850161275d565b60608301525092915050565b600060808284031215612a0157600080fd5b612a0b6080613186565b9050600082015167ffffffffffffffff811115612a2757600080fd5b612a3384828501612787565b600083015250602082015167ffffffffffffffff811115612a5357600080fd5b612a5f84828501612787565b602083015250604082015167ffffffffffffffff811115612a7f57600080fd5b612a8b84828501612787565b604083015250606082015167ffffffffffffffff811115612aab57600080fd5b612ab784828501612787565b60608301525092915050565b600081359050612ad281613578565b92915050565b600081519050612ae781613578565b92915050565b600060208284031215612aff57600080fd5b6000612b0d848285016126a0565b91505092915050565b60008060408385031215612b2957600080fd5b6000612b37858286016126a0565b9250506020612b48858286016126a0565b9150509250929050565b600080600060608486031215612b6757600080fd5b6000612b75868287016126a0565b935050602084013567ffffffffffffffff811115612b9257600080fd5b612b9e8682870161275d565b925050604084013567ffffffffffffffff811115612bbb57600080fd5b612bc7868287016126ca565b9150509250925092565b600080600060608486031215612be657600080fd5b6000612bf4868287016126a0565b935050602084013567ffffffffffffffff811115612c1157600080fd5b612c1d8682870161291b565b9250506040612c2e8682870161271e565b9150509250925092565b60008060408385031215612c4b57600080fd5b6000612c59858286016126a0565b9250506020612c6a85828601612ac3565b9150509250929050565b600060208284031215612c8657600080fd5b6000612c948482850161271e565b91505092915050565b60008060008060808587031215612cb357600080fd5b6000612cc18782880161271e565b945050602085013567ffffffffffffffff811115612cde57600080fd5b612cea8782880161275d565b935050604085013567ffffffffffffffff811115612d0757600080fd5b612d138782880161275d565b925050606085013567ffffffffffffffff811115612d3057600080fd5b612d3c8782880161275d565b91505092959194509250565b600080600080600060a08688031215612d6057600080fd5b6000612d6e8882890161271e565b955050602086013567ffffffffffffffff811115612d8b57600080fd5b612d978882890161275d565b945050604086013567ffffffffffffffff811115612db457600080fd5b612dc08882890161275d565b935050606086013567ffffffffffffffff811115612ddd57600080fd5b612de98882890161275d565b925050608086013567ffffffffffffffff811115612e0657600080fd5b612e128882890161275d565b9150509295509295909350565b600060208284031215612e3157600080fd5b600082013567ffffffffffffffff811115612e4b57600080fd5b612e578482850161275d565b91505092915050565b600060208284031215612e7257600080fd5b600082015167ffffffffffffffff811115612e8c57600080fd5b612e98848285016127b1565b91505092915050565b600060208284031215612eb357600080fd5b6000612ec184828501612ac3565b91505092915050565b6000612ed68383612ee2565b60208301905092915050565b612eeb8161329c565b82525050565b612efa8161329c565b82525050565b6000612f0b82613218565b612f15818561323b565b9350612f2083613208565b8060005b83811015612f51578151612f388882612eca565b9750612f438361322e565b925050600181019050612f24565b5085935050505092915050565b612f67816132ae565b82525050565b6000612f7882613223565b612f82818561325d565b9350612f92818560208601613308565b80840191505092915050565b6000612fab60138361324c565b9150612fb682613466565b602082019050919050565b6000612fce601c8361324c565b9150612fd98261348f565b602082019050919050565b6000612ff160168361324c565b9150612ffc826134b8565b602082019050919050565b600061301460178361324c565b915061301f826134e1565b602082019050919050565b600061303760168361324c565b91506130428261350a565b602082019050919050565b613056816132e2565b82525050565b60006130688284612f6d565b915081905092915050565b60006020820190506130886000830184612ef1565b92915050565b600060208201905081810360008301526130a88184612f00565b905092915050565b60006020820190506130c56000830184612f5e565b92915050565b600060208201905081810360008301526130e481612f9e565b9050919050565b6000602082019050818103600083015261310481612fc1565b9050919050565b6000602082019050818103600083015261312481612fe4565b9050919050565b6000602082019050818103600083015261314481613007565b9050919050565b600060208201905081810360008301526131648161302a565b9050919050565b6000602082019050613180600083018461304d565b92915050565b60006131906131a1565b905061319c828261336d565b919050565b6000604051905090565b600067ffffffffffffffff8211156131c6576131c5613426565b5b602082029050602081019050919050565b600067ffffffffffffffff8211156131f2576131f1613426565b5b6131fb82613455565b9050602081019050919050565b6000819050602082019050919050565b600081519050919050565b600081519050919050565b6000602082019050919050565b600082825260208201905092915050565b600082825260208201905092915050565b600081905092915050565b6000613273826132e2565b915061327e836132e2565b925082821015613291576132906133c8565b5b828203905092915050565b60006132a7826132c2565b9050919050565b6000819050919050565b6000819050919050565b600073ffffffffffffffffffffffffffffffffffffffff82169050919050565b6000819050919050565b600060ff82169050919050565b82818337600083830152505050565b60005b8381101561332657808201518184015260208101905061330b565b83811115613335576000848401525b50505050565b6000600282049050600182168061335357607f821691505b60208210811415613367576133666133f7565b5b50919050565b61337682613455565b810181811067ffffffffffffffff8211171561339557613394613426565b5b80604052505050565b60006133a9826132ec565b915060ff8214156133bd576133bc6133c8565b5b600182019050919050565b7f4e487b7100000000000000000000000000000000000000000000000000000000600052601160045260246000fd5b7f4e487b7100000000000000000000000000000000000000000000000000000000600052602260045260246000fd5b7f4e487b7100000000000000000000000000000000000000000000000000000000600052604160045260246000fd5b6000601f19601f8301169050919050565b7f4e6f7420494f5520746f6b656e2063616c6c7300000000000000000000000000600082015250565b7f4f6e6c79206d616b65466163746f72792063616e20646f207468697300000000600082015250565b7f4f6e6c79206f776e65722063616e20646f207468697300000000000000000000600082015250565b7f4f6e6c79206973737565722063616e20646f2074686973000000000000000000600082015250565b7f4e6f206d616b65466163746f7279206164647265737300000000000000000000600082015250565b61353c8161329c565b811461354757600080fd5b50565b613553816132ae565b811461355e57600080fd5b50565b61356a816132b8565b811461357557600080fd5b50565b613581816132e2565b811461358c57600080fd5b5056fea2646970667358221220b3960edc3f6ac713f60f58b723841a630ef5ea84ccc40d76925d96298011a8bc64736f6c63430008040033",
  "immutableReferences": {},
  "source": "pragma solidity >=  0.8.0;\npragma experimental ABIEncoderV2;\nimport \"./interfaces/iStoreIOUs.sol\";\nimport \"./interfaces/iIOUtoken.sol\";\n\n\ncontract StoreIOUs is iStoreIOUs {\n\n    mapping (address => address[]) public listIOUs; // list of emitted IOUs from emitent\n    mapping (string => address[])   listIOUsSoc; // list of emitted IOUs by social profile\n    mapping (address => address[]) public listHoldersIOUs; //list of tokens by holder\n    mapping (address => uint256) public isIOU; //security check is token emitted \n    mapping (address => mapping (address => bool)) isHolderthisIOU; //  check list of tokens by holder\n    mapping (bytes32 => address[]) listbyKeys; //list of IOUs by keyword\n    bytes32[] public allKeywords;  //list all keywords\n    address[] public allIOU; //list all emitted IOus\n    address[] public allIssuers; //list all issuers of  IOus\n\n    mapping (bytes32 =>\n    mapping (string => \n    mapping (string => \n    mapping (string => address[])))) internal  listbyCity_; // (keyword => country =>state =>city) => of IOUs\n    \n    mapping (bytes32 =>\n    mapping (string => \n    mapping (string => \n    mapping (string => \n    mapping (string => address[]))))) internal listbyStreet_; // (keyword=>country=> state => city =>street) => IOU \n\n    mapping (address => geoIOU ) posIOU;\n\n\n    address owner;\n    address makeFactory;\n\n    constructor ()  {\n        owner = msg.sender;\n    }\n\n    modifier onlyOwner() {\n        require (owner == msg.sender, \"Only owner can do this\");\n        _;\n    }\n\n    modifier onlyMake() {\n        require (makeFactory != address(0x0), \"No makeFactory address\");\n        require (makeFactory == msg.sender, \"Only makeFactory can do this\");\n        _;\n    }\n\n    modifier isIOUtoken () {\n        require (makeFactory == msg.sender || isIOU[msg.sender] > 0 , \"Not IOU token calls\" );\n        _;\n    }\n\n    function setOwner (address _newOwner) public onlyOwner {\n        owner = _newOwner;\n    }\n\n    function setFactory (address _newFact) public onlyOwner {\n        makeFactory = _newFact;\n    }\n\n    modifier onlyissuer(address _addrIOU) {\n        iIOUtoken.DescriptionIOU memory desc = iIOUtoken(_addrIOU).thisIOUDesc();\n        require (desc.issuer == msg.sender, \"Only issuer can do this\");\n        _;\n    }\n\n    function addIOU1 (address _newIOU, address _emitent) public override onlyMake {\n        \n        allIOU.push(_newIOU);\n        isIOU[_newIOU] = allIOU.length;\n\n        if (listIOUs[_emitent].length == 0) {\n            allIssuers.push(_emitent); \n        }\n        listIOUs[_emitent].push(_newIOU);\n    }\n\n\n    function addIOU2 (address _newIOU, \n                    string memory _socialProfile,                     \n                    bytes32[] memory _keywords) \n                    public override isIOUtoken   {        \n\n        listIOUsSoc[_socialProfile].push(_newIOU);\n        uint lenArr = _keywords.length > 5 ? 5: _keywords.length;\n        for (uint8 k=0 ; k < lenArr ; k++){\n        \n            if (_keywords[k] > 0 ){\n                if  (listbyKeys[_keywords[k]].length == 0 ) {\n                    \n                    allKeywords.push(_keywords[k]);\n                    setIOUGeo(_newIOU,\n                             iIOUtoken(_newIOU).thisIOUDesc().location, \n                             _keywords[k]);\n                }\n                listbyKeys[_keywords[k]].push(address(_newIOU));\n            }\n        } \n        }\n\n    function getIOUList (address _owner) public override view returns (address[] memory) {\n            return listIOUs[_owner];\n        }\n\n    function getIOUListSoc (string memory _profile) public override view returns (address[] memory) {\n            return listIOUsSoc[_profile];\n                }\n\n    function getIOUListKey (bytes32 _key) public override view returns (address[] memory) {\n            return listbyKeys[_key];\n                }\n\n\n    function addHolder(address _holder, address _IOUtoken) public override isIOUtoken {\n        if (!isHolderthisIOU[_holder][_IOUtoken] ) {\n            listHoldersIOUs [_holder].push(_IOUtoken);\n            isHolderthisIOU[_holder][_IOUtoken] = true;\n        }\n    }\n\n    function getIOUListHold (address _holder) public view override returns (address[] memory) {\n            return listHoldersIOUs [_holder];\n        }\n\n    function getIOUstotal () public view override  returns (uint256)\n    {\n        return allIOU.length;\n    }    \n\n    function getKeystotal () public view override returns (uint256)\n    {\n        return allKeywords.length;\n    }    \n\n    function getIssuerstotal () public view override returns (uint256)\n    {\n        return allIssuers.length;\n    }\n\n    function setIOUGeo (address _addrIOU, \n                        iIOUtoken.geo memory _loc,\n                        bytes32 _key) public  onlyissuer (_addrIOU) {\n\n        if (posIOU[_addrIOU].inCity == 0 && posIOU[_addrIOU].onStreet == 0)\n            {  \n            listbyCity_[_key] [_loc.country][_loc.state][_loc.city].push(_addrIOU);\n            posIOU[_addrIOU].inCity = listbyCity_[_key][_loc.country][_loc.state][_loc.city].length;\n            listbyStreet_[_key][_loc.country][_loc.state][_loc.city][_loc.street].push(_addrIOU);\n            posIOU[_addrIOU].onStreet = listbyStreet_[_key][_loc.country][_loc.state][_loc.city][_loc.street].length;\n            }\n        else {\n            geoIOU memory curr = posIOU[_addrIOU];\n            uint curlen = listbyCity_[_key][curr.country][curr.state][curr.city].length;\n\n            listbyCity_[_key][curr.country][curr.state][curr.city][curr.inCity -1] = \n            listbyCity_[_key][curr.country][curr.state][curr.city][curlen-1];\n            delete (listbyCity_[_key][curr.country][curr.state][curr.city][curlen-1]);\n\n            curlen = listbyStreet_[_key][curr.country][curr.state][curr.city][curr.street].length;\n            listbyStreet_[_key][curr.country][curr.state][curr.city][curr.street][curr.onStreet -1] = \n            listbyStreet_[_key][curr.country][curr.state][curr.city][curr.street][curlen-1];\n            delete (listbyStreet_[_key][curr.country][curr.state][curr.city][curr.street][curlen-1]);\n\n\n        }\n        \n    }\n\n\n\n    function getIOUsbyCity(bytes32 _key,\n                        string memory _country,\n                        string memory _state,\n                        string memory _city) public  view returns (address[] memory) {\n            return listbyCity_  [_key][_country][_state][_city];\n        }\n\n    function getIOUsbyStreet (bytes32 _key,\n                        string memory _country,\n                        string memory _state,\n                        string memory _city,\n                        string memory _street) public view returns (address[] memory) {\n            return listbyStreet_[_key][_country][_state][_city][_street];\n                }\n\n\n}",
  "sourcePath": "/home/st/Desktop/iou-components/contracts/StoreIOUs.sol",
  "compiler": {
    "name": "solc",
    "version": "0.8.4+commit.c7e474f2.Emscripten.clang"
  },
  "schemaVersion": "3.4.0",
  "updatedAt": "2021-07-31T08:51:42.903Z",
  "devdoc": {
    "kind": "dev",
    "methods": {},
    "version": 1
  },
  "userdoc": {
    "kind": "user",
    "methods": {},
    "version": 1
  }
}