{
  "contractName": "StoreIOUs",
  "abi": [
    {
      "inputs": [],
      "stateMutability": "nonpayable",
      "type": "constructor"
    },
    {
      "inputs": [
        {
          "internalType": "uint256",
          "name": "",
          "type": "uint256"
        }
      ],
      "name": "allIOU",
      "outputs": [
        {
          "internalType": "address",
          "name": "",
          "type": "address"
        }
      ],
      "stateMutability": "view",
      "type": "function",
      "constant": true
    },
    {
      "inputs": [
        {
          "internalType": "uint256",
          "name": "",
          "type": "uint256"
        }
      ],
      "name": "allIssuers",
      "outputs": [
        {
          "internalType": "address",
          "name": "",
          "type": "address"
        }
      ],
      "stateMutability": "view",
      "type": "function",
      "constant": true
    },
    {
      "inputs": [
        {
          "internalType": "uint256",
          "name": "",
          "type": "uint256"
        }
      ],
      "name": "allKeywords",
      "outputs": [
        {
          "internalType": "bytes32",
          "name": "",
          "type": "bytes32"
        }
      ],
      "stateMutability": "view",
      "type": "function",
      "constant": true
    },
    {
      "inputs": [
        {
          "internalType": "address",
          "name": "",
          "type": "address"
        }
      ],
      "name": "isIOU",
      "outputs": [
        {
          "internalType": "uint256",
          "name": "",
          "type": "uint256"
        }
      ],
      "stateMutability": "view",
      "type": "function",
      "constant": true
    },
    {
      "inputs": [
        {
          "internalType": "address",
          "name": "",
          "type": "address"
        },
        {
          "internalType": "uint256",
          "name": "",
          "type": "uint256"
        }
      ],
      "name": "listHoldersIOUs",
      "outputs": [
        {
          "internalType": "address",
          "name": "",
          "type": "address"
        }
      ],
      "stateMutability": "view",
      "type": "function",
      "constant": true
    },
    {
      "inputs": [
        {
          "internalType": "address",
          "name": "",
          "type": "address"
        },
        {
          "internalType": "uint256",
          "name": "",
          "type": "uint256"
        }
      ],
      "name": "listIOUs",
      "outputs": [
        {
          "internalType": "address",
          "name": "",
          "type": "address"
        }
      ],
      "stateMutability": "view",
      "type": "function",
      "constant": true
    },
    {
      "inputs": [
        {
          "internalType": "address",
          "name": "_newOwner",
          "type": "address"
        }
      ],
      "name": "setOwner",
      "outputs": [],
      "stateMutability": "nonpayable",
      "type": "function"
    },
    {
      "inputs": [
        {
          "internalType": "address",
          "name": "_newFact",
          "type": "address"
        }
      ],
      "name": "setFactory",
      "outputs": [],
      "stateMutability": "nonpayable",
      "type": "function"
    },
    {
      "inputs": [
        {
          "internalType": "address",
          "name": "_addrIOU",
          "type": "address"
        },
        {
          "internalType": "address",
          "name": "_emitent",
          "type": "address"
        }
      ],
      "name": "addIOU1",
      "outputs": [],
      "stateMutability": "nonpayable",
      "type": "function"
    },
    {
      "inputs": [
        {
          "internalType": "address",
          "name": "_addrIOU",
          "type": "address"
        },
        {
          "internalType": "string",
          "name": "_socialProfile",
          "type": "string"
        },
        {
          "internalType": "bytes32[]",
          "name": "_keywords",
          "type": "bytes32[]"
        }
      ],
      "name": "addIOU2",
      "outputs": [],
      "stateMutability": "nonpayable",
      "type": "function"
    },
    {
      "inputs": [
        {
          "internalType": "address",
          "name": "_addrIOU",
          "type": "address"
        },
        {
          "internalType": "bytes32[]",
          "name": "_keywords",
          "type": "bytes32[]"
        }
      ],
      "name": "addKeys",
      "outputs": [],
      "stateMutability": "nonpayable",
      "type": "function"
    },
    {
      "inputs": [
        {
          "internalType": "address",
          "name": "_addrIOU",
          "type": "address"
        },
        {
          "internalType": "bytes32[]",
          "name": "_keywords",
          "type": "bytes32[]"
        }
      ],
      "name": "delKeys",
      "outputs": [],
      "stateMutability": "nonpayable",
      "type": "function"
    },
    {
      "inputs": [
        {
          "internalType": "address",
          "name": "_addrIOU",
          "type": "address"
        },
        {
          "components": [
            {
              "internalType": "string",
              "name": "country",
              "type": "string"
            },
            {
              "internalType": "string",
              "name": "state",
              "type": "string"
            },
            {
              "internalType": "string",
              "name": "city",
              "type": "string"
            },
            {
              "internalType": "string",
              "name": "street",
              "type": "string"
            }
          ],
          "internalType": "struct iIOUtoken.geo",
          "name": "_loc",
          "type": "tuple"
        }
      ],
      "name": "changeIOUGeoAllkeys",
      "outputs": [],
      "stateMutability": "nonpayable",
      "type": "function"
    },
    {
      "inputs": [
        {
          "internalType": "address",
          "name": "_addrIOU",
          "type": "address"
        },
        {
          "internalType": "bytes32",
          "name": "key",
          "type": "bytes32"
        }
      ],
      "name": "_delkeyIOUGeo",
      "outputs": [],
      "stateMutability": "nonpayable",
      "type": "function"
    },
    {
      "inputs": [
        {
          "internalType": "address",
          "name": "_owner",
          "type": "address"
        }
      ],
      "name": "getIOUList",
      "outputs": [
        {
          "internalType": "address[]",
          "name": "",
          "type": "address[]"
        }
      ],
      "stateMutability": "view",
      "type": "function",
      "constant": true
    },
    {
      "inputs": [
        {
          "internalType": "string",
          "name": "_profile",
          "type": "string"
        }
      ],
      "name": "getIOUListSoc",
      "outputs": [
        {
          "internalType": "address[]",
          "name": "",
          "type": "address[]"
        }
      ],
      "stateMutability": "view",
      "type": "function",
      "constant": true
    },
    {
      "inputs": [
        {
          "internalType": "bytes32",
          "name": "_key",
          "type": "bytes32"
        }
      ],
      "name": "getIOUListKey",
      "outputs": [
        {
          "internalType": "address[]",
          "name": "",
          "type": "address[]"
        }
      ],
      "stateMutability": "view",
      "type": "function",
      "constant": true
    },
    {
      "inputs": [
        {
          "internalType": "address",
          "name": "_holder",
          "type": "address"
        },
        {
          "internalType": "address",
          "name": "_IOUtoken",
          "type": "address"
        }
      ],
      "name": "addHolder",
      "outputs": [],
      "stateMutability": "nonpayable",
      "type": "function"
    },
    {
      "inputs": [
        {
          "internalType": "address",
          "name": "_holder",
          "type": "address"
        }
      ],
      "name": "getIOUListHold",
      "outputs": [
        {
          "internalType": "address[]",
          "name": "",
          "type": "address[]"
        }
      ],
      "stateMutability": "view",
      "type": "function",
      "constant": true
    },
    {
      "inputs": [],
      "name": "getIOUstotal",
      "outputs": [
        {
          "internalType": "uint256",
          "name": "",
          "type": "uint256"
        }
      ],
      "stateMutability": "view",
      "type": "function",
      "constant": true
    },
    {
      "inputs": [],
      "name": "getKeystotal",
      "outputs": [
        {
          "internalType": "uint256",
          "name": "",
          "type": "uint256"
        }
      ],
      "stateMutability": "view",
      "type": "function",
      "constant": true
    },
    {
      "inputs": [],
      "name": "getIssuerstotal",
      "outputs": [
        {
          "internalType": "uint256",
          "name": "",
          "type": "uint256"
        }
      ],
      "stateMutability": "view",
      "type": "function",
      "constant": true
    },
    {
      "inputs": [
        {
          "internalType": "bytes32",
          "name": "_key",
          "type": "bytes32"
        },
        {
          "internalType": "string",
          "name": "_country",
          "type": "string"
        },
        {
          "internalType": "string",
          "name": "_state",
          "type": "string"
        },
        {
          "internalType": "string",
          "name": "_city",
          "type": "string"
        }
      ],
      "name": "getIOUsbyCity",
      "outputs": [
        {
          "internalType": "address[]",
          "name": "",
          "type": "address[]"
        }
      ],
      "stateMutability": "view",
      "type": "function",
      "constant": true
    },
    {
      "inputs": [
        {
          "internalType": "bytes32",
          "name": "_key",
          "type": "bytes32"
        },
        {
          "internalType": "string",
          "name": "_country",
          "type": "string"
        },
        {
          "internalType": "string",
          "name": "_state",
          "type": "string"
        },
        {
          "internalType": "string",
          "name": "_city",
          "type": "string"
        },
        {
          "internalType": "string",
          "name": "_street",
          "type": "string"
        }
      ],
      "name": "getIOUsbyStreet",
      "outputs": [
        {
          "internalType": "address[]",
          "name": "",
          "type": "address[]"
        }
      ],
      "stateMutability": "view",
      "type": "function",
      "constant": true
    }
  ],
  "bytecode": "0x608060405234801561001057600080fd5b50600d80546001600160a01b0319163317905561271b806100326000396000f3fe608060405234801561001057600080fd5b50600436106101575760003560e01c80636222286c116100c3578063c5ab15291161007c578063c5ab1529146102df578063e03e56a9146102f2578063e83d90f414610305578063f22c3bc314610318578063f466013d14610320578063fd67d0311461033357600080fd5b80636222286c1461026b5780636e01acb81461027e57806376f7f6de1461029157806383ef7f2314610299578063b21b4451146102ac578063b442fc61146102cc57600080fd5b806341b5658c1161011557806341b5658c146101f95780634f2c272a1461020c57806352fae04e1461021f5780635596b2ab146102325780635899d142146102455780635bb478081461025857600080fd5b8062a50d811461015c57806313af40351461018c57806323b3af89146101a157806330b02b21146101b457806331df3737146101c657806338a10485146101e6575b600080fd5b61016f61016a36600461205f565b610346565b6040516001600160a01b0390911681526020015b60405180910390f35b61019f61019a366004611fb7565b61037e565b005b61019f6101af366004611fda565b6103f8565b6009545b604051908152602001610183565b6101d96101d4366004611fb7565b6104f2565b60405161018391906124ba565b61019f6101f436600461208a565b610566565b61019f6102073660046120fc565b610628565b6101d961021a3660046121e2565b6107bb565b6101b861022d3660046121e2565b610825565b6101d9610240366004612287565b610846565b61019f610253366004611fda565b610929565b61019f610266366004611fb7565b610acf565b61019f610279366004612012565b610b44565b6101d961028c366004611fb7565b610bfb565b6007546101b8565b61019f6102a736600461205f565b610c6f565b6101b86102ba366004611fb7565b60036020526000908152604090205481565b61016f6102da3660046121e2565b61158e565b61016f6102ed3660046121e2565b6115b8565b6101d9610300366004612338565b6115c8565b6101d96103133660046121fa565b611640565b6008546101b8565b61016f61032e36600461205f565b611706565b61019f610341366004612012565b611722565b6000602052816000526040600020818154811061036257600080fd5b6000918252602090912001546001600160a01b03169150829050565b600d546001600160a01b031633146103d65760405162461bcd60e51b81526020600482015260166024820152754f6e6c79206f776e65722063616e20646f207468697360501b60448201526064015b60405180910390fd5b600d80546001600160a01b0319166001600160a01b0392909216919091179055565b600e546001600160a01b031633148061041f57503360009081526003602052604090205415155b6104615760405162461bcd60e51b81526020600482015260136024820152724e6f7420494f5520746f6b656e2063616c6c7360681b60448201526064016103cd565b6001600160a01b0380831660009081526004602090815260408083209385168352929052205460ff166104ee576001600160a01b0382811660008181526002602090815260408083208054600180820183559185528385200180546001600160a01b03191696881696871790559383526004825280832094835293905291909120805460ff191690911790555b5050565b6001600160a01b0381166000908152602081815260409182902080548351818402810184019094528084526060939283018282801561055a57602002820191906000526020600020905b81546001600160a01b0316815260019091019060200180831161053c575b50505050509050919050565b600e546001600160a01b031633148061058d57503360009081526003602052604090205415155b6105cf5760405162461bcd60e51b81526020600482015260136024820152724e6f7420494f5520746f6b656e2063616c6c7360681b60448201526064016103cd565b6001826040516105df919061249e565b90815260405160209181900382019020805460018101825560009182529190200180546001600160a01b0319166001600160a01b03851617905561062383826117d3565b505050565b816000816001600160a01b0316630a5763646040518163ffffffff1660e01b815260040160006040518083038186803b15801561066457600080fd5b505afa158015610678573d6000803e3d6000fd5b505050506040513d6000823e601f3d908101601f191682016040526106a0919081019061236a565b60808101519091506001600160a01b031633146106cf5760405162461bcd60e51b81526004016103cd90612507565b6000846001600160a01b0316630a5763646040518163ffffffff1660e01b815260040160006040518083038186803b15801561070a57600080fd5b505afa15801561071e573d6000803e3d6000fd5b505050506040513d6000823e601f3d908101601f19168201604052610746919081019061236a565b6101200151905060005b81518160ff1610156107b3576000828260ff168151811061078157634e487b7160e01b600052603260045260246000fd5b602002602001015190506107958782610c6f565b6107a0878783611960565b50806107ab81612681565b915050610750565b505050505050565b60008181526005602090815260409182902080548351818402810184019094528084526060939283018282801561055a576020028201919060005260206000209081546001600160a01b0316815260019091019060200180831161053c5750505050509050919050565b6007818154811061083557600080fd5b600091825260209091200154905081565b6060600b600087815260200190815260200160002085604051610869919061249e565b908152602001604051809103902084604051610885919061249e565b9081526020016040518091039020836040516108a1919061249e565b9081526020016040518091039020826040516108bd919061249e565b908152604080519182900360209081018320805480830285018301909352828452919083018282801561091957602002820191906000526020600020905b81546001600160a01b031681526001909101906020018083116108fb575b5050505050905095945050505050565b600e546001600160a01b031661097a5760405162461bcd60e51b81526020600482015260166024820152754e6f206d616b65466163746f7279206164647265737360501b60448201526064016103cd565b600e546001600160a01b031633146109d45760405162461bcd60e51b815260206004820152601c60248201527f4f6e6c79206d616b65466163746f72792063616e20646f20746869730000000060448201526064016103cd565b600880546001810182557ff3f7a9fe364faab93b216da50a3214154f22a0a2b415b23a84c8169e8b636ee30180546001600160a01b0319166001600160a01b038581169182179092559154600092835260036020908152604080852092909255918416835290829052902054610a9057600980546001810182556000919091527f6e1540171b6c0c960b71a7020d9f60077f6af931a8bbf590da0223dacf75c7af0180546001600160a01b0319166001600160a01b0383161790555b6001600160a01b039081166000908152602081815260408220805460018101825590835291200180546001600160a01b03191692909116919091179055565b600d546001600160a01b03163314610b225760405162461bcd60e51b81526020600482015260166024820152754f6e6c79206f776e65722063616e20646f207468697360501b60448201526064016103cd565b600e80546001600160a01b0319166001600160a01b0392909216919091179055565b816000816001600160a01b0316630a5763646040518163ffffffff1660e01b815260040160006040518083038186803b158015610b8057600080fd5b505afa158015610b94573d6000803e3d6000fd5b505050506040513d6000823e601f3d908101601f19168201604052610bbc919081019061236a565b60808101519091506001600160a01b03163314610beb5760405162461bcd60e51b81526004016103cd90612507565b610bf584846117d3565b50505050565b6001600160a01b03811660009081526002602090815260409182902080548351818402810184019094528084526060939283018282801561055a576020028201919060005260206000209081546001600160a01b0316815260019091019060200180831161053c5750505050509050919050565b816000816001600160a01b0316630a5763646040518163ffffffff1660e01b815260040160006040518083038186803b158015610cab57600080fd5b505afa158015610cbf573d6000803e3d6000fd5b505050506040513d6000823e601f3d908101601f19168201604052610ce7919081019061236a565b60808101519091506001600160a01b03163314610d165760405162461bcd60e51b81526004016103cd90612507565b6001600160a01b0384166000908152600c60209081526040808320815160c081018352815481526001820154938101939093526002810180549192840191610d5d90612646565b80601f0160208091040260200160405190810160405280929190818152602001828054610d8990612646565b8015610dd65780601f10610dab57610100808354040283529160200191610dd6565b820191906000526020600020905b815481529060010190602001808311610db957829003601f168201915b50505050508152602001600382018054610def90612646565b80601f0160208091040260200160405190810160405280929190818152602001828054610e1b90612646565b8015610e685780601f10610e3d57610100808354040283529160200191610e68565b820191906000526020600020905b815481529060010190602001808311610e4b57829003601f168201915b50505050508152602001600482018054610e8190612646565b80601f0160208091040260200160405190810160405280929190818152602001828054610ead90612646565b8015610efa5780601f10610ecf57610100808354040283529160200191610efa565b820191906000526020600020905b815481529060010190602001808311610edd57829003601f168201915b50505050508152602001600582018054610f1390612646565b80601f0160208091040260200160405190810160405280929190818152602001828054610f3f90612646565b8015610f8c5780601f10610f6157610100808354040283529160200191610f8c565b820191906000526020600020905b815481529060010190602001808311610f6f57829003601f168201915b50505050508152505090506000600a60008681526020019081526020016000208260400151604051610fbe919061249e565b90815260200160405180910390208260600151604051610fde919061249e565b90815260200160405180910390208260800151604051610ffe919061249e565b9081526020016040518091039020805490509050600a60008681526020019081526020016000208260400151604051611037919061249e565b90815260200160405180910390208260600151604051611057919061249e565b90815260200160405180910390208260800151604051611077919061249e565b908152604051908190036020019020611091600183612603565b815481106110af57634e487b7160e01b600052603260045260246000fd5b9060005260206000200160009054906101000a90046001600160a01b0316600a600087815260200190815260200160002083604001516040516110f2919061249e565b90815260200160405180910390208360600151604051611112919061249e565b90815260200160405180910390208360800151604051611132919061249e565b908152604051908190036020019020835161114f90600190612603565b8154811061116d57634e487b7160e01b600052603260045260246000fd5b9060005260206000200160006101000a8154816001600160a01b0302191690836001600160a01b03160217905550600a600086815260200190815260200160002082604001516040516111c0919061249e565b908152602001604051809103902082606001516040516111e0919061249e565b90815260200160405180910390208260800151604051611200919061249e565b90815260405190819003602001902061121a600183612603565b8154811061123857634e487b7160e01b600052603260045260246000fd5b6000918252602080832090910180546001600160a01b0319169055868252600b905260409081902083820151915190916112719161249e565b90815260200160405180910390208260600151604051611291919061249e565b908152602001604051809103902082608001516040516112b1919061249e565b90815260200160405180910390208260a001516040516112d1919061249e565b9081526020016040518091039020805490509050600b6000868152602001908152602001600020826040015160405161130a919061249e565b9081526020016040518091039020826060015160405161132a919061249e565b9081526020016040518091039020826080015160405161134a919061249e565b90815260200160405180910390208260a0015160405161136a919061249e565b908152604051908190036020019020611384600183612603565b815481106113a257634e487b7160e01b600052603260045260246000fd5b9060005260206000200160009054906101000a90046001600160a01b0316600b600087815260200190815260200160002083604001516040516113e5919061249e565b90815260200160405180910390208360600151604051611405919061249e565b90815260200160405180910390208360800151604051611425919061249e565b90815260200160405180910390208360a00151604051611445919061249e565b9081526020016040518091039020600184602001516114649190612603565b8154811061148257634e487b7160e01b600052603260045260246000fd5b9060005260206000200160006101000a8154816001600160a01b0302191690836001600160a01b03160217905550600b600086815260200190815260200160002082604001516040516114d5919061249e565b908152602001604051809103902082606001516040516114f5919061249e565b90815260200160405180910390208260800151604051611515919061249e565b90815260200160405180910390208260a00151604051611535919061249e565b90815260405190819003602001902061154f600183612603565b8154811061156d57634e487b7160e01b600052603260045260246000fd5b600091825260209091200180546001600160a01b0319169055505050505050565b6009818154811061159e57600080fd5b6000918252602090912001546001600160a01b0316905081565b6008818154811061159e57600080fd5b60606001826040516115da919061249e565b908152604080519182900360209081018320805480830285018301909352828452919083018282801561055a576020028201919060005260206000209081546001600160a01b0316815260019091019060200180831161053c5750505050509050919050565b6060600a600086815260200190815260200160002084604051611663919061249e565b90815260200160405180910390208360405161167f919061249e565b90815260200160405180910390208260405161169b919061249e565b90815260408051918290036020908101832080548083028501830190935282845291908301828280156116f757602002820191906000526020600020905b81546001600160a01b031681526001909101906020018083116116d9575b50505050509050949350505050565b6002602052816000526040600020818154811061036257600080fd5b816000816001600160a01b0316630a5763646040518163ffffffff1660e01b815260040160006040518083038186803b15801561175e57600080fd5b505afa158015611772573d6000803e3d6000fd5b505050506040513d6000823e601f3d908101601f1916820160405261179a919081019061236a565b60808101519091506001600160a01b031633146117c95760405162461bcd60e51b81526004016103cd90612507565b610bf58484611bde565b600060058251116117e55781516117e8565b60055b905060005b818160ff161015610bf5576000838260ff168151811061181d57634e487b7160e01b600052603260045260246000fd5b602002602001015190506000801b81111561194d5760008181526005602052604090205461187b57600780546001810182556000919091527fa66cc928b5edb82af9bd49922954155ab7b0942694bea4ce44661d9a8736c688018190555b600081815260056020908152604080832080546001810182558185528385200180546001600160a01b0319166001600160a01b038b16908117909155858552905460068452828520828652909352818420929092558051630295d8d960e21b8152905161194d93899392630a5763649260048083019392829003018186803b15801561190657600080fd5b505afa15801561191a573d6000803e3d6000fd5b505050506040513d6000823e601f3d908101601f19168201604052611942919081019061236a565b610100015183611960565b508061195881612681565b9150506117ed565b6000818152600a60205260409081902083519151909161197f9161249e565b9081526020016040518091039020826020015160405161199f919061249e565b908152602001604051809103902082604001516040516119bf919061249e565b9081526040805160209281900383018120805460018101825560009182528482200180546001600160a01b0319166001600160a01b038916179055848152600a909352912083519091611a12919061249e565b90815260200160405180910390208260200151604051611a32919061249e565b90815260200160405180910390208260400151604051611a52919061249e565b908152604080519182900360209081018320546001600160a01b0387166000908152600c835283812091909155848152600b9091522083519091611a96919061249e565b90815260200160405180910390208260200151604051611ab6919061249e565b90815260200160405180910390208260400151604051611ad6919061249e565b90815260200160405180910390208260600151604051611af6919061249e565b9081526040805160209281900383018120805460018101825560009182528482200180546001600160a01b0319166001600160a01b038916179055848152600b909352912083519091611b49919061249e565b90815260200160405180910390208260200151604051611b69919061249e565b90815260200160405180910390208260400151604051611b89919061249e565b90815260200160405180910390208260600151604051611ba9919061249e565b9081526040805160209281900383019020546001600160a01b03959095166000908152600c9092529020600101929092555050565b60006005825111611bf0578151611bf3565b60055b905060005b818160ff161015610bf5576000838260ff1681518110611c2857634e487b7160e01b600052603260045260246000fd5b602002602001015190506000801b811115611d7a5760008181526006602090815260408083206001600160a01b03891684529091529020548015611d785760008281526005602052604090208054611c8290600190612603565b81548110611ca057634e487b7160e01b600052603260045260246000fd5b6000918252602080832090910154848352600590915260409091206001600160a01b0390911690611cd2600184612603565b81548110611cf057634e487b7160e01b600052603260045260246000fd5b600091825260208083209190910180546001600160a01b0319166001600160a01b0394909416939093179092558381526005909152604090208054611d3790600190612603565b81548110611d5557634e487b7160e01b600052603260045260246000fd5b600091825260209091200180546001600160a01b0319169055611d788683610c6f565b505b5080611d8581612681565b915050611bf8565b8051611d98816126cd565b919050565b600082601f830112611dad578081fd5b81356020611dc2611dbd836125b9565b612589565b80838252828201915082860187848660051b8901011115611de1578586fd5b855b85811015611dff57813584529284019290840190600101611de3565b5090979650505050505050565b600082601f830112611e1c578081fd5b81516020611e2c611dbd836125b9565b80838252828201915082860187848660051b8901011115611e4b578586fd5b855b85811015611dff57815184529284019290840190600101611e4d565b600082601f830112611e79578081fd5b8135611e87611dbd826125dc565b818152846020838601011115611e9b578283fd5b816020850160208301379081016020019190915292915050565b600082601f830112611ec5578081fd5b8151611ed3611dbd826125dc565b818152846020838601011115611ee7578283fd5b611ef882602083016020870161261a565b949350505050565b600060808284031215611f11578081fd5b611f1961253e565b905081516001600160401b0380821115611f3257600080fd5b611f3e85838601611eb5565b83526020840151915080821115611f5457600080fd5b611f6085838601611eb5565b60208401526040840151915080821115611f7957600080fd5b611f8585838601611eb5565b60408401526060840151915080821115611f9e57600080fd5b50611fab84828501611eb5565b60608301525092915050565b600060208284031215611fc8578081fd5b8135611fd3816126cd565b9392505050565b60008060408385031215611fec578081fd5b8235611ff7816126cd565b91506020830135612007816126cd565b809150509250929050565b60008060408385031215612024578182fd5b823561202f816126cd565b915060208301356001600160401b03811115612049578182fd5b61205585828601611d9d565b9150509250929050565b60008060408385031215612071578182fd5b823561207c816126cd565b946020939093013593505050565b60008060006060848603121561209e578081fd5b83356120a9816126cd565b925060208401356001600160401b03808211156120c4578283fd5b6120d087838801611e69565b935060408601359150808211156120e5578283fd5b506120f286828701611d9d565b9150509250925092565b6000806040838503121561210e578182fd5b8235612119816126cd565b915060208301356001600160401b0380821115612134578283fd5b9084019060808287031215612147578283fd5b61214f61253e565b82358281111561215d578485fd5b61216988828601611e69565b82525060208301358281111561217d578485fd5b61218988828601611e69565b6020830152506040830135828111156121a0578485fd5b6121ac88828601611e69565b6040830152506060830135828111156121c3578485fd5b6121cf88828601611e69565b6060830152508093505050509250929050565b6000602082840312156121f3578081fd5b5035919050565b6000806000806080858703121561220f578182fd5b8435935060208501356001600160401b038082111561222c578384fd5b61223888838901611e69565b9450604087013591508082111561224d578384fd5b61225988838901611e69565b9350606087013591508082111561226e578283fd5b5061227b87828801611e69565b91505092959194509250565b600080600080600060a0868803121561229e578283fd5b8535945060208601356001600160401b03808211156122bb578485fd5b6122c789838a01611e69565b955060408801359150808211156122dc578485fd5b6122e889838a01611e69565b945060608801359150808211156122fd578283fd5b61230989838a01611e69565b9350608088013591508082111561231e578283fd5b5061232b88828901611e69565b9150509295509295909350565b600060208284031215612349578081fd5b81356001600160401b0381111561235e578182fd5b611ef884828501611e69565b60006020828403121561237b578081fd5b81516001600160401b0380821115612391578283fd5b9083019061014082860312156123a5578283fd5b6123ad612566565b825181526020830151602082015260408301516040820152606083015160608201526123db60808401611d8d565b608082015260a0830151828111156123f1578485fd5b6123fd87828601611eb5565b60a08301525060c083015182811115612414578485fd5b61242087828601611eb5565b60c08301525060e083015182811115612437578485fd5b61244387828601611eb5565b60e083015250610100808401518381111561245c578586fd5b61246888828701611f00565b8284015250506101208084015183811115612481578586fd5b61248d88828701611e0c565b918301919091525095945050505050565b600082516124b081846020870161261a565b9190910192915050565b6020808252825182820181905260009190848201906040850190845b818110156124fb5783516001600160a01b0316835292840192918401916001016124d6565b50909695505050505050565b60208082526017908201527f4f6e6c79206973737565722063616e20646f2074686973000000000000000000604082015260600190565b604051608081016001600160401b0381118282101715612560576125606126b7565b60405290565b60405161014081016001600160401b0381118282101715612560576125606126b7565b604051601f8201601f191681016001600160401b03811182821017156125b1576125b16126b7565b604052919050565b60006001600160401b038211156125d2576125d26126b7565b5060051b60200190565b60006001600160401b038211156125f5576125f56126b7565b50601f01601f191660200190565b600082821015612615576126156126a1565b500390565b60005b8381101561263557818101518382015260200161261d565b83811115610bf55750506000910152565b600181811c9082168061265a57607f821691505b6020821081141561267b57634e487b7160e01b600052602260045260246000fd5b50919050565b600060ff821660ff811415612698576126986126a1565b60010192915050565b634e487b7160e01b600052601160045260246000fd5b634e487b7160e01b600052604160045260246000fd5b6001600160a01b03811681146126e257600080fd5b5056fea26469706673582212207facc2283db1df1e9f13950e0b43db4589b2f48271bd8ce3970dd488c6f17d0464736f6c63430008040033",
  "immutableReferences": {},
  "source": "pragma solidity >=  0.8.0;\npragma experimental ABIEncoderV2;\nimport \"./interfaces/iStoreIOUs.sol\";\nimport \"./interfaces/iIOUtoken.sol\";\n\n\ncontract StoreIOUs is iStoreIOUs {\n//todo : break this brick \n    mapping (address => address[]) public listIOUs; // list of emitted IOUs from emitent\n    mapping (string => address[])   listIOUsSoc; // list of emitted IOUs by social profile\n    mapping (address => address[]) public listHoldersIOUs; //list of tokens by holder\n    mapping (address => uint256) public isIOU; //security check is token emitted \n    mapping (address => mapping (address => bool)) isHolderthisIOU; //  check list of tokens by holder\n\n    mapping (bytes32 => address[]) listbyKeys; //list of IOUs by keyword\n    mapping (bytes32 => \n    mapping (address => uint256))  keyByList; //reverse index for listbyKeys to editing keywords\n    bytes32[] public allKeywords;  //list all keywords\n    address[] public allIOU; //list all emitted IOus\n    address[] public allIssuers; //list all issuers of  IOus\n\n    mapping (bytes32 =>\n    mapping (string => \n    mapping (string => \n    mapping (string => address[])))) internal  listbyCity_; // (keyword => country =>state =>city) => of IOUs\n    \n    mapping (bytes32 =>\n    mapping (string => \n    mapping (string => \n    mapping (string => \n    mapping (string => address[]))))) internal listbyStreet_; // (keyword=>country=> state => city =>street) => IOU \n\n    mapping (address => geoIOU ) posIOU;\n\n\n    address owner;\n    address makeFactory;\n\n    constructor ()  {\n        owner = msg.sender;\n    }\n\n    modifier onlyOwner() {\n        require (owner == msg.sender, \"Only owner can do this\");\n        _;\n    }\n\n    modifier onlyMake() {\n        require (makeFactory != address(0x0), \"No makeFactory address\");\n        require (makeFactory == msg.sender, \"Only makeFactory can do this\");\n        _;\n    }\n\n    modifier isIOUtoken () {\n        require (makeFactory == msg.sender || isIOU[msg.sender] > 0 , \"Not IOU token calls\" );\n        _;\n    }\n\n    function setOwner (address _newOwner) public onlyOwner {\n        owner = _newOwner;\n    }\n\n    function setFactory (address _newFact) public onlyOwner {\n        makeFactory = _newFact;\n    }\n\n    modifier onlyissuer(address _addrIOU) {\n        iIOUtoken.DescriptionIOU memory desc = iIOUtoken(_addrIOU).thisIOUDesc();\n        require (desc.issuer == msg.sender, \"Only issuer can do this\");\n        _;\n    }\n\n    function addIOU1 (address _addrIOU, address _emitent) public override onlyMake {\n        \n        allIOU.push(_addrIOU);\n        isIOU[_addrIOU] = allIOU.length;\n\n        if (listIOUs[_emitent].length == 0) {\n            allIssuers.push(_emitent); \n        }\n        listIOUs[_emitent].push(_addrIOU);\n    }\n\n\n    function addIOU2 (address _addrIOU, \n                    string memory _socialProfile,                     \n                    bytes32[] memory _keywords) \n                    public override isIOUtoken   {        \n\n        listIOUsSoc[_socialProfile].push(_addrIOU);\n        _addKeys(_addrIOU, _keywords);\n    }\n\n\n    function addKeys (address _addrIOU, bytes32[] memory _keywords) public onlyissuer(_addrIOU) {\n        _addKeys(_addrIOU, _keywords);\n    }\n    function delKeys (address _addrIOU, bytes32[] memory _keywords) public onlyissuer(_addrIOU) {\n        _delKeys(_addrIOU, _keywords);\n    }\n\n    \n    /// when changed geolocation\n    function changeIOUGeoAllkeys  (address _addrIOU, \n                            iIOUtoken.geo memory _loc \n                            ) public onlyissuer(_addrIOU) {\n        bytes32[] memory keys = iIOUtoken(_addrIOU).thisIOUDesc().keywords;\n        for (uint8 k=0; k<keys.length; k++)  {  \n            bytes32 key = keys[k];\n            _delkeyIOUGeo(_addrIOU, key);\n            _setIOUGeo(_addrIOU, _loc, key);          \n\n            }\n    }\n    function _addKeys (address _addrIOU, bytes32[] memory _keywords) internal{\n\n        uint lenArr = _keywords.length > 5 ? 5: _keywords.length;\n        for (uint8 k=0 ; k < lenArr ; k++){\n            bytes32 key = _keywords[k];\n                if (key > 0 ){\n                    if  (listbyKeys[key].length == 0 ) {\n                        \n                        allKeywords.push(key);\n\n                    }\n                    listbyKeys[key].push(_addrIOU);\n                    keyByList[key][_addrIOU] = listbyKeys[key].length;\n                    _setIOUGeo(_addrIOU,\n                            iIOUtoken(_addrIOU).thisIOUDesc().location, \n                            key);\n                }\n            } \n    }\n\n\n    function _delKeys (address _addrIOU, bytes32[] memory _keywords) internal{\n\n        uint lenArr = _keywords.length > 5 ? 5: _keywords.length;\n        for (uint8 k=0 ; k < lenArr ; k++){\n            bytes32 key = _keywords[k];\n            if (key > 0 ){\n                uint keyNum = keyByList[key][_addrIOU];\n                if  (keyNum > 0 ) {\n                    listbyKeys[key][keyNum-1] = \n                    listbyKeys[key][\n                    listbyKeys[key].length -1];\n                    delete (listbyKeys[key][\n                            listbyKeys[key].length -1]);\n                    _delkeyIOUGeo(_addrIOU, key);\n                }\n \n            }\n        } \n    }\n\n\n    function _setIOUGeo (address _addrIOU, \n                        iIOUtoken.geo memory _loc,\n                        bytes32 _key) internal { //public  onlyissuer (_addrIOU)\n\n        listbyCity_[_key] [_loc.country][_loc.state][_loc.city].push(_addrIOU);\n        posIOU[_addrIOU].inCity = listbyCity_[_key][_loc.country][_loc.state][_loc.city].length;\n        listbyStreet_[_key][_loc.country][_loc.state][_loc.city][_loc.street].push(_addrIOU);\n        posIOU[_addrIOU].onStreet = listbyStreet_[_key][_loc.country][_loc.state][_loc.city][_loc.street].length;\n\n    }\n\n    function _delkeyIOUGeo  (address _addrIOU, \n                            bytes32 key) public onlyissuer(_addrIOU) {\n\n        geoIOU memory curr = posIOU[_addrIOU];\n\n        uint curlen = listbyCity_[key][curr.country][curr.state][curr.city].length;\n        // delete old key connection\n        listbyCity_[key][curr.country][curr.state][curr.city][curr.inCity -1] = \n        listbyCity_[key][curr.country][curr.state][curr.city][curlen-1];\n        delete (listbyCity_[key][curr.country][curr.state][curr.city][curlen-1]);\n\n        curlen = listbyStreet_[key][curr.country][curr.state][curr.city][curr.street].length;\n        listbyStreet_[key][curr.country][curr.state][curr.city][curr.street][curr.onStreet -1] = \n        listbyStreet_[key][curr.country][curr.state][curr.city][curr.street][curlen-1];\n        delete (listbyStreet_[key][curr.country][curr.state][curr.city][curr.street][curlen-1]);\n        \n        }\n\n\n\n    function getIOUList (address _owner) public override view returns (address[] memory) {\n            return listIOUs[_owner];\n        }\n\n    function getIOUListSoc (string memory _profile) public override view returns (address[] memory) {\n            return listIOUsSoc[_profile];\n                }\n\n    function getIOUListKey (bytes32 _key) public override view returns (address[] memory) {\n            return listbyKeys[_key];\n                }\n\n\n    function addHolder(address _holder, address _IOUtoken) public override isIOUtoken {\n        if (!isHolderthisIOU[_holder][_IOUtoken] ) {\n            listHoldersIOUs [_holder].push(_IOUtoken);\n            isHolderthisIOU[_holder][_IOUtoken] = true;\n        }\n    }\n\n    function getIOUListHold (address _holder) public view override returns (address[] memory) {\n            return listHoldersIOUs [_holder];\n        }\n\n    function getIOUstotal () public view override  returns (uint256)\n    {\n        return allIOU.length;\n    }    \n\n    function getKeystotal () public view override returns (uint256)\n    {\n        return allKeywords.length;\n    }    \n\n    function getIssuerstotal () public view override returns (uint256)\n    {\n        return allIssuers.length;\n    }\n\n    function getIOUsbyCity(bytes32 _key,\n                            string memory _country,\n                            string memory _state,\n                            string memory _city) public  view returns (address[] memory) {\n                return listbyCity_  [_key][_country][_state][_city];\n            }\n\n    function getIOUsbyStreet (bytes32 _key,\n                        string memory _country,\n                        string memory _state,\n                        string memory _city,\n                        string memory _street) public view returns (address[] memory) {\n            return listbyStreet_[_key][_country][_state][_city][_street];\n                }\n\n\n    }",
  "sourcePath": "/mnt/512-2/dfd/iou2/contracts/StoreIOUs.sol",
  "compiler": {
    "name": "solc",
    "version": "0.8.4+commit.c7e474f2.Emscripten.clang"
  },
  "schemaVersion": "3.4.3",
  "updatedAt": "2021-08-28T06:55:05.800Z",
  "networkType": "ethereum",
  "devdoc": {
    "kind": "dev",
    "methods": {},
    "version": 1
  },
  "userdoc": {
    "kind": "user",
    "methods": {
      "changeIOUGeoAllkeys(address,(string,string,string,string))": {
        "notice": "when changed geolocation"
      }
    },
    "version": 1
  }
}