{
  "contractName": "StoreIOUs",
  "abi": [
    {
      "inputs": [],
      "stateMutability": "nonpayable",
      "type": "constructor"
    },
    {
      "inputs": [
        {
          "internalType": "uint256",
          "name": "",
          "type": "uint256"
        }
      ],
      "name": "allIOU",
      "outputs": [
        {
          "internalType": "address",
          "name": "",
          "type": "address"
        }
      ],
      "stateMutability": "view",
      "type": "function",
      "constant": true
    },
    {
      "inputs": [
        {
          "internalType": "uint256",
          "name": "",
          "type": "uint256"
        }
      ],
      "name": "allIssuers",
      "outputs": [
        {
          "internalType": "address",
          "name": "",
          "type": "address"
        }
      ],
      "stateMutability": "view",
      "type": "function",
      "constant": true
    },
    {
      "inputs": [
        {
          "internalType": "uint256",
          "name": "",
          "type": "uint256"
        }
      ],
      "name": "allKeywords",
      "outputs": [
        {
          "internalType": "bytes32",
          "name": "",
          "type": "bytes32"
        }
      ],
      "stateMutability": "view",
      "type": "function",
      "constant": true
    },
    {
      "inputs": [
        {
          "internalType": "address",
          "name": "",
          "type": "address"
        }
      ],
      "name": "isIOU",
      "outputs": [
        {
          "internalType": "bool",
          "name": "",
          "type": "bool"
        }
      ],
      "stateMutability": "view",
      "type": "function",
      "constant": true
    },
    {
      "inputs": [
        {
          "internalType": "address",
          "name": "",
          "type": "address"
        },
        {
          "internalType": "uint256",
          "name": "",
          "type": "uint256"
        }
      ],
      "name": "listHoldersIOUs",
      "outputs": [
        {
          "internalType": "address",
          "name": "",
          "type": "address"
        }
      ],
      "stateMutability": "view",
      "type": "function",
      "constant": true
    },
    {
      "inputs": [
        {
          "internalType": "address",
          "name": "",
          "type": "address"
        },
        {
          "internalType": "uint256",
          "name": "",
          "type": "uint256"
        }
      ],
      "name": "listIOUs",
      "outputs": [
        {
          "internalType": "address",
          "name": "",
          "type": "address"
        }
      ],
      "stateMutability": "view",
      "type": "function",
      "constant": true
    },
    {
      "inputs": [
        {
          "internalType": "address",
          "name": "_newOwner",
          "type": "address"
        }
      ],
      "name": "setOwner",
      "outputs": [],
      "stateMutability": "nonpayable",
      "type": "function"
    },
    {
      "inputs": [
        {
          "internalType": "address",
          "name": "_newFact",
          "type": "address"
        }
      ],
      "name": "setFactory",
      "outputs": [],
      "stateMutability": "nonpayable",
      "type": "function"
    },
    {
      "inputs": [
        {
          "internalType": "address",
          "name": "_newIOU",
          "type": "address"
        },
        {
          "internalType": "address",
          "name": "_emitent",
          "type": "address"
        }
      ],
      "name": "addIOU1",
      "outputs": [],
      "stateMutability": "nonpayable",
      "type": "function"
    },
    {
      "inputs": [
        {
          "internalType": "address",
          "name": "_newIOU",
          "type": "address"
        },
        {
          "internalType": "string",
          "name": "_socialProfile",
          "type": "string"
        },
        {
          "internalType": "bytes32[]",
          "name": "_keywords",
          "type": "bytes32[]"
        }
      ],
      "name": "addIOU2",
      "outputs": [],
      "stateMutability": "nonpayable",
      "type": "function"
    },
    {
      "inputs": [
        {
          "internalType": "address",
          "name": "_owner",
          "type": "address"
        }
      ],
      "name": "getIOUList",
      "outputs": [
        {
          "internalType": "address[]",
          "name": "",
          "type": "address[]"
        }
      ],
      "stateMutability": "view",
      "type": "function",
      "constant": true
    },
    {
      "inputs": [
        {
          "internalType": "string",
          "name": "_profile",
          "type": "string"
        }
      ],
      "name": "getIOUListSoc",
      "outputs": [
        {
          "internalType": "address[]",
          "name": "",
          "type": "address[]"
        }
      ],
      "stateMutability": "view",
      "type": "function",
      "constant": true
    },
    {
      "inputs": [
        {
          "internalType": "bytes32",
          "name": "_key",
          "type": "bytes32"
        }
      ],
      "name": "getIOUListKey",
      "outputs": [
        {
          "internalType": "address[]",
          "name": "",
          "type": "address[]"
        }
      ],
      "stateMutability": "view",
      "type": "function",
      "constant": true
    },
    {
      "inputs": [
        {
          "internalType": "address",
          "name": "_holder",
          "type": "address"
        },
        {
          "internalType": "address",
          "name": "_IOUtoken",
          "type": "address"
        }
      ],
      "name": "addHolder",
      "outputs": [],
      "stateMutability": "nonpayable",
      "type": "function"
    },
    {
      "inputs": [
        {
          "internalType": "address",
          "name": "_holder",
          "type": "address"
        }
      ],
      "name": "getIOUListHold",
      "outputs": [
        {
          "internalType": "address[]",
          "name": "",
          "type": "address[]"
        }
      ],
      "stateMutability": "view",
      "type": "function",
      "constant": true
    },
    {
      "inputs": [],
      "name": "getIOUstotal",
      "outputs": [
        {
          "internalType": "uint256",
          "name": "",
          "type": "uint256"
        }
      ],
      "stateMutability": "view",
      "type": "function",
      "constant": true
    },
    {
      "inputs": [],
      "name": "getKeystotal",
      "outputs": [
        {
          "internalType": "uint256",
          "name": "",
          "type": "uint256"
        }
      ],
      "stateMutability": "view",
      "type": "function",
      "constant": true
    },
    {
      "inputs": [],
      "name": "getIssuerstotal",
      "outputs": [
        {
          "internalType": "uint256",
          "name": "",
          "type": "uint256"
        }
      ],
      "stateMutability": "view",
      "type": "function",
      "constant": true
    }
  ],
  "bytecode": "0x608060405234801561001057600080fd5b5033600960006101000a81548173ffffffffffffffffffffffffffffffffffffffff021916908373ffffffffffffffffffffffffffffffffffffffff160217905550611c49806100616000396000f3fe608060405234801561001057600080fd5b50600436106101155760003560e01c80635bb47808116100a2578063b442fc6111610071578063b442fc6114610302578063c5ab152914610332578063e03e56a914610362578063f22c3bc314610392578063f466013d146103b057610115565b80635bb47808146102685780636e01acb81461028457806376f7f6de146102b4578063b21b4451146102d257610115565b806331df3737116100e957806331df3737146101a057806338a10485146101d05780634f2c272a146101ec57806352fae04e1461021c5780635899d1421461024c57610115565b8062a50d811461011a57806313af40351461014a57806323b3af891461016657806330b02b2114610182575b600080fd5b610134600480360381019061012f919061156b565b6103e0565b60405161014191906117cf565b60405180910390f35b610164600480360381019061015f9190611487565b61042e565b005b610180600480360381019061017b91906114b0565b610502565b005b61018a6107ae565b60405161019791906118c2565b60405180910390f35b6101ba60048036038101906101b59190611487565b6107bb565b6040516101c791906117ea565b60405180910390f35b6101ea60048036038101906101e591906114ec565b610887565b005b610206600480360381019061020191906115a7565b610c04565b60405161021391906117ea565b60405180910390f35b61023660048036038101906102319190611611565b610ca5565b6040516102439190611827565b60405180910390f35b610266600480360381019061026191906114b0565b610cc9565b005b610282600480360381019061027d9190611487565b610ff7565b005b61029e60048036038101906102999190611487565b6110cb565b6040516102ab91906117ea565b60405180910390f35b6102bc611198565b6040516102c991906118c2565b60405180910390f35b6102ec60048036038101906102e79190611487565b6111a5565b6040516102f9919061180c565b60405180910390f35b61031c60048036038101906103179190611611565b6111c5565b60405161032991906117cf565b60405180910390f35b61034c60048036038101906103479190611611565b611204565b60405161035991906117cf565b60405180910390f35b61037c600480360381019061037791906115d0565b611243565b60405161038991906117ea565b60405180910390f35b61039a6112ef565b6040516103a791906118c2565b60405180910390f35b6103ca60048036038101906103c5919061156b565b6112fc565b6040516103d791906117cf565b60405180910390f35b600060205281600052604060002081815481106103fc57600080fd5b906000526020600020016000915091509054906101000a900473ffffffffffffffffffffffffffffffffffffffff1681565b3373ffffffffffffffffffffffffffffffffffffffff16600960009054906101000a900473ffffffffffffffffffffffffffffffffffffffff1673ffffffffffffffffffffffffffffffffffffffff16146104be576040517f08c379a00000000000000000000000000000000000000000000000000000000081526004016104b590611882565b60405180910390fd5b80600960006101000a81548173ffffffffffffffffffffffffffffffffffffffff021916908373ffffffffffffffffffffffffffffffffffffffff16021790555050565b3373ffffffffffffffffffffffffffffffffffffffff16600a60009054906101000a900473ffffffffffffffffffffffffffffffffffffffff1673ffffffffffffffffffffffffffffffffffffffff1614806105a75750600360003373ffffffffffffffffffffffffffffffffffffffff1673ffffffffffffffffffffffffffffffffffffffff16815260200190815260200160002060009054906101000a900460ff165b6105e6576040517f08c379a00000000000000000000000000000000000000000000000000000000081526004016105dd90611842565b60405180910390fd5b600460008373ffffffffffffffffffffffffffffffffffffffff1673ffffffffffffffffffffffffffffffffffffffff16815260200190815260200160002060008273ffffffffffffffffffffffffffffffffffffffff1673ffffffffffffffffffffffffffffffffffffffff16815260200190815260200160002060009054906101000a900460ff166107aa57600260008373ffffffffffffffffffffffffffffffffffffffff1673ffffffffffffffffffffffffffffffffffffffff168152602001908152602001600020819080600181540180825580915050600190039060005260206000200160009091909190916101000a81548173ffffffffffffffffffffffffffffffffffffffff021916908373ffffffffffffffffffffffffffffffffffffffff1602179055506001600460008473ffffffffffffffffffffffffffffffffffffffff1673ffffffffffffffffffffffffffffffffffffffff16815260200190815260200160002060008373ffffffffffffffffffffffffffffffffffffffff1673ffffffffffffffffffffffffffffffffffffffff16815260200190815260200160002060006101000a81548160ff0219169083151502179055505b5050565b6000600880549050905090565b60606000808373ffffffffffffffffffffffffffffffffffffffff1673ffffffffffffffffffffffffffffffffffffffff16815260200190815260200160002080548060200260200160405190810160405280929190818152602001828054801561087b57602002820191906000526020600020905b8160009054906101000a900473ffffffffffffffffffffffffffffffffffffffff1673ffffffffffffffffffffffffffffffffffffffff1681526020019060010190808311610831575b50505050509050919050565b3373ffffffffffffffffffffffffffffffffffffffff16600a60009054906101000a900473ffffffffffffffffffffffffffffffffffffffff1673ffffffffffffffffffffffffffffffffffffffff16148061092c5750600360003373ffffffffffffffffffffffffffffffffffffffff1673ffffffffffffffffffffffffffffffffffffffff16815260200190815260200160002060009054906101000a900460ff165b61096b576040517f08c379a000000000000000000000000000000000000000000000000000000000815260040161096290611842565b60405180910390fd5b60018260405161097b91906117b8565b9081526020016040518091039020839080600181540180825580915050600190039060005260206000200160009091909190916101000a81548173ffffffffffffffffffffffffffffffffffffffff021916908373ffffffffffffffffffffffffffffffffffffffff160217905550600060058251116109fc5781516109ff565b60055b9050600080600090505b828160ff161015610bfc576000801b848260ff1681518110610a54577f4e487b7100000000000000000000000000000000000000000000000000000000600052603260045260246000fd5b60200260200101511115610be957600060056000868460ff1681518110610aa4577f4e487b7100000000000000000000000000000000000000000000000000000000600052603260045260246000fd5b60200260200101518152602001908152602001600020805490501415610b31576006848260ff1681518110610b02577f4e487b7100000000000000000000000000000000000000000000000000000000600052603260045260246000fd5b602002602001015190806001815401808255809150506001900390600052602060002001600090919091909150555b60056000858360ff1681518110610b71577f4e487b7100000000000000000000000000000000000000000000000000000000600052603260045260246000fd5b60200260200101518152602001908152602001600020869080600181540180825580915050600190039060005260206000200160009091909190916101000a81548173ffffffffffffffffffffffffffffffffffffffff021916908373ffffffffffffffffffffffffffffffffffffffff1602179055505b8080610bf490611a91565b915050610a09565b505050505050565b606060056000838152602001908152602001600020805480602002602001604051908101604052809291908181526020018280548015610c9957602002820191906000526020600020905b8160009054906101000a900473ffffffffffffffffffffffffffffffffffffffff1673ffffffffffffffffffffffffffffffffffffffff1681526020019060010190808311610c4f575b50505050509050919050565b60068181548110610cb557600080fd5b906000526020600020016000915090505481565b600073ffffffffffffffffffffffffffffffffffffffff16600a60009054906101000a900473ffffffffffffffffffffffffffffffffffffffff1673ffffffffffffffffffffffffffffffffffffffff161415610d5b576040517f08c379a0000000000000000000000000000000000000000000000000000000008152600401610d52906118a2565b60405180910390fd5b3373ffffffffffffffffffffffffffffffffffffffff16600a60009054906101000a900473ffffffffffffffffffffffffffffffffffffffff1673ffffffffffffffffffffffffffffffffffffffff1614610deb576040517f08c379a0000000000000000000000000000000000000000000000000000000008152600401610de290611862565b60405180910390fd5b6001600360008473ffffffffffffffffffffffffffffffffffffffff1673ffffffffffffffffffffffffffffffffffffffff16815260200190815260200160002060006101000a81548160ff0219169083151502179055506007829080600181540180825580915050600190039060005260206000200160009091909190916101000a81548173ffffffffffffffffffffffffffffffffffffffff021916908373ffffffffffffffffffffffffffffffffffffffff16021790555060008060008373ffffffffffffffffffffffffffffffffffffffff1673ffffffffffffffffffffffffffffffffffffffff168152602001908152602001600020805490501415610f54576008819080600181540180825580915050600190039060005260206000200160009091909190916101000a81548173ffffffffffffffffffffffffffffffffffffffff021916908373ffffffffffffffffffffffffffffffffffffffff1602179055505b6000808273ffffffffffffffffffffffffffffffffffffffff1673ffffffffffffffffffffffffffffffffffffffff168152602001908152602001600020829080600181540180825580915050600190039060005260206000200160009091909190916101000a81548173ffffffffffffffffffffffffffffffffffffffff021916908373ffffffffffffffffffffffffffffffffffffffff1602179055505050565b3373ffffffffffffffffffffffffffffffffffffffff16600960009054906101000a900473ffffffffffffffffffffffffffffffffffffffff1673ffffffffffffffffffffffffffffffffffffffff1614611087576040517f08c379a000000000000000000000000000000000000000000000000000000000815260040161107e90611882565b60405180910390fd5b80600a60006101000a81548173ffffffffffffffffffffffffffffffffffffffff021916908373ffffffffffffffffffffffffffffffffffffffff16021790555050565b6060600260008373ffffffffffffffffffffffffffffffffffffffff1673ffffffffffffffffffffffffffffffffffffffff16815260200190815260200160002080548060200260200160405190810160405280929190818152602001828054801561118c57602002820191906000526020600020905b8160009054906101000a900473ffffffffffffffffffffffffffffffffffffffff1673ffffffffffffffffffffffffffffffffffffffff1681526020019060010190808311611142575b50505050509050919050565b6000600680549050905090565b60036020528060005260406000206000915054906101000a900460ff1681565b600881815481106111d557600080fd5b906000526020600020016000915054906101000a900473ffffffffffffffffffffffffffffffffffffffff1681565b6007818154811061121457600080fd5b906000526020600020016000915054906101000a900473ffffffffffffffffffffffffffffffffffffffff1681565b606060018260405161125591906117b8565b90815260200160405180910390208054806020026020016040519081016040528092919081815260200182805480156112e357602002820191906000526020600020905b8160009054906101000a900473ffffffffffffffffffffffffffffffffffffffff1673ffffffffffffffffffffffffffffffffffffffff1681526020019060010190808311611299575b50505050509050919050565b6000600780549050905090565b6002602052816000526040600020818154811061131857600080fd5b906000526020600020016000915091509054906101000a900473ffffffffffffffffffffffffffffffffffffffff1681565b600061135d61135884611902565b6118dd565b9050808382526020820190508285602086028201111561137c57600080fd5b60005b858110156113ac57816113928882611433565b84526020840193506020830192505060018101905061137f565b5050509392505050565b60006113c96113c48461192e565b6118dd565b9050828152602081018484840111156113e157600080fd5b6113ec848285611a1e565b509392505050565b60008135905061140381611bce565b92915050565b600082601f83011261141a57600080fd5b813561142a84826020860161134a565b91505092915050565b60008135905061144281611be5565b92915050565b600082601f83011261145957600080fd5b81356114698482602086016113b6565b91505092915050565b60008135905061148181611bfc565b92915050565b60006020828403121561149957600080fd5b60006114a7848285016113f4565b91505092915050565b600080604083850312156114c357600080fd5b60006114d1858286016113f4565b92505060206114e2858286016113f4565b9150509250929050565b60008060006060848603121561150157600080fd5b600061150f868287016113f4565b935050602084013567ffffffffffffffff81111561152c57600080fd5b61153886828701611448565b925050604084013567ffffffffffffffff81111561155557600080fd5b61156186828701611409565b9150509250925092565b6000806040838503121561157e57600080fd5b600061158c858286016113f4565b925050602061159d85828601611472565b9150509250929050565b6000602082840312156115b957600080fd5b60006115c784828501611433565b91505092915050565b6000602082840312156115e257600080fd5b600082013567ffffffffffffffff8111156115fc57600080fd5b61160884828501611448565b91505092915050565b60006020828403121561162357600080fd5b600061163184828501611472565b91505092915050565b60006116468383611652565b60208301905092915050565b61165b816119bf565b82525050565b61166a816119bf565b82525050565b600061167b8261196f565b6116858185611992565b93506116908361195f565b8060005b838110156116c15781516116a8888261163a565b97506116b383611985565b925050600181019050611694565b5085935050505092915050565b6116d7816119d1565b82525050565b6116e6816119dd565b82525050565b60006116f78261197a565b61170181856119b4565b9350611711818560208601611a2d565b80840191505092915050565b600061172a6013836119a3565b915061173582611b2a565b602082019050919050565b600061174d601c836119a3565b915061175882611b53565b602082019050919050565b60006117706016836119a3565b915061177b82611b7c565b602082019050919050565b60006117936016836119a3565b915061179e82611ba5565b602082019050919050565b6117b281611a07565b82525050565b60006117c482846116ec565b915081905092915050565b60006020820190506117e46000830184611661565b92915050565b600060208201905081810360008301526118048184611670565b905092915050565b600060208201905061182160008301846116ce565b92915050565b600060208201905061183c60008301846116dd565b92915050565b6000602082019050818103600083015261185b8161171d565b9050919050565b6000602082019050818103600083015261187b81611740565b9050919050565b6000602082019050818103600083015261189b81611763565b9050919050565b600060208201905081810360008301526118bb81611786565b9050919050565b60006020820190506118d760008301846117a9565b92915050565b60006118e76118f8565b90506118f38282611a60565b919050565b6000604051905090565b600067ffffffffffffffff82111561191d5761191c611aea565b5b602082029050602081019050919050565b600067ffffffffffffffff82111561194957611948611aea565b5b61195282611b19565b9050602081019050919050565b6000819050602082019050919050565b600081519050919050565b600081519050919050565b6000602082019050919050565b600082825260208201905092915050565b600082825260208201905092915050565b600081905092915050565b60006119ca826119e7565b9050919050565b60008115159050919050565b6000819050919050565b600073ffffffffffffffffffffffffffffffffffffffff82169050919050565b6000819050919050565b600060ff82169050919050565b82818337600083830152505050565b60005b83811015611a4b578082015181840152602081019050611a30565b83811115611a5a576000848401525b50505050565b611a6982611b19565b810181811067ffffffffffffffff82111715611a8857611a87611aea565b5b80604052505050565b6000611a9c82611a11565b915060ff821415611ab057611aaf611abb565b5b600182019050919050565b7f4e487b7100000000000000000000000000000000000000000000000000000000600052601160045260246000fd5b7f4e487b7100000000000000000000000000000000000000000000000000000000600052604160045260246000fd5b6000601f19601f8301169050919050565b7f4e6f7420494f5520746f6b656e2063616c6c7300000000000000000000000000600082015250565b7f4f6e6c79206d616b65466163746f72792063616e20646f207468697300000000600082015250565b7f4f6e6c79206f776e65722063616e20646f207468697300000000000000000000600082015250565b7f4e6f206d616b65466163746f7279206164647265737300000000000000000000600082015250565b611bd7816119bf565b8114611be257600080fd5b50565b611bee816119dd565b8114611bf957600080fd5b50565b611c0581611a07565b8114611c1057600080fd5b5056fea26469706673582212205e4e91b316e60451cf13d0dcad11b8da81df2c8b0f3d16001718e30968b1069764736f6c63430008040033",
  "immutableReferences": {},
  "source": "pragma solidity >=  0.8.0;\npragma experimental ABIEncoderV2;\n\n\n\ncontract StoreIOUs {\n\n    mapping (address => address[]) public listIOUs; // list of emitted IOUs from emitent\n    mapping (string => address[])   listIOUsSoc; // list of emitted IOUs by social profile\n    mapping (address => address[]) public listHoldersIOUs; //list of tokens by holder\n    mapping (address => bool) public isIOU; //security check is token emitted \n    mapping (address => mapping (address => bool)) isHolderthisIOU; //  check list of tokens by holder\n    mapping (bytes32 => address[]) listbyKeys; //list of IOUs by keyword\n    bytes32[] public allKeywords;  //list all keywords\n    address[] public allIOU; //list all emitted IOus\n    address[] public allIssuers; //list all issuers of  IOus\n\n\n    address owner;\n    address makeFactory;\n\n    constructor () public {\n        owner = msg.sender;\n    }\n\n    modifier onlyOwner() {\n        require (owner == msg.sender, \"Only owner can do this\");\n        _;\n    }\n\n    modifier onlyMake() {\n        require (makeFactory != address(0x0), \"No makeFactory address\");\n        require (makeFactory == msg.sender, \"Only makeFactory can do this\");\n        _;\n    }\n\n    modifier isIOUtoken () {\n        require (makeFactory == msg.sender || isIOU[msg.sender], \"Not IOU token calls\" );\n        _;\n    }\n\n    function setOwner (address _newOwner) public onlyOwner {\n        owner = _newOwner;\n    }\n\n    function setFactory (address _newFact) public onlyOwner {\n        makeFactory = _newFact;\n    }\n\n    function addIOU1 (address _newIOU, address _emitent) public onlyMake {\n        \n        isIOU[_newIOU] = true;\n        allIOU.push(_newIOU);\n        if (listIOUs[_emitent].length == 0) {\n            allIssuers.push(_emitent); \n        }\n        listIOUs[_emitent].push(_newIOU);\n    }\n\n\n    function addIOU2 (address _newIOU, \n                    string memory _socialProfile,                     \n                    bytes32[] memory _keywords) \n                    public  isIOUtoken   {        \n\n        listIOUsSoc[_socialProfile].push(_newIOU);\n        uint lenArr = _keywords.length > 5 ? 5: _keywords.length;\n        uint lenkey;\n        for (uint8 k=0 ; k < lenArr ; k++){\n        \n            if (_keywords[k] > 0 ){\n                if  (listbyKeys[_keywords[k]].length == 0 ) {\n                    \n                    allKeywords.push(_keywords[k]);\n                }\n                listbyKeys[_keywords[k]].push(address(_newIOU));\n            }\n        } \n        }\n\n    function getIOUList (address _owner) public view returns (address[] memory) {\n            return listIOUs[_owner];\n        }\n\n    function getIOUListSoc (string memory _profile) public view returns (address[] memory) {\n            return listIOUsSoc[_profile];\n                }\n\n    function getIOUListKey (bytes32 _key) public view returns (address[] memory) {\n            return listbyKeys[_key];\n                }\n\n\n    function addHolder(address _holder, address _IOUtoken) public isIOUtoken {\n        if (!isHolderthisIOU[_holder][_IOUtoken] ) {\n            listHoldersIOUs [_holder].push(_IOUtoken);\n            isHolderthisIOU[_holder][_IOUtoken] = true;\n        }\n    }\n\n    function getIOUListHold (address _holder) public view returns (address[] memory) {\n            return listHoldersIOUs [_holder];\n        }\n\n    function getIOUstotal () public view  returns (uint256)\n    {\n        return allIOU.length;\n    }    \n\n    function getKeystotal () public view returns (uint256)\n    {\n        return allKeywords.length;\n    }    \n\n    function getIssuerstotal () public view returns (uint256)\n    {\n        return allIssuers.length;\n    }\n\n}",
  "sourcePath": "/mnt/512-2/dfd/iou-components/iou-components/contracts/StoreIOUs.sol",
  "compiler": {
    "name": "solc",
    "version": "0.8.4+commit.c7e474f2.Emscripten.clang"
  },
  "schemaVersion": "3.3.4",
  "updatedAt": "2021-07-03T10:43:27.385Z",
  "networkType": "ethereum",
  "devdoc": {
    "kind": "dev",
    "methods": {},
    "version": 1
  },
  "userdoc": {
    "kind": "user",
    "methods": {},
    "version": 1
  }
}