{
  "contractName": "StoreIOUs",
  "abi": [
    {
      "inputs": [],
      "stateMutability": "nonpayable",
      "type": "constructor"
    },
    {
      "inputs": [
        {
          "internalType": "uint256",
          "name": "",
          "type": "uint256"
        }
      ],
      "name": "allIOU",
      "outputs": [
        {
          "internalType": "address",
          "name": "",
          "type": "address"
        }
      ],
      "stateMutability": "view",
      "type": "function",
      "constant": true
    },
    {
      "inputs": [
        {
          "internalType": "uint256",
          "name": "",
          "type": "uint256"
        }
      ],
      "name": "allIssuers",
      "outputs": [
        {
          "internalType": "address",
          "name": "",
          "type": "address"
        }
      ],
      "stateMutability": "view",
      "type": "function",
      "constant": true
    },
    {
      "inputs": [
        {
          "internalType": "uint256",
          "name": "",
          "type": "uint256"
        }
      ],
      "name": "allKeywords",
      "outputs": [
        {
          "internalType": "bytes32",
          "name": "",
          "type": "bytes32"
        }
      ],
      "stateMutability": "view",
      "type": "function",
      "constant": true
    },
    {
      "inputs": [
        {
          "internalType": "address",
          "name": "",
          "type": "address"
        }
      ],
      "name": "isIOU",
      "outputs": [
        {
          "internalType": "uint256",
          "name": "",
          "type": "uint256"
        }
      ],
      "stateMutability": "view",
      "type": "function",
      "constant": true
    },
    {
      "inputs": [
        {
          "internalType": "address",
          "name": "",
          "type": "address"
        },
        {
          "internalType": "uint256",
          "name": "",
          "type": "uint256"
        }
      ],
      "name": "listHoldersIOUs",
      "outputs": [
        {
          "internalType": "address",
          "name": "",
          "type": "address"
        }
      ],
      "stateMutability": "view",
      "type": "function",
      "constant": true
    },
    {
      "inputs": [
        {
          "internalType": "address",
          "name": "",
          "type": "address"
        },
        {
          "internalType": "uint256",
          "name": "",
          "type": "uint256"
        }
      ],
      "name": "listIOUs",
      "outputs": [
        {
          "internalType": "address",
          "name": "",
          "type": "address"
        }
      ],
      "stateMutability": "view",
      "type": "function",
      "constant": true
    },
    {
      "inputs": [
        {
          "internalType": "address",
          "name": "_newOwner",
          "type": "address"
        }
      ],
      "name": "setOwner",
      "outputs": [],
      "stateMutability": "nonpayable",
      "type": "function"
    },
    {
      "inputs": [
        {
          "internalType": "address",
          "name": "_newFact",
          "type": "address"
        }
      ],
      "name": "setFactory",
      "outputs": [],
      "stateMutability": "nonpayable",
      "type": "function"
    },
    {
      "inputs": [
        {
          "internalType": "address",
          "name": "_addrIOU",
          "type": "address"
        },
        {
          "internalType": "address",
          "name": "_emitent",
          "type": "address"
        }
      ],
      "name": "addIOU1",
      "outputs": [],
      "stateMutability": "nonpayable",
      "type": "function"
    },
    {
      "inputs": [
        {
          "internalType": "address",
          "name": "_addrIOU",
          "type": "address"
        },
        {
          "internalType": "string",
          "name": "_socialProfile",
          "type": "string"
        },
        {
          "internalType": "bytes32[]",
          "name": "_keywords",
          "type": "bytes32[]"
        }
      ],
      "name": "addIOU2",
      "outputs": [],
      "stateMutability": "nonpayable",
      "type": "function"
    },
    {
      "inputs": [
        {
          "internalType": "address",
          "name": "_addrIOU",
          "type": "address"
        },
        {
          "internalType": "bytes32[]",
          "name": "_keywords",
          "type": "bytes32[]"
        }
      ],
      "name": "addKeys",
      "outputs": [],
      "stateMutability": "nonpayable",
      "type": "function"
    },
    {
      "inputs": [
        {
          "internalType": "address",
          "name": "_addrIOU",
          "type": "address"
        },
        {
          "internalType": "bytes32[]",
          "name": "_keywords",
          "type": "bytes32[]"
        }
      ],
      "name": "delKeys",
      "outputs": [],
      "stateMutability": "nonpayable",
      "type": "function"
    },
    {
      "inputs": [
        {
          "internalType": "address",
          "name": "_addrIOU",
          "type": "address"
        },
        {
          "components": [
            {
              "internalType": "string",
              "name": "country",
              "type": "string"
            },
            {
              "internalType": "string",
              "name": "state",
              "type": "string"
            },
            {
              "internalType": "string",
              "name": "city",
              "type": "string"
            },
            {
              "internalType": "string",
              "name": "street",
              "type": "string"
            }
          ],
          "internalType": "struct iIOUtoken.geo",
          "name": "_loc",
          "type": "tuple"
        }
      ],
      "name": "changeIOUGeoAllkeys",
      "outputs": [],
      "stateMutability": "nonpayable",
      "type": "function"
    },
    {
      "inputs": [
        {
          "internalType": "address",
          "name": "_addrIOU",
          "type": "address"
        },
        {
          "internalType": "bytes32",
          "name": "key",
          "type": "bytes32"
        }
      ],
      "name": "_delkeyIOUGeo",
      "outputs": [],
      "stateMutability": "nonpayable",
      "type": "function"
    },
    {
      "inputs": [
        {
          "internalType": "address",
          "name": "_owner",
          "type": "address"
        }
      ],
      "name": "getIOUList",
      "outputs": [
        {
          "internalType": "address[]",
          "name": "",
          "type": "address[]"
        }
      ],
      "stateMutability": "view",
      "type": "function",
      "constant": true
    },
    {
      "inputs": [
        {
          "internalType": "string",
          "name": "_profile",
          "type": "string"
        }
      ],
      "name": "getIOUListSoc",
      "outputs": [
        {
          "internalType": "address[]",
          "name": "",
          "type": "address[]"
        }
      ],
      "stateMutability": "view",
      "type": "function",
      "constant": true
    },
    {
      "inputs": [
        {
          "internalType": "bytes32",
          "name": "_key",
          "type": "bytes32"
        }
      ],
      "name": "getIOUListKey",
      "outputs": [
        {
          "internalType": "address[]",
          "name": "",
          "type": "address[]"
        }
      ],
      "stateMutability": "view",
      "type": "function",
      "constant": true
    },
    {
      "inputs": [
        {
          "internalType": "address",
          "name": "_holder",
          "type": "address"
        },
        {
          "internalType": "address",
          "name": "_IOUtoken",
          "type": "address"
        }
      ],
      "name": "addHolder",
      "outputs": [],
      "stateMutability": "nonpayable",
      "type": "function"
    },
    {
      "inputs": [
        {
          "internalType": "address",
          "name": "_holder",
          "type": "address"
        }
      ],
      "name": "getIOUListHold",
      "outputs": [
        {
          "internalType": "address[]",
          "name": "",
          "type": "address[]"
        }
      ],
      "stateMutability": "view",
      "type": "function",
      "constant": true
    },
    {
      "inputs": [],
      "name": "getIOUstotal",
      "outputs": [
        {
          "internalType": "uint256",
          "name": "",
          "type": "uint256"
        }
      ],
      "stateMutability": "view",
      "type": "function",
      "constant": true
    },
    {
      "inputs": [],
      "name": "getKeystotal",
      "outputs": [
        {
          "internalType": "bytes32[]",
          "name": "",
          "type": "bytes32[]"
        }
      ],
      "stateMutability": "view",
      "type": "function",
      "constant": true
    },
    {
      "inputs": [],
      "name": "getIssuerstotal",
      "outputs": [
        {
          "internalType": "uint256",
          "name": "",
          "type": "uint256"
        }
      ],
      "stateMutability": "view",
      "type": "function",
      "constant": true
    },
    {
      "inputs": [
        {
          "internalType": "bytes32",
          "name": "_key",
          "type": "bytes32"
        },
        {
          "internalType": "string",
          "name": "_country",
          "type": "string"
        },
        {
          "internalType": "string",
          "name": "_state",
          "type": "string"
        },
        {
          "internalType": "string",
          "name": "_city",
          "type": "string"
        }
      ],
      "name": "getIOUsbyCity",
      "outputs": [
        {
          "internalType": "address[]",
          "name": "",
          "type": "address[]"
        }
      ],
      "stateMutability": "view",
      "type": "function",
      "constant": true
    },
    {
      "inputs": [
        {
          "internalType": "bytes32",
          "name": "_key",
          "type": "bytes32"
        },
        {
          "internalType": "string",
          "name": "_country",
          "type": "string"
        },
        {
          "internalType": "string",
          "name": "_state",
          "type": "string"
        },
        {
          "internalType": "string",
          "name": "_city",
          "type": "string"
        },
        {
          "internalType": "string",
          "name": "_street",
          "type": "string"
        }
      ],
      "name": "getIOUsbyStreet",
      "outputs": [
        {
          "internalType": "address[]",
          "name": "",
          "type": "address[]"
        }
      ],
      "stateMutability": "view",
      "type": "function",
      "constant": true
    }
  ],
  "bytecode": "0x608060405234801561001057600080fd5b5033600d60006101000a81548173ffffffffffffffffffffffffffffffffffffffff021916908373ffffffffffffffffffffffffffffffffffffffff160217905550613daa806100616000396000f3fe608060405234801561001057600080fd5b50600436106101575760003560e01c80636222286c116100c3578063c5ab15291161007c578063c5ab1529146103f8578063e03e56a914610428578063e83d90f414610458578063f22c3bc314610488578063f466013d146104a6578063fd67d031146104d657610157565b80636222286c146103125780636e01acb81461032e57806376f7f6de1461035e57806383ef7f231461037c578063b21b445114610398578063b442fc61146103c857610157565b806341b5658c1161011557806341b5658c1461022e5780634f2c272a1461024a57806352fae04e1461027a5780635596b2ab146102aa5780635899d142146102da5780635bb47808146102f657610157565b8062a50d811461015c57806313af40351461018c57806323b3af89146101a857806330b02b21146101c457806331df3737146101e257806338a1048514610212575b600080fd5b6101766004803603810190610171919061333d565b6104f2565b60405161018391906137fd565b60405180910390f35b6101a660048036038101906101a19190613175565b610540565b005b6101c260048036038101906101bd919061319e565b610614565b005b6101cc6108b6565b6040516101d99190613917565b60405180910390f35b6101fc60048036038101906101f79190613175565b6108c3565b6040516102099190613818565b60405180910390f35b61022c6004803603810190610227919061326a565b61098f565b005b610248600480360381019061024391906132e9565b610af7565b005b610264600480360381019061025f9190613379565b610d05565b6040516102719190613818565b60405180910390f35b610294600480360381019061028f91906135a6565b610da6565b6040516102a1919061385c565b60405180910390f35b6102c460048036038101906102bf919061344d565b610dca565b6040516102d19190613818565b60405180910390f35b6102f460048036038101906102ef919061319e565b610edf565b005b610310600480360381019061030b9190613175565b6111fe565b005b61032c600480360381019061032791906131da565b6112d2565b005b61034860048036038101906103439190613175565b6113dc565b6040516103559190613818565b60405180910390f35b6103666114a9565b604051610373919061383a565b60405180910390f35b6103966004803603810190610391919061322e565b611501565b005b6103b260048036038101906103ad9190613175565b611fb3565b6040516103bf9190613917565b60405180910390f35b6103e260048036038101906103dd91906135a6565b611fcb565b6040516103ef91906137fd565b60405180910390f35b610412600480360381019061040d91906135a6565b61200a565b60405161041f91906137fd565b60405180910390f35b610442600480360381019061043d9190613524565b612049565b60405161044f9190613818565b60405180910390f35b610472600480360381019061046d91906133a2565b6120f5565b60405161047f9190613818565b60405180910390f35b6104906121ed565b60405161049d9190613917565b60405180910390f35b6104c060048036038101906104bb919061333d565b6121fa565b6040516104cd91906137fd565b60405180910390f35b6104f060048036038101906104eb91906131da565b612248565b005b6000602052816000526040600020818154811061050e57600080fd5b906000526020600020016000915091509054906101000a900473ffffffffffffffffffffffffffffffffffffffff1681565b3373ffffffffffffffffffffffffffffffffffffffff16600d60009054906101000a900473ffffffffffffffffffffffffffffffffffffffff1673ffffffffffffffffffffffffffffffffffffffff16146105d0576040517f08c379a00000000000000000000000000000000000000000000000000000000081526004016105c7906138b7565b60405180910390fd5b80600d60006101000a81548173ffffffffffffffffffffffffffffffffffffffff021916908373ffffffffffffffffffffffffffffffffffffffff16021790555050565b3373ffffffffffffffffffffffffffffffffffffffff16600e60009054906101000a900473ffffffffffffffffffffffffffffffffffffffff1673ffffffffffffffffffffffffffffffffffffffff1614806106af57506000600360003373ffffffffffffffffffffffffffffffffffffffff1673ffffffffffffffffffffffffffffffffffffffff16815260200190815260200160002054115b6106ee576040517f08c379a00000000000000000000000000000000000000000000000000000000081526004016106e590613877565b60405180910390fd5b600460008373ffffffffffffffffffffffffffffffffffffffff1673ffffffffffffffffffffffffffffffffffffffff16815260200190815260200160002060008273ffffffffffffffffffffffffffffffffffffffff1673ffffffffffffffffffffffffffffffffffffffff16815260200190815260200160002060009054906101000a900460ff166108b257600260008373ffffffffffffffffffffffffffffffffffffffff1673ffffffffffffffffffffffffffffffffffffffff168152602001908152602001600020819080600181540180825580915050600190039060005260206000200160009091909190916101000a81548173ffffffffffffffffffffffffffffffffffffffff021916908373ffffffffffffffffffffffffffffffffffffffff1602179055506001600460008473ffffffffffffffffffffffffffffffffffffffff1673ffffffffffffffffffffffffffffffffffffffff16815260200190815260200160002060008373ffffffffffffffffffffffffffffffffffffffff1673ffffffffffffffffffffffffffffffffffffffff16815260200190815260200160002060006101000a81548160ff0219169083151502179055505b5050565b6000600980549050905090565b60606000808373ffffffffffffffffffffffffffffffffffffffff1673ffffffffffffffffffffffffffffffffffffffff16815260200190815260200160002080548060200260200160405190810160405280929190818152602001828054801561098357602002820191906000526020600020905b8160009054906101000a900473ffffffffffffffffffffffffffffffffffffffff1673ffffffffffffffffffffffffffffffffffffffff1681526020019060010190808311610939575b50505050509050919050565b3373ffffffffffffffffffffffffffffffffffffffff16600e60009054906101000a900473ffffffffffffffffffffffffffffffffffffffff1673ffffffffffffffffffffffffffffffffffffffff161480610a2a57506000600360003373ffffffffffffffffffffffffffffffffffffffff1673ffffffffffffffffffffffffffffffffffffffff16815260200190815260200160002054115b610a69576040517f08c379a0000000000000000000000000000000000000000000000000000000008152600401610a6090613877565b60405180910390fd5b600182604051610a7991906137e6565b9081526020016040518091039020839080600181540180825580915050600190039060005260206000200160009091909190916101000a81548173ffffffffffffffffffffffffffffffffffffffff021916908373ffffffffffffffffffffffffffffffffffffffff160217905550610af28382612352565b505050565b8160008173ffffffffffffffffffffffffffffffffffffffff16630a5763646040518163ffffffff1660e01b815260040160006040518083038186803b158015610b4057600080fd5b505afa158015610b54573d6000803e3d6000fd5b505050506040513d6000823e3d601f19601f82011682018060405250810190610b7d9190613565565b90503373ffffffffffffffffffffffffffffffffffffffff16816080015173ffffffffffffffffffffffffffffffffffffffff1614610bf1576040517f08c379a0000000000000000000000000000000000000000000000000000000008152600401610be8906138d7565b60405180910390fd5b60008473ffffffffffffffffffffffffffffffffffffffff16630a5763646040518163ffffffff1660e01b815260040160006040518083038186803b158015610c3957600080fd5b505afa158015610c4d573d6000803e3d6000fd5b505050506040513d6000823e3d601f19601f82011682018060405250810190610c769190613565565b6101200151905060005b81518160ff161015610cfd576000828260ff1681518110610cca577f4e487b7100000000000000000000000000000000000000000000000000000000600052603260045260246000fd5b60200260200101519050610cde8782611501565b610ce987878361259f565b508080610cf590613b83565b915050610c80565b505050505050565b606060056000838152602001908152602001600020805480602002602001604051908101604052809291908181526020018280548015610d9a57602002820191906000526020600020905b8160009054906101000a900473ffffffffffffffffffffffffffffffffffffffff1673ffffffffffffffffffffffffffffffffffffffff1681526020019060010190808311610d50575b50505050509050919050565b60078181548110610db657600080fd5b906000526020600020016000915090505481565b6060600b600087815260200190815260200160002085604051610ded91906137e6565b908152602001604051809103902084604051610e0991906137e6565b908152602001604051809103902083604051610e2591906137e6565b908152602001604051809103902082604051610e4191906137e6565b9081526020016040518091039020805480602002602001604051908101604052809291908181526020018280548015610ecf57602002820191906000526020600020905b8160009054906101000a900473ffffffffffffffffffffffffffffffffffffffff1673ffffffffffffffffffffffffffffffffffffffff1681526020019060010190808311610e85575b5050505050905095945050505050565b600073ffffffffffffffffffffffffffffffffffffffff16600e60009054906101000a900473ffffffffffffffffffffffffffffffffffffffff1673ffffffffffffffffffffffffffffffffffffffff161415610f71576040517f08c379a0000000000000000000000000000000000000000000000000000000008152600401610f68906138f7565b60405180910390fd5b3373ffffffffffffffffffffffffffffffffffffffff16600e60009054906101000a900473ffffffffffffffffffffffffffffffffffffffff1673ffffffffffffffffffffffffffffffffffffffff1614611001576040517f08c379a0000000000000000000000000000000000000000000000000000000008152600401610ff890613897565b60405180910390fd5b6008829080600181540180825580915050600190039060005260206000200160009091909190916101000a81548173ffffffffffffffffffffffffffffffffffffffff021916908373ffffffffffffffffffffffffffffffffffffffff160217905550600880549050600360008473ffffffffffffffffffffffffffffffffffffffff1673ffffffffffffffffffffffffffffffffffffffff1681526020019081526020016000208190555060008060008373ffffffffffffffffffffffffffffffffffffffff1673ffffffffffffffffffffffffffffffffffffffff16815260200190815260200160002080549050141561115b576009819080600181540180825580915050600190039060005260206000200160009091909190916101000a81548173ffffffffffffffffffffffffffffffffffffffff021916908373ffffffffffffffffffffffffffffffffffffffff1602179055505b6000808273ffffffffffffffffffffffffffffffffffffffff1673ffffffffffffffffffffffffffffffffffffffff168152602001908152602001600020829080600181540180825580915050600190039060005260206000200160009091909190916101000a81548173ffffffffffffffffffffffffffffffffffffffff021916908373ffffffffffffffffffffffffffffffffffffffff1602179055505050565b3373ffffffffffffffffffffffffffffffffffffffff16600d60009054906101000a900473ffffffffffffffffffffffffffffffffffffffff1673ffffffffffffffffffffffffffffffffffffffff161461128e576040517f08c379a0000000000000000000000000000000000000000000000000000000008152600401611285906138b7565b60405180910390fd5b80600e60006101000a81548173ffffffffffffffffffffffffffffffffffffffff021916908373ffffffffffffffffffffffffffffffffffffffff16021790555050565b8160008173ffffffffffffffffffffffffffffffffffffffff16630a5763646040518163ffffffff1660e01b815260040160006040518083038186803b15801561131b57600080fd5b505afa15801561132f573d6000803e3d6000fd5b505050506040513d6000823e3d601f19601f820116820180604052508101906113589190613565565b90503373ffffffffffffffffffffffffffffffffffffffff16816080015173ffffffffffffffffffffffffffffffffffffffff16146113cc576040517f08c379a00000000000000000000000000000000000000000000000000000000081526004016113c3906138d7565b60405180910390fd5b6113d68484612352565b50505050565b6060600260008373ffffffffffffffffffffffffffffffffffffffff1673ffffffffffffffffffffffffffffffffffffffff16815260200190815260200160002080548060200260200160405190810160405280929190818152602001828054801561149d57602002820191906000526020600020905b8160009054906101000a900473ffffffffffffffffffffffffffffffffffffffff1673ffffffffffffffffffffffffffffffffffffffff1681526020019060010190808311611453575b50505050509050919050565b606060078054806020026020016040519081016040528092919081815260200182805480156114f757602002820191906000526020600020905b8154815260200190600101908083116114e3575b5050505050905090565b8160008173ffffffffffffffffffffffffffffffffffffffff16630a5763646040518163ffffffff1660e01b815260040160006040518083038186803b15801561154a57600080fd5b505afa15801561155e573d6000803e3d6000fd5b505050506040513d6000823e3d601f19601f820116820180604052508101906115879190613565565b90503373ffffffffffffffffffffffffffffffffffffffff16816080015173ffffffffffffffffffffffffffffffffffffffff16146115fb576040517f08c379a00000000000000000000000000000000000000000000000000000000081526004016115f2906138d7565b60405180910390fd5b6000600c60008673ffffffffffffffffffffffffffffffffffffffff1673ffffffffffffffffffffffffffffffffffffffff1681526020019081526020016000206040518060c0016040529081600082015481526020016001820154815260200160028201805461166b90613b20565b80601f016020809104026020016040519081016040528092919081815260200182805461169790613b20565b80156116e45780601f106116b9576101008083540402835291602001916116e4565b820191906000526020600020905b8154815290600101906020018083116116c757829003601f168201915b505050505081526020016003820180546116fd90613b20565b80601f016020809104026020016040519081016040528092919081815260200182805461172990613b20565b80156117765780601f1061174b57610100808354040283529160200191611776565b820191906000526020600020905b81548152906001019060200180831161175957829003601f168201915b5050505050815260200160048201805461178f90613b20565b80601f01602080910402602001604051908101604052809291908181526020018280546117bb90613b20565b80156118085780601f106117dd57610100808354040283529160200191611808565b820191906000526020600020905b8154815290600101906020018083116117eb57829003601f168201915b5050505050815260200160058201805461182190613b20565b80601f016020809104026020016040519081016040528092919081815260200182805461184d90613b20565b801561189a5780601f1061186f5761010080835404028352916020019161189a565b820191906000526020600020905b81548152906001019060200180831161187d57829003601f168201915b50505050508152505090506000600a600086815260200190815260200160002082604001516040516118cc91906137e6565b908152602001604051809103902082606001516040516118ec91906137e6565b9081526020016040518091039020826080015160405161190c91906137e6565b9081526020016040518091039020805490509050600a6000868152602001908152602001600020826040015160405161194591906137e6565b9081526020016040518091039020826060015160405161196591906137e6565b9081526020016040518091039020826080015160405161198591906137e6565b90815260200160405180910390206001826119a09190613a4d565b815481106119d7577f4e487b7100000000000000000000000000000000000000000000000000000000600052603260045260246000fd5b9060005260206000200160009054906101000a900473ffffffffffffffffffffffffffffffffffffffff16600a60008781526020019081526020016000208360400151604051611a2791906137e6565b90815260200160405180910390208360600151604051611a4791906137e6565b90815260200160405180910390208360800151604051611a6791906137e6565b908152602001604051809103902060018460000151611a869190613a4d565b81548110611abd577f4e487b7100000000000000000000000000000000000000000000000000000000600052603260045260246000fd5b9060005260206000200160006101000a81548173ffffffffffffffffffffffffffffffffffffffff021916908373ffffffffffffffffffffffffffffffffffffffff160217905550600a60008681526020019081526020016000208260400151604051611b2a91906137e6565b90815260200160405180910390208260600151604051611b4a91906137e6565b90815260200160405180910390208260800151604051611b6a91906137e6565b9081526020016040518091039020600182611b859190613a4d565b81548110611bbc577f4e487b7100000000000000000000000000000000000000000000000000000000600052603260045260246000fd5b9060005260206000200160006101000a81549073ffffffffffffffffffffffffffffffffffffffff0219169055600b60008681526020019081526020016000208260400151604051611c0e91906137e6565b90815260200160405180910390208260600151604051611c2e91906137e6565b90815260200160405180910390208260800151604051611c4e91906137e6565b90815260200160405180910390208260a00151604051611c6e91906137e6565b9081526020016040518091039020805490509050600b60008681526020019081526020016000208260400151604051611ca791906137e6565b90815260200160405180910390208260600151604051611cc791906137e6565b90815260200160405180910390208260800151604051611ce791906137e6565b90815260200160405180910390208260a00151604051611d0791906137e6565b9081526020016040518091039020600182611d229190613a4d565b81548110611d59577f4e487b7100000000000000000000000000000000000000000000000000000000600052603260045260246000fd5b9060005260206000200160009054906101000a900473ffffffffffffffffffffffffffffffffffffffff16600b60008781526020019081526020016000208360400151604051611da991906137e6565b90815260200160405180910390208360600151604051611dc991906137e6565b90815260200160405180910390208360800151604051611de991906137e6565b90815260200160405180910390208360a00151604051611e0991906137e6565b908152602001604051809103902060018460200151611e289190613a4d565b81548110611e5f577f4e487b7100000000000000000000000000000000000000000000000000000000600052603260045260246000fd5b9060005260206000200160006101000a81548173ffffffffffffffffffffffffffffffffffffffff021916908373ffffffffffffffffffffffffffffffffffffffff160217905550600b60008681526020019081526020016000208260400151604051611ecc91906137e6565b90815260200160405180910390208260600151604051611eec91906137e6565b90815260200160405180910390208260800151604051611f0c91906137e6565b90815260200160405180910390208260a00151604051611f2c91906137e6565b9081526020016040518091039020600182611f479190613a4d565b81548110611f7e577f4e487b7100000000000000000000000000000000000000000000000000000000600052603260045260246000fd5b9060005260206000200160006101000a81549073ffffffffffffffffffffffffffffffffffffffff0219169055505050505050565b60036020528060005260406000206000915090505481565b60098181548110611fdb57600080fd5b906000526020600020016000915054906101000a900473ffffffffffffffffffffffffffffffffffffffff1681565b6008818154811061201a57600080fd5b906000526020600020016000915054906101000a900473ffffffffffffffffffffffffffffffffffffffff1681565b606060018260405161205b91906137e6565b90815260200160405180910390208054806020026020016040519081016040528092919081815260200182805480156120e957602002820191906000526020600020905b8160009054906101000a900473ffffffffffffffffffffffffffffffffffffffff1673ffffffffffffffffffffffffffffffffffffffff168152602001906001019080831161209f575b50505050509050919050565b6060600a60008681526020019081526020016000208460405161211891906137e6565b90815260200160405180910390208360405161213491906137e6565b90815260200160405180910390208260405161215091906137e6565b90815260200160405180910390208054806020026020016040519081016040528092919081815260200182805480156121de57602002820191906000526020600020905b8160009054906101000a900473ffffffffffffffffffffffffffffffffffffffff1673ffffffffffffffffffffffffffffffffffffffff1681526020019060010190808311612194575b50505050509050949350505050565b6000600880549050905090565b6002602052816000526040600020818154811061221657600080fd5b906000526020600020016000915091509054906101000a900473ffffffffffffffffffffffffffffffffffffffff1681565b8160008173ffffffffffffffffffffffffffffffffffffffff16630a5763646040518163ffffffff1660e01b815260040160006040518083038186803b15801561229157600080fd5b505afa1580156122a5573d6000803e3d6000fd5b505050506040513d6000823e3d601f19601f820116820180604052508101906122ce9190613565565b90503373ffffffffffffffffffffffffffffffffffffffff16816080015173ffffffffffffffffffffffffffffffffffffffff1614612342576040517f08c379a0000000000000000000000000000000000000000000000000000000008152600401612339906138d7565b60405180910390fd5b61234c8484612906565b50505050565b60006005825111612364578151612367565b60055b905060005b818160ff161015612599576000838260ff16815181106123b5577f4e487b7100000000000000000000000000000000000000000000000000000000600052603260045260246000fd5b602002602001015190506000801b811115612585576000600560008381526020019081526020016000208054905014156124135760078190806001815401808255809150506001900390600052602060002001600090919091909150555b60056000828152602001908152602001600020859080600181540180825580915050600190039060005260206000200160009091909190916101000a81548173ffffffffffffffffffffffffffffffffffffffff021916908373ffffffffffffffffffffffffffffffffffffffff16021790555060056000828152602001908152602001600020805490506006600083815260200190815260200160002060008773ffffffffffffffffffffffffffffffffffffffff1673ffffffffffffffffffffffffffffffffffffffff16815260200190815260200160002081905550612584858673ffffffffffffffffffffffffffffffffffffffff16630a5763646040518163ffffffff1660e01b815260040160006040518083038186803b15801561253c57600080fd5b505afa158015612550573d6000803e3d6000fd5b505050506040513d6000823e3d601f19601f820116820180604052508101906125799190613565565b61010001518361259f565b5b50808061259190613b83565b91505061236c565b50505050565b600a600082815260200190815260200160002082600001516040516125c491906137e6565b908152602001604051809103902082602001516040516125e491906137e6565b9081526020016040518091039020826040015160405161260491906137e6565b9081526020016040518091039020839080600181540180825580915050600190039060005260206000200160009091909190916101000a81548173ffffffffffffffffffffffffffffffffffffffff021916908373ffffffffffffffffffffffffffffffffffffffff160217905550600a6000828152602001908152602001600020826000015160405161269891906137e6565b908152602001604051809103902082602001516040516126b891906137e6565b908152602001604051809103902082604001516040516126d891906137e6565b908152602001604051809103902080549050600c60008573ffffffffffffffffffffffffffffffffffffffff1673ffffffffffffffffffffffffffffffffffffffff16815260200190815260200160002060000181905550600b6000828152602001908152602001600020826000015160405161275591906137e6565b9081526020016040518091039020826020015160405161277591906137e6565b9081526020016040518091039020826040015160405161279591906137e6565b908152602001604051809103902082606001516040516127b591906137e6565b9081526020016040518091039020839080600181540180825580915050600190039060005260206000200160009091909190916101000a81548173ffffffffffffffffffffffffffffffffffffffff021916908373ffffffffffffffffffffffffffffffffffffffff160217905550600b6000828152602001908152602001600020826000015160405161284991906137e6565b9081526020016040518091039020826020015160405161286991906137e6565b9081526020016040518091039020826040015160405161288991906137e6565b908152602001604051809103902082606001516040516128a991906137e6565b908152602001604051809103902080549050600c60008573ffffffffffffffffffffffffffffffffffffffff1673ffffffffffffffffffffffffffffffffffffffff16815260200190815260200160002060010181905550505050565b6000600582511161291857815161291b565b60055b905060005b818160ff161015612bce576000838260ff1681518110612969577f4e487b7100000000000000000000000000000000000000000000000000000000600052603260045260246000fd5b602002602001015190506000801b811115612bba5760006006600083815260200190815260200160002060008773ffffffffffffffffffffffffffffffffffffffff1673ffffffffffffffffffffffffffffffffffffffff1681526020019081526020016000205490506000811115612bb8576005600083815260200190815260200160002060016005600085815260200190815260200160002080549050612a129190613a4d565b81548110612a49577f4e487b7100000000000000000000000000000000000000000000000000000000600052603260045260246000fd5b9060005260206000200160009054906101000a900473ffffffffffffffffffffffffffffffffffffffff1660056000848152602001908152602001600020600183612a949190613a4d565b81548110612acb577f4e487b7100000000000000000000000000000000000000000000000000000000600052603260045260246000fd5b9060005260206000200160006101000a81548173ffffffffffffffffffffffffffffffffffffffff021916908373ffffffffffffffffffffffffffffffffffffffff1602179055506005600083815260200190815260200160002060016005600085815260200190815260200160002080549050612b499190613a4d565b81548110612b80577f4e487b7100000000000000000000000000000000000000000000000000000000600052603260045260246000fd5b9060005260206000200160006101000a81549073ffffffffffffffffffffffffffffffffffffffff0219169055612bb78683611501565b5b505b508080612bc690613b83565b915050612920565b50505050565b6000612be7612be284613957565b613932565b90508083825260208201905082856020860282011115612c0657600080fd5b60005b85811015612c365781612c1c8882612da6565b845260208401935060208301925050600181019050612c09565b5050509392505050565b6000612c53612c4e84613957565b613932565b90508083825260208201905082856020860282011115612c7257600080fd5b60005b85811015612ca25781612c888882612dbb565b845260208401935060208301925050600181019050612c75565b5050509392505050565b6000612cbf612cba84613983565b613932565b905082815260208101848484011115612cd757600080fd5b612ce2848285613ade565b509392505050565b6000612cfd612cf884613983565b613932565b905082815260208101848484011115612d1557600080fd5b612d20848285613aed565b509392505050565b600081359050612d3781613d18565b92915050565b600081519050612d4c81613d18565b92915050565b600082601f830112612d6357600080fd5b8135612d73848260208601612bd4565b91505092915050565b600082601f830112612d8d57600080fd5b8151612d9d848260208601612c40565b91505092915050565b600081359050612db581613d2f565b92915050565b600081519050612dca81613d2f565b92915050565b600081519050612ddf81613d46565b92915050565b600082601f830112612df657600080fd5b8135612e06848260208601612cac565b91505092915050565b600082601f830112612e2057600080fd5b8151612e30848260208601612cea565b91505092915050565b60006101408284031215612e4c57600080fd5b612e57610140613932565b90506000612e6784828501613160565b6000830152506020612e7b84828501613160565b6020830152506040612e8f84828501612dd0565b6040830152506060612ea384828501612dbb565b6060830152506080612eb784828501612d3d565b60808301525060a082015167ffffffffffffffff811115612ed757600080fd5b612ee384828501612e0f565b60a08301525060c082015167ffffffffffffffff811115612f0357600080fd5b612f0f84828501612e0f565b60c08301525060e082015167ffffffffffffffff811115612f2f57600080fd5b612f3b84828501612e0f565b60e08301525061010082015167ffffffffffffffff811115612f5c57600080fd5b612f6884828501613077565b6101008301525061012082015167ffffffffffffffff811115612f8a57600080fd5b612f9684828501612d7c565b6101208301525092915050565b600060808284031215612fb557600080fd5b612fbf6080613932565b9050600082013567ffffffffffffffff811115612fdb57600080fd5b612fe784828501612de5565b600083015250602082013567ffffffffffffffff81111561300757600080fd5b61301384828501612de5565b602083015250604082013567ffffffffffffffff81111561303357600080fd5b61303f84828501612de5565b604083015250606082013567ffffffffffffffff81111561305f57600080fd5b61306b84828501612de5565b60608301525092915050565b60006080828403121561308957600080fd5b6130936080613932565b9050600082015167ffffffffffffffff8111156130af57600080fd5b6130bb84828501612e0f565b600083015250602082015167ffffffffffffffff8111156130db57600080fd5b6130e784828501612e0f565b602083015250604082015167ffffffffffffffff81111561310757600080fd5b61311384828501612e0f565b604083015250606082015167ffffffffffffffff81111561313357600080fd5b61313f84828501612e0f565b60608301525092915050565b60008135905061315a81613d5d565b92915050565b60008151905061316f81613d5d565b92915050565b60006020828403121561318757600080fd5b600061319584828501612d28565b91505092915050565b600080604083850312156131b157600080fd5b60006131bf85828601612d28565b92505060206131d085828601612d28565b9150509250929050565b600080604083850312156131ed57600080fd5b60006131fb85828601612d28565b925050602083013567ffffffffffffffff81111561321857600080fd5b61322485828601612d52565b9150509250929050565b6000806040838503121561324157600080fd5b600061324f85828601612d28565b925050602061326085828601612da6565b9150509250929050565b60008060006060848603121561327f57600080fd5b600061328d86828701612d28565b935050602084013567ffffffffffffffff8111156132aa57600080fd5b6132b686828701612de5565b925050604084013567ffffffffffffffff8111156132d357600080fd5b6132df86828701612d52565b9150509250925092565b600080604083850312156132fc57600080fd5b600061330a85828601612d28565b925050602083013567ffffffffffffffff81111561332757600080fd5b61333385828601612fa3565b9150509250929050565b6000806040838503121561335057600080fd5b600061335e85828601612d28565b925050602061336f8582860161314b565b9150509250929050565b60006020828403121561338b57600080fd5b600061339984828501612da6565b91505092915050565b600080600080608085870312156133b857600080fd5b60006133c687828801612da6565b945050602085013567ffffffffffffffff8111156133e357600080fd5b6133ef87828801612de5565b935050604085013567ffffffffffffffff81111561340c57600080fd5b61341887828801612de5565b925050606085013567ffffffffffffffff81111561343557600080fd5b61344187828801612de5565b91505092959194509250565b600080600080600060a0868803121561346557600080fd5b600061347388828901612da6565b955050602086013567ffffffffffffffff81111561349057600080fd5b61349c88828901612de5565b945050604086013567ffffffffffffffff8111156134b957600080fd5b6134c588828901612de5565b935050606086013567ffffffffffffffff8111156134e257600080fd5b6134ee88828901612de5565b925050608086013567ffffffffffffffff81111561350b57600080fd5b61351788828901612de5565b9150509295509295909350565b60006020828403121561353657600080fd5b600082013567ffffffffffffffff81111561355057600080fd5b61355c84828501612de5565b91505092915050565b60006020828403121561357757600080fd5b600082015167ffffffffffffffff81111561359157600080fd5b61359d84828501612e39565b91505092915050565b6000602082840312156135b857600080fd5b60006135c68482850161314b565b91505092915050565b60006135db83836135ff565b60208301905092915050565b60006135f383836136d9565b60208301905092915050565b61360881613a81565b82525050565b61361781613a81565b82525050565b6000613628826139d4565b6136328185613a0f565b935061363d836139b4565b8060005b8381101561366e57815161365588826135cf565b9750613660836139f5565b925050600181019050613641565b5085935050505092915050565b6000613686826139df565b6136908185613a20565b935061369b836139c4565b8060005b838110156136cc5781516136b388826135e7565b97506136be83613a02565b92505060018101905061369f565b5085935050505092915050565b6136e281613a93565b82525050565b6136f181613a93565b82525050565b6000613702826139ea565b61370c8185613a42565b935061371c818560208601613aed565b80840191505092915050565b6000613735601383613a31565b915061374082613c4b565b602082019050919050565b6000613758601c83613a31565b915061376382613c74565b602082019050919050565b600061377b601683613a31565b915061378682613c9d565b602082019050919050565b600061379e601783613a31565b91506137a982613cc6565b602082019050919050565b60006137c1601683613a31565b91506137cc82613cef565b602082019050919050565b6137e081613ac7565b82525050565b60006137f282846136f7565b915081905092915050565b6000602082019050613812600083018461360e565b92915050565b60006020820190508181036000830152613832818461361d565b905092915050565b60006020820190508181036000830152613854818461367b565b905092915050565b600060208201905061387160008301846136e8565b92915050565b6000602082019050818103600083015261389081613728565b9050919050565b600060208201905081810360008301526138b08161374b565b9050919050565b600060208201905081810360008301526138d08161376e565b9050919050565b600060208201905081810360008301526138f081613791565b9050919050565b60006020820190508181036000830152613910816137b4565b9050919050565b600060208201905061392c60008301846137d7565b92915050565b600061393c61394d565b90506139488282613b52565b919050565b6000604051905090565b600067ffffffffffffffff82111561397257613971613c0b565b5b602082029050602081019050919050565b600067ffffffffffffffff82111561399e5761399d613c0b565b5b6139a782613c3a565b9050602081019050919050565b6000819050602082019050919050565b6000819050602082019050919050565b600081519050919050565b600081519050919050565b600081519050919050565b6000602082019050919050565b6000602082019050919050565b600082825260208201905092915050565b600082825260208201905092915050565b600082825260208201905092915050565b600081905092915050565b6000613a5882613ac7565b9150613a6383613ac7565b925082821015613a7657613a75613bad565b5b828203905092915050565b6000613a8c82613aa7565b9050919050565b6000819050919050565b6000819050919050565b600073ffffffffffffffffffffffffffffffffffffffff82169050919050565b6000819050919050565b600060ff82169050919050565b82818337600083830152505050565b60005b83811015613b0b578082015181840152602081019050613af0565b83811115613b1a576000848401525b50505050565b60006002820490506001821680613b3857607f821691505b60208210811415613b4c57613b4b613bdc565b5b50919050565b613b5b82613c3a565b810181811067ffffffffffffffff82111715613b7a57613b79613c0b565b5b80604052505050565b6000613b8e82613ad1565b915060ff821415613ba257613ba1613bad565b5b600182019050919050565b7f4e487b7100000000000000000000000000000000000000000000000000000000600052601160045260246000fd5b7f4e487b7100000000000000000000000000000000000000000000000000000000600052602260045260246000fd5b7f4e487b7100000000000000000000000000000000000000000000000000000000600052604160045260246000fd5b6000601f19601f8301169050919050565b7f4e6f7420494f5520746f6b656e2063616c6c7300000000000000000000000000600082015250565b7f4f6e6c79206d616b65466163746f72792063616e20646f207468697300000000600082015250565b7f4f6e6c79206f776e65722063616e20646f207468697300000000000000000000600082015250565b7f4f6e6c79206973737565722063616e20646f2074686973000000000000000000600082015250565b7f4e6f206d616b65466163746f7279206164647265737300000000000000000000600082015250565b613d2181613a81565b8114613d2c57600080fd5b50565b613d3881613a93565b8114613d4357600080fd5b50565b613d4f81613a9d565b8114613d5a57600080fd5b50565b613d6681613ac7565b8114613d7157600080fd5b5056fea264697066735822122042684053722ca5e62654f11eb3843012529564af9752030221d8fc814d7f6b7e64736f6c63430008040033",
  "immutableReferences": {},
  "source": "pragma solidity >=  0.8.0;\npragma experimental ABIEncoderV2;\nimport \"./interfaces/iStoreIOUs.sol\";\nimport \"./interfaces/iIOUtoken.sol\";\n\n\ncontract StoreIOUs is iStoreIOUs {\n//todo : break this brick \n    mapping (address => address[]) public listIOUs; // list of emitted IOUs from emitent\n    mapping (string => address[])   listIOUsSoc; // list of emitted IOUs by social profile\n    mapping (address => address[]) public listHoldersIOUs; //list of tokens by holder\n    mapping (address => uint256) public isIOU; //security check is token emitted \n    mapping (address => mapping (address => bool)) isHolderthisIOU; //  check list of tokens by holder\n\n    mapping (bytes32 => address[]) listbyKeys; //list of IOUs by keyword\n    mapping (bytes32 => \n    mapping (address => uint256))  keyByList; //reverse index for listbyKeys to editing keywords\n    bytes32[] public allKeywords;  //list all keywords\n    address[] public allIOU; //list all emitted IOus\n    address[] public allIssuers; //list all issuers of  IOus\n\n    mapping (bytes32 =>\n    mapping (string => \n    mapping (string => \n    mapping (string => address[])))) internal  listbyCity_; // (keyword => country =>state =>city) => of IOUs\n    \n    mapping (bytes32 =>\n    mapping (string => \n    mapping (string => \n    mapping (string => \n    mapping (string => address[]))))) internal listbyStreet_; // (keyword=>country=> state => city =>street) => IOU \n\n    mapping (address => geoIOU ) posIOU;\n\n\n    address owner;\n    address makeFactory;\n\n    constructor ()  {\n        owner = msg.sender;\n    }\n\n    modifier onlyOwner() {\n        require (owner == msg.sender, \"Only owner can do this\");\n        _;\n    }\n\n    modifier onlyMake() {\n        require (makeFactory != address(0x0), \"No makeFactory address\");\n        require (makeFactory == msg.sender, \"Only makeFactory can do this\");\n        _;\n    }\n\n    modifier isIOUtoken () {\n        require (makeFactory == msg.sender || isIOU[msg.sender] > 0 , \"Not IOU token calls\" );\n        _;\n    }\n\n    function setOwner (address _newOwner) public onlyOwner {\n        owner = _newOwner;\n    }\n\n    function setFactory (address _newFact) public onlyOwner {\n        makeFactory = _newFact;\n    }\n\n    modifier onlyissuer(address _addrIOU) {\n        iIOUtoken.DescriptionIOU memory desc = iIOUtoken(_addrIOU).thisIOUDesc();\n        require (desc.issuer == msg.sender, \"Only issuer can do this\");\n        _;\n    }\n\n    function addIOU1 (address _addrIOU, address _emitent) public override onlyMake {\n        \n        allIOU.push(_addrIOU);\n        isIOU[_addrIOU] = allIOU.length;\n\n        if (listIOUs[_emitent].length == 0) {\n            allIssuers.push(_emitent); \n        }\n        listIOUs[_emitent].push(_addrIOU);\n    }\n\n\n    function addIOU2 (address _addrIOU, \n                    string memory _socialProfile,                     \n                    bytes32[] memory _keywords) \n                    public override isIOUtoken   {        \n\n        listIOUsSoc[_socialProfile].push(_addrIOU);\n        _addKeys(_addrIOU, _keywords);\n    }\n\n\n    function addKeys (address _addrIOU, bytes32[] memory _keywords) public onlyissuer(_addrIOU) {\n        _addKeys(_addrIOU, _keywords);\n    }\n    function delKeys (address _addrIOU, bytes32[] memory _keywords) public onlyissuer(_addrIOU) {\n        _delKeys(_addrIOU, _keywords);\n    }\n\n    \n    /// when changed geolocation\n    function changeIOUGeoAllkeys  (address _addrIOU, \n                            iIOUtoken.geo memory _loc \n                            ) public onlyissuer(_addrIOU) {\n        bytes32[] memory keys = iIOUtoken(_addrIOU).thisIOUDesc().keywords;\n        for (uint8 k=0; k<keys.length; k++)  {  \n            bytes32 key = keys[k];\n            _delkeyIOUGeo(_addrIOU, key);\n            _setIOUGeo(_addrIOU, _loc, key);          \n\n            }\n    }\n    function _addKeys (address _addrIOU, bytes32[] memory _keywords) internal{\n\n        uint lenArr = _keywords.length > 5 ? 5: _keywords.length;\n        for (uint8 k=0 ; k < lenArr ; k++){\n            bytes32 key = _keywords[k];\n                if (key > 0 ){\n                    if  (listbyKeys[key].length == 0 ) {\n                        \n                        allKeywords.push(key);\n\n                    }\n                    listbyKeys[key].push(_addrIOU);\n                    keyByList[key][_addrIOU] = listbyKeys[key].length;\n                    _setIOUGeo(_addrIOU,\n                            iIOUtoken(_addrIOU).thisIOUDesc().location, \n                            key);\n                }\n            } \n    }\n\n\n    function _delKeys (address _addrIOU, bytes32[] memory _keywords) internal{\n\n        uint lenArr = _keywords.length > 5 ? 5: _keywords.length;\n        for (uint8 k=0 ; k < lenArr ; k++){\n            bytes32 key = _keywords[k];\n            if (key > 0 ){\n                uint keyNum = keyByList[key][_addrIOU];\n                if  (keyNum > 0 ) {\n                    listbyKeys[key][keyNum-1] = \n                    listbyKeys[key][\n                    listbyKeys[key].length -1];\n                    delete (listbyKeys[key][\n                            listbyKeys[key].length -1]);\n                    _delkeyIOUGeo(_addrIOU, key);\n                }\n \n            }\n        } \n    }\n\n\n    function _setIOUGeo (address _addrIOU, \n                        iIOUtoken.geo memory _loc,\n                        bytes32 _key) internal { //public  onlyissuer (_addrIOU)\n\n        listbyCity_[_key] [_loc.country][_loc.state][_loc.city].push(_addrIOU);\n        posIOU[_addrIOU].inCity = listbyCity_[_key][_loc.country][_loc.state][_loc.city].length;\n        listbyStreet_[_key][_loc.country][_loc.state][_loc.city][_loc.street].push(_addrIOU);\n        posIOU[_addrIOU].onStreet = listbyStreet_[_key][_loc.country][_loc.state][_loc.city][_loc.street].length;\n\n    }\n\n    function _delkeyIOUGeo  (address _addrIOU, \n                            bytes32 key) public onlyissuer(_addrIOU) {\n\n        geoIOU memory curr = posIOU[_addrIOU];\n\n        uint curlen = listbyCity_[key][curr.country][curr.state][curr.city].length;\n        // delete old key connection\n        listbyCity_[key][curr.country][curr.state][curr.city][curr.inCity -1] = \n        listbyCity_[key][curr.country][curr.state][curr.city][curlen-1];\n        delete (listbyCity_[key][curr.country][curr.state][curr.city][curlen-1]);\n\n        curlen = listbyStreet_[key][curr.country][curr.state][curr.city][curr.street].length;\n        listbyStreet_[key][curr.country][curr.state][curr.city][curr.street][curr.onStreet -1] = \n        listbyStreet_[key][curr.country][curr.state][curr.city][curr.street][curlen-1];\n        delete (listbyStreet_[key][curr.country][curr.state][curr.city][curr.street][curlen-1]);\n        \n        }\n\n\n\n    function getIOUList (address _owner) public override view returns (address[] memory) {\n            return listIOUs[_owner];\n        }\n\n    function getIOUListSoc (string memory _profile) public override view returns (address[] memory) {\n            return listIOUsSoc[_profile];\n                }\n\n    function getIOUListKey (bytes32 _key) public override view returns (address[] memory) {\n            return listbyKeys[_key];\n                }\n\n\n    function addHolder(address _holder, address _IOUtoken) public override isIOUtoken {\n        if (!isHolderthisIOU[_holder][_IOUtoken] ) {\n            listHoldersIOUs [_holder].push(_IOUtoken);\n            isHolderthisIOU[_holder][_IOUtoken] = true;\n        }\n    }\n\n    function getIOUListHold (address _holder) public view override returns (address[] memory) {\n            return listHoldersIOUs [_holder];\n        }\n\n    function getIOUstotal () public view override  returns (uint256)\n    {\n        return allIOU.length;\n    }    \n\n    function getKeystotal () public view override returns (bytes32[] memory) \n    {\n        return allKeywords;\n    }    \n\n    function getIssuerstotal () public view override returns (uint256)\n    {\n        return allIssuers.length;\n    }\n\n    function getIOUsbyCity(bytes32 _key,\n                            string memory _country,\n                            string memory _state,\n                            string memory _city) public  view returns (address[] memory) {\n                return listbyCity_  [_key][_country][_state][_city];\n            }\n\n    function getIOUsbyStreet (bytes32 _key,\n                        string memory _country,\n                        string memory _state,\n                        string memory _city,\n                        string memory _street) public view returns (address[] memory) {\n            return listbyStreet_[_key][_country][_state][_city][_street];\n                }\n\n\n    }",
  "sourcePath": "/mnt/512-2/dfd/iou2/contracts/StoreIOUs.sol",
  "compiler": {
    "name": "solc",
    "version": "0.8.4+commit.c7e474f2.Emscripten.clang"
  },
  "schemaVersion": "3.4.3",
  "updatedAt": "2021-08-28T19:14:44.593Z",
  "networkType": "ethereum",
  "devdoc": {
    "kind": "dev",
    "methods": {},
    "version": 1
  },
  "userdoc": {
    "kind": "user",
    "methods": {
      "changeIOUGeoAllkeys(address,(string,string,string,string))": {
        "notice": "when changed geolocation"
      }
    },
    "version": 1
  }
}