{
  "contractName": "StoreIOUData",
  "abi": [
    {
      "inputs": [
        {
          "internalType": "uint256",
          "name": "",
          "type": "uint256"
        }
      ],
      "name": "allIOU",
      "outputs": [
        {
          "internalType": "address",
          "name": "",
          "type": "address"
        }
      ],
      "stateMutability": "view",
      "type": "function"
    },
    {
      "inputs": [
        {
          "internalType": "uint256",
          "name": "",
          "type": "uint256"
        }
      ],
      "name": "allIssuers",
      "outputs": [
        {
          "internalType": "address",
          "name": "",
          "type": "address"
        }
      ],
      "stateMutability": "view",
      "type": "function"
    },
    {
      "inputs": [
        {
          "internalType": "uint256",
          "name": "",
          "type": "uint256"
        }
      ],
      "name": "allKeywords",
      "outputs": [
        {
          "internalType": "bytes32",
          "name": "",
          "type": "bytes32"
        }
      ],
      "stateMutability": "view",
      "type": "function"
    },
    {
      "inputs": [
        {
          "internalType": "address",
          "name": "",
          "type": "address"
        }
      ],
      "name": "isIOU",
      "outputs": [
        {
          "internalType": "uint256",
          "name": "",
          "type": "uint256"
        }
      ],
      "stateMutability": "view",
      "type": "function"
    },
    {
      "inputs": [
        {
          "internalType": "address",
          "name": "",
          "type": "address"
        },
        {
          "internalType": "uint256",
          "name": "",
          "type": "uint256"
        }
      ],
      "name": "listHoldersIOUs",
      "outputs": [
        {
          "internalType": "address",
          "name": "",
          "type": "address"
        }
      ],
      "stateMutability": "view",
      "type": "function"
    },
    {
      "inputs": [
        {
          "internalType": "address",
          "name": "",
          "type": "address"
        },
        {
          "internalType": "uint256",
          "name": "",
          "type": "uint256"
        }
      ],
      "name": "listIOUs",
      "outputs": [
        {
          "internalType": "address",
          "name": "",
          "type": "address"
        }
      ],
      "stateMutability": "view",
      "type": "function"
    }
  ],
  "bytecode": "0x608060405234801561001057600080fd5b50610276806100206000396000f3fe608060405234801561001057600080fd5b50600436106100615760003560e01c8062a50d811461006657806352fae04e14610096578063b21b4451146100b7578063b442fc61146100d7578063c5ab1529146100ea578063f466013d146100fd575b600080fd5b6100796100743660046101db565b610110565b6040516001600160a01b0390911681526020015b60405180910390f35b6100a96100a4366004610205565b610148565b60405190815260200161008d565b6100a96100c536600461021e565b60036020526000908152604090205481565b6100796100e5366004610205565b610169565b6100796100f8366004610205565b610193565b61007961010b3660046101db565b6101a3565b6000602052816000526040600020818154811061012c57600080fd5b6000918252602090912001546001600160a01b03169150829050565b6007818154811061015857600080fd5b600091825260209091200154905081565b6009818154811061017957600080fd5b6000918252602090912001546001600160a01b0316905081565b6008818154811061017957600080fd5b6002602052816000526040600020818154811061012c57600080fd5b80356001600160a01b03811681146101d657600080fd5b919050565b600080604083850312156101ee57600080fd5b6101f7836101bf565b946020939093013593505050565b60006020828403121561021757600080fd5b5035919050565b60006020828403121561023057600080fd5b610239826101bf565b939250505056fea2646970667358221220b38fb357a5d96607403608bd19250aad821ca15752fb7546dfc84eff751c19df64736f6c634300080e0033",
  "immutableReferences": {},
  "source": "pragma solidity >=  0.8.0;\r\npragma experimental ABIEncoderV2;\r\nimport \"./interfaces/iStoreIOUs.sol\";\r\nimport \"./interfaces/iIOUtoken.sol\";\r\nimport \"./Initializable.sol\";\r\n\r\n\r\ncontract StoreIOUData {\r\n//todo : break this brick \r\n    mapping (address => address[]) public listIOUs; // list of emitted IOUs from emitent\r\n    mapping (string => address[])   listIOUsSoc; // list of emitted IOUs by social profile\r\n    mapping (address => address[]) public listHoldersIOUs; //list of tokens by holder\r\n    mapping (address => uint256) public isIOU; //security check is token emitted \r\n    mapping (address => mapping (address => bool)) isHolderthisIOU; //  check list of tokens by holder\r\n\r\n    mapping (bytes32 => address[]) listbyKeys; //list of IOUs by keyword\r\n    mapping (bytes32 => \r\n     mapping (address => uint256))  keyByList; //reverse index for listbyKeys to editing keywords\r\n    bytes32[] public allKeywords;  //list all keywords\r\n    address[] public allIOU; //list all emitted IOus\r\n    address[] public allIssuers; //list all issuers of  IOus\r\n\r\n    mapping (bytes32 => // keyword\r\n     mapping (string =>  // (country\r\n      mapping (string =>  //  state \r\n       mapping (string =>  //street\r\n        address[])))) internal  listbyCity_; // (keyword => country =>state =>city) => of IOUs\r\n    \r\n    mapping (bytes32 => // keyword\r\n     mapping (string =>  // country\r\n      mapping (string =>  //  state \r\n       mapping (string =>  //  city \r\n        mapping (string =>  //street\r\n          address[]))))) internal listbyStreet_; // (keyword=>country=> state => city =>street) => IOU \r\n\r\n    mapping (address => iStoreIOUs.geoIOU ) posIOU;\r\n\r\n\r\n    address owner;\r\n    //address makeFactory;\r\n    address  implementIOU;\r\n    }",
  "sourcePath": "D:\\Prog\\Projects\\iou\\iou2\\contracts\\StoreIOUData.sol",
  "compiler": {
    "name": "solc",
    "version": "0.8.14+commit.80d49f37.Emscripten.clang"
  },
  "schemaVersion": "3.4.9",
  "updatedAt": "2022-09-20T11:16:02.706Z",
  "devdoc": {
    "kind": "dev",
    "methods": {},
    "version": 1
  },
  "userdoc": {
    "kind": "user",
    "methods": {},
    "version": 1
  }
}