{
  "contractName": "StoreIOUs",
  "abi": [
    {
      "inputs": [
        {
          "internalType": "uint256",
          "name": "",
          "type": "uint256"
        }
      ],
      "name": "allIOU",
      "outputs": [
        {
          "internalType": "address",
          "name": "",
          "type": "address"
        }
      ],
      "stateMutability": "view",
      "type": "function",
      "constant": true
    },
    {
      "inputs": [
        {
          "internalType": "uint256",
          "name": "",
          "type": "uint256"
        }
      ],
      "name": "allIssuers",
      "outputs": [
        {
          "internalType": "address",
          "name": "",
          "type": "address"
        }
      ],
      "stateMutability": "view",
      "type": "function",
      "constant": true
    },
    {
      "inputs": [
        {
          "internalType": "uint256",
          "name": "",
          "type": "uint256"
        }
      ],
      "name": "allKeywords",
      "outputs": [
        {
          "internalType": "bytes32",
          "name": "",
          "type": "bytes32"
        }
      ],
      "stateMutability": "view",
      "type": "function",
      "constant": true
    },
    {
      "inputs": [
        {
          "internalType": "address",
          "name": "",
          "type": "address"
        }
      ],
      "name": "isIOU",
      "outputs": [
        {
          "internalType": "uint256",
          "name": "",
          "type": "uint256"
        }
      ],
      "stateMutability": "view",
      "type": "function",
      "constant": true
    },
    {
      "inputs": [
        {
          "internalType": "address",
          "name": "",
          "type": "address"
        },
        {
          "internalType": "uint256",
          "name": "",
          "type": "uint256"
        }
      ],
      "name": "listHoldersIOUs",
      "outputs": [
        {
          "internalType": "address",
          "name": "",
          "type": "address"
        }
      ],
      "stateMutability": "view",
      "type": "function",
      "constant": true
    },
    {
      "inputs": [
        {
          "internalType": "address",
          "name": "",
          "type": "address"
        },
        {
          "internalType": "uint256",
          "name": "",
          "type": "uint256"
        }
      ],
      "name": "listIOUs",
      "outputs": [
        {
          "internalType": "address",
          "name": "",
          "type": "address"
        }
      ],
      "stateMutability": "view",
      "type": "function",
      "constant": true
    },
    {
      "inputs": [],
      "name": "initialize",
      "outputs": [],
      "stateMutability": "nonpayable",
      "type": "function"
    },
    {
      "inputs": [
        {
          "internalType": "address",
          "name": "_newOwner",
          "type": "address"
        }
      ],
      "name": "setOwner",
      "outputs": [],
      "stateMutability": "nonpayable",
      "type": "function"
    },
    {
      "inputs": [
        {
          "internalType": "address",
          "name": "_newImpl",
          "type": "address"
        }
      ],
      "name": "setimplIOU",
      "outputs": [],
      "stateMutability": "nonpayable",
      "type": "function"
    },
    {
      "inputs": [
        {
          "internalType": "address",
          "name": "_addrIOU",
          "type": "address"
        },
        {
          "internalType": "address",
          "name": "_emitent",
          "type": "address"
        },
        {
          "components": [
            {
              "internalType": "uint256",
              "name": "totalMinted",
              "type": "uint256"
            },
            {
              "internalType": "uint256",
              "name": "totalBurned",
              "type": "uint256"
            },
            {
              "internalType": "int256",
              "name": "avRate",
              "type": "int256"
            },
            {
              "internalType": "bytes32",
              "name": "units",
              "type": "bytes32"
            },
            {
              "internalType": "address",
              "name": "issuer",
              "type": "address"
            },
            {
              "internalType": "string",
              "name": "myName",
              "type": "string"
            },
            {
              "internalType": "string",
              "name": "socialProfile",
              "type": "string"
            },
            {
              "internalType": "string",
              "name": "description",
              "type": "string"
            },
            {
              "components": [
                {
                  "internalType": "string",
                  "name": "country",
                  "type": "string"
                },
                {
                  "internalType": "string",
                  "name": "state",
                  "type": "string"
                },
                {
                  "internalType": "string",
                  "name": "city",
                  "type": "string"
                },
                {
                  "internalType": "string",
                  "name": "street",
                  "type": "string"
                }
              ],
              "internalType": "struct iIOUtoken.geo",
              "name": "location",
              "type": "tuple"
            },
            {
              "internalType": "bytes32[]",
              "name": "keywords",
              "type": "bytes32[]"
            },
            {
              "internalType": "bytes32",
              "name": "phone",
              "type": "bytes32"
            }
          ],
          "internalType": "struct iIOUtoken.DescriptionIOU",
          "name": "_thisIOU",
          "type": "tuple"
        }
      ],
      "name": "addIOU1",
      "outputs": [],
      "stateMutability": "nonpayable",
      "type": "function"
    },
    {
      "inputs": [
        {
          "internalType": "bytes32[]",
          "name": "_keywords",
          "type": "bytes32[]"
        },
        {
          "internalType": "address",
          "name": "_addrIOU",
          "type": "address"
        }
      ],
      "name": "addKeys",
      "outputs": [],
      "stateMutability": "nonpayable",
      "type": "function"
    },
    {
      "inputs": [
        {
          "internalType": "bytes32[]",
          "name": "_keywords",
          "type": "bytes32[]"
        },
        {
          "internalType": "address",
          "name": "_addrIOU",
          "type": "address"
        }
      ],
      "name": "delKeys",
      "outputs": [],
      "stateMutability": "nonpayable",
      "type": "function"
    },
    {
      "inputs": [
        {
          "components": [
            {
              "internalType": "string",
              "name": "country",
              "type": "string"
            },
            {
              "internalType": "string",
              "name": "state",
              "type": "string"
            },
            {
              "internalType": "string",
              "name": "city",
              "type": "string"
            },
            {
              "internalType": "string",
              "name": "street",
              "type": "string"
            }
          ],
          "internalType": "struct iIOUtoken.geo",
          "name": "_newloc",
          "type": "tuple"
        },
        {
          "internalType": "address",
          "name": "_addrIOU",
          "type": "address"
        }
      ],
      "name": "changeIOUGeoAllkeys",
      "outputs": [],
      "stateMutability": "nonpayable",
      "type": "function"
    },
    {
      "inputs": [
        {
          "internalType": "address",
          "name": "_holder",
          "type": "address"
        },
        {
          "internalType": "address",
          "name": "_IOUtoken",
          "type": "address"
        }
      ],
      "name": "addHolder",
      "outputs": [],
      "stateMutability": "nonpayable",
      "type": "function"
    },
    {
      "inputs": [
        {
          "internalType": "address",
          "name": "_owner",
          "type": "address"
        }
      ],
      "name": "getIOUList",
      "outputs": [
        {
          "internalType": "address[]",
          "name": "",
          "type": "address[]"
        }
      ],
      "stateMutability": "view",
      "type": "function",
      "constant": true
    },
    {
      "inputs": [
        {
          "internalType": "string",
          "name": "_profile",
          "type": "string"
        }
      ],
      "name": "getIOUListSoc",
      "outputs": [
        {
          "internalType": "address[]",
          "name": "",
          "type": "address[]"
        }
      ],
      "stateMutability": "view",
      "type": "function",
      "constant": true
    },
    {
      "inputs": [
        {
          "internalType": "bytes32",
          "name": "_key",
          "type": "bytes32"
        }
      ],
      "name": "getIOUListKey",
      "outputs": [
        {
          "internalType": "address[]",
          "name": "",
          "type": "address[]"
        }
      ],
      "stateMutability": "view",
      "type": "function",
      "constant": true
    },
    {
      "inputs": [
        {
          "internalType": "address",
          "name": "_holder",
          "type": "address"
        }
      ],
      "name": "getIOUListHold",
      "outputs": [
        {
          "internalType": "address[]",
          "name": "",
          "type": "address[]"
        }
      ],
      "stateMutability": "view",
      "type": "function",
      "constant": true
    },
    {
      "inputs": [],
      "name": "getIOUstotal",
      "outputs": [
        {
          "internalType": "uint256",
          "name": "",
          "type": "uint256"
        }
      ],
      "stateMutability": "view",
      "type": "function",
      "constant": true
    },
    {
      "inputs": [],
      "name": "getKeystotal",
      "outputs": [
        {
          "internalType": "bytes32[]",
          "name": "",
          "type": "bytes32[]"
        }
      ],
      "stateMutability": "view",
      "type": "function",
      "constant": true
    },
    {
      "inputs": [],
      "name": "getIssuerstotal",
      "outputs": [
        {
          "internalType": "uint256",
          "name": "",
          "type": "uint256"
        }
      ],
      "stateMutability": "view",
      "type": "function",
      "constant": true
    },
    {
      "inputs": [
        {
          "internalType": "bytes32",
          "name": "_key",
          "type": "bytes32"
        },
        {
          "internalType": "string",
          "name": "_country",
          "type": "string"
        },
        {
          "internalType": "string",
          "name": "_state",
          "type": "string"
        },
        {
          "internalType": "string",
          "name": "_city",
          "type": "string"
        }
      ],
      "name": "getIOUsbyCity",
      "outputs": [
        {
          "internalType": "address[]",
          "name": "",
          "type": "address[]"
        }
      ],
      "stateMutability": "view",
      "type": "function",
      "constant": true
    },
    {
      "inputs": [
        {
          "internalType": "bytes32",
          "name": "_key",
          "type": "bytes32"
        },
        {
          "internalType": "string",
          "name": "_country",
          "type": "string"
        },
        {
          "internalType": "string",
          "name": "_state",
          "type": "string"
        },
        {
          "internalType": "string",
          "name": "_city",
          "type": "string"
        },
        {
          "internalType": "string",
          "name": "_street",
          "type": "string"
        }
      ],
      "name": "getIOUsbyStreet",
      "outputs": [
        {
          "internalType": "address[]",
          "name": "",
          "type": "address[]"
        }
      ],
      "stateMutability": "view",
      "type": "function",
      "constant": true
    },
    {
      "inputs": [],
      "name": "implIOU",
      "outputs": [
        {
          "internalType": "address",
          "name": "",
          "type": "address"
        }
      ],
      "stateMutability": "view",
      "type": "function",
      "constant": true
    }
  ],
  "bytecode": "0x608060405234801561001057600080fd5b506123dd806100206000396000f3fe608060405234801561001057600080fd5b50600436106101575760003560e01c806386027896116100c3578063d107704d1161007c578063d107704d146102ee578063d83c8bd314610301578063e03e56a914610314578063e83d90f414610327578063f22c3bc31461033a578063f466013d1461034257600080fd5b806386027896146102715780638bcd0655146102845780638c6a2cde14610297578063b21b4451146102a8578063b442fc61146102c8578063c5ab1529146102db57600080fd5b806352fae04e1161011557806352fae04e146101f95780635596b2ab1461020c5780635ec292a91461021f5780636e01acb81461023257806376f7f6de146102455780638129fc1c1461025a57600080fd5b8062a50d811461015c57806313af40351461018c57806323b3af89146101a157806330b02b21146101b457806331df3737146101c65780634f2c272a146101e6575b600080fd5b61016f61016a366004611977565b610355565b6040516001600160a01b0390911681526020015b60405180910390f35b61019f61019a3660046119a3565b61038d565b005b61019f6101af3660046119c7565b610407565b6009545b604051908152602001610183565b6101d96101d43660046119a3565b6104c2565b6040516101839190611a00565b6101d96101f4366004611a4d565b610536565b6101b8610207366004611a4d565b6105a0565b6101d961021a366004611b74565b6105c1565b61019f61022d3660046119a3565b6106a4565b6101d96102403660046119a3565b610719565b61024d61078d565b6040516101839190611c2a565b61019f600d80546001600160a01b03191633179055565b61019f61027f366004611c62565b6107e5565b61019f610292366004611c62565b6108be565b600e546001600160a01b031661016f565b6101b86102b63660046119a3565b60036020526000908152604090205481565b61016f6102d6366004611a4d565b610924565b61016f6102e9366004611a4d565b61094e565b61019f6102fc366004611ce7565b61095e565b61019f61030f366004611d22565b610a5d565b6101d9610322366004611d80565b610c10565b6101d9610335366004611dbc565b610c88565b6008546101b8565b61016f610350366004611977565b610d4e565b6000602052816000526040600020818154811061037157600080fd5b6000918252602090912001546001600160a01b03169150829050565b600d546001600160a01b031633146103e55760405162461bcd60e51b81526020600482015260166024820152754f6e6c79206f776e65722063616e20646f207468697360501b60448201526064015b60405180910390fd5b600d80546001600160a01b0319166001600160a01b0392909216919091179055565b806001600160a01b03811633146104305760405162461bcd60e51b81526004016103dc90611e4d565b6001600160a01b0380841660009081526004602090815260408083209386168352929052205460ff166104bd576001600160a01b0383811660008181526002602090815260408083208054600180820183559185528385200180546001600160a01b03191696891696871790559383526004825280832094835293905291909120805460ff191690911790555b505050565b6001600160a01b0381166000908152602081815260409182902080548351818402810184019094528084526060939283018282801561052a57602002820191906000526020600020905b81546001600160a01b0316815260019091019060200180831161050c575b50505050509050919050565b60008181526005602090815260409182902080548351818402810184019094528084526060939283018282801561052a576020028201919060005260206000209081546001600160a01b0316815260019091019060200180831161050c5750505050509050919050565b600781815481106105b057600080fd5b600091825260209091200154905081565b6060600b6000878152602001908152602001600020856040516105e49190611eb0565b9081526020016040518091039020846040516106009190611eb0565b90815260200160405180910390208360405161061c9190611eb0565b9081526020016040518091039020826040516106389190611eb0565b908152604080519182900360209081018320805480830285018301909352828452919083018282801561069457602002820191906000526020600020905b81546001600160a01b03168152600190910190602001808311610676575b5050505050905095945050505050565b600d546001600160a01b031633146106f75760405162461bcd60e51b81526020600482015260166024820152754f6e6c79206f776e65722063616e20646f207468697360501b60448201526064016103dc565b600e80546001600160a01b0319166001600160a01b0392909216919091179055565b6001600160a01b03811660009081526002602090815260409182902080548351818402810184019094528084526060939283018282801561052a576020028201919060005260206000209081546001600160a01b0316815260019091019060200180831161050c5750505050509050919050565b606060078054806020026020016040519081016040528092919081815260200182805480156107db57602002820191906000526020600020905b8154815260200190600101908083116107c7575b5050505050905090565b806001600160a01b038116331461080e5760405162461bcd60e51b81526004016103dc90611e4d565b6108b882858580806020026020016040519081016040528093929190818152602001838360200280828437600092018290525060408051630295d8d960e21b815290516001600160a01b038b169550630a57636494506004808301945090918290030181865afa158015610886573d6000803e3d6000fd5b505050506040513d6000823e601f3d908101601f191682016040526108ae9190810190612058565b6101000151610d6a565b50505050565b806001600160a01b03811633146108e75760405162461bcd60e51b81526004016103dc90611e4d565b6108b882858580806020026020016040519081016040528093929190818152602001838360200280828437600092019190915250610efc92505050565b6009818154811061093457600080fd5b6000918252602090912001546001600160a01b0316905081565b6008818154811061093457600080fd5b806001600160a01b03811633146109875760405162461bcd60e51b81526004016103dc90611e4d565b6000826001600160a01b0316630a5763646040518163ffffffff1660e01b8152600401600060405180830381865afa1580156109c7573d6000803e3d6000fd5b505050506040513d6000823e601f3d908101601f191682016040526109ef9190810190612058565b6101200151905060005b81518160ff161015610a56576000828260ff1681518110610a1c57610a1c6121a1565b60200260200101519050610a30858261106d565b610a4385610a3d886121b7565b8361169d565b5080610a4e81612277565b9150506109f9565b5050505050565b600880546001810182557ff3f7a9fe364faab93b216da50a3214154f22a0a2b415b23a84c8169e8b636ee30180546001600160a01b0319166001600160a01b0386811691821790925591546000928352600360209081526040808520929092559185168352908290528120549003610b1b57600980546001810182556000919091527f6e1540171b6c0c960b71a7020d9f60077f6af931a8bbf590da0223dacf75c7af0180546001600160a01b0319166001600160a01b0384161790555b6001600160a01b038281166000908152602081815260408220805460018082018355918452919092200180546001600160a01b03191692861692909217909155610b6860c0830183612296565b604051610b769291906122e3565b90815260405160209181900382019020805460018101825560009182529190200180546001600160a01b0319166001600160a01b0385161790556104bd83610bc26101208401846122f3565b80806020026020016040519081016040528093929190818152602001838360200280828437600092019190915250610c029250505061010085018561233c565b610c0b906121b7565b610d6a565b6060600182604051610c229190611eb0565b908152604080519182900360209081018320805480830285018301909352828452919083018282801561052a576020028201919060005260206000209081546001600160a01b0316815260019091019060200180831161050c5750505050509050919050565b6060600a600086815260200190815260200160002084604051610cab9190611eb0565b908152602001604051809103902083604051610cc79190611eb0565b908152602001604051809103902082604051610ce39190611eb0565b9081526040805191829003602090810183208054808302850183019093528284529190830182828015610d3f57602002820191906000526020600020905b81546001600160a01b03168152600190910190602001808311610d21575b50505050509050949350505050565b6002602052816000526040600020818154811061037157600080fd5b60006005835111610d7c578251610d7f565b60055b905060005b818160ff161015610a56576000848260ff1681518110610da657610da66121a1565b602002602001015190506000801b811115610ee957600081815260056020908152604080832080548251818502810185019093528083529192909190830182828015610e1b57602002820191906000526020600020905b81546001600160a01b03168152600190910190602001808311610dfd575b505050505090508051600003610e6157600780546001810182556000919091527fa66cc928b5edb82af9bd49922954155ab7b0942694bea4ce44661d9a8736c688018290555b60008281526006602090815260408083206001600160a01b038b1684529091528120549003610edc57600082815260056020908152604080832080546001810182558185528385200180546001600160a01b0319166001600160a01b038d169081179091558685529054600684528285209185529252909120555b610ee787868461169d565b505b5080610ef481612277565b915050610d84565b60006005825111610f0e578151610f11565b60055b905060005b818160ff1610156108b8576000838260ff1681518110610f3857610f386121a1565b602002602001015190506000801b81111561105a5760008181526006602090815260408083206001600160a01b038916845290915290205480156110585760008281526005602052604090208054610f9290600190612352565b81548110610fa257610fa26121a1565b6000918252602080832090910154848352600590915260409091206001600160a01b0390911690610fd4600184612352565b81548110610fe457610fe46121a1565b600091825260208083209190910180546001600160a01b0319166001600160a01b03949094169390931790925583815260059091526040902080548061102c5761102c612369565b600082815260209020810160001990810180546001600160a01b0319169055019055611058868361106d565b505b508061106581612277565b915050610f16565b6000826001600160a01b0316630a5763646040518163ffffffff1660e01b8152600401600060405180830381865afa1580156110ad573d6000803e3d6000fd5b505050506040513d6000823e601f3d908101601f191682016040526110d59190810190612058565b61010001516000838152600a60205260408082208351915193945091926110fc9190611eb0565b9081526020016040518091039020826020015160405161111c9190611eb0565b9081526020016040518091039020826040015160405161113c9190611eb0565b908152604080519182900360209081018320546000878152600a90925291902084519193509161116c9190611eb0565b9081526020016040518091039020826020015160405161118c9190611eb0565b908152602001604051809103902082604001516040516111ac9190611eb0565b9081526040519081900360200190206111c6600183612352565b815481106111d6576111d66121a1565b6000918252602080832090910154858352600a909152604091829020845192516001600160a01b0390921692909161120e9190611eb0565b9081526020016040518091039020836020015160405161122e9190611eb0565b9081526020016040518091039020836040015160405161124e9190611eb0565b90815260408051602092819003830190206001600160a01b0388166000908152600c90935291205461128b906001906001600160401b031661237f565b6001600160401b0316815481106112a4576112a46121a1565b9060005260206000200160006101000a8154816001600160a01b0302191690836001600160a01b03160217905550600a600084815260200190815260200160002082600001516040516112f79190611eb0565b908152602001604051809103902082602001516040516113179190611eb0565b908152602001604051809103902082604001516040516113379190611eb0565b908152602001604051809103902080548061135457611354612369565b60008281526020808220830160001990810180546001600160a01b0319169055909201909255848252600b905260409081902083519151909161139691611eb0565b908152602001604051809103902082602001516040516113b69190611eb0565b908152602001604051809103902082604001516040516113d69190611eb0565b908152602001604051809103902082606001516040516113f69190611eb0565b908152604080519182900360209081018320546000878152600b9092529190208451919350916114269190611eb0565b908152602001604051809103902082602001516040516114469190611eb0565b908152602001604051809103902082604001516040516114669190611eb0565b908152602001604051809103902082606001516040516114869190611eb0565b9081526040519081900360200190206114a0600183612352565b815481106114b0576114b06121a1565b6000918252602080832090910154858352600b909152604091829020845192516001600160a01b039092169290916114e89190611eb0565b908152602001604051809103902083602001516040516115089190611eb0565b908152602001604051809103902083604001516040516115289190611eb0565b908152602001604051809103902083606001516040516115489190611eb0565b90815260408051602092819003830190206001600160a01b0388166000908152600c90935291205461158c90600190600160401b90046001600160401b031661237f565b6001600160401b0316815481106115a5576115a56121a1565b9060005260206000200160006101000a8154816001600160a01b0302191690836001600160a01b03160217905550600b600084815260200190815260200160002082600001516040516115f89190611eb0565b908152602001604051809103902082602001516040516116189190611eb0565b908152602001604051809103902082604001516040516116389190611eb0565b908152602001604051809103902082606001516040516116589190611eb0565b908152602001604051809103902080548061167557611675612369565b600082815260209020810160001990810180546001600160a01b031916905501905550505050565b6000818152600a6020526040908190208351915190916116bc91611eb0565b908152602001604051809103902082602001516040516116dc9190611eb0565b908152602001604051809103902082604001516040516116fc9190611eb0565b9081526040805160209281900383018120805460018101825560009182528482200180546001600160a01b0319166001600160a01b038916179055848152600a90935291208351909161174f9190611eb0565b9081526020016040518091039020826020015160405161176f9190611eb0565b9081526020016040518091039020826040015160405161178f9190611eb0565b9081526040805160209281900383018120546001600160a01b0387166000908152600c8552838120805467ffffffffffffffff19166001600160401b0390931692909217909155848152600b9093529120835190916117ee9190611eb0565b9081526020016040518091039020826020015160405161180e9190611eb0565b9081526020016040518091039020826040015160405161182e9190611eb0565b9081526020016040518091039020826060015160405161184e9190611eb0565b9081526040805160209281900383018120805460018101825560009182528482200180546001600160a01b0319166001600160a01b038916179055848152600b9093529120835190916118a19190611eb0565b908152602001604051809103902082602001516040516118c19190611eb0565b908152602001604051809103902082604001516040516118e19190611eb0565b908152602001604051809103902082606001516040516119019190611eb0565b90815260408051918290036020908101909220546001600160a01b039095166000908152600c909252902080546001600160401b03909416600160401b026fffffffffffffffff000000000000000019909416939093179092555050565b6001600160a01b038116811461197457600080fd5b50565b6000806040838503121561198a57600080fd5b82356119958161195f565b946020939093013593505050565b6000602082840312156119b557600080fd5b81356119c08161195f565b9392505050565b600080604083850312156119da57600080fd5b82356119e58161195f565b915060208301356119f58161195f565b809150509250929050565b6020808252825182820181905260009190848201906040850190845b81811015611a415783516001600160a01b031683529284019291840191600101611a1c565b50909695505050505050565b600060208284031215611a5f57600080fd5b5035919050565b634e487b7160e01b600052604160045260246000fd5b604051608081016001600160401b0381118282101715611a9e57611a9e611a66565b60405290565b60405161016081016001600160401b0381118282101715611a9e57611a9e611a66565b604051601f8201601f191681016001600160401b0381118282101715611aef57611aef611a66565b604052919050565b60006001600160401b03821115611b1057611b10611a66565b50601f01601f191660200190565b600082601f830112611b2f57600080fd5b8135611b42611b3d82611af7565b611ac7565b818152846020838601011115611b5757600080fd5b816020850160208301376000918101602001919091529392505050565b600080600080600060a08688031215611b8c57600080fd5b8535945060208601356001600160401b0380821115611baa57600080fd5b611bb689838a01611b1e565b95506040880135915080821115611bcc57600080fd5b611bd889838a01611b1e565b94506060880135915080821115611bee57600080fd5b611bfa89838a01611b1e565b93506080880135915080821115611c1057600080fd5b50611c1d88828901611b1e565b9150509295509295909350565b6020808252825182820181905260009190848201906040850190845b81811015611a4157835183529284019291840191600101611c46565b600080600060408486031215611c7757600080fd5b83356001600160401b0380821115611c8e57600080fd5b818601915086601f830112611ca257600080fd5b813581811115611cb157600080fd5b8760208260051b8501011115611cc657600080fd5b60209283019550935050840135611cdc8161195f565b809150509250925092565b60008060408385031215611cfa57600080fd5b82356001600160401b03811115611d1057600080fd5b8301608081860312156119e557600080fd5b600080600060608486031215611d3757600080fd5b8335611d428161195f565b92506020840135611d528161195f565b915060408401356001600160401b03811115611d6d57600080fd5b84016101608187031215611cdc57600080fd5b600060208284031215611d9257600080fd5b81356001600160401b03811115611da857600080fd5b611db484828501611b1e565b949350505050565b60008060008060808587031215611dd257600080fd5b8435935060208501356001600160401b0380821115611df057600080fd5b611dfc88838901611b1e565b94506040870135915080821115611e1257600080fd5b611e1e88838901611b1e565b93506060870135915080821115611e3457600080fd5b50611e4187828801611b1e565b91505092959194509250565b6020808252601c908201527f4f6e6c79206f776e20646174612063616e206265206368616e67656400000000604082015260600190565b60005b83811015611e9f578181015183820152602001611e87565b838111156108b85750506000910152565b60008251611ec2818460208701611e84565b9190910192915050565b8051611ed78161195f565b919050565b600082601f830112611eed57600080fd5b8151611efb611b3d82611af7565b818152846020838601011115611f1057600080fd5b611db4826020830160208701611e84565b600060808284031215611f3357600080fd5b611f3b611a7c565b905081516001600160401b0380821115611f5457600080fd5b611f6085838601611edc565b83526020840151915080821115611f7657600080fd5b611f8285838601611edc565b60208401526040840151915080821115611f9b57600080fd5b611fa785838601611edc565b60408401526060840151915080821115611fc057600080fd5b50611fcd84828501611edc565b60608301525092915050565b600082601f830112611fea57600080fd5b815160206001600160401b0382111561200557612005611a66565b8160051b612014828201611ac7565b928352848101820192828101908785111561202e57600080fd5b83870192505b8483101561204d57825182529183019190830190612034565b979650505050505050565b60006020828403121561206a57600080fd5b81516001600160401b038082111561208157600080fd5b90830190610160828603121561209657600080fd5b61209e611aa4565b825181526020830151602082015260408301516040820152606083015160608201526120cc60808401611ecc565b608082015260a0830151828111156120e357600080fd5b6120ef87828601611edc565b60a08301525060c08301518281111561210757600080fd5b61211387828601611edc565b60c08301525060e08301518281111561212b57600080fd5b61213787828601611edc565b60e083015250610100808401518381111561215157600080fd5b61215d88828701611f21565b828401525050610120808401518381111561217757600080fd5b61218388828701611fd9565b91830191909152506101409283015192810192909252509392505050565b634e487b7160e01b600052603260045260246000fd5b6000608082360312156121c957600080fd5b6121d1611a7c565b82356001600160401b03808211156121e857600080fd5b6121f436838701611b1e565b8352602085013591508082111561220a57600080fd5b61221636838701611b1e565b6020840152604085013591508082111561222f57600080fd5b61223b36838701611b1e565b6040840152606085013591508082111561225457600080fd5b50611fcd36828601611b1e565b634e487b7160e01b600052601160045260246000fd5b600060ff821660ff810361228d5761228d612261565b60010192915050565b6000808335601e198436030181126122ad57600080fd5b8301803591506001600160401b038211156122c757600080fd5b6020019150368190038213156122dc57600080fd5b9250929050565b8183823760009101908152919050565b6000808335601e1984360301811261230a57600080fd5b8301803591506001600160401b0382111561232457600080fd5b6020019150600581901b36038213156122dc57600080fd5b60008235607e19833603018112611ec257600080fd5b60008282101561236457612364612261565b500390565b634e487b7160e01b600052603160045260246000fd5b60006001600160401b038381169083168181101561239f5761239f612261565b03939250505056fea2646970667358221220082e8e4b65ff991c5dab11b1f964d95bf7999926b570a252d45a1475166c4e2164736f6c634300080e0033",
  "immutableReferences": {},
  "source": "pragma solidity >=  0.8.0;\npragma experimental ABIEncoderV2;\nimport \"./interfaces/iStoreIOUs.sol\";\nimport \"./interfaces/iIOUtoken.sol\";\nimport \"./Initializable.sol\";\nimport \"./StoreIOUData.sol\";\n\ncontract StoreIOUs is StoreIOUData,  iStoreIOUs {\n    //constructor ()  {\n    function initialize () public {\n        owner = msg.sender;\n    }\n\n    modifier onlyOwner() {\n        require (owner == msg.sender, \"Only owner can do this\");\n        _;\n    }\n\n/*     modifier onlyFactory() {\n/*         require (makeFactory != address(0x0), \"No makeFactory address\");\n        require (makeFactory == msg.sender, \"Only makeFactory can do this\"); \n        _;\n    }\n\n    modifier isIOUtoken () {\n        require (makeFactory == msg.sender || isIOU[msg.sender] > 0 , \"Not IOU token calls\" );\n        _;\n    }\n */\n    function setOwner (address _newOwner) public onlyOwner {\n        owner = _newOwner;\n    }\n/* \n    function setFactory (address _newFact) public onlyOwner {\n        makeFactory = _newFact;\n    }\n */\n    function setimplIOU (address _newImpl) public onlyOwner {\n        implementIOU = _newImpl;\n    }\n\n    modifier onlySelf(address _addrIOU) {\n       // iIOUtoken.DescriptionIOU memory desc = iIOUtoken(_addrIOU).thisIOUDesc();\n        require (_addrIOU == msg.sender, \"Only own data can be changed\");\n        _;\n    }\n\n    function addIOU1 (address _addrIOU, address _emitent,  iIOUtoken.DescriptionIOU calldata _thisIOU ) public override  {\n        \n        allIOU.push(_addrIOU);\n        isIOU[_addrIOU] = allIOU.length;\n\n        if (listIOUs[_emitent].length == 0) {\n            allIssuers.push(_emitent); \n        }\n        listIOUs[_emitent].push(_addrIOU);\n        //iIOUtoken curIOU =  iIOUtoken(_addrIOU);\n        listIOUsSoc[_thisIOU.socialProfile].push(_addrIOU);\n        _addKeys(_addrIOU, _thisIOU.keywords, _thisIOU.location);\n    }\n\n\n    function addKeys (bytes32[] calldata _keywords, address _addrIOU ) public onlySelf (_addrIOU) override {\n\n        _addKeys(_addrIOU, _keywords, iIOUtoken(_addrIOU).thisIOUDesc().location);\n    }\n    function delKeys (bytes32[] calldata _keywords, address _addrIOU ) public onlySelf (_addrIOU) override {\n        _delKeys(_addrIOU, _keywords);\n    }\n\n    \n    /// when changed geolocation\n    function changeIOUGeoAllkeys  (iIOUtoken.geo calldata _newloc, address _addrIOU ) external override onlySelf (_addrIOU) {\n        bytes32[] memory keys = iIOUtoken(_addrIOU).thisIOUDesc().keywords;\n        for (uint8 k=0; k<keys.length; k++)  {  \n            bytes32 key = keys[k];\n            _delkeyIOUGeo(_addrIOU, key);\n            _setIOUGeo(_addrIOU, _newloc, key);          \n\n            }\n    }\n    function _addKeys (address _addrIOU, bytes32[] memory _keywords, iIOUtoken.geo  memory _location) internal{\n\n        uint lenArr = _keywords.length > 5 ? 5: _keywords.length;\n        for (uint8 k=0 ; k < lenArr ; k++){\n            bytes32 key = _keywords[k];\n                if (key > 0 ){\n                    address[] memory lbk = listbyKeys[key];\n                    if  (lbk.length == 0 ) { // new keyword, never used in IOUs before\n                        allKeywords.push(key);\n                    }\n                    if (keyByList[key][_addrIOU] == 0) {\n                        listbyKeys[key].push(_addrIOU);\n                        keyByList[key][_addrIOU] = listbyKeys[key].length;\n                    }\n                    _setIOUGeo(_addrIOU,\n                            _location, \n                            key);\n                }\n            } \n    }\n\n\n    function _delKeys (address _addrIOU, bytes32[] memory _keywords) internal{\n\n        uint lenArr = _keywords.length > 5 ? 5: _keywords.length;\n        for (uint8 k=0 ; k < lenArr ; k++){\n            bytes32 key = _keywords[k];\n            if (key > 0 ){\n                uint keyNum = keyByList[key][_addrIOU];\n                if  (keyNum > 0 ) {\n                    listbyKeys[key][keyNum-1] = \n                    listbyKeys[key][\n                      listbyKeys[key].length -1];\n                    listbyKeys[key].pop();\n                    _delkeyIOUGeo(_addrIOU, key);\n                }\n \n            }\n        } \n    }\n\n\n    function _setIOUGeo (address _addrIOU, \n                        iIOUtoken.geo memory _loc,\n                        bytes32 _key) internal { //public  onlySelf (_addrIOU)\n\n        listbyCity_[_key] [_loc.country][_loc.state][_loc.city].push(_addrIOU);\n        posIOU[_addrIOU].inCity = uint64(listbyCity_[_key][_loc.country][_loc.state][_loc.city].length);\n        listbyStreet_[_key][_loc.country][_loc.state][_loc.city][_loc.street].push(_addrIOU);\n        posIOU[_addrIOU].onStreet = uint64(listbyStreet_[_key][_loc.country][_loc.state][_loc.city][_loc.street].length);\n\n    }\n\n    function _delkeyIOUGeo  (address _addrIOU, \n                            bytes32 key) internal {\n\n        iIOUtoken.geo memory curr = iIOUtoken(_addrIOU).thisIOUDesc().location;\n\n        uint curlen = listbyCity_[key][curr.country][curr.state][curr.city].length;\n        // delete old key connection\n        listbyCity_[key][curr.country][curr.state][curr.city][posIOU[_addrIOU].inCity -1] = \n        listbyCity_[key][curr.country][curr.state][curr.city][curlen-1];\n        listbyCity_[key][curr.country][curr.state][curr.city].pop();\n\n        curlen = listbyStreet_[key][curr.country][curr.state][curr.city][curr.street].length;\n        listbyStreet_[key][curr.country][curr.state][curr.city][curr.street][posIOU[_addrIOU].onStreet -1] = \n        listbyStreet_[key][curr.country][curr.state][curr.city][curr.street][curlen-1];\n        listbyStreet_[key][curr.country][curr.state][curr.city][curr.street].pop();\n        \n        }\n\n\n\n    function addHolder(address _holder, address _IOUtoken) public override onlySelf (_IOUtoken) {\n        if (!isHolderthisIOU[_holder][_IOUtoken] ) {\n            listHoldersIOUs [_holder].push(_IOUtoken);\n            isHolderthisIOU[_holder][_IOUtoken] = true;\n        }\n    }\n\n    function getIOUList (address _owner) public override view returns (address[] memory) {\n            return listIOUs[_owner];\n        }\n\n    function getIOUListSoc (string memory _profile) public override view returns (address[] memory) {\n            return listIOUsSoc[_profile];\n                }\n\n    function getIOUListKey (bytes32 _key) public override view returns (address[] memory) {\n            return listbyKeys[_key];\n                }\n\n\n    function getIOUListHold (address _holder) public view override returns (address[] memory) {\n            return listHoldersIOUs [_holder];\n        }\n\n    function getIOUstotal () public view override  returns (uint256)\n    {\n        return allIOU.length;\n    }    \n\n    function getKeystotal () public view override returns (bytes32[] memory) \n    {\n        return allKeywords;\n    }    \n\n    function getIssuerstotal () public view override returns (uint256)\n    {\n        return allIssuers.length;\n    }\n\n    function getIOUsbyCity(bytes32 _key,\n                            string memory _country,\n                            string memory _state,\n                            string memory _city) public  view returns (address[] memory) {\n        return listbyCity_  [_key][_country][_state][_city];\n            }\n\n    function getIOUsbyStreet (bytes32 _key,\n                        string memory _country,\n                        string memory _state,\n                        string memory _city,\n                        string memory _street) public view returns (address[] memory) {\n        return listbyStreet_[_key][_country][_state][_city][_street];\n                }\n    function implIOU() external view returns (address) {\n        return implementIOU;\n    }\n    }",
  "sourcePath": "/512-2/dfd/iou2-1/contracts/StoreIOUs.sol",
  "compiler": {
    "name": "solc",
    "version": "0.8.14+commit.80d49f37.Emscripten.clang"
  },
  "schemaVersion": "3.4.6",
  "updatedAt": "2022-09-07T07:59:59.042Z",
  "networkType": "ethereum",
  "devdoc": {
    "kind": "dev",
    "methods": {},
    "version": 1
  },
  "userdoc": {
    "kind": "user",
    "methods": {
      "changeIOUGeoAllkeys((string,string,string,string),address)": {
        "notice": "when changed geolocation"
      }
    },
    "version": 1
  }
}